{
  "address": "0x71aCe36baFFcEA97e934874B3F2f340C292d4f1E",
  "abi": [
    {
      "inputs": [
        {
          "internalType": "address",
          "name": "_aclRoot",
          "type": "address"
        },
        {
          "components": [
            {
              "internalType": "uint256",
              "name": "executionDelay",
              "type": "uint256"
            },
            {
              "components": [
                {
                  "internalType": "address",
                  "name": "token",
                  "type": "address"
                },
                {
                  "internalType": "uint256",
                  "name": "amount",
                  "type": "uint256"
                }
              ],
              "internalType": "struct ERC3000Data.Collateral",
              "name": "scheduleDeposit",
              "type": "tuple"
            },
            {
              "components": [
                {
                  "internalType": "address",
                  "name": "token",
                  "type": "address"
                },
                {
                  "internalType": "uint256",
                  "name": "amount",
                  "type": "uint256"
                }
              ],
              "internalType": "struct ERC3000Data.Collateral",
              "name": "challengeDeposit",
              "type": "tuple"
            },
            {
              "internalType": "address",
              "name": "resolver",
              "type": "address"
            },
            {
              "internalType": "bytes",
              "name": "rules",
              "type": "bytes"
            },
            {
              "internalType": "uint256",
              "name": "maxCalldataSize",
              "type": "uint256"
            }
          ],
          "internalType": "struct ERC3000Data.Config",
          "name": "_initialConfig",
          "type": "tuple"
        }
      ],
      "stateMutability": "nonpayable",
      "type": "constructor"
    },
    {
      "anonymous": false,
      "inputs": [
        {
          "indexed": true,
          "internalType": "bytes32",
          "name": "containerHash",
          "type": "bytes32"
        },
        {
          "indexed": true,
          "internalType": "address",
          "name": "actor",
          "type": "address"
        },
        {
          "indexed": false,
          "internalType": "bytes",
          "name": "reason",
          "type": "bytes"
        },
        {
          "indexed": false,
          "internalType": "uint256",
          "name": "resolverId",
          "type": "uint256"
        },
        {
          "components": [
            {
              "internalType": "address",
              "name": "token",
              "type": "address"
            },
            {
              "internalType": "uint256",
              "name": "amount",
              "type": "uint256"
            }
          ],
          "indexed": false,
          "internalType": "struct ERC3000Data.Collateral",
          "name": "collateral",
          "type": "tuple"
        }
      ],
      "name": "Challenged",
      "type": "event"
    },
    {
      "anonymous": false,
      "inputs": [
        {
          "indexed": true,
          "internalType": "bytes32",
          "name": "configHash",
          "type": "bytes32"
        },
        {
          "indexed": true,
          "internalType": "address",
          "name": "actor",
          "type": "address"
        },
        {
          "components": [
            {
              "internalType": "uint256",
              "name": "executionDelay",
              "type": "uint256"
            },
            {
              "components": [
                {
                  "internalType": "address",
                  "name": "token",
                  "type": "address"
                },
                {
                  "internalType": "uint256",
                  "name": "amount",
                  "type": "uint256"
                }
              ],
              "internalType": "struct ERC3000Data.Collateral",
              "name": "scheduleDeposit",
              "type": "tuple"
            },
            {
              "components": [
                {
                  "internalType": "address",
                  "name": "token",
                  "type": "address"
                },
                {
                  "internalType": "uint256",
                  "name": "amount",
                  "type": "uint256"
                }
              ],
              "internalType": "struct ERC3000Data.Collateral",
              "name": "challengeDeposit",
              "type": "tuple"
            },
            {
              "internalType": "address",
              "name": "resolver",
              "type": "address"
            },
            {
              "internalType": "bytes",
              "name": "rules",
              "type": "bytes"
            },
            {
              "internalType": "uint256",
              "name": "maxCalldataSize",
              "type": "uint256"
            }
          ],
          "indexed": false,
          "internalType": "struct ERC3000Data.Config",
          "name": "config",
          "type": "tuple"
        }
      ],
      "name": "Configured",
      "type": "event"
    },
    {
      "anonymous": false,
      "inputs": [
        {
          "indexed": true,
          "internalType": "bytes32",
          "name": "containerHash",
          "type": "bytes32"
        },
        {
          "indexed": true,
          "internalType": "address",
          "name": "actor",
          "type": "address"
        }
      ],
      "name": "Executed",
      "type": "event"
    },
    {
      "anonymous": false,
      "inputs": [
        {
          "indexed": true,
          "internalType": "bytes4",
          "name": "role",
          "type": "bytes4"
        },
        {
          "indexed": true,
          "internalType": "address",
          "name": "actor",
          "type": "address"
        }
      ],
      "name": "Frozen",
      "type": "event"
    },
    {
      "anonymous": false,
      "inputs": [
        {
          "indexed": true,
          "internalType": "bytes4",
          "name": "role",
          "type": "bytes4"
        },
        {
          "indexed": true,
          "internalType": "address",
          "name": "actor",
          "type": "address"
        },
        {
          "indexed": true,
          "internalType": "address",
          "name": "who",
          "type": "address"
        },
        {
          "indexed": false,
          "internalType": "contract IACLOracle",
          "name": "oracle",
          "type": "address"
        }
      ],
      "name": "Granted",
      "type": "event"
    },
    {
      "anonymous": false,
      "inputs": [
        {
          "indexed": true,
          "internalType": "string",
          "name": "key",
          "type": "string"
        }
      ],
      "name": "Initialized",
      "type": "event"
    },
    {
      "anonymous": false,
      "inputs": [
        {
          "indexed": true,
          "internalType": "bytes4",
          "name": "sig",
          "type": "bytes4"
        },
        {
          "indexed": false,
          "internalType": "bytes",
          "name": "data",
          "type": "bytes"
        }
      ],
      "name": "ReceivedCallback",
      "type": "event"
    },
    {
      "anonymous": false,
      "inputs": [
        {
          "indexed": false,
          "internalType": "bytes4",
          "name": "sig",
          "type": "bytes4"
        },
        {
          "indexed": false,
          "internalType": "bytes4",
          "name": "magicNumber",
          "type": "bytes4"
        }
      ],
      "name": "RegisteredCallback",
      "type": "event"
    },
    {
      "anonymous": false,
      "inputs": [
        {
          "indexed": false,
          "internalType": "bytes4",
          "name": "interfaceId",
          "type": "bytes4"
        }
      ],
      "name": "RegisteredStandard",
      "type": "event"
    },
    {
      "anonymous": false,
      "inputs": [
        {
          "indexed": true,
          "internalType": "bytes32",
          "name": "containerHash",
          "type": "bytes32"
        },
        {
          "indexed": true,
          "internalType": "address",
          "name": "actor",
          "type": "address"
        },
        {
          "indexed": false,
          "internalType": "bool",
          "name": "approved",
          "type": "bool"
        }
      ],
      "name": "Resolved",
      "type": "event"
    },
    {
      "anonymous": false,
      "inputs": [
        {
          "indexed": true,
          "internalType": "bytes4",
          "name": "role",
          "type": "bytes4"
        },
        {
          "indexed": true,
          "internalType": "address",
          "name": "actor",
          "type": "address"
        },
        {
          "indexed": true,
          "internalType": "address",
          "name": "who",
          "type": "address"
        }
      ],
      "name": "Revoked",
      "type": "event"
    },
    {
      "anonymous": false,
      "inputs": [
        {
          "indexed": true,
          "internalType": "contract IArbitrator",
          "name": "arbitrator",
          "type": "address"
        },
        {
          "indexed": true,
          "internalType": "uint256",
          "name": "disputeId",
          "type": "uint256"
        },
        {
          "indexed": false,
          "internalType": "uint256",
          "name": "ruling",
          "type": "uint256"
        }
      ],
      "name": "Ruled",
      "type": "event"
    },
    {
      "anonymous": false,
      "inputs": [
        {
          "indexed": true,
          "internalType": "bytes32",
          "name": "containerHash",
          "type": "bytes32"
        },
        {
          "components": [
            {
              "internalType": "uint256",
              "name": "nonce",
              "type": "uint256"
            },
            {
              "internalType": "uint256",
              "name": "executionTime",
              "type": "uint256"
            },
            {
              "internalType": "address",
              "name": "submitter",
              "type": "address"
            },
            {
              "internalType": "contract IERC3000Executor",
              "name": "executor",
              "type": "address"
            },
            {
              "components": [
                {
                  "internalType": "address",
                  "name": "to",
                  "type": "address"
                },
                {
                  "internalType": "uint256",
                  "name": "value",
                  "type": "uint256"
                },
                {
                  "internalType": "bytes",
                  "name": "data",
                  "type": "bytes"
                }
              ],
              "internalType": "struct ERC3000Data.Action[]",
              "name": "actions",
              "type": "tuple[]"
            },
            {
              "internalType": "bytes32",
              "name": "allowFailuresMap",
              "type": "bytes32"
            },
            {
              "internalType": "bytes",
              "name": "proof",
              "type": "bytes"
            }
          ],
          "indexed": false,
          "internalType": "struct ERC3000Data.Payload",
          "name": "payload",
          "type": "tuple"
        }
      ],
      "name": "Scheduled",
      "type": "event"
    },
    {
      "anonymous": false,
      "inputs": [
        {
          "indexed": true,
          "internalType": "bytes32",
          "name": "containerHash",
          "type": "bytes32"
        },
        {
          "indexed": true,
          "internalType": "address",
          "name": "actor",
          "type": "address"
        },
        {
          "indexed": false,
          "internalType": "bytes",
          "name": "reason",
          "type": "bytes"
        }
      ],
      "name": "Vetoed",
      "type": "event"
    },
    {
      "inputs": [],
      "name": "ROOT_ROLE",
      "outputs": [
        {
          "internalType": "bytes4",
          "name": "",
          "type": "bytes4"
        }
      ],
      "stateMutability": "view",
      "type": "function"
    },
    {
      "inputs": [
        {
          "components": [
            {
              "internalType": "enum ACLData.BulkOp",
              "name": "op",
              "type": "uint8"
            },
            {
              "internalType": "bytes4",
              "name": "role",
              "type": "bytes4"
            },
            {
              "internalType": "address",
              "name": "who",
              "type": "address"
            }
          ],
          "internalType": "struct ACLData.BulkItem[]",
          "name": "items",
          "type": "tuple[]"
        }
      ],
      "name": "bulk",
      "outputs": [],
      "stateMutability": "nonpayable",
      "type": "function"
    },
    {
      "inputs": [
        {
          "components": [
            {
              "components": [
                {
                  "internalType": "uint256",
                  "name": "nonce",
                  "type": "uint256"
                },
                {
                  "internalType": "uint256",
                  "name": "executionTime",
                  "type": "uint256"
                },
                {
                  "internalType": "address",
                  "name": "submitter",
                  "type": "address"
                },
                {
                  "internalType": "contract IERC3000Executor",
                  "name": "executor",
                  "type": "address"
                },
                {
                  "components": [
                    {
                      "internalType": "address",
                      "name": "to",
                      "type": "address"
                    },
                    {
                      "internalType": "uint256",
                      "name": "value",
                      "type": "uint256"
                    },
                    {
                      "internalType": "bytes",
                      "name": "data",
                      "type": "bytes"
                    }
                  ],
                  "internalType": "struct ERC3000Data.Action[]",
                  "name": "actions",
                  "type": "tuple[]"
                },
                {
                  "internalType": "bytes32",
                  "name": "allowFailuresMap",
                  "type": "bytes32"
                },
                {
                  "internalType": "bytes",
                  "name": "proof",
                  "type": "bytes"
                }
              ],
              "internalType": "struct ERC3000Data.Payload",
              "name": "payload",
              "type": "tuple"
            },
            {
              "components": [
                {
                  "internalType": "uint256",
                  "name": "executionDelay",
                  "type": "uint256"
                },
                {
                  "components": [
                    {
                      "internalType": "address",
                      "name": "token",
                      "type": "address"
                    },
                    {
                      "internalType": "uint256",
                      "name": "amount",
                      "type": "uint256"
                    }
                  ],
                  "internalType": "struct ERC3000Data.Collateral",
                  "name": "scheduleDeposit",
                  "type": "tuple"
                },
                {
                  "components": [
                    {
                      "internalType": "address",
                      "name": "token",
                      "type": "address"
                    },
                    {
                      "internalType": "uint256",
                      "name": "amount",
                      "type": "uint256"
                    }
                  ],
                  "internalType": "struct ERC3000Data.Collateral",
                  "name": "challengeDeposit",
                  "type": "tuple"
                },
                {
                  "internalType": "address",
                  "name": "resolver",
                  "type": "address"
                },
                {
                  "internalType": "bytes",
                  "name": "rules",
                  "type": "bytes"
                },
                {
                  "internalType": "uint256",
                  "name": "maxCalldataSize",
                  "type": "uint256"
                }
              ],
              "internalType": "struct ERC3000Data.Config",
              "name": "config",
              "type": "tuple"
            }
          ],
          "internalType": "struct ERC3000Data.Container",
          "name": "_container",
          "type": "tuple"
        },
        {
          "internalType": "bytes",
          "name": "_reason",
          "type": "bytes"
        }
      ],
      "name": "challenge",
      "outputs": [
        {
          "internalType": "uint256",
          "name": "disputeId",
          "type": "uint256"
        }
      ],
      "stateMutability": "nonpayable",
      "type": "function"
    },
    {
      "inputs": [
        {
          "internalType": "bytes32",
          "name": "",
          "type": "bytes32"
        }
      ],
      "name": "challengerCache",
      "outputs": [
        {
          "internalType": "address",
          "name": "",
          "type": "address"
        }
      ],
      "stateMutability": "view",
      "type": "function"
    },
    {
      "inputs": [],
      "name": "configHash",
      "outputs": [
        {
          "internalType": "bytes32",
          "name": "",
          "type": "bytes32"
        }
      ],
      "stateMutability": "view",
      "type": "function"
    },
    {
      "inputs": [
        {
          "components": [
            {
              "internalType": "uint256",
              "name": "executionDelay",
              "type": "uint256"
            },
            {
              "components": [
                {
                  "internalType": "address",
                  "name": "token",
                  "type": "address"
                },
                {
                  "internalType": "uint256",
                  "name": "amount",
                  "type": "uint256"
                }
              ],
              "internalType": "struct ERC3000Data.Collateral",
              "name": "scheduleDeposit",
              "type": "tuple"
            },
            {
              "components": [
                {
                  "internalType": "address",
                  "name": "token",
                  "type": "address"
                },
                {
                  "internalType": "uint256",
                  "name": "amount",
                  "type": "uint256"
                }
              ],
              "internalType": "struct ERC3000Data.Collateral",
              "name": "challengeDeposit",
              "type": "tuple"
            },
            {
              "internalType": "address",
              "name": "resolver",
              "type": "address"
            },
            {
              "internalType": "bytes",
              "name": "rules",
              "type": "bytes"
            },
            {
              "internalType": "uint256",
              "name": "maxCalldataSize",
              "type": "uint256"
            }
          ],
          "internalType": "struct ERC3000Data.Config",
          "name": "_config",
          "type": "tuple"
        }
      ],
      "name": "configure",
      "outputs": [
        {
          "internalType": "bytes32",
          "name": "",
          "type": "bytes32"
        }
      ],
      "stateMutability": "nonpayable",
      "type": "function"
    },
    {
      "inputs": [
        {
          "internalType": "bytes32",
          "name": "",
          "type": "bytes32"
        },
        {
          "internalType": "contract IArbitrator",
          "name": "",
          "type": "address"
        }
      ],
      "name": "disputeItemCache",
      "outputs": [
        {
          "internalType": "uint256",
          "name": "",
          "type": "uint256"
        }
      ],
      "stateMutability": "view",
      "type": "function"
    },
    {
      "inputs": [
        {
          "components": [
            {
              "components": [
                {
                  "internalType": "uint256",
                  "name": "nonce",
                  "type": "uint256"
                },
                {
                  "internalType": "uint256",
                  "name": "executionTime",
                  "type": "uint256"
                },
                {
                  "internalType": "address",
                  "name": "submitter",
                  "type": "address"
                },
                {
                  "internalType": "contract IERC3000Executor",
                  "name": "executor",
                  "type": "address"
                },
                {
                  "components": [
                    {
                      "internalType": "address",
                      "name": "to",
                      "type": "address"
                    },
                    {
                      "internalType": "uint256",
                      "name": "value",
                      "type": "uint256"
                    },
                    {
                      "internalType": "bytes",
                      "name": "data",
                      "type": "bytes"
                    }
                  ],
                  "internalType": "struct ERC3000Data.Action[]",
                  "name": "actions",
                  "type": "tuple[]"
                },
                {
                  "internalType": "bytes32",
                  "name": "allowFailuresMap",
                  "type": "bytes32"
                },
                {
                  "internalType": "bytes",
                  "name": "proof",
                  "type": "bytes"
                }
              ],
              "internalType": "struct ERC3000Data.Payload",
              "name": "payload",
              "type": "tuple"
            },
            {
              "components": [
                {
                  "internalType": "uint256",
                  "name": "executionDelay",
                  "type": "uint256"
                },
                {
                  "components": [
                    {
                      "internalType": "address",
                      "name": "token",
                      "type": "address"
                    },
                    {
                      "internalType": "uint256",
                      "name": "amount",
                      "type": "uint256"
                    }
                  ],
                  "internalType": "struct ERC3000Data.Collateral",
                  "name": "scheduleDeposit",
                  "type": "tuple"
                },
                {
                  "components": [
                    {
                      "internalType": "address",
                      "name": "token",
                      "type": "address"
                    },
                    {
                      "internalType": "uint256",
                      "name": "amount",
                      "type": "uint256"
                    }
                  ],
                  "internalType": "struct ERC3000Data.Collateral",
                  "name": "challengeDeposit",
                  "type": "tuple"
                },
                {
                  "internalType": "address",
                  "name": "resolver",
                  "type": "address"
                },
                {
                  "internalType": "bytes",
                  "name": "rules",
                  "type": "bytes"
                },
                {
                  "internalType": "uint256",
                  "name": "maxCalldataSize",
                  "type": "uint256"
                }
              ],
              "internalType": "struct ERC3000Data.Config",
              "name": "config",
              "type": "tuple"
            }
          ],
          "internalType": "struct ERC3000Data.Container",
          "name": "_container",
          "type": "tuple"
        }
      ],
      "name": "execute",
      "outputs": [
        {
          "internalType": "bytes32",
          "name": "failureMap",
          "type": "bytes32"
        },
        {
          "internalType": "bytes[]",
          "name": "",
          "type": "bytes[]"
        }
      ],
      "stateMutability": "nonpayable",
      "type": "function"
    },
    {
      "inputs": [
        {
          "internalType": "bytes4",
          "name": "_role",
          "type": "bytes4"
        }
      ],
      "name": "freeze",
      "outputs": [],
      "stateMutability": "nonpayable",
      "type": "function"
    },
    {
      "inputs": [
        {
          "internalType": "bytes4",
          "name": "_role",
          "type": "bytes4"
        },
        {
          "internalType": "address",
          "name": "_who",
          "type": "address"
        }
      ],
      "name": "grant",
      "outputs": [],
      "stateMutability": "nonpayable",
      "type": "function"
    },
    {
      "inputs": [
        {
          "internalType": "bytes4",
          "name": "_role",
          "type": "bytes4"
        },
        {
          "internalType": "address",
          "name": "_who",
          "type": "address"
        },
        {
          "internalType": "contract IACLOracle",
          "name": "_oracle",
          "type": "address"
        }
      ],
      "name": "grantWithOracle",
      "outputs": [],
      "stateMutability": "nonpayable",
      "type": "function"
    },
    {
      "inputs": [
        {
          "internalType": "string",
          "name": "",
          "type": "string"
        }
      ],
      "name": "initBlocks",
      "outputs": [
        {
          "internalType": "uint256",
          "name": "",
          "type": "uint256"
        }
      ],
      "stateMutability": "view",
      "type": "function"
    },
    {
      "inputs": [
        {
          "internalType": "address",
          "name": "_aclRoot",
          "type": "address"
        },
        {
          "components": [
            {
              "internalType": "uint256",
              "name": "executionDelay",
              "type": "uint256"
            },
            {
              "components": [
                {
                  "internalType": "address",
                  "name": "token",
                  "type": "address"
                },
                {
                  "internalType": "uint256",
                  "name": "amount",
                  "type": "uint256"
                }
              ],
              "internalType": "struct ERC3000Data.Collateral",
              "name": "scheduleDeposit",
              "type": "tuple"
            },
            {
              "components": [
                {
                  "internalType": "address",
                  "name": "token",
                  "type": "address"
                },
                {
                  "internalType": "uint256",
                  "name": "amount",
                  "type": "uint256"
                }
              ],
              "internalType": "struct ERC3000Data.Collateral",
              "name": "challengeDeposit",
              "type": "tuple"
            },
            {
              "internalType": "address",
              "name": "resolver",
              "type": "address"
            },
            {
              "internalType": "bytes",
              "name": "rules",
              "type": "bytes"
            },
            {
              "internalType": "uint256",
              "name": "maxCalldataSize",
              "type": "uint256"
            }
          ],
          "internalType": "struct ERC3000Data.Config",
          "name": "_initialConfig",
          "type": "tuple"
        }
      ],
      "name": "initialize",
      "outputs": [],
      "stateMutability": "nonpayable",
      "type": "function"
    },
    {
      "inputs": [
        {
          "internalType": "bytes4",
          "name": "_role",
          "type": "bytes4"
        }
      ],
      "name": "isFrozen",
      "outputs": [
        {
          "internalType": "bool",
          "name": "",
          "type": "bool"
        }
      ],
      "stateMutability": "view",
      "type": "function"
    },
    {
      "inputs": [],
      "name": "nonce",
      "outputs": [
        {
          "internalType": "uint256",
          "name": "",
          "type": "uint256"
        }
      ],
      "stateMutability": "view",
      "type": "function"
    },
    {
      "inputs": [
        {
          "internalType": "bytes32",
          "name": "",
          "type": "bytes32"
        }
      ],
      "name": "queue",
      "outputs": [
        {
          "internalType": "enum GovernQueueStateLib.State",
          "name": "state",
          "type": "uint8"
        }
      ],
      "stateMutability": "view",
      "type": "function"
    },
    {
      "inputs": [
        {
          "components": [
            {
              "components": [
                {
                  "internalType": "uint256",
                  "name": "nonce",
                  "type": "uint256"
                },
                {
                  "internalType": "uint256",
                  "name": "executionTime",
                  "type": "uint256"
                },
                {
                  "internalType": "address",
                  "name": "submitter",
                  "type": "address"
                },
                {
                  "internalType": "contract IERC3000Executor",
                  "name": "executor",
                  "type": "address"
                },
                {
                  "components": [
                    {
                      "internalType": "address",
                      "name": "to",
                      "type": "address"
                    },
                    {
                      "internalType": "uint256",
                      "name": "value",
                      "type": "uint256"
                    },
                    {
                      "internalType": "bytes",
                      "name": "data",
                      "type": "bytes"
                    }
                  ],
                  "internalType": "struct ERC3000Data.Action[]",
                  "name": "actions",
                  "type": "tuple[]"
                },
                {
                  "internalType": "bytes32",
                  "name": "allowFailuresMap",
                  "type": "bytes32"
                },
                {
                  "internalType": "bytes",
                  "name": "proof",
                  "type": "bytes"
                }
              ],
              "internalType": "struct ERC3000Data.Payload",
              "name": "payload",
              "type": "tuple"
            },
            {
              "components": [
                {
                  "internalType": "uint256",
                  "name": "executionDelay",
                  "type": "uint256"
                },
                {
                  "components": [
                    {
                      "internalType": "address",
                      "name": "token",
                      "type": "address"
                    },
                    {
                      "internalType": "uint256",
                      "name": "amount",
                      "type": "uint256"
                    }
                  ],
                  "internalType": "struct ERC3000Data.Collateral",
                  "name": "scheduleDeposit",
                  "type": "tuple"
                },
                {
                  "components": [
                    {
                      "internalType": "address",
                      "name": "token",
                      "type": "address"
                    },
                    {
                      "internalType": "uint256",
                      "name": "amount",
                      "type": "uint256"
                    }
                  ],
                  "internalType": "struct ERC3000Data.Collateral",
                  "name": "challengeDeposit",
                  "type": "tuple"
                },
                {
                  "internalType": "address",
                  "name": "resolver",
                  "type": "address"
                },
                {
                  "internalType": "bytes",
                  "name": "rules",
                  "type": "bytes"
                },
                {
                  "internalType": "uint256",
                  "name": "maxCalldataSize",
                  "type": "uint256"
                }
              ],
              "internalType": "struct ERC3000Data.Config",
              "name": "config",
              "type": "tuple"
            }
          ],
          "internalType": "struct ERC3000Data.Container",
          "name": "_container",
          "type": "tuple"
        },
        {
          "internalType": "uint256",
          "name": "_disputeId",
          "type": "uint256"
        }
      ],
      "name": "resolve",
      "outputs": [
        {
          "internalType": "bytes32",
          "name": "failureMap",
          "type": "bytes32"
        },
        {
          "internalType": "bytes[]",
          "name": "",
          "type": "bytes[]"
        }
      ],
      "stateMutability": "nonpayable",
      "type": "function"
    },
    {
      "inputs": [
        {
          "internalType": "bytes4",
          "name": "_role",
          "type": "bytes4"
        },
        {
          "internalType": "address",
          "name": "_who",
          "type": "address"
        }
      ],
      "name": "revoke",
      "outputs": [],
      "stateMutability": "nonpayable",
      "type": "function"
    },
    {
      "inputs": [
        {
          "internalType": "bytes4",
          "name": "",
          "type": "bytes4"
        },
        {
          "internalType": "address",
          "name": "",
          "type": "address"
        }
      ],
      "name": "roles",
      "outputs": [
        {
          "internalType": "address",
          "name": "",
          "type": "address"
        }
      ],
      "stateMutability": "view",
      "type": "function"
    },
    {
      "inputs": [
        {
          "components": [
            {
              "components": [
                {
                  "internalType": "uint256",
                  "name": "nonce",
                  "type": "uint256"
                },
                {
                  "internalType": "uint256",
                  "name": "executionTime",
                  "type": "uint256"
                },
                {
                  "internalType": "address",
                  "name": "submitter",
                  "type": "address"
                },
                {
                  "internalType": "contract IERC3000Executor",
                  "name": "executor",
                  "type": "address"
                },
                {
                  "components": [
                    {
                      "internalType": "address",
                      "name": "to",
                      "type": "address"
                    },
                    {
                      "internalType": "uint256",
                      "name": "value",
                      "type": "uint256"
                    },
                    {
                      "internalType": "bytes",
                      "name": "data",
                      "type": "bytes"
                    }
                  ],
                  "internalType": "struct ERC3000Data.Action[]",
                  "name": "actions",
                  "type": "tuple[]"
                },
                {
                  "internalType": "bytes32",
                  "name": "allowFailuresMap",
                  "type": "bytes32"
                },
                {
                  "internalType": "bytes",
                  "name": "proof",
                  "type": "bytes"
                }
              ],
              "internalType": "struct ERC3000Data.Payload",
              "name": "payload",
              "type": "tuple"
            },
            {
              "components": [
                {
                  "internalType": "uint256",
                  "name": "executionDelay",
                  "type": "uint256"
                },
                {
                  "components": [
                    {
                      "internalType": "address",
                      "name": "token",
                      "type": "address"
                    },
                    {
                      "internalType": "uint256",
                      "name": "amount",
                      "type": "uint256"
                    }
                  ],
                  "internalType": "struct ERC3000Data.Collateral",
                  "name": "scheduleDeposit",
                  "type": "tuple"
                },
                {
                  "components": [
                    {
                      "internalType": "address",
                      "name": "token",
                      "type": "address"
                    },
                    {
                      "internalType": "uint256",
                      "name": "amount",
                      "type": "uint256"
                    }
                  ],
                  "internalType": "struct ERC3000Data.Collateral",
                  "name": "challengeDeposit",
                  "type": "tuple"
                },
                {
                  "internalType": "address",
                  "name": "resolver",
                  "type": "address"
                },
                {
                  "internalType": "bytes",
                  "name": "rules",
                  "type": "bytes"
                },
                {
                  "internalType": "uint256",
                  "name": "maxCalldataSize",
                  "type": "uint256"
                }
              ],
              "internalType": "struct ERC3000Data.Config",
              "name": "config",
              "type": "tuple"
            }
          ],
          "internalType": "struct ERC3000Data.Container",
          "name": "_container",
          "type": "tuple"
        }
      ],
      "name": "schedule",
      "outputs": [
        {
          "internalType": "bytes32",
          "name": "containerHash",
          "type": "bytes32"
        }
      ],
      "stateMutability": "nonpayable",
      "type": "function"
    },
    {
      "inputs": [
        {
          "internalType": "bytes4",
          "name": "_interfaceId",
          "type": "bytes4"
        }
      ],
      "name": "supportsInterface",
      "outputs": [
        {
          "internalType": "bool",
          "name": "",
          "type": "bool"
        }
      ],
      "stateMutability": "view",
      "type": "function"
    },
    {
      "inputs": [
        {
          "components": [
            {
              "components": [
                {
                  "internalType": "uint256",
                  "name": "nonce",
                  "type": "uint256"
                },
                {
                  "internalType": "uint256",
                  "name": "executionTime",
                  "type": "uint256"
                },
                {
                  "internalType": "address",
                  "name": "submitter",
                  "type": "address"
                },
                {
                  "internalType": "contract IERC3000Executor",
                  "name": "executor",
                  "type": "address"
                },
                {
                  "components": [
                    {
                      "internalType": "address",
                      "name": "to",
                      "type": "address"
                    },
                    {
                      "internalType": "uint256",
                      "name": "value",
                      "type": "uint256"
                    },
                    {
                      "internalType": "bytes",
                      "name": "data",
                      "type": "bytes"
                    }
                  ],
                  "internalType": "struct ERC3000Data.Action[]",
                  "name": "actions",
                  "type": "tuple[]"
                },
                {
                  "internalType": "bytes32",
                  "name": "allowFailuresMap",
                  "type": "bytes32"
                },
                {
                  "internalType": "bytes",
                  "name": "proof",
                  "type": "bytes"
                }
              ],
              "internalType": "struct ERC3000Data.Payload",
              "name": "payload",
              "type": "tuple"
            },
            {
              "components": [
                {
                  "internalType": "uint256",
                  "name": "executionDelay",
                  "type": "uint256"
                },
                {
                  "components": [
                    {
                      "internalType": "address",
                      "name": "token",
                      "type": "address"
                    },
                    {
                      "internalType": "uint256",
                      "name": "amount",
                      "type": "uint256"
                    }
                  ],
                  "internalType": "struct ERC3000Data.Collateral",
                  "name": "scheduleDeposit",
                  "type": "tuple"
                },
                {
                  "components": [
                    {
                      "internalType": "address",
                      "name": "token",
                      "type": "address"
                    },
                    {
                      "internalType": "uint256",
                      "name": "amount",
                      "type": "uint256"
                    }
                  ],
                  "internalType": "struct ERC3000Data.Collateral",
                  "name": "challengeDeposit",
                  "type": "tuple"
                },
                {
                  "internalType": "address",
                  "name": "resolver",
                  "type": "address"
                },
                {
                  "internalType": "bytes",
                  "name": "rules",
                  "type": "bytes"
                },
                {
                  "internalType": "uint256",
                  "name": "maxCalldataSize",
                  "type": "uint256"
                }
              ],
              "internalType": "struct ERC3000Data.Config",
              "name": "config",
              "type": "tuple"
            }
          ],
          "internalType": "struct ERC3000Data.Container",
          "name": "_container",
          "type": "tuple"
        },
        {
          "internalType": "bytes",
          "name": "_reason",
          "type": "bytes"
        }
      ],
      "name": "veto",
      "outputs": [],
      "stateMutability": "nonpayable",
      "type": "function"
    }
  ],
  "transactionHash": "0x80d6f117e0b95774d54f1a8f28e03c6a5b22bfc2858029f3c0a0386a81d4394a",
  "args": [
    "0x7375Ed576952BD6CeD060EeE2Db763130eA13bA0",
    [
      300,
      [
        "0xdc31Ee1784292379Fbb2964b3B9C4124D8F89C60",
        "10000000000000000"
      ],
      [
        "0xdc31Ee1784292379Fbb2964b3B9C4124D8F89C60",
        "10000000000000000"
      ],
      "0x6b81e57848A75369cC5F13ED98c62412a40F19E7",
      "0x0000000000000000000000000000000000000000",
      100000
    ]
  ],
  "solcInputHash": "7912d06ff4990d123b64181cef2d6888",
  "bytecode": "0x60806040523480156200001157600080fd5b50604051620040e0380380620040e0833981016040819052620000349162000858565b81806002604051620000469062000968565b90815260200160405180910390205460001415620000785762000072816001600160e01b03620000ec16565b620000cc565b6001600160a01b038181166000908152600080516020620040a0833981519152602052604090205416600214620000cc5760405162461bcd60e51b8152600401620000c39062000a32565b60405180910390fd5b50620000e4905082826001600160e01b03620001bd16565b505062000b9b565b604051806040016040528060038152602001621858db60ea1b8152506002816040516200011a91906200094a565b9081526020016040518091039020546000146200014b5760405162461bcd60e51b8152600401620000c390620009f0565b436002826040516200015e91906200094a565b908152604051908190036020019020556200018a63161b7d8160e21b836001600160e01b036200033416565b806040516200019a91906200094a565b60405190819003812090600080516020620040c083398151915290600090a25050565b816002604051620001ce9062000968565b908152602001604051809103902054600014156200020057620001fa816001600160e01b03620000ec16565b6200024b565b6001600160a01b038181166000908152600080516020620040a08339815191526020526040902054166002146200024b5760405162461bcd60e51b8152600401620000c39062000a32565b60405180604001604052806005815260200164717565756560d81b8152506002816040516200027b91906200094a565b908152602001604051809103902054600014620002ac5760405162461bcd60e51b8152600401620000c390620009f0565b43600282604051620002bf91906200094a565b90815260405190819003602001902055620002e3836001600160e01b036200034f16565b50620002ff63d311828160e01b6001600160e01b03620005de16565b806040516200030f91906200094a565b60405190819003812090600080516020620040c083398151915290600090a250505050565b6200034b828260026001600160e01b036200063f16565b5050565b60008160400151602001516000141580156200037857506040820151516001600160a01b031615155b156200046957600060608360400151600001516001600160a01b03166370a0823160e01b30604051602401620003af919062000977565b60408051601f198184030181529181526020820180516001600160e01b03166001600160e01b0319909416939093179092529051620003ef91906200094a565b6000604051808303816000865af19150503d80600081146200042e576040519150601f19603f3d011682016040523d82523d6000602084013e62000433565b606091505b509150915081801562000447575060008151115b620004665760405162461bcd60e51b8152600401620000c390620009a0565b50505b6020808301510151158015906200048d57506020820151516001600160a01b031615155b156200057e57600060608360200151600001516001600160a01b03166370a0823160e01b30604051602401620004c4919062000977565b60408051601f198184030181529181526020820180516001600160e01b03166001600160e01b03199094169390931790925290516200050491906200094a565b6000604051808303816000865af19150503d806000811462000543576040519150601f19603f3d011682016040523d82523d6000602084013e62000548565b606091505b50915091508180156200055c575060008151115b6200057b5760405162461bcd60e51b8152600401620000c390620009a0565b50505b62000594826200072960201b620014e71760201c565b60048190556040513391907f844435c59f7ccdf12de134e8f9b3b7d664fe9f06e3263680779599ba4097bc3f90620005ce90869062000a92565b60405180910390a3505060045490565b6001600160e01b0319811660009081526020819052604090819020805460ff19166001179055517fbf5e1f87f5ab65b58074cd29244d7c487a948983cda4b932e0f966b62bd34aca90620006349083906200098b565b60405180910390a150565b62000653836001600160e01b036200075b16565b15620006735760405162461bcd60e51b8152600401620000c390620009cb565b6001600160a01b03821660011415620006a05760405162461bcd60e51b8152600401620000c39062000a69565b6001600160e01b0319831660008181526003602090815260408083206001600160a01b03878116808652919093529281902080546001600160a01b0319169286169290921790915551909133917fc62063b81f7036fd97a0dc546516e99f11004d2d76ca0fddd3866346c86e7091906200071c90869062000977565b60405180910390a4505050565b6000816040516020016200073e919062000a92565b604051602081830303815290604052805190602001209050919050565b6001600160e01b031916600090815260036020908152604080832060018085529252909120546001600160a01b03161490565b80516001600160a01b0381168114620007a657600080fd5b92915050565b600082601f830112620007bd578081fd5b81516001600160401b03811115620007d3578182fd5b620007e8601f8201601f191660200162000b28565b91508082528360208285010111156200080057600080fd5b6200081381602084016020860162000b4f565b5092915050565b6000604082840312156200082c578081fd5b62000838604062000b28565b90506200084683836200078e565b81526020820151602082015292915050565b600080604083850312156200086b578182fd5b8251620008788162000b82565b60208401519092506001600160401b038082111562000895578283fd5b8185016101008188031215620008a9578384fd5b620008b560c062000b28565b925080518352620008ca87602083016200081a565b6020840152620008de87606083016200081a565b6040840152620008f28760a083016200078e565b606084015260c08101518281111562000909578485fd5b6200091788828401620007ac565b60808501525060e0015160a083015250919491935090915050565b80516001600160a01b03168252602090810151910152565b600082516200095e81846020870162000b4f565b9190910192915050565b621858db60ea1b815260030190565b6001600160a01b0391909116815260200190565b6001600160e01b031991909116815260200190565b60208082526011908201527071756575653a2062616420636f6e66696760781b604082015260600190565b6020808252600b908201526a30b1b61d10333937bd32b760a91b604082015260600190565b60208082526022908201527f696e697469616c697a61626c653a20616c726561647920696e697469616c697a604082015261195960f21b606082015260800190565b6020808252601c908201527f61636c3a20696e697469616c20726f6f74206d6973616c69676e656400000000604082015260600190565b6020808252600f908201526e61636c3a2062616420667265657a6560881b604082015260600190565b60006020825282516020830152602083015162000ab3604084018262000932565b50604083015162000ac8608084018262000932565b5060608301516001600160a01b031660c0830152608083015161010060e084018190528151610120850181905262000b098161014087016020860162000b4f565b60a09590950151908401525050601f91909101601f1916016101400190565b6040518181016001600160401b038111828210171562000b4757600080fd5b604052919050565b60005b8381101562000b6c57818101518382015260200162000b52565b8381111562000b7c576000848401525b50505050565b6001600160a01b038116811462000b9857600080fd5b50565b6134f58062000bab6000396000f3fe608060405234801561001057600080fd5b50600436106101825760003560e01c80637e8c7f08116100d8578063affed0e01161008c578063c832048011610066578063c832048014610334578063cc1d4cab14610347578063e1f1176d1461035a57610182565b8063affed0e014610306578063bdf9a7261461030e578063c8182af01461032157610182565b806396fc8abd116100bd57806396fc8abd146102c0578063a157a10d146102e0578063a2157227146102f357610182565b80637e8c7f08146102985780638f8b35b2146102ad57610182565b80633e2da6a91161013a5780635a08160b116101145780635a08160b146102525780637744efda146102655780637c10dea61461027857610182565b80633e2da6a914610219578063495a98251461022c578063588497341461023f57610182565b80631c47671b1161016b5780631c47671b146101d15780631f13405b146101e65780633da956aa1461020657610182565b806301ffc9a71461018757806314d56921146101b0575b600080fd5b61019a610195366004612875565b610362565b6040516101a79190612d7c565b60405180910390f35b6101c36101be366004612a50565b610394565b6040516101a7929190612d90565b6101e46101df36600461270b565b6105cb565b005b6101f96101f43660046129f9565b6106ec565b6040516101a79190612d87565b6101c36102143660046129c6565b610b89565b6101f9610227366004612846565b610c7e565b61019a61023a366004612875565b610c9b565b6101e461024d366004612891565b610cce565b6101e46102603660046129f9565b610d43565b6101f9610273366004612993565b610efc565b61028b610286366004612798565b610f74565b6040516101a79190612e98565b6102a0610f89565b6040516101a79190612e16565b6101e46102bb366004612690565b610f94565b6102d36102ce366004612891565b61112d565b6040516101a79190612cf3565b6101e46102ee366004612891565b611153565b6101e46103013660046128be565b6111c3565b6101f9611234565b6101e461031c366004612875565b61123a565b6102d361032f366004612798565b6112ad565b6101f96103423660046129c6565b6112c8565b6101f9610355366004612908565b6114c4565b6101f96114e1565b6001600160e01b0319811660009081526020819052604081205460ff168061038e575061038e82611517565b92915050565b6000606060006103a385611549565b6020808701516060015160008381526008835260408082206001600160a01b038416835290935291909120549192509060018601146103fd5760405162461bcd60e51b81526004016103f490612fa1565b60405180910390fd5b60008281526008602090815260408083206001600160a01b038516845282528083208390558483526006909152902061043d90600263ffffffff61156d16565b600080826001600160a01b031663db18af6c886040518263ffffffff1660e01b815260040161046c9190612d87565b6040805180830381600087803b15801561048557600080fd5b505af1158015610499573d6000803e3d6000fd5b505050506040513d601f19601f820116820180604052508101906104bd91906126de565b90925090506001600160a01b03821630146104ea5760405162461bcd60e51b81526004016103f490613224565b6004811461051a816104fd576004610500565b60035b60008781526006602052604090209063ffffffff6115a616565b336001600160a01b0316857f027d8a5d945eb361475964ed2c71b8332b27af2d630ab5daf829d67afd2584e6836040516105549190612d7c565b60405180910390a387846001600160a01b03167f56c8631a8915c0d362dbe57a61215fdde954f73f81c8a3a1f55572fb015207b1846040516105969190612d87565b60405180910390a380156105bb576105ad896115c7565b9650965050505050506105c4565b6105ad8961167d565b9250929050565b60408051602036601f810182900482028301820190935282825263161b7d8160e21b9261061592849233926000918190840183828082843760009201919091525061172292505050565b6106315760405162461bcd60e51b81526004016103f490612f6a565b60005b828110156106e6576106446122d2565b84848381811061065057fe5b905060600201803603810190610666919061293b565b905060008151600281111561067757fe5b14156106945761068f81602001518260400151611768565b6106dd565b6001815160028111156106a357fe5b14156106bb5761068f81602001518260400151611774565b6002815160028111156106ca57fe5b14156106dd576106dd8160200151611812565b50600101610634565b50505050565b6000631f13405b60e01b61073881336000368080601f01602080910402602001604051908101604052809392919081815260200183838082843760009201919091525061172292505050565b6107545760405162461bcd60e51b81526004016103f490612f6a565b600061075f85611549565b6000818152600760209081526040808320805473ffffffffffffffffffffffffffffffffffffffff191633179055600690915290209091506107aa906001600263ffffffff6118a716565b6107b26122f4565b506020850151604001516107cc813363ffffffff6118bb16565b600086602001516060015190506000806000836001600160a01b0316637b751b9e6040518163ffffffff1660e01b815260040160606040518083038186803b15801561081757600080fd5b505afa15801561082b573d6000803e3d6000fd5b505050506040513d601f19601f8201168201806040525081019061084f919061264e565b919450925090506108716001600160a01b03831633308463ffffffff61195e16565b61088d5760405162461bcd60e51b81526004016103f49061307d565b6108a76001600160a01b038316848363ffffffff6119dc16565b6108c35760405162461bcd60e51b81526004016103f490613122565b836001600160a01b031663c13517e160028c6040516020016108e5919061334a565b6040516020818303038152906040526040518363ffffffff1660e01b8152600401610911929190612eac565b602060405180830381600087803b15801561092b57600080fd5b505af115801561093f573d6000803e3d6000fd5b505050506040513d601f19601f820116820180604052508101906109639190612a93565b97506109806001600160a01b03831684600063ffffffff6119dc16565b61099c5760405162461bcd60e51b81526004016103f490613046565b895160408082015160c09092015190517f7cb57c640000000000000000000000000000000000000000000000000000000081526001600160a01b03871692637cb57c64926109f0928d929190600401613396565b600060405180830381600087803b158015610a0a57600080fd5b505af1158015610a1e573d6000803e3d6000fd5b50506040517f7cb57c640000000000000000000000000000000000000000000000000000000081526001600160a01b0387169250637cb57c649150610a6b908b9033908e90600401613396565b600060405180830381600087803b158015610a8557600080fd5b505af1158015610a99573d6000803e3d6000fd5b50506040517f7e9adccf0000000000000000000000000000000000000000000000000000000081526001600160a01b0387169250637e9adccf9150610ae2908b90600401612d87565b600060405180830381600087803b158015610afc57600080fd5b505af1158015610b10573d6000803e3d6000fd5b50505060008781526008602090815260408083206001600160a01b03891684529091529081902060018b0190555133915087907f429df837eb45b6713f725a0d3e57db939fd7dd7d58bb3cd967fa37091572db9f90610b74908d908d908b90612e70565b60405180910390a35050505050505092915050565b60006060633da956aa60e01b610bd781336000368080601f01602080910402602001604051908101604052809392919081815260200183838082843760009201919091525061172292505050565b610bf35760405162461bcd60e51b81526004016103f490612f6a565b835160200151421015610c185760405162461bcd60e51b81526004016103f4906131b6565b6000610c2385611549565b6000818152600660208190526040909120919250610c4a919060019063ffffffff6118a716565b8451604001516020808701510151610c679163ffffffff611a5716565b8451610c739082611aeb565b935093505050915091565b600860209081526000928352604080842090915290825290205481565b6001600160e01b031916600090815260036020908152604080832060018085529252909120546001600160a01b03161490565b60408051602036601f810182900482028301820190935282825263161b7d8160e21b92610d1892849233926000918190840183828082843760009201919091525061172292505050565b610d345760405162461bcd60e51b81526004016103f490612f6a565b610d3e8383611774565b505050565b635a08160b60e01b610d8d81336000368080601f01602080910402602001604051908101604052809392919081815260200183838082843760009201919091525061172292505050565b610da95760405162461bcd60e51b81526004016103f490612f6a565b6000610db484611549565b60008181526006602052604090209091506002815460ff166006811115610dd757fe5b1415610e8357610df0816002600563ffffffff6118a716565b6000828152600760209081526040808320805473ffffffffffffffffffffffffffffffffffffffff198116909155600883528184208984018051606001516001600160a01b03908116875291855283862095909555895190920151935190920151911691610e64919063ffffffff611a5716565b602086015160400151610e7d908263ffffffff611a5716565b50610eb3565b610e96816001600563ffffffff6118a716565b8451604001516020808701510151610eb39163ffffffff611a5716565b336001600160a01b0316827fe2530b9681f9726904f9ca7fe725c0c53ea1b72370981ac6a5beaa9758c8c35686604051610eed9190612e5d565b60405180910390a35050505050565b6000637744efda60e01b610f4881336000368080601f01602080910402602001604051908101604052809392919081815260200183838082843760009201919091525061172292505050565b610f645760405162461bcd60e51b81526004016103f490612f6a565b610f6d83611bba565b9392505050565b60066020526000908152604090205460ff1681565b63161b7d8160e21b81565b816002604051610fa390612c62565b90815260200160405180910390205460001415610fc857610fc381611e4c565b611021565b6001600160a01b0381811660009081527fd87da3e1f08043464b74e6b0861ccd8d8a5174e228287ac9b9f6efc1673da4ec6020526040902054166002146110215760405162461bcd60e51b81526004016103f490613292565b6040518060400160405280600581526020017f71756575650000000000000000000000000000000000000000000000000000008152506002816040516110679190612c46565b9081526020016040518091039020546000146110955760405162461bcd60e51b81526004016103f490613159565b436002826040516110a69190612c46565b908152604051908190036020019020556110bf83611bba565b506110e97fd311828100000000000000000000000000000000000000000000000000000000611f34565b806040516110f79190612c46565b604051908190038120907f7bc2a48a4a566e237a12186f19d985b0f76afc9d5290601edac19876253670c290600090a250505050565b60036020908152600092835260408084209091529082529020546001600160a01b031681565b60408051602036601f810182900482028301820190935282825263161b7d8160e21b9261119d92849233926000918190840183828082843760009201919091525061172292505050565b6111b95760405162461bcd60e51b81526004016103f490612f6a565b610d3e8383611768565b60408051602036601f810182900482028301820190935282825263161b7d8160e21b9261120d92849233926000918190840183828082843760009201919091525061172292505050565b6112295760405162461bcd60e51b81526004016103f490612f6a565b6106e6848484611f93565b60055481565b60408051602036601f810182900482028301820190935282825263161b7d8160e21b9261128492849233926000918190840183828082843760009201919091525061172292505050565b6112a05760405162461bcd60e51b81526004016103f490612f6a565b6112a982611812565b5050565b6007602052600090815260409020546001600160a01b031681565b600063c832048060e01b61131481336000368080601f01602080910402602001604051908101604052809392919081815260200183838082843760009201919091525061172292505050565b6113305760405162461bcd60e51b81526004016103f490612f6a565b60058054600101908190558351511461135b5760405162461bcd60e51b81526004016103f490612fd8565b600061136a84602001516114e7565b9050600454811461138d5760405162461bcd60e51b81526004016103f490612f33565b6020840151516113a3904263ffffffff61207716565b84516020015110156113c75760405162461bcd60e51b81526004016103f49061300f565b8351604001516001600160a01b031633146113f45760405162461bcd60e51b81526004016103f4906130b4565b602084015160a00151369081111561141e5760405162461bcd60e51b81526004016103f49061325b565b61143461142e866000015161209a565b83612102565b60008181526006602052604081209195506114579190600163ffffffff6118a716565b61145f6122f4565b50602080860151015185516040015161147f90829063ffffffff6118bb16565b847f67f87ff46443c95843c7bd72a026dd23ba0015528ce9f8f15c5c6917645034ef87600001516040516114b39190613383565b60405180910390a250505050919050565b805160208183018101805160028252928201919093012091525481565b60045481565b6000816040516020016114fa9190613337565b604051602081830303815290604052805190602001209050919050565b6001600160e01b031981167f01ffc9a70000000000000000000000000000000000000000000000000000000014919050565b600061038e61155b836000015161209a565b61156884602001516114e7565b612102565b80600681111561157957fe5b825460ff16600681111561158957fe5b146112a95760405162461bcd60e51b81526004016103f490612efc565b81548190839060ff191660018360068111156115be57fe5b02179055505050565b6000606060006115d684611549565b60008181526006602081905260409091209192506115fd919060039063ffffffff6118a716565b600081815260076020908152604091829020805473ffffffffffffffffffffffffffffffffffffffff1916905585519091015185820151909101516116479163ffffffff611a5716565b83516040908101516020860151909101516116679163ffffffff611a5716565b83516116739082611aeb565b9250925050915091565b60006060600061168c84611549565b60008181526006602052604090209091506116b0906004600563ffffffff6118a716565b6000818152600760209081526040909120805473ffffffffffffffffffffffffffffffffffffffff19811690915585820151909101516001600160a01b0390911690611702908263ffffffff611a5716565b60208501516040015161171b908263ffffffff611a5716565b5050915091565b600061172f84848461213d565b806117605750611760847fffffffffffffffffffffffffffffffffffffffffffffffffffffffffffffffff8461213d565b949350505050565b6112a982826002611f93565b61177d82610c9b565b1561179a5760405162461bcd60e51b81526004016103f4906130eb565b6001600160e01b0319821660008181526003602090815260408083206001600160a01b0386168085529252808320805473ffffffffffffffffffffffffffffffffffffffff19169055519092339290917f682f2c466c1e9f6883eb72cbced01373e1cb18b05ae5c8bc04dc73d73e29f8cd9190a45050565b61181b81610c9b565b156118385760405162461bcd60e51b81526004016103f4906130eb565b6001600160e01b03198116600081815260036020908152604080832060018085529252808320805473ffffffffffffffffffffffffffffffffffffffff1916909217909155513392917f049c6b8b07a879425742523fa80f8ffb25e39ad518c93a5896a0df19518397e591a350565b6118b1838361156d565b610d3e83826115a6565b6020820151156112a957815160208301516118ea906001600160a01b038316908490309063ffffffff61195e16565b6119065760405162461bcd60e51b81526004016103f4906131ed565b816001600160a01b031683600001516001600160a01b03167f989eaa915cbb416ea3d6f9a63b1a3de51770c7674b11fe21ecdf76b4e1d1391085602001516040516119519190612d87565b60405180910390a3505050565b600060606323b872dd60e01b85858560405160240161197f93929190612d07565b60408051601f198184030181529190526020810180517bffffffffffffffffffffffffffffffffffffffffffffffffffffffff166001600160e01b03199093169290921790915290506119d28682612248565b9695505050505050565b6000606063095ea7b360e01b84846040516024016119fb929190612d2b565b60408051601f198184030181529190526020810180517bffffffffffffffffffffffffffffffffffffffffffffffffffffffff166001600160e01b0319909316929092179091529050611a4e8582612248565b95945050505050565b6020820151156112a95781516020830151611a84906001600160a01b03831690849063ffffffff6122ad16565b611aa05760405162461bcd60e51b81526004016103f490612ec5565b816001600160a01b031683600001516001600160a01b03167fe6e0ef9cd056ca98561ca60e347ada61e1ede2f1142a078951b7a52e1e508e6085602001516040516119519190612d87565b604051600090606090339084907f59c3746e635078efc737fb3f37dd8188203b8df10bbad35878a7d156f4f51c41908590a383606001516001600160a01b031663c2d85afc85608001518660a00151866040518463ffffffff1660e01b8152600401611b5993929190612d57565b600060405180830381600087803b158015611b7357600080fd5b505af1158015611b87573d6000803e3d6000fd5b505050506040513d6000823e601f3d908101601f19168201604052611baf91908101906127b0565b915091509250929050565b6000816040015160200151600014158015611be257506040820151516001600160a01b031615155b15611cdd57600060608360400151600001516001600160a01b03166370a0823160e01b30604051602401611c169190612cf3565b60408051601f198184030181529181526020820180517bffffffffffffffffffffffffffffffffffffffffffffffffffffffff166001600160e01b0319909416939093179092529051611c699190612c46565b6000604051808303816000865af19150503d8060008114611ca6576040519150601f19603f3d011682016040523d82523d6000602084013e611cab565b606091505b5091509150818015611cbe575060008151115b611cda5760405162461bcd60e51b81526004016103f490612f33565b50505b602080830151015115801590611d0057506020820151516001600160a01b031615155b15611dfb57600060608360200151600001516001600160a01b03166370a0823160e01b30604051602401611d349190612cf3565b60408051601f198184030181529181526020820180517bffffffffffffffffffffffffffffffffffffffffffffffffffffffff166001600160e01b0319909416939093179092529051611d879190612c46565b6000604051808303816000865af19150503d8060008114611dc4576040519150601f19603f3d011682016040523d82523d6000602084013e611dc9565b606091505b5091509150818015611ddc575060008151115b611df85760405162461bcd60e51b81526004016103f490612f33565b50505b611e04826114e7565b60048190556040513391907f844435c59f7ccdf12de134e8f9b3b7d664fe9f06e3263680779599ba4097bc3f90611e3c908690613337565b60405180910390a3505060045490565b6040518060400160405280600381526020017f61636c0000000000000000000000000000000000000000000000000000000000815250600281604051611e929190612c46565b908152602001604051809103902054600014611ec05760405162461bcd60e51b81526004016103f490613159565b43600282604051611ed19190612c46565b90815260405190819003602001902055611ef263161b7d8160e21b83611768565b80604051611f009190612c46565b604051908190038120907f7bc2a48a4a566e237a12186f19d985b0f76afc9d5290601edac19876253670c290600090a25050565b6001600160e01b0319811660009081526020819052604090819020805460ff19166001179055517fbf5e1f87f5ab65b58074cd29244d7c487a948983cda4b932e0f966b62bd34aca90611f88908390612e16565b60405180910390a150565b611f9c83610c9b565b15611fb95760405162461bcd60e51b81526004016103f4906130eb565b6001600160a01b03821660011415611fe35760405162461bcd60e51b81526004016103f4906132c9565b6001600160e01b0319831660008181526003602090815260408083206001600160a01b038781168086529190935292819020805473ffffffffffffffffffffffffffffffffffffffff19169286169290921790915551909133917fc62063b81f7036fd97a0dc546516e99f11004d2d76ca0fddd3866346c86e70919061206a908690612cf3565b60405180910390a4505050565b8082018281101561038e5760405162461bcd60e51b81526004016103f490613300565b6000816000015182602001518360400151846060015185608001516040516020016120c59190612d44565b604051602081830303815290604052805190602001208660a001518760c00151805190602001206040516020016114fa97969594939291906133be565b604051600090469061211e903090839087908790602001612c8b565b6040516020818303038152906040528051906020012091505092915050565b6001600160e01b0319831660009081526003602090815260408083206001600160a01b038087168552925282205416801561223d576001600160a01b0381166002141561218e576001915050610f6d565b6040517f097c81080000000000000000000000000000000000000000000000000000000081526001600160a01b0382169063097c8108906121d790889088908890600401612e2b565b602060405180830381600087803b1580156121f157600080fd5b505af1925050508015612221575060408051601f3d908101601f1916820190925261221e91810190612778565b60015b61222a5761223d565b801561223b57600192505050610f6d565b505b506000949350505050565b600061225c836001600160a01b03166122cc565b6122685750600061038e565b6040516020818451602086016000885af180156122a5573d8015612293576020811461229c576122a3565b600193506122a3565b8251151593505b505b505092915050565b6000606063a9059cbb60e01b84846040516024016119fb929190612d2b565b3b151590565b6040805160608101909152806000815260006020820181905260409091015290565b604080518082019091526000808252602082015290565b803561038e81613491565b600082601f830112612326578081fd5b813561233961233482613421565b6133fa565b818152915060208083019084810160005b848110156123cf5781358701606080601f19838c0301121561236b57600080fd5b612374816133fa565b6123808b87850161230b565b8152604080840135878301528284013567ffffffffffffffff8111156123a557600080fd5b6123b38d89838801016123da565b918301919091525086525050928201929082019060010161234a565b505050505092915050565b600082601f8301126123ea578081fd5b81356123f861233482613441565b915080825283602082850101111561240f57600080fd5b8060208401602084013760009082016020015292915050565b600082601f830112612438578081fd5b815161244661233482613441565b915080825283602082850101111561245d57600080fd5b61246e816020840160208601613465565b5092915050565b600060408284031215612486578081fd5b61249060406133fa565b9050813561249d81613491565b808252506020820135602082015292915050565b600061010082840312156124c3578081fd5b6124cd60c06133fa565b9050813581526124e08360208401612475565b60208201526124f28360608401612475565b604082015260a082013561250581613491565b606082015260c082013567ffffffffffffffff81111561252457600080fd5b612530848285016123da565b60808301525060e082013560a082015292915050565b600060408284031215612557578081fd5b61256160406133fa565b9050813567ffffffffffffffff8082111561257b57600080fd5b81840160e0818703121561258e57600080fd5b61259860e06133fa565b925080358352602081013560208401526125b5866040830161230b565b60408401526125c7866060830161230b565b60608401526080810135828111156125de57600080fd5b6125ea87828401612316565b60808501525060a081013560a084015260c08101358281111561260c57600080fd5b612618878284016123da565b60c085015250509082526020830135908082111561263557600080fd5b50612642848285016124b1565b60208301525092915050565b600080600060608486031215612662578283fd5b835161266d81613491565b602085015190935061267e81613491565b80925050604084015190509250925092565b600080604083850312156126a2578182fd5b82356126ad81613491565b9150602083013567ffffffffffffffff8111156126c8578182fd5b6126d4858286016124b1565b9150509250929050565b600080604083850312156126f0578182fd5b82516126fb81613491565b6020939093015192949293505050565b6000806020838503121561271d578182fd5b823567ffffffffffffffff80821115612734578384fd5b81850186601f820112612745578485fd5b8035925081831115612755578485fd5b866020606085028301011115612769578485fd5b60200196919550909350505050565b600060208284031215612789578081fd5b81518015158114610f6d578182fd5b6000602082840312156127a9578081fd5b5035919050565b600080604083850312156127c2578182fd5b8251915060208084015167ffffffffffffffff8111156127e0578283fd5b80850186601f8201126127f1578384fd5b8051915061280161233483613421565b82815283810190828501865b85811015612836576128248b888451880101612428565b8452928601929086019060010161280d565b5096999098509650505050505050565b60008060408385031215612858578182fd5b82359150602083013561286a81613491565b809150509250929050565b600060208284031215612886578081fd5b8135610f6d816134a9565b600080604083850312156128a3578182fd5b82356128ae816134a9565b9150602083013561286a81613491565b6000806000606084860312156128d2578081fd5b83356128dd816134a9565b925060208401356128ed81613491565b915060408401356128fd81613491565b809150509250925092565b600060208284031215612919578081fd5b813567ffffffffffffffff81111561292f578182fd5b611760848285016123da565b60006060828403121561294c578081fd5b61295660606133fa565b823560038110612964578283fd5b81526020830135612974816134a9565b6020820152604083013561298781613491565b60408201529392505050565b6000602082840312156129a4578081fd5b813567ffffffffffffffff8111156129ba578182fd5b611760848285016124b1565b6000602082840312156129d7578081fd5b813567ffffffffffffffff8111156129ed578182fd5b61176084828501612546565b60008060408385031215612a0b578182fd5b823567ffffffffffffffff80821115612a22578384fd5b612a2e86838701612546565b93506020850135915080821115612a43578283fd5b506126d4858286016123da565b60008060408385031215612a62578182fd5b823567ffffffffffffffff811115612a78578283fd5b612a8485828601612546565b95602094909401359450505050565b600060208284031215612aa4578081fd5b5051919050565b6000815180845260208085019450848183028601828601855b85811015612b17578383038952815160606001600160a01b03825116855286820151878601526040808301518282880152612b0183880182612b24565b9c89019c96505050928601925050600101612ac4565b5090979650505050505050565b60008151808452612b3c816020860160208601613465565b601f01601f19169290920160200192915050565b80516001600160a01b03168252602090810151910152565b6000610100825184526020830151612b836020860182612b50565b506040830151612b966060860182612b50565b506001600160a01b0360608401511660a085015260808301518160c0860152612bc182860182612b24565b60a085015160e087015280935050505092915050565b6000815183526020820151602084015260408201516001600160a01b0380821660408601528060608501511660608601525050608082015160e06080850152612c2360e0850182612aab565b60a084015160a086015260c0840151915084810360c0860152611a4e8183612b24565b60008251612c58818460208701613465565b9190910192915050565b7f61636c0000000000000000000000000000000000000000000000000000000000815260030190565b7f657263336b2d7631000000000000000000000000000000000000000000000000815260609490941b7fffffffffffffffffffffffffffffffffffffffff000000000000000000000000166008850152601c840192909252603c830152605c820152607c0190565b6001600160a01b0391909116815260200190565b6001600160a01b039384168152919092166020820152604081019190915260600190565b6001600160a01b03929092168252602082015260400190565b600060208252610f6d6020830184612aab565b600060608252612d6a6060830186612aab565b60208301949094525060400152919050565b901515815260200190565b90815260200190565b600060408201848352602060408185015281855180845260608601915060608382028701019350828701855b82811015612e08577fffffffffffffffffffffffffffffffffffffffffffffffffffffffffffffffa0888703018452612df6868351612b24565b95509284019290840190600101612dbc565b509398975050505050505050565b6001600160e01b031991909116815260200190565b60006001600160e01b0319851682526001600160a01b038416602083015260606040830152611a4e6060830184612b24565b600060208252610f6d6020830184612b24565b600060808252612e836080830186612b24565b90508360208301526117606040830184612b50565b6020810160078310612ea657fe5b91905290565b6000838252604060208301526117606040830184612b24565b6020808252601a908201527f6465706f7369743a2062616420746f6b656e2072656c65617365000000000000604082015260600190565b60208082526010908201527f71756575653a2062616420737461746500000000000000000000000000000000604082015260600190565b60208082526011908201527f71756575653a2062616420636f6e666967000000000000000000000000000000604082015260600190565b60208082526009908201527f61636c3a20617574680000000000000000000000000000000000000000000000604082015260600190565b60208082526015908201527f71756575653a2062616420646973707574652069640000000000000000000000604082015260600190565b60208082526010908201527f71756575653a20626164206e6f6e636500000000000000000000000000000000604082015260600190565b60208082526010908201527f71756575653a206261642064656c617900000000000000000000000000000000604082015260600190565b60208082526010908201527f71756575653a2062616420726573657400000000000000000000000000000000604082015260600190565b60208082526013908201527f71756575653a20626164206665652070756c6c00000000000000000000000000604082015260600190565b60208082526014908201527f71756575653a20626164207375626d6974746572000000000000000000000000604082015260600190565b6020808252600b908201527f61636c3a2066726f7a656e000000000000000000000000000000000000000000604082015260600190565b60208082526012908201527f71756575653a2062616420617070726f76650000000000000000000000000000604082015260600190565b60208082526022908201527f696e697469616c697a61626c653a20616c726561647920696e697469616c697a60408201527f6564000000000000000000000000000000000000000000000000000000000000606082015260800190565b60208082526010908201527f71756575653a2077616974206d6f726500000000000000000000000000000000604082015260600190565b60208082526017908201527f6465706f7369743a2062616420746f6b656e206c6f636b000000000000000000604082015260600190565b60208082526012908201527f71756575653a206e6f74207375626a6563740000000000000000000000000000604082015260600190565b6020808252601c908201527f63616c6c6461746173697a653a206c696d697420657863656564656400000000604082015260600190565b6020808252601c908201527f61636c3a20696e697469616c20726f6f74206d6973616c69676e656400000000604082015260600190565b6020808252600f908201527f61636c3a2062616420667265657a650000000000000000000000000000000000604082015260600190565b6020808252600e908201527f6d6174683a206f766572666c6f77000000000000000000000000000000000000604082015260600190565b600060208252610f6d6020830184612b68565b6000602082528251604060208401526133666060840182612bd7565b60208501519150601f19848203016040850152611a4e8183612b68565b600060208252610f6d6020830184612bd7565b60008482526001600160a01b038416602083015260606040830152611a4e6060830184612b24565b96875260208701959095526001600160a01b039384166040870152919092166060850152608084019190915260a083015260c082015260e00190565b60405181810167ffffffffffffffff8111828210171561341957600080fd5b604052919050565b600067ffffffffffffffff821115613437578081fd5b5060209081020190565b600067ffffffffffffffff821115613457578081fd5b50601f01601f191660200190565b60005b83811015613480578181015183820152602001613468565b838111156106e65750506000910152565b6001600160a01b03811681146134a657600080fd5b50565b6001600160e01b0319811681146134a657600080fdfea26469706673582212204218e5e75bd42f91e624d7ea48e51afe9dc293dee3f9d382ecc95ad708a2ae0a64736f6c63430006080033d87da3e1f08043464b74e6b0861ccd8d8a5174e228287ac9b9f6efc1673da4ec7bc2a48a4a566e237a12186f19d985b0f76afc9d5290601edac19876253670c2",
  "devdoc": {
    "methods": {
      "challenge(((uint256,uint256,address,address,(address,uint256,bytes)[],bytes32,bytes),(uint256,(address,uint256),(address,uint256),address,bytes,uint256)),bytes)": {
        "params": {
          "_container": "A ERC3000Data.Container struct holding both the payload being scheduled for execution and the current configuration of the system",
          "_reason": "Hint for case reviewers as to why the scheduled container is illegal"
        }
      },
      "configure((uint256,(address,uint256),(address,uint256),address,bytes,uint256))": {
        "params": {
          "_config": "A ERC3000Data.Config struct holding all the new params that will control the queue"
        }
      },
      "constructor": {
        "params": {
          "_aclRoot": "account that will be given root permissions on ACL (commonly given to factory)",
          "_initialConfig": "initial configuration parameters"
        }
      },
      "execute(((uint256,uint256,address,address,(address,uint256,bytes)[],bytes32,bytes),(uint256,(address,uint256),(address,uint256),address,bytes,uint256)))": {
        "params": {
          "_container": "A ERC3000Data.Container struct holding both the payload being scheduled for execution and the current configuration of the system"
        }
      },
      "resolve(((uint256,uint256,address,address,(address,uint256,bytes)[],bytes32,bytes),(uint256,(address,uint256),(address,uint256),address,bytes,uint256)),uint256)": {
        "params": {
          "_container": "A ERC3000Data.Container struct holding both the payload being scheduled for execution and the current configuration of the system",
          "_disputeId": "disputeId in the arbitrator in which the dispute over the container was created"
        }
      },
      "schedule(((uint256,uint256,address,address,(address,uint256,bytes)[],bytes32,bytes),(uint256,(address,uint256),(address,uint256),address,bytes,uint256)))": {
        "params": {
          "_container": "A ERC3000Data.Container struct holding both the payload being scheduled for execution and the current configuration of the system"
        }
      }
    }
  },
  "userdoc": {
    "methods": {
      "challenge(((uint256,uint256,address,address,(address,uint256,bytes)[],bytes32,bytes),(uint256,(address,uint256),(address,uint256),address,bytes,uint256)),bytes)": {
        "notice": "Challenge a container in case its scheduling is illegal as per Config.rules. Pulls collateral and dispute fees from sender into contract"
      },
      "configure((uint256,(address,uint256),(address,uint256),address,bytes,uint256))": {
        "notice": "Apply a new configuration for all *new* containers to be scheduled"
      },
      "execute(((uint256,uint256,address,address,(address,uint256,bytes)[],bytes32,bytes),(uint256,(address,uint256),(address,uint256),address,bytes,uint256)))": {
        "notice": "Executes an action after its execution delay has passed and its state hasn't been altered by a challenge or veto"
      },
      "resolve(((uint256,uint256,address,address,(address,uint256,bytes)[],bytes32,bytes),(uint256,(address,uint256),(address,uint256),address,bytes,uint256)),uint256)": {
        "notice": "Apply arbitrator's ruling over a challenge once it has come to a final ruling"
      },
      "schedule(((uint256,uint256,address,address,(address,uint256,bytes)[],bytes32,bytes),(uint256,(address,uint256),(address,uint256),address,bytes,uint256)))": {
        "notice": "Schedules an action for execution, allowing for challenges and vetos on a defined time window. Pulls collateral from submitter into contract."
      }
    }
  },
  "storageLayout": {
    "storage": [
      {
        "astId": 530,
        "contract": "contracts/pipelines/GovernQueue.sol:GovernQueue",
        "label": "standardSupported",
        "offset": 0,
        "slot": "0",
        "type": "t_mapping(t_bytes4,t_bool)"
      },
      {
        "astId": 534,
        "contract": "contracts/pipelines/GovernQueue.sol:GovernQueue",
        "label": "callbackMagicNumbers",
        "offset": 0,
        "slot": "1",
        "type": "t_mapping(t_bytes4,t_bytes32)"
      },
      {
        "astId": 1087,
        "contract": "contracts/pipelines/GovernQueue.sol:GovernQueue",
        "label": "initBlocks",
        "offset": 0,
        "slot": "2",
        "type": "t_mapping(t_string_memory_ptr,t_uint256)"
      },
      {
        "astId": 66,
        "contract": "contracts/pipelines/GovernQueue.sol:GovernQueue",
        "label": "roles",
        "offset": 0,
        "slot": "3",
        "type": "t_mapping(t_bytes4,t_mapping(t_address,t_address))"
      },
      {
        "astId": 1940,
        "contract": "contracts/pipelines/GovernQueue.sol:GovernQueue",
        "label": "configHash",
        "offset": 0,
        "slot": "4",
        "type": "t_bytes32"
      },
      {
        "astId": 1942,
        "contract": "contracts/pipelines/GovernQueue.sol:GovernQueue",
        "label": "nonce",
        "offset": 0,
        "slot": "5",
        "type": "t_uint256"
      },
      {
        "astId": 1946,
        "contract": "contracts/pipelines/GovernQueue.sol:GovernQueue",
        "label": "queue",
        "offset": 0,
        "slot": "6",
        "type": "t_mapping(t_bytes32,t_struct(Item)1862_storage)"
      },
      {
        "astId": 1950,
        "contract": "contracts/pipelines/GovernQueue.sol:GovernQueue",
        "label": "challengerCache",
        "offset": 0,
        "slot": "7",
        "type": "t_mapping(t_bytes32,t_address)"
      },
      {
        "astId": 1956,
        "contract": "contracts/pipelines/GovernQueue.sol:GovernQueue",
        "label": "disputeItemCache",
        "offset": 0,
        "slot": "8",
        "type": "t_mapping(t_bytes32,t_mapping(t_contract(IArbitrator)2950,t_uint256))"
      }
    ],
    "types": {
      "t_address": {
        "encoding": "inplace",
        "label": "address",
        "numberOfBytes": "20"
      },
      "t_bool": {
        "encoding": "inplace",
        "label": "bool",
        "numberOfBytes": "1"
      },
      "t_bytes32": {
        "encoding": "inplace",
        "label": "bytes32",
        "numberOfBytes": "32"
      },
      "t_bytes4": {
        "encoding": "inplace",
        "label": "bytes4",
        "numberOfBytes": "4"
      },
      "t_contract(IArbitrator)2950": {
        "encoding": "inplace",
        "label": "contract IArbitrator",
        "numberOfBytes": "20"
      },
      "t_enum(State)1859": {
        "encoding": "inplace",
        "label": "enum GovernQueueStateLib.State",
        "numberOfBytes": "1"
      },
      "t_mapping(t_address,t_address)": {
        "encoding": "mapping",
        "key": "t_address",
        "label": "mapping(address => address)",
        "numberOfBytes": "32",
        "value": "t_address"
      },
      "t_mapping(t_bytes32,t_address)": {
        "encoding": "mapping",
        "key": "t_bytes32",
        "label": "mapping(bytes32 => address)",
        "numberOfBytes": "32",
        "value": "t_address"
      },
      "t_mapping(t_bytes32,t_mapping(t_contract(IArbitrator)2950,t_uint256))": {
        "encoding": "mapping",
        "key": "t_bytes32",
        "label": "mapping(bytes32 => mapping(contract IArbitrator => uint256))",
        "numberOfBytes": "32",
        "value": "t_mapping(t_contract(IArbitrator)2950,t_uint256)"
      },
      "t_mapping(t_bytes32,t_struct(Item)1862_storage)": {
        "encoding": "mapping",
        "key": "t_bytes32",
        "label": "mapping(bytes32 => struct GovernQueueStateLib.Item)",
        "numberOfBytes": "32",
        "value": "t_struct(Item)1862_storage"
      },
      "t_mapping(t_bytes4,t_bool)": {
        "encoding": "mapping",
        "key": "t_bytes4",
        "label": "mapping(bytes4 => bool)",
        "numberOfBytes": "32",
        "value": "t_bool"
      },
      "t_mapping(t_bytes4,t_bytes32)": {
        "encoding": "mapping",
        "key": "t_bytes4",
        "label": "mapping(bytes4 => bytes32)",
        "numberOfBytes": "32",
        "value": "t_bytes32"
      },
      "t_mapping(t_bytes4,t_mapping(t_address,t_address))": {
        "encoding": "mapping",
        "key": "t_bytes4",
        "label": "mapping(bytes4 => mapping(address => address))",
        "numberOfBytes": "32",
        "value": "t_mapping(t_address,t_address)"
      },
      "t_mapping(t_contract(IArbitrator)2950,t_uint256)": {
        "encoding": "mapping",
        "key": "t_contract(IArbitrator)2950",
        "label": "mapping(contract IArbitrator => uint256)",
        "numberOfBytes": "32",
        "value": "t_uint256"
      },
      "t_mapping(t_string_memory_ptr,t_uint256)": {
        "encoding": "mapping",
        "key": "t_string_memory_ptr",
        "label": "mapping(string => uint256)",
        "numberOfBytes": "32",
        "value": "t_uint256"
      },
      "t_string_memory_ptr": {
        "encoding": "bytes",
        "label": "string",
        "numberOfBytes": "32"
      },
      "t_struct(Item)1862_storage": {
        "encoding": "inplace",
        "label": "struct GovernQueueStateLib.Item",
        "members": [
          {
            "astId": 1861,
            "contract": "contracts/pipelines/GovernQueue.sol:GovernQueue",
            "label": "state",
            "offset": 0,
            "slot": "0",
            "type": "t_enum(State)1859"
          }
        ],
        "numberOfBytes": "32"
      },
      "t_uint256": {
        "encoding": "inplace",
        "label": "uint256",
        "numberOfBytes": "32"
      }
    }
  }
}