{
  "address": "0x760579CDfd500Cd8345530Fe217EC70839AbF61F",
  "abi": [
    {
      "constant": true,
      "inputs": [],
      "name": "name",
      "outputs": [
        {
          "name": "",
          "type": "string"
        }
      ],
      "payable": false,
      "stateMutability": "view",
      "type": "function"
    },
    {
      "constant": false,
      "inputs": [
        {
          "name": "_spender",
          "type": "address"
        },
        {
          "name": "_amount",
          "type": "uint256"
        }
      ],
      "name": "approve",
      "outputs": [
        {
          "name": "success",
          "type": "bool"
        }
      ],
      "payable": false,
      "stateMutability": "nonpayable",
      "type": "function"
    },
    {
      "constant": true,
      "inputs": [],
      "name": "creationBlock",
      "outputs": [
        {
          "name": "",
          "type": "uint256"
        }
      ],
      "payable": false,
      "stateMutability": "view",
      "type": "function"
    },
    {
      "constant": true,
      "inputs": [],
      "name": "totalSupply",
      "outputs": [
        {
          "name": "",
          "type": "uint256"
        }
      ],
      "payable": false,
      "stateMutability": "view",
      "type": "function"
    },
    {
      "constant": false,
      "inputs": [
        {
          "name": "_from",
          "type": "address"
        },
        {
          "name": "_to",
          "type": "address"
        },
        {
          "name": "_amount",
          "type": "uint256"
        }
      ],
      "name": "transferFrom",
      "outputs": [
        {
          "name": "success",
          "type": "bool"
        }
      ],
      "payable": false,
      "stateMutability": "nonpayable",
      "type": "function"
    },
    {
      "constant": true,
      "inputs": [],
      "name": "decimals",
      "outputs": [
        {
          "name": "",
          "type": "uint8"
        }
      ],
      "payable": false,
      "stateMutability": "view",
      "type": "function"
    },
    {
      "constant": false,
      "inputs": [
        {
          "name": "_newController",
          "type": "address"
        }
      ],
      "name": "changeController",
      "outputs": [],
      "payable": false,
      "stateMutability": "nonpayable",
      "type": "function"
    },
    {
      "constant": true,
      "inputs": [
        {
          "name": "_owner",
          "type": "address"
        },
        {
          "name": "_blockNumber",
          "type": "uint256"
        }
      ],
      "name": "balanceOfAt",
      "outputs": [
        {
          "name": "",
          "type": "uint256"
        }
      ],
      "payable": false,
      "stateMutability": "view",
      "type": "function"
    },
    {
      "constant": true,
      "inputs": [],
      "name": "version",
      "outputs": [
        {
          "name": "",
          "type": "string"
        }
      ],
      "payable": false,
      "stateMutability": "view",
      "type": "function"
    },
    {
      "constant": false,
      "inputs": [
        {
          "name": "_cloneTokenName",
          "type": "string"
        },
        {
          "name": "_cloneDecimalUnits",
          "type": "uint8"
        },
        {
          "name": "_cloneTokenSymbol",
          "type": "string"
        },
        {
          "name": "_snapshotBlock",
          "type": "uint256"
        },
        {
          "name": "_transfersEnabled",
          "type": "bool"
        }
      ],
      "name": "createCloneToken",
      "outputs": [
        {
          "name": "",
          "type": "address"
        }
      ],
      "payable": false,
      "stateMutability": "nonpayable",
      "type": "function"
    },
    {
      "constant": true,
      "inputs": [
        {
          "name": "_owner",
          "type": "address"
        }
      ],
      "name": "balanceOf",
      "outputs": [
        {
          "name": "balance",
          "type": "uint256"
        }
      ],
      "payable": false,
      "stateMutability": "view",
      "type": "function"
    },
    {
      "constant": true,
      "inputs": [],
      "name": "parentToken",
      "outputs": [
        {
          "name": "",
          "type": "address"
        }
      ],
      "payable": false,
      "stateMutability": "view",
      "type": "function"
    },
    {
      "constant": false,
      "inputs": [
        {
          "name": "_owner",
          "type": "address"
        },
        {
          "name": "_amount",
          "type": "uint256"
        }
      ],
      "name": "generateTokens",
      "outputs": [
        {
          "name": "",
          "type": "bool"
        }
      ],
      "payable": false,
      "stateMutability": "nonpayable",
      "type": "function"
    },
    {
      "constant": true,
      "inputs": [],
      "name": "symbol",
      "outputs": [
        {
          "name": "",
          "type": "string"
        }
      ],
      "payable": false,
      "stateMutability": "view",
      "type": "function"
    },
    {
      "constant": true,
      "inputs": [
        {
          "name": "_blockNumber",
          "type": "uint256"
        }
      ],
      "name": "totalSupplyAt",
      "outputs": [
        {
          "name": "",
          "type": "uint256"
        }
      ],
      "payable": false,
      "stateMutability": "view",
      "type": "function"
    },
    {
      "constant": false,
      "inputs": [
        {
          "name": "_to",
          "type": "address"
        },
        {
          "name": "_amount",
          "type": "uint256"
        }
      ],
      "name": "transfer",
      "outputs": [
        {
          "name": "success",
          "type": "bool"
        }
      ],
      "payable": false,
      "stateMutability": "nonpayable",
      "type": "function"
    },
    {
      "constant": true,
      "inputs": [],
      "name": "transfersEnabled",
      "outputs": [
        {
          "name": "",
          "type": "bool"
        }
      ],
      "payable": false,
      "stateMutability": "view",
      "type": "function"
    },
    {
      "constant": true,
      "inputs": [],
      "name": "parentSnapShotBlock",
      "outputs": [
        {
          "name": "",
          "type": "uint256"
        }
      ],
      "payable": false,
      "stateMutability": "view",
      "type": "function"
    },
    {
      "constant": false,
      "inputs": [
        {
          "name": "_spender",
          "type": "address"
        },
        {
          "name": "_amount",
          "type": "uint256"
        },
        {
          "name": "_extraData",
          "type": "bytes"
        }
      ],
      "name": "approveAndCall",
      "outputs": [
        {
          "name": "success",
          "type": "bool"
        }
      ],
      "payable": false,
      "stateMutability": "nonpayable",
      "type": "function"
    },
    {
      "constant": false,
      "inputs": [
        {
          "name": "_owner",
          "type": "address"
        },
        {
          "name": "_amount",
          "type": "uint256"
        }
      ],
      "name": "destroyTokens",
      "outputs": [
        {
          "name": "",
          "type": "bool"
        }
      ],
      "payable": false,
      "stateMutability": "nonpayable",
      "type": "function"
    },
    {
      "constant": true,
      "inputs": [
        {
          "name": "_owner",
          "type": "address"
        },
        {
          "name": "_spender",
          "type": "address"
        }
      ],
      "name": "allowance",
      "outputs": [
        {
          "name": "remaining",
          "type": "uint256"
        }
      ],
      "payable": false,
      "stateMutability": "view",
      "type": "function"
    },
    {
      "constant": false,
      "inputs": [
        {
          "name": "_token",
          "type": "address"
        }
      ],
      "name": "claimTokens",
      "outputs": [],
      "payable": false,
      "stateMutability": "nonpayable",
      "type": "function"
    },
    {
      "constant": true,
      "inputs": [],
      "name": "tokenFactory",
      "outputs": [
        {
          "name": "",
          "type": "address"
        }
      ],
      "payable": false,
      "stateMutability": "view",
      "type": "function"
    },
    {
      "constant": false,
      "inputs": [
        {
          "name": "_transfersEnabled",
          "type": "bool"
        }
      ],
      "name": "enableTransfers",
      "outputs": [],
      "payable": false,
      "stateMutability": "nonpayable",
      "type": "function"
    },
    {
      "constant": true,
      "inputs": [],
      "name": "controller",
      "outputs": [
        {
          "name": "",
          "type": "address"
        }
      ],
      "payable": false,
      "stateMutability": "view",
      "type": "function"
    },
    {
      "inputs": [
        {
          "name": "_tokenFactory",
          "type": "address"
        },
        {
          "name": "_parentToken",
          "type": "address"
        },
        {
          "name": "_parentSnapShotBlock",
          "type": "uint256"
        },
        {
          "name": "_tokenName",
          "type": "string"
        },
        {
          "name": "_decimalUnits",
          "type": "uint8"
        },
        {
          "name": "_tokenSymbol",
          "type": "string"
        },
        {
          "name": "_transfersEnabled",
          "type": "bool"
        }
      ],
      "payable": false,
      "stateMutability": "nonpayable",
      "type": "constructor"
    },
    {
      "payable": true,
      "stateMutability": "payable",
      "type": "fallback"
    },
    {
      "anonymous": false,
      "inputs": [
        {
          "indexed": true,
          "name": "_token",
          "type": "address"
        },
        {
          "indexed": true,
          "name": "_controller",
          "type": "address"
        },
        {
          "indexed": false,
          "name": "_amount",
          "type": "uint256"
        }
      ],
      "name": "ClaimedTokens",
      "type": "event"
    },
    {
      "anonymous": false,
      "inputs": [
        {
          "indexed": true,
          "name": "_from",
          "type": "address"
        },
        {
          "indexed": true,
          "name": "_to",
          "type": "address"
        },
        {
          "indexed": false,
          "name": "_amount",
          "type": "uint256"
        }
      ],
      "name": "Transfer",
      "type": "event"
    },
    {
      "anonymous": false,
      "inputs": [
        {
          "indexed": true,
          "name": "_cloneToken",
          "type": "address"
        },
        {
          "indexed": false,
          "name": "_snapshotBlock",
          "type": "uint256"
        }
      ],
      "name": "NewCloneToken",
      "type": "event"
    },
    {
      "anonymous": false,
      "inputs": [
        {
          "indexed": true,
          "name": "_owner",
          "type": "address"
        },
        {
          "indexed": true,
          "name": "_spender",
          "type": "address"
        },
        {
          "indexed": false,
          "name": "_amount",
          "type": "uint256"
        }
      ],
      "name": "Approval",
      "type": "event"
    }
  ],
  "transactionHash": "0x6659c16ffe1924653bbd50891b4ca9e6316dde5a494b253eb397174730cee993",
  "args": [
    "0x8E0CdcF47a394d511AA3b25c14e99eFa8dA68845",
    "0x0000000000000000000000000000000000000000",
    0,
    "HoneyTest",
    18,
    "HNYT",
    true
  ],
  "solcInputHash": "bf9b34617f4f5fb9f5bf5e1e64fdbae5",
  "bytecode": "0x60c0604052600760808190527f4d4d545f302e310000000000000000000000000000000000000000000000000060a090815262000040916004919062000147565b503480156200004e57600080fd5b5060405162001c0138038062001c018339810160409081528151602080840151928401516060850151608086015160a087015160c088015160008054600160a060020a03191633179055600b8054600160a060020a0389166101000261010060a860020a031990911617905592880180519698949690959294919091019291620000de9160019187019062000147565b506002805460ff191660ff851617905581516200010390600390602085019062000147565b5060058054600160a060020a031916600160a060020a039790971696909617909555505050600655600b805460ff19169115159190911790555043600755620001ec565b828054600181600116156101000203166002900490600052602060002090601f016020900481019282601f106200018a57805160ff1916838001178555620001ba565b82800160010185558215620001ba579182015b82811115620001ba5782518255916020019190600101906200019d565b50620001c8929150620001cc565b5090565b620001e991905b80821115620001c85760008155600101620001d3565b90565b611a0580620001fc6000396000f3006080604052600436106101485763ffffffff7c010000000000000000000000000000000000000000000000000000000060003504166306fdde03811461020b578063095ea7b31461029557806317634514146102cd57806318160ddd146102f457806323b872dd14610309578063313ce567146103335780633cebb8231461035e5780634ee2cd7e1461037f57806354fd4d50146103a35780636638c087146103b857806370a082311461047b57806380a540011461049c578063827f32c0146104b157806395d89b41146104d5578063981b24d0146104ea578063a9059cbb14610502578063bef97c8714610526578063c5bcc4f11461053b578063cae9ca5114610550578063d3ce77fe146105b9578063dd62ed3e146105dd578063df8de3e714610604578063e77772fe14610625578063f41e60c51461063a578063f77c479114610654575b60005461015d90600160a060020a0316610669565b151561016857600080fd5b600054604080517ff48c30540000000000000000000000000000000000000000000000000000000081523360048201529051600160a060020a039092169163f48c3054913491602480830192602092919082900301818588803b1580156101ce57600080fd5b505af11580156101e2573d6000803e3d6000fd5b50505050506040513d60208110156101f957600080fd5b5051151560011461020957600080fd5b005b34801561021757600080fd5b50610220610696565b6040805160208082528351818301528351919283929083019185019080838360005b8381101561025a578181015183820152602001610242565b50505050905090810190601f1680156102875780820380516001836020036101000a031916815260200191505b509250505060405180910390f35b3480156102a157600080fd5b506102b9600160a060020a0360043516602435610723565b604080519115158252519081900360200190f35b3480156102d957600080fd5b506102e26108a4565b60408051918252519081900360200190f35b34801561030057600080fd5b506102e26108aa565b34801561031557600080fd5b506102b9600160a060020a03600435811690602435166044356108bb565b34801561033f57600080fd5b50610348610952565b6040805160ff9092168252519081900360200190f35b34801561036a57600080fd5b50610209600160a060020a036004351661095b565b34801561038b57600080fd5b506102e2600160a060020a03600435166024356109ac565b3480156103af57600080fd5b50610220610b1b565b3480156103c457600080fd5b506040805160206004803580820135601f810184900484028501840190955284845261045f94369492936024939284019190819084018382808284375050604080516020601f818a01358b0180359182018390048302840183018552818452989b60ff8b35169b909a909994019750919550918201935091508190840183828082843750949750508435955050505050602001351515610b76565b60408051600160a060020a039092168252519081900360200190f35b34801561048757600080fd5b506102e2600160a060020a0360043516610ddc565b3480156104a857600080fd5b5061045f610df0565b3480156104bd57600080fd5b506102b9600160a060020a0360043516602435610dff565b3480156104e157600080fd5b50610220610ecb565b3480156104f657600080fd5b506102e2600435610f26565b34801561050e57600080fd5b506102b9600160a060020a036004351660243561103c565b34801561053257600080fd5b506102b961105b565b34801561054757600080fd5b506102e2611064565b34801561055c57600080fd5b50604080516020600460443581810135601f81018490048402850184019095528484526102b9948235600160a060020a031694602480359536959460649492019190819084018382808284375094975061106a9650505050505050565b3480156105c557600080fd5b506102b9600160a060020a0360043516602435611185565b3480156105e957600080fd5b506102e2600160a060020a036004358116906024351661124d565b34801561061057600080fd5b50610209600160a060020a0360043516611278565b34801561063157600080fd5b5061045f61145f565b34801561064657600080fd5b506102096004351515611473565b34801561066057600080fd5b5061045f6114bb565b600080600160a060020a03831615156106855760009150610690565b823b90506000811191505b50919050565b60018054604080516020600284861615610100026000190190941693909304601f8101849004840282018401909252818152929183018282801561071b5780601f106106f05761010080835404028352916020019161071b565b820191906000526020600020905b8154815290600101906020018083116106fe57829003601f168201915b505050505081565b600b5460009060ff16151561073757600080fd5b8115806107655750336000908152600960209081526040808320600160a060020a0387168452909152902054155b151561077057600080fd5b60005461078590600160a060020a0316610669565b1561083c5760008054604080517fda682aeb000000000000000000000000000000000000000000000000000000008152336004820152600160a060020a038781166024830152604482018790529151919092169263da682aeb92606480820193602093909283900390910190829087803b15801561080257600080fd5b505af1158015610816573d6000803e3d6000fd5b505050506040513d602081101561082c57600080fd5b5051151560011461083c57600080fd5b336000818152600960209081526040808320600160a060020a03881680855290835292819020869055805186815290519293927f8c5be1e5ebec7d5bd14f71427d1e84f3dd0314c0f7b2291e5b200ac8c7c3b925929181900390910190a35060015b92915050565b60075481565b60006108b543610f26565b90505b90565b60008054600160a060020a0316331461093d57600b5460ff1615156108df57600080fd5b600160a060020a03841660009081526009602090815260408083203384529091529020548211156109125750600061094b565b600160a060020a03841660009081526009602090815260408083203384529091529020805483900390555b6109488484846114ca565b90505b9392505050565b60025460ff1681565b600054600160a060020a0316331461097257600080fd5b600080547fffffffffffffffffffffffff000000000000000000000000000000000000000016600160a060020a0392909216919091179055565b600160a060020a0382166000908152600860205260408120541580610a115750600160a060020a0383166000908152600860205260408120805484929081106109f157fe5b6000918252602090912001546fffffffffffffffffffffffffffffffff16115b15610af257600554600160a060020a031615610aea57600554600654600160a060020a0390911690634ee2cd7e908590610a4c9086906116bf565b6040518363ffffffff167c01000000000000000000000000000000000000000000000000000000000281526004018083600160a060020a0316600160a060020a0316815260200182815260200192505050602060405180830381600087803b158015610ab757600080fd5b505af1158015610acb573d6000803e3d6000fd5b505050506040513d6020811015610ae157600080fd5b5051905061089e565b50600061089e565b600160a060020a0383166000908152600860205260409020610b1490836116d5565b905061089e565b6004805460408051602060026001851615610100026000190190941693909304601f8101849004840282018401909252818152929183018282801561071b5780601f106106f05761010080835404028352916020019161071b565b600080808415610b865784610b8b565b600143035b600b546040517f5b7b72c100000000000000000000000000000000000000000000000000000000815230600482018181526024830185905260ff8c16606484015288151560a484015260c0604484019081528d5160c48501528d51959750610100909404600160a060020a031694635b7b72c194929388938f938f938f938e9391608482019160e40190602089019080838360005b83811015610c38578181015183820152602001610c20565b50505050905090810190601f168015610c655780820380516001836020036101000a031916815260200191505b50838103825285518152855160209182019187019080838360005b83811015610c98578181015183820152602001610c80565b50505050905090810190601f168015610cc55780820380516001836020036101000a031916815260200191505b5098505050505050505050602060405180830381600087803b158015610cea57600080fd5b505af1158015610cfe573d6000803e3d6000fd5b505050506040513d6020811015610d1457600080fd5b5051604080517f3cebb8230000000000000000000000000000000000000000000000000000000081523360048201529051919250600160a060020a03831691633cebb8239160248082019260009290919082900301818387803b158015610d7a57600080fd5b505af1158015610d8e573d6000803e3d6000fd5b5050604080518581529051600160a060020a03851693507f086c875b377f900b07ce03575813022f05dd10ed7640b5282cf6d3c3fc352ade92509081900360200190a2979650505050505050565b6000610de882436109ac565b90505b919050565b600554600160a060020a031681565b6000805481908190600160a060020a03163314610e1b57600080fd5b610e236108aa565b9150838201821115610e3457600080fd5b610e3d85610ddc565b9050838101811115610e4e57600080fd5b610e5b600a858401611861565b600160a060020a0385166000908152600860205260409020610e7f90828601611861565b604080518581529051600160a060020a038716916000917fddf252ad1be2c89b69c2b068fc378daa952ba7f163c4a11628f55a4df523b3ef9181900360200190a3506001949350505050565b6003805460408051602060026001851615610100026000190190941693909304601f8101849004840282018401909252818152929183018282801561071b5780601f106106f05761010080835404028352916020019161071b565b600a546000901580610f64575081600a6000815481101515610f4457fe5b6000918252602090912001546fffffffffffffffffffffffffffffffff16115b1561102a57600554600160a060020a03161561102257600554600654600160a060020a039091169063981b24d090610f9d9085906116bf565b6040518263ffffffff167c010000000000000000000000000000000000000000000000000000000002815260040180828152602001915050602060405180830381600087803b158015610fef57600080fd5b505af1158015611003573d6000803e3d6000fd5b505050506040513d602081101561101957600080fd5b50519050610deb565b506000610deb565b611035600a836116d5565b9050610deb565b600b5460009060ff16151561105057600080fd5b61094b3384846114ca565b600b5460ff1681565b60065481565b60006110768484610723565b151561108157600080fd5b6040517f8f4ffcb10000000000000000000000000000000000000000000000000000000081523360048201818152602483018690523060448401819052608060648501908152865160848601528651600160a060020a038a1695638f4ffcb195948a94938a939192909160a490910190602085019080838360005b838110156111145781810151838201526020016110fc565b50505050905090810190601f1680156111415780820380516001836020036101000a031916815260200191505b5095505050505050600060405180830381600087803b15801561116357600080fd5b505af1158015611177573d6000803e3d6000fd5b506001979650505050505050565b6000805481908190600160a060020a031633146111a157600080fd5b6111a96108aa565b9150838210156111b857600080fd5b6111c185610ddc565b9050838110156111d057600080fd5b6111dd600a858403611861565b600160a060020a038516600090815260086020526040902061120190858303611861565b604080518581529051600091600160a060020a038816917fddf252ad1be2c89b69c2b068fc378daa952ba7f163c4a11628f55a4df523b3ef9181900360200190a3506001949350505050565b600160a060020a03918216600090815260096020908152604080832093909416825291909152205490565b600080548190600160a060020a0316331461129257600080fd5b600160a060020a03831615156112e35760008054604051600160a060020a0390911691303180156108fc02929091818181858888f193505050501580156112dd573d6000803e3d6000fd5b5061145a565b604080517f70a082310000000000000000000000000000000000000000000000000000000081523060048201529051849350600160a060020a038416916370a082319160248083019260209291908290030181600087803b15801561134757600080fd5b505af115801561135b573d6000803e3d6000fd5b505050506040513d602081101561137157600080fd5b505160008054604080517fa9059cbb000000000000000000000000000000000000000000000000000000008152600160a060020a0392831660048201526024810185905290519394509085169263a9059cbb92604480840193602093929083900390910190829087803b1580156113e757600080fd5b505af11580156113fb573d6000803e3d6000fd5b505050506040513d602081101561141157600080fd5b5050600054604080518381529051600160a060020a03928316928616917ff931edb47c50b4b4104c187b5814a9aef5f709e17e2ecf9617e860cacade929c919081900360200190a35b505050565b600b546101009004600160a060020a031681565b600054600160a060020a0316331461148a57600080fd5b600b80547fffffffffffffffffffffffffffffffffffffffffffffffffffffffffffffff0016911515919091179055565b600054600160a060020a031681565b600080808315156114de57600192506116b6565b60065443116114ec57600080fd5b600160a060020a0385161580159061150d5750600160a060020a0385163014155b151561151857600080fd5b61152286436109ac565b91508382101561153557600092506116b6565b60005461154a90600160a060020a0316610669565b156116035760008054604080517f4a393149000000000000000000000000000000000000000000000000000000008152600160a060020a038a8116600483015289811660248301526044820189905291519190921692634a39314992606480820193602093909283900390910190829087803b1580156115c957600080fd5b505af11580156115dd573d6000803e3d6000fd5b505050506040513d60208110156115f357600080fd5b5051151560011461160357600080fd5b600160a060020a038616600090815260086020526040902061162790858403611861565b61163185436109ac565b905083810181111561164257600080fd5b600160a060020a038516600090815260086020526040902061166690828601611861565b84600160a060020a031686600160a060020a03167fddf252ad1be2c89b69c2b068fc378daa952ba7f163c4a11628f55a4df523b3ef866040518082815260200191505060405180910390a3600192505b50509392505050565b60008183106116ce578161094b565b5090919050565b6000806000808580549050600014156116f15760009350611858565b85548690600019810190811061170357fe5b6000918252602090912001546fffffffffffffffffffffffffffffffff1685106117725785548690600019810190811061173957fe5b60009182526020909120015470010000000000000000000000000000000090046fffffffffffffffffffffffffffffffff169350611858565b85600081548110151561178157fe5b6000918252602090912001546fffffffffffffffffffffffffffffffff168510156117af5760009350611858565b8554600093506000190191505b828211156118155760026001838501010490508486828154811015156117de57fe5b6000918252602090912001546fffffffffffffffffffffffffffffffff161161180957809250611810565b6001810391505b6117bc565b858381548110151561182357fe5b60009182526020909120015470010000000000000000000000000000000090046fffffffffffffffffffffffffffffffff1693505b50505092915050565b6000806fffffffffffffffffffffffffffffffff83111561188157600080fd5b835415806118be5750835443908590600019810190811061189e57fe5b6000918252602090912001546fffffffffffffffffffffffffffffffff16105b1561194857835484906118d4826001830161199c565b815481106118de57fe5b600091825260209091200180546fffffffffffffffffffffffffffffffff858116700100000000000000000000000000000000024382167fffffffffffffffffffffffffffffffff0000000000000000000000000000000090931692909217161781559150611996565b83548490600019810190811061195a57fe5b600091825260209091200180546fffffffffffffffffffffffffffffffff80861670010000000000000000000000000000000002911617815590505b50505050565b81548183558181111561145a5760008381526020902061145a9181019083016108b891905b808211156119d557600081556001016119c1565b50905600a165627a7a72305820615a27e855dc52395a17b78992e3122b4ea41e38628d6d5d8e0715778014b3270029",
  "devdoc": {
    "methods": {
      "allowance(address,address)": {
        "details": "This function makes it easy to read the `allowed[]` map\r",
        "params": {
          "_owner": "The address of the account that owns the token\r",
          "_spender": "The address of the account able to transfer the tokens\r"
        },
        "return": "Amount of remaining tokens of _owner that _spender is allowed\r  to spend\r"
      },
      "approve(address,uint256)": {
        "params": {
          "_amount": "The amount of tokens to be approved for transfer\r",
          "_spender": "The address of the account able to transfer the tokens\r"
        },
        "return": "True if the approval was successful\r"
      },
      "approveAndCall(address,uint256,bytes)": {
        "params": {
          "_amount": "The amount of tokens to be approved for transfer\r",
          "_spender": "The address of the contract able to transfer the tokens\r"
        },
        "return": "True if the function call was successful\r"
      },
      "balanceOf(address)": {
        "params": {
          "_owner": "The address that's balance is being requested\r"
        },
        "return": "The balance of `_owner` at the current block\r"
      },
      "balanceOfAt(address,uint256)": {
        "details": "Queries the balance of `_owner` at a specific `_blockNumber`\r",
        "params": {
          "_blockNumber": "The block number when the balance is queried\r",
          "_owner": "The address from which the balance will be retrieved\r"
        },
        "return": "The balance at `_blockNumber`\r"
      },
      "changeController(address)": {
        "params": {
          "_newController": "The new controller of the contract\r"
        }
      },
      "claimTokens(address)": {
        "params": {
          "_token": "The address of the token contract that you want to recover\r  set to 0 in case you want to extract ether.\r"
        }
      },
      "createCloneToken(string,uint8,string,uint256,bool)": {
        "params": {
          "_cloneDecimalUnits": "Number of decimals of the smallest unit\r",
          "_cloneTokenName": "Name of the clone token\r",
          "_cloneTokenSymbol": "Symbol of the clone token\r",
          "_snapshotBlock": "Block when the distribution of the parent token is\r  copied to set the initial distribution of the new clone token;\r  if the block is zero than the actual block, the current block is used\r",
          "_transfersEnabled": "True if transfers are allowed in the clone\r"
        },
        "return": "The address of the new MiniMeToken Contract\r"
      },
      "destroyTokens(address,uint256)": {
        "params": {
          "_amount": "The quantity of tokens to burn\r",
          "_owner": "The address that will lose the tokens\r"
        },
        "return": "True if the tokens are burned correctly\r"
      },
      "enableTransfers(bool)": {
        "params": {
          "_transfersEnabled": "True if transfers are allowed in the clone\r"
        }
      },
      "generateTokens(address,uint256)": {
        "params": {
          "_amount": "The quantity of tokens generated\r",
          "_owner": "The address that will be assigned the new tokens\r"
        },
        "return": "True if the tokens are generated correctly\r"
      },
      "totalSupply()": {
        "details": "This function makes it easy to get the total number of tokens\r",
        "return": "The total number of tokens\r"
      },
      "totalSupplyAt(uint256)": {
        "params": {
          "_blockNumber": "The block number when the totalSupply is queried\r"
        },
        "return": "The total amount of tokens at `_blockNumber`\r"
      },
      "transfer(address,uint256)": {
        "params": {
          "_amount": "The amount of tokens to be transferred\r",
          "_to": "The address of the recipient\r"
        },
        "return": "Whether the transfer was successful or not\r"
      },
      "transferFrom(address,address,uint256)": {
        "params": {
          "_amount": "The amount of tokens to be transferred\r",
          "_from": "The address holding the tokens being transferred\r",
          "_to": "The address of the recipient\r"
        },
        "return": "True if the transfer was successful\r"
      }
    }
  },
  "userdoc": {
    "methods": {
      "approve(address,uint256)": {
        "notice": "`msg.sender` approves `_spender` to spend `_amount` tokens on\r  its behalf. This is a modified version of the ERC20 approve function\r  to be a little bit safer\r"
      },
      "approveAndCall(address,uint256,bytes)": {
        "notice": "`msg.sender` approves `_spender` to send `_amount` tokens on\r  its behalf, and then a function is triggered in the contract that is\r  being approved, `_spender`. This allows users to use their tokens to\r  interact with contracts in one function call instead of two\r"
      },
      "balanceOfAt(address,uint256)": {
        "notice": "/////////////\r"
      },
      "changeController(address)": {
        "notice": "Changes the controller of the contract\r"
      },
      "claimTokens(address)": {
        "notice": "///////\rThis method can be used by the controller to extract mistakenly\r  sent tokens to this contract.\r"
      },
      "createCloneToken(string,uint8,string,uint256,bool)": {
        "notice": "/////////////\rCreates a new clone token with the initial distribution being\r  this token at `_snapshotBlock`\r"
      },
      "destroyTokens(address,uint256)": {
        "notice": "Burns `_amount` tokens from `_owner`\r"
      },
      "enableTransfers(bool)": {
        "notice": "/////////////\rEnables token holders to transfer their tokens freely if true\r"
      },
      "generateTokens(address,uint256)": {
        "notice": "/////////////\rGenerates `_amount` tokens that are assigned to `_owner`\r"
      },
      "totalSupplyAt(uint256)": {
        "notice": "Total amount of tokens at a specific `_blockNumber`.\r"
      },
      "transfer(address,uint256)": {
        "notice": "////////////////\rSend `_amount` tokens to `_to` from `msg.sender`\r"
      },
      "transferFrom(address,address,uint256)": {
        "notice": "Send `_amount` tokens to `_to` from `_from` on the condition it\r  is approved by `_from`\r"
      }
    }
  }
}