{
	"@aragon/govern-contract-utils/contracts/initializable/Initializable.sol": {
		"Initializable": {
			"abi": [
				{
					"anonymous": false,
					"inputs": [
						{
							"indexed": true,
							"internalType": "string",
							"name": "key",
							"type": "string"
						}
					],
					"name": "Initialized",
					"type": "event"
				},
				{
					"inputs": [
						{
							"internalType": "string",
							"name": "",
							"type": "string"
						}
					],
					"name": "initBlocks",
					"outputs": [
						{
							"internalType": "uint256",
							"name": "",
							"type": "uint256"
						}
					],
					"stateMutability": "view",
					"type": "function"
				}
			],
			"devdoc": {
				"methods": {}
			},
			"evm": {
				"assembly": "    /* \"@aragon/govern-contract-utils/contracts/initializable/Initializable.sol\":67:397  contract Initializable {... */\n  mstore(0x40, 0x80)\n  callvalue\n    /* \"--CODEGEN--\":5:14   */\n  dup1\n    /* \"--CODEGEN--\":2:4   */\n  iszero\n  tag_1\n  jumpi\n    /* \"--CODEGEN--\":27:28   */\n  0x00\n    /* \"--CODEGEN--\":24:25   */\n  dup1\n    /* \"--CODEGEN--\":17:29   */\n  revert\n    /* \"--CODEGEN--\":2:4   */\ntag_1:\n    /* \"@aragon/govern-contract-utils/contracts/initializable/Initializable.sol\":67:397  contract Initializable {... */\n  pop\n  dataSize(sub_0)\n  dup1\n  dataOffset(sub_0)\n  0x00\n  codecopy\n  0x00\n  return\nstop\n\nsub_0: assembly {\n        /* \"@aragon/govern-contract-utils/contracts/initializable/Initializable.sol\":67:397  contract Initializable {... */\n      mstore(0x40, 0x80)\n      callvalue\n        /* \"--CODEGEN--\":5:14   */\n      dup1\n        /* \"--CODEGEN--\":2:4   */\n      iszero\n      tag_1\n      jumpi\n        /* \"--CODEGEN--\":27:28   */\n      0x00\n        /* \"--CODEGEN--\":24:25   */\n      dup1\n        /* \"--CODEGEN--\":17:29   */\n      revert\n        /* \"--CODEGEN--\":2:4   */\n    tag_1:\n        /* \"@aragon/govern-contract-utils/contracts/initializable/Initializable.sol\":67:397  contract Initializable {... */\n      pop\n      jumpi(tag_2, lt(calldatasize, 0x04))\n      shr(0xe0, calldataload(0x00))\n      dup1\n      0xcc1d4cab\n      eq\n      tag_3\n      jumpi\n    tag_2:\n        /* \"--CODEGEN--\":12:13   */\n      0x00\n        /* \"--CODEGEN--\":9:10   */\n      dup1\n        /* \"--CODEGEN--\":2:14   */\n      revert\n        /* \"@aragon/govern-contract-utils/contracts/initializable/Initializable.sol\":96:141  mapping (string => uint256) public initBlocks */\n    tag_3:\n      tag_4\n      0x04\n      dup1\n      calldatasize\n      sub\n        /* \"--CODEGEN--\":15:17   */\n      0x20\n        /* \"--CODEGEN--\":10:13   */\n      dup2\n        /* \"--CODEGEN--\":7:18   */\n      lt\n        /* \"--CODEGEN--\":4:6   */\n      iszero\n      tag_5\n      jumpi\n        /* \"--CODEGEN--\":31:32   */\n      0x00\n        /* \"--CODEGEN--\":28:29   */\n      dup1\n        /* \"--CODEGEN--\":21:33   */\n      revert\n        /* \"--CODEGEN--\":4:6   */\n    tag_5:\n        /* \"@aragon/govern-contract-utils/contracts/initializable/Initializable.sol\":96:141  mapping (string => uint256) public initBlocks */\n      dup2\n      add\n      swap1\n      0x20\n      dup2\n      add\n      dup2\n      calldataload\n        /* \"--CODEGEN--\":27:38   */\n      0x0100000000\n        /* \"--CODEGEN--\":11:39   */\n      dup2\n      gt\n        /* \"--CODEGEN--\":8:10   */\n      iszero\n      tag_6\n      jumpi\n        /* \"--CODEGEN--\":52:53   */\n      0x00\n        /* \"--CODEGEN--\":49:50   */\n      dup1\n        /* \"--CODEGEN--\":42:54   */\n      revert\n        /* \"--CODEGEN--\":8:10   */\n    tag_6:\n        /* \"@aragon/govern-contract-utils/contracts/initializable/Initializable.sol\":96:141  mapping (string => uint256) public initBlocks */\n      dup3\n      add\n        /* \"--CODEGEN--\":41:50   */\n      dup4\n        /* \"--CODEGEN--\":34:38   */\n      0x20\n        /* \"--CODEGEN--\":18:32   */\n      dup3\n        /* \"--CODEGEN--\":14:39   */\n      add\n        /* \"--CODEGEN--\":11:51   */\n      gt\n        /* \"--CODEGEN--\":8:10   */\n      iszero\n      tag_7\n      jumpi\n        /* \"--CODEGEN--\":64:65   */\n      0x00\n        /* \"--CODEGEN--\":61:62   */\n      dup1\n        /* \"--CODEGEN--\":54:66   */\n      revert\n        /* \"--CODEGEN--\":8:10   */\n    tag_7:\n        /* \"@aragon/govern-contract-utils/contracts/initializable/Initializable.sol\":96:141  mapping (string => uint256) public initBlocks */\n      dup1\n      calldataload\n      swap1\n      0x20\n      add\n      swap2\n        /* \"--CODEGEN--\":100:109   */\n      dup5\n        /* \"--CODEGEN--\":95:96   */\n      0x01\n        /* \"--CODEGEN--\":81:93   */\n      dup4\n        /* \"--CODEGEN--\":77:97   */\n      mul\n        /* \"--CODEGEN--\":67:75   */\n      dup5\n        /* \"--CODEGEN--\":63:98   */\n      add\n        /* \"--CODEGEN--\":60:110   */\n      gt\n        /* \"--CODEGEN--\":39:50   */\n      0x0100000000\n        /* \"--CODEGEN--\":25:37   */\n      dup4\n        /* \"--CODEGEN--\":22:51   */\n      gt\n        /* \"--CODEGEN--\":11:118   */\n      or\n        /* \"--CODEGEN--\":8:10   */\n      iszero\n      tag_8\n      jumpi\n        /* \"--CODEGEN--\":131:132   */\n      0x00\n        /* \"--CODEGEN--\":128:129   */\n      dup1\n        /* \"--CODEGEN--\":121:133   */\n      revert\n        /* \"--CODEGEN--\":8:10   */\n    tag_8:\n        /* \"@aragon/govern-contract-utils/contracts/initializable/Initializable.sol\":96:141  mapping (string => uint256) public initBlocks */\n      swap2\n      swap1\n      dup1\n      dup1\n      0x1f\n      add\n      0x20\n      dup1\n      swap2\n      div\n      mul\n      0x20\n      add\n      mload(0x40)\n      swap1\n      dup2\n      add\n      0x40\n      mstore\n      dup1\n      swap4\n      swap3\n      swap2\n      swap1\n      dup2\n      dup2\n      mstore\n      0x20\n      add\n      dup4\n      dup4\n        /* \"--CODEGEN--\":30:33   */\n      dup1\n        /* \"--CODEGEN--\":22:28   */\n      dup3\n        /* \"--CODEGEN--\":14:20   */\n      dup5\n        /* \"--CODEGEN--\":1:34   */\n      calldatacopy\n        /* \"--CODEGEN--\":99:100   */\n      0x00\n        /* \"--CODEGEN--\":81:97   */\n      swap3\n      add\n        /* \"--CODEGEN--\":74:101   */\n      swap2\n      swap1\n      swap2\n      mstore\n      pop\n        /* \"@aragon/govern-contract-utils/contracts/initializable/Initializable.sol\":96:141  mapping (string => uint256) public initBlocks */\n      swap3\n      swap6\n      pop\n      tag_9\n      swap5\n      pop\n      pop\n      pop\n      pop\n      pop\n      jump\t// in\n    tag_4:\n      0x40\n      dup1\n      mload\n      swap2\n      dup3\n      mstore\n      mload\n      swap1\n      dup2\n      swap1\n      sub\n      0x20\n      add\n      swap1\n      return\n    tag_9:\n        /* \"--CODEGEN--\":22:36   */\n      dup1\n      mload\n        /* \"--CODEGEN--\":169:173   */\n      0x20\n        /* \"--CODEGEN--\":143:175   */\n      dup2\n      dup4\n      add\n      dup2\n      add\n        /* \"--CODEGEN--\":198:218   */\n      dup1\n      mload\n        /* \"@aragon/govern-contract-utils/contracts/initializable/Initializable.sol\":96:141  mapping (string => uint256) public initBlocks */\n      0x00\n        /* \"--CODEGEN--\":224:255   */\n      dup3\n      mstore\n        /* \"--CODEGEN--\":156:174   */\n      swap3\n      dup3\n      add\n        /* \"--CODEGEN--\":283:301   */\n      swap2\n      swap1\n      swap4\n      add\n        /* \"--CODEGEN--\":273:322   */\n      keccak256\n        /* \"--CODEGEN--\":328:360   */\n      swap2\n      mstore\n        /* \"@aragon/govern-contract-utils/contracts/initializable/Initializable.sol\":96:141  mapping (string => uint256) public initBlocks */\n      sload\n      dup2\n      jump\t// out\n\n    auxdata: 0xa264697066735822122016e04920fea0d9317aca30d49a2d6d928e66ffc3d915f0de64c3e19b126580ad64736f6c63430006080033\n}\n",
				"bytecode": {
					"linkReferences": {},
					"object": "608060405234801561001057600080fd5b50610132806100206000396000f3fe6080604052348015600f57600080fd5b506004361060285760003560e01c8063cc1d4cab14602d575b600080fd5b60cd60048036036020811015604157600080fd5b810190602081018135640100000000811115605b57600080fd5b820183602082011115606c57600080fd5b80359060200191846001830284011164010000000083111715608d57600080fd5b91908080601f01602080910402602001604051908101604052809392919081815260200183838082843760009201919091525092955060df945050505050565b60408051918252519081900360200190f35b80516020818301810180516000825292820191909301209152548156fea264697066735822122016e04920fea0d9317aca30d49a2d6d928e66ffc3d915f0de64c3e19b126580ad64736f6c63430006080033",
					"opcodes": "PUSH1 0x80 PUSH1 0x40 MSTORE CALLVALUE DUP1 ISZERO PUSH2 0x10 JUMPI PUSH1 0x0 DUP1 REVERT JUMPDEST POP PUSH2 0x132 DUP1 PUSH2 0x20 PUSH1 0x0 CODECOPY PUSH1 0x0 RETURN INVALID PUSH1 0x80 PUSH1 0x40 MSTORE CALLVALUE DUP1 ISZERO PUSH1 0xF JUMPI PUSH1 0x0 DUP1 REVERT JUMPDEST POP PUSH1 0x4 CALLDATASIZE LT PUSH1 0x28 JUMPI PUSH1 0x0 CALLDATALOAD PUSH1 0xE0 SHR DUP1 PUSH4 0xCC1D4CAB EQ PUSH1 0x2D JUMPI JUMPDEST PUSH1 0x0 DUP1 REVERT JUMPDEST PUSH1 0xCD PUSH1 0x4 DUP1 CALLDATASIZE SUB PUSH1 0x20 DUP2 LT ISZERO PUSH1 0x41 JUMPI PUSH1 0x0 DUP1 REVERT JUMPDEST DUP2 ADD SWAP1 PUSH1 0x20 DUP2 ADD DUP2 CALLDATALOAD PUSH5 0x100000000 DUP2 GT ISZERO PUSH1 0x5B JUMPI PUSH1 0x0 DUP1 REVERT JUMPDEST DUP3 ADD DUP4 PUSH1 0x20 DUP3 ADD GT ISZERO PUSH1 0x6C JUMPI PUSH1 0x0 DUP1 REVERT JUMPDEST DUP1 CALLDATALOAD SWAP1 PUSH1 0x20 ADD SWAP2 DUP5 PUSH1 0x1 DUP4 MUL DUP5 ADD GT PUSH5 0x100000000 DUP4 GT OR ISZERO PUSH1 0x8D JUMPI PUSH1 0x0 DUP1 REVERT JUMPDEST SWAP2 SWAP1 DUP1 DUP1 PUSH1 0x1F ADD PUSH1 0x20 DUP1 SWAP2 DIV MUL PUSH1 0x20 ADD PUSH1 0x40 MLOAD SWAP1 DUP2 ADD PUSH1 0x40 MSTORE DUP1 SWAP4 SWAP3 SWAP2 SWAP1 DUP2 DUP2 MSTORE PUSH1 0x20 ADD DUP4 DUP4 DUP1 DUP3 DUP5 CALLDATACOPY PUSH1 0x0 SWAP3 ADD SWAP2 SWAP1 SWAP2 MSTORE POP SWAP3 SWAP6 POP PUSH1 0xDF SWAP5 POP POP POP POP POP JUMP JUMPDEST PUSH1 0x40 DUP1 MLOAD SWAP2 DUP3 MSTORE MLOAD SWAP1 DUP2 SWAP1 SUB PUSH1 0x20 ADD SWAP1 RETURN JUMPDEST DUP1 MLOAD PUSH1 0x20 DUP2 DUP4 ADD DUP2 ADD DUP1 MLOAD PUSH1 0x0 DUP3 MSTORE SWAP3 DUP3 ADD SWAP2 SWAP1 SWAP4 ADD KECCAK256 SWAP2 MSTORE SLOAD DUP2 JUMP INVALID LOG2 PUSH5 0x6970667358 0x22 SLT KECCAK256 AND 0xE0 0x49 KECCAK256 INVALID LOG0 0xD9 BALANCE PUSH27 0xCA30D49A2D6D928E66FFC3D915F0DE64C3E19B126580AD64736F6C PUSH4 0x43000608 STOP CALLER "
				},
				"gasEstimates": {
					"creation": {
						"codeDepositCost": "61200",
						"executionCost": "111",
						"totalCost": "61311"
					},
					"external": {
						"initBlocks(string)": "infinite"
					}
				},
				"methodIdentifiers": {
					"initBlocks(string)": "cc1d4cab"
				}
			},
			"storageLayout": {
				"storage": [
					{
						"astId": 1914,
						"contract": "@aragon/govern-contract-utils/contracts/initializable/Initializable.sol:Initializable",
						"label": "initBlocks",
						"offset": 0,
						"slot": "0",
						"type": "t_mapping(t_string_memory_ptr,t_uint256)"
					}
				],
				"types": {
					"t_mapping(t_string_memory_ptr,t_uint256)": {
						"encoding": "mapping",
						"key": "t_string_memory_ptr",
						"label": "mapping(string => uint256)",
						"numberOfBytes": "32",
						"value": "t_uint256"
					},
					"t_string_memory_ptr": {
						"encoding": "bytes",
						"label": "string",
						"numberOfBytes": "32"
					},
					"t_uint256": {
						"encoding": "inplace",
						"label": "uint256",
						"numberOfBytes": "32"
					}
				}
			},
			"userdoc": {
				"methods": {}
			}
		}
	}
}