{
	".deps/npm/@aragon/govern-core/contracts/pipelines/GovernQueue.sol": {
		"GovernQueue": {
			"abi": [
				{
					"inputs": [
						{
							"internalType": "address",
							"name": "_aclRoot",
							"type": "address"
						},
						{
							"components": [
								{
									"internalType": "uint256",
									"name": "executionDelay",
									"type": "uint256"
								},
								{
									"components": [
										{
											"internalType": "address",
											"name": "token",
											"type": "address"
										},
										{
											"internalType": "uint256",
											"name": "amount",
											"type": "uint256"
										}
									],
									"internalType": "struct ERC3000Data.Collateral",
									"name": "scheduleDeposit",
									"type": "tuple"
								},
								{
									"components": [
										{
											"internalType": "address",
											"name": "token",
											"type": "address"
										},
										{
											"internalType": "uint256",
											"name": "amount",
											"type": "uint256"
										}
									],
									"internalType": "struct ERC3000Data.Collateral",
									"name": "challengeDeposit",
									"type": "tuple"
								},
								{
									"internalType": "address",
									"name": "resolver",
									"type": "address"
								},
								{
									"internalType": "bytes",
									"name": "rules",
									"type": "bytes"
								}
							],
							"internalType": "struct ERC3000Data.Config",
							"name": "_initialConfig",
							"type": "tuple"
						}
					],
					"stateMutability": "nonpayable",
					"type": "constructor"
				},
				{
					"anonymous": false,
					"inputs": [
						{
							"indexed": true,
							"internalType": "bytes32",
							"name": "containerHash",
							"type": "bytes32"
						},
						{
							"indexed": true,
							"internalType": "address",
							"name": "actor",
							"type": "address"
						},
						{
							"indexed": false,
							"internalType": "bytes",
							"name": "reason",
							"type": "bytes"
						},
						{
							"indexed": false,
							"internalType": "uint256",
							"name": "resolverId",
							"type": "uint256"
						},
						{
							"components": [
								{
									"internalType": "address",
									"name": "token",
									"type": "address"
								},
								{
									"internalType": "uint256",
									"name": "amount",
									"type": "uint256"
								}
							],
							"indexed": false,
							"internalType": "struct ERC3000Data.Collateral",
							"name": "collateral",
							"type": "tuple"
						}
					],
					"name": "Challenged",
					"type": "event"
				},
				{
					"anonymous": false,
					"inputs": [
						{
							"indexed": true,
							"internalType": "bytes32",
							"name": "containerHash",
							"type": "bytes32"
						},
						{
							"indexed": true,
							"internalType": "address",
							"name": "actor",
							"type": "address"
						},
						{
							"components": [
								{
									"internalType": "uint256",
									"name": "executionDelay",
									"type": "uint256"
								},
								{
									"components": [
										{
											"internalType": "address",
											"name": "token",
											"type": "address"
										},
										{
											"internalType": "uint256",
											"name": "amount",
											"type": "uint256"
										}
									],
									"internalType": "struct ERC3000Data.Collateral",
									"name": "scheduleDeposit",
									"type": "tuple"
								},
								{
									"components": [
										{
											"internalType": "address",
											"name": "token",
											"type": "address"
										},
										{
											"internalType": "uint256",
											"name": "amount",
											"type": "uint256"
										}
									],
									"internalType": "struct ERC3000Data.Collateral",
									"name": "challengeDeposit",
									"type": "tuple"
								},
								{
									"internalType": "address",
									"name": "resolver",
									"type": "address"
								},
								{
									"internalType": "bytes",
									"name": "rules",
									"type": "bytes"
								}
							],
							"indexed": false,
							"internalType": "struct ERC3000Data.Config",
							"name": "config",
							"type": "tuple"
						}
					],
					"name": "Configured",
					"type": "event"
				},
				{
					"anonymous": false,
					"inputs": [
						{
							"indexed": true,
							"internalType": "contract IArbitrator",
							"name": "arbitrator",
							"type": "address"
						},
						{
							"indexed": true,
							"internalType": "uint256",
							"name": "disputeId",
							"type": "uint256"
						},
						{
							"indexed": true,
							"internalType": "address",
							"name": "submitter",
							"type": "address"
						},
						{
							"indexed": false,
							"internalType": "bytes",
							"name": "evidence",
							"type": "bytes"
						},
						{
							"indexed": false,
							"internalType": "bool",
							"name": "finished",
							"type": "bool"
						}
					],
					"name": "EvidenceSubmitted",
					"type": "event"
				},
				{
					"anonymous": false,
					"inputs": [
						{
							"indexed": true,
							"internalType": "bytes32",
							"name": "containerHash",
							"type": "bytes32"
						},
						{
							"indexed": true,
							"internalType": "address",
							"name": "actor",
							"type": "address"
						}
					],
					"name": "Executed",
					"type": "event"
				},
				{
					"anonymous": false,
					"inputs": [
						{
							"indexed": true,
							"internalType": "bytes4",
							"name": "role",
							"type": "bytes4"
						},
						{
							"indexed": true,
							"internalType": "address",
							"name": "actor",
							"type": "address"
						}
					],
					"name": "Frozen",
					"type": "event"
				},
				{
					"anonymous": false,
					"inputs": [
						{
							"indexed": true,
							"internalType": "bytes4",
							"name": "role",
							"type": "bytes4"
						},
						{
							"indexed": true,
							"internalType": "address",
							"name": "actor",
							"type": "address"
						},
						{
							"indexed": true,
							"internalType": "address",
							"name": "who",
							"type": "address"
						},
						{
							"indexed": false,
							"internalType": "contract IACLOracle",
							"name": "oracle",
							"type": "address"
						}
					],
					"name": "Granted",
					"type": "event"
				},
				{
					"anonymous": false,
					"inputs": [
						{
							"indexed": true,
							"internalType": "string",
							"name": "key",
							"type": "string"
						}
					],
					"name": "Initialized",
					"type": "event"
				},
				{
					"anonymous": false,
					"inputs": [
						{
							"indexed": true,
							"internalType": "bytes4",
							"name": "sig",
							"type": "bytes4"
						},
						{
							"indexed": false,
							"internalType": "bytes",
							"name": "data",
							"type": "bytes"
						}
					],
					"name": "ReceivedCallback",
					"type": "event"
				},
				{
					"anonymous": false,
					"inputs": [
						{
							"indexed": false,
							"internalType": "bytes4",
							"name": "sig",
							"type": "bytes4"
						},
						{
							"indexed": false,
							"internalType": "bytes4",
							"name": "magicNumber",
							"type": "bytes4"
						}
					],
					"name": "RegisteredCallback",
					"type": "event"
				},
				{
					"anonymous": false,
					"inputs": [
						{
							"indexed": false,
							"internalType": "bytes4",
							"name": "interfaceId",
							"type": "bytes4"
						}
					],
					"name": "RegisteredStandard",
					"type": "event"
				},
				{
					"anonymous": false,
					"inputs": [
						{
							"indexed": true,
							"internalType": "bytes32",
							"name": "containerHash",
							"type": "bytes32"
						},
						{
							"indexed": true,
							"internalType": "address",
							"name": "actor",
							"type": "address"
						},
						{
							"indexed": false,
							"internalType": "bool",
							"name": "approved",
							"type": "bool"
						}
					],
					"name": "Resolved",
					"type": "event"
				},
				{
					"anonymous": false,
					"inputs": [
						{
							"indexed": true,
							"internalType": "bytes4",
							"name": "role",
							"type": "bytes4"
						},
						{
							"indexed": true,
							"internalType": "address",
							"name": "actor",
							"type": "address"
						},
						{
							"indexed": true,
							"internalType": "address",
							"name": "who",
							"type": "address"
						}
					],
					"name": "Revoked",
					"type": "event"
				},
				{
					"anonymous": false,
					"inputs": [
						{
							"indexed": true,
							"internalType": "contract IArbitrator",
							"name": "arbitrator",
							"type": "address"
						},
						{
							"indexed": true,
							"internalType": "uint256",
							"name": "disputeId",
							"type": "uint256"
						},
						{
							"indexed": false,
							"internalType": "uint256",
							"name": "ruling",
							"type": "uint256"
						}
					],
					"name": "Ruled",
					"type": "event"
				},
				{
					"anonymous": false,
					"inputs": [
						{
							"indexed": true,
							"internalType": "bytes32",
							"name": "containerHash",
							"type": "bytes32"
						},
						{
							"components": [
								{
									"internalType": "uint256",
									"name": "nonce",
									"type": "uint256"
								},
								{
									"internalType": "uint256",
									"name": "executionTime",
									"type": "uint256"
								},
								{
									"internalType": "address",
									"name": "submitter",
									"type": "address"
								},
								{
									"internalType": "contract IERC3000Executor",
									"name": "executor",
									"type": "address"
								},
								{
									"components": [
										{
											"internalType": "address",
											"name": "to",
											"type": "address"
										},
										{
											"internalType": "uint256",
											"name": "value",
											"type": "uint256"
										},
										{
											"internalType": "bytes",
											"name": "data",
											"type": "bytes"
										}
									],
									"internalType": "struct ERC3000Data.Action[]",
									"name": "actions",
									"type": "tuple[]"
								},
								{
									"internalType": "bytes32",
									"name": "allowFailuresMap",
									"type": "bytes32"
								},
								{
									"internalType": "bytes",
									"name": "proof",
									"type": "bytes"
								}
							],
							"indexed": false,
							"internalType": "struct ERC3000Data.Payload",
							"name": "payload",
							"type": "tuple"
						}
					],
					"name": "Scheduled",
					"type": "event"
				},
				{
					"anonymous": false,
					"inputs": [
						{
							"indexed": true,
							"internalType": "bytes32",
							"name": "containerHash",
							"type": "bytes32"
						},
						{
							"indexed": true,
							"internalType": "address",
							"name": "actor",
							"type": "address"
						},
						{
							"indexed": false,
							"internalType": "bytes",
							"name": "reason",
							"type": "bytes"
						}
					],
					"name": "Vetoed",
					"type": "event"
				},
				{
					"inputs": [],
					"name": "ROOT_ROLE",
					"outputs": [
						{
							"internalType": "bytes4",
							"name": "",
							"type": "bytes4"
						}
					],
					"stateMutability": "view",
					"type": "function"
				},
				{
					"inputs": [
						{
							"components": [
								{
									"internalType": "enum ACLData.BulkOp",
									"name": "op",
									"type": "uint8"
								},
								{
									"internalType": "bytes4",
									"name": "role",
									"type": "bytes4"
								},
								{
									"internalType": "address",
									"name": "who",
									"type": "address"
								}
							],
							"internalType": "struct ACLData.BulkItem[]",
							"name": "items",
							"type": "tuple[]"
						}
					],
					"name": "bulk",
					"outputs": [],
					"stateMutability": "nonpayable",
					"type": "function"
				},
				{
					"inputs": [
						{
							"components": [
								{
									"components": [
										{
											"internalType": "uint256",
											"name": "nonce",
											"type": "uint256"
										},
										{
											"internalType": "uint256",
											"name": "executionTime",
											"type": "uint256"
										},
										{
											"internalType": "address",
											"name": "submitter",
											"type": "address"
										},
										{
											"internalType": "contract IERC3000Executor",
											"name": "executor",
											"type": "address"
										},
										{
											"components": [
												{
													"internalType": "address",
													"name": "to",
													"type": "address"
												},
												{
													"internalType": "uint256",
													"name": "value",
													"type": "uint256"
												},
												{
													"internalType": "bytes",
													"name": "data",
													"type": "bytes"
												}
											],
											"internalType": "struct ERC3000Data.Action[]",
											"name": "actions",
											"type": "tuple[]"
										},
										{
											"internalType": "bytes32",
											"name": "allowFailuresMap",
											"type": "bytes32"
										},
										{
											"internalType": "bytes",
											"name": "proof",
											"type": "bytes"
										}
									],
									"internalType": "struct ERC3000Data.Payload",
									"name": "payload",
									"type": "tuple"
								},
								{
									"components": [
										{
											"internalType": "uint256",
											"name": "executionDelay",
											"type": "uint256"
										},
										{
											"components": [
												{
													"internalType": "address",
													"name": "token",
													"type": "address"
												},
												{
													"internalType": "uint256",
													"name": "amount",
													"type": "uint256"
												}
											],
											"internalType": "struct ERC3000Data.Collateral",
											"name": "scheduleDeposit",
											"type": "tuple"
										},
										{
											"components": [
												{
													"internalType": "address",
													"name": "token",
													"type": "address"
												},
												{
													"internalType": "uint256",
													"name": "amount",
													"type": "uint256"
												}
											],
											"internalType": "struct ERC3000Data.Collateral",
											"name": "challengeDeposit",
											"type": "tuple"
										},
										{
											"internalType": "address",
											"name": "resolver",
											"type": "address"
										},
										{
											"internalType": "bytes",
											"name": "rules",
											"type": "bytes"
										}
									],
									"internalType": "struct ERC3000Data.Config",
									"name": "config",
									"type": "tuple"
								}
							],
							"internalType": "struct ERC3000Data.Container",
							"name": "_container",
							"type": "tuple"
						},
						{
							"internalType": "bytes",
							"name": "_reason",
							"type": "bytes"
						}
					],
					"name": "challenge",
					"outputs": [
						{
							"internalType": "uint256",
							"name": "disputeId",
							"type": "uint256"
						}
					],
					"stateMutability": "nonpayable",
					"type": "function"
				},
				{
					"inputs": [
						{
							"internalType": "bytes32",
							"name": "",
							"type": "bytes32"
						}
					],
					"name": "challengerCache",
					"outputs": [
						{
							"internalType": "address",
							"name": "",
							"type": "address"
						}
					],
					"stateMutability": "view",
					"type": "function"
				},
				{
					"inputs": [],
					"name": "configHash",
					"outputs": [
						{
							"internalType": "bytes32",
							"name": "",
							"type": "bytes32"
						}
					],
					"stateMutability": "view",
					"type": "function"
				},
				{
					"inputs": [
						{
							"components": [
								{
									"internalType": "uint256",
									"name": "executionDelay",
									"type": "uint256"
								},
								{
									"components": [
										{
											"internalType": "address",
											"name": "token",
											"type": "address"
										},
										{
											"internalType": "uint256",
											"name": "amount",
											"type": "uint256"
										}
									],
									"internalType": "struct ERC3000Data.Collateral",
									"name": "scheduleDeposit",
									"type": "tuple"
								},
								{
									"components": [
										{
											"internalType": "address",
											"name": "token",
											"type": "address"
										},
										{
											"internalType": "uint256",
											"name": "amount",
											"type": "uint256"
										}
									],
									"internalType": "struct ERC3000Data.Collateral",
									"name": "challengeDeposit",
									"type": "tuple"
								},
								{
									"internalType": "address",
									"name": "resolver",
									"type": "address"
								},
								{
									"internalType": "bytes",
									"name": "rules",
									"type": "bytes"
								}
							],
							"internalType": "struct ERC3000Data.Config",
							"name": "_config",
							"type": "tuple"
						}
					],
					"name": "configure",
					"outputs": [
						{
							"internalType": "bytes32",
							"name": "",
							"type": "bytes32"
						}
					],
					"stateMutability": "nonpayable",
					"type": "function"
				},
				{
					"inputs": [
						{
							"internalType": "contract IArbitrator",
							"name": "",
							"type": "address"
						},
						{
							"internalType": "uint256",
							"name": "",
							"type": "uint256"
						}
					],
					"name": "disputeItemCache",
					"outputs": [
						{
							"internalType": "bytes32",
							"name": "",
							"type": "bytes32"
						}
					],
					"stateMutability": "view",
					"type": "function"
				},
				{
					"inputs": [
						{
							"components": [
								{
									"components": [
										{
											"internalType": "uint256",
											"name": "nonce",
											"type": "uint256"
										},
										{
											"internalType": "uint256",
											"name": "executionTime",
											"type": "uint256"
										},
										{
											"internalType": "address",
											"name": "submitter",
											"type": "address"
										},
										{
											"internalType": "contract IERC3000Executor",
											"name": "executor",
											"type": "address"
										},
										{
											"components": [
												{
													"internalType": "address",
													"name": "to",
													"type": "address"
												},
												{
													"internalType": "uint256",
													"name": "value",
													"type": "uint256"
												},
												{
													"internalType": "bytes",
													"name": "data",
													"type": "bytes"
												}
											],
											"internalType": "struct ERC3000Data.Action[]",
											"name": "actions",
											"type": "tuple[]"
										},
										{
											"internalType": "bytes32",
											"name": "allowFailuresMap",
											"type": "bytes32"
										},
										{
											"internalType": "bytes",
											"name": "proof",
											"type": "bytes"
										}
									],
									"internalType": "struct ERC3000Data.Payload",
									"name": "payload",
									"type": "tuple"
								},
								{
									"components": [
										{
											"internalType": "uint256",
											"name": "executionDelay",
											"type": "uint256"
										},
										{
											"components": [
												{
													"internalType": "address",
													"name": "token",
													"type": "address"
												},
												{
													"internalType": "uint256",
													"name": "amount",
													"type": "uint256"
												}
											],
											"internalType": "struct ERC3000Data.Collateral",
											"name": "scheduleDeposit",
											"type": "tuple"
										},
										{
											"components": [
												{
													"internalType": "address",
													"name": "token",
													"type": "address"
												},
												{
													"internalType": "uint256",
													"name": "amount",
													"type": "uint256"
												}
											],
											"internalType": "struct ERC3000Data.Collateral",
											"name": "challengeDeposit",
											"type": "tuple"
										},
										{
											"internalType": "address",
											"name": "resolver",
											"type": "address"
										},
										{
											"internalType": "bytes",
											"name": "rules",
											"type": "bytes"
										}
									],
									"internalType": "struct ERC3000Data.Config",
									"name": "config",
									"type": "tuple"
								}
							],
							"internalType": "struct ERC3000Data.Container",
							"name": "_container",
							"type": "tuple"
						}
					],
					"name": "execute",
					"outputs": [
						{
							"internalType": "bytes32",
							"name": "failureMap",
							"type": "bytes32"
						},
						{
							"internalType": "bytes[]",
							"name": "execResults",
							"type": "bytes[]"
						}
					],
					"stateMutability": "nonpayable",
					"type": "function"
				},
				{
					"inputs": [
						{
							"components": [
								{
									"components": [
										{
											"internalType": "uint256",
											"name": "nonce",
											"type": "uint256"
										},
										{
											"internalType": "uint256",
											"name": "executionTime",
											"type": "uint256"
										},
										{
											"internalType": "address",
											"name": "submitter",
											"type": "address"
										},
										{
											"internalType": "contract IERC3000Executor",
											"name": "executor",
											"type": "address"
										},
										{
											"components": [
												{
													"internalType": "address",
													"name": "to",
													"type": "address"
												},
												{
													"internalType": "uint256",
													"name": "value",
													"type": "uint256"
												},
												{
													"internalType": "bytes",
													"name": "data",
													"type": "bytes"
												}
											],
											"internalType": "struct ERC3000Data.Action[]",
											"name": "actions",
											"type": "tuple[]"
										},
										{
											"internalType": "bytes32",
											"name": "allowFailuresMap",
											"type": "bytes32"
										},
										{
											"internalType": "bytes",
											"name": "proof",
											"type": "bytes"
										}
									],
									"internalType": "struct ERC3000Data.Payload",
									"name": "payload",
									"type": "tuple"
								},
								{
									"components": [
										{
											"internalType": "uint256",
											"name": "executionDelay",
											"type": "uint256"
										},
										{
											"components": [
												{
													"internalType": "address",
													"name": "token",
													"type": "address"
												},
												{
													"internalType": "uint256",
													"name": "amount",
													"type": "uint256"
												}
											],
											"internalType": "struct ERC3000Data.Collateral",
											"name": "scheduleDeposit",
											"type": "tuple"
										},
										{
											"components": [
												{
													"internalType": "address",
													"name": "token",
													"type": "address"
												},
												{
													"internalType": "uint256",
													"name": "amount",
													"type": "uint256"
												}
											],
											"internalType": "struct ERC3000Data.Collateral",
											"name": "challengeDeposit",
											"type": "tuple"
										},
										{
											"internalType": "address",
											"name": "resolver",
											"type": "address"
										},
										{
											"internalType": "bytes",
											"name": "rules",
											"type": "bytes"
										}
									],
									"internalType": "struct ERC3000Data.Config",
									"name": "config",
									"type": "tuple"
								}
							],
							"internalType": "struct ERC3000Data.Container",
							"name": "_container",
							"type": "tuple"
						}
					],
					"name": "executeApproved",
					"outputs": [
						{
							"internalType": "bytes32",
							"name": "failureMap",
							"type": "bytes32"
						},
						{
							"internalType": "bytes[]",
							"name": "execResults",
							"type": "bytes[]"
						}
					],
					"stateMutability": "nonpayable",
					"type": "function"
				},
				{
					"inputs": [
						{
							"internalType": "bytes4",
							"name": "_role",
							"type": "bytes4"
						}
					],
					"name": "freeze",
					"outputs": [],
					"stateMutability": "nonpayable",
					"type": "function"
				},
				{
					"inputs": [
						{
							"internalType": "bytes4",
							"name": "_role",
							"type": "bytes4"
						},
						{
							"internalType": "address",
							"name": "_who",
							"type": "address"
						}
					],
					"name": "grant",
					"outputs": [],
					"stateMutability": "nonpayable",
					"type": "function"
				},
				{
					"inputs": [
						{
							"internalType": "bytes4",
							"name": "_role",
							"type": "bytes4"
						},
						{
							"internalType": "address",
							"name": "_who",
							"type": "address"
						},
						{
							"internalType": "contract IACLOracle",
							"name": "_oracle",
							"type": "address"
						}
					],
					"name": "grantWithOracle",
					"outputs": [],
					"stateMutability": "nonpayable",
					"type": "function"
				},
				{
					"inputs": [
						{
							"internalType": "string",
							"name": "",
							"type": "string"
						}
					],
					"name": "initBlocks",
					"outputs": [
						{
							"internalType": "uint256",
							"name": "",
							"type": "uint256"
						}
					],
					"stateMutability": "view",
					"type": "function"
				},
				{
					"inputs": [
						{
							"internalType": "address",
							"name": "_aclRoot",
							"type": "address"
						},
						{
							"components": [
								{
									"internalType": "uint256",
									"name": "executionDelay",
									"type": "uint256"
								},
								{
									"components": [
										{
											"internalType": "address",
											"name": "token",
											"type": "address"
										},
										{
											"internalType": "uint256",
											"name": "amount",
											"type": "uint256"
										}
									],
									"internalType": "struct ERC3000Data.Collateral",
									"name": "scheduleDeposit",
									"type": "tuple"
								},
								{
									"components": [
										{
											"internalType": "address",
											"name": "token",
											"type": "address"
										},
										{
											"internalType": "uint256",
											"name": "amount",
											"type": "uint256"
										}
									],
									"internalType": "struct ERC3000Data.Collateral",
									"name": "challengeDeposit",
									"type": "tuple"
								},
								{
									"internalType": "address",
									"name": "resolver",
									"type": "address"
								},
								{
									"internalType": "bytes",
									"name": "rules",
									"type": "bytes"
								}
							],
							"internalType": "struct ERC3000Data.Config",
							"name": "_initialConfig",
							"type": "tuple"
						}
					],
					"name": "initialize",
					"outputs": [],
					"stateMutability": "nonpayable",
					"type": "function"
				},
				{
					"inputs": [
						{
							"internalType": "bytes4",
							"name": "_role",
							"type": "bytes4"
						}
					],
					"name": "isFrozen",
					"outputs": [
						{
							"internalType": "bool",
							"name": "",
							"type": "bool"
						}
					],
					"stateMutability": "view",
					"type": "function"
				},
				{
					"inputs": [],
					"name": "nonce",
					"outputs": [
						{
							"internalType": "uint256",
							"name": "",
							"type": "uint256"
						}
					],
					"stateMutability": "view",
					"type": "function"
				},
				{
					"inputs": [
						{
							"internalType": "bytes32",
							"name": "",
							"type": "bytes32"
						}
					],
					"name": "queue",
					"outputs": [
						{
							"internalType": "enum GovernQueueStateLib.State",
							"name": "state",
							"type": "uint8"
						}
					],
					"stateMutability": "view",
					"type": "function"
				},
				{
					"inputs": [
						{
							"components": [
								{
									"components": [
										{
											"internalType": "uint256",
											"name": "nonce",
											"type": "uint256"
										},
										{
											"internalType": "uint256",
											"name": "executionTime",
											"type": "uint256"
										},
										{
											"internalType": "address",
											"name": "submitter",
											"type": "address"
										},
										{
											"internalType": "contract IERC3000Executor",
											"name": "executor",
											"type": "address"
										},
										{
											"components": [
												{
													"internalType": "address",
													"name": "to",
													"type": "address"
												},
												{
													"internalType": "uint256",
													"name": "value",
													"type": "uint256"
												},
												{
													"internalType": "bytes",
													"name": "data",
													"type": "bytes"
												}
											],
											"internalType": "struct ERC3000Data.Action[]",
											"name": "actions",
											"type": "tuple[]"
										},
										{
											"internalType": "bytes32",
											"name": "allowFailuresMap",
											"type": "bytes32"
										},
										{
											"internalType": "bytes",
											"name": "proof",
											"type": "bytes"
										}
									],
									"internalType": "struct ERC3000Data.Payload",
									"name": "payload",
									"type": "tuple"
								},
								{
									"components": [
										{
											"internalType": "uint256",
											"name": "executionDelay",
											"type": "uint256"
										},
										{
											"components": [
												{
													"internalType": "address",
													"name": "token",
													"type": "address"
												},
												{
													"internalType": "uint256",
													"name": "amount",
													"type": "uint256"
												}
											],
											"internalType": "struct ERC3000Data.Collateral",
											"name": "scheduleDeposit",
											"type": "tuple"
										},
										{
											"components": [
												{
													"internalType": "address",
													"name": "token",
													"type": "address"
												},
												{
													"internalType": "uint256",
													"name": "amount",
													"type": "uint256"
												}
											],
											"internalType": "struct ERC3000Data.Collateral",
											"name": "challengeDeposit",
											"type": "tuple"
										},
										{
											"internalType": "address",
											"name": "resolver",
											"type": "address"
										},
										{
											"internalType": "bytes",
											"name": "rules",
											"type": "bytes"
										}
									],
									"internalType": "struct ERC3000Data.Config",
									"name": "config",
									"type": "tuple"
								}
							],
							"internalType": "struct ERC3000Data.Container",
							"name": "_container",
							"type": "tuple"
						},
						{
							"internalType": "uint256",
							"name": "_disputeId",
							"type": "uint256"
						}
					],
					"name": "resolve",
					"outputs": [
						{
							"internalType": "bytes32",
							"name": "failureMap",
							"type": "bytes32"
						},
						{
							"internalType": "bytes[]",
							"name": "execResults",
							"type": "bytes[]"
						}
					],
					"stateMutability": "nonpayable",
					"type": "function"
				},
				{
					"inputs": [
						{
							"internalType": "bytes4",
							"name": "_role",
							"type": "bytes4"
						},
						{
							"internalType": "address",
							"name": "_who",
							"type": "address"
						}
					],
					"name": "revoke",
					"outputs": [],
					"stateMutability": "nonpayable",
					"type": "function"
				},
				{
					"inputs": [
						{
							"internalType": "bytes4",
							"name": "",
							"type": "bytes4"
						},
						{
							"internalType": "address",
							"name": "",
							"type": "address"
						}
					],
					"name": "roles",
					"outputs": [
						{
							"internalType": "address",
							"name": "",
							"type": "address"
						}
					],
					"stateMutability": "view",
					"type": "function"
				},
				{
					"inputs": [
						{
							"internalType": "uint256",
							"name": "_disputeId",
							"type": "uint256"
						},
						{
							"internalType": "uint256",
							"name": "_ruling",
							"type": "uint256"
						}
					],
					"name": "rule",
					"outputs": [],
					"stateMutability": "nonpayable",
					"type": "function"
				},
				{
					"inputs": [
						{
							"components": [
								{
									"components": [
										{
											"internalType": "uint256",
											"name": "nonce",
											"type": "uint256"
										},
										{
											"internalType": "uint256",
											"name": "executionTime",
											"type": "uint256"
										},
										{
											"internalType": "address",
											"name": "submitter",
											"type": "address"
										},
										{
											"internalType": "contract IERC3000Executor",
											"name": "executor",
											"type": "address"
										},
										{
											"components": [
												{
													"internalType": "address",
													"name": "to",
													"type": "address"
												},
												{
													"internalType": "uint256",
													"name": "value",
													"type": "uint256"
												},
												{
													"internalType": "bytes",
													"name": "data",
													"type": "bytes"
												}
											],
											"internalType": "struct ERC3000Data.Action[]",
											"name": "actions",
											"type": "tuple[]"
										},
										{
											"internalType": "bytes32",
											"name": "allowFailuresMap",
											"type": "bytes32"
										},
										{
											"internalType": "bytes",
											"name": "proof",
											"type": "bytes"
										}
									],
									"internalType": "struct ERC3000Data.Payload",
									"name": "payload",
									"type": "tuple"
								},
								{
									"components": [
										{
											"internalType": "uint256",
											"name": "executionDelay",
											"type": "uint256"
										},
										{
											"components": [
												{
													"internalType": "address",
													"name": "token",
													"type": "address"
												},
												{
													"internalType": "uint256",
													"name": "amount",
													"type": "uint256"
												}
											],
											"internalType": "struct ERC3000Data.Collateral",
											"name": "scheduleDeposit",
											"type": "tuple"
										},
										{
											"components": [
												{
													"internalType": "address",
													"name": "token",
													"type": "address"
												},
												{
													"internalType": "uint256",
													"name": "amount",
													"type": "uint256"
												}
											],
											"internalType": "struct ERC3000Data.Collateral",
											"name": "challengeDeposit",
											"type": "tuple"
										},
										{
											"internalType": "address",
											"name": "resolver",
											"type": "address"
										},
										{
											"internalType": "bytes",
											"name": "rules",
											"type": "bytes"
										}
									],
									"internalType": "struct ERC3000Data.Config",
									"name": "config",
									"type": "tuple"
								}
							],
							"internalType": "struct ERC3000Data.Container",
							"name": "_container",
							"type": "tuple"
						}
					],
					"name": "schedule",
					"outputs": [
						{
							"internalType": "bytes32",
							"name": "containerHash",
							"type": "bytes32"
						}
					],
					"stateMutability": "nonpayable",
					"type": "function"
				},
				{
					"inputs": [
						{
							"components": [
								{
									"components": [
										{
											"internalType": "uint256",
											"name": "nonce",
											"type": "uint256"
										},
										{
											"internalType": "uint256",
											"name": "executionTime",
											"type": "uint256"
										},
										{
											"internalType": "address",
											"name": "submitter",
											"type": "address"
										},
										{
											"internalType": "contract IERC3000Executor",
											"name": "executor",
											"type": "address"
										},
										{
											"components": [
												{
													"internalType": "address",
													"name": "to",
													"type": "address"
												},
												{
													"internalType": "uint256",
													"name": "value",
													"type": "uint256"
												},
												{
													"internalType": "bytes",
													"name": "data",
													"type": "bytes"
												}
											],
											"internalType": "struct ERC3000Data.Action[]",
											"name": "actions",
											"type": "tuple[]"
										},
										{
											"internalType": "bytes32",
											"name": "allowFailuresMap",
											"type": "bytes32"
										},
										{
											"internalType": "bytes",
											"name": "proof",
											"type": "bytes"
										}
									],
									"internalType": "struct ERC3000Data.Payload",
									"name": "payload",
									"type": "tuple"
								},
								{
									"components": [
										{
											"internalType": "uint256",
											"name": "executionDelay",
											"type": "uint256"
										},
										{
											"components": [
												{
													"internalType": "address",
													"name": "token",
													"type": "address"
												},
												{
													"internalType": "uint256",
													"name": "amount",
													"type": "uint256"
												}
											],
											"internalType": "struct ERC3000Data.Collateral",
											"name": "scheduleDeposit",
											"type": "tuple"
										},
										{
											"components": [
												{
													"internalType": "address",
													"name": "token",
													"type": "address"
												},
												{
													"internalType": "uint256",
													"name": "amount",
													"type": "uint256"
												}
											],
											"internalType": "struct ERC3000Data.Collateral",
											"name": "challengeDeposit",
											"type": "tuple"
										},
										{
											"internalType": "address",
											"name": "resolver",
											"type": "address"
										},
										{
											"internalType": "bytes",
											"name": "rules",
											"type": "bytes"
										}
									],
									"internalType": "struct ERC3000Data.Config",
									"name": "config",
									"type": "tuple"
								}
							],
							"internalType": "struct ERC3000Data.Container",
							"name": "_container",
							"type": "tuple"
						}
					],
					"name": "settleRejection",
					"outputs": [],
					"stateMutability": "nonpayable",
					"type": "function"
				},
				{
					"inputs": [
						{
							"internalType": "uint256",
							"name": "",
							"type": "uint256"
						},
						{
							"internalType": "bytes",
							"name": "",
							"type": "bytes"
						},
						{
							"internalType": "bool",
							"name": "",
							"type": "bool"
						}
					],
					"name": "submitEvidence",
					"outputs": [],
					"stateMutability": "nonpayable",
					"type": "function"
				},
				{
					"inputs": [
						{
							"internalType": "bytes4",
							"name": "_interfaceId",
							"type": "bytes4"
						}
					],
					"name": "supportsInterface",
					"outputs": [
						{
							"internalType": "bool",
							"name": "",
							"type": "bool"
						}
					],
					"stateMutability": "view",
					"type": "function"
				},
				{
					"inputs": [
						{
							"internalType": "bytes32",
							"name": "_containerHash",
							"type": "bytes32"
						},
						{
							"internalType": "bytes",
							"name": "_reason",
							"type": "bytes"
						}
					],
					"name": "veto",
					"outputs": [],
					"stateMutability": "nonpayable",
					"type": "function"
				},
				{
					"inputs": [
						{
							"internalType": "bytes4",
							"name": "_role",
							"type": "bytes4"
						},
						{
							"internalType": "address",
							"name": "_sender",
							"type": "address"
						},
						{
							"internalType": "bytes",
							"name": "_data",
							"type": "bytes"
						}
					],
					"name": "willPerform",
					"outputs": [
						{
							"internalType": "bool",
							"name": "",
							"type": "bool"
						}
					],
					"stateMutability": "nonpayable",
					"type": "function"
				}
			],
			"devdoc": {
				"methods": {
					"challenge(((uint256,uint256,address,address,(address,uint256,bytes)[],bytes32,bytes),(uint256,(address,uint256),(address,uint256),address,bytes)),bytes)": {
						"params": {
							"_container": "A ERC3000Data.Container struct holding both the paylaod being scheduled for execution and the current configuration of the system",
							"_reason": "Hint for case reviewers as to why the scheduled container is illegal"
						}
					},
					"configure((uint256,(address,uint256),(address,uint256),address,bytes))": {
						"params": {
							"_config": "A ERC3000Data.Config struct holding all the new params that will control the queue"
						}
					},
					"constructor": {
						"params": {
							"_aclRoot": "account that will be given root permissions on ACL (commonly given to factory)",
							"_initialConfig": "initial configuration parameters"
						}
					},
					"execute(((uint256,uint256,address,address,(address,uint256,bytes)[],bytes32,bytes),(uint256,(address,uint256),(address,uint256),address,bytes)))": {
						"params": {
							"_container": "A ERC3000Data.Container struct holding both the paylaod being scheduled for execution and the current configuration of the system"
						}
					},
					"resolve(((uint256,uint256,address,address,(address,uint256,bytes)[],bytes32,bytes),(uint256,(address,uint256),(address,uint256),address,bytes)),uint256)": {
						"params": {
							"_container": "A ERC3000Data.Container struct holding both the paylaod being scheduled for execution and the current configuration of the system",
							"_disputeId": "disputeId in the arbitrator in which the dispute over the container was created"
						}
					},
					"schedule(((uint256,uint256,address,address,(address,uint256,bytes)[],bytes32,bytes),(uint256,(address,uint256),(address,uint256),address,bytes)))": {
						"params": {
							"_container": "A ERC3000Data.Container struct holding both the paylaod being scheduled for execution and the current configuration of the system"
						}
					}
				}
			},
			"evm": {
				"assembly": "    /* \".deps/npm/@aragon/govern-core/contracts/pipelines/GovernQueue.sol\":1317:14613  contract GovernQueue is IERC3000, AdaptativeERC165, IArbitrable, ACL {... */\n  mstore(0x40, 0x80)\n    /* \".deps/npm/@aragon/govern-core/contracts/pipelines/GovernQueue.sol\":2433:2714  constructor(address _aclRoot, ERC3000Data.Config memory _initialConfig)... */\n  callvalue\n    /* \"--CODEGEN--\":5:14   */\n  dup1\n    /* \"--CODEGEN--\":2:4   */\n  iszero\n  tag_1\n  jumpi\n    /* \"--CODEGEN--\":27:28   */\n  0x00\n    /* \"--CODEGEN--\":24:25   */\n  dup1\n    /* \"--CODEGEN--\":17:29   */\n  revert\n    /* \"--CODEGEN--\":2:4   */\ntag_1:\n    /* \".deps/npm/@aragon/govern-core/contracts/pipelines/GovernQueue.sol\":2433:2714  constructor(address _aclRoot, ERC3000Data.Config memory _initialConfig)... */\n  pop\n  mload(0x40)\n  sub(codesize, bytecodeSize)\n  dup1\n  bytecodeSize\n  dup4\n  codecopy\n  dup2\n  add\n  0x40\n  dup2\n  swap1\n  mstore\n  tag_2\n  swap2\n  jump(tag_3)\ntag_2:\n    /* \".deps/npm/@aragon/govern-core/contracts/pipelines/GovernQueue.sol\":2532:2540  _aclRoot */\n  dup2\n    /* \"@aragon/govern-contract-utils/contracts/acl/ACL.sol\":1470:1482  _initialRoot */\n  dup1\n    /* \"@aragon/govern-contract-utils/contracts/acl/ACL.sol\":1321:1331  initBlocks */\n  0x02\n    /* \"@aragon/govern-contract-utils/contracts/acl/ACL.sol\":1321:1338  initBlocks[\"acl\"] */\n  mload(0x40)\n  tag_7\n  swap1\n  jump(tag_8)\ntag_7:\n  swap1\n  dup2\n  mstore\n  0x20\n  add\n  mload(0x40)\n  dup1\n  swap2\n  sub\n  swap1\n  keccak256\n  sload\n    /* \"@aragon/govern-contract-utils/contracts/acl/ACL.sol\":1342:1343  0 */\n  0x00\n    /* \"@aragon/govern-contract-utils/contracts/acl/ACL.sol\":1321:1343  initBlocks[\"acl\"] == 0 */\n  eq\n    /* \"@aragon/govern-contract-utils/contracts/acl/ACL.sol\":1317:1398  if (initBlocks[\"acl\"] == 0) {... */\n  iszero\n  tag_10\n  jumpi\n    /* \"@aragon/govern-contract-utils/contracts/acl/ACL.sol\":1359:1387  _initializeACL(_initialRoot) */\n  tag_10\n    /* \"@aragon/govern-contract-utils/contracts/acl/ACL.sol\":1374:1386  _initialRoot */\n  dup2\n  sub(shl(0xe0, 0x01), 0x01)\n    /* \"@aragon/govern-contract-utils/contracts/acl/ACL.sol\":1359:1373  _initializeACL */\n  tag_11\n    /* \"@aragon/govern-contract-utils/contracts/acl/ACL.sol\":1359:1387  _initializeACL(_initialRoot) */\n  and\n  jump\t// in\ntag_10:\n  pop\n    /* \".deps/npm/@aragon/govern-core/contracts/pipelines/GovernQueue.sol\":2671:2707  initialize(_aclRoot, _initialConfig) */\n  tag_14\n  swap1\n  pop\n    /* \".deps/npm/@aragon/govern-core/contracts/pipelines/GovernQueue.sol\":2682:2690  _aclRoot */\n  dup3\n    /* \".deps/npm/@aragon/govern-core/contracts/pipelines/GovernQueue.sol\":2692:2706  _initialConfig */\n  dup3\n  sub(shl(0xe0, 0x01), 0x01)\n    /* \".deps/npm/@aragon/govern-core/contracts/pipelines/GovernQueue.sol\":2671:2681  initialize */\n  tag_15\n    /* \".deps/npm/@aragon/govern-core/contracts/pipelines/GovernQueue.sol\":2671:2707  initialize(_aclRoot, _initialConfig) */\n  and\n  jump\t// in\ntag_14:\n    /* \".deps/npm/@aragon/govern-core/contracts/pipelines/GovernQueue.sol\":2433:2714  constructor(address _aclRoot, ERC3000Data.Config memory _initialConfig)... */\n  pop\n  pop\n    /* \".deps/npm/@aragon/govern-core/contracts/pipelines/GovernQueue.sol\":1317:14613  contract GovernQueue is IERC3000, AdaptativeERC165, IArbitrable, ACL {... */\n  jump(tag_69)\n    /* \"@aragon/govern-contract-utils/contracts/acl/ACL.sol\":1493:1612  function _initializeACL(address _initialRoot) internal onlyInit(\"acl\") {... */\ntag_11:\n    /* \"@aragon/govern-contract-utils/contracts/initializable/Initializable.sol\":192:395  modifier onlyInit(string memory key) {... */\n  mload(0x40)\n  dup1\n  0x40\n  add\n  0x40\n  mstore\n  dup1\n  0x03\n  dup2\n  mstore\n  0x20\n  add\n  shl(0xea, 0x1858db)\n  dup2\n  mstore\n  pop\n    /* \"@aragon/govern-contract-utils/contracts/initializable/Initializable.sol\":247:257  initBlocks */\n  0x02\n    /* \"@aragon/govern-contract-utils/contracts/initializable/Initializable.sol\":258:261  key */\n  dup2\n    /* \"@aragon/govern-contract-utils/contracts/initializable/Initializable.sol\":247:262  initBlocks[key] */\n  mload(0x40)\n  tag_18\n  swap2\n  swap1\n  jump(tag_19)\ntag_18:\n  swap1\n  dup2\n  mstore\n  0x20\n  add\n  mload(0x40)\n  dup1\n  swap2\n  sub\n  swap1\n  keccak256\n  sload\n    /* \"@aragon/govern-contract-utils/contracts/initializable/Initializable.sol\":266:267  0 */\n  0x00\n    /* \"@aragon/govern-contract-utils/contracts/initializable/Initializable.sol\":247:267  initBlocks[key] == 0 */\n  eq\n    /* \"@aragon/govern-contract-utils/contracts/initializable/Initializable.sol\":239:306  require(initBlocks[key] == 0, \"initializable: already initialized\") */\n  tag_20\n  jumpi\n  mload(0x40)\n  shl(0xe5, 0x461bcd)\n  dup2\n  mstore\n  0x04\n  add\n  tag_21\n  swap1\n  jump(tag_22)\ntag_21:\n  mload(0x40)\n  dup1\n  swap2\n  sub\n  swap1\n  revert\ntag_20:\n    /* \"@aragon/govern-contract-utils/contracts/initializable/Initializable.sol\":334:346  block.number */\n  number\n    /* \"@aragon/govern-contract-utils/contracts/initializable/Initializable.sol\":316:326  initBlocks */\n  0x02\n    /* \"@aragon/govern-contract-utils/contracts/initializable/Initializable.sol\":327:330  key */\n  dup3\n    /* \"@aragon/govern-contract-utils/contracts/initializable/Initializable.sol\":316:331  initBlocks[key] */\n  mload(0x40)\n  tag_23\n  swap2\n  swap1\n  jump(tag_19)\ntag_23:\n  swap1\n  dup2\n  mstore\n  mload(0x40)\n  swap1\n  dup2\n  swap1\n  sub\n  0x20\n  add\n  swap1\n  keccak256\n    /* \"@aragon/govern-contract-utils/contracts/initializable/Initializable.sol\":316:346  initBlocks[key] = block.number */\n  sstore\n    /* \"@aragon/govern-contract-utils/contracts/acl/ACL.sol\":1574:1605  _grant(ROOT_ROLE, _initialRoot) */\n  tag_25\n  shl(0xe2, 0x161b7d81)\n    /* \"@aragon/govern-contract-utils/contracts/acl/ACL.sol\":1592:1604  _initialRoot */\n  dup4\n  sub(shl(0xe0, 0x01), 0x01)\n    /* \"@aragon/govern-contract-utils/contracts/acl/ACL.sol\":1574:1580  _grant */\n  tag_26\n    /* \"@aragon/govern-contract-utils/contracts/acl/ACL.sol\":1574:1605  _grant(ROOT_ROLE, _initialRoot) */\n  and\n  jump\t// in\ntag_25:\n    /* \"@aragon/govern-contract-utils/contracts/initializable/Initializable.sol\":384:387  key */\n  dup1\n    /* \"@aragon/govern-contract-utils/contracts/initializable/Initializable.sol\":372:388  Initialized(key) */\n  mload(0x40)\n  tag_27\n  swap2\n  swap1\n  jump(tag_19)\ntag_27:\n  mload(0x40)\n  swap1\n  dup2\n  swap1\n  sub\n  dup2\n  keccak256\n  swap1\n  0x00\n  dup1\n  mload\n  0x20\n  data_d362f749f089a1a9de4f0d3f88fa363b60fa95d0fd14849ae74fff0612fc2768\n  dup4\n  codecopy\n  dup2\n  mload\n  swap2\n  mstore\n  swap1\n  0x00\n  swap1\n  log2\n    /* \"@aragon/govern-contract-utils/contracts/acl/ACL.sol\":1493:1612  function _initializeACL(address _initialRoot) internal onlyInit(\"acl\") {... */\n  pop\n  pop\n  jump\t// out\n    /* \".deps/npm/@aragon/govern-core/contracts/pipelines/GovernQueue.sol\":2720:2987  function initialize(address _aclRoot, ERC3000Data.Config memory _initialConfig) public initACL(_aclRoot) onlyInit(\"queue\") {... */\ntag_15:\n    /* \".deps/npm/@aragon/govern-core/contracts/pipelines/GovernQueue.sol\":2815:2823  _aclRoot */\n  dup2\n    /* \"@aragon/govern-contract-utils/contracts/acl/ACL.sol\":1321:1331  initBlocks */\n  0x02\n    /* \"@aragon/govern-contract-utils/contracts/acl/ACL.sol\":1321:1338  initBlocks[\"acl\"] */\n  mload(0x40)\n  tag_29\n  swap1\n  jump(tag_8)\ntag_29:\n  swap1\n  dup2\n  mstore\n  0x20\n  add\n  mload(0x40)\n  dup1\n  swap2\n  sub\n  swap1\n  keccak256\n  sload\n    /* \"@aragon/govern-contract-utils/contracts/acl/ACL.sol\":1342:1343  0 */\n  0x00\n    /* \"@aragon/govern-contract-utils/contracts/acl/ACL.sol\":1321:1343  initBlocks[\"acl\"] == 0 */\n  eq\n    /* \"@aragon/govern-contract-utils/contracts/acl/ACL.sol\":1317:1398  if (initBlocks[\"acl\"] == 0) {... */\n  iszero\n  tag_31\n  jumpi\n    /* \"@aragon/govern-contract-utils/contracts/acl/ACL.sol\":1359:1387  _initializeACL(_initialRoot) */\n  tag_31\n    /* \"@aragon/govern-contract-utils/contracts/acl/ACL.sol\":1374:1386  _initialRoot */\n  dup2\n  sub(shl(0xe0, 0x01), 0x01)\n    /* \"@aragon/govern-contract-utils/contracts/acl/ACL.sol\":1359:1373  _initializeACL */\n  tag_11\n    /* \"@aragon/govern-contract-utils/contracts/acl/ACL.sol\":1359:1387  _initializeACL(_initialRoot) */\n  and\n  jump\t// in\ntag_31:\n    /* \"@aragon/govern-contract-utils/contracts/initializable/Initializable.sol\":192:395  modifier onlyInit(string memory key) {... */\n  mload(0x40)\n  dup1\n  0x40\n  add\n  0x40\n  mstore\n  dup1\n  0x05\n  dup2\n  mstore\n  0x20\n  add\n  shl(0xd8, 0x7175657565)\n  dup2\n  mstore\n  pop\n    /* \"@aragon/govern-contract-utils/contracts/initializable/Initializable.sol\":247:257  initBlocks */\n  0x02\n    /* \"@aragon/govern-contract-utils/contracts/initializable/Initializable.sol\":258:261  key */\n  dup2\n    /* \"@aragon/govern-contract-utils/contracts/initializable/Initializable.sol\":247:262  initBlocks[key] */\n  mload(0x40)\n  tag_33\n  swap2\n  swap1\n  jump(tag_19)\ntag_33:\n  swap1\n  dup2\n  mstore\n  0x20\n  add\n  mload(0x40)\n  dup1\n  swap2\n  sub\n  swap1\n  keccak256\n  sload\n    /* \"@aragon/govern-contract-utils/contracts/initializable/Initializable.sol\":266:267  0 */\n  0x00\n    /* \"@aragon/govern-contract-utils/contracts/initializable/Initializable.sol\":247:267  initBlocks[key] == 0 */\n  eq\n    /* \"@aragon/govern-contract-utils/contracts/initializable/Initializable.sol\":239:306  require(initBlocks[key] == 0, \"initializable: already initialized\") */\n  tag_34\n  jumpi\n  mload(0x40)\n  shl(0xe5, 0x461bcd)\n  dup2\n  mstore\n  0x04\n  add\n  tag_21\n  swap1\n  jump(tag_22)\ntag_34:\n    /* \"@aragon/govern-contract-utils/contracts/initializable/Initializable.sol\":334:346  block.number */\n  number\n    /* \"@aragon/govern-contract-utils/contracts/initializable/Initializable.sol\":316:326  initBlocks */\n  0x02\n    /* \"@aragon/govern-contract-utils/contracts/initializable/Initializable.sol\":327:330  key */\n  dup3\n    /* \"@aragon/govern-contract-utils/contracts/initializable/Initializable.sol\":316:331  initBlocks[key] */\n  mload(0x40)\n  tag_36\n  swap2\n  swap1\n  jump(tag_19)\ntag_36:\n  swap1\n  dup2\n  mstore\n  mload(0x40)\n  swap1\n  dup2\n  swap1\n  sub\n  0x20\n  add\n  swap1\n  keccak256\n    /* \"@aragon/govern-contract-utils/contracts/initializable/Initializable.sol\":316:346  initBlocks[key] = block.number */\n  sstore\n    /* \".deps/npm/@aragon/govern-core/contracts/pipelines/GovernQueue.sol\":2853:2879  _setConfig(_initialConfig) */\n  tag_38\n    /* \".deps/npm/@aragon/govern-core/contracts/pipelines/GovernQueue.sol\":2864:2878  _initialConfig */\n  dup4\n  sub(shl(0xe0, 0x01), 0x01)\n    /* \".deps/npm/@aragon/govern-core/contracts/pipelines/GovernQueue.sol\":2853:2863  _setConfig */\n  tag_39\n    /* \".deps/npm/@aragon/govern-core/contracts/pipelines/GovernQueue.sol\":2853:2879  _setConfig(_initialConfig) */\n  and\n  jump\t// in\ntag_38:\n  pop\n    /* \".deps/npm/@aragon/govern-core/contracts/pipelines/GovernQueue.sol\":2889:2931  _registerStandard(ARBITRABLE_INTERFACE_ID) */\n  tag_40\n  shl(0xe0, 0x88f3ee69)\n  sub(shl(0xe0, 0x01), 0x01)\n    /* \".deps/npm/@aragon/govern-core/contracts/pipelines/GovernQueue.sol\":2889:2906  _registerStandard */\n  tag_41\n    /* \".deps/npm/@aragon/govern-core/contracts/pipelines/GovernQueue.sol\":2889:2931  _registerStandard(ARBITRABLE_INTERFACE_ID) */\n  and\n  jump\t// in\ntag_40:\n    /* \".deps/npm/@aragon/govern-core/contracts/pipelines/GovernQueue.sol\":2941:2980  _registerStandard(ERC3000_INTERFACE_ID) */\n  tag_42\n  shl(0xe1, 0x22f8ea55)\n  sub(shl(0xe0, 0x01), 0x01)\n    /* \".deps/npm/@aragon/govern-core/contracts/pipelines/GovernQueue.sol\":2941:2958  _registerStandard */\n  tag_41\n    /* \".deps/npm/@aragon/govern-core/contracts/pipelines/GovernQueue.sol\":2941:2980  _registerStandard(ERC3000_INTERFACE_ID) */\n  and\n  jump\t// in\ntag_42:\n    /* \"@aragon/govern-contract-utils/contracts/initializable/Initializable.sol\":384:387  key */\n  dup1\n    /* \"@aragon/govern-contract-utils/contracts/initializable/Initializable.sol\":372:388  Initialized(key) */\n  mload(0x40)\n  tag_43\n  swap2\n  swap1\n  jump(tag_19)\ntag_43:\n  mload(0x40)\n  swap1\n  dup2\n  swap1\n  sub\n  dup2\n  keccak256\n  swap1\n  0x00\n  dup1\n  mload\n  0x20\n  data_d362f749f089a1a9de4f0d3f88fa363b60fa95d0fd14849ae74fff0612fc2768\n  dup4\n  codecopy\n  dup2\n  mload\n  swap2\n  mstore\n  swap1\n  0x00\n  swap1\n  log2\n    /* \"@aragon/govern-contract-utils/contracts/acl/ACL.sol\":1407:1408  _ */\n  pop\n    /* \".deps/npm/@aragon/govern-core/contracts/pipelines/GovernQueue.sol\":2720:2987  function initialize(address _aclRoot, ERC3000Data.Config memory _initialConfig) public initACL(_aclRoot) onlyInit(\"queue\") {... */\n  pop\n  pop\n  pop\n  jump\t// out\n    /* \"@aragon/govern-contract-utils/contracts/acl/ACL.sol\":3142:3265  function _grant(bytes4 _role, address _who) internal {... */\ntag_26:\n    /* \"@aragon/govern-contract-utils/contracts/acl/ACL.sol\":3205:3258  _grantWithOracle(_role, _who, IACLOracle(ALLOW_FLAG)) */\n  tag_45\n    /* \"@aragon/govern-contract-utils/contracts/acl/ACL.sol\":3222:3227  _role */\n  dup3\n    /* \"@aragon/govern-contract-utils/contracts/acl/ACL.sol\":3229:3233  _who */\n  dup3\n    /* \"@aragon/govern-contract-utils/contracts/acl/ACL.sol\":746:747  2 */\n  0x02\n  sub(shl(0xe0, 0x01), 0x01)\n    /* \"@aragon/govern-contract-utils/contracts/acl/ACL.sol\":3205:3221  _grantWithOracle */\n  tag_46\n    /* \"@aragon/govern-contract-utils/contracts/acl/ACL.sol\":3205:3258  _grantWithOracle(_role, _who, IACLOracle(ALLOW_FLAG)) */\n  and\n  jump\t// in\ntag_45:\n    /* \"@aragon/govern-contract-utils/contracts/acl/ACL.sol\":3142:3265  function _grant(bytes4 _role, address _who) internal {... */\n  pop\n  pop\n  jump\t// out\n    /* \".deps/npm/@aragon/govern-core/contracts/pipelines/GovernQueue.sol\":14378:14611  function _setConfig(ERC3000Data.Config memory _config)... */\ntag_39:\n    /* \".deps/npm/@aragon/govern-core/contracts/pipelines/GovernQueue.sol\":14467:14474  bytes32 */\n  0x00\n    /* \".deps/npm/@aragon/govern-core/contracts/pipelines/GovernQueue.sol\":14503:14517  _config.hash() */\n  tag_48\n    /* \".deps/npm/@aragon/govern-core/contracts/pipelines/GovernQueue.sol\":14503:14510  _config */\n  dup3\n    /* \".deps/npm/@aragon/govern-core/contracts/pipelines/GovernQueue.sol\":14503:14515  _config.hash */\n  or(tag_0_155, shl(0x20, tag_49))\n    /* \".deps/npm/@aragon/govern-core/contracts/pipelines/GovernQueue.sol\":14503:14517  _config.hash() */\n  0x20\n  shr\n  jump\t// in\ntag_48:\n    /* \".deps/npm/@aragon/govern-core/contracts/pipelines/GovernQueue.sol\":14490:14500  configHash */\n  0x04\n    /* \".deps/npm/@aragon/govern-core/contracts/pipelines/GovernQueue.sol\":14490:14517  configHash = _config.hash() */\n  dup2\n  swap1\n  sstore\n    /* \".deps/npm/@aragon/govern-core/contracts/pipelines/GovernQueue.sol\":14533:14576  Configured(configHash, msg.sender, _config) */\n  mload(0x40)\n    /* \".deps/npm/@aragon/govern-core/contracts/pipelines/GovernQueue.sol\":14556:14566  msg.sender */\n  caller\n  swap2\n    /* \".deps/npm/@aragon/govern-core/contracts/pipelines/GovernQueue.sol\":14490:14517  configHash = _config.hash() */\n  swap1\n    /* \".deps/npm/@aragon/govern-core/contracts/pipelines/GovernQueue.sol\":14533:14576  Configured(configHash, msg.sender, _config) */\n  0x0a61dcdfcdfc6da74a563de8455cc4ae6d6c9d0b442eb2f7309e6b31e4680d79\n  swap1\n  tag_50\n  swap1\n    /* \".deps/npm/@aragon/govern-core/contracts/pipelines/GovernQueue.sol\":14568:14575  _config */\n  dup7\n  swap1\n    /* \".deps/npm/@aragon/govern-core/contracts/pipelines/GovernQueue.sol\":14533:14576  Configured(configHash, msg.sender, _config) */\n  jump(tag_51)\ntag_50:\n  mload(0x40)\n  dup1\n  swap2\n  sub\n  swap1\n  log3\n  pop\n  pop\n    /* \".deps/npm/@aragon/govern-core/contracts/pipelines/GovernQueue.sol\":14594:14604  configHash */\n  sload(0x04)\n  swap1\n    /* \".deps/npm/@aragon/govern-core/contracts/pipelines/GovernQueue.sol\":14378:14611  function _setConfig(ERC3000Data.Config memory _config)... */\n  jump\t// out\n    /* \"@aragon/govern-contract-utils/contracts/adaptative-erc165/AdaptativeERC165.sol\":1442:1668  function _registerStandard(bytes4 _interfaceId) internal {... */\ntag_41:\n  not(sub(shl(0xe0, 0x01), 0x01))\n    /* \"@aragon/govern-contract-utils/contracts/adaptative-erc165/AdaptativeERC165.sol\":1575:1606  standardSupported[_interfaceId] */\n  dup2\n  and\n    /* \"@aragon/govern-contract-utils/contracts/adaptative-erc165/AdaptativeERC165.sol\":1575:1592  standardSupported */\n  0x00\n    /* \"@aragon/govern-contract-utils/contracts/adaptative-erc165/AdaptativeERC165.sol\":1575:1606  standardSupported[_interfaceId] */\n  swap1\n  dup2\n  mstore\n  0x20\n  dup2\n  swap1\n  mstore\n  0x40\n  swap1\n  dup2\n  swap1\n  keccak256\n    /* \"@aragon/govern-contract-utils/contracts/adaptative-erc165/AdaptativeERC165.sol\":1575:1613  standardSupported[_interfaceId] = true */\n  dup1\n  sload\n  not(0xff)\n  and\n    /* \"@aragon/govern-contract-utils/contracts/adaptative-erc165/AdaptativeERC165.sol\":1609:1613  true */\n  0x01\n    /* \"@aragon/govern-contract-utils/contracts/adaptative-erc165/AdaptativeERC165.sol\":1575:1613  standardSupported[_interfaceId] = true */\n  or\n  swap1\n  sstore\n    /* \"@aragon/govern-contract-utils/contracts/adaptative-erc165/AdaptativeERC165.sol\":1629:1661  RegisteredStandard(_interfaceId) */\n  mload\n  0xbf5e1f87f5ab65b58074cd29244d7c487a948983cda4b932e0f966b62bd34aca\n  swap1\n  tag_53\n  swap1\n    /* \"@aragon/govern-contract-utils/contracts/adaptative-erc165/AdaptativeERC165.sol\":1593:1605  _interfaceId */\n  dup4\n  swap1\n    /* \"@aragon/govern-contract-utils/contracts/adaptative-erc165/AdaptativeERC165.sol\":1629:1661  RegisteredStandard(_interfaceId) */\n  jump(tag_54)\ntag_53:\n  mload(0x40)\n  dup1\n  swap2\n  sub\n  swap1\n  log1\n    /* \"@aragon/govern-contract-utils/contracts/adaptative-erc165/AdaptativeERC165.sol\":1442:1668  function _registerStandard(bytes4 _interfaceId) internal {... */\n  pop\n  jump\t// out\n    /* \"@aragon/govern-contract-utils/contracts/acl/ACL.sol\":3271:3580  function _grantWithOracle(bytes4 _role, address _who, IACLOracle _oracle) internal {... */\ntag_46:\n    /* \"@aragon/govern-contract-utils/contracts/acl/ACL.sol\":3373:3388  isFrozen(_role) */\n  tag_56\n    /* \"@aragon/govern-contract-utils/contracts/acl/ACL.sol\":3382:3387  _role */\n  dup4\n  sub(shl(0xe0, 0x01), 0x01)\n    /* \"@aragon/govern-contract-utils/contracts/acl/ACL.sol\":3373:3381  isFrozen */\n  tag_57\n    /* \"@aragon/govern-contract-utils/contracts/acl/ACL.sol\":3373:3388  isFrozen(_role) */\n  and\n  jump\t// in\ntag_56:\n    /* \"@aragon/govern-contract-utils/contracts/acl/ACL.sol\":3372:3388  !isFrozen(_role) */\n  iszero\n    /* \"@aragon/govern-contract-utils/contracts/acl/ACL.sol\":3364:3404  require(!isFrozen(_role), \"acl: frozen\") */\n  tag_58\n  jumpi\n  mload(0x40)\n  shl(0xe5, 0x461bcd)\n  dup2\n  mstore\n  0x04\n  add\n  tag_21\n  swap1\n  jump(tag_60)\ntag_58:\n  sub(shl(0xa0, 0x01), 0x01)\n    /* \"@aragon/govern-contract-utils/contracts/acl/ACL.sol\":3422:3441  _who != FREEZE_FLAG */\n  dup3\n  and\n    /* \"@aragon/govern-contract-utils/contracts/acl/ACL.sol\":581:582  1 */\n  0x01\n    /* \"@aragon/govern-contract-utils/contracts/acl/ACL.sol\":3422:3441  _who != FREEZE_FLAG */\n  eq\n  iszero\n    /* \"@aragon/govern-contract-utils/contracts/acl/ACL.sol\":3414:3461  require(_who != FREEZE_FLAG, \"acl: bad freeze\") */\n  tag_61\n  jumpi\n  mload(0x40)\n  shl(0xe5, 0x461bcd)\n  dup2\n  mstore\n  0x04\n  add\n  tag_21\n  swap1\n  jump(tag_63)\ntag_61:\n  not(sub(shl(0xe0, 0x01), 0x01))\n    /* \"@aragon/govern-contract-utils/contracts/acl/ACL.sol\":3480:3492  roles[_role] */\n  dup4\n  and\n  0x00\n  dup2\n  dup2\n  mstore\n    /* \"@aragon/govern-contract-utils/contracts/acl/ACL.sol\":3480:3485  roles */\n  0x03\n    /* \"@aragon/govern-contract-utils/contracts/acl/ACL.sol\":3480:3492  roles[_role] */\n  0x20\n  swap1\n  dup2\n  mstore\n  0x40\n  dup1\n  dup4\n  keccak256\n  sub(shl(0xa0, 0x01), 0x01)\n    /* \"@aragon/govern-contract-utils/contracts/acl/ACL.sol\":3480:3498  roles[_role][_who] */\n  dup8\n  dup2\n  and\n  dup1\n  dup7\n  mstore\n  swap2\n  swap1\n  swap4\n  mstore\n  swap3\n  dup2\n  swap1\n  keccak256\n    /* \"@aragon/govern-contract-utils/contracts/acl/ACL.sol\":3480:3517  roles[_role][_who] = address(_oracle) */\n  dup1\n  sload\n  not(sub(shl(0xa0, 0x01), 0x01))\n  and\n  swap3\n  dup7\n  and\n  swap3\n  swap1\n  swap3\n  or\n  swap1\n  swap2\n  sstore\n    /* \"@aragon/govern-contract-utils/contracts/acl/ACL.sol\":3532:3573  Granted(_role, msg.sender, _who, _oracle) */\n  mload\n    /* \"@aragon/govern-contract-utils/contracts/acl/ACL.sol\":3480:3498  roles[_role][_who] */\n  swap1\n  swap2\n    /* \"@aragon/govern-contract-utils/contracts/acl/ACL.sol\":3547:3557  msg.sender */\n  caller\n  swap2\n    /* \"@aragon/govern-contract-utils/contracts/acl/ACL.sol\":3532:3573  Granted(_role, msg.sender, _who, _oracle) */\n  0xc62063b81f7036fd97a0dc546516e99f11004d2d76ca0fddd3866346c86e7091\n  swap1\n  tag_64\n  swap1\n    /* \"@aragon/govern-contract-utils/contracts/acl/ACL.sol\":3480:3517  roles[_role][_who] = address(_oracle) */\n  dup7\n  swap1\n    /* \"@aragon/govern-contract-utils/contracts/acl/ACL.sol\":3532:3573  Granted(_role, msg.sender, _who, _oracle) */\n  jump(tag_65)\ntag_64:\n  mload(0x40)\n  dup1\n  swap2\n  sub\n  swap1\n  log4\n    /* \"@aragon/govern-contract-utils/contracts/acl/ACL.sol\":3271:3580  function _grantWithOracle(bytes4 _role, address _who, IACLOracle _oracle) internal {... */\n  pop\n  pop\n  pop\n  jump\t// out\n    /* \"erc3k/contracts/ERC3000Data.sol\":1846:1967  function hash(Config memory config) internal pure returns (bytes32) {... */\ntag_49:\n    /* \"erc3k/contracts/ERC3000Data.sol\":1905:1912  bytes32 */\n  0x00\n    /* \"erc3k/contracts/ERC3000Data.sol\":1952:1958  config */\n  dup2\n    /* \"erc3k/contracts/ERC3000Data.sol\":1941:1959  abi.encode(config) */\n  add(0x20, mload(0x40))\n  tag_67\n  swap2\n  swap1\n  jump(tag_51)\ntag_67:\n  mload(0x40)\n    /* \"--CODEGEN--\":49:53   */\n  0x20\n    /* \"--CODEGEN--\":39:46   */\n  dup2\n    /* \"--CODEGEN--\":30:37   */\n  dup4\n    /* \"--CODEGEN--\":26:47   */\n  sub\n    /* \"--CODEGEN--\":22:54   */\n  sub\n    /* \"--CODEGEN--\":13:20   */\n  dup2\n    /* \"--CODEGEN--\":6:55   */\n  mstore\n    /* \"erc3k/contracts/ERC3000Data.sol\":1941:1959  abi.encode(config) */\n  swap1\n  0x40\n  mstore\n    /* \"erc3k/contracts/ERC3000Data.sol\":1931:1960  keccak256(abi.encode(config)) */\n  dup1\n  mload\n  swap1\n  0x20\n  add\n  keccak256\n    /* \"erc3k/contracts/ERC3000Data.sol\":1924:1960  return keccak256(abi.encode(config)) */\n  swap1\n  pop\n    /* \"erc3k/contracts/ERC3000Data.sol\":1846:1967  function hash(Config memory config) internal pure returns (bytes32) {... */\n  swap2\n  swap1\n  pop\n  jump\t// out\n    /* \"@aragon/govern-contract-utils/contracts/acl/ACL.sol\":3986:4109  function isFrozen(bytes4 _role) public view returns (bool) {... */\ntag_57:\n  not(sub(shl(0xe0, 0x01), 0x01))\n    /* \"@aragon/govern-contract-utils/contracts/acl/ACL.sol\":4062:4074  roles[_role] */\n  and\n    /* \"@aragon/govern-contract-utils/contracts/acl/ACL.sol\":4039:4043  bool */\n  0x00\n    /* \"@aragon/govern-contract-utils/contracts/acl/ACL.sol\":4062:4074  roles[_role] */\n  swap1\n  dup2\n  mstore\n    /* \"@aragon/govern-contract-utils/contracts/acl/ACL.sol\":4062:4067  roles */\n  0x03\n    /* \"@aragon/govern-contract-utils/contracts/acl/ACL.sol\":4062:4074  roles[_role] */\n  0x20\n  swap1\n  dup2\n  mstore\n  0x40\n  dup1\n  dup4\n  keccak256\n    /* \"@aragon/govern-contract-utils/contracts/acl/ACL.sol\":581:582  1 */\n  0x01\n    /* \"@aragon/govern-contract-utils/contracts/acl/ACL.sol\":4062:4087  roles[_role][FREEZE_FLAG] */\n  dup1\n  dup6\n  mstore\n  swap3\n  mstore\n  swap1\n  swap2\n  keccak256\n  sload\n  sub(shl(0xa0, 0x01), 0x01)\n  and\n    /* \"@aragon/govern-contract-utils/contracts/acl/ACL.sol\":4062:4102  roles[_role][FREEZE_FLAG] == FREEZE_FLAG */\n  eq\n  swap1\n    /* \"@aragon/govern-contract-utils/contracts/acl/ACL.sol\":3986:4109  function isFrozen(bytes4 _role) public view returns (bool) {... */\n  jump\t// out\n    /* \"--CODEGEN--\":5:139   */\ntag_70:\n    /* \"--CODEGEN--\":83:96   */\n  dup1\n  mload\n  sub(shl(0xa0, 0x01), 0x01)\n    /* \"--CODEGEN--\":11830:11884   */\n  dup2\n  and\n    /* \"--CODEGEN--\":12716:12751   */\n  dup2\n  eq\n    /* \"--CODEGEN--\":12706:12708   */\n  tag_72\n  jumpi\n    /* \"--CODEGEN--\":12765:12766   */\n  0x00\n  dup1\n    /* \"--CODEGEN--\":12755:12767   */\n  revert\n    /* \"--CODEGEN--\":12706:12708   */\ntag_72:\n    /* \"--CODEGEN--\":68:139   */\n  swap3\n  swap2\n  pop\n  pop\n  jump\n    /* \"--CODEGEN--\":147:589   */\ntag_73:\n  0x00\n    /* \"--CODEGEN--\":259:262   */\n  dup3\n    /* \"--CODEGEN--\":252:256   */\n  0x1f\n    /* \"--CODEGEN--\":244:250   */\n  dup4\n    /* \"--CODEGEN--\":240:257   */\n  add\n    /* \"--CODEGEN--\":236:263   */\n  slt\n    /* \"--CODEGEN--\":226:228   */\n  tag_75\n  jumpi\n  dup1\n  dup2\n    /* \"--CODEGEN--\":267:279   */\n  revert\n    /* \"--CODEGEN--\":226:228   */\ntag_75:\n    /* \"--CODEGEN--\":301:314   */\n  dup2\n  mload\n  sub(shl(0x40, 0x01), 0x01)\n    /* \"--CODEGEN--\":10579:10609   */\n  dup2\n  gt\n    /* \"--CODEGEN--\":10576:10578   */\n  iszero\n  tag_76\n  jumpi\n  dup2\n  dup3\n    /* \"--CODEGEN--\":10612:10624   */\n  revert\n    /* \"--CODEGEN--\":10576:10578   */\ntag_76:\n    /* \"--CODEGEN--\":329:393   */\n  tag_77\n    /* \"--CODEGEN--\":10685:10694   */\n  0x1f\n    /* \"--CODEGEN--\":10666:10683   */\n  dup3\n  add\n  not(0x1f)\n    /* \"--CODEGEN--\":10662:10695   */\n  and\n    /* \"--CODEGEN--\":10753:10757   */\n  0x20\n    /* \"--CODEGEN--\":10743:10758   */\n  add\n    /* \"--CODEGEN--\":329:393   */\n  jump(tag_78)\ntag_77:\n    /* \"--CODEGEN--\":320:393   */\n  swap2\n  pop\n    /* \"--CODEGEN--\":413:419   */\n  dup1\n    /* \"--CODEGEN--\":406:411   */\n  dup3\n    /* \"--CODEGEN--\":399:420   */\n  mstore\n    /* \"--CODEGEN--\":517:520   */\n  dup4\n    /* \"--CODEGEN--\":10753:10757   */\n  0x20\n    /* \"--CODEGEN--\":508:514   */\n  dup3\n    /* \"--CODEGEN--\":441:447   */\n  dup6\n    /* \"--CODEGEN--\":499:515   */\n  add\n  add\n    /* \"--CODEGEN--\":496:521   */\n  gt\n    /* \"--CODEGEN--\":493:495   */\n  iszero\n  tag_79\n  jumpi\n    /* \"--CODEGEN--\":534:535   */\n  0x00\n  dup1\n    /* \"--CODEGEN--\":524:536   */\n  revert\n    /* \"--CODEGEN--\":493:495   */\ntag_79:\n    /* \"--CODEGEN--\":544:583   */\n  tag_80\n    /* \"--CODEGEN--\":576:582   */\n  dup2\n    /* \"--CODEGEN--\":10753:10757   */\n  0x20\n    /* \"--CODEGEN--\":475:480   */\n  dup5\n    /* \"--CODEGEN--\":471:487   */\n  add\n    /* \"--CODEGEN--\":10753:10757   */\n  0x20\n    /* \"--CODEGEN--\":441:447   */\n  dup7\n    /* \"--CODEGEN--\":437:454   */\n  add\n    /* \"--CODEGEN--\":544:583   */\n  jump(tag_81)\ntag_80:\n  pop\n    /* \"--CODEGEN--\":219:589   */\n  swap3\n  swap2\n  pop\n  pop\n  jump\n    /* \"--CODEGEN--\":633:1139   */\ntag_82:\n  0x00\n    /* \"--CODEGEN--\":761:765   */\n  0x40\n    /* \"--CODEGEN--\":749:758   */\n  dup3\n    /* \"--CODEGEN--\":744:747   */\n  dup5\n    /* \"--CODEGEN--\":740:759   */\n  sub\n    /* \"--CODEGEN--\":736:766   */\n  slt\n    /* \"--CODEGEN--\":733:735   */\n  iszero\n  tag_84\n  jumpi\n  dup1\n  dup2\n    /* \"--CODEGEN--\":769:781   */\n  revert\n    /* \"--CODEGEN--\":733:735   */\ntag_84:\n    /* \"--CODEGEN--\":797:817   */\n  tag_85\n    /* \"--CODEGEN--\":761:765   */\n  0x40\n    /* \"--CODEGEN--\":797:817   */\n  jump(tag_78)\ntag_85:\n    /* \"--CODEGEN--\":788:817   */\n  swap1\n  pop\n    /* \"--CODEGEN--\":900:960   */\n  tag_86\n    /* \"--CODEGEN--\":956:959   */\n  dup4\n    /* \"--CODEGEN--\":932:954   */\n  dup4\n    /* \"--CODEGEN--\":900:960   */\n  jump(tag_70)\ntag_86:\n    /* \"--CODEGEN--\":882:898   */\n  dup2\n    /* \"--CODEGEN--\":875:961   */\n  mstore\n    /* \"--CODEGEN--\":1024:1026   */\n  0x20\n    /* \"--CODEGEN--\":1093:1102   */\n  dup3\n    /* \"--CODEGEN--\":1089:1111   */\n  add\n    /* \"--CODEGEN--\":2411:2424   */\n  mload\n    /* \"--CODEGEN--\":1024:1026   */\n  0x20\n    /* \"--CODEGEN--\":1043:1048   */\n  dup3\n    /* \"--CODEGEN--\":1039:1055   */\n  add\n    /* \"--CODEGEN--\":1032:1118   */\n  mstore\n    /* \"--CODEGEN--\":727:1139   */\n  swap3\n  swap2\n  pop\n  pop\n  jump\n    /* \"--CODEGEN--\":2474:3000   */\ntag_3:\n  0x00\n  dup1\n    /* \"--CODEGEN--\":2630:2632   */\n  0x40\n    /* \"--CODEGEN--\":2618:2627   */\n  dup4\n    /* \"--CODEGEN--\":2609:2616   */\n  dup6\n    /* \"--CODEGEN--\":2605:2628   */\n  sub\n    /* \"--CODEGEN--\":2601:2633   */\n  slt\n    /* \"--CODEGEN--\":2598:2600   */\n  iszero\n  tag_88\n  jumpi\n  dup2\n  dup3\n    /* \"--CODEGEN--\":2636:2648   */\n  revert\n    /* \"--CODEGEN--\":2598:2600   */\ntag_88:\n    /* \"--CODEGEN--\":2698:2762   */\n  tag_89\n    /* \"--CODEGEN--\":2754:2761   */\n  dup5\n    /* \"--CODEGEN--\":2730:2752   */\n  dup5\n    /* \"--CODEGEN--\":2698:2762   */\n  jump(tag_70)\ntag_89:\n    /* \"--CODEGEN--\":2820:2822   */\n  0x20\n    /* \"--CODEGEN--\":2805:2823   */\n  dup5\n  add\n    /* \"--CODEGEN--\":2799:2824   */\n  mload\n    /* \"--CODEGEN--\":2688:2762   */\n  swap1\n  swap3\n  pop\n  sub(shl(0x40, 0x01), 0x01)\n    /* \"--CODEGEN--\":2833:2863   */\n  dup1\n  dup3\n  gt\n    /* \"--CODEGEN--\":2830:2832   */\n  iszero\n  tag_90\n  jumpi\n  dup3\n  dup4\n    /* \"--CODEGEN--\":2866:2878   */\n  revert\n    /* \"--CODEGEN--\":2830:2832   */\ntag_90:\n    /* \"--CODEGEN--\":2967:2973   */\n  dup2\n    /* \"--CODEGEN--\":2956:2965   */\n  dup6\n    /* \"--CODEGEN--\":2952:2974   */\n  add\n    /* \"--CODEGEN--\":1302:1306   */\n  0xe0\n    /* \"--CODEGEN--\":1290:1299   */\n  dup2\n    /* \"--CODEGEN--\":1285:1288   */\n  dup9\n    /* \"--CODEGEN--\":1281:1300   */\n  sub\n    /* \"--CODEGEN--\":1277:1307   */\n  slt\n    /* \"--CODEGEN--\":1274:1276   */\n  iszero\n  tag_91\n  jumpi\n  dup4\n  dup5\n    /* \"--CODEGEN--\":1310:1322   */\n  revert\n    /* \"--CODEGEN--\":1274:1276   */\ntag_91:\n    /* \"--CODEGEN--\":1338:1358   */\n  tag_92\n    /* \"--CODEGEN--\":1353:1357   */\n  0xa0\n    /* \"--CODEGEN--\":1338:1358   */\n  jump(tag_78)\ntag_92:\n    /* \"--CODEGEN--\":1329:1358   */\n  swap3\n  pop\n    /* \"--CODEGEN--\":1482:1504   */\n  dup1\n    /* \"--CODEGEN--\":2411:2424   */\n  mload\n    /* \"--CODEGEN--\":1432:1448   */\n  dup4\n    /* \"--CODEGEN--\":1425:1511   */\n  mstore\n    /* \"--CODEGEN--\":1616:1704   */\n  tag_93\n    /* \"--CODEGEN--\":1700:1703   */\n  dup8\n    /* \"--CODEGEN--\":2820:2822   */\n  0x20\n    /* \"--CODEGEN--\":1680:1689   */\n  dup4\n    /* \"--CODEGEN--\":1676:1698   */\n  add\n    /* \"--CODEGEN--\":1616:1704   */\n  jump(tag_82)\ntag_93:\n    /* \"--CODEGEN--\":2820:2822   */\n  0x20\n    /* \"--CODEGEN--\":1602:1607   */\n  dup5\n    /* \"--CODEGEN--\":1598:1614   */\n  add\n    /* \"--CODEGEN--\":1591:1705   */\n  mstore\n    /* \"--CODEGEN--\":1811:1899   */\n  tag_94\n    /* \"--CODEGEN--\":1895:1898   */\n  dup8\n    /* \"--CODEGEN--\":1778:1780   */\n  0x60\n    /* \"--CODEGEN--\":1875:1884   */\n  dup4\n    /* \"--CODEGEN--\":1871:1893   */\n  add\n    /* \"--CODEGEN--\":1811:1899   */\n  jump(tag_82)\ntag_94:\n    /* \"--CODEGEN--\":2630:2632   */\n  0x40\n    /* \"--CODEGEN--\":1797:1802   */\n  dup5\n    /* \"--CODEGEN--\":1793:1809   */\n  add\n    /* \"--CODEGEN--\":1786:1900   */\n  mstore\n    /* \"--CODEGEN--\":1999:2059   */\n  tag_95\n    /* \"--CODEGEN--\":2055:2058   */\n  dup8\n    /* \"--CODEGEN--\":1353:1357   */\n  0xa0\n    /* \"--CODEGEN--\":2035:2044   */\n  dup4\n    /* \"--CODEGEN--\":2031:2053   */\n  add\n    /* \"--CODEGEN--\":1999:2059   */\n  jump(tag_70)\ntag_95:\n    /* \"--CODEGEN--\":1778:1780   */\n  0x60\n    /* \"--CODEGEN--\":1985:1990   */\n  dup5\n    /* \"--CODEGEN--\":1981:1997   */\n  add\n    /* \"--CODEGEN--\":1974:2060   */\n  mstore\n    /* \"--CODEGEN--\":2143:2146   */\n  0xc0\n    /* \"--CODEGEN--\":2132:2141   */\n  dup2\n    /* \"--CODEGEN--\":2128:2147   */\n  add\n    /* \"--CODEGEN--\":2122:2148   */\n  mload\n    /* \"--CODEGEN--\":2844:2862   */\n  dup3\n    /* \"--CODEGEN--\":2160:2166   */\n  dup2\n    /* \"--CODEGEN--\":2157:2187   */\n  gt\n    /* \"--CODEGEN--\":2154:2156   */\n  iszero\n  tag_96\n  jumpi\n  dup5\n  dup6\n    /* \"--CODEGEN--\":2190:2202   */\n  revert\n    /* \"--CODEGEN--\":2154:2156   */\ntag_96:\n    /* \"--CODEGEN--\":2235:2304   */\n  tag_97\n    /* \"--CODEGEN--\":2300:2303   */\n  dup9\n    /* \"--CODEGEN--\":2291:2297   */\n  dup3\n    /* \"--CODEGEN--\":2280:2289   */\n  dup5\n    /* \"--CODEGEN--\":2276:2298   */\n  add\n    /* \"--CODEGEN--\":2235:2304   */\n  jump(tag_73)\ntag_97:\n    /* \"--CODEGEN--\":2228:2232   */\n  0x80\n    /* \"--CODEGEN--\":2221:2226   */\n  dup6\n    /* \"--CODEGEN--\":2217:2233   */\n  add\n    /* \"--CODEGEN--\":2210:2305   */\n  mstore\n  pop\n  pop\n  pop\n    /* \"--CODEGEN--\":2886:2984   */\n  dup1\n  swap2\n  pop\n  pop\n    /* \"--CODEGEN--\":2592:3000   */\n  swap3\n  pop\n  swap3\n  swap1\n  pop\n  jump\n    /* \"--CODEGEN--\":5541:6016   */\ntag_98:\n    /* \"--CODEGEN--\":5747:5770   */\n  dup1\n  mload\n  sub(shl(0xa0, 0x01), 0x01)\n    /* \"--CODEGEN--\":11830:11884   */\n  and\n    /* \"--CODEGEN--\":3068:3105   */\n  dup3\n  mstore\n    /* \"--CODEGEN--\":5920:5924   */\n  0x20\n    /* \"--CODEGEN--\":5909:5925   */\n  swap1\n  dup2\n  add\n    /* \"--CODEGEN--\":5903:5926   */\n  mload\n    /* \"--CODEGEN--\":5980:5994   */\n  swap2\n  add\n    /* \"--CODEGEN--\":7331:7368   */\n  mstore\n    /* \"--CODEGEN--\":5653:6016   */\n  jump\n    /* \"--CODEGEN--\":7380:7655   */\ntag_19:\n  0x00\n    /* \"--CODEGEN--\":3898:3903   */\n  dup3\n    /* \"--CODEGEN--\":10862:10874   */\n  mload\n    /* \"--CODEGEN--\":4010:4062   */\n  tag_101\n    /* \"--CODEGEN--\":4055:4061   */\n  dup2\n    /* \"--CODEGEN--\":4050:4053   */\n  dup5\n    /* \"--CODEGEN--\":4043:4047   */\n  0x20\n    /* \"--CODEGEN--\":4036:4041   */\n  dup8\n    /* \"--CODEGEN--\":4032:4048   */\n  add\n    /* \"--CODEGEN--\":4010:4062   */\n  jump(tag_81)\ntag_101:\n    /* \"--CODEGEN--\":4074:4090   */\n  swap2\n  swap1\n  swap2\n  add\n  swap3\n    /* \"--CODEGEN--\":7516:7655   */\n  swap2\n  pop\n  pop\n  jump\n    /* \"--CODEGEN--\":7662:8043   */\ntag_8:\n  shl(0xea, 0x1858db)\n    /* \"--CODEGEN--\":5078:5104   */\n  dup2\n  mstore\n    /* \"--CODEGEN--\":5063:5064   */\n  0x03\n    /* \"--CODEGEN--\":5123:5134   */\n  add\n  swap1\n    /* \"--CODEGEN--\":7851:8043   */\n  jump\n    /* \"--CODEGEN--\":8050:8268   */\ntag_54:\n  not(sub(shl(0xe0, 0x01), 0x01))\n    /* \"--CODEGEN--\":11678:11756   */\n  swap2\n  swap1\n  swap2\n  and\n    /* \"--CODEGEN--\":3186:3222   */\n  dup2\n  mstore\n    /* \"--CODEGEN--\":8175:8177   */\n  0x20\n    /* \"--CODEGEN--\":8160:8178   */\n  add\n  swap1\n    /* \"--CODEGEN--\":8146:8268   */\n  jump\n    /* \"--CODEGEN--\":8275:8535   */\ntag_65:\n  sub(shl(0xa0, 0x01), 0x01)\n    /* \"--CODEGEN--\":11830:11884   */\n  swap2\n  swap1\n  swap2\n  and\n    /* \"--CODEGEN--\":3654:3723   */\n  dup2\n  mstore\n    /* \"--CODEGEN--\":8421:8423   */\n  0x20\n    /* \"--CODEGEN--\":8406:8424   */\n  add\n  swap1\n    /* \"--CODEGEN--\":8392:8535   */\n  jump\n    /* \"--CODEGEN--\":8542:8958   */\ntag_60:\n    /* \"--CODEGEN--\":8742:8744   */\n  0x20\n    /* \"--CODEGEN--\":8756:8803   */\n  dup1\n  dup3\n  mstore\n    /* \"--CODEGEN--\":4327:4329   */\n  0x0b\n    /* \"--CODEGEN--\":8727:8745   */\n  swap1\n  dup3\n  add\n    /* \"--CODEGEN--\":11125:11144   */\n  mstore\n  shl(0xa9, 0x30b1b61d10333937bd32b7)\n    /* \"--CODEGEN--\":11165:11179   */\n  0x40\n  dup3\n  add\n    /* \"--CODEGEN--\":4343:4377   */\n  mstore\n    /* \"--CODEGEN--\":4396:4408   */\n  0x60\n  add\n  swap1\n    /* \"--CODEGEN--\":8713:8958   */\n  jump\n    /* \"--CODEGEN--\":8965:9381   */\ntag_22:\n    /* \"--CODEGEN--\":9165:9167   */\n  0x20\n    /* \"--CODEGEN--\":9179:9226   */\n  dup1\n  dup3\n  mstore\n    /* \"--CODEGEN--\":4647:4649   */\n  0x22\n    /* \"--CODEGEN--\":9150:9168   */\n  swap1\n  dup3\n  add\n    /* \"--CODEGEN--\":11125:11144   */\n  mstore\n    /* \"--CODEGEN--\":4683:4717   */\n  0x696e697469616c697a61626c653a20616c726561647920696e697469616c697a\n    /* \"--CODEGEN--\":11165:11179   */\n  0x40\n  dup3\n  add\n    /* \"--CODEGEN--\":4663:4718   */\n  mstore\n  shl(0xf2, 0x1959)\n    /* \"--CODEGEN--\":4738:4750   */\n  0x60\n  dup3\n  add\n    /* \"--CODEGEN--\":4731:4757   */\n  mstore\n    /* \"--CODEGEN--\":4776:4788   */\n  0x80\n  add\n  swap1\n    /* \"--CODEGEN--\":9136:9381   */\n  jump\n    /* \"--CODEGEN--\":9388:9804   */\ntag_63:\n    /* \"--CODEGEN--\":9588:9590   */\n  0x20\n    /* \"--CODEGEN--\":9602:9649   */\n  dup1\n  dup3\n  mstore\n    /* \"--CODEGEN--\":5373:5375   */\n  0x0f\n    /* \"--CODEGEN--\":9573:9591   */\n  swap1\n  dup3\n  add\n    /* \"--CODEGEN--\":11125:11144   */\n  mstore\n  shl(0x88, 0x61636c3a2062616420667265657a65)\n    /* \"--CODEGEN--\":11165:11179   */\n  0x40\n  dup3\n  add\n    /* \"--CODEGEN--\":5389:5427   */\n  mstore\n    /* \"--CODEGEN--\":5446:5458   */\n  0x60\n  add\n  swap1\n    /* \"--CODEGEN--\":9559:9804   */\n  jump\n    /* \"--CODEGEN--\":9811:10177   */\ntag_51:\n  0x00\n    /* \"--CODEGEN--\":9986:9988   */\n  0x20\n    /* \"--CODEGEN--\":10007:10024   */\n  dup3\n    /* \"--CODEGEN--\":10000:10047   */\n  mstore\n    /* \"--CODEGEN--\":6315:6331   */\n  dup3\n    /* \"--CODEGEN--\":6309:6332   */\n  mload\n    /* \"--CODEGEN--\":9986:9988   */\n  0x20\n    /* \"--CODEGEN--\":9975:9984   */\n  dup4\n    /* \"--CODEGEN--\":9971:9989   */\n  add\n    /* \"--CODEGEN--\":7331:7368   */\n  mstore\n    /* \"--CODEGEN--\":9986:9988   */\n  0x20\n    /* \"--CODEGEN--\":6484:6489   */\n  dup4\n    /* \"--CODEGEN--\":6480:6496   */\n  add\n    /* \"--CODEGEN--\":6474:6497   */\n  mload\n    /* \"--CODEGEN--\":6503:6622   */\n  tag_109\n    /* \"--CODEGEN--\":6607:6621   */\n  0x40\n    /* \"--CODEGEN--\":9975:9984   */\n  dup5\n    /* \"--CODEGEN--\":6607:6621   */\n  add\n    /* \"--CODEGEN--\":6593:6605   */\n  dup3\n    /* \"--CODEGEN--\":6503:6622   */\n  jump(tag_98)\ntag_109:\n  pop\n    /* \"--CODEGEN--\":6607:6621   */\n  0x40\n    /* \"--CODEGEN--\":6706:6711   */\n  dup4\n    /* \"--CODEGEN--\":6702:6718   */\n  add\n    /* \"--CODEGEN--\":6696:6719   */\n  mload\n    /* \"--CODEGEN--\":6725:6844   */\n  tag_110\n    /* \"--CODEGEN--\":6829:6843   */\n  0x80\n    /* \"--CODEGEN--\":9975:9984   */\n  dup5\n    /* \"--CODEGEN--\":6829:6843   */\n  add\n    /* \"--CODEGEN--\":6815:6827   */\n  dup3\n    /* \"--CODEGEN--\":6725:6844   */\n  jump(tag_98)\ntag_110:\n  pop\n    /* \"--CODEGEN--\":6838:6842   */\n  0x60\n    /* \"--CODEGEN--\":6916:6932   */\n  dup4\n  add\n    /* \"--CODEGEN--\":6910:6933   */\n  mload\n  sub(shl(0xa0, 0x01), 0x01)\n    /* \"--CODEGEN--\":11830:11884   */\n  and\n    /* \"--CODEGEN--\":6987:7001   */\n  0xc0\n  dup4\n  add\n    /* \"--CODEGEN--\":3068:3105   */\n  mstore\n    /* \"--CODEGEN--\":6829:6843   */\n  0x80\n    /* \"--CODEGEN--\":7071:7087   */\n  dup4\n  add\n    /* \"--CODEGEN--\":7065:7088   */\n  mload\n    /* \"--CODEGEN--\":6233:6237   */\n  0xe0\n    /* \"--CODEGEN--\":7108:7122   */\n  dup1\n  dup5\n  add\n    /* \"--CODEGEN--\":7101:7139   */\n  mstore\n    /* \"--CODEGEN--\":10862:10874   */\n  dup1\n  mload\n    /* \"--CODEGEN--\":6224:6238   */\n  0x0100\n  dup5\n  add\n    /* \"--CODEGEN--\":11125:11144   */\n  dup2\n  swap1\n  mstore\n    /* \"--CODEGEN--\":11165:11179   */\n  0x0120\n    /* \"--CODEGEN--\":3449:3501   */\n  tag_111\n    /* \"--CODEGEN--\":10862:10874   */\n  dup3\n    /* \"--CODEGEN--\":11165:11179   */\n  dup3\n  dup8\n  add\n    /* \"--CODEGEN--\":9986:9988   */\n  0x20\n    /* \"--CODEGEN--\":3471:3487   */\n  dup7\n  add\n    /* \"--CODEGEN--\":3449:3501   */\n  jump(tag_81)\ntag_111:\n    /* \"--CODEGEN--\":11165:11179   */\n  dup1\n    /* \"--CODEGEN--\":10685:10694   */\n  not(0x1f)\n    /* \"--CODEGEN--\":12640:12642   */\n  0x1f\n    /* \"--CODEGEN--\":3544:3550   */\n  dup5\n    /* \"--CODEGEN--\":12620:12634   */\n  add\n    /* \"--CODEGEN--\":12616:12644   */\n  and\n    /* \"--CODEGEN--\":9975:9984   */\n  dup7\n    /* \"--CODEGEN--\":3513:3552   */\n  add\n  add\n    /* \"--CODEGEN--\":10053:10167   */\n  swap4\n  pop\n  pop\n  pop\n  pop\n    /* \"--CODEGEN--\":9957:10177   */\n  swap3\n  swap2\n  pop\n  pop\n  jump\n    /* \"--CODEGEN--\":10184:10440   */\ntag_78:\n    /* \"--CODEGEN--\":10246:10248   */\n  0x40\n    /* \"--CODEGEN--\":10240:10249   */\n  mload\n    /* \"--CODEGEN--\":10272:10289   */\n  dup2\n  dup2\n  add\n  sub(shl(0x40, 0x01), 0x01)\n    /* \"--CODEGEN--\":10332:10366   */\n  dup2\n  gt\n    /* \"--CODEGEN--\":10368:10390   */\n  dup3\n  dup3\n  lt\n    /* \"--CODEGEN--\":10329:10391   */\n  or\n    /* \"--CODEGEN--\":10326:10328   */\n  iszero\n  tag_113\n  jumpi\n    /* \"--CODEGEN--\":10404:10405   */\n  0x00\n  dup1\n    /* \"--CODEGEN--\":10394:10406   */\n  revert\n    /* \"--CODEGEN--\":10326:10328   */\ntag_113:\n    /* \"--CODEGEN--\":10246:10248   */\n  0x40\n    /* \"--CODEGEN--\":10413:10435   */\n  mstore\n    /* \"--CODEGEN--\":10224:10440   */\n  swap2\n  swap1\n  pop\n  jump\n    /* \"--CODEGEN--\":12276:12544   */\ntag_81:\n    /* \"--CODEGEN--\":12341:12342   */\n  0x00\n    /* \"--CODEGEN--\":12348:12449   */\ntag_115:\n    /* \"--CODEGEN--\":12362:12368   */\n  dup4\n    /* \"--CODEGEN--\":12359:12360   */\n  dup2\n    /* \"--CODEGEN--\":12356:12369   */\n  lt\n    /* \"--CODEGEN--\":12348:12449   */\n  iszero\n  tag_117\n  jumpi\n    /* \"--CODEGEN--\":12429:12440   */\n  dup2\n  dup2\n  add\n    /* \"--CODEGEN--\":12423:12441   */\n  mload\n    /* \"--CODEGEN--\":12410:12421   */\n  dup4\n  dup3\n  add\n    /* \"--CODEGEN--\":12403:12442   */\n  mstore\n    /* \"--CODEGEN--\":12384:12386   */\n  0x20\n    /* \"--CODEGEN--\":12377:12387   */\n  add\n    /* \"--CODEGEN--\":12348:12449   */\n  jump(tag_115)\ntag_117:\n    /* \"--CODEGEN--\":12464:12470   */\n  dup4\n    /* \"--CODEGEN--\":12461:12462   */\n  dup2\n    /* \"--CODEGEN--\":12458:12471   */\n  gt\n    /* \"--CODEGEN--\":12455:12457   */\n  iszero\n  tag_118\n  jumpi\n    /* \"--CODEGEN--\":12341:12342   */\n  0x00\n    /* \"--CODEGEN--\":12520:12526   */\n  dup5\n    /* \"--CODEGEN--\":12515:12518   */\n  dup5\n    /* \"--CODEGEN--\":12511:12527   */\n  add\n    /* \"--CODEGEN--\":12504:12531   */\n  mstore\n    /* \"--CODEGEN--\":12455:12457   */\ntag_118:\n  pop\n    /* \"--CODEGEN--\":12325:12544   */\n  pop\n  pop\n  pop\n  jump\ntag_69:\n    /* \".deps/npm/@aragon/govern-core/contracts/pipelines/GovernQueue.sol\":1317:14613  contract GovernQueue is IERC3000, AdaptativeERC165, IArbitrable, ACL {... */\n  dataSize(sub_0)\n  dup1\n  dataOffset(sub_0)\n  0x00\n  codecopy\n  0x00\n  return\nstop\ndata_d362f749f089a1a9de4f0d3f88fa363b60fa95d0fd14849ae74fff0612fc2768 7bc2a48a4a566e237a12186f19d985b0f76afc9d5290601edac19876253670c2\n\nsub_0: assembly {\n        /* \".deps/npm/@aragon/govern-core/contracts/pipelines/GovernQueue.sol\":1317:14613  contract GovernQueue is IERC3000, AdaptativeERC165, IArbitrable, ACL {... */\n      mstore(0x40, 0x80)\n      callvalue\n        /* \"--CODEGEN--\":5:14   */\n      dup1\n        /* \"--CODEGEN--\":2:4   */\n      iszero\n      tag_1\n      jumpi\n        /* \"--CODEGEN--\":27:28   */\n      0x00\n        /* \"--CODEGEN--\":24:25   */\n      dup1\n        /* \"--CODEGEN--\":17:29   */\n      revert\n        /* \"--CODEGEN--\":2:4   */\n    tag_1:\n        /* \".deps/npm/@aragon/govern-core/contracts/pipelines/GovernQueue.sol\":1317:14613  contract GovernQueue is IERC3000, AdaptativeERC165, IArbitrable, ACL {... */\n      pop\n      jumpi(tag_2, lt(calldatasize, 0x04))\n      shr(0xe0, calldataload(0x00))\n      dup1\n      0x7c10dea6\n      gt\n      tag_30\n      jumpi\n      dup1\n      0xb8ebe05e\n      gt\n      tag_31\n      jumpi\n      dup1\n      0xc04c87b8\n      gt\n      tag_32\n      jumpi\n      dup1\n      0xc04c87b8\n      eq\n      tag_26\n      jumpi\n      dup1\n      0xc8182af0\n      eq\n      tag_27\n      jumpi\n      dup1\n      0xcc1d4cab\n      eq\n      tag_28\n      jumpi\n      dup1\n      0xe1f1176d\n      eq\n      tag_29\n      jumpi\n      jump(tag_2)\n    tag_32:\n      dup1\n      0xb8ebe05e\n      eq\n      tag_23\n      jumpi\n      dup1\n      0xb9e9823f\n      eq\n      tag_24\n      jumpi\n      dup1\n      0xbdf9a726\n      eq\n      tag_25\n      jumpi\n      jump(tag_2)\n    tag_31:\n      dup1\n      0x977d8964\n      gt\n      tag_33\n      jumpi\n      dup1\n      0x977d8964\n      eq\n      tag_19\n      jumpi\n      dup1\n      0xa157a10d\n      eq\n      tag_20\n      jumpi\n      dup1\n      0xa2157227\n      eq\n      tag_21\n      jumpi\n      dup1\n      0xaffed0e0\n      eq\n      tag_22\n      jumpi\n      jump(tag_2)\n    tag_33:\n      dup1\n      0x7c10dea6\n      eq\n      tag_16\n      jumpi\n      dup1\n      0x7e8c7f08\n      eq\n      tag_17\n      jumpi\n      dup1\n      0x96fc8abd\n      eq\n      tag_18\n      jumpi\n      jump(tag_2)\n    tag_30:\n      dup1\n      0x3b1c5fc6\n      gt\n      tag_34\n      jumpi\n      dup1\n      0x58849734\n      gt\n      tag_35\n      jumpi\n      dup1\n      0x58849734\n      eq\n      tag_12\n      jumpi\n      dup1\n      0x59b6907a\n      eq\n      tag_13\n      jumpi\n      dup1\n      0x70576158\n      eq\n      tag_14\n      jumpi\n      dup1\n      0x72896761\n      eq\n      tag_15\n      jumpi\n      jump(tag_2)\n    tag_35:\n      dup1\n      0x3b1c5fc6\n      eq\n      tag_9\n      jumpi\n      dup1\n      0x495a9825\n      eq\n      tag_10\n      jumpi\n      dup1\n      0x55a33159\n      eq\n      tag_11\n      jumpi\n      jump(tag_2)\n    tag_34:\n      dup1\n      0x2a0d403e\n      gt\n      tag_36\n      jumpi\n      dup1\n      0x2a0d403e\n      eq\n      tag_6\n      jumpi\n      dup1\n      0x311a6c56\n      eq\n      tag_7\n      jumpi\n      dup1\n      0x3a139c71\n      eq\n      tag_8\n      jumpi\n      jump(tag_2)\n    tag_36:\n      dup1\n      0x01ffc9a7\n      eq\n      tag_3\n      jumpi\n      dup1\n      0x097c8108\n      eq\n      tag_4\n      jumpi\n      dup1\n      0x1c47671b\n      eq\n      tag_5\n      jumpi\n    tag_2:\n        /* \"--CODEGEN--\":12:13   */\n      0x00\n        /* \"--CODEGEN--\":9:10   */\n      dup1\n        /* \"--CODEGEN--\":2:14   */\n      revert\n        /* \"@aragon/govern-contract-utils/contracts/adaptative-erc165/AdaptativeERC165.sol\":618:806  function supportsInterface(bytes4 _interfaceId) override virtual public view returns (bool) {... */\n    tag_3:\n      tag_37\n      tag_38\n      calldatasize\n      0x04\n      jump(tag_39)\n    tag_38:\n      tag_40\n      jump\t// in\n    tag_37:\n      mload(0x40)\n      tag_41\n      swap2\n      swap1\n      jump(tag_42)\n    tag_41:\n      mload(0x40)\n      dup1\n      swap2\n      sub\n      swap1\n      return\n        /* \"@aragon/govern-contract-utils/contracts/acl/ACL.sol\":2529:3136  function willPerform(bytes4 _role, address _sender, bytes memory _data) public returns (bool) {... */\n    tag_4:\n      tag_37\n      tag_44\n      calldatasize\n      0x04\n      jump(tag_45)\n    tag_44:\n      tag_46\n      jump\t// in\n        /* \"@aragon/govern-contract-utils/contracts/acl/ACL.sol\":2091:2523  function bulk(ACLData.BulkItem[] memory items) public auth(ROOT_ROLE) {... */\n    tag_5:\n      tag_48\n      tag_49\n      calldatasize\n      0x04\n      jump(tag_50)\n    tag_49:\n      tag_51\n      jump\t// in\n    tag_48:\n      stop\n        /* \".deps/npm/@aragon/govern-core/contracts/pipelines/GovernQueue.sol\":9956:10914  function resolve(ERC3000Data.Container memory _container, uint256 _disputeId) override public returns (bytes32 failureMap, bytes[] memory execResults) {... */\n    tag_6:\n      tag_52\n      tag_53\n      calldatasize\n      0x04\n      jump(tag_54)\n    tag_53:\n      tag_55\n      jump\t// in\n    tag_52:\n      mload(0x40)\n      tag_41\n      swap3\n      swap2\n      swap1\n      jump(tag_57)\n        /* \".deps/npm/@aragon/govern-core/contracts/pipelines/GovernQueue.sol\":13237:13918  function rule(uint256 _disputeId, uint256 _ruling) override external {... */\n    tag_7:\n      tag_48\n      tag_59\n      calldatasize\n      0x04\n      jump(tag_60)\n    tag_59:\n      tag_61\n      jump\t// in\n        /* \".deps/npm/@aragon/govern-core/contracts/pipelines/GovernQueue.sol\":6244:7142  function execute(ERC3000Data.Container memory _container)... */\n    tag_8:\n      tag_52\n      tag_63\n      calldatasize\n      0x04\n      jump(tag_64)\n    tag_63:\n      tag_65\n      jump\t// in\n        /* \".deps/npm/@aragon/govern-core/contracts/pipelines/GovernQueue.sol\":2075:2152  mapping (IArbitrator => mapping (uint256 => bytes32)) public disputeItemCache */\n    tag_9:\n      tag_67\n      tag_68\n      calldatasize\n      0x04\n      jump(tag_69)\n    tag_68:\n      tag_70\n      jump\t// in\n    tag_67:\n      mload(0x40)\n      tag_41\n      swap2\n      swap1\n      jump(tag_72)\n        /* \"@aragon/govern-contract-utils/contracts/acl/ACL.sol\":3986:4109  function isFrozen(bytes4 _role) public view returns (bool) {... */\n    tag_10:\n      tag_37\n      tag_74\n      calldatasize\n      0x04\n      jump(tag_39)\n    tag_74:\n      tag_75\n      jump\t// in\n        /* \".deps/npm/@aragon/govern-core/contracts/pipelines/GovernQueue.sol\":11843:12570  function executeApproved(ERC3000Data.Container memory _container) public returns (bytes32 failureMap, bytes[] memory execResults) {... */\n    tag_11:\n      tag_52\n      tag_78\n      calldatasize\n      0x04\n      jump(tag_64)\n    tag_78:\n      tag_79\n      jump\t// in\n        /* \"@aragon/govern-contract-utils/contracts/acl/ACL.sol\":1887:1993  function revoke(bytes4 _role, address _who) external auth(ROOT_ROLE) {... */\n    tag_12:\n      tag_48\n      tag_82\n      calldatasize\n      0x04\n      jump(tag_83)\n    tag_82:\n      tag_84\n      jump\t// in\n        /* \".deps/npm/@aragon/govern-core/contracts/pipelines/GovernQueue.sol\":2720:2987  function initialize(address _aclRoot, ERC3000Data.Config memory _initialConfig) public initACL(_aclRoot) onlyInit(\"queue\") {... */\n    tag_13:\n      tag_48\n      tag_86\n      calldatasize\n      0x04\n      jump(tag_87)\n    tag_86:\n      tag_88\n      jump\t// in\n        /* \".deps/npm/@aragon/govern-core/contracts/pipelines/GovernQueue.sol\":7569:9574  function challenge(ERC3000Data.Container memory _container, bytes memory _reason) auth(this.challenge.selector) override public returns (uint256 disputeId) {... */\n    tag_14:\n      tag_67\n      tag_90\n      calldatasize\n      0x04\n      jump(tag_91)\n    tag_90:\n      tag_92\n      jump\t// in\n        /* \".deps/npm/@aragon/govern-core/contracts/pipelines/GovernQueue.sol\":11452:11649  function configure(ERC3000Data.Config memory _config)... */\n    tag_15:\n      tag_67\n      tag_96\n      calldatasize\n      0x04\n      jump(tag_97)\n    tag_96:\n      tag_98\n      jump\t// in\n        /* \".deps/npm/@aragon/govern-core/contracts/pipelines/GovernQueue.sol\":1794:1852  mapping (bytes32 => GovernQueueStateLib.Item) public queue */\n    tag_16:\n      tag_100\n      tag_101\n      calldatasize\n      0x04\n      jump(tag_102)\n    tag_101:\n      tag_103\n      jump\t// in\n    tag_100:\n      mload(0x40)\n      tag_41\n      swap2\n      swap1\n      jump(tag_105)\n        /* \"@aragon/govern-contract-utils/contracts/acl/ACL.sol\":368:521  bytes4 public constant ROOT_ROLE =... */\n    tag_17:\n      tag_106\n      tag_107\n      jump\t// in\n    tag_106:\n      mload(0x40)\n      tag_41\n      swap2\n      swap1\n      jump(tag_109)\n        /* \"@aragon/govern-contract-utils/contracts/acl/ACL.sol\":759:820  mapping (bytes4 => mapping (address => address)) public roles */\n    tag_18:\n      tag_110\n      tag_111\n      calldatasize\n      0x04\n      jump(tag_83)\n    tag_111:\n      tag_112\n      jump\t// in\n    tag_110:\n      mload(0x40)\n      tag_41\n      swap2\n      swap1\n      jump(tag_114)\n        /* \".deps/npm/@aragon/govern-core/contracts/pipelines/GovernQueue.sol\":3329:5930  function schedule(ERC3000Data.Container memory _container) // TO FIX: Container is in memory and function has to be public to avoid an unestrutable solidity crash... */\n    tag_19:\n      tag_67\n      tag_116\n      calldatasize\n      0x04\n      jump(tag_64)\n    tag_116:\n      tag_117\n      jump\t// in\n        /* \"@aragon/govern-contract-utils/contracts/acl/ACL.sol\":1618:1722  function grant(bytes4 _role, address _who) external auth(ROOT_ROLE) {... */\n    tag_20:\n      tag_48\n      tag_120\n      calldatasize\n      0x04\n      jump(tag_83)\n    tag_120:\n      tag_121\n      jump\t// in\n        /* \"@aragon/govern-contract-utils/contracts/acl/ACL.sol\":1728:1881  function grantWithOracle(bytes4 _role, address _who, IACLOracle _oracle) external auth(ROOT_ROLE) {... */\n    tag_21:\n      tag_48\n      tag_123\n      calldatasize\n      0x04\n      jump(tag_124)\n    tag_123:\n      tag_125\n      jump\t// in\n        /* \".deps/npm/@aragon/govern-core/contracts/pipelines/GovernQueue.sol\":1729:1749  uint256 public nonce */\n    tag_22:\n      tag_67\n      tag_127\n      jump\t// in\n        /* \".deps/npm/@aragon/govern-core/contracts/pipelines/GovernQueue.sol\":12576:13212  function settleRejection(ERC3000Data.Container memory _container) public {... */\n    tag_23:\n      tag_48\n      tag_130\n      calldatasize\n      0x04\n      jump(tag_64)\n    tag_130:\n      tag_131\n      jump\t// in\n        /* \".deps/npm/@aragon/govern-core/contracts/pipelines/GovernQueue.sol\":13924:14069  function submitEvidence(... */\n    tag_24:\n      tag_48\n      tag_133\n      calldatasize\n      0x04\n      jump(tag_134)\n    tag_133:\n      tag_135\n      jump\t// in\n        /* \"@aragon/govern-contract-utils/contracts/acl/ACL.sol\":1999:2085  function freeze(bytes4 _role) external auth(ROOT_ROLE) {... */\n    tag_25:\n      tag_48\n      tag_137\n      calldatasize\n      0x04\n      jump(tag_39)\n    tag_137:\n      tag_138\n      jump\t// in\n        /* \".deps/npm/@aragon/govern-core/contracts/pipelines/GovernQueue.sol\":10920:11243  function veto(bytes32 _containerHash, bytes memory _reason) auth(this.veto.selector) override public {... */\n    tag_26:\n      tag_48\n      tag_140\n      calldatasize\n      0x04\n      jump(tag_141)\n    tag_140:\n      tag_142\n      jump\t// in\n        /* \".deps/npm/@aragon/govern-core/contracts/pipelines/GovernQueue.sol\":1919:1970  mapping (bytes32 => address) public challengerCache */\n    tag_27:\n      tag_110\n      tag_144\n      calldatasize\n      0x04\n      jump(tag_102)\n    tag_144:\n      tag_145\n      jump\t// in\n        /* \"@aragon/govern-contract-utils/contracts/initializable/Initializable.sol\":96:141  mapping (string => uint256) public initBlocks */\n    tag_28:\n      tag_67\n      tag_148\n      calldatasize\n      0x04\n      jump(tag_149)\n    tag_148:\n      tag_150\n      jump\t// in\n        /* \".deps/npm/@aragon/govern-core/contracts/pipelines/GovernQueue.sol\":1646:1671  bytes32 public configHash */\n    tag_29:\n      tag_67\n      tag_153\n      jump\t// in\n        /* \"@aragon/govern-contract-utils/contracts/adaptative-erc165/AdaptativeERC165.sol\":618:806  function supportsInterface(bytes4 _interfaceId) override virtual public view returns (bool) {... */\n    tag_40:\n        /* \"@aragon/govern-contract-utils/contracts/adaptative-erc165/AdaptativeERC165.sol\":727:758  standardSupported[_interfaceId] */\n      0xffffffff00000000000000000000000000000000000000000000000000000000\n      dup2\n      and\n        /* \"@aragon/govern-contract-utils/contracts/adaptative-erc165/AdaptativeERC165.sol\":704:708  bool */\n      0x00\n        /* \"@aragon/govern-contract-utils/contracts/adaptative-erc165/AdaptativeERC165.sol\":727:758  standardSupported[_interfaceId] */\n      swap1\n      dup2\n      mstore\n      0x20\n      dup2\n      swap1\n      mstore\n      0x40\n      dup2\n      keccak256\n      sload\n      0xff\n      and\n      dup1\n        /* \"@aragon/govern-contract-utils/contracts/adaptative-erc165/AdaptativeERC165.sol\":727:799  standardSupported[_interfaceId] || super.supportsInterface(_interfaceId) */\n      tag_158\n      jumpi\n      pop\n        /* \"@aragon/govern-contract-utils/contracts/adaptative-erc165/AdaptativeERC165.sol\":762:799  super.supportsInterface(_interfaceId) */\n      tag_158\n        /* \"@aragon/govern-contract-utils/contracts/adaptative-erc165/AdaptativeERC165.sol\":786:798  _interfaceId */\n      dup3\n        /* \"@aragon/govern-contract-utils/contracts/adaptative-erc165/AdaptativeERC165.sol\":762:785  super.supportsInterface */\n      tag_159\n        /* \"@aragon/govern-contract-utils/contracts/adaptative-erc165/AdaptativeERC165.sol\":762:799  super.supportsInterface(_interfaceId) */\n      jump\t// in\n    tag_158:\n        /* \"@aragon/govern-contract-utils/contracts/adaptative-erc165/AdaptativeERC165.sol\":720:799  return standardSupported[_interfaceId] || super.supportsInterface(_interfaceId) */\n      swap3\n        /* \"@aragon/govern-contract-utils/contracts/adaptative-erc165/AdaptativeERC165.sol\":618:806  function supportsInterface(bytes4 _interfaceId) override virtual public view returns (bool) {... */\n      swap2\n      pop\n      pop\n      jump\t// out\n        /* \"@aragon/govern-contract-utils/contracts/acl/ACL.sol\":2529:3136  function willPerform(bytes4 _role, address _sender, bytes memory _data) public returns (bool) {... */\n    tag_46:\n        /* \"@aragon/govern-contract-utils/contracts/acl/ACL.sol\":2654:2666  roles[_role] */\n      0xffffffff00000000000000000000000000000000000000000000000000000000\n      dup4\n      and\n        /* \"@aragon/govern-contract-utils/contracts/acl/ACL.sol\":2617:2621  bool */\n      0x00\n        /* \"@aragon/govern-contract-utils/contracts/acl/ACL.sol\":2654:2666  roles[_role] */\n      swap1\n      dup2\n      mstore\n        /* \"@aragon/govern-contract-utils/contracts/acl/ACL.sol\":2654:2659  roles */\n      0x03\n        /* \"@aragon/govern-contract-utils/contracts/acl/ACL.sol\":2654:2666  roles[_role] */\n      0x20\n      swap1\n      dup2\n      mstore\n      0x40\n      dup1\n      dup4\n      keccak256\n        /* \"@aragon/govern-contract-utils/contracts/acl/ACL.sol\":2667:2677  msg.sender */\n      caller\n        /* \"@aragon/govern-contract-utils/contracts/acl/ACL.sol\":2654:2678  roles[_role][msg.sender] */\n      dup5\n      mstore\n      swap1\n      swap2\n      mstore\n      dup2\n      keccak256\n      sload\n      0xffffffffffffffffffffffffffffffffffffffff\n      and\n        /* \"@aragon/govern-contract-utils/contracts/acl/ACL.sol\":2692:2716  senderRole != UNSET_ROLE */\n      dup1\n      iszero\n        /* \"@aragon/govern-contract-utils/contracts/acl/ACL.sol\":2688:2872  if (senderRole != UNSET_ROLE) {... */\n      tag_170\n      jumpi\n        /* \"@aragon/govern-contract-utils/contracts/acl/ACL.sol\":2736:2760  senderRole == ALLOW_FLAG */\n      0xffffffffffffffffffffffffffffffffffffffff\n      dup2\n      and\n        /* \"@aragon/govern-contract-utils/contracts/acl/ACL.sol\":746:747  2 */\n      0x02\n        /* \"@aragon/govern-contract-utils/contracts/acl/ACL.sol\":2736:2760  senderRole == ALLOW_FLAG */\n      eq\n        /* \"@aragon/govern-contract-utils/contracts/acl/ACL.sol\":2732:2773  if (senderRole == ALLOW_FLAG) return true */\n      iszero\n      tag_162\n      jumpi\n        /* \"@aragon/govern-contract-utils/contracts/acl/ACL.sol\":2769:2773  true */\n      0x01\n        /* \"@aragon/govern-contract-utils/contracts/acl/ACL.sol\":2762:2773  return true */\n      swap2\n      pop\n      pop\n      jump(tag_160)\n        /* \"@aragon/govern-contract-utils/contracts/acl/ACL.sol\":2732:2773  if (senderRole == ALLOW_FLAG) return true */\n    tag_162:\n        /* \"@aragon/govern-contract-utils/contracts/acl/ACL.sol\":2791:2848  IACLOracle(senderRole).willPerform(_role, _sender, _data) */\n      mload(0x40)\n      0x097c810800000000000000000000000000000000000000000000000000000000\n      dup2\n      mstore\n        /* \"@aragon/govern-contract-utils/contracts/acl/ACL.sol\":2791:2825  IACLOracle(senderRole).willPerform */\n      0xffffffffffffffffffffffffffffffffffffffff\n      dup3\n      and\n      swap1\n      0x097c8108\n      swap1\n        /* \"@aragon/govern-contract-utils/contracts/acl/ACL.sol\":2791:2848  IACLOracle(senderRole).willPerform(_role, _sender, _data) */\n      tag_163\n      swap1\n        /* \"@aragon/govern-contract-utils/contracts/acl/ACL.sol\":2826:2831  _role */\n      dup9\n      swap1\n        /* \"@aragon/govern-contract-utils/contracts/acl/ACL.sol\":2833:2840  _sender */\n      dup9\n      swap1\n        /* \"@aragon/govern-contract-utils/contracts/acl/ACL.sol\":2842:2847  _data */\n      dup9\n      swap1\n        /* \"@aragon/govern-contract-utils/contracts/acl/ACL.sol\":2791:2848  IACLOracle(senderRole).willPerform(_role, _sender, _data) */\n      0x04\n      add\n      jump(tag_164)\n    tag_163:\n      0x20\n      mload(0x40)\n      dup1\n      dup4\n      sub\n      dup2\n      0x00\n      dup8\n      dup1\n      extcodesize\n      iszero\n        /* \"--CODEGEN--\":5:14   */\n      dup1\n        /* \"--CODEGEN--\":2:4   */\n      iszero\n      tag_165\n      jumpi\n        /* \"--CODEGEN--\":27:28   */\n      0x00\n        /* \"--CODEGEN--\":24:25   */\n      dup1\n        /* \"--CODEGEN--\":17:29   */\n      revert\n        /* \"--CODEGEN--\":2:4   */\n    tag_165:\n        /* \"@aragon/govern-contract-utils/contracts/acl/ACL.sol\":2791:2848  IACLOracle(senderRole).willPerform(_role, _sender, _data) */\n      pop\n      gas\n      call\n      iszero\n        /* \"--CODEGEN--\":8:17   */\n      dup1\n        /* \"--CODEGEN--\":5:7   */\n      iszero\n      tag_167\n      jumpi\n        /* \"--CODEGEN--\":45:61   */\n      returndatasize\n        /* \"--CODEGEN--\":42:43   */\n      0x00\n        /* \"--CODEGEN--\":39:40   */\n      dup1\n        /* \"--CODEGEN--\":24:62   */\n      returndatacopy\n        /* \"--CODEGEN--\":77:93   */\n      returndatasize\n        /* \"--CODEGEN--\":74:75   */\n      0x00\n        /* \"--CODEGEN--\":67:94   */\n      revert\n        /* \"--CODEGEN--\":5:7   */\n    tag_167:\n        /* \"@aragon/govern-contract-utils/contracts/acl/ACL.sol\":2791:2848  IACLOracle(senderRole).willPerform(_role, _sender, _data) */\n      pop\n      pop\n      pop\n      pop\n      mload(0x40)\n      returndatasize\n        /* \"--CODEGEN--\":101:105   */\n      0x1f\n        /* \"--CODEGEN--\":97:106   */\n      not\n        /* \"--CODEGEN--\":90:94   */\n      0x1f\n        /* \"--CODEGEN--\":84:88   */\n      dup3\n        /* \"--CODEGEN--\":80:95   */\n      add\n        /* \"--CODEGEN--\":76:107   */\n      and\n        /* \"--CODEGEN--\":69:74   */\n      dup3\n        /* \"--CODEGEN--\":65:108   */\n      add\n        /* \"--CODEGEN--\":126:132   */\n      dup1\n        /* \"--CODEGEN--\":120:124   */\n      0x40\n        /* \"--CODEGEN--\":113:133   */\n      mstore\n        /* \"--CODEGEN--\":0:138   */\n      pop\n        /* \"@aragon/govern-contract-utils/contracts/acl/ACL.sol\":2791:2848  IACLOracle(senderRole).willPerform(_role, _sender, _data) */\n      dup2\n      add\n      swap1\n      tag_168\n      swap2\n      swap1\n      jump(tag_169)\n    tag_168:\n        /* \"@aragon/govern-contract-utils/contracts/acl/ACL.sol\":2787:2861  if (IACLOracle(senderRole).willPerform(_role, _sender, _data)) return true */\n      iszero\n      tag_170\n      jumpi\n        /* \"@aragon/govern-contract-utils/contracts/acl/ACL.sol\":2857:2861  true */\n      0x01\n        /* \"@aragon/govern-contract-utils/contracts/acl/ACL.sol\":2850:2861  return true */\n      swap2\n      pop\n      pop\n      jump(tag_160)\n        /* \"@aragon/govern-contract-utils/contracts/acl/ACL.sol\":2787:2861  if (IACLOracle(senderRole).willPerform(_role, _sender, _data)) return true */\n    tag_170:\n        /* \"@aragon/govern-contract-utils/contracts/acl/ACL.sol\":2900:2912  roles[_role] */\n      0xffffffff00000000000000000000000000000000000000000000000000000000\n      dup6\n      and\n        /* \"@aragon/govern-contract-utils/contracts/acl/ACL.sol\":2882:2897  address anyRole */\n      0x00\n        /* \"@aragon/govern-contract-utils/contracts/acl/ACL.sol\":2900:2912  roles[_role] */\n      swap1\n      dup2\n      mstore\n        /* \"@aragon/govern-contract-utils/contracts/acl/ACL.sol\":2900:2905  roles */\n      0x03\n        /* \"@aragon/govern-contract-utils/contracts/acl/ACL.sol\":2900:2912  roles[_role] */\n      0x20\n      swap1\n      dup2\n      mstore\n      0x40\n      dup1\n      dup4\n      keccak256\n        /* \"@aragon/govern-contract-utils/contracts/acl/ACL.sol\":2900:2922  roles[_role][ANY_ADDR] */\n      0xffffffffffffffffffffffffffffffffffffffff\n      dup1\n      dup6\n      mstore\n      swap3\n      mstore\n      swap1\n      swap2\n      keccak256\n      sload\n      and\n        /* \"@aragon/govern-contract-utils/contracts/acl/ACL.sol\":2936:2957  anyRole != UNSET_ROLE */\n      dup1\n      iszero\n        /* \"@aragon/govern-contract-utils/contracts/acl/ACL.sol\":2932:3107  if (anyRole != UNSET_ROLE) {... */\n      tag_178\n      jumpi\n        /* \"@aragon/govern-contract-utils/contracts/acl/ACL.sol\":2977:2998  anyRole == ALLOW_FLAG */\n      0xffffffffffffffffffffffffffffffffffffffff\n      dup2\n      and\n        /* \"@aragon/govern-contract-utils/contracts/acl/ACL.sol\":746:747  2 */\n      0x02\n        /* \"@aragon/govern-contract-utils/contracts/acl/ACL.sol\":2977:2998  anyRole == ALLOW_FLAG */\n      eq\n        /* \"@aragon/govern-contract-utils/contracts/acl/ACL.sol\":2973:3011  if (anyRole == ALLOW_FLAG) return true */\n      iszero\n      tag_172\n      jumpi\n        /* \"@aragon/govern-contract-utils/contracts/acl/ACL.sol\":3007:3011  true */\n      0x01\n        /* \"@aragon/govern-contract-utils/contracts/acl/ACL.sol\":3000:3011  return true */\n      swap3\n      pop\n      pop\n      pop\n      jump(tag_160)\n        /* \"@aragon/govern-contract-utils/contracts/acl/ACL.sol\":2973:3011  if (anyRole == ALLOW_FLAG) return true */\n    tag_172:\n        /* \"@aragon/govern-contract-utils/contracts/acl/ACL.sol\":3029:3083  IACLOracle(anyRole).willPerform(_role, _sender, _data) */\n      mload(0x40)\n      0x097c810800000000000000000000000000000000000000000000000000000000\n      dup2\n      mstore\n        /* \"@aragon/govern-contract-utils/contracts/acl/ACL.sol\":3029:3060  IACLOracle(anyRole).willPerform */\n      0xffffffffffffffffffffffffffffffffffffffff\n      dup3\n      and\n      swap1\n      0x097c8108\n      swap1\n        /* \"@aragon/govern-contract-utils/contracts/acl/ACL.sol\":3029:3083  IACLOracle(anyRole).willPerform(_role, _sender, _data) */\n      tag_173\n      swap1\n        /* \"@aragon/govern-contract-utils/contracts/acl/ACL.sol\":3061:3066  _role */\n      dup10\n      swap1\n        /* \"@aragon/govern-contract-utils/contracts/acl/ACL.sol\":3068:3075  _sender */\n      dup10\n      swap1\n        /* \"@aragon/govern-contract-utils/contracts/acl/ACL.sol\":3077:3082  _data */\n      dup10\n      swap1\n        /* \"@aragon/govern-contract-utils/contracts/acl/ACL.sol\":3029:3083  IACLOracle(anyRole).willPerform(_role, _sender, _data) */\n      0x04\n      add\n      jump(tag_164)\n    tag_173:\n      0x20\n      mload(0x40)\n      dup1\n      dup4\n      sub\n      dup2\n      0x00\n      dup8\n      dup1\n      extcodesize\n      iszero\n        /* \"--CODEGEN--\":5:14   */\n      dup1\n        /* \"--CODEGEN--\":2:4   */\n      iszero\n      tag_174\n      jumpi\n        /* \"--CODEGEN--\":27:28   */\n      0x00\n        /* \"--CODEGEN--\":24:25   */\n      dup1\n        /* \"--CODEGEN--\":17:29   */\n      revert\n        /* \"--CODEGEN--\":2:4   */\n    tag_174:\n        /* \"@aragon/govern-contract-utils/contracts/acl/ACL.sol\":3029:3083  IACLOracle(anyRole).willPerform(_role, _sender, _data) */\n      pop\n      gas\n      call\n      iszero\n        /* \"--CODEGEN--\":8:17   */\n      dup1\n        /* \"--CODEGEN--\":5:7   */\n      iszero\n      tag_176\n      jumpi\n        /* \"--CODEGEN--\":45:61   */\n      returndatasize\n        /* \"--CODEGEN--\":42:43   */\n      0x00\n        /* \"--CODEGEN--\":39:40   */\n      dup1\n        /* \"--CODEGEN--\":24:62   */\n      returndatacopy\n        /* \"--CODEGEN--\":77:93   */\n      returndatasize\n        /* \"--CODEGEN--\":74:75   */\n      0x00\n        /* \"--CODEGEN--\":67:94   */\n      revert\n        /* \"--CODEGEN--\":5:7   */\n    tag_176:\n        /* \"@aragon/govern-contract-utils/contracts/acl/ACL.sol\":3029:3083  IACLOracle(anyRole).willPerform(_role, _sender, _data) */\n      pop\n      pop\n      pop\n      pop\n      mload(0x40)\n      returndatasize\n        /* \"--CODEGEN--\":101:105   */\n      0x1f\n        /* \"--CODEGEN--\":97:106   */\n      not\n        /* \"--CODEGEN--\":90:94   */\n      0x1f\n        /* \"--CODEGEN--\":84:88   */\n      dup3\n        /* \"--CODEGEN--\":80:95   */\n      add\n        /* \"--CODEGEN--\":76:107   */\n      and\n        /* \"--CODEGEN--\":69:74   */\n      dup3\n        /* \"--CODEGEN--\":65:108   */\n      add\n        /* \"--CODEGEN--\":126:132   */\n      dup1\n        /* \"--CODEGEN--\":120:124   */\n      0x40\n        /* \"--CODEGEN--\":113:133   */\n      mstore\n        /* \"--CODEGEN--\":0:138   */\n      pop\n        /* \"@aragon/govern-contract-utils/contracts/acl/ACL.sol\":3029:3083  IACLOracle(anyRole).willPerform(_role, _sender, _data) */\n      dup2\n      add\n      swap1\n      tag_177\n      swap2\n      swap1\n      jump(tag_169)\n    tag_177:\n        /* \"@aragon/govern-contract-utils/contracts/acl/ACL.sol\":3025:3096  if (IACLOracle(anyRole).willPerform(_role, _sender, _data)) return true */\n      iszero\n      tag_178\n      jumpi\n        /* \"@aragon/govern-contract-utils/contracts/acl/ACL.sol\":3092:3096  true */\n      0x01\n        /* \"@aragon/govern-contract-utils/contracts/acl/ACL.sol\":3085:3096  return true */\n      swap3\n      pop\n      pop\n      pop\n      jump(tag_160)\n        /* \"@aragon/govern-contract-utils/contracts/acl/ACL.sol\":3025:3096  if (IACLOracle(anyRole).willPerform(_role, _sender, _data)) return true */\n    tag_178:\n        /* \"@aragon/govern-contract-utils/contracts/acl/ACL.sol\":3124:3129  false */\n      0x00\n        /* \"@aragon/govern-contract-utils/contracts/acl/ACL.sol\":3117:3129  return false */\n      swap3\n      pop\n      pop\n      pop\n        /* \"@aragon/govern-contract-utils/contracts/acl/ACL.sol\":2529:3136  function willPerform(bytes4 _role, address _sender, bytes memory _data) public returns (bool) {... */\n    tag_160:\n      swap4\n      swap3\n      pop\n      pop\n      pop\n      jump\t// out\n        /* \"@aragon/govern-contract-utils/contracts/acl/ACL.sol\":2091:2523  function bulk(ACLData.BulkItem[] memory items) public auth(ROOT_ROLE) {... */\n    tag_51:\n        /* \"@aragon/govern-contract-utils/contracts/acl/ACL.sol\":1123:1163  willPerform(_role, msg.sender, msg.data) */\n      0x40\n      dup1\n      mload\n      0x20\n        /* \"@aragon/govern-contract-utils/contracts/acl/ACL.sol\":1154:1162  msg.data */\n      calldatasize\n        /* \"@aragon/govern-contract-utils/contracts/acl/ACL.sol\":1123:1163  willPerform(_role, msg.sender, msg.data) */\n      0x1f\n      dup2\n      add\n      dup3\n      swap1\n      div\n      dup3\n      mul\n      dup4\n      add\n      dup3\n      add\n      swap1\n      swap4\n      mstore\n      dup3\n      dup3\n      mstore\n        /* \"@aragon/govern-contract-utils/contracts/acl/ACL.sol\":411:521  this.grant.selector... */\n      0x586df60400000000000000000000000000000000000000000000000000000000\n      swap3\n        /* \"@aragon/govern-contract-utils/contracts/acl/ACL.sol\":1123:1163  willPerform(_role, msg.sender, msg.data) */\n      tag_180\n      swap3\n        /* \"@aragon/govern-contract-utils/contracts/acl/ACL.sol\":411:521  this.grant.selector... */\n      dup5\n      swap3\n        /* \"@aragon/govern-contract-utils/contracts/acl/ACL.sol\":1142:1152  msg.sender */\n      caller\n      swap3\n      0x00\n      swap2\n        /* \"@aragon/govern-contract-utils/contracts/acl/ACL.sol\":1154:1162  msg.data */\n      dup2\n      swap1\n        /* \"@aragon/govern-contract-utils/contracts/acl/ACL.sol\":1123:1163  willPerform(_role, msg.sender, msg.data) */\n      dup5\n      add\n      dup4\n        /* \"@aragon/govern-contract-utils/contracts/acl/ACL.sol\":1154:1162  msg.data */\n      dup3\n      dup1\n      dup3\n        /* \"@aragon/govern-contract-utils/contracts/acl/ACL.sol\":1123:1163  willPerform(_role, msg.sender, msg.data) */\n      dup5\n        /* \"--CODEGEN--\":1:34   */\n      calldatacopy\n        /* \"--CODEGEN--\":99:100   */\n      0x00\n        /* \"--CODEGEN--\":81:97   */\n      swap3\n      add\n        /* \"--CODEGEN--\":74:101   */\n      swap2\n      swap1\n      swap2\n      mstore\n      pop\n        /* \"@aragon/govern-contract-utils/contracts/acl/ACL.sol\":1123:1134  willPerform */\n      tag_46\n      swap3\n      pop\n      pop\n      pop\n        /* \"@aragon/govern-contract-utils/contracts/acl/ACL.sol\":1123:1163  willPerform(_role, msg.sender, msg.data) */\n      jump\t// in\n    tag_180:\n        /* \"@aragon/govern-contract-utils/contracts/acl/ACL.sol\":1115:1177  require(willPerform(_role, msg.sender, msg.data), \"acl: auth\") */\n      tag_181\n      jumpi\n      mload(0x40)\n      shl(0xe5, 0x461bcd)\n      dup2\n      mstore\n      0x04\n      add\n      tag_182\n      swap1\n      jump(tag_183)\n    tag_182:\n      mload(0x40)\n      dup1\n      swap2\n      sub\n      swap1\n      revert\n    tag_181:\n        /* \"@aragon/govern-contract-utils/contracts/acl/ACL.sol\":2176:2185  uint256 i */\n      0x00\n        /* \"@aragon/govern-contract-utils/contracts/acl/ACL.sol\":2171:2517  for (uint256 i = 0; i < items.length; i++) {... */\n    tag_185:\n        /* \"@aragon/govern-contract-utils/contracts/acl/ACL.sol\":2195:2200  items */\n      dup3\n        /* \"@aragon/govern-contract-utils/contracts/acl/ACL.sol\":2195:2207  items.length */\n      mload\n        /* \"@aragon/govern-contract-utils/contracts/acl/ACL.sol\":2191:2192  i */\n      dup2\n        /* \"@aragon/govern-contract-utils/contracts/acl/ACL.sol\":2191:2207  i < items.length */\n      lt\n        /* \"@aragon/govern-contract-utils/contracts/acl/ACL.sol\":2171:2517  for (uint256 i = 0; i < items.length; i++) {... */\n      iszero\n      tag_186\n      jumpi\n        /* \"@aragon/govern-contract-utils/contracts/acl/ACL.sol\":2228:2256  ACLData.BulkItem memory item */\n      tag_188\n      tag_189\n      jump\t// in\n    tag_188:\n        /* \"@aragon/govern-contract-utils/contracts/acl/ACL.sol\":2259:2264  items */\n      dup4\n        /* \"@aragon/govern-contract-utils/contracts/acl/ACL.sol\":2265:2266  i */\n      dup3\n        /* \"@aragon/govern-contract-utils/contracts/acl/ACL.sol\":2259:2267  items[i] */\n      dup2\n      mload\n      dup2\n      lt\n      tag_190\n      jumpi\n      invalid\n    tag_190:\n      0x20\n      mul\n      0x20\n      add\n      add\n      mload\n        /* \"@aragon/govern-contract-utils/contracts/acl/ACL.sol\":2228:2267  ACLData.BulkItem memory item = items[i] */\n      swap1\n      pop\n        /* \"@aragon/govern-contract-utils/contracts/acl/ACL.sol\":2297:2317  ACLData.BulkOp.Grant */\n      0x00\n        /* \"@aragon/govern-contract-utils/contracts/acl/ACL.sol\":2286:2317  item.op == ACLData.BulkOp.Grant */\n      0x02\n      dup2\n      gt\n      iszero\n      tag_191\n      jumpi\n      invalid\n    tag_191:\n        /* \"@aragon/govern-contract-utils/contracts/acl/ACL.sol\":2286:2293  item.op */\n      dup2\n      mload\n        /* \"@aragon/govern-contract-utils/contracts/acl/ACL.sol\":2286:2317  item.op == ACLData.BulkOp.Grant */\n      0x02\n      dup2\n      gt\n      iszero\n      tag_192\n      jumpi\n      invalid\n    tag_192:\n      eq\n        /* \"@aragon/govern-contract-utils/contracts/acl/ACL.sol\":2282:2506  if (item.op == ACLData.BulkOp.Grant) _grant(item.role, item.who);... */\n      iszero\n      tag_193\n      jumpi\n        /* \"@aragon/govern-contract-utils/contracts/acl/ACL.sol\":2319:2346  _grant(item.role, item.who) */\n      tag_194\n        /* \"@aragon/govern-contract-utils/contracts/acl/ACL.sol\":2326:2330  item */\n      dup2\n        /* \"@aragon/govern-contract-utils/contracts/acl/ACL.sol\":2326:2335  item.role */\n      0x20\n      add\n      mload\n        /* \"@aragon/govern-contract-utils/contracts/acl/ACL.sol\":2337:2341  item */\n      dup3\n        /* \"@aragon/govern-contract-utils/contracts/acl/ACL.sol\":2337:2345  item.who */\n      0x40\n      add\n      mload\n        /* \"@aragon/govern-contract-utils/contracts/acl/ACL.sol\":2319:2325  _grant */\n      tag_195\n        /* \"@aragon/govern-contract-utils/contracts/acl/ACL.sol\":2319:2346  _grant(item.role, item.who) */\n      jump\t// in\n    tag_194:\n        /* \"@aragon/govern-contract-utils/contracts/acl/ACL.sol\":2282:2506  if (item.op == ACLData.BulkOp.Grant) _grant(item.role, item.who);... */\n      jump(tag_206)\n    tag_193:\n        /* \"@aragon/govern-contract-utils/contracts/acl/ACL.sol\":2380:2401  ACLData.BulkOp.Revoke */\n      0x01\n        /* \"@aragon/govern-contract-utils/contracts/acl/ACL.sol\":2369:2376  item.op */\n      dup2\n      mload\n        /* \"@aragon/govern-contract-utils/contracts/acl/ACL.sol\":2369:2401  item.op == ACLData.BulkOp.Revoke */\n      0x02\n      dup2\n      gt\n      iszero\n      tag_198\n      jumpi\n      invalid\n    tag_198:\n      eq\n        /* \"@aragon/govern-contract-utils/contracts/acl/ACL.sol\":2365:2506  if (item.op == ACLData.BulkOp.Revoke) _revoke(item.role, item.who);... */\n      iszero\n      tag_199\n      jumpi\n        /* \"@aragon/govern-contract-utils/contracts/acl/ACL.sol\":2403:2431  _revoke(item.role, item.who) */\n      tag_194\n        /* \"@aragon/govern-contract-utils/contracts/acl/ACL.sol\":2411:2415  item */\n      dup2\n        /* \"@aragon/govern-contract-utils/contracts/acl/ACL.sol\":2411:2420  item.role */\n      0x20\n      add\n      mload\n        /* \"@aragon/govern-contract-utils/contracts/acl/ACL.sol\":2422:2426  item */\n      dup3\n        /* \"@aragon/govern-contract-utils/contracts/acl/ACL.sol\":2422:2430  item.who */\n      0x40\n      add\n      mload\n        /* \"@aragon/govern-contract-utils/contracts/acl/ACL.sol\":2403:2410  _revoke */\n      tag_201\n        /* \"@aragon/govern-contract-utils/contracts/acl/ACL.sol\":2403:2431  _revoke(item.role, item.who) */\n      jump\t// in\n        /* \"@aragon/govern-contract-utils/contracts/acl/ACL.sol\":2365:2506  if (item.op == ACLData.BulkOp.Revoke) _revoke(item.role, item.who);... */\n    tag_199:\n        /* \"@aragon/govern-contract-utils/contracts/acl/ACL.sol\":2465:2486  ACLData.BulkOp.Freeze */\n      0x02\n        /* \"@aragon/govern-contract-utils/contracts/acl/ACL.sol\":2454:2461  item.op */\n      dup2\n      mload\n        /* \"@aragon/govern-contract-utils/contracts/acl/ACL.sol\":2454:2486  item.op == ACLData.BulkOp.Freeze */\n      0x02\n      dup2\n      gt\n      iszero\n      tag_204\n      jumpi\n      invalid\n    tag_204:\n      eq\n        /* \"@aragon/govern-contract-utils/contracts/acl/ACL.sol\":2450:2506  if (item.op == ACLData.BulkOp.Freeze) _freeze(item.role) */\n      iszero\n      tag_206\n      jumpi\n        /* \"@aragon/govern-contract-utils/contracts/acl/ACL.sol\":2488:2506  _freeze(item.role) */\n      tag_206\n        /* \"@aragon/govern-contract-utils/contracts/acl/ACL.sol\":2496:2500  item */\n      dup2\n        /* \"@aragon/govern-contract-utils/contracts/acl/ACL.sol\":2496:2505  item.role */\n      0x20\n      add\n      mload\n        /* \"@aragon/govern-contract-utils/contracts/acl/ACL.sol\":2488:2495  _freeze */\n      tag_207\n        /* \"@aragon/govern-contract-utils/contracts/acl/ACL.sol\":2488:2506  _freeze(item.role) */\n      jump\t// in\n    tag_206:\n      pop\n        /* \"@aragon/govern-contract-utils/contracts/acl/ACL.sol\":2209:2212  i++ */\n      0x01\n      add\n        /* \"@aragon/govern-contract-utils/contracts/acl/ACL.sol\":2171:2517  for (uint256 i = 0; i < items.length; i++) {... */\n      jump(tag_185)\n    tag_186:\n      pop\n        /* \"@aragon/govern-contract-utils/contracts/acl/ACL.sol\":2091:2523  function bulk(ACLData.BulkItem[] memory items) public auth(ROOT_ROLE) {... */\n      pop\n      pop\n      jump\t// out\n        /* \".deps/npm/@aragon/govern-core/contracts/pipelines/GovernQueue.sol\":9956:10914  function resolve(ERC3000Data.Container memory _container, uint256 _disputeId) override public returns (bytes32 failureMap, bytes[] memory execResults) {... */\n    tag_55:\n        /* \".deps/npm/@aragon/govern-core/contracts/pipelines/GovernQueue.sol\":10059:10077  bytes32 failureMap */\n      0x00\n        /* \".deps/npm/@aragon/govern-core/contracts/pipelines/GovernQueue.sol\":10079:10105  bytes[] memory execResults */\n      0x60\n        /* \".deps/npm/@aragon/govern-core/contracts/pipelines/GovernQueue.sol\":10117:10138  bytes32 containerHash */\n      0x00\n        /* \".deps/npm/@aragon/govern-core/contracts/pipelines/GovernQueue.sol\":10141:10158  _container.hash() */\n      tag_209\n        /* \".deps/npm/@aragon/govern-core/contracts/pipelines/GovernQueue.sol\":10141:10151  _container */\n      dup6\n        /* \".deps/npm/@aragon/govern-core/contracts/pipelines/GovernQueue.sol\":10141:10156  _container.hash */\n      tag_210\n        /* \".deps/npm/@aragon/govern-core/contracts/pipelines/GovernQueue.sol\":10141:10158  _container.hash() */\n      jump\t// in\n    tag_209:\n        /* \".deps/npm/@aragon/govern-core/contracts/pipelines/GovernQueue.sol\":10117:10158  bytes32 containerHash = _container.hash() */\n      swap1\n      pop\n        /* \".deps/npm/@aragon/govern-core/contracts/pipelines/GovernQueue.sol\":10202:10238  GovernQueueStateLib.State.Challenged */\n      0x02\n        /* \".deps/npm/@aragon/govern-core/contracts/pipelines/GovernQueue.sol\":10172:10192  queue[containerHash] */\n      0x00\n      dup3\n      dup2\n      mstore\n        /* \".deps/npm/@aragon/govern-core/contracts/pipelines/GovernQueue.sol\":10172:10177  queue */\n      0x06\n        /* \".deps/npm/@aragon/govern-core/contracts/pipelines/GovernQueue.sol\":10172:10192  queue[containerHash] */\n      0x20\n      dup2\n      swap1\n      mstore\n      0x40\n      swap1\n      swap2\n      keccak256\n        /* \".deps/npm/@aragon/govern-core/contracts/pipelines/GovernQueue.sol\":10172:10198  queue[containerHash].state */\n      sload\n      0xff\n      and\n      swap1\n        /* \".deps/npm/@aragon/govern-core/contracts/pipelines/GovernQueue.sol\":10172:10238  queue[containerHash].state == GovernQueueStateLib.State.Challenged */\n      dup2\n      gt\n      iszero\n      tag_212\n      jumpi\n      invalid\n    tag_212:\n      eq\n        /* \".deps/npm/@aragon/govern-core/contracts/pipelines/GovernQueue.sol\":10168:10427  if (queue[containerHash].state == GovernQueueStateLib.State.Challenged) {... */\n      iszero\n      tag_213\n      jumpi\n        /* \".deps/npm/@aragon/govern-core/contracts/pipelines/GovernQueue.sol\":10363:10373  _container */\n      dup5\n        /* \".deps/npm/@aragon/govern-core/contracts/pipelines/GovernQueue.sol\":10363:10380  _container.config */\n      0x20\n      add\n      mload\n        /* \".deps/npm/@aragon/govern-core/contracts/pipelines/GovernQueue.sol\":10363:10389  _container.config.resolver */\n      0x60\n      add\n      mload\n        /* \".deps/npm/@aragon/govern-core/contracts/pipelines/GovernQueue.sol\":10351:10404  IArbitrator(_container.config.resolver).executeRuling */\n      0xffffffffffffffffffffffffffffffffffffffff\n      and\n      0x8bb04875\n        /* \".deps/npm/@aragon/govern-core/contracts/pipelines/GovernQueue.sol\":10405:10415  _disputeId */\n      dup6\n        /* \".deps/npm/@aragon/govern-core/contracts/pipelines/GovernQueue.sol\":10351:10416  IArbitrator(_container.config.resolver).executeRuling(_disputeId) */\n      mload(0x40)\n      dup3\n      0xffffffff\n      and\n      0xe0\n      shl\n      dup2\n      mstore\n      0x04\n      add\n      tag_214\n      swap2\n      swap1\n      jump(tag_72)\n    tag_214:\n      0x00\n      mload(0x40)\n      dup1\n      dup4\n      sub\n      dup2\n      0x00\n      dup8\n      dup1\n      extcodesize\n      iszero\n        /* \"--CODEGEN--\":5:14   */\n      dup1\n        /* \"--CODEGEN--\":2:4   */\n      iszero\n      tag_215\n      jumpi\n        /* \"--CODEGEN--\":27:28   */\n      0x00\n        /* \"--CODEGEN--\":24:25   */\n      dup1\n        /* \"--CODEGEN--\":17:29   */\n      revert\n        /* \"--CODEGEN--\":2:4   */\n    tag_215:\n        /* \".deps/npm/@aragon/govern-core/contracts/pipelines/GovernQueue.sol\":10351:10416  IArbitrator(_container.config.resolver).executeRuling(_disputeId) */\n      pop\n      gas\n      call\n      iszero\n        /* \"--CODEGEN--\":8:17   */\n      dup1\n        /* \"--CODEGEN--\":5:7   */\n      iszero\n      tag_217\n      jumpi\n        /* \"--CODEGEN--\":45:61   */\n      returndatasize\n        /* \"--CODEGEN--\":42:43   */\n      0x00\n        /* \"--CODEGEN--\":39:40   */\n      dup1\n        /* \"--CODEGEN--\":24:62   */\n      returndatacopy\n        /* \"--CODEGEN--\":77:93   */\n      returndatasize\n        /* \"--CODEGEN--\":74:75   */\n      0x00\n        /* \"--CODEGEN--\":67:94   */\n      revert\n        /* \"--CODEGEN--\":5:7   */\n    tag_217:\n        /* \".deps/npm/@aragon/govern-core/contracts/pipelines/GovernQueue.sol\":10351:10416  IArbitrator(_container.config.resolver).executeRuling(_disputeId) */\n      pop\n      pop\n      pop\n      pop\n        /* \".deps/npm/@aragon/govern-core/contracts/pipelines/GovernQueue.sol\":10168:10427  if (queue[containerHash].state == GovernQueueStateLib.State.Challenged) {... */\n    tag_213:\n        /* \".deps/npm/@aragon/govern-core/contracts/pipelines/GovernQueue.sol\":10467:10498  GovernQueueStateLib.State state */\n      0x00\n        /* \".deps/npm/@aragon/govern-core/contracts/pipelines/GovernQueue.sol\":10501:10521  queue[containerHash] */\n      dup2\n      dup2\n      mstore\n        /* \".deps/npm/@aragon/govern-core/contracts/pipelines/GovernQueue.sol\":10501:10506  queue */\n      0x06\n        /* \".deps/npm/@aragon/govern-core/contracts/pipelines/GovernQueue.sol\":10501:10521  queue[containerHash] */\n      0x20\n      mstore\n      0x40\n      swap1\n      keccak256\n        /* \".deps/npm/@aragon/govern-core/contracts/pipelines/GovernQueue.sol\":10501:10527  queue[containerHash].state */\n      sload\n      0xff\n      and\n        /* \".deps/npm/@aragon/govern-core/contracts/pipelines/GovernQueue.sol\":10567:10577  msg.sender */\n      caller\n        /* \".deps/npm/@aragon/govern-core/contracts/pipelines/GovernQueue.sol\":10507:10520  containerHash */\n      dup3\n        /* \".deps/npm/@aragon/govern-core/contracts/pipelines/GovernQueue.sol\":10543:10623  Resolved(containerHash, msg.sender, state == GovernQueueStateLib.State.Approved) */\n      0x027d8a5d945eb361475964ed2c71b8332b27af2d630ab5daf829d67afd2584e6\n        /* \".deps/npm/@aragon/govern-core/contracts/pipelines/GovernQueue.sol\":10588:10622  GovernQueueStateLib.State.Approved */\n      0x03\n        /* \".deps/npm/@aragon/govern-core/contracts/pipelines/GovernQueue.sol\":10579:10584  state */\n      dup5\n        /* \".deps/npm/@aragon/govern-core/contracts/pipelines/GovernQueue.sol\":10579:10622  state == GovernQueueStateLib.State.Approved */\n      0x06\n      dup2\n      gt\n      iszero\n      tag_219\n      jumpi\n      invalid\n    tag_219:\n      eq\n        /* \".deps/npm/@aragon/govern-core/contracts/pipelines/GovernQueue.sol\":10543:10623  Resolved(containerHash, msg.sender, state == GovernQueueStateLib.State.Approved) */\n      mload(0x40)\n      tag_220\n      swap2\n      swap1\n      jump(tag_42)\n    tag_220:\n      mload(0x40)\n      dup1\n      swap2\n      sub\n      swap1\n      log3\n        /* \".deps/npm/@aragon/govern-core/contracts/pipelines/GovernQueue.sol\":10647:10681  GovernQueueStateLib.State.Approved */\n      0x03\n        /* \".deps/npm/@aragon/govern-core/contracts/pipelines/GovernQueue.sol\":10638:10643  state */\n      dup2\n        /* \".deps/npm/@aragon/govern-core/contracts/pipelines/GovernQueue.sol\":10638:10681  state == GovernQueueStateLib.State.Approved */\n      0x06\n      dup2\n      gt\n      iszero\n      tag_222\n      jumpi\n      invalid\n    tag_222:\n      eq\n        /* \".deps/npm/@aragon/govern-core/contracts/pipelines/GovernQueue.sol\":10634:10742  if (state == GovernQueueStateLib.State.Approved) {... */\n      iszero\n      tag_223\n      jumpi\n        /* \".deps/npm/@aragon/govern-core/contracts/pipelines/GovernQueue.sol\":10704:10731  executeApproved(_container) */\n      tag_224\n        /* \".deps/npm/@aragon/govern-core/contracts/pipelines/GovernQueue.sol\":10720:10730  _container */\n      dup7\n        /* \".deps/npm/@aragon/govern-core/contracts/pipelines/GovernQueue.sol\":10704:10719  executeApproved */\n      tag_79\n        /* \".deps/npm/@aragon/govern-core/contracts/pipelines/GovernQueue.sol\":10704:10731  executeApproved(_container) */\n      jump\t// in\n    tag_224:\n        /* \".deps/npm/@aragon/govern-core/contracts/pipelines/GovernQueue.sol\":10697:10731  return executeApproved(_container) */\n      swap4\n      pop\n      swap4\n      pop\n      pop\n      pop\n      jump(tag_208)\n        /* \".deps/npm/@aragon/govern-core/contracts/pipelines/GovernQueue.sol\":10634:10742  if (state == GovernQueueStateLib.State.Approved) {... */\n    tag_223:\n        /* \".deps/npm/@aragon/govern-core/contracts/pipelines/GovernQueue.sol\":10769:10803  GovernQueueStateLib.State.Rejected */\n      0x04\n        /* \".deps/npm/@aragon/govern-core/contracts/pipelines/GovernQueue.sol\":10760:10765  state */\n      dup2\n        /* \".deps/npm/@aragon/govern-core/contracts/pipelines/GovernQueue.sol\":10760:10803  state == GovernQueueStateLib.State.Rejected */\n      0x06\n      dup2\n      gt\n      iszero\n      tag_226\n      jumpi\n      invalid\n    tag_226:\n      eq\n        /* \".deps/npm/@aragon/govern-core/contracts/pipelines/GovernQueue.sol\":10752:10825  require(state == GovernQueueStateLib.State.Rejected, \"queue: unresolved\") */\n      tag_227\n      jumpi\n      mload(0x40)\n      shl(0xe5, 0x461bcd)\n      dup2\n      mstore\n      0x04\n      add\n      tag_182\n      swap1\n      jump(tag_229)\n    tag_227:\n        /* \".deps/npm/@aragon/govern-core/contracts/pipelines/GovernQueue.sol\":10835:10862  settleRejection(_container) */\n      tag_230\n        /* \".deps/npm/@aragon/govern-core/contracts/pipelines/GovernQueue.sol\":10851:10861  _container */\n      dup7\n        /* \".deps/npm/@aragon/govern-core/contracts/pipelines/GovernQueue.sol\":10835:10850  settleRejection */\n      tag_131\n        /* \".deps/npm/@aragon/govern-core/contracts/pipelines/GovernQueue.sol\":10835:10862  settleRejection(_container) */\n      jump\t// in\n    tag_230:\n        /* \".deps/npm/@aragon/govern-core/contracts/pipelines/GovernQueue.sol\":10892:10906  new bytes[](0) */\n      0x40\n      dup1\n      mload\n        /* \".deps/npm/@aragon/govern-core/contracts/pipelines/GovernQueue.sol\":10888:10889  0 */\n      0x00\n        /* \".deps/npm/@aragon/govern-core/contracts/pipelines/GovernQueue.sol\":10892:10906  new bytes[](0) */\n      dup1\n      dup3\n      mstore\n      0x20\n      dup3\n      add\n      swap1\n      swap3\n      mstore\n        /* \".deps/npm/@aragon/govern-core/contracts/pipelines/GovernQueue.sol\":10888:10889  0 */\n      dup2\n        /* \".deps/npm/@aragon/govern-core/contracts/pipelines/GovernQueue.sol\":10892:10906  new bytes[](0) */\n      jump(tag_232)\n    tag_233:\n      0x60\n      dup2\n      mstore\n      0x20\n      add\n      swap1\n      0x01\n      swap1\n      sub\n      swap1\n      dup2\n      tag_233\n      jumpi\n      swap1\n      pop\n    tag_232:\n      pop\n        /* \".deps/npm/@aragon/govern-core/contracts/pipelines/GovernQueue.sol\":10872:10907  return (bytes32(0), new bytes[](0)) */\n      swap4\n      pop\n      swap4\n      pop\n      pop\n      pop\n        /* \".deps/npm/@aragon/govern-core/contracts/pipelines/GovernQueue.sol\":9956:10914  function resolve(ERC3000Data.Container memory _container, uint256 _disputeId) override public returns (bytes32 failureMap, bytes[] memory execResults) {... */\n    tag_208:\n      swap3\n      pop\n      swap3\n      swap1\n      pop\n      jump\t// out\n        /* \".deps/npm/@aragon/govern-core/contracts/pipelines/GovernQueue.sol\":13237:13918  function rule(uint256 _disputeId, uint256 _ruling) override external {... */\n    tag_61:\n        /* \".deps/npm/@aragon/govern-core/contracts/pipelines/GovernQueue.sol\":13450:13460  msg.sender */\n      caller\n        /* \".deps/npm/@aragon/govern-core/contracts/pipelines/GovernQueue.sol\":13413:13435  IArbitrator arbitrator */\n      0x00\n        /* \".deps/npm/@aragon/govern-core/contracts/pipelines/GovernQueue.sol\":13495:13523  disputeItemCache[arbitrator] */\n      dup2\n      dup2\n      mstore\n        /* \".deps/npm/@aragon/govern-core/contracts/pipelines/GovernQueue.sol\":13495:13511  disputeItemCache */\n      0x08\n        /* \".deps/npm/@aragon/govern-core/contracts/pipelines/GovernQueue.sol\":13495:13523  disputeItemCache[arbitrator] */\n      0x20\n      swap1\n      dup2\n      mstore\n      0x40\n      dup1\n      dup4\n      keccak256\n        /* \".deps/npm/@aragon/govern-core/contracts/pipelines/GovernQueue.sol\":13495:13535  disputeItemCache[arbitrator][_disputeId] */\n      dup7\n      dup5\n      mstore\n      swap1\n      swap2\n      mstore\n      swap1\n      keccak256\n      sload\n        /* \".deps/npm/@aragon/govern-core/contracts/pipelines/GovernQueue.sol\":13545:13753  queue[containerHash].checkAndSetState(... */\n      tag_235\n        /* \".deps/npm/@aragon/govern-core/contracts/pipelines/GovernQueue.sol\":13596:13632  GovernQueueStateLib.State.Challenged */\n      0x02\n        /* \"@aragon/govern-contract-utils/contracts/protocol/IArbitrable.sol\":347:348  4 */\n      0x04\n        /* \".deps/npm/@aragon/govern-core/contracts/pipelines/GovernQueue.sol\":13646:13669  _ruling == ALLOW_RULING */\n      dup6\n      eq\n        /* \".deps/npm/@aragon/govern-core/contracts/pipelines/GovernQueue.sol\":13646:13743  _ruling == ALLOW_RULING ? GovernQueueStateLib.State.Approved : GovernQueueStateLib.State.Rejected */\n      tag_236\n      jumpi\n        /* \".deps/npm/@aragon/govern-core/contracts/pipelines/GovernQueue.sol\":13709:13743  GovernQueueStateLib.State.Rejected */\n      0x04\n        /* \".deps/npm/@aragon/govern-core/contracts/pipelines/GovernQueue.sol\":13646:13743  _ruling == ALLOW_RULING ? GovernQueueStateLib.State.Approved : GovernQueueStateLib.State.Rejected */\n      jump(tag_237)\n    tag_236:\n        /* \".deps/npm/@aragon/govern-core/contracts/pipelines/GovernQueue.sol\":13672:13706  GovernQueueStateLib.State.Approved */\n      0x03\n        /* \".deps/npm/@aragon/govern-core/contracts/pipelines/GovernQueue.sol\":13646:13743  _ruling == ALLOW_RULING ? GovernQueueStateLib.State.Approved : GovernQueueStateLib.State.Rejected */\n    tag_237:\n        /* \".deps/npm/@aragon/govern-core/contracts/pipelines/GovernQueue.sol\":13545:13565  queue[containerHash] */\n      0x00\n      dup5\n      dup2\n      mstore\n        /* \".deps/npm/@aragon/govern-core/contracts/pipelines/GovernQueue.sol\":13545:13550  queue */\n      0x06\n        /* \".deps/npm/@aragon/govern-core/contracts/pipelines/GovernQueue.sol\":13545:13565  queue[containerHash] */\n      0x20\n      mstore\n      0x40\n      swap1\n      keccak256\n      swap2\n        /* \".deps/npm/@aragon/govern-core/contracts/pipelines/GovernQueue.sol\":13545:13753  queue[containerHash].checkAndSetState(... */\n      swap1\n      0xffffffff\n        /* \".deps/npm/@aragon/govern-core/contracts/pipelines/GovernQueue.sol\":13545:13582  queue[containerHash].checkAndSetState */\n      tag_238\n        /* \".deps/npm/@aragon/govern-core/contracts/pipelines/GovernQueue.sol\":13545:13753  queue[containerHash].checkAndSetState(... */\n      and\n      jump\t// in\n    tag_235:\n        /* \".deps/npm/@aragon/govern-core/contracts/pipelines/GovernQueue.sol\":13763:13791  disputeItemCache[arbitrator] */\n      0xffffffffffffffffffffffffffffffffffffffff\n      dup3\n      and\n        /* \".deps/npm/@aragon/govern-core/contracts/pipelines/GovernQueue.sol\":13814:13815  0 */\n      0x00\n        /* \".deps/npm/@aragon/govern-core/contracts/pipelines/GovernQueue.sol\":13763:13791  disputeItemCache[arbitrator] */\n      dup2\n      dup2\n      mstore\n        /* \".deps/npm/@aragon/govern-core/contracts/pipelines/GovernQueue.sol\":13763:13779  disputeItemCache */\n      0x08\n        /* \".deps/npm/@aragon/govern-core/contracts/pipelines/GovernQueue.sol\":13763:13791  disputeItemCache[arbitrator] */\n      0x20\n      swap1\n      dup2\n      mstore\n      0x40\n      dup1\n      dup4\n      keccak256\n        /* \".deps/npm/@aragon/govern-core/contracts/pipelines/GovernQueue.sol\":13763:13803  disputeItemCache[arbitrator][_disputeId] */\n      dup9\n      dup5\n      mstore\n      swap1\n      swap2\n      mstore\n      dup1\n      dup3\n      keccak256\n        /* \".deps/npm/@aragon/govern-core/contracts/pipelines/GovernQueue.sol\":13763:13816  disputeItemCache[arbitrator][_disputeId] = bytes32(0) */\n      swap2\n      swap1\n      swap2\n      sstore\n        /* \".deps/npm/@aragon/govern-core/contracts/pipelines/GovernQueue.sol\":13873:13911  Ruled(arbitrator, _disputeId, _ruling) */\n      mload\n        /* \".deps/npm/@aragon/govern-core/contracts/pipelines/GovernQueue.sol\":13792:13802  _disputeId */\n      dup6\n      swap2\n        /* \".deps/npm/@aragon/govern-core/contracts/pipelines/GovernQueue.sol\":13763:13791  disputeItemCache[arbitrator] */\n      swap1\n        /* \".deps/npm/@aragon/govern-core/contracts/pipelines/GovernQueue.sol\":13873:13911  Ruled(arbitrator, _disputeId, _ruling) */\n      0x56c8631a8915c0d362dbe57a61215fdde954f73f81c8a3a1f55572fb015207b1\n      swap1\n      tag_239\n      swap1\n        /* \".deps/npm/@aragon/govern-core/contracts/pipelines/GovernQueue.sol\":13903:13910  _ruling */\n      dup8\n      swap1\n        /* \".deps/npm/@aragon/govern-core/contracts/pipelines/GovernQueue.sol\":13873:13911  Ruled(arbitrator, _disputeId, _ruling) */\n      jump(tag_72)\n    tag_239:\n      mload(0x40)\n      dup1\n      swap2\n      sub\n      swap1\n      log3\n        /* \".deps/npm/@aragon/govern-core/contracts/pipelines/GovernQueue.sol\":13237:13918  function rule(uint256 _disputeId, uint256 _ruling) override external {... */\n      pop\n      pop\n      pop\n      pop\n      jump\t// out\n        /* \".deps/npm/@aragon/govern-core/contracts/pipelines/GovernQueue.sol\":6244:7142  function execute(ERC3000Data.Container memory _container)... */\n    tag_65:\n        /* \".deps/npm/@aragon/govern-core/contracts/pipelines/GovernQueue.sol\":6481:6499  bytes32 failureMap */\n      0x00\n        /* \".deps/npm/@aragon/govern-core/contracts/pipelines/GovernQueue.sol\":6501:6527  bytes[] memory execResults */\n      0x60\n        /* \".deps/npm/@aragon/govern-core/contracts/pipelines/GovernQueue.sol\":6347:6368  this.execute.selector */\n      shl(0xe0, 0x3a139c71)\n        /* \"@aragon/govern-contract-utils/contracts/acl/ACL.sol\":1123:1163  willPerform(_role, msg.sender, msg.data) */\n      tag_241\n        /* \"@aragon/govern-contract-utils/contracts/acl/ACL.sol\":1135:1140  _role */\n      dup2\n        /* \"@aragon/govern-contract-utils/contracts/acl/ACL.sol\":1142:1152  msg.sender */\n      caller\n        /* \"@aragon/govern-contract-utils/contracts/acl/ACL.sol\":1154:1162  msg.data */\n      0x00\n      calldatasize\n        /* \"@aragon/govern-contract-utils/contracts/acl/ACL.sol\":1123:1163  willPerform(_role, msg.sender, msg.data) */\n      dup1\n      dup1\n      0x1f\n      add\n      0x20\n      dup1\n      swap2\n      div\n      mul\n      0x20\n      add\n      mload(0x40)\n      swap1\n      dup2\n      add\n      0x40\n      mstore\n      dup1\n      swap4\n      swap3\n      swap2\n      swap1\n      dup2\n      dup2\n      mstore\n      0x20\n      add\n      dup4\n      dup4\n        /* \"--CODEGEN--\":30:33   */\n      dup1\n        /* \"--CODEGEN--\":22:28   */\n      dup3\n        /* \"--CODEGEN--\":14:20   */\n      dup5\n        /* \"--CODEGEN--\":1:34   */\n      calldatacopy\n        /* \"--CODEGEN--\":99:100   */\n      0x00\n        /* \"--CODEGEN--\":81:97   */\n      swap3\n      add\n        /* \"--CODEGEN--\":74:101   */\n      swap2\n      swap1\n      swap2\n      mstore\n      pop\n        /* \"@aragon/govern-contract-utils/contracts/acl/ACL.sol\":1123:1134  willPerform */\n      tag_46\n      swap3\n      pop\n      pop\n      pop\n        /* \"@aragon/govern-contract-utils/contracts/acl/ACL.sol\":1123:1163  willPerform(_role, msg.sender, msg.data) */\n      jump\t// in\n    tag_241:\n        /* \"@aragon/govern-contract-utils/contracts/acl/ACL.sol\":1115:1177  require(willPerform(_role, msg.sender, msg.data), \"acl: auth\") */\n      tag_242\n      jumpi\n      mload(0x40)\n      shl(0xe5, 0x461bcd)\n      dup2\n      mstore\n      0x04\n      add\n      tag_182\n      swap1\n      jump(tag_183)\n    tag_242:\n        /* \".deps/npm/@aragon/govern-core/contracts/pipelines/GovernQueue.sol\":6619:6637  _container.payload */\n      dup4\n      mload\n        /* \".deps/npm/@aragon/govern-core/contracts/pipelines/GovernQueue.sol\":6619:6651  _container.payload.executionTime */\n      0x20\n      add\n      mload\n        /* \".deps/npm/@aragon/govern-core/contracts/pipelines/GovernQueue.sol\":6592:6651  uint64(block.timestamp) >= _container.payload.executionTime */\n      0xffffffffffffffff\n        /* \".deps/npm/@aragon/govern-core/contracts/pipelines/GovernQueue.sol\":6599:6614  block.timestamp */\n      timestamp\n        /* \".deps/npm/@aragon/govern-core/contracts/pipelines/GovernQueue.sol\":6592:6651  uint64(block.timestamp) >= _container.payload.executionTime */\n      and\n      lt\n      iszero\n        /* \".deps/npm/@aragon/govern-core/contracts/pipelines/GovernQueue.sol\":6584:6672  require(uint64(block.timestamp) >= _container.payload.executionTime, \"queue: wait more\") */\n      tag_245\n      jumpi\n      mload(0x40)\n      shl(0xe5, 0x461bcd)\n      dup2\n      mstore\n      0x04\n      add\n      tag_182\n      swap1\n      jump(tag_247)\n    tag_245:\n        /* \".deps/npm/@aragon/govern-core/contracts/pipelines/GovernQueue.sol\":6683:6704  bytes32 containerHash */\n      0x00\n        /* \".deps/npm/@aragon/govern-core/contracts/pipelines/GovernQueue.sol\":6707:6724  _container.hash() */\n      tag_248\n        /* \".deps/npm/@aragon/govern-core/contracts/pipelines/GovernQueue.sol\":6707:6717  _container */\n      dup6\n        /* \".deps/npm/@aragon/govern-core/contracts/pipelines/GovernQueue.sol\":6707:6722  _container.hash */\n      tag_210\n        /* \".deps/npm/@aragon/govern-core/contracts/pipelines/GovernQueue.sol\":6707:6724  _container.hash() */\n      jump\t// in\n    tag_248:\n        /* \".deps/npm/@aragon/govern-core/contracts/pipelines/GovernQueue.sol\":6734:6754  queue[containerHash] */\n      0x00\n      dup2\n      dup2\n      mstore\n        /* \".deps/npm/@aragon/govern-core/contracts/pipelines/GovernQueue.sol\":6912:6946  GovernQueueStateLib.State.Executed */\n      0x06\n        /* \".deps/npm/@aragon/govern-core/contracts/pipelines/GovernQueue.sol\":6734:6754  queue[containerHash] */\n      0x20\n      dup2\n      swap1\n      mstore\n      0x40\n      swap1\n      swap2\n      keccak256\n        /* \".deps/npm/@aragon/govern-core/contracts/pipelines/GovernQueue.sol\":6683:6724  bytes32 containerHash = _container.hash() */\n      swap2\n      swap3\n      pop\n        /* \".deps/npm/@aragon/govern-core/contracts/pipelines/GovernQueue.sol\":6734:6956  queue[containerHash].checkAndSetState(... */\n      tag_249\n      swap2\n        /* \".deps/npm/@aragon/govern-core/contracts/pipelines/GovernQueue.sol\":6734:6754  queue[containerHash] */\n      swap1\n        /* \".deps/npm/@aragon/govern-core/contracts/pipelines/GovernQueue.sol\":6785:6820  GovernQueueStateLib.State.Scheduled */\n      0x01\n      swap1\n        /* \".deps/npm/@aragon/govern-core/contracts/pipelines/GovernQueue.sol\":6734:6956  queue[containerHash].checkAndSetState(... */\n      0xffffffff\n        /* \".deps/npm/@aragon/govern-core/contracts/pipelines/GovernQueue.sol\":6734:6771  queue[containerHash].checkAndSetState */\n      tag_238\n        /* \".deps/npm/@aragon/govern-core/contracts/pipelines/GovernQueue.sol\":6734:6956  queue[containerHash].checkAndSetState(... */\n      and\n      jump\t// in\n    tag_249:\n        /* \".deps/npm/@aragon/govern-core/contracts/pipelines/GovernQueue.sol\":7011:7029  _container.payload */\n      dup5\n      mload\n        /* \".deps/npm/@aragon/govern-core/contracts/pipelines/GovernQueue.sol\":7011:7039  _container.payload.submitter */\n      0x40\n      add\n      mload\n        /* \".deps/npm/@aragon/govern-core/contracts/pipelines/GovernQueue.sol\":6967:6984  _container.config */\n      0x20\n      dup1\n      dup8\n      add\n      mload\n        /* \".deps/npm/@aragon/govern-core/contracts/pipelines/GovernQueue.sol\":6967:7000  _container.config.scheduleDeposit */\n      add\n      mload\n        /* \".deps/npm/@aragon/govern-core/contracts/pipelines/GovernQueue.sol\":6967:7040  _container.config.scheduleDeposit.releaseTo(_container.payload.submitter) */\n      tag_250\n      swap2\n      0xffffffff\n        /* \".deps/npm/@aragon/govern-core/contracts/pipelines/GovernQueue.sol\":6967:7010  _container.config.scheduleDeposit.releaseTo */\n      tag_251\n        /* \".deps/npm/@aragon/govern-core/contracts/pipelines/GovernQueue.sol\":6967:7040  _container.config.scheduleDeposit.releaseTo(_container.payload.submitter) */\n      and\n      jump\t// in\n    tag_250:\n        /* \".deps/npm/@aragon/govern-core/contracts/pipelines/GovernQueue.sol\":7101:7119  _container.payload */\n      dup5\n      mload\n        /* \".deps/npm/@aragon/govern-core/contracts/pipelines/GovernQueue.sol\":7092:7135  _execute(_container.payload, containerHash) */\n      tag_252\n      swap1\n        /* \".deps/npm/@aragon/govern-core/contracts/pipelines/GovernQueue.sol\":7121:7134  containerHash */\n      dup3\n        /* \".deps/npm/@aragon/govern-core/contracts/pipelines/GovernQueue.sol\":7092:7100  _execute */\n      tag_253\n        /* \".deps/npm/@aragon/govern-core/contracts/pipelines/GovernQueue.sol\":7092:7135  _execute(_container.payload, containerHash) */\n      jump\t// in\n    tag_252:\n        /* \".deps/npm/@aragon/govern-core/contracts/pipelines/GovernQueue.sol\":7085:7135  return _execute(_container.payload, containerHash) */\n      swap4\n      pop\n      swap4\n      pop\n      pop\n        /* \".deps/npm/@aragon/govern-core/contracts/pipelines/GovernQueue.sol\":6244:7142  function execute(ERC3000Data.Container memory _container)... */\n      pop\n      swap2\n      pop\n      swap2\n      jump\t// out\n        /* \".deps/npm/@aragon/govern-core/contracts/pipelines/GovernQueue.sol\":2075:2152  mapping (IArbitrator => mapping (uint256 => bytes32)) public disputeItemCache */\n    tag_70:\n      0x08\n      0x20\n      swap1\n      dup2\n      mstore\n      0x00\n      swap3\n      dup4\n      mstore\n      0x40\n      dup1\n      dup5\n      keccak256\n      swap1\n      swap2\n      mstore\n      swap1\n      dup3\n      mstore\n      swap1\n      keccak256\n      sload\n      dup2\n      jump\t// out\n        /* \"@aragon/govern-contract-utils/contracts/acl/ACL.sol\":3986:4109  function isFrozen(bytes4 _role) public view returns (bool) {... */\n    tag_75:\n        /* \"@aragon/govern-contract-utils/contracts/acl/ACL.sol\":4062:4074  roles[_role] */\n      0xffffffff00000000000000000000000000000000000000000000000000000000\n      and\n        /* \"@aragon/govern-contract-utils/contracts/acl/ACL.sol\":4039:4043  bool */\n      0x00\n        /* \"@aragon/govern-contract-utils/contracts/acl/ACL.sol\":4062:4074  roles[_role] */\n      swap1\n      dup2\n      mstore\n        /* \"@aragon/govern-contract-utils/contracts/acl/ACL.sol\":4062:4067  roles */\n      0x03\n        /* \"@aragon/govern-contract-utils/contracts/acl/ACL.sol\":4062:4074  roles[_role] */\n      0x20\n      swap1\n      dup2\n      mstore\n      0x40\n      dup1\n      dup4\n      keccak256\n        /* \"@aragon/govern-contract-utils/contracts/acl/ACL.sol\":581:582  1 */\n      0x01\n        /* \"@aragon/govern-contract-utils/contracts/acl/ACL.sol\":4062:4087  roles[_role][FREEZE_FLAG] */\n      dup1\n      dup6\n      mstore\n      swap3\n      mstore\n      swap1\n      swap2\n      keccak256\n      sload\n        /* \"@aragon/govern-contract-utils/contracts/acl/ACL.sol\":4062:4102  roles[_role][FREEZE_FLAG] == FREEZE_FLAG */\n      0xffffffffffffffffffffffffffffffffffffffff\n        /* \"@aragon/govern-contract-utils/contracts/acl/ACL.sol\":4062:4087  roles[_role][FREEZE_FLAG] */\n      and\n        /* \"@aragon/govern-contract-utils/contracts/acl/ACL.sol\":4062:4102  roles[_role][FREEZE_FLAG] == FREEZE_FLAG */\n      eq\n      swap1\n        /* \"@aragon/govern-contract-utils/contracts/acl/ACL.sol\":3986:4109  function isFrozen(bytes4 _role) public view returns (bool) {... */\n      jump\t// out\n        /* \".deps/npm/@aragon/govern-core/contracts/pipelines/GovernQueue.sol\":11843:12570  function executeApproved(ERC3000Data.Container memory _container) public returns (bytes32 failureMap, bytes[] memory execResults) {... */\n    tag_79:\n        /* \".deps/npm/@aragon/govern-core/contracts/pipelines/GovernQueue.sol\":11925:11943  bytes32 failureMap */\n      0x00\n        /* \".deps/npm/@aragon/govern-core/contracts/pipelines/GovernQueue.sol\":11945:11971  bytes[] memory execResults */\n      0x60\n        /* \".deps/npm/@aragon/govern-core/contracts/pipelines/GovernQueue.sol\":11983:12004  bytes32 containerHash */\n      0x00\n        /* \".deps/npm/@aragon/govern-core/contracts/pipelines/GovernQueue.sol\":12007:12024  _container.hash() */\n      tag_256\n        /* \".deps/npm/@aragon/govern-core/contracts/pipelines/GovernQueue.sol\":12007:12017  _container */\n      dup5\n        /* \".deps/npm/@aragon/govern-core/contracts/pipelines/GovernQueue.sol\":12007:12022  _container.hash */\n      tag_210\n        /* \".deps/npm/@aragon/govern-core/contracts/pipelines/GovernQueue.sol\":12007:12024  _container.hash() */\n      jump\t// in\n    tag_256:\n        /* \".deps/npm/@aragon/govern-core/contracts/pipelines/GovernQueue.sol\":12034:12054  queue[containerHash] */\n      0x00\n      dup2\n      dup2\n      mstore\n        /* \".deps/npm/@aragon/govern-core/contracts/pipelines/GovernQueue.sol\":12133:12167  GovernQueueStateLib.State.Executed */\n      0x06\n        /* \".deps/npm/@aragon/govern-core/contracts/pipelines/GovernQueue.sol\":12034:12054  queue[containerHash] */\n      0x20\n      dup2\n      swap1\n      mstore\n      0x40\n      swap1\n      swap2\n      keccak256\n        /* \".deps/npm/@aragon/govern-core/contracts/pipelines/GovernQueue.sol\":11983:12024  bytes32 containerHash = _container.hash() */\n      swap2\n      swap3\n      pop\n        /* \".deps/npm/@aragon/govern-core/contracts/pipelines/GovernQueue.sol\":12034:12177  queue[containerHash].checkAndSetState(... */\n      tag_257\n      swap2\n        /* \".deps/npm/@aragon/govern-core/contracts/pipelines/GovernQueue.sol\":12034:12054  queue[containerHash] */\n      swap1\n        /* \".deps/npm/@aragon/govern-core/contracts/pipelines/GovernQueue.sol\":12085:12119  GovernQueueStateLib.State.Approved */\n      0x03\n      swap1\n        /* \".deps/npm/@aragon/govern-core/contracts/pipelines/GovernQueue.sol\":12034:12177  queue[containerHash].checkAndSetState(... */\n      0xffffffff\n        /* \".deps/npm/@aragon/govern-core/contracts/pipelines/GovernQueue.sol\":12034:12071  queue[containerHash].checkAndSetState */\n      tag_238\n        /* \".deps/npm/@aragon/govern-core/contracts/pipelines/GovernQueue.sol\":12034:12177  queue[containerHash].checkAndSetState(... */\n      and\n      jump\t// in\n    tag_257:\n        /* \".deps/npm/@aragon/govern-core/contracts/pipelines/GovernQueue.sol\":12279:12297  _container.payload */\n      dup4\n      mload\n        /* \".deps/npm/@aragon/govern-core/contracts/pipelines/GovernQueue.sol\":12279:12307  _container.payload.submitter */\n      0x40\n      add\n      mload\n        /* \".deps/npm/@aragon/govern-core/contracts/pipelines/GovernQueue.sol\":12235:12252  _container.config */\n      0x20\n      dup1\n      dup7\n      add\n      mload\n        /* \".deps/npm/@aragon/govern-core/contracts/pipelines/GovernQueue.sol\":12235:12268  _container.config.scheduleDeposit */\n      add\n      mload\n        /* \".deps/npm/@aragon/govern-core/contracts/pipelines/GovernQueue.sol\":12235:12308  _container.config.scheduleDeposit.releaseTo(_container.payload.submitter) */\n      tag_258\n      swap2\n      0xffffffff\n        /* \".deps/npm/@aragon/govern-core/contracts/pipelines/GovernQueue.sol\":12235:12278  _container.config.scheduleDeposit.releaseTo */\n      tag_251\n        /* \".deps/npm/@aragon/govern-core/contracts/pipelines/GovernQueue.sol\":12235:12308  _container.config.scheduleDeposit.releaseTo(_container.payload.submitter) */\n      and\n      jump\t// in\n    tag_258:\n        /* \".deps/npm/@aragon/govern-core/contracts/pipelines/GovernQueue.sol\":12363:12381  _container.payload */\n      dup4\n      mload\n        /* \".deps/npm/@aragon/govern-core/contracts/pipelines/GovernQueue.sol\":12363:12391  _container.payload.submitter */\n      0x40\n      swap1\n      dup2\n      add\n      mload\n        /* \".deps/npm/@aragon/govern-core/contracts/pipelines/GovernQueue.sol\":12318:12335  _container.config */\n      0x20\n      dup7\n      add\n      mload\n        /* \".deps/npm/@aragon/govern-core/contracts/pipelines/GovernQueue.sol\":12318:12352  _container.config.challengeDeposit */\n      swap1\n      swap2\n      add\n      mload\n        /* \".deps/npm/@aragon/govern-core/contracts/pipelines/GovernQueue.sol\":12318:12392  _container.config.challengeDeposit.releaseTo(_container.payload.submitter) */\n      tag_259\n      swap2\n      0xffffffff\n        /* \".deps/npm/@aragon/govern-core/contracts/pipelines/GovernQueue.sol\":12318:12362  _container.config.challengeDeposit.releaseTo */\n      tag_251\n        /* \".deps/npm/@aragon/govern-core/contracts/pipelines/GovernQueue.sol\":12318:12392  _container.config.challengeDeposit.releaseTo(_container.payload.submitter) */\n      and\n      jump\t// in\n    tag_259:\n        /* \".deps/npm/@aragon/govern-core/contracts/pipelines/GovernQueue.sol\":12444:12445  0 */\n      0x00\n        /* \".deps/npm/@aragon/govern-core/contracts/pipelines/GovernQueue.sol\":12403:12433  challengerCache[containerHash] */\n      dup2\n      dup2\n      mstore\n        /* \".deps/npm/@aragon/govern-core/contracts/pipelines/GovernQueue.sol\":12403:12418  challengerCache */\n      0x07\n        /* \".deps/npm/@aragon/govern-core/contracts/pipelines/GovernQueue.sol\":12403:12433  challengerCache[containerHash] */\n      0x20\n      mstore\n      0x40\n      swap1\n      keccak256\n        /* \".deps/npm/@aragon/govern-core/contracts/pipelines/GovernQueue.sol\":12403:12446  challengerCache[containerHash] = address(0) */\n      dup1\n      sload\n      0xffffffffffffffffffffffff0000000000000000000000000000000000000000\n      and\n      swap1\n      sstore\n        /* \".deps/npm/@aragon/govern-core/contracts/pipelines/GovernQueue.sol\":12529:12547  _container.payload */\n      dup4\n      mload\n        /* \".deps/npm/@aragon/govern-core/contracts/pipelines/GovernQueue.sol\":12520:12563  _execute(_container.payload, containerHash) */\n      tag_260\n      swap1\n        /* \".deps/npm/@aragon/govern-core/contracts/pipelines/GovernQueue.sol\":12419:12432  containerHash */\n      dup3\n        /* \".deps/npm/@aragon/govern-core/contracts/pipelines/GovernQueue.sol\":12520:12528  _execute */\n      tag_253\n        /* \".deps/npm/@aragon/govern-core/contracts/pipelines/GovernQueue.sol\":12520:12563  _execute(_container.payload, containerHash) */\n      jump\t// in\n    tag_260:\n        /* \".deps/npm/@aragon/govern-core/contracts/pipelines/GovernQueue.sol\":12513:12563  return _execute(_container.payload, containerHash) */\n      swap3\n      pop\n      swap3\n      pop\n      pop\n        /* \".deps/npm/@aragon/govern-core/contracts/pipelines/GovernQueue.sol\":11843:12570  function executeApproved(ERC3000Data.Container memory _container) public returns (bytes32 failureMap, bytes[] memory execResults) {... */\n      swap2\n      pop\n      swap2\n      jump\t// out\n        /* \"@aragon/govern-contract-utils/contracts/acl/ACL.sol\":1887:1993  function revoke(bytes4 _role, address _who) external auth(ROOT_ROLE) {... */\n    tag_84:\n        /* \"@aragon/govern-contract-utils/contracts/acl/ACL.sol\":1123:1163  willPerform(_role, msg.sender, msg.data) */\n      0x40\n      dup1\n      mload\n      0x20\n        /* \"@aragon/govern-contract-utils/contracts/acl/ACL.sol\":1154:1162  msg.data */\n      calldatasize\n        /* \"@aragon/govern-contract-utils/contracts/acl/ACL.sol\":1123:1163  willPerform(_role, msg.sender, msg.data) */\n      0x1f\n      dup2\n      add\n      dup3\n      swap1\n      div\n      dup3\n      mul\n      dup4\n      add\n      dup3\n      add\n      swap1\n      swap4\n      mstore\n      dup3\n      dup3\n      mstore\n        /* \"@aragon/govern-contract-utils/contracts/acl/ACL.sol\":411:521  this.grant.selector... */\n      0x586df60400000000000000000000000000000000000000000000000000000000\n      swap3\n        /* \"@aragon/govern-contract-utils/contracts/acl/ACL.sol\":1123:1163  willPerform(_role, msg.sender, msg.data) */\n      tag_262\n      swap3\n        /* \"@aragon/govern-contract-utils/contracts/acl/ACL.sol\":411:521  this.grant.selector... */\n      dup5\n      swap3\n        /* \"@aragon/govern-contract-utils/contracts/acl/ACL.sol\":1142:1152  msg.sender */\n      caller\n      swap3\n      0x00\n      swap2\n        /* \"@aragon/govern-contract-utils/contracts/acl/ACL.sol\":1154:1162  msg.data */\n      dup2\n      swap1\n        /* \"@aragon/govern-contract-utils/contracts/acl/ACL.sol\":1123:1163  willPerform(_role, msg.sender, msg.data) */\n      dup5\n      add\n      dup4\n        /* \"@aragon/govern-contract-utils/contracts/acl/ACL.sol\":1154:1162  msg.data */\n      dup3\n      dup1\n      dup3\n        /* \"@aragon/govern-contract-utils/contracts/acl/ACL.sol\":1123:1163  willPerform(_role, msg.sender, msg.data) */\n      dup5\n        /* \"--CODEGEN--\":1:34   */\n      calldatacopy\n        /* \"--CODEGEN--\":99:100   */\n      0x00\n        /* \"--CODEGEN--\":81:97   */\n      swap3\n      add\n        /* \"--CODEGEN--\":74:101   */\n      swap2\n      swap1\n      swap2\n      mstore\n      pop\n        /* \"@aragon/govern-contract-utils/contracts/acl/ACL.sol\":1123:1134  willPerform */\n      tag_46\n      swap3\n      pop\n      pop\n      pop\n        /* \"@aragon/govern-contract-utils/contracts/acl/ACL.sol\":1123:1163  willPerform(_role, msg.sender, msg.data) */\n      jump\t// in\n    tag_262:\n        /* \"@aragon/govern-contract-utils/contracts/acl/ACL.sol\":1115:1177  require(willPerform(_role, msg.sender, msg.data), \"acl: auth\") */\n      tag_263\n      jumpi\n      mload(0x40)\n      shl(0xe5, 0x461bcd)\n      dup2\n      mstore\n      0x04\n      add\n      tag_182\n      swap1\n      jump(tag_183)\n    tag_263:\n        /* \"@aragon/govern-contract-utils/contracts/acl/ACL.sol\":1966:1986  _revoke(_role, _who) */\n      tag_186\n        /* \"@aragon/govern-contract-utils/contracts/acl/ACL.sol\":1974:1979  _role */\n      dup4\n        /* \"@aragon/govern-contract-utils/contracts/acl/ACL.sol\":1981:1985  _who */\n      dup4\n        /* \"@aragon/govern-contract-utils/contracts/acl/ACL.sol\":1966:1973  _revoke */\n      tag_201\n        /* \"@aragon/govern-contract-utils/contracts/acl/ACL.sol\":1966:1986  _revoke(_role, _who) */\n      jump\t// in\n        /* \".deps/npm/@aragon/govern-core/contracts/pipelines/GovernQueue.sol\":2720:2987  function initialize(address _aclRoot, ERC3000Data.Config memory _initialConfig) public initACL(_aclRoot) onlyInit(\"queue\") {... */\n    tag_88:\n        /* \".deps/npm/@aragon/govern-core/contracts/pipelines/GovernQueue.sol\":2815:2823  _aclRoot */\n      dup2\n        /* \"@aragon/govern-contract-utils/contracts/acl/ACL.sol\":1321:1331  initBlocks */\n      0x02\n        /* \"@aragon/govern-contract-utils/contracts/acl/ACL.sol\":1321:1338  initBlocks[\"acl\"] */\n      mload(0x40)\n      tag_268\n      swap1\n      jump(tag_269)\n    tag_268:\n      swap1\n      dup2\n      mstore\n      0x20\n      add\n      mload(0x40)\n      dup1\n      swap2\n      sub\n      swap1\n      keccak256\n      sload\n        /* \"@aragon/govern-contract-utils/contracts/acl/ACL.sol\":1342:1343  0 */\n      0x00\n        /* \"@aragon/govern-contract-utils/contracts/acl/ACL.sol\":1321:1343  initBlocks[\"acl\"] == 0 */\n      eq\n        /* \"@aragon/govern-contract-utils/contracts/acl/ACL.sol\":1317:1398  if (initBlocks[\"acl\"] == 0) {... */\n      iszero\n      tag_271\n      jumpi\n        /* \"@aragon/govern-contract-utils/contracts/acl/ACL.sol\":1359:1387  _initializeACL(_initialRoot) */\n      tag_271\n        /* \"@aragon/govern-contract-utils/contracts/acl/ACL.sol\":1374:1386  _initialRoot */\n      dup2\n        /* \"@aragon/govern-contract-utils/contracts/acl/ACL.sol\":1359:1373  _initializeACL */\n      tag_272\n        /* \"@aragon/govern-contract-utils/contracts/acl/ACL.sol\":1359:1387  _initializeACL(_initialRoot) */\n      jump\t// in\n    tag_271:\n        /* \"@aragon/govern-contract-utils/contracts/initializable/Initializable.sol\":192:395  modifier onlyInit(string memory key) {... */\n      mload(0x40)\n      dup1\n      0x40\n      add\n      0x40\n      mstore\n      dup1\n      0x05\n      dup2\n      mstore\n      0x20\n      add\n      0x7175657565000000000000000000000000000000000000000000000000000000\n      dup2\n      mstore\n      pop\n        /* \"@aragon/govern-contract-utils/contracts/initializable/Initializable.sol\":247:257  initBlocks */\n      0x02\n        /* \"@aragon/govern-contract-utils/contracts/initializable/Initializable.sol\":258:261  key */\n      dup2\n        /* \"@aragon/govern-contract-utils/contracts/initializable/Initializable.sol\":247:262  initBlocks[key] */\n      mload(0x40)\n      tag_274\n      swap2\n      swap1\n      jump(tag_275)\n    tag_274:\n      swap1\n      dup2\n      mstore\n      0x20\n      add\n      mload(0x40)\n      dup1\n      swap2\n      sub\n      swap1\n      keccak256\n      sload\n        /* \"@aragon/govern-contract-utils/contracts/initializable/Initializable.sol\":266:267  0 */\n      0x00\n        /* \"@aragon/govern-contract-utils/contracts/initializable/Initializable.sol\":247:267  initBlocks[key] == 0 */\n      eq\n        /* \"@aragon/govern-contract-utils/contracts/initializable/Initializable.sol\":239:306  require(initBlocks[key] == 0, \"initializable: already initialized\") */\n      tag_276\n      jumpi\n      mload(0x40)\n      shl(0xe5, 0x461bcd)\n      dup2\n      mstore\n      0x04\n      add\n      tag_182\n      swap1\n      jump(tag_278)\n    tag_276:\n        /* \"@aragon/govern-contract-utils/contracts/initializable/Initializable.sol\":334:346  block.number */\n      number\n        /* \"@aragon/govern-contract-utils/contracts/initializable/Initializable.sol\":316:326  initBlocks */\n      0x02\n        /* \"@aragon/govern-contract-utils/contracts/initializable/Initializable.sol\":327:330  key */\n      dup3\n        /* \"@aragon/govern-contract-utils/contracts/initializable/Initializable.sol\":316:331  initBlocks[key] */\n      mload(0x40)\n      tag_279\n      swap2\n      swap1\n      jump(tag_275)\n    tag_279:\n      swap1\n      dup2\n      mstore\n      mload(0x40)\n      swap1\n      dup2\n      swap1\n      sub\n      0x20\n      add\n      swap1\n      keccak256\n        /* \"@aragon/govern-contract-utils/contracts/initializable/Initializable.sol\":316:346  initBlocks[key] = block.number */\n      sstore\n        /* \".deps/npm/@aragon/govern-core/contracts/pipelines/GovernQueue.sol\":2853:2879  _setConfig(_initialConfig) */\n      tag_281\n        /* \".deps/npm/@aragon/govern-core/contracts/pipelines/GovernQueue.sol\":2864:2878  _initialConfig */\n      dup4\n        /* \".deps/npm/@aragon/govern-core/contracts/pipelines/GovernQueue.sol\":2853:2863  _setConfig */\n      tag_282\n        /* \".deps/npm/@aragon/govern-core/contracts/pipelines/GovernQueue.sol\":2853:2879  _setConfig(_initialConfig) */\n      jump\t// in\n    tag_281:\n      pop\n        /* \".deps/npm/@aragon/govern-core/contracts/pipelines/GovernQueue.sol\":2889:2931  _registerStandard(ARBITRABLE_INTERFACE_ID) */\n      tag_283\n        /* \"@aragon/govern-contract-utils/contracts/protocol/IArbitrable.sol\":282:300  bytes4(0x88f3ee69) */\n      0x88f3ee6900000000000000000000000000000000000000000000000000000000\n        /* \".deps/npm/@aragon/govern-core/contracts/pipelines/GovernQueue.sol\":2889:2906  _registerStandard */\n      tag_284\n        /* \".deps/npm/@aragon/govern-core/contracts/pipelines/GovernQueue.sol\":2889:2931  _registerStandard(ARBITRABLE_INTERFACE_ID) */\n      jump\t// in\n    tag_283:\n        /* \".deps/npm/@aragon/govern-core/contracts/pipelines/GovernQueue.sol\":2941:2980  _registerStandard(ERC3000_INTERFACE_ID) */\n      tag_285\n        /* \"erc3k/contracts/IERC3000.sol\":219:444  IERC3000(0).schedule.selector... */\n      0x45f1d4aa00000000000000000000000000000000000000000000000000000000\n        /* \".deps/npm/@aragon/govern-core/contracts/pipelines/GovernQueue.sol\":2941:2958  _registerStandard */\n      tag_284\n        /* \".deps/npm/@aragon/govern-core/contracts/pipelines/GovernQueue.sol\":2941:2980  _registerStandard(ERC3000_INTERFACE_ID) */\n      jump\t// in\n    tag_285:\n        /* \"@aragon/govern-contract-utils/contracts/initializable/Initializable.sol\":384:387  key */\n      dup1\n        /* \"@aragon/govern-contract-utils/contracts/initializable/Initializable.sol\":372:388  Initialized(key) */\n      mload(0x40)\n      tag_286\n      swap2\n      swap1\n      jump(tag_275)\n    tag_286:\n      mload(0x40)\n      swap1\n      dup2\n      swap1\n      sub\n      dup2\n      keccak256\n      swap1\n      0x7bc2a48a4a566e237a12186f19d985b0f76afc9d5290601edac19876253670c2\n      swap1\n      0x00\n      swap1\n      log2\n        /* \"@aragon/govern-contract-utils/contracts/acl/ACL.sol\":1407:1408  _ */\n      pop\n        /* \".deps/npm/@aragon/govern-core/contracts/pipelines/GovernQueue.sol\":2720:2987  function initialize(address _aclRoot, ERC3000Data.Config memory _initialConfig) public initACL(_aclRoot) onlyInit(\"queue\") {... */\n      pop\n      pop\n      pop\n      jump\t// out\n        /* \".deps/npm/@aragon/govern-core/contracts/pipelines/GovernQueue.sol\":7569:9574  function challenge(ERC3000Data.Container memory _container, bytes memory _reason) auth(this.challenge.selector) override public returns (uint256 disputeId) {... */\n    tag_92:\n        /* \".deps/npm/@aragon/govern-core/contracts/pipelines/GovernQueue.sol\":7706:7723  uint256 disputeId */\n      0x00\n        /* \".deps/npm/@aragon/govern-core/contracts/pipelines/GovernQueue.sol\":7656:7679  this.challenge.selector */\n      shl(0xe0, 0x70576158)\n        /* \"@aragon/govern-contract-utils/contracts/acl/ACL.sol\":1123:1163  willPerform(_role, msg.sender, msg.data) */\n      tag_288\n        /* \"@aragon/govern-contract-utils/contracts/acl/ACL.sol\":1135:1140  _role */\n      dup2\n        /* \"@aragon/govern-contract-utils/contracts/acl/ACL.sol\":1142:1152  msg.sender */\n      caller\n        /* \"@aragon/govern-contract-utils/contracts/acl/ACL.sol\":1154:1162  msg.data */\n      0x00\n      calldatasize\n        /* \"@aragon/govern-contract-utils/contracts/acl/ACL.sol\":1123:1163  willPerform(_role, msg.sender, msg.data) */\n      dup1\n      dup1\n      0x1f\n      add\n      0x20\n      dup1\n      swap2\n      div\n      mul\n      0x20\n      add\n      mload(0x40)\n      swap1\n      dup2\n      add\n      0x40\n      mstore\n      dup1\n      swap4\n      swap3\n      swap2\n      swap1\n      dup2\n      dup2\n      mstore\n      0x20\n      add\n      dup4\n      dup4\n        /* \"--CODEGEN--\":30:33   */\n      dup1\n        /* \"--CODEGEN--\":22:28   */\n      dup3\n        /* \"--CODEGEN--\":14:20   */\n      dup5\n        /* \"--CODEGEN--\":1:34   */\n      calldatacopy\n        /* \"--CODEGEN--\":99:100   */\n      0x00\n        /* \"--CODEGEN--\":81:97   */\n      swap3\n      add\n        /* \"--CODEGEN--\":74:101   */\n      swap2\n      swap1\n      swap2\n      mstore\n      pop\n        /* \"@aragon/govern-contract-utils/contracts/acl/ACL.sol\":1123:1134  willPerform */\n      tag_46\n      swap3\n      pop\n      pop\n      pop\n        /* \"@aragon/govern-contract-utils/contracts/acl/ACL.sol\":1123:1163  willPerform(_role, msg.sender, msg.data) */\n      jump\t// in\n    tag_288:\n        /* \"@aragon/govern-contract-utils/contracts/acl/ACL.sol\":1115:1177  require(willPerform(_role, msg.sender, msg.data), \"acl: auth\") */\n      tag_289\n      jumpi\n      mload(0x40)\n      shl(0xe5, 0x461bcd)\n      dup2\n      mstore\n      0x04\n      add\n      tag_182\n      swap1\n      jump(tag_183)\n    tag_289:\n        /* \".deps/npm/@aragon/govern-core/contracts/pipelines/GovernQueue.sol\":7735:7756  bytes32 containerHash */\n      0x00\n        /* \".deps/npm/@aragon/govern-core/contracts/pipelines/GovernQueue.sol\":7759:7776  _container.hash() */\n      tag_292\n        /* \".deps/npm/@aragon/govern-core/contracts/pipelines/GovernQueue.sol\":7759:7769  _container */\n      dup6\n        /* \".deps/npm/@aragon/govern-core/contracts/pipelines/GovernQueue.sol\":7759:7774  _container.hash */\n      tag_210\n        /* \".deps/npm/@aragon/govern-core/contracts/pipelines/GovernQueue.sol\":7759:7776  _container.hash() */\n      jump\t// in\n    tag_292:\n        /* \".deps/npm/@aragon/govern-core/contracts/pipelines/GovernQueue.sol\":7786:7816  challengerCache[containerHash] */\n      0x00\n      dup2\n      dup2\n      mstore\n        /* \".deps/npm/@aragon/govern-core/contracts/pipelines/GovernQueue.sol\":7786:7801  challengerCache */\n      0x07\n        /* \".deps/npm/@aragon/govern-core/contracts/pipelines/GovernQueue.sol\":7786:7816  challengerCache[containerHash] */\n      0x20\n      swap1\n      dup2\n      mstore\n      0x40\n      dup1\n      dup4\n      keccak256\n        /* \".deps/npm/@aragon/govern-core/contracts/pipelines/GovernQueue.sol\":7786:7829  challengerCache[containerHash] = msg.sender */\n      dup1\n      sload\n      0xffffffffffffffffffffffff0000000000000000000000000000000000000000\n      and\n        /* \".deps/npm/@aragon/govern-core/contracts/pipelines/GovernQueue.sol\":7819:7829  msg.sender */\n      caller\n        /* \".deps/npm/@aragon/govern-core/contracts/pipelines/GovernQueue.sol\":7786:7829  challengerCache[containerHash] = msg.sender */\n      or\n      swap1\n      sstore\n        /* \".deps/npm/@aragon/govern-core/contracts/pipelines/GovernQueue.sol\":7886:7891  queue */\n      0x06\n        /* \".deps/npm/@aragon/govern-core/contracts/pipelines/GovernQueue.sol\":7886:7906  queue[containerHash] */\n      swap1\n      swap2\n      mstore\n      swap1\n      keccak256\n        /* \".deps/npm/@aragon/govern-core/contracts/pipelines/GovernQueue.sol\":7735:7776  bytes32 containerHash = _container.hash() */\n      swap1\n      swap2\n      pop\n        /* \".deps/npm/@aragon/govern-core/contracts/pipelines/GovernQueue.sol\":7886:8032  queue[containerHash].checkAndSetState(... */\n      tag_293\n      swap1\n        /* \".deps/npm/@aragon/govern-core/contracts/pipelines/GovernQueue.sol\":7786:7829  challengerCache[containerHash] = msg.sender */\n      0x01\n        /* \".deps/npm/@aragon/govern-core/contracts/pipelines/GovernQueue.sol\":7986:8022  GovernQueueStateLib.State.Challenged */\n      0x02\n        /* \".deps/npm/@aragon/govern-core/contracts/pipelines/GovernQueue.sol\":7886:8032  queue[containerHash].checkAndSetState(... */\n      0xffffffff\n        /* \".deps/npm/@aragon/govern-core/contracts/pipelines/GovernQueue.sol\":7886:7923  queue[containerHash].checkAndSetState */\n      tag_238\n        /* \".deps/npm/@aragon/govern-core/contracts/pipelines/GovernQueue.sol\":7886:8032  queue[containerHash].checkAndSetState(... */\n      and\n      jump\t// in\n    tag_293:\n        /* \".deps/npm/@aragon/govern-core/contracts/pipelines/GovernQueue.sol\":8043:8083  ERC3000Data.Collateral memory collateral */\n      tag_294\n      tag_295\n      jump\t// in\n    tag_294:\n      pop\n        /* \".deps/npm/@aragon/govern-core/contracts/pipelines/GovernQueue.sol\":8086:8103  _container.config */\n      0x20\n      dup6\n      add\n      mload\n        /* \".deps/npm/@aragon/govern-core/contracts/pipelines/GovernQueue.sol\":8086:8120  _container.config.challengeDeposit */\n      0x40\n      add\n      mload\n        /* \".deps/npm/@aragon/govern-core/contracts/pipelines/GovernQueue.sol\":8130:8164  collateral.collectFrom(msg.sender) */\n      tag_296\n        /* \".deps/npm/@aragon/govern-core/contracts/pipelines/GovernQueue.sol\":8086:8120  _container.config.challengeDeposit */\n      dup2\n        /* \".deps/npm/@aragon/govern-core/contracts/pipelines/GovernQueue.sol\":8153:8163  msg.sender */\n      caller\n        /* \".deps/npm/@aragon/govern-core/contracts/pipelines/GovernQueue.sol\":8130:8164  collateral.collectFrom(msg.sender) */\n      0xffffffff\n        /* \".deps/npm/@aragon/govern-core/contracts/pipelines/GovernQueue.sol\":8130:8152  collateral.collectFrom */\n      tag_297\n        /* \".deps/npm/@aragon/govern-core/contracts/pipelines/GovernQueue.sol\":8130:8164  collateral.collectFrom(msg.sender) */\n      and\n      jump\t// in\n    tag_296:\n        /* \".deps/npm/@aragon/govern-core/contracts/pipelines/GovernQueue.sol\":8256:8278  IArbitrator arbitrator */\n      0x00\n        /* \".deps/npm/@aragon/govern-core/contracts/pipelines/GovernQueue.sol\":8293:8303  _container */\n      dup7\n        /* \".deps/npm/@aragon/govern-core/contracts/pipelines/GovernQueue.sol\":8293:8310  _container.config */\n      0x20\n      add\n      mload\n        /* \".deps/npm/@aragon/govern-core/contracts/pipelines/GovernQueue.sol\":8293:8319  _container.config.resolver */\n      0x60\n      add\n      mload\n        /* \".deps/npm/@aragon/govern-core/contracts/pipelines/GovernQueue.sol\":8256:8320  IArbitrator arbitrator = IArbitrator(_container.config.resolver) */\n      swap1\n      pop\n        /* \".deps/npm/@aragon/govern-core/contracts/pipelines/GovernQueue.sol\":8331:8348  address recipient */\n      0x00\n        /* \".deps/npm/@aragon/govern-core/contracts/pipelines/GovernQueue.sol\":8350:8364  ERC20 feeToken */\n      dup1\n        /* \".deps/npm/@aragon/govern-core/contracts/pipelines/GovernQueue.sol\":8366:8383  uint256 feeAmount */\n      0x00\n        /* \".deps/npm/@aragon/govern-core/contracts/pipelines/GovernQueue.sol\":8387:8397  arbitrator */\n      dup4\n        /* \".deps/npm/@aragon/govern-core/contracts/pipelines/GovernQueue.sol\":8387:8412  arbitrator.getDisputeFees */\n      0xffffffffffffffffffffffffffffffffffffffff\n      and\n      0x7b751b9e\n        /* \".deps/npm/@aragon/govern-core/contracts/pipelines/GovernQueue.sol\":8387:8414  arbitrator.getDisputeFees() */\n      mload(0x40)\n      dup2\n      0xffffffff\n      and\n      0xe0\n      shl\n      dup2\n      mstore\n      0x04\n      add\n      0x60\n      mload(0x40)\n      dup1\n      dup4\n      sub\n      dup2\n      dup7\n      dup1\n      extcodesize\n      iszero\n        /* \"--CODEGEN--\":5:14   */\n      dup1\n        /* \"--CODEGEN--\":2:4   */\n      iszero\n      tag_298\n      jumpi\n        /* \"--CODEGEN--\":27:28   */\n      0x00\n        /* \"--CODEGEN--\":24:25   */\n      dup1\n        /* \"--CODEGEN--\":17:29   */\n      revert\n        /* \"--CODEGEN--\":2:4   */\n    tag_298:\n        /* \".deps/npm/@aragon/govern-core/contracts/pipelines/GovernQueue.sol\":8387:8414  arbitrator.getDisputeFees() */\n      pop\n      gas\n      staticcall\n      iszero\n        /* \"--CODEGEN--\":8:17   */\n      dup1\n        /* \"--CODEGEN--\":5:7   */\n      iszero\n      tag_300\n      jumpi\n        /* \"--CODEGEN--\":45:61   */\n      returndatasize\n        /* \"--CODEGEN--\":42:43   */\n      0x00\n        /* \"--CODEGEN--\":39:40   */\n      dup1\n        /* \"--CODEGEN--\":24:62   */\n      returndatacopy\n        /* \"--CODEGEN--\":77:93   */\n      returndatasize\n        /* \"--CODEGEN--\":74:75   */\n      0x00\n        /* \"--CODEGEN--\":67:94   */\n      revert\n        /* \"--CODEGEN--\":5:7   */\n    tag_300:\n        /* \".deps/npm/@aragon/govern-core/contracts/pipelines/GovernQueue.sol\":8387:8414  arbitrator.getDisputeFees() */\n      pop\n      pop\n      pop\n      pop\n      mload(0x40)\n      returndatasize\n        /* \"--CODEGEN--\":101:105   */\n      0x1f\n        /* \"--CODEGEN--\":97:106   */\n      not\n        /* \"--CODEGEN--\":90:94   */\n      0x1f\n        /* \"--CODEGEN--\":84:88   */\n      dup3\n        /* \"--CODEGEN--\":80:95   */\n      add\n        /* \"--CODEGEN--\":76:107   */\n      and\n        /* \"--CODEGEN--\":69:74   */\n      dup3\n        /* \"--CODEGEN--\":65:108   */\n      add\n        /* \"--CODEGEN--\":126:132   */\n      dup1\n        /* \"--CODEGEN--\":120:124   */\n      0x40\n        /* \"--CODEGEN--\":113:133   */\n      mstore\n        /* \"--CODEGEN--\":0:138   */\n      pop\n        /* \".deps/npm/@aragon/govern-core/contracts/pipelines/GovernQueue.sol\":8387:8414  arbitrator.getDisputeFees() */\n      dup2\n      add\n      swap1\n      tag_301\n      swap2\n      swap1\n      jump(tag_302)\n    tag_301:\n        /* \".deps/npm/@aragon/govern-core/contracts/pipelines/GovernQueue.sol\":8330:8414  (address recipient, ERC20 feeToken, uint256 feeAmount) = arbitrator.getDisputeFees() */\n      swap2\n      swap5\n      pop\n      swap3\n      pop\n      swap1\n      pop\n        /* \".deps/npm/@aragon/govern-core/contracts/pipelines/GovernQueue.sol\":8432:8495  feeToken.safeTransferFrom(msg.sender, address(this), feeAmount) */\n      tag_303\n        /* \".deps/npm/@aragon/govern-core/contracts/pipelines/GovernQueue.sol\":8432:8457  feeToken.safeTransferFrom */\n      0xffffffffffffffffffffffffffffffffffffffff\n      dup4\n      and\n        /* \".deps/npm/@aragon/govern-core/contracts/pipelines/GovernQueue.sol\":8458:8468  msg.sender */\n      caller\n        /* \".deps/npm/@aragon/govern-core/contracts/pipelines/GovernQueue.sol\":8478:8482  this */\n      address\n        /* \".deps/npm/@aragon/govern-core/contracts/pipelines/GovernQueue.sol\":8330:8414  (address recipient, ERC20 feeToken, uint256 feeAmount) = arbitrator.getDisputeFees() */\n      dup5\n        /* \".deps/npm/@aragon/govern-core/contracts/pipelines/GovernQueue.sol\":8432:8495  feeToken.safeTransferFrom(msg.sender, address(this), feeAmount) */\n      0xffffffff\n        /* \".deps/npm/@aragon/govern-core/contracts/pipelines/GovernQueue.sol\":8432:8457  feeToken.safeTransferFrom */\n      tag_304\n        /* \".deps/npm/@aragon/govern-core/contracts/pipelines/GovernQueue.sol\":8432:8495  feeToken.safeTransferFrom(msg.sender, address(this), feeAmount) */\n      and\n      jump\t// in\n    tag_303:\n        /* \".deps/npm/@aragon/govern-core/contracts/pipelines/GovernQueue.sol\":8424:8519  require(feeToken.safeTransferFrom(msg.sender, address(this), feeAmount), \"queue: bad fee pull\") */\n      tag_305\n      jumpi\n      mload(0x40)\n      shl(0xe5, 0x461bcd)\n      dup2\n      mstore\n      0x04\n      add\n      tag_182\n      swap1\n      jump(tag_307)\n    tag_305:\n        /* \".deps/npm/@aragon/govern-core/contracts/pipelines/GovernQueue.sol\":8537:8579  feeToken.safeApprove(recipient, feeAmount) */\n      tag_308\n        /* \".deps/npm/@aragon/govern-core/contracts/pipelines/GovernQueue.sol\":8537:8557  feeToken.safeApprove */\n      0xffffffffffffffffffffffffffffffffffffffff\n      dup4\n      and\n        /* \".deps/npm/@aragon/govern-core/contracts/pipelines/GovernQueue.sol\":8558:8567  recipient */\n      dup5\n        /* \".deps/npm/@aragon/govern-core/contracts/pipelines/GovernQueue.sol\":8569:8578  feeAmount */\n      dup4\n        /* \".deps/npm/@aragon/govern-core/contracts/pipelines/GovernQueue.sol\":8537:8579  feeToken.safeApprove(recipient, feeAmount) */\n      0xffffffff\n        /* \".deps/npm/@aragon/govern-core/contracts/pipelines/GovernQueue.sol\":8537:8557  feeToken.safeApprove */\n      tag_309\n        /* \".deps/npm/@aragon/govern-core/contracts/pipelines/GovernQueue.sol\":8537:8579  feeToken.safeApprove(recipient, feeAmount) */\n      and\n      jump\t// in\n    tag_308:\n        /* \".deps/npm/@aragon/govern-core/contracts/pipelines/GovernQueue.sol\":8529:8602  require(feeToken.safeApprove(recipient, feeAmount), \"queue: bad approve\") */\n      tag_310\n      jumpi\n      mload(0x40)\n      shl(0xe5, 0x461bcd)\n      dup2\n      mstore\n      0x04\n      add\n      tag_182\n      swap1\n      jump(tag_312)\n    tag_310:\n        /* \".deps/npm/@aragon/govern-core/contracts/pipelines/GovernQueue.sol\":8624:8634  arbitrator */\n      dup4\n        /* \".deps/npm/@aragon/govern-core/contracts/pipelines/GovernQueue.sol\":8624:8648  arbitrator.createDispute */\n      0xffffffffffffffffffffffffffffffffffffffff\n      and\n      0xc13517e1\n        /* \".deps/npm/@aragon/govern-core/contracts/pipelines/GovernQueue.sol\":8649:8650  2 */\n      0x02\n        /* \".deps/npm/@aragon/govern-core/contracts/pipelines/GovernQueue.sol\":8663:8673  _container */\n      dup13\n        /* \".deps/npm/@aragon/govern-core/contracts/pipelines/GovernQueue.sol\":8652:8674  abi.encode(_container) */\n      add(0x20, mload(0x40))\n      tag_313\n      swap2\n      swap1\n      jump(tag_314)\n    tag_313:\n      mload(0x40)\n        /* \"--CODEGEN--\":49:53   */\n      0x20\n        /* \"--CODEGEN--\":39:46   */\n      dup2\n        /* \"--CODEGEN--\":30:37   */\n      dup4\n        /* \"--CODEGEN--\":26:47   */\n      sub\n        /* \"--CODEGEN--\":22:54   */\n      sub\n        /* \"--CODEGEN--\":13:20   */\n      dup2\n        /* \"--CODEGEN--\":6:55   */\n      mstore\n        /* \".deps/npm/@aragon/govern-core/contracts/pipelines/GovernQueue.sol\":8652:8674  abi.encode(_container) */\n      swap1\n      0x40\n      mstore\n        /* \".deps/npm/@aragon/govern-core/contracts/pipelines/GovernQueue.sol\":8624:8675  arbitrator.createDispute(2, abi.encode(_container)) */\n      mload(0x40)\n      dup4\n      0xffffffff\n      and\n      0xe0\n      shl\n      dup2\n      mstore\n      0x04\n      add\n      tag_315\n      swap3\n      swap2\n      swap1\n      jump(tag_316)\n    tag_315:\n      0x20\n      mload(0x40)\n      dup1\n      dup4\n      sub\n      dup2\n      0x00\n      dup8\n      dup1\n      extcodesize\n      iszero\n        /* \"--CODEGEN--\":5:14   */\n      dup1\n        /* \"--CODEGEN--\":2:4   */\n      iszero\n      tag_317\n      jumpi\n        /* \"--CODEGEN--\":27:28   */\n      0x00\n        /* \"--CODEGEN--\":24:25   */\n      dup1\n        /* \"--CODEGEN--\":17:29   */\n      revert\n        /* \"--CODEGEN--\":2:4   */\n    tag_317:\n        /* \".deps/npm/@aragon/govern-core/contracts/pipelines/GovernQueue.sol\":8624:8675  arbitrator.createDispute(2, abi.encode(_container)) */\n      pop\n      gas\n      call\n      iszero\n        /* \"--CODEGEN--\":8:17   */\n      dup1\n        /* \"--CODEGEN--\":5:7   */\n      iszero\n      tag_319\n      jumpi\n        /* \"--CODEGEN--\":45:61   */\n      returndatasize\n        /* \"--CODEGEN--\":42:43   */\n      0x00\n        /* \"--CODEGEN--\":39:40   */\n      dup1\n        /* \"--CODEGEN--\":24:62   */\n      returndatacopy\n        /* \"--CODEGEN--\":77:93   */\n      returndatasize\n        /* \"--CODEGEN--\":74:75   */\n      0x00\n        /* \"--CODEGEN--\":67:94   */\n      revert\n        /* \"--CODEGEN--\":5:7   */\n    tag_319:\n        /* \".deps/npm/@aragon/govern-core/contracts/pipelines/GovernQueue.sol\":8624:8675  arbitrator.createDispute(2, abi.encode(_container)) */\n      pop\n      pop\n      pop\n      pop\n      mload(0x40)\n      returndatasize\n        /* \"--CODEGEN--\":101:105   */\n      0x1f\n        /* \"--CODEGEN--\":97:106   */\n      not\n        /* \"--CODEGEN--\":90:94   */\n      0x1f\n        /* \"--CODEGEN--\":84:88   */\n      dup3\n        /* \"--CODEGEN--\":80:95   */\n      add\n        /* \"--CODEGEN--\":76:107   */\n      and\n        /* \"--CODEGEN--\":69:74   */\n      dup3\n        /* \"--CODEGEN--\":65:108   */\n      add\n        /* \"--CODEGEN--\":126:132   */\n      dup1\n        /* \"--CODEGEN--\":120:124   */\n      0x40\n        /* \"--CODEGEN--\":113:133   */\n      mstore\n        /* \"--CODEGEN--\":0:138   */\n      pop\n        /* \".deps/npm/@aragon/govern-core/contracts/pipelines/GovernQueue.sol\":8624:8675  arbitrator.createDispute(2, abi.encode(_container)) */\n      dup2\n      add\n      swap1\n      tag_320\n      swap2\n      swap1\n      jump(tag_321)\n    tag_320:\n        /* \".deps/npm/@aragon/govern-core/contracts/pipelines/GovernQueue.sol\":8612:8675  disputeId = arbitrator.createDispute(2, abi.encode(_container)) */\n      swap8\n      pop\n        /* \".deps/npm/@aragon/govern-core/contracts/pipelines/GovernQueue.sol\":8789:8823  feeToken.safeApprove(recipient, 0) */\n      tag_322\n        /* \".deps/npm/@aragon/govern-core/contracts/pipelines/GovernQueue.sol\":8789:8809  feeToken.safeApprove */\n      0xffffffffffffffffffffffffffffffffffffffff\n      dup4\n      and\n        /* \".deps/npm/@aragon/govern-core/contracts/pipelines/GovernQueue.sol\":8810:8819  recipient */\n      dup5\n        /* \".deps/npm/@aragon/govern-core/contracts/pipelines/GovernQueue.sol\":8821:8822  0 */\n      0x00\n        /* \".deps/npm/@aragon/govern-core/contracts/pipelines/GovernQueue.sol\":8789:8823  feeToken.safeApprove(recipient, 0) */\n      0xffffffff\n        /* \".deps/npm/@aragon/govern-core/contracts/pipelines/GovernQueue.sol\":8789:8809  feeToken.safeApprove */\n      tag_309\n        /* \".deps/npm/@aragon/govern-core/contracts/pipelines/GovernQueue.sol\":8789:8823  feeToken.safeApprove(recipient, 0) */\n      and\n      jump\t// in\n    tag_322:\n        /* \".deps/npm/@aragon/govern-core/contracts/pipelines/GovernQueue.sol\":8781:8844  require(feeToken.safeApprove(recipient, 0), \"queue: bad reset\") */\n      tag_323\n      jumpi\n      mload(0x40)\n      shl(0xe5, 0x461bcd)\n      dup2\n      mstore\n      0x04\n      add\n      tag_182\n      swap1\n      jump(tag_325)\n    tag_323:\n        /* \".deps/npm/@aragon/govern-core/contracts/pipelines/GovernQueue.sol\":9153:9163  _container */\n      dup10\n        /* \".deps/npm/@aragon/govern-core/contracts/pipelines/GovernQueue.sol\":9153:9171  _container.payload */\n      0x00\n      add\n      mload\n        /* \".deps/npm/@aragon/govern-core/contracts/pipelines/GovernQueue.sol\":9153:9181  _container.payload.submitter */\n      0x40\n      add\n      mload\n        /* \".deps/npm/@aragon/govern-core/contracts/pipelines/GovernQueue.sol\":9112:9214  EvidenceSubmitted(arbitrator, disputeId, _container.payload.submitter, _container.payload.proof, true) */\n      0xffffffffffffffffffffffffffffffffffffffff\n      and\n        /* \".deps/npm/@aragon/govern-core/contracts/pipelines/GovernQueue.sol\":9142:9151  disputeId */\n      dup9\n        /* \".deps/npm/@aragon/govern-core/contracts/pipelines/GovernQueue.sol\":9130:9140  arbitrator */\n      dup6\n        /* \".deps/npm/@aragon/govern-core/contracts/pipelines/GovernQueue.sol\":9112:9214  EvidenceSubmitted(arbitrator, disputeId, _container.payload.submitter, _container.payload.proof, true) */\n      0xffffffffffffffffffffffffffffffffffffffff\n      and\n      0x1988e4d59f596ba1a2d81e06874704a62502463ae6d99154f923e5edeb98392b\n        /* \".deps/npm/@aragon/govern-core/contracts/pipelines/GovernQueue.sol\":9183:9193  _container */\n      dup14\n        /* \".deps/npm/@aragon/govern-core/contracts/pipelines/GovernQueue.sol\":9183:9201  _container.payload */\n      0x00\n      add\n      mload\n        /* \".deps/npm/@aragon/govern-core/contracts/pipelines/GovernQueue.sol\":9183:9207  _container.payload.proof */\n      0xc0\n      add\n      mload\n        /* \".deps/npm/@aragon/govern-core/contracts/pipelines/GovernQueue.sol\":9209:9213  true */\n      0x01\n        /* \".deps/npm/@aragon/govern-core/contracts/pipelines/GovernQueue.sol\":9112:9214  EvidenceSubmitted(arbitrator, disputeId, _container.payload.submitter, _container.payload.proof, true) */\n      mload(0x40)\n      tag_326\n      swap3\n      swap2\n      swap1\n      jump(tag_327)\n    tag_326:\n      mload(0x40)\n      dup1\n      swap2\n      sub\n      swap1\n      log4\n        /* \".deps/npm/@aragon/govern-core/contracts/pipelines/GovernQueue.sol\":9270:9280  msg.sender */\n      caller\n        /* \".deps/npm/@aragon/govern-core/contracts/pipelines/GovernQueue.sol\":9229:9296  EvidenceSubmitted(arbitrator, disputeId, msg.sender, _reason, true) */\n      0xffffffffffffffffffffffffffffffffffffffff\n      and\n        /* \".deps/npm/@aragon/govern-core/contracts/pipelines/GovernQueue.sol\":9259:9268  disputeId */\n      dup9\n        /* \".deps/npm/@aragon/govern-core/contracts/pipelines/GovernQueue.sol\":9247:9257  arbitrator */\n      dup6\n        /* \".deps/npm/@aragon/govern-core/contracts/pipelines/GovernQueue.sol\":9229:9296  EvidenceSubmitted(arbitrator, disputeId, msg.sender, _reason, true) */\n      0xffffffffffffffffffffffffffffffffffffffff\n      and\n      0x1988e4d59f596ba1a2d81e06874704a62502463ae6d99154f923e5edeb98392b\n        /* \".deps/npm/@aragon/govern-core/contracts/pipelines/GovernQueue.sol\":9282:9289  _reason */\n      dup13\n        /* \".deps/npm/@aragon/govern-core/contracts/pipelines/GovernQueue.sol\":9291:9295  true */\n      0x01\n        /* \".deps/npm/@aragon/govern-core/contracts/pipelines/GovernQueue.sol\":9229:9296  EvidenceSubmitted(arbitrator, disputeId, msg.sender, _reason, true) */\n      mload(0x40)\n      tag_328\n      swap3\n      swap2\n      swap1\n      jump(tag_327)\n    tag_328:\n      mload(0x40)\n      dup1\n      swap2\n      sub\n      swap1\n      log4\n        /* \".deps/npm/@aragon/govern-core/contracts/pipelines/GovernQueue.sol\":9306:9347  arbitrator.closeEvidencePeriod(disputeId) */\n      mload(0x40)\n      0x7e9adccf00000000000000000000000000000000000000000000000000000000\n      dup2\n      mstore\n        /* \".deps/npm/@aragon/govern-core/contracts/pipelines/GovernQueue.sol\":9306:9336  arbitrator.closeEvidencePeriod */\n      0xffffffffffffffffffffffffffffffffffffffff\n      dup6\n      and\n      swap1\n      0x7e9adccf\n      swap1\n        /* \".deps/npm/@aragon/govern-core/contracts/pipelines/GovernQueue.sol\":9306:9347  arbitrator.closeEvidencePeriod(disputeId) */\n      tag_329\n      swap1\n        /* \".deps/npm/@aragon/govern-core/contracts/pipelines/GovernQueue.sol\":9337:9346  disputeId */\n      dup12\n      swap1\n        /* \".deps/npm/@aragon/govern-core/contracts/pipelines/GovernQueue.sol\":9306:9347  arbitrator.closeEvidencePeriod(disputeId) */\n      0x04\n      add\n      jump(tag_72)\n    tag_329:\n      0x00\n      mload(0x40)\n      dup1\n      dup4\n      sub\n      dup2\n      0x00\n      dup8\n      dup1\n      extcodesize\n      iszero\n        /* \"--CODEGEN--\":5:14   */\n      dup1\n        /* \"--CODEGEN--\":2:4   */\n      iszero\n      tag_330\n      jumpi\n        /* \"--CODEGEN--\":27:28   */\n      0x00\n        /* \"--CODEGEN--\":24:25   */\n      dup1\n        /* \"--CODEGEN--\":17:29   */\n      revert\n        /* \"--CODEGEN--\":2:4   */\n    tag_330:\n        /* \".deps/npm/@aragon/govern-core/contracts/pipelines/GovernQueue.sol\":9306:9347  arbitrator.closeEvidencePeriod(disputeId) */\n      pop\n      gas\n      call\n      iszero\n        /* \"--CODEGEN--\":8:17   */\n      dup1\n        /* \"--CODEGEN--\":5:7   */\n      iszero\n      tag_332\n      jumpi\n        /* \"--CODEGEN--\":45:61   */\n      returndatasize\n        /* \"--CODEGEN--\":42:43   */\n      0x00\n        /* \"--CODEGEN--\":39:40   */\n      dup1\n        /* \"--CODEGEN--\":24:62   */\n      returndatacopy\n        /* \"--CODEGEN--\":77:93   */\n      returndatasize\n        /* \"--CODEGEN--\":74:75   */\n      0x00\n        /* \"--CODEGEN--\":67:94   */\n      revert\n        /* \"--CODEGEN--\":5:7   */\n    tag_332:\n      pop\n      pop\n      pop\n        /* \".deps/npm/@aragon/govern-core/contracts/pipelines/GovernQueue.sol\":9358:9386  disputeItemCache[arbitrator] */\n      0xffffffffffffffffffffffffffffffffffffffff\n      dup6\n      and\n      0x00\n      swap1\n      dup2\n      mstore\n        /* \".deps/npm/@aragon/govern-core/contracts/pipelines/GovernQueue.sol\":9358:9374  disputeItemCache */\n      0x08\n        /* \".deps/npm/@aragon/govern-core/contracts/pipelines/GovernQueue.sol\":9358:9386  disputeItemCache[arbitrator] */\n      0x20\n      swap1\n      dup2\n      mstore\n      0x40\n      dup1\n      dup4\n      keccak256\n        /* \".deps/npm/@aragon/govern-core/contracts/pipelines/GovernQueue.sol\":9358:9397  disputeItemCache[arbitrator][disputeId] */\n      dup13\n      dup5\n      mstore\n      swap1\n      swap2\n      mstore\n      swap1\n      dup2\n      swap1\n      keccak256\n        /* \".deps/npm/@aragon/govern-core/contracts/pipelines/GovernQueue.sol\":9358:9413  disputeItemCache[arbitrator][disputeId] = containerHash */\n      dup9\n      swap1\n      sstore\n        /* \".deps/npm/@aragon/govern-core/contracts/pipelines/GovernQueue.sol\":9498:9567  Challenged(containerHash, msg.sender, _reason, disputeId, collateral) */\n      mload\n        /* \".deps/npm/@aragon/govern-core/contracts/pipelines/GovernQueue.sol\":9524:9534  msg.sender */\n      caller\n      swap2\n      pop\n        /* \".deps/npm/@aragon/govern-core/contracts/pipelines/GovernQueue.sol\":9400:9413  containerHash */\n      dup8\n      swap1\n        /* \".deps/npm/@aragon/govern-core/contracts/pipelines/GovernQueue.sol\":9498:9567  Challenged(containerHash, msg.sender, _reason, disputeId, collateral) */\n      0x429df837eb45b6713f725a0d3e57db939fd7dd7d58bb3cd967fa37091572db9f\n      swap1\n      tag_333\n      swap1\n        /* \".deps/npm/@aragon/govern-core/contracts/pipelines/GovernQueue.sol\":9536:9543  _reason */\n      dup14\n      swap1\n        /* \".deps/npm/@aragon/govern-core/contracts/pipelines/GovernQueue.sol\":9387:9396  disputeId */\n      dup14\n      swap1\n        /* \".deps/npm/@aragon/govern-core/contracts/pipelines/GovernQueue.sol\":9556:9566  collateral */\n      dup12\n      swap1\n        /* \".deps/npm/@aragon/govern-core/contracts/pipelines/GovernQueue.sol\":9498:9567  Challenged(containerHash, msg.sender, _reason, disputeId, collateral) */\n      jump(tag_334)\n    tag_333:\n      mload(0x40)\n      dup1\n      swap2\n      sub\n      swap1\n      log3\n        /* \"@aragon/govern-contract-utils/contracts/acl/ACL.sol\":1187:1188  _ */\n      pop\n      pop\n      pop\n      pop\n      pop\n      pop\n        /* \".deps/npm/@aragon/govern-core/contracts/pipelines/GovernQueue.sol\":7569:9574  function challenge(ERC3000Data.Container memory _container, bytes memory _reason) auth(this.challenge.selector) override public returns (uint256 disputeId) {... */\n      pop\n      swap3\n      swap2\n      pop\n      pop\n      jump\t// out\n        /* \".deps/npm/@aragon/govern-core/contracts/pipelines/GovernQueue.sol\":11452:11649  function configure(ERC3000Data.Config memory _config)... */\n    tag_98:\n        /* \".deps/npm/@aragon/govern-core/contracts/pipelines/GovernQueue.sol\":11593:11600  bytes32 */\n      0x00\n        /* \".deps/npm/@aragon/govern-core/contracts/pipelines/GovernQueue.sol\":11551:11574  this.configure.selector */\n      shl(0xe0, 0x72896761)\n        /* \"@aragon/govern-contract-utils/contracts/acl/ACL.sol\":1123:1163  willPerform(_role, msg.sender, msg.data) */\n      tag_336\n        /* \"@aragon/govern-contract-utils/contracts/acl/ACL.sol\":1135:1140  _role */\n      dup2\n        /* \"@aragon/govern-contract-utils/contracts/acl/ACL.sol\":1142:1152  msg.sender */\n      caller\n        /* \"@aragon/govern-contract-utils/contracts/acl/ACL.sol\":1154:1162  msg.data */\n      0x00\n      calldatasize\n        /* \"@aragon/govern-contract-utils/contracts/acl/ACL.sol\":1123:1163  willPerform(_role, msg.sender, msg.data) */\n      dup1\n      dup1\n      0x1f\n      add\n      0x20\n      dup1\n      swap2\n      div\n      mul\n      0x20\n      add\n      mload(0x40)\n      swap1\n      dup2\n      add\n      0x40\n      mstore\n      dup1\n      swap4\n      swap3\n      swap2\n      swap1\n      dup2\n      dup2\n      mstore\n      0x20\n      add\n      dup4\n      dup4\n        /* \"--CODEGEN--\":30:33   */\n      dup1\n        /* \"--CODEGEN--\":22:28   */\n      dup3\n        /* \"--CODEGEN--\":14:20   */\n      dup5\n        /* \"--CODEGEN--\":1:34   */\n      calldatacopy\n        /* \"--CODEGEN--\":99:100   */\n      0x00\n        /* \"--CODEGEN--\":81:97   */\n      swap3\n      add\n        /* \"--CODEGEN--\":74:101   */\n      swap2\n      swap1\n      swap2\n      mstore\n      pop\n        /* \"@aragon/govern-contract-utils/contracts/acl/ACL.sol\":1123:1134  willPerform */\n      tag_46\n      swap3\n      pop\n      pop\n      pop\n        /* \"@aragon/govern-contract-utils/contracts/acl/ACL.sol\":1123:1163  willPerform(_role, msg.sender, msg.data) */\n      jump\t// in\n    tag_336:\n        /* \"@aragon/govern-contract-utils/contracts/acl/ACL.sol\":1115:1177  require(willPerform(_role, msg.sender, msg.data), \"acl: auth\") */\n      tag_337\n      jumpi\n      mload(0x40)\n      shl(0xe5, 0x461bcd)\n      dup2\n      mstore\n      0x04\n      add\n      tag_182\n      swap1\n      jump(tag_183)\n    tag_337:\n        /* \".deps/npm/@aragon/govern-core/contracts/pipelines/GovernQueue.sol\":11623:11642  _setConfig(_config) */\n      tag_160\n        /* \".deps/npm/@aragon/govern-core/contracts/pipelines/GovernQueue.sol\":11634:11641  _config */\n      dup4\n        /* \".deps/npm/@aragon/govern-core/contracts/pipelines/GovernQueue.sol\":11623:11633  _setConfig */\n      tag_282\n        /* \".deps/npm/@aragon/govern-core/contracts/pipelines/GovernQueue.sol\":11623:11642  _setConfig(_config) */\n      jump\t// in\n        /* \".deps/npm/@aragon/govern-core/contracts/pipelines/GovernQueue.sol\":1794:1852  mapping (bytes32 => GovernQueueStateLib.Item) public queue */\n    tag_103:\n      mstore(0x20, 0x06)\n      0x00\n      swap1\n      dup2\n      mstore\n      0x40\n      swap1\n      keccak256\n      sload\n      0xff\n      and\n      dup2\n      jump\t// out\n        /* \"@aragon/govern-contract-utils/contracts/acl/ACL.sol\":368:521  bytes4 public constant ROOT_ROLE =... */\n    tag_107:\n        /* \"@aragon/govern-contract-utils/contracts/acl/ACL.sol\":411:521  this.grant.selector... */\n      0x586df60400000000000000000000000000000000000000000000000000000000\n        /* \"@aragon/govern-contract-utils/contracts/acl/ACL.sol\":368:521  bytes4 public constant ROOT_ROLE =... */\n      dup2\n      jump\t// out\n        /* \"@aragon/govern-contract-utils/contracts/acl/ACL.sol\":759:820  mapping (bytes4 => mapping (address => address)) public roles */\n    tag_112:\n      0x03\n      0x20\n      swap1\n      dup2\n      mstore\n      0x00\n      swap3\n      dup4\n      mstore\n      0x40\n      dup1\n      dup5\n      keccak256\n      swap1\n      swap2\n      mstore\n      swap1\n      dup3\n      mstore\n      swap1\n      keccak256\n      sload\n      0xffffffffffffffffffffffffffffffffffffffff\n      and\n      dup2\n      jump\t// out\n        /* \".deps/npm/@aragon/govern-core/contracts/pipelines/GovernQueue.sol\":3329:5930  function schedule(ERC3000Data.Container memory _container) // TO FIX: Container is in memory and function has to be public to avoid an unestrutable solidity crash... */\n    tag_117:\n        /* \".deps/npm/@aragon/govern-core/contracts/pipelines/GovernQueue.sol\":3701:3722  bytes32 containerHash */\n      0x00\n        /* \".deps/npm/@aragon/govern-core/contracts/pipelines/GovernQueue.sol\":3537:3559  this.schedule.selector */\n      shl(0xe0, 0x977d8964)\n        /* \"@aragon/govern-contract-utils/contracts/acl/ACL.sol\":1123:1163  willPerform(_role, msg.sender, msg.data) */\n      tag_342\n        /* \"@aragon/govern-contract-utils/contracts/acl/ACL.sol\":1135:1140  _role */\n      dup2\n        /* \"@aragon/govern-contract-utils/contracts/acl/ACL.sol\":1142:1152  msg.sender */\n      caller\n        /* \"@aragon/govern-contract-utils/contracts/acl/ACL.sol\":1154:1162  msg.data */\n      0x00\n      calldatasize\n        /* \"@aragon/govern-contract-utils/contracts/acl/ACL.sol\":1123:1163  willPerform(_role, msg.sender, msg.data) */\n      dup1\n      dup1\n      0x1f\n      add\n      0x20\n      dup1\n      swap2\n      div\n      mul\n      0x20\n      add\n      mload(0x40)\n      swap1\n      dup2\n      add\n      0x40\n      mstore\n      dup1\n      swap4\n      swap3\n      swap2\n      swap1\n      dup2\n      dup2\n      mstore\n      0x20\n      add\n      dup4\n      dup4\n        /* \"--CODEGEN--\":30:33   */\n      dup1\n        /* \"--CODEGEN--\":22:28   */\n      dup3\n        /* \"--CODEGEN--\":14:20   */\n      dup5\n        /* \"--CODEGEN--\":1:34   */\n      calldatacopy\n        /* \"--CODEGEN--\":99:100   */\n      0x00\n        /* \"--CODEGEN--\":81:97   */\n      swap3\n      add\n        /* \"--CODEGEN--\":74:101   */\n      swap2\n      swap1\n      swap2\n      mstore\n      pop\n        /* \"@aragon/govern-contract-utils/contracts/acl/ACL.sol\":1123:1134  willPerform */\n      tag_46\n      swap3\n      pop\n      pop\n      pop\n        /* \"@aragon/govern-contract-utils/contracts/acl/ACL.sol\":1123:1163  willPerform(_role, msg.sender, msg.data) */\n      jump\t// in\n    tag_342:\n        /* \"@aragon/govern-contract-utils/contracts/acl/ACL.sol\":1115:1177  require(willPerform(_role, msg.sender, msg.data), \"acl: auth\") */\n      tag_343\n      jumpi\n      mload(0x40)\n      shl(0xe5, 0x461bcd)\n      dup2\n      mstore\n      0x04\n      add\n      tag_182\n      swap1\n      jump(tag_183)\n    tag_343:\n        /* \".deps/npm/@aragon/govern-core/contracts/pipelines/GovernQueue.sol\":3904:3909  nonce */\n      0x05\n        /* \".deps/npm/@aragon/govern-core/contracts/pipelines/GovernQueue.sol\":3902:3909  ++nonce */\n      dup1\n      sload\n      0x01\n      add\n      swap1\n      dup2\n      swap1\n      sstore\n        /* \".deps/npm/@aragon/govern-core/contracts/pipelines/GovernQueue.sol\":3874:3892  _container.payload */\n      dup4\n      mload\n        /* \".deps/npm/@aragon/govern-core/contracts/pipelines/GovernQueue.sol\":3874:3898  _container.payload.nonce */\n      mload\n        /* \".deps/npm/@aragon/govern-core/contracts/pipelines/GovernQueue.sol\":3874:3909  _container.payload.nonce == ++nonce */\n      eq\n        /* \".deps/npm/@aragon/govern-core/contracts/pipelines/GovernQueue.sol\":3866:3930  require(_container.payload.nonce == ++nonce, \"queue: bad nonce\") */\n      tag_346\n      jumpi\n      mload(0x40)\n      shl(0xe5, 0x461bcd)\n      dup2\n      mstore\n      0x04\n      add\n      tag_182\n      swap1\n      jump(tag_348)\n    tag_346:\n        /* \".deps/npm/@aragon/govern-core/contracts/pipelines/GovernQueue.sol\":3999:4018  bytes32 _configHash */\n      0x00\n        /* \".deps/npm/@aragon/govern-core/contracts/pipelines/GovernQueue.sol\":4021:4045  _container.config.hash() */\n      tag_349\n        /* \".deps/npm/@aragon/govern-core/contracts/pipelines/GovernQueue.sol\":4021:4031  _container */\n      dup5\n        /* \".deps/npm/@aragon/govern-core/contracts/pipelines/GovernQueue.sol\":4021:4038  _container.config */\n      0x20\n      add\n      mload\n        /* \".deps/npm/@aragon/govern-core/contracts/pipelines/GovernQueue.sol\":4021:4043  _container.config.hash */\n      tag_155\n        /* \".deps/npm/@aragon/govern-core/contracts/pipelines/GovernQueue.sol\":4021:4045  _container.config.hash() */\n      jump\t// in\n    tag_349:\n        /* \".deps/npm/@aragon/govern-core/contracts/pipelines/GovernQueue.sol\":3999:4045  bytes32 _configHash = _container.config.hash() */\n      swap1\n      pop\n        /* \".deps/npm/@aragon/govern-core/contracts/pipelines/GovernQueue.sol\":4218:4228  configHash */\n      sload(0x04)\n        /* \".deps/npm/@aragon/govern-core/contracts/pipelines/GovernQueue.sol\":4203:4214  _configHash */\n      dup2\n        /* \".deps/npm/@aragon/govern-core/contracts/pipelines/GovernQueue.sol\":4203:4228  _configHash == configHash */\n      eq\n        /* \".deps/npm/@aragon/govern-core/contracts/pipelines/GovernQueue.sol\":4195:4250  require(_configHash == configHash, \"queue: bad config\") */\n      tag_350\n      jumpi\n      mload(0x40)\n      shl(0xe5, 0x461bcd)\n      dup2\n      mstore\n      0x04\n      add\n      tag_182\n      swap1\n      jump(tag_352)\n    tag_350:\n        /* \".deps/npm/@aragon/govern-core/contracts/pipelines/GovernQueue.sol\":4458:4468  _container */\n      dup4\n        /* \".deps/npm/@aragon/govern-core/contracts/pipelines/GovernQueue.sol\":4458:4475  _container.config */\n      0x20\n      add\n      mload\n        /* \".deps/npm/@aragon/govern-core/contracts/pipelines/GovernQueue.sol\":4458:4490  _container.config.executionDelay */\n      0x00\n      add\n      mload\n        /* \".deps/npm/@aragon/govern-core/contracts/pipelines/GovernQueue.sol\":4440:4455  block.timestamp */\n      timestamp\n        /* \".deps/npm/@aragon/govern-core/contracts/pipelines/GovernQueue.sol\":4440:4490  block.timestamp + _container.config.executionDelay */\n      add\n        /* \".deps/npm/@aragon/govern-core/contracts/pipelines/GovernQueue.sol\":4404:4414  _container */\n      dup5\n        /* \".deps/npm/@aragon/govern-core/contracts/pipelines/GovernQueue.sol\":4404:4422  _container.payload */\n      0x00\n      add\n      mload\n        /* \".deps/npm/@aragon/govern-core/contracts/pipelines/GovernQueue.sol\":4404:4436  _container.payload.executionTime */\n      0x20\n      add\n      mload\n        /* \".deps/npm/@aragon/govern-core/contracts/pipelines/GovernQueue.sol\":4404:4490  _container.payload.executionTime >= block.timestamp + _container.config.executionDelay */\n      lt\n      iszero\n        /* \".deps/npm/@aragon/govern-core/contracts/pipelines/GovernQueue.sol\":4396:4511  require(_container.payload.executionTime >= block.timestamp + _container.config.executionDelay, \"queue: bad delay\") */\n      tag_353\n      jumpi\n      mload(0x40)\n      shl(0xe5, 0x461bcd)\n      dup2\n      mstore\n      0x04\n      add\n      tag_182\n      swap1\n      jump(tag_355)\n    tag_353:\n        /* \".deps/npm/@aragon/govern-core/contracts/pipelines/GovernQueue.sol\":4613:4631  _container.payload */\n      dup4\n      mload\n        /* \".deps/npm/@aragon/govern-core/contracts/pipelines/GovernQueue.sol\":4613:4641  _container.payload.submitter */\n      0x40\n      add\n      mload\n        /* \".deps/npm/@aragon/govern-core/contracts/pipelines/GovernQueue.sol\":4613:4655  _container.payload.submitter == msg.sender */\n      0xffffffffffffffffffffffffffffffffffffffff\n      and\n        /* \".deps/npm/@aragon/govern-core/contracts/pipelines/GovernQueue.sol\":4645:4655  msg.sender */\n      caller\n        /* \".deps/npm/@aragon/govern-core/contracts/pipelines/GovernQueue.sol\":4613:4655  _container.payload.submitter == msg.sender */\n      eq\n        /* \".deps/npm/@aragon/govern-core/contracts/pipelines/GovernQueue.sol\":4605:4680  require(_container.payload.submitter == msg.sender, \"queue: bad submitter\") */\n      tag_356\n      jumpi\n      mload(0x40)\n      shl(0xe5, 0x461bcd)\n      dup2\n      mstore\n      0x04\n      add\n      tag_182\n      swap1\n      jump(tag_358)\n    tag_356:\n        /* \".deps/npm/@aragon/govern-core/contracts/pipelines/GovernQueue.sol\":4707:4772  ERC3000Data.containerHash(_container.payload.hash(), _configHash) */\n      tag_359\n        /* \".deps/npm/@aragon/govern-core/contracts/pipelines/GovernQueue.sol\":4733:4758  _container.payload.hash() */\n      tag_360\n        /* \".deps/npm/@aragon/govern-core/contracts/pipelines/GovernQueue.sol\":4733:4743  _container */\n      dup6\n        /* \".deps/npm/@aragon/govern-core/contracts/pipelines/GovernQueue.sol\":4733:4751  _container.payload */\n      0x00\n      add\n      mload\n        /* \".deps/npm/@aragon/govern-core/contracts/pipelines/GovernQueue.sol\":4733:4756  _container.payload.hash */\n      tag_361\n        /* \".deps/npm/@aragon/govern-core/contracts/pipelines/GovernQueue.sol\":4733:4758  _container.payload.hash() */\n      jump\t// in\n    tag_360:\n        /* \".deps/npm/@aragon/govern-core/contracts/pipelines/GovernQueue.sol\":4760:4771  _configHash */\n      dup3\n        /* \".deps/npm/@aragon/govern-core/contracts/pipelines/GovernQueue.sol\":4707:4732  ERC3000Data.containerHash */\n      tag_362\n        /* \".deps/npm/@aragon/govern-core/contracts/pipelines/GovernQueue.sol\":4707:4772  ERC3000Data.containerHash(_container.payload.hash(), _configHash) */\n      jump\t// in\n    tag_359:\n        /* \".deps/npm/@aragon/govern-core/contracts/pipelines/GovernQueue.sol\":4833:4863  GovernQueueStateLib.State.None */\n      0x00\n        /* \".deps/npm/@aragon/govern-core/contracts/pipelines/GovernQueue.sol\":4782:4802  queue[containerHash] */\n      dup2\n      dup2\n      mstore\n        /* \".deps/npm/@aragon/govern-core/contracts/pipelines/GovernQueue.sol\":4782:4787  queue */\n      0x06\n        /* \".deps/npm/@aragon/govern-core/contracts/pipelines/GovernQueue.sol\":4782:4802  queue[containerHash] */\n      0x20\n      mstore\n      0x40\n      dup2\n      keccak256\n        /* \".deps/npm/@aragon/govern-core/contracts/pipelines/GovernQueue.sol\":4691:4772  containerHash = ERC3000Data.containerHash(_container.payload.hash(), _configHash) */\n      swap2\n      swap5\n      pop\n        /* \".deps/npm/@aragon/govern-core/contracts/pipelines/GovernQueue.sol\":4782:5027  queue[containerHash].checkAndSetState(... */\n      tag_363\n      swap2\n        /* \".deps/npm/@aragon/govern-core/contracts/pipelines/GovernQueue.sol\":4782:4802  queue[containerHash] */\n      swap1\n        /* \".deps/npm/@aragon/govern-core/contracts/pipelines/GovernQueue.sol\":4929:4964  GovernQueueStateLib.State.Scheduled */\n      0x01\n        /* \".deps/npm/@aragon/govern-core/contracts/pipelines/GovernQueue.sol\":4782:5027  queue[containerHash].checkAndSetState(... */\n      0xffffffff\n        /* \".deps/npm/@aragon/govern-core/contracts/pipelines/GovernQueue.sol\":4782:4819  queue[containerHash].checkAndSetState */\n      tag_238\n        /* \".deps/npm/@aragon/govern-core/contracts/pipelines/GovernQueue.sol\":4782:5027  queue[containerHash].checkAndSetState(... */\n      and\n      jump\t// in\n    tag_363:\n        /* \".deps/npm/@aragon/govern-core/contracts/pipelines/GovernQueue.sol\":5456:5496  ERC3000Data.Collateral memory collateral */\n      tag_364\n      tag_295\n      jump\t// in\n    tag_364:\n      pop\n        /* \".deps/npm/@aragon/govern-core/contracts/pipelines/GovernQueue.sol\":5499:5516  _container.config */\n      0x20\n      dup1\n      dup6\n      add\n      mload\n        /* \".deps/npm/@aragon/govern-core/contracts/pipelines/GovernQueue.sol\":5499:5532  _container.config.scheduleDeposit */\n      add\n      mload\n        /* \".deps/npm/@aragon/govern-core/contracts/pipelines/GovernQueue.sol\":5565:5583  _container.payload */\n      dup5\n      mload\n        /* \".deps/npm/@aragon/govern-core/contracts/pipelines/GovernQueue.sol\":5565:5593  _container.payload.submitter */\n      0x40\n      add\n      mload\n        /* \".deps/npm/@aragon/govern-core/contracts/pipelines/GovernQueue.sol\":5542:5594  collateral.collectFrom(_container.payload.submitter) */\n      tag_365\n      swap1\n        /* \".deps/npm/@aragon/govern-core/contracts/pipelines/GovernQueue.sol\":5499:5532  _container.config.scheduleDeposit */\n      dup3\n      swap1\n        /* \".deps/npm/@aragon/govern-core/contracts/pipelines/GovernQueue.sol\":5542:5594  collateral.collectFrom(_container.payload.submitter) */\n      0xffffffff\n        /* \".deps/npm/@aragon/govern-core/contracts/pipelines/GovernQueue.sol\":5542:5564  collateral.collectFrom */\n      tag_297\n        /* \".deps/npm/@aragon/govern-core/contracts/pipelines/GovernQueue.sol\":5542:5594  collateral.collectFrom(_container.payload.submitter) */\n      and\n      jump\t// in\n    tag_365:\n        /* \".deps/npm/@aragon/govern-core/contracts/pipelines/GovernQueue.sol\":5889:5902  containerHash */\n      dup4\n        /* \".deps/npm/@aragon/govern-core/contracts/pipelines/GovernQueue.sol\":5879:5923  Scheduled(containerHash, _container.payload) */\n      0x67f87ff46443c95843c7bd72a026dd23ba0015528ce9f8f15c5c6917645034ef\n        /* \".deps/npm/@aragon/govern-core/contracts/pipelines/GovernQueue.sol\":5904:5914  _container */\n      dup7\n        /* \".deps/npm/@aragon/govern-core/contracts/pipelines/GovernQueue.sol\":5904:5922  _container.payload */\n      0x00\n      add\n      mload\n        /* \".deps/npm/@aragon/govern-core/contracts/pipelines/GovernQueue.sol\":5879:5923  Scheduled(containerHash, _container.payload) */\n      mload(0x40)\n      tag_366\n      swap2\n      swap1\n      jump(tag_367)\n    tag_366:\n      mload(0x40)\n      dup1\n      swap2\n      sub\n      swap1\n      log2\n        /* \"@aragon/govern-contract-utils/contracts/acl/ACL.sol\":1187:1188  _ */\n      pop\n      pop\n        /* \".deps/npm/@aragon/govern-core/contracts/pipelines/GovernQueue.sol\":3329:5930  function schedule(ERC3000Data.Container memory _container) // TO FIX: Container is in memory and function has to be public to avoid an unestrutable solidity crash... */\n      pop\n      swap2\n      swap1\n      pop\n      jump\t// out\n        /* \"@aragon/govern-contract-utils/contracts/acl/ACL.sol\":1618:1722  function grant(bytes4 _role, address _who) external auth(ROOT_ROLE) {... */\n    tag_121:\n        /* \"@aragon/govern-contract-utils/contracts/acl/ACL.sol\":1123:1163  willPerform(_role, msg.sender, msg.data) */\n      0x40\n      dup1\n      mload\n      0x20\n        /* \"@aragon/govern-contract-utils/contracts/acl/ACL.sol\":1154:1162  msg.data */\n      calldatasize\n        /* \"@aragon/govern-contract-utils/contracts/acl/ACL.sol\":1123:1163  willPerform(_role, msg.sender, msg.data) */\n      0x1f\n      dup2\n      add\n      dup3\n      swap1\n      div\n      dup3\n      mul\n      dup4\n      add\n      dup3\n      add\n      swap1\n      swap4\n      mstore\n      dup3\n      dup3\n      mstore\n        /* \"@aragon/govern-contract-utils/contracts/acl/ACL.sol\":411:521  this.grant.selector... */\n      0x586df60400000000000000000000000000000000000000000000000000000000\n      swap3\n        /* \"@aragon/govern-contract-utils/contracts/acl/ACL.sol\":1123:1163  willPerform(_role, msg.sender, msg.data) */\n      tag_369\n      swap3\n        /* \"@aragon/govern-contract-utils/contracts/acl/ACL.sol\":411:521  this.grant.selector... */\n      dup5\n      swap3\n        /* \"@aragon/govern-contract-utils/contracts/acl/ACL.sol\":1142:1152  msg.sender */\n      caller\n      swap3\n      0x00\n      swap2\n        /* \"@aragon/govern-contract-utils/contracts/acl/ACL.sol\":1154:1162  msg.data */\n      dup2\n      swap1\n        /* \"@aragon/govern-contract-utils/contracts/acl/ACL.sol\":1123:1163  willPerform(_role, msg.sender, msg.data) */\n      dup5\n      add\n      dup4\n        /* \"@aragon/govern-contract-utils/contracts/acl/ACL.sol\":1154:1162  msg.data */\n      dup3\n      dup1\n      dup3\n        /* \"@aragon/govern-contract-utils/contracts/acl/ACL.sol\":1123:1163  willPerform(_role, msg.sender, msg.data) */\n      dup5\n        /* \"--CODEGEN--\":1:34   */\n      calldatacopy\n        /* \"--CODEGEN--\":99:100   */\n      0x00\n        /* \"--CODEGEN--\":81:97   */\n      swap3\n      add\n        /* \"--CODEGEN--\":74:101   */\n      swap2\n      swap1\n      swap2\n      mstore\n      pop\n        /* \"@aragon/govern-contract-utils/contracts/acl/ACL.sol\":1123:1134  willPerform */\n      tag_46\n      swap3\n      pop\n      pop\n      pop\n        /* \"@aragon/govern-contract-utils/contracts/acl/ACL.sol\":1123:1163  willPerform(_role, msg.sender, msg.data) */\n      jump\t// in\n    tag_369:\n        /* \"@aragon/govern-contract-utils/contracts/acl/ACL.sol\":1115:1177  require(willPerform(_role, msg.sender, msg.data), \"acl: auth\") */\n      tag_370\n      jumpi\n      mload(0x40)\n      shl(0xe5, 0x461bcd)\n      dup2\n      mstore\n      0x04\n      add\n      tag_182\n      swap1\n      jump(tag_183)\n    tag_370:\n        /* \"@aragon/govern-contract-utils/contracts/acl/ACL.sol\":1696:1715  _grant(_role, _who) */\n      tag_186\n        /* \"@aragon/govern-contract-utils/contracts/acl/ACL.sol\":1703:1708  _role */\n      dup4\n        /* \"@aragon/govern-contract-utils/contracts/acl/ACL.sol\":1710:1714  _who */\n      dup4\n        /* \"@aragon/govern-contract-utils/contracts/acl/ACL.sol\":1696:1702  _grant */\n      tag_195\n        /* \"@aragon/govern-contract-utils/contracts/acl/ACL.sol\":1696:1715  _grant(_role, _who) */\n      jump\t// in\n        /* \"@aragon/govern-contract-utils/contracts/acl/ACL.sol\":1728:1881  function grantWithOracle(bytes4 _role, address _who, IACLOracle _oracle) external auth(ROOT_ROLE) {... */\n    tag_125:\n        /* \"@aragon/govern-contract-utils/contracts/acl/ACL.sol\":1123:1163  willPerform(_role, msg.sender, msg.data) */\n      0x40\n      dup1\n      mload\n      0x20\n        /* \"@aragon/govern-contract-utils/contracts/acl/ACL.sol\":1154:1162  msg.data */\n      calldatasize\n        /* \"@aragon/govern-contract-utils/contracts/acl/ACL.sol\":1123:1163  willPerform(_role, msg.sender, msg.data) */\n      0x1f\n      dup2\n      add\n      dup3\n      swap1\n      div\n      dup3\n      mul\n      dup4\n      add\n      dup3\n      add\n      swap1\n      swap4\n      mstore\n      dup3\n      dup3\n      mstore\n        /* \"@aragon/govern-contract-utils/contracts/acl/ACL.sol\":411:521  this.grant.selector... */\n      0x586df60400000000000000000000000000000000000000000000000000000000\n      swap3\n        /* \"@aragon/govern-contract-utils/contracts/acl/ACL.sol\":1123:1163  willPerform(_role, msg.sender, msg.data) */\n      tag_375\n      swap3\n        /* \"@aragon/govern-contract-utils/contracts/acl/ACL.sol\":411:521  this.grant.selector... */\n      dup5\n      swap3\n        /* \"@aragon/govern-contract-utils/contracts/acl/ACL.sol\":1142:1152  msg.sender */\n      caller\n      swap3\n      0x00\n      swap2\n        /* \"@aragon/govern-contract-utils/contracts/acl/ACL.sol\":1154:1162  msg.data */\n      dup2\n      swap1\n        /* \"@aragon/govern-contract-utils/contracts/acl/ACL.sol\":1123:1163  willPerform(_role, msg.sender, msg.data) */\n      dup5\n      add\n      dup4\n        /* \"@aragon/govern-contract-utils/contracts/acl/ACL.sol\":1154:1162  msg.data */\n      dup3\n      dup1\n      dup3\n        /* \"@aragon/govern-contract-utils/contracts/acl/ACL.sol\":1123:1163  willPerform(_role, msg.sender, msg.data) */\n      dup5\n        /* \"--CODEGEN--\":1:34   */\n      calldatacopy\n        /* \"--CODEGEN--\":99:100   */\n      0x00\n        /* \"--CODEGEN--\":81:97   */\n      swap3\n      add\n        /* \"--CODEGEN--\":74:101   */\n      swap2\n      swap1\n      swap2\n      mstore\n      pop\n        /* \"@aragon/govern-contract-utils/contracts/acl/ACL.sol\":1123:1134  willPerform */\n      tag_46\n      swap3\n      pop\n      pop\n      pop\n        /* \"@aragon/govern-contract-utils/contracts/acl/ACL.sol\":1123:1163  willPerform(_role, msg.sender, msg.data) */\n      jump\t// in\n    tag_375:\n        /* \"@aragon/govern-contract-utils/contracts/acl/ACL.sol\":1115:1177  require(willPerform(_role, msg.sender, msg.data), \"acl: auth\") */\n      tag_376\n      jumpi\n      mload(0x40)\n      shl(0xe5, 0x461bcd)\n      dup2\n      mstore\n      0x04\n      add\n      tag_182\n      swap1\n      jump(tag_183)\n    tag_376:\n        /* \"@aragon/govern-contract-utils/contracts/acl/ACL.sol\":1836:1874  _grantWithOracle(_role, _who, _oracle) */\n      tag_379\n        /* \"@aragon/govern-contract-utils/contracts/acl/ACL.sol\":1853:1858  _role */\n      dup5\n        /* \"@aragon/govern-contract-utils/contracts/acl/ACL.sol\":1860:1864  _who */\n      dup5\n        /* \"@aragon/govern-contract-utils/contracts/acl/ACL.sol\":1866:1873  _oracle */\n      dup5\n        /* \"@aragon/govern-contract-utils/contracts/acl/ACL.sol\":1836:1852  _grantWithOracle */\n      tag_380\n        /* \"@aragon/govern-contract-utils/contracts/acl/ACL.sol\":1836:1874  _grantWithOracle(_role, _who, _oracle) */\n      jump\t// in\n    tag_379:\n        /* \"@aragon/govern-contract-utils/contracts/acl/ACL.sol\":1728:1881  function grantWithOracle(bytes4 _role, address _who, IACLOracle _oracle) external auth(ROOT_ROLE) {... */\n      pop\n      pop\n      pop\n      pop\n      jump\t// out\n        /* \".deps/npm/@aragon/govern-core/contracts/pipelines/GovernQueue.sol\":1729:1749  uint256 public nonce */\n    tag_127:\n      sload(0x05)\n      dup2\n      jump\t// out\n        /* \".deps/npm/@aragon/govern-core/contracts/pipelines/GovernQueue.sol\":12576:13212  function settleRejection(ERC3000Data.Container memory _container) public {... */\n    tag_131:\n        /* \".deps/npm/@aragon/govern-core/contracts/pipelines/GovernQueue.sol\":12659:12680  bytes32 containerHash */\n      0x00\n        /* \".deps/npm/@aragon/govern-core/contracts/pipelines/GovernQueue.sol\":12683:12700  _container.hash() */\n      tag_382\n        /* \".deps/npm/@aragon/govern-core/contracts/pipelines/GovernQueue.sol\":12683:12693  _container */\n      dup3\n        /* \".deps/npm/@aragon/govern-core/contracts/pipelines/GovernQueue.sol\":12683:12698  _container.hash */\n      tag_210\n        /* \".deps/npm/@aragon/govern-core/contracts/pipelines/GovernQueue.sol\":12683:12700  _container.hash() */\n      jump\t// in\n    tag_382:\n        /* \".deps/npm/@aragon/govern-core/contracts/pipelines/GovernQueue.sol\":12710:12730  queue[containerHash] */\n      0x00\n      dup2\n      dup2\n      mstore\n        /* \".deps/npm/@aragon/govern-core/contracts/pipelines/GovernQueue.sol\":12710:12715  queue */\n      0x06\n        /* \".deps/npm/@aragon/govern-core/contracts/pipelines/GovernQueue.sol\":12710:12730  queue[containerHash] */\n      0x20\n      mstore\n      0x40\n      swap1\n      keccak256\n        /* \".deps/npm/@aragon/govern-core/contracts/pipelines/GovernQueue.sol\":12659:12700  bytes32 containerHash = _container.hash() */\n      swap1\n      swap2\n      pop\n        /* \".deps/npm/@aragon/govern-core/contracts/pipelines/GovernQueue.sol\":12710:12854  queue[containerHash].checkAndSetState(... */\n      tag_383\n      swap1\n        /* \".deps/npm/@aragon/govern-core/contracts/pipelines/GovernQueue.sol\":12761:12795  GovernQueueStateLib.State.Rejected */\n      0x04\n        /* \".deps/npm/@aragon/govern-core/contracts/pipelines/GovernQueue.sol\":12809:12844  GovernQueueStateLib.State.Cancelled */\n      0x05\n        /* \".deps/npm/@aragon/govern-core/contracts/pipelines/GovernQueue.sol\":12710:12854  queue[containerHash].checkAndSetState(... */\n      0xffffffff\n        /* \".deps/npm/@aragon/govern-core/contracts/pipelines/GovernQueue.sol\":12710:12747  queue[containerHash].checkAndSetState */\n      tag_238\n        /* \".deps/npm/@aragon/govern-core/contracts/pipelines/GovernQueue.sol\":12710:12854  queue[containerHash].checkAndSetState(... */\n      and\n      jump\t// in\n    tag_383:\n        /* \".deps/npm/@aragon/govern-core/contracts/pipelines/GovernQueue.sol\":12865:12883  address challenger */\n      0x00\n        /* \".deps/npm/@aragon/govern-core/contracts/pipelines/GovernQueue.sol\":12886:12916  challengerCache[containerHash] */\n      dup2\n      dup2\n      mstore\n        /* \".deps/npm/@aragon/govern-core/contracts/pipelines/GovernQueue.sol\":12886:12901  challengerCache */\n      0x07\n        /* \".deps/npm/@aragon/govern-core/contracts/pipelines/GovernQueue.sol\":12886:12916  challengerCache[containerHash] */\n      0x20\n      swap1\n      dup2\n      mstore\n      0x40\n      swap1\n      swap2\n      keccak256\n      sload\n        /* \".deps/npm/@aragon/govern-core/contracts/pipelines/GovernQueue.sol\":12975:12992  _container.config */\n      dup4\n      dup3\n      add\n      mload\n        /* \".deps/npm/@aragon/govern-core/contracts/pipelines/GovernQueue.sol\":12975:13008  _container.config.scheduleDeposit */\n      swap1\n      swap2\n      add\n      mload\n        /* \".deps/npm/@aragon/govern-core/contracts/pipelines/GovernQueue.sol\":12886:12916  challengerCache[containerHash] */\n      0xffffffffffffffffffffffffffffffffffffffff\n      swap1\n      swap2\n      and\n      swap1\n        /* \".deps/npm/@aragon/govern-core/contracts/pipelines/GovernQueue.sol\":12975:13030  _container.config.scheduleDeposit.releaseTo(challenger) */\n      tag_384\n      swap1\n        /* \".deps/npm/@aragon/govern-core/contracts/pipelines/GovernQueue.sol\":12886:12916  challengerCache[containerHash] */\n      dup3\n        /* \".deps/npm/@aragon/govern-core/contracts/pipelines/GovernQueue.sol\":12975:13030  _container.config.scheduleDeposit.releaseTo(challenger) */\n      0xffffffff\n        /* \".deps/npm/@aragon/govern-core/contracts/pipelines/GovernQueue.sol\":12975:13018  _container.config.scheduleDeposit.releaseTo */\n      tag_251\n        /* \".deps/npm/@aragon/govern-core/contracts/pipelines/GovernQueue.sol\":12975:13030  _container.config.scheduleDeposit.releaseTo(challenger) */\n      and\n      jump\t// in\n    tag_384:\n        /* \".deps/npm/@aragon/govern-core/contracts/pipelines/GovernQueue.sol\":13040:13057  _container.config */\n      0x20\n      dup4\n      add\n      mload\n        /* \".deps/npm/@aragon/govern-core/contracts/pipelines/GovernQueue.sol\":13040:13074  _container.config.challengeDeposit */\n      0x40\n      add\n      mload\n        /* \".deps/npm/@aragon/govern-core/contracts/pipelines/GovernQueue.sol\":13040:13096  _container.config.challengeDeposit.releaseTo(challenger) */\n      tag_385\n      swap1\n        /* \".deps/npm/@aragon/govern-core/contracts/pipelines/GovernQueue.sol\":13085:13095  challenger */\n      dup3\n        /* \".deps/npm/@aragon/govern-core/contracts/pipelines/GovernQueue.sol\":13040:13096  _container.config.challengeDeposit.releaseTo(challenger) */\n      0xffffffff\n        /* \".deps/npm/@aragon/govern-core/contracts/pipelines/GovernQueue.sol\":13040:13084  _container.config.challengeDeposit.releaseTo */\n      tag_251\n        /* \".deps/npm/@aragon/govern-core/contracts/pipelines/GovernQueue.sol\":13040:13096  _container.config.challengeDeposit.releaseTo(challenger) */\n      and\n      jump\t// in\n    tag_385:\n      pop\n        /* \".deps/npm/@aragon/govern-core/contracts/pipelines/GovernQueue.sol\":13147:13148  0 */\n      0x00\n        /* \".deps/npm/@aragon/govern-core/contracts/pipelines/GovernQueue.sol\":13106:13136  challengerCache[containerHash] */\n      swap1\n      dup2\n      mstore\n        /* \".deps/npm/@aragon/govern-core/contracts/pipelines/GovernQueue.sol\":13106:13121  challengerCache */\n      0x07\n        /* \".deps/npm/@aragon/govern-core/contracts/pipelines/GovernQueue.sol\":13106:13136  challengerCache[containerHash] */\n      0x20\n      mstore\n      0x40\n      swap1\n      keccak256\n        /* \".deps/npm/@aragon/govern-core/contracts/pipelines/GovernQueue.sol\":13106:13149  challengerCache[containerHash] = address(0) */\n      dup1\n      sload\n      0xffffffffffffffffffffffff0000000000000000000000000000000000000000\n      and\n      swap1\n      sstore\n      pop\n        /* \".deps/npm/@aragon/govern-core/contracts/pipelines/GovernQueue.sol\":12576:13212  function settleRejection(ERC3000Data.Container memory _container) public {... */\n      jump\t// out\n        /* \".deps/npm/@aragon/govern-core/contracts/pipelines/GovernQueue.sol\":13924:14069  function submitEvidence(... */\n    tag_135:\n        /* \".deps/npm/@aragon/govern-core/contracts/pipelines/GovernQueue.sol\":14037:14062  revert(\"queue: evidence\") */\n      mload(0x40)\n      shl(0xe5, 0x461bcd)\n      dup2\n      mstore\n      0x04\n      add\n      tag_182\n      swap1\n      jump(tag_388)\n        /* \"@aragon/govern-contract-utils/contracts/acl/ACL.sol\":1999:2085  function freeze(bytes4 _role) external auth(ROOT_ROLE) {... */\n    tag_138:\n        /* \"@aragon/govern-contract-utils/contracts/acl/ACL.sol\":1123:1163  willPerform(_role, msg.sender, msg.data) */\n      0x40\n      dup1\n      mload\n      0x20\n        /* \"@aragon/govern-contract-utils/contracts/acl/ACL.sol\":1154:1162  msg.data */\n      calldatasize\n        /* \"@aragon/govern-contract-utils/contracts/acl/ACL.sol\":1123:1163  willPerform(_role, msg.sender, msg.data) */\n      0x1f\n      dup2\n      add\n      dup3\n      swap1\n      div\n      dup3\n      mul\n      dup4\n      add\n      dup3\n      add\n      swap1\n      swap4\n      mstore\n      dup3\n      dup3\n      mstore\n        /* \"@aragon/govern-contract-utils/contracts/acl/ACL.sol\":411:521  this.grant.selector... */\n      0x586df60400000000000000000000000000000000000000000000000000000000\n      swap3\n        /* \"@aragon/govern-contract-utils/contracts/acl/ACL.sol\":1123:1163  willPerform(_role, msg.sender, msg.data) */\n      tag_390\n      swap3\n        /* \"@aragon/govern-contract-utils/contracts/acl/ACL.sol\":411:521  this.grant.selector... */\n      dup5\n      swap3\n        /* \"@aragon/govern-contract-utils/contracts/acl/ACL.sol\":1142:1152  msg.sender */\n      caller\n      swap3\n      0x00\n      swap2\n        /* \"@aragon/govern-contract-utils/contracts/acl/ACL.sol\":1154:1162  msg.data */\n      dup2\n      swap1\n        /* \"@aragon/govern-contract-utils/contracts/acl/ACL.sol\":1123:1163  willPerform(_role, msg.sender, msg.data) */\n      dup5\n      add\n      dup4\n        /* \"@aragon/govern-contract-utils/contracts/acl/ACL.sol\":1154:1162  msg.data */\n      dup3\n      dup1\n      dup3\n        /* \"@aragon/govern-contract-utils/contracts/acl/ACL.sol\":1123:1163  willPerform(_role, msg.sender, msg.data) */\n      dup5\n        /* \"--CODEGEN--\":1:34   */\n      calldatacopy\n        /* \"--CODEGEN--\":99:100   */\n      0x00\n        /* \"--CODEGEN--\":81:97   */\n      swap3\n      add\n        /* \"--CODEGEN--\":74:101   */\n      swap2\n      swap1\n      swap2\n      mstore\n      pop\n        /* \"@aragon/govern-contract-utils/contracts/acl/ACL.sol\":1123:1134  willPerform */\n      tag_46\n      swap3\n      pop\n      pop\n      pop\n        /* \"@aragon/govern-contract-utils/contracts/acl/ACL.sol\":1123:1163  willPerform(_role, msg.sender, msg.data) */\n      jump\t// in\n    tag_390:\n        /* \"@aragon/govern-contract-utils/contracts/acl/ACL.sol\":1115:1177  require(willPerform(_role, msg.sender, msg.data), \"acl: auth\") */\n      tag_391\n      jumpi\n      mload(0x40)\n      shl(0xe5, 0x461bcd)\n      dup2\n      mstore\n      0x04\n      add\n      tag_182\n      swap1\n      jump(tag_183)\n    tag_391:\n        /* \"@aragon/govern-contract-utils/contracts/acl/ACL.sol\":2064:2078  _freeze(_role) */\n      tag_394\n        /* \"@aragon/govern-contract-utils/contracts/acl/ACL.sol\":2072:2077  _role */\n      dup3\n        /* \"@aragon/govern-contract-utils/contracts/acl/ACL.sol\":2064:2071  _freeze */\n      tag_207\n        /* \"@aragon/govern-contract-utils/contracts/acl/ACL.sol\":2064:2078  _freeze(_role) */\n      jump\t// in\n    tag_394:\n        /* \"@aragon/govern-contract-utils/contracts/acl/ACL.sol\":1999:2085  function freeze(bytes4 _role) external auth(ROOT_ROLE) {... */\n      pop\n      pop\n      jump\t// out\n        /* \".deps/npm/@aragon/govern-core/contracts/pipelines/GovernQueue.sol\":10920:11243  function veto(bytes32 _containerHash, bytes memory _reason) auth(this.veto.selector) override public {... */\n    tag_142:\n        /* \".deps/npm/@aragon/govern-core/contracts/pipelines/GovernQueue.sol\":10985:11003  this.veto.selector */\n      shl(0xe0, 0xc04c87b8)\n        /* \"@aragon/govern-contract-utils/contracts/acl/ACL.sol\":1123:1163  willPerform(_role, msg.sender, msg.data) */\n      tag_396\n        /* \"@aragon/govern-contract-utils/contracts/acl/ACL.sol\":1135:1140  _role */\n      dup2\n        /* \"@aragon/govern-contract-utils/contracts/acl/ACL.sol\":1142:1152  msg.sender */\n      caller\n        /* \"@aragon/govern-contract-utils/contracts/acl/ACL.sol\":1154:1162  msg.data */\n      0x00\n      calldatasize\n        /* \"@aragon/govern-contract-utils/contracts/acl/ACL.sol\":1123:1163  willPerform(_role, msg.sender, msg.data) */\n      dup1\n      dup1\n      0x1f\n      add\n      0x20\n      dup1\n      swap2\n      div\n      mul\n      0x20\n      add\n      mload(0x40)\n      swap1\n      dup2\n      add\n      0x40\n      mstore\n      dup1\n      swap4\n      swap3\n      swap2\n      swap1\n      dup2\n      dup2\n      mstore\n      0x20\n      add\n      dup4\n      dup4\n        /* \"--CODEGEN--\":30:33   */\n      dup1\n        /* \"--CODEGEN--\":22:28   */\n      dup3\n        /* \"--CODEGEN--\":14:20   */\n      dup5\n        /* \"--CODEGEN--\":1:34   */\n      calldatacopy\n        /* \"--CODEGEN--\":99:100   */\n      0x00\n        /* \"--CODEGEN--\":81:97   */\n      swap3\n      add\n        /* \"--CODEGEN--\":74:101   */\n      swap2\n      swap1\n      swap2\n      mstore\n      pop\n        /* \"@aragon/govern-contract-utils/contracts/acl/ACL.sol\":1123:1134  willPerform */\n      tag_46\n      swap3\n      pop\n      pop\n      pop\n        /* \"@aragon/govern-contract-utils/contracts/acl/ACL.sol\":1123:1163  willPerform(_role, msg.sender, msg.data) */\n      jump\t// in\n    tag_396:\n        /* \"@aragon/govern-contract-utils/contracts/acl/ACL.sol\":1115:1177  require(willPerform(_role, msg.sender, msg.data), \"acl: auth\") */\n      tag_397\n      jumpi\n      mload(0x40)\n      shl(0xe5, 0x461bcd)\n      dup2\n      mstore\n      0x04\n      add\n      tag_182\n      swap1\n      jump(tag_183)\n    tag_397:\n        /* \".deps/npm/@aragon/govern-core/contracts/pipelines/GovernQueue.sol\":11031:11052  queue[_containerHash] */\n      0x00\n      dup4\n      dup2\n      mstore\n        /* \".deps/npm/@aragon/govern-core/contracts/pipelines/GovernQueue.sol\":11031:11036  queue */\n      0x06\n        /* \".deps/npm/@aragon/govern-core/contracts/pipelines/GovernQueue.sol\":11031:11052  queue[_containerHash] */\n      0x20\n      mstore\n      0x40\n      swap1\n      keccak256\n        /* \".deps/npm/@aragon/govern-core/contracts/pipelines/GovernQueue.sol\":11031:11177  queue[_containerHash].checkAndSetState(... */\n      tag_400\n      swap1\n        /* \".deps/npm/@aragon/govern-core/contracts/pipelines/GovernQueue.sol\":11083:11118  GovernQueueStateLib.State.Scheduled */\n      0x01\n        /* \".deps/npm/@aragon/govern-core/contracts/pipelines/GovernQueue.sol\":11132:11167  GovernQueueStateLib.State.Cancelled */\n      0x05\n        /* \".deps/npm/@aragon/govern-core/contracts/pipelines/GovernQueue.sol\":11031:11177  queue[_containerHash].checkAndSetState(... */\n      0xffffffff\n        /* \".deps/npm/@aragon/govern-core/contracts/pipelines/GovernQueue.sol\":11031:11069  queue[_containerHash].checkAndSetState */\n      tag_238\n        /* \".deps/npm/@aragon/govern-core/contracts/pipelines/GovernQueue.sol\":11031:11177  queue[_containerHash].checkAndSetState(... */\n      and\n      jump\t// in\n    tag_400:\n        /* \".deps/npm/@aragon/govern-core/contracts/pipelines/GovernQueue.sol\":11216:11226  msg.sender */\n      caller\n        /* \".deps/npm/@aragon/govern-core/contracts/pipelines/GovernQueue.sol\":11193:11236  Vetoed(_containerHash, msg.sender, _reason) */\n      0xffffffffffffffffffffffffffffffffffffffff\n      and\n        /* \".deps/npm/@aragon/govern-core/contracts/pipelines/GovernQueue.sol\":11200:11214  _containerHash */\n      dup4\n        /* \".deps/npm/@aragon/govern-core/contracts/pipelines/GovernQueue.sol\":11193:11236  Vetoed(_containerHash, msg.sender, _reason) */\n      0xe2530b9681f9726904f9ca7fe725c0c53ea1b72370981ac6a5beaa9758c8c356\n        /* \".deps/npm/@aragon/govern-core/contracts/pipelines/GovernQueue.sol\":11228:11235  _reason */\n      dup5\n        /* \".deps/npm/@aragon/govern-core/contracts/pipelines/GovernQueue.sol\":11193:11236  Vetoed(_containerHash, msg.sender, _reason) */\n      mload(0x40)\n      tag_401\n      swap2\n      swap1\n      jump(tag_402)\n    tag_401:\n      mload(0x40)\n      dup1\n      swap2\n      sub\n      swap1\n      log3\n        /* \".deps/npm/@aragon/govern-core/contracts/pipelines/GovernQueue.sol\":10920:11243  function veto(bytes32 _containerHash, bytes memory _reason) auth(this.veto.selector) override public {... */\n      pop\n      pop\n      pop\n      jump\t// out\n        /* \".deps/npm/@aragon/govern-core/contracts/pipelines/GovernQueue.sol\":1919:1970  mapping (bytes32 => address) public challengerCache */\n    tag_145:\n      mstore(0x20, 0x07)\n      0x00\n      swap1\n      dup2\n      mstore\n      0x40\n      swap1\n      keccak256\n      sload\n      0xffffffffffffffffffffffffffffffffffffffff\n      and\n      dup2\n      jump\t// out\n        /* \"@aragon/govern-contract-utils/contracts/initializable/Initializable.sol\":96:141  mapping (string => uint256) public initBlocks */\n    tag_150:\n        /* \"--CODEGEN--\":22:36   */\n      dup1\n      mload\n        /* \"--CODEGEN--\":169:173   */\n      0x20\n        /* \"--CODEGEN--\":143:175   */\n      dup2\n      dup4\n      add\n      dup2\n      add\n        /* \"--CODEGEN--\":198:218   */\n      dup1\n      mload\n        /* \"@aragon/govern-contract-utils/contracts/initializable/Initializable.sol\":96:141  mapping (string => uint256) public initBlocks */\n      0x02\n        /* \"--CODEGEN--\":224:255   */\n      dup3\n      mstore\n        /* \"--CODEGEN--\":156:174   */\n      swap3\n      dup3\n      add\n        /* \"--CODEGEN--\":283:301   */\n      swap2\n      swap1\n      swap4\n      add\n        /* \"--CODEGEN--\":273:322   */\n      keccak256\n        /* \"--CODEGEN--\":328:360   */\n      swap2\n      mstore\n        /* \"@aragon/govern-contract-utils/contracts/initializable/Initializable.sol\":96:141  mapping (string => uint256) public initBlocks */\n      sload\n      dup2\n      jump\t// out\n        /* \".deps/npm/@aragon/govern-core/contracts/pipelines/GovernQueue.sol\":1646:1671  bytes32 public configHash */\n    tag_153:\n      sload(0x04)\n      dup2\n      jump\t// out\n        /* \"erc3k/contracts/ERC3000Data.sol\":1846:1967  function hash(Config memory config) internal pure returns (bytes32) {... */\n    tag_155:\n        /* \"erc3k/contracts/ERC3000Data.sol\":1905:1912  bytes32 */\n      0x00\n        /* \"erc3k/contracts/ERC3000Data.sol\":1952:1958  config */\n      dup2\n        /* \"erc3k/contracts/ERC3000Data.sol\":1941:1959  abi.encode(config) */\n      add(0x20, mload(0x40))\n      tag_404\n      swap2\n      swap1\n      jump(tag_405)\n    tag_404:\n      mload(0x40)\n        /* \"--CODEGEN--\":49:53   */\n      0x20\n        /* \"--CODEGEN--\":39:46   */\n      dup2\n        /* \"--CODEGEN--\":30:37   */\n      dup4\n        /* \"--CODEGEN--\":26:47   */\n      sub\n        /* \"--CODEGEN--\":22:54   */\n      sub\n        /* \"--CODEGEN--\":13:20   */\n      dup2\n        /* \"--CODEGEN--\":6:55   */\n      mstore\n        /* \"erc3k/contracts/ERC3000Data.sol\":1941:1959  abi.encode(config) */\n      swap1\n      0x40\n      mstore\n        /* \"erc3k/contracts/ERC3000Data.sol\":1931:1960  keccak256(abi.encode(config)) */\n      dup1\n      mload\n      swap1\n      0x20\n      add\n      keccak256\n        /* \"erc3k/contracts/ERC3000Data.sol\":1924:1960  return keccak256(abi.encode(config)) */\n      swap1\n      pop\n        /* \"erc3k/contracts/ERC3000Data.sol\":1846:1967  function hash(Config memory config) internal pure returns (bytes32) {... */\n      swap2\n      swap1\n      pop\n      jump\t// out\n        /* \"@aragon/govern-contract-utils/contracts/erc165/ERC165.sol\":493:720  function supportsInterface(bytes4 _interfaceId) virtual public view returns (bool) {... */\n    tag_159:\n        /* \"@aragon/govern-contract-utils/contracts/erc165/ERC165.sol\":570:574  bool */\n      0x00\n        /* \"@aragon/govern-contract-utils/contracts/erc165/ERC165.sol\":593:628  _interfaceId == ERC165_INTERFACE_ID */\n      0xffffffff00000000000000000000000000000000000000000000000000000000\n      dup3\n      and\n        /* \"@aragon/govern-contract-utils/contracts/erc165/ERC165.sol\":188:206  bytes4(0x01ffc9a7) */\n      0x01ffc9a700000000000000000000000000000000000000000000000000000000\n        /* \"@aragon/govern-contract-utils/contracts/erc165/ERC165.sol\":593:628  _interfaceId == ERC165_INTERFACE_ID */\n      eq\n      dup1\n        /* \"@aragon/govern-contract-utils/contracts/erc165/ERC165.sol\":593:662  _interfaceId == ERC165_INTERFACE_ID... */\n      tag_158\n      jumpi\n      pop\n      pop\n        /* \"@aragon/govern-contract-utils/contracts/erc165/ERC165.sol\":661:662  1 */\n      0x01\n        /* \"@aragon/govern-contract-utils/contracts/erc165/ERC165.sol\":642:657  block.timestamp */\n      timestamp\n        /* \"@aragon/govern-contract-utils/contracts/erc165/ERC165.sol\":642:662  block.timestamp == 1 */\n      eq\n      swap2\n        /* \"@aragon/govern-contract-utils/contracts/erc165/ERC165.sol\":493:720  function supportsInterface(bytes4 _interfaceId) virtual public view returns (bool) {... */\n      swap1\n      pop\n      jump\t// out\n        /* \"@aragon/govern-contract-utils/contracts/acl/ACL.sol\":3142:3265  function _grant(bytes4 _role, address _who) internal {... */\n    tag_195:\n        /* \"@aragon/govern-contract-utils/contracts/acl/ACL.sol\":3205:3258  _grantWithOracle(_role, _who, IACLOracle(ALLOW_FLAG)) */\n      tag_394\n        /* \"@aragon/govern-contract-utils/contracts/acl/ACL.sol\":3222:3227  _role */\n      dup3\n        /* \"@aragon/govern-contract-utils/contracts/acl/ACL.sol\":3229:3233  _who */\n      dup3\n        /* \"@aragon/govern-contract-utils/contracts/acl/ACL.sol\":746:747  2 */\n      0x02\n        /* \"@aragon/govern-contract-utils/contracts/acl/ACL.sol\":3205:3221  _grantWithOracle */\n      tag_380\n        /* \"@aragon/govern-contract-utils/contracts/acl/ACL.sol\":3205:3258  _grantWithOracle(_role, _who, IACLOracle(ALLOW_FLAG)) */\n      jump\t// in\n        /* \"@aragon/govern-contract-utils/contracts/acl/ACL.sol\":3586:3786  function _revoke(bytes4 _role, address _who) internal {... */\n    tag_201:\n        /* \"@aragon/govern-contract-utils/contracts/acl/ACL.sol\":3659:3674  isFrozen(_role) */\n      tag_411\n        /* \"@aragon/govern-contract-utils/contracts/acl/ACL.sol\":3668:3673  _role */\n      dup3\n        /* \"@aragon/govern-contract-utils/contracts/acl/ACL.sol\":3659:3667  isFrozen */\n      tag_75\n        /* \"@aragon/govern-contract-utils/contracts/acl/ACL.sol\":3659:3674  isFrozen(_role) */\n      jump\t// in\n    tag_411:\n        /* \"@aragon/govern-contract-utils/contracts/acl/ACL.sol\":3658:3674  !isFrozen(_role) */\n      iszero\n        /* \"@aragon/govern-contract-utils/contracts/acl/ACL.sol\":3650:3690  require(!isFrozen(_role), \"acl: frozen\") */\n      tag_412\n      jumpi\n      mload(0x40)\n      shl(0xe5, 0x461bcd)\n      dup2\n      mstore\n      0x04\n      add\n      tag_182\n      swap1\n      jump(tag_414)\n    tag_412:\n        /* \"@aragon/govern-contract-utils/contracts/acl/ACL.sol\":3701:3713  roles[_role] */\n      0xffffffff00000000000000000000000000000000000000000000000000000000\n      dup3\n      and\n        /* \"@aragon/govern-contract-utils/contracts/acl/ACL.sol\":691:692  0 */\n      0x00\n        /* \"@aragon/govern-contract-utils/contracts/acl/ACL.sol\":3701:3713  roles[_role] */\n      dup2\n      dup2\n      mstore\n        /* \"@aragon/govern-contract-utils/contracts/acl/ACL.sol\":3701:3706  roles */\n      0x03\n        /* \"@aragon/govern-contract-utils/contracts/acl/ACL.sol\":3701:3713  roles[_role] */\n      0x20\n      swap1\n      dup2\n      mstore\n      0x40\n      dup1\n      dup4\n      keccak256\n        /* \"@aragon/govern-contract-utils/contracts/acl/ACL.sol\":3701:3719  roles[_role][_who] */\n      0xffffffffffffffffffffffffffffffffffffffff\n      dup7\n      and\n      dup1\n      dup6\n      mstore\n      swap3\n      mstore\n      dup1\n      dup4\n      keccak256\n        /* \"@aragon/govern-contract-utils/contracts/acl/ACL.sol\":3701:3732  roles[_role][_who] = UNSET_ROLE */\n      dup1\n      sload\n      0xffffffffffffffffffffffff0000000000000000000000000000000000000000\n      and\n      swap1\n      sstore\n        /* \"@aragon/govern-contract-utils/contracts/acl/ACL.sol\":3747:3779  Revoked(_role, msg.sender, _who) */\n      mload\n        /* \"@aragon/govern-contract-utils/contracts/acl/ACL.sol\":3701:3719  roles[_role][_who] */\n      swap1\n      swap3\n        /* \"@aragon/govern-contract-utils/contracts/acl/ACL.sol\":3762:3772  msg.sender */\n      caller\n      swap3\n        /* \"@aragon/govern-contract-utils/contracts/acl/ACL.sol\":3701:3713  roles[_role] */\n      swap1\n      swap2\n        /* \"@aragon/govern-contract-utils/contracts/acl/ACL.sol\":3747:3779  Revoked(_role, msg.sender, _who) */\n      0x682f2c466c1e9f6883eb72cbced01373e1cb18b05ae5c8bc04dc73d73e29f8cd\n      swap2\n        /* \"@aragon/govern-contract-utils/contracts/acl/ACL.sol\":691:692  0 */\n      swap1\n        /* \"@aragon/govern-contract-utils/contracts/acl/ACL.sol\":3747:3779  Revoked(_role, msg.sender, _who) */\n      log4\n        /* \"@aragon/govern-contract-utils/contracts/acl/ACL.sol\":3586:3786  function _revoke(bytes4 _role, address _who) internal {... */\n      pop\n      pop\n      jump\t// out\n        /* \"@aragon/govern-contract-utils/contracts/acl/ACL.sol\":3792:3980  function _freeze(bytes4 _role) internal {... */\n    tag_207:\n        /* \"@aragon/govern-contract-utils/contracts/acl/ACL.sol\":3851:3866  isFrozen(_role) */\n      tag_416\n        /* \"@aragon/govern-contract-utils/contracts/acl/ACL.sol\":3860:3865  _role */\n      dup2\n        /* \"@aragon/govern-contract-utils/contracts/acl/ACL.sol\":3851:3859  isFrozen */\n      tag_75\n        /* \"@aragon/govern-contract-utils/contracts/acl/ACL.sol\":3851:3866  isFrozen(_role) */\n      jump\t// in\n    tag_416:\n        /* \"@aragon/govern-contract-utils/contracts/acl/ACL.sol\":3850:3866  !isFrozen(_role) */\n      iszero\n        /* \"@aragon/govern-contract-utils/contracts/acl/ACL.sol\":3842:3882  require(!isFrozen(_role), \"acl: frozen\") */\n      tag_417\n      jumpi\n      mload(0x40)\n      shl(0xe5, 0x461bcd)\n      dup2\n      mstore\n      0x04\n      add\n      tag_182\n      swap1\n      jump(tag_414)\n    tag_417:\n        /* \"@aragon/govern-contract-utils/contracts/acl/ACL.sol\":3893:3905  roles[_role] */\n      0xffffffff00000000000000000000000000000000000000000000000000000000\n      dup2\n      and\n      0x00\n      dup2\n      dup2\n      mstore\n        /* \"@aragon/govern-contract-utils/contracts/acl/ACL.sol\":3893:3898  roles */\n      0x03\n        /* \"@aragon/govern-contract-utils/contracts/acl/ACL.sol\":3893:3905  roles[_role] */\n      0x20\n      swap1\n      dup2\n      mstore\n      0x40\n      dup1\n      dup4\n      keccak256\n        /* \"@aragon/govern-contract-utils/contracts/acl/ACL.sol\":581:582  1 */\n      0x01\n        /* \"@aragon/govern-contract-utils/contracts/acl/ACL.sol\":3893:3918  roles[_role][FREEZE_FLAG] */\n      dup1\n      dup6\n      mstore\n      swap3\n      mstore\n      dup1\n      dup4\n      keccak256\n        /* \"@aragon/govern-contract-utils/contracts/acl/ACL.sol\":3893:3932  roles[_role][FREEZE_FLAG] = FREEZE_FLAG */\n      dup1\n      sload\n      0xffffffffffffffffffffffff0000000000000000000000000000000000000000\n      and\n      swap1\n      swap3\n      or\n      swap1\n      swap2\n      sstore\n        /* \"@aragon/govern-contract-utils/contracts/acl/ACL.sol\":3948:3973  Frozen(_role, msg.sender) */\n      mload\n        /* \"@aragon/govern-contract-utils/contracts/acl/ACL.sol\":3962:3972  msg.sender */\n      caller\n      swap3\n        /* \"@aragon/govern-contract-utils/contracts/acl/ACL.sol\":3893:3905  roles[_role] */\n      swap2\n        /* \"@aragon/govern-contract-utils/contracts/acl/ACL.sol\":3948:3973  Frozen(_role, msg.sender) */\n      0x049c6b8b07a879425742523fa80f8ffb25e39ad518c93a5896a0df19518397e5\n      swap2\n      log3\n        /* \"@aragon/govern-contract-utils/contracts/acl/ACL.sol\":3792:3980  function _freeze(bytes4 _role) internal {... */\n      pop\n      jump\t// out\n        /* \"erc3k/contracts/ERC3000Data.sol\":1238:1398  function hash(Container memory container) internal view returns (bytes32) {... */\n    tag_210:\n        /* \"erc3k/contracts/ERC3000Data.sol\":1303:1310  bytes32 */\n      0x00\n        /* \"erc3k/contracts/ERC3000Data.sol\":1329:1391  containerHash(hash(container.payload), hash(container.config)) */\n      tag_158\n        /* \"erc3k/contracts/ERC3000Data.sol\":1343:1366  hash(container.payload) */\n      tag_421\n        /* \"erc3k/contracts/ERC3000Data.sol\":1348:1357  container */\n      dup4\n        /* \"erc3k/contracts/ERC3000Data.sol\":1348:1365  container.payload */\n      0x00\n      add\n      mload\n        /* \"erc3k/contracts/ERC3000Data.sol\":1343:1347  hash */\n      tag_361\n        /* \"erc3k/contracts/ERC3000Data.sol\":1343:1366  hash(container.payload) */\n      jump\t// in\n    tag_421:\n        /* \"erc3k/contracts/ERC3000Data.sol\":1368:1390  hash(container.config) */\n      tag_422\n        /* \"erc3k/contracts/ERC3000Data.sol\":1373:1382  container */\n      dup5\n        /* \"erc3k/contracts/ERC3000Data.sol\":1373:1389  container.config */\n      0x20\n      add\n      mload\n        /* \"erc3k/contracts/ERC3000Data.sol\":1368:1372  hash */\n      tag_155\n        /* \"erc3k/contracts/ERC3000Data.sol\":1368:1390  hash(container.config) */\n      jump\t// in\n    tag_422:\n        /* \"erc3k/contracts/ERC3000Data.sol\":1329:1342  containerHash */\n      tag_362\n        /* \"erc3k/contracts/ERC3000Data.sol\":1329:1391  containerHash(hash(container.payload), hash(container.config)) */\n      jump\t// in\n        /* \".deps/npm/@aragon/govern-core/contracts/pipelines/GovernQueue.sol\":1143:1313  function checkAndSetState(Item storage _item, State _fromState, State _toState) internal {... */\n    tag_238:\n        /* \".deps/npm/@aragon/govern-core/contracts/pipelines/GovernQueue.sol\":1242:1271  checkState(_item, _fromState) */\n      tag_424\n        /* \".deps/npm/@aragon/govern-core/contracts/pipelines/GovernQueue.sol\":1253:1258  _item */\n      dup4\n        /* \".deps/npm/@aragon/govern-core/contracts/pipelines/GovernQueue.sol\":1260:1270  _fromState */\n      dup4\n        /* \".deps/npm/@aragon/govern-core/contracts/pipelines/GovernQueue.sol\":1242:1252  checkState */\n      tag_425\n        /* \".deps/npm/@aragon/govern-core/contracts/pipelines/GovernQueue.sol\":1242:1271  checkState(_item, _fromState) */\n      jump\t// in\n    tag_424:\n        /* \".deps/npm/@aragon/govern-core/contracts/pipelines/GovernQueue.sol\":1281:1306  setState(_item, _toState) */\n      tag_186\n        /* \".deps/npm/@aragon/govern-core/contracts/pipelines/GovernQueue.sol\":1290:1295  _item */\n      dup4\n        /* \".deps/npm/@aragon/govern-core/contracts/pipelines/GovernQueue.sol\":1297:1305  _toState */\n      dup3\n        /* \".deps/npm/@aragon/govern-core/contracts/pipelines/GovernQueue.sol\":1281:1289  setState */\n      tag_427\n        /* \".deps/npm/@aragon/govern-core/contracts/pipelines/GovernQueue.sol\":1281:1306  setState(_item, _toState) */\n      jump\t// in\n        /* \"@aragon/govern-contract-utils/contracts/deposits/DepositLib.sol\":742:1094  function releaseTo(ERC3000Data.Collateral memory _collateral, address _to) internal {... */\n    tag_251:\n        /* \"@aragon/govern-contract-utils/contracts/deposits/DepositLib.sol\":840:858  _collateral.amount */\n      0x20\n      dup3\n      add\n      mload\n        /* \"@aragon/govern-contract-utils/contracts/deposits/DepositLib.sol\":840:862  _collateral.amount > 0 */\n      iszero\n        /* \"@aragon/govern-contract-utils/contracts/deposits/DepositLib.sol\":836:1088  if (_collateral.amount > 0) {... */\n      tag_394\n      jumpi\n        /* \"@aragon/govern-contract-utils/contracts/deposits/DepositLib.sol\":898:915  _collateral.token */\n      dup2\n      mload\n        /* \"@aragon/govern-contract-utils/contracts/deposits/DepositLib.sol\":962:980  _collateral.amount */\n      0x20\n      dup4\n      add\n      mload\n        /* \"@aragon/govern-contract-utils/contracts/deposits/DepositLib.sol\":938:981  token.safeTransfer(_to, _collateral.amount) */\n      tag_430\n      swap1\n        /* \"@aragon/govern-contract-utils/contracts/deposits/DepositLib.sol\":938:956  token.safeTransfer */\n      0xffffffffffffffffffffffffffffffffffffffff\n      dup4\n      and\n      swap1\n        /* \"@aragon/govern-contract-utils/contracts/deposits/DepositLib.sol\":957:960  _to */\n      dup5\n      swap1\n        /* \"@aragon/govern-contract-utils/contracts/deposits/DepositLib.sol\":938:981  token.safeTransfer(_to, _collateral.amount) */\n      0xffffffff\n        /* \"@aragon/govern-contract-utils/contracts/deposits/DepositLib.sol\":938:956  token.safeTransfer */\n      tag_431\n        /* \"@aragon/govern-contract-utils/contracts/deposits/DepositLib.sol\":938:981  token.safeTransfer(_to, _collateral.amount) */\n      and\n      jump\t// in\n    tag_430:\n        /* \"@aragon/govern-contract-utils/contracts/deposits/DepositLib.sol\":930:1007  require(token.safeTransfer(_to, _collateral.amount), \"queue: bad send token\") */\n      tag_432\n      jumpi\n      mload(0x40)\n      shl(0xe5, 0x461bcd)\n      dup2\n      mstore\n      0x04\n      add\n      tag_182\n      swap1\n      jump(tag_434)\n    tag_432:\n        /* \"@aragon/govern-contract-utils/contracts/deposits/DepositLib.sol\":1053:1056  _to */\n      dup2\n        /* \"@aragon/govern-contract-utils/contracts/deposits/DepositLib.sol\":1027:1077  Unlock(_collateral.token, _to, _collateral.amount) */\n      0xffffffffffffffffffffffffffffffffffffffff\n      and\n        /* \"@aragon/govern-contract-utils/contracts/deposits/DepositLib.sol\":1034:1045  _collateral */\n      dup4\n        /* \"@aragon/govern-contract-utils/contracts/deposits/DepositLib.sol\":1034:1051  _collateral.token */\n      0x00\n      add\n      mload\n        /* \"@aragon/govern-contract-utils/contracts/deposits/DepositLib.sol\":1027:1077  Unlock(_collateral.token, _to, _collateral.amount) */\n      0xffffffffffffffffffffffffffffffffffffffff\n      and\n      0xc1c90b8e0705b212262c0dbd7580efe1862c2f185bf96899226f7596beb2db09\n        /* \"@aragon/govern-contract-utils/contracts/deposits/DepositLib.sol\":1058:1069  _collateral */\n      dup6\n        /* \"@aragon/govern-contract-utils/contracts/deposits/DepositLib.sol\":1058:1076  _collateral.amount */\n      0x20\n      add\n      mload\n        /* \"@aragon/govern-contract-utils/contracts/deposits/DepositLib.sol\":1027:1077  Unlock(_collateral.token, _to, _collateral.amount) */\n      mload(0x40)\n      tag_401\n      swap2\n      swap1\n      jump(tag_72)\n        /* \".deps/npm/@aragon/govern-core/contracts/pipelines/GovernQueue.sol\":14092:14372  function _execute(ERC3000Data.Payload memory _payload, bytes32 _containerHash) internal returns (bytes32, bytes[] memory) {... */\n    tag_253:\n        /* \".deps/npm/@aragon/govern-core/contracts/pipelines/GovernQueue.sol\":14229:14265  Executed(_containerHash, msg.sender) */\n      mload(0x40)\n        /* \".deps/npm/@aragon/govern-core/contracts/pipelines/GovernQueue.sol\":14189:14196  bytes32 */\n      0x00\n      swap1\n        /* \".deps/npm/@aragon/govern-core/contracts/pipelines/GovernQueue.sol\":14198:14212  bytes[] memory */\n      0x60\n      swap1\n        /* \".deps/npm/@aragon/govern-core/contracts/pipelines/GovernQueue.sol\":14254:14264  msg.sender */\n      caller\n      swap1\n        /* \".deps/npm/@aragon/govern-core/contracts/pipelines/GovernQueue.sol\":14238:14252  _containerHash */\n      dup5\n      swap1\n        /* \".deps/npm/@aragon/govern-core/contracts/pipelines/GovernQueue.sol\":14229:14265  Executed(_containerHash, msg.sender) */\n      0x59c3746e635078efc737fb3f37dd8188203b8df10bbad35878a7d156f4f51c41\n      swap1\n        /* \".deps/npm/@aragon/govern-core/contracts/pipelines/GovernQueue.sol\":14189:14196  bytes32 */\n      dup6\n      swap1\n        /* \".deps/npm/@aragon/govern-core/contracts/pipelines/GovernQueue.sol\":14229:14265  Executed(_containerHash, msg.sender) */\n      log3\n        /* \".deps/npm/@aragon/govern-core/contracts/pipelines/GovernQueue.sol\":14282:14290  _payload */\n      dup4\n        /* \".deps/npm/@aragon/govern-core/contracts/pipelines/GovernQueue.sol\":14282:14299  _payload.executor */\n      0x60\n      add\n      mload\n        /* \".deps/npm/@aragon/govern-core/contracts/pipelines/GovernQueue.sol\":14282:14304  _payload.executor.exec */\n      0xffffffffffffffffffffffffffffffffffffffff\n      and\n      0xc2d85afc\n        /* \".deps/npm/@aragon/govern-core/contracts/pipelines/GovernQueue.sol\":14305:14313  _payload */\n      dup6\n        /* \".deps/npm/@aragon/govern-core/contracts/pipelines/GovernQueue.sol\":14305:14321  _payload.actions */\n      0x80\n      add\n      mload\n        /* \".deps/npm/@aragon/govern-core/contracts/pipelines/GovernQueue.sol\":14323:14331  _payload */\n      dup7\n        /* \".deps/npm/@aragon/govern-core/contracts/pipelines/GovernQueue.sol\":14323:14348  _payload.allowFailuresMap */\n      0xa0\n      add\n      mload\n        /* \".deps/npm/@aragon/govern-core/contracts/pipelines/GovernQueue.sol\":14350:14364  _containerHash */\n      dup7\n        /* \".deps/npm/@aragon/govern-core/contracts/pipelines/GovernQueue.sol\":14282:14365  _payload.executor.exec(_payload.actions, _payload.allowFailuresMap, _containerHash) */\n      mload(0x40)\n      dup5\n      0xffffffff\n      and\n      0xe0\n      shl\n      dup2\n      mstore\n      0x04\n      add\n      tag_437\n      swap4\n      swap3\n      swap2\n      swap1\n      jump(tag_438)\n    tag_437:\n      0x00\n      mload(0x40)\n      dup1\n      dup4\n      sub\n      dup2\n      0x00\n      dup8\n      dup1\n      extcodesize\n      iszero\n        /* \"--CODEGEN--\":5:14   */\n      dup1\n        /* \"--CODEGEN--\":2:4   */\n      iszero\n      tag_439\n      jumpi\n        /* \"--CODEGEN--\":27:28   */\n      0x00\n        /* \"--CODEGEN--\":24:25   */\n      dup1\n        /* \"--CODEGEN--\":17:29   */\n      revert\n        /* \"--CODEGEN--\":2:4   */\n    tag_439:\n        /* \".deps/npm/@aragon/govern-core/contracts/pipelines/GovernQueue.sol\":14282:14365  _payload.executor.exec(_payload.actions, _payload.allowFailuresMap, _containerHash) */\n      pop\n      gas\n      call\n      iszero\n        /* \"--CODEGEN--\":8:17   */\n      dup1\n        /* \"--CODEGEN--\":5:7   */\n      iszero\n      tag_441\n      jumpi\n        /* \"--CODEGEN--\":45:61   */\n      returndatasize\n        /* \"--CODEGEN--\":42:43   */\n      0x00\n        /* \"--CODEGEN--\":39:40   */\n      dup1\n        /* \"--CODEGEN--\":24:62   */\n      returndatacopy\n        /* \"--CODEGEN--\":77:93   */\n      returndatasize\n        /* \"--CODEGEN--\":74:75   */\n      0x00\n        /* \"--CODEGEN--\":67:94   */\n      revert\n        /* \"--CODEGEN--\":5:7   */\n    tag_441:\n        /* \".deps/npm/@aragon/govern-core/contracts/pipelines/GovernQueue.sol\":14282:14365  _payload.executor.exec(_payload.actions, _payload.allowFailuresMap, _containerHash) */\n      pop\n      pop\n      pop\n      pop\n      mload(0x40)\n        /* \"--CODEGEN--\":39:55   */\n      returndatasize\n        /* \"--CODEGEN--\":36:37   */\n      0x00\n        /* \"--CODEGEN--\":17:34   */\n      dup3\n        /* \"--CODEGEN--\":2:56   */\n      returndatacopy\n        /* \"--CODEGEN--\":101:105   */\n      0x1f\n        /* \".deps/npm/@aragon/govern-core/contracts/pipelines/GovernQueue.sol\":14282:14365  _payload.executor.exec(_payload.actions, _payload.allowFailuresMap, _containerHash) */\n      returndatasize\n        /* \"--CODEGEN--\":80:95   */\n      swap1\n      dup2\n      add\n        /* \"--CODEGEN--\":97:106   */\n      0xffffffffffffffffffffffffffffffffffffffffffffffffffffffffffffffe0\n        /* \"--CODEGEN--\":76:107   */\n      and\n        /* \"--CODEGEN--\":65:108   */\n      dup3\n      add\n        /* \"--CODEGEN--\":120:124   */\n      0x40\n        /* \"--CODEGEN--\":113:133   */\n      mstore\n        /* \".deps/npm/@aragon/govern-core/contracts/pipelines/GovernQueue.sol\":14282:14365  _payload.executor.exec(_payload.actions, _payload.allowFailuresMap, _containerHash) */\n      tag_442\n      swap2\n      swap1\n      dup2\n      add\n      swap1\n      jump(tag_443)\n    tag_442:\n        /* \".deps/npm/@aragon/govern-core/contracts/pipelines/GovernQueue.sol\":14275:14365  return _payload.executor.exec(_payload.actions, _payload.allowFailuresMap, _containerHash) */\n      swap2\n      pop\n      swap2\n      pop\n        /* \".deps/npm/@aragon/govern-core/contracts/pipelines/GovernQueue.sol\":14092:14372  function _execute(ERC3000Data.Payload memory _payload, bytes32 _containerHash) internal returns (bytes32, bytes[] memory) {... */\n      swap3\n      pop\n      swap3\n      swap1\n      pop\n      jump\t// out\n        /* \"@aragon/govern-contract-utils/contracts/acl/ACL.sol\":1493:1612  function _initializeACL(address _initialRoot) internal onlyInit(\"acl\") {... */\n    tag_272:\n        /* \"@aragon/govern-contract-utils/contracts/initializable/Initializable.sol\":192:395  modifier onlyInit(string memory key) {... */\n      mload(0x40)\n      dup1\n      0x40\n      add\n      0x40\n      mstore\n      dup1\n      0x03\n      dup2\n      mstore\n      0x20\n      add\n      0x61636c0000000000000000000000000000000000000000000000000000000000\n      dup2\n      mstore\n      pop\n        /* \"@aragon/govern-contract-utils/contracts/initializable/Initializable.sol\":247:257  initBlocks */\n      0x02\n        /* \"@aragon/govern-contract-utils/contracts/initializable/Initializable.sol\":258:261  key */\n      dup2\n        /* \"@aragon/govern-contract-utils/contracts/initializable/Initializable.sol\":247:262  initBlocks[key] */\n      mload(0x40)\n      tag_445\n      swap2\n      swap1\n      jump(tag_275)\n    tag_445:\n      swap1\n      dup2\n      mstore\n      0x20\n      add\n      mload(0x40)\n      dup1\n      swap2\n      sub\n      swap1\n      keccak256\n      sload\n        /* \"@aragon/govern-contract-utils/contracts/initializable/Initializable.sol\":266:267  0 */\n      0x00\n        /* \"@aragon/govern-contract-utils/contracts/initializable/Initializable.sol\":247:267  initBlocks[key] == 0 */\n      eq\n        /* \"@aragon/govern-contract-utils/contracts/initializable/Initializable.sol\":239:306  require(initBlocks[key] == 0, \"initializable: already initialized\") */\n      tag_446\n      jumpi\n      mload(0x40)\n      shl(0xe5, 0x461bcd)\n      dup2\n      mstore\n      0x04\n      add\n      tag_182\n      swap1\n      jump(tag_278)\n    tag_446:\n        /* \"@aragon/govern-contract-utils/contracts/initializable/Initializable.sol\":334:346  block.number */\n      number\n        /* \"@aragon/govern-contract-utils/contracts/initializable/Initializable.sol\":316:326  initBlocks */\n      0x02\n        /* \"@aragon/govern-contract-utils/contracts/initializable/Initializable.sol\":327:330  key */\n      dup3\n        /* \"@aragon/govern-contract-utils/contracts/initializable/Initializable.sol\":316:331  initBlocks[key] */\n      mload(0x40)\n      tag_448\n      swap2\n      swap1\n      jump(tag_275)\n    tag_448:\n      swap1\n      dup2\n      mstore\n      mload(0x40)\n      swap1\n      dup2\n      swap1\n      sub\n      0x20\n      add\n      swap1\n      keccak256\n        /* \"@aragon/govern-contract-utils/contracts/initializable/Initializable.sol\":316:346  initBlocks[key] = block.number */\n      sstore\n        /* \"@aragon/govern-contract-utils/contracts/acl/ACL.sol\":1574:1605  _grant(ROOT_ROLE, _initialRoot) */\n      tag_450\n        /* \"@aragon/govern-contract-utils/contracts/acl/ACL.sol\":411:521  this.grant.selector... */\n      0x586df60400000000000000000000000000000000000000000000000000000000\n        /* \"@aragon/govern-contract-utils/contracts/acl/ACL.sol\":1592:1604  _initialRoot */\n      dup4\n        /* \"@aragon/govern-contract-utils/contracts/acl/ACL.sol\":1574:1580  _grant */\n      tag_195\n        /* \"@aragon/govern-contract-utils/contracts/acl/ACL.sol\":1574:1605  _grant(ROOT_ROLE, _initialRoot) */\n      jump\t// in\n    tag_450:\n        /* \"@aragon/govern-contract-utils/contracts/initializable/Initializable.sol\":384:387  key */\n      dup1\n        /* \"@aragon/govern-contract-utils/contracts/initializable/Initializable.sol\":372:388  Initialized(key) */\n      mload(0x40)\n      tag_451\n      swap2\n      swap1\n      jump(tag_275)\n    tag_451:\n      mload(0x40)\n      swap1\n      dup2\n      swap1\n      sub\n      dup2\n      keccak256\n      swap1\n      0x7bc2a48a4a566e237a12186f19d985b0f76afc9d5290601edac19876253670c2\n      swap1\n      0x00\n      swap1\n      log2\n        /* \"@aragon/govern-contract-utils/contracts/acl/ACL.sol\":1493:1612  function _initializeACL(address _initialRoot) internal onlyInit(\"acl\") {... */\n      pop\n      pop\n      jump\t// out\n        /* \".deps/npm/@aragon/govern-core/contracts/pipelines/GovernQueue.sol\":14378:14611  function _setConfig(ERC3000Data.Config memory _config)... */\n    tag_282:\n        /* \".deps/npm/@aragon/govern-core/contracts/pipelines/GovernQueue.sol\":14467:14474  bytes32 */\n      0x00\n        /* \".deps/npm/@aragon/govern-core/contracts/pipelines/GovernQueue.sol\":14503:14517  _config.hash() */\n      tag_453\n        /* \".deps/npm/@aragon/govern-core/contracts/pipelines/GovernQueue.sol\":14503:14510  _config */\n      dup3\n        /* \".deps/npm/@aragon/govern-core/contracts/pipelines/GovernQueue.sol\":14503:14515  _config.hash */\n      tag_155\n        /* \".deps/npm/@aragon/govern-core/contracts/pipelines/GovernQueue.sol\":14503:14517  _config.hash() */\n      jump\t// in\n    tag_453:\n        /* \".deps/npm/@aragon/govern-core/contracts/pipelines/GovernQueue.sol\":14490:14500  configHash */\n      0x04\n        /* \".deps/npm/@aragon/govern-core/contracts/pipelines/GovernQueue.sol\":14490:14517  configHash = _config.hash() */\n      dup2\n      swap1\n      sstore\n        /* \".deps/npm/@aragon/govern-core/contracts/pipelines/GovernQueue.sol\":14533:14576  Configured(configHash, msg.sender, _config) */\n      mload(0x40)\n        /* \".deps/npm/@aragon/govern-core/contracts/pipelines/GovernQueue.sol\":14556:14566  msg.sender */\n      caller\n      swap2\n        /* \".deps/npm/@aragon/govern-core/contracts/pipelines/GovernQueue.sol\":14490:14517  configHash = _config.hash() */\n      swap1\n        /* \".deps/npm/@aragon/govern-core/contracts/pipelines/GovernQueue.sol\":14533:14576  Configured(configHash, msg.sender, _config) */\n      0x0a61dcdfcdfc6da74a563de8455cc4ae6d6c9d0b442eb2f7309e6b31e4680d79\n      swap1\n      tag_454\n      swap1\n        /* \".deps/npm/@aragon/govern-core/contracts/pipelines/GovernQueue.sol\":14568:14575  _config */\n      dup7\n      swap1\n        /* \".deps/npm/@aragon/govern-core/contracts/pipelines/GovernQueue.sol\":14533:14576  Configured(configHash, msg.sender, _config) */\n      jump(tag_405)\n    tag_454:\n      mload(0x40)\n      dup1\n      swap2\n      sub\n      swap1\n      log3\n      pop\n      pop\n        /* \".deps/npm/@aragon/govern-core/contracts/pipelines/GovernQueue.sol\":14594:14604  configHash */\n      sload(0x04)\n      swap1\n        /* \".deps/npm/@aragon/govern-core/contracts/pipelines/GovernQueue.sol\":14378:14611  function _setConfig(ERC3000Data.Config memory _config)... */\n      jump\t// out\n        /* \"@aragon/govern-contract-utils/contracts/adaptative-erc165/AdaptativeERC165.sol\":1442:1668  function _registerStandard(bytes4 _interfaceId) internal {... */\n    tag_284:\n        /* \"@aragon/govern-contract-utils/contracts/adaptative-erc165/AdaptativeERC165.sol\":1575:1606  standardSupported[_interfaceId] */\n      0xffffffff00000000000000000000000000000000000000000000000000000000\n      dup2\n      and\n        /* \"@aragon/govern-contract-utils/contracts/adaptative-erc165/AdaptativeERC165.sol\":1575:1592  standardSupported */\n      0x00\n        /* \"@aragon/govern-contract-utils/contracts/adaptative-erc165/AdaptativeERC165.sol\":1575:1606  standardSupported[_interfaceId] */\n      swap1\n      dup2\n      mstore\n      0x20\n      dup2\n      swap1\n      mstore\n      0x40\n      swap1\n      dup2\n      swap1\n      keccak256\n        /* \"@aragon/govern-contract-utils/contracts/adaptative-erc165/AdaptativeERC165.sol\":1575:1613  standardSupported[_interfaceId] = true */\n      dup1\n      sload\n      0xffffffffffffffffffffffffffffffffffffffffffffffffffffffffffffff00\n      and\n        /* \"@aragon/govern-contract-utils/contracts/adaptative-erc165/AdaptativeERC165.sol\":1609:1613  true */\n      0x01\n        /* \"@aragon/govern-contract-utils/contracts/adaptative-erc165/AdaptativeERC165.sol\":1575:1613  standardSupported[_interfaceId] = true */\n      or\n      swap1\n      sstore\n        /* \"@aragon/govern-contract-utils/contracts/adaptative-erc165/AdaptativeERC165.sol\":1629:1661  RegisteredStandard(_interfaceId) */\n      mload\n      0xbf5e1f87f5ab65b58074cd29244d7c487a948983cda4b932e0f966b62bd34aca\n      swap1\n      tag_456\n      swap1\n        /* \"@aragon/govern-contract-utils/contracts/adaptative-erc165/AdaptativeERC165.sol\":1593:1605  _interfaceId */\n      dup4\n      swap1\n        /* \"@aragon/govern-contract-utils/contracts/adaptative-erc165/AdaptativeERC165.sol\":1629:1661  RegisteredStandard(_interfaceId) */\n      jump(tag_109)\n    tag_456:\n      mload(0x40)\n      dup1\n      swap2\n      sub\n      swap1\n      log1\n        /* \"@aragon/govern-contract-utils/contracts/adaptative-erc165/AdaptativeERC165.sol\":1442:1668  function _registerStandard(bytes4 _interfaceId) internal {... */\n      pop\n      jump\t// out\n        /* \"@aragon/govern-contract-utils/contracts/deposits/DepositLib.sol\":360:736  function collectFrom(ERC3000Data.Collateral memory _collateral, address _from) internal {... */\n    tag_297:\n        /* \"@aragon/govern-contract-utils/contracts/deposits/DepositLib.sol\":462:480  _collateral.amount */\n      0x20\n      dup3\n      add\n      mload\n        /* \"@aragon/govern-contract-utils/contracts/deposits/DepositLib.sol\":462:484  _collateral.amount > 0 */\n      iszero\n        /* \"@aragon/govern-contract-utils/contracts/deposits/DepositLib.sol\":458:730  if (_collateral.amount > 0) {... */\n      tag_394\n      jumpi\n        /* \"@aragon/govern-contract-utils/contracts/deposits/DepositLib.sol\":520:537  _collateral.token */\n      dup2\n      mload\n        /* \"@aragon/govern-contract-utils/contracts/deposits/DepositLib.sol\":605:623  _collateral.amount */\n      0x20\n      dup4\n      add\n      mload\n        /* \"@aragon/govern-contract-utils/contracts/deposits/DepositLib.sol\":560:624  token.safeTransferFrom(_from, address(this), _collateral.amount) */\n      tag_459\n      swap1\n        /* \"@aragon/govern-contract-utils/contracts/deposits/DepositLib.sol\":560:582  token.safeTransferFrom */\n      0xffffffffffffffffffffffffffffffffffffffff\n      dup4\n      and\n      swap1\n        /* \"@aragon/govern-contract-utils/contracts/deposits/DepositLib.sol\":583:588  _from */\n      dup5\n      swap1\n        /* \"@aragon/govern-contract-utils/contracts/deposits/DepositLib.sol\":598:602  this */\n      address\n      swap1\n        /* \"@aragon/govern-contract-utils/contracts/deposits/DepositLib.sol\":560:624  token.safeTransferFrom(_from, address(this), _collateral.amount) */\n      0xffffffff\n        /* \"@aragon/govern-contract-utils/contracts/deposits/DepositLib.sol\":560:582  token.safeTransferFrom */\n      tag_304\n        /* \"@aragon/govern-contract-utils/contracts/deposits/DepositLib.sol\":560:624  token.safeTransferFrom(_from, address(this), _collateral.amount) */\n      and\n      jump\t// in\n    tag_459:\n        /* \"@aragon/govern-contract-utils/contracts/deposits/DepositLib.sol\":552:649  require(token.safeTransferFrom(_from, address(this), _collateral.amount), \"queue: bad get token\") */\n      tag_460\n      jumpi\n      mload(0x40)\n      shl(0xe5, 0x461bcd)\n      dup2\n      mstore\n      0x04\n      add\n      tag_182\n      swap1\n      jump(tag_462)\n    tag_460:\n        /* \"@aragon/govern-contract-utils/contracts/deposits/DepositLib.sol\":693:698  _from */\n      dup2\n        /* \"@aragon/govern-contract-utils/contracts/deposits/DepositLib.sol\":669:719  Lock(_collateral.token, _from, _collateral.amount) */\n      0xffffffffffffffffffffffffffffffffffffffff\n      and\n        /* \"@aragon/govern-contract-utils/contracts/deposits/DepositLib.sol\":674:685  _collateral */\n      dup4\n        /* \"@aragon/govern-contract-utils/contracts/deposits/DepositLib.sol\":674:691  _collateral.token */\n      0x00\n      add\n      mload\n        /* \"@aragon/govern-contract-utils/contracts/deposits/DepositLib.sol\":669:719  Lock(_collateral.token, _from, _collateral.amount) */\n      0xffffffffffffffffffffffffffffffffffffffff\n      and\n      0xec36c0364d931187a76cf66d7eee08fad0ec2e8b7458a8d8b26b36769d4d13f3\n        /* \"@aragon/govern-contract-utils/contracts/deposits/DepositLib.sol\":700:711  _collateral */\n      dup6\n        /* \"@aragon/govern-contract-utils/contracts/deposits/DepositLib.sol\":700:718  _collateral.amount */\n      0x20\n      add\n      mload\n        /* \"@aragon/govern-contract-utils/contracts/deposits/DepositLib.sol\":669:719  Lock(_collateral.token, _from, _collateral.amount) */\n      mload(0x40)\n      tag_401\n      swap2\n      swap1\n      jump(tag_72)\n        /* \"@aragon/govern-contract-utils/contracts/erc20/SafeERC20.sol\":3696:4066  function safeTransferFrom(ERC20 _token, address _from, address _to, uint256 _amount) internal returns (bool) {... */\n    tag_304:\n        /* \"@aragon/govern-contract-utils/contracts/erc20/SafeERC20.sol\":3799:3803  bool */\n      0x00\n        /* \"@aragon/govern-contract-utils/contracts/erc20/SafeERC20.sol\":3815:3848  bytes memory transferFromCallData */\n      0x60\n        /* \"@aragon/govern-contract-utils/contracts/erc20/SafeERC20.sol\":3887:3915  _token.transferFrom.selector */\n      shl(0xe0, 0x23b872dd)\n        /* \"@aragon/govern-contract-utils/contracts/erc20/SafeERC20.sol\":3929:3934  _from */\n      dup6\n        /* \"@aragon/govern-contract-utils/contracts/erc20/SafeERC20.sol\":3948:3951  _to */\n      dup6\n        /* \"@aragon/govern-contract-utils/contracts/erc20/SafeERC20.sol\":3965:3972  _amount */\n      dup6\n        /* \"@aragon/govern-contract-utils/contracts/erc20/SafeERC20.sol\":3851:3982  abi.encodeWithSelector(... */\n      add(0x24, mload(0x40))\n      tag_465\n      swap4\n      swap3\n      swap2\n      swap1\n      jump(tag_466)\n    tag_465:\n      0x40\n      dup1\n      mload\n        /* \"--CODEGEN--\":22:54   */\n      0xffffffffffffffffffffffffffffffffffffffffffffffffffffffffffffffe0\n        /* \"--CODEGEN--\":26:47   */\n      dup2\n      dup5\n      sub\n        /* \"--CODEGEN--\":22:54   */\n      add\n        /* \"--CODEGEN--\":6:55   */\n      dup2\n      mstore\n        /* \"@aragon/govern-contract-utils/contracts/erc20/SafeERC20.sol\":3851:3982  abi.encodeWithSelector(... */\n      swap2\n      swap1\n      mstore\n        /* \"--CODEGEN--\":49:53   */\n      0x20\n        /* \"--CODEGEN--\":25:43   */\n      dup2\n      add\n        /* \"--CODEGEN--\":61:78   */\n      dup1\n      mload\n        /* \"@aragon/govern-contract-utils/contracts/erc20/SafeERC20.sol\":3851:3982  abi.encodeWithSelector(... */\n      0xffffffffffffffffffffffffffffffffffffffffffffffffffffffff\n        /* \"--CODEGEN--\":182:197   */\n      and\n        /* \"@aragon/govern-contract-utils/contracts/erc20/SafeERC20.sol\":3851:3982  abi.encodeWithSelector(... */\n      0xffffffff00000000000000000000000000000000000000000000000000000000\n      swap1\n      swap4\n      and\n        /* \"--CODEGEN--\":179:208   */\n      swap3\n      swap1\n      swap3\n      or\n        /* \"--CODEGEN--\":160:209   */\n      swap1\n      swap2\n      mstore\n        /* \"@aragon/govern-contract-utils/contracts/erc20/SafeERC20.sol\":3851:3982  abi.encodeWithSelector(... */\n      swap1\n      pop\n        /* \"@aragon/govern-contract-utils/contracts/erc20/SafeERC20.sol\":3999:4059  invokeAndCheckSuccess(address(_token), transferFromCallData) */\n      tag_467\n        /* \"@aragon/govern-contract-utils/contracts/erc20/SafeERC20.sol\":4029:4035  _token */\n      dup7\n        /* \"@aragon/govern-contract-utils/contracts/erc20/SafeERC20.sol\":3851:3982  abi.encodeWithSelector(... */\n      dup3\n        /* \"@aragon/govern-contract-utils/contracts/erc20/SafeERC20.sol\":3999:4020  invokeAndCheckSuccess */\n      tag_468\n        /* \"@aragon/govern-contract-utils/contracts/erc20/SafeERC20.sol\":3999:4059  invokeAndCheckSuccess(address(_token), transferFromCallData) */\n      jump\t// in\n    tag_467:\n        /* \"@aragon/govern-contract-utils/contracts/erc20/SafeERC20.sol\":3992:4059  return invokeAndCheckSuccess(address(_token), transferFromCallData) */\n      swap2\n      pop\n      pop\n        /* \"@aragon/govern-contract-utils/contracts/erc20/SafeERC20.sol\":3696:4066  function safeTransferFrom(ERC20 _token, address _from, address _to, uint256 _amount) internal returns (bool) {... */\n    tag_464:\n      swap5\n      swap4\n      pop\n      pop\n      pop\n      pop\n      jump\t// out\n        /* \"@aragon/govern-contract-utils/contracts/erc20/SafeERC20.sol\":4243:4569  function safeApprove(ERC20 _token, address _spender, uint256 _amount) internal returns (bool) {... */\n    tag_309:\n        /* \"@aragon/govern-contract-utils/contracts/erc20/SafeERC20.sol\":4331:4335  bool */\n      0x00\n        /* \"@aragon/govern-contract-utils/contracts/erc20/SafeERC20.sol\":4347:4375  bytes memory approveCallData */\n      0x60\n        /* \"@aragon/govern-contract-utils/contracts/erc20/SafeERC20.sol\":4414:4437  _token.approve.selector */\n      shl(0xe0, 0x095ea7b3)\n        /* \"@aragon/govern-contract-utils/contracts/erc20/SafeERC20.sol\":4451:4459  _spender */\n      dup5\n        /* \"@aragon/govern-contract-utils/contracts/erc20/SafeERC20.sol\":4473:4480  _amount */\n      dup5\n        /* \"@aragon/govern-contract-utils/contracts/erc20/SafeERC20.sol\":4378:4490  abi.encodeWithSelector(... */\n      add(0x24, mload(0x40))\n      tag_470\n      swap3\n      swap2\n      swap1\n      jump(tag_471)\n    tag_470:\n      0x40\n      dup1\n      mload\n        /* \"--CODEGEN--\":22:54   */\n      0xffffffffffffffffffffffffffffffffffffffffffffffffffffffffffffffe0\n        /* \"--CODEGEN--\":26:47   */\n      dup2\n      dup5\n      sub\n        /* \"--CODEGEN--\":22:54   */\n      add\n        /* \"--CODEGEN--\":6:55   */\n      dup2\n      mstore\n        /* \"@aragon/govern-contract-utils/contracts/erc20/SafeERC20.sol\":4378:4490  abi.encodeWithSelector(... */\n      swap2\n      swap1\n      mstore\n        /* \"--CODEGEN--\":49:53   */\n      0x20\n        /* \"--CODEGEN--\":25:43   */\n      dup2\n      add\n        /* \"--CODEGEN--\":61:78   */\n      dup1\n      mload\n        /* \"@aragon/govern-contract-utils/contracts/erc20/SafeERC20.sol\":4378:4490  abi.encodeWithSelector(... */\n      0xffffffffffffffffffffffffffffffffffffffffffffffffffffffff\n        /* \"--CODEGEN--\":182:197   */\n      and\n        /* \"@aragon/govern-contract-utils/contracts/erc20/SafeERC20.sol\":4378:4490  abi.encodeWithSelector(... */\n      0xffffffff00000000000000000000000000000000000000000000000000000000\n      swap1\n      swap4\n      and\n        /* \"--CODEGEN--\":179:208   */\n      swap3\n      swap1\n      swap3\n      or\n        /* \"--CODEGEN--\":160:209   */\n      swap1\n      swap2\n      mstore\n        /* \"@aragon/govern-contract-utils/contracts/erc20/SafeERC20.sol\":4378:4490  abi.encodeWithSelector(... */\n      swap1\n      pop\n        /* \"@aragon/govern-contract-utils/contracts/erc20/SafeERC20.sol\":4507:4562  invokeAndCheckSuccess(address(_token), approveCallData) */\n      tag_472\n        /* \"@aragon/govern-contract-utils/contracts/erc20/SafeERC20.sol\":4537:4543  _token */\n      dup6\n        /* \"@aragon/govern-contract-utils/contracts/erc20/SafeERC20.sol\":4378:4490  abi.encodeWithSelector(... */\n      dup3\n        /* \"@aragon/govern-contract-utils/contracts/erc20/SafeERC20.sol\":4507:4528  invokeAndCheckSuccess */\n      tag_468\n        /* \"@aragon/govern-contract-utils/contracts/erc20/SafeERC20.sol\":4507:4562  invokeAndCheckSuccess(address(_token), approveCallData) */\n      jump\t// in\n    tag_472:\n        /* \"@aragon/govern-contract-utils/contracts/erc20/SafeERC20.sol\":4500:4562  return invokeAndCheckSuccess(address(_token), approveCallData) */\n      swap6\n        /* \"@aragon/govern-contract-utils/contracts/erc20/SafeERC20.sol\":4243:4569  function safeApprove(ERC20 _token, address _spender, uint256 _amount) internal returns (bool) {... */\n      swap5\n      pop\n      pop\n      pop\n      pop\n      pop\n      jump\t// out\n        /* \"erc3k/contracts/ERC3000Data.sol\":1404:1840  function hash(Payload memory payload) internal pure returns (bytes32) {... */\n    tag_361:\n        /* \"erc3k/contracts/ERC3000Data.sol\":1465:1472  bytes32 */\n      0x00\n        /* \"erc3k/contracts/ERC3000Data.sol\":1548:1555  payload */\n      dup2\n        /* \"erc3k/contracts/ERC3000Data.sol\":1548:1561  payload.nonce */\n      0x00\n      add\n      mload\n        /* \"erc3k/contracts/ERC3000Data.sol\":1579:1586  payload */\n      dup3\n        /* \"erc3k/contracts/ERC3000Data.sol\":1579:1600  payload.executionTime */\n      0x20\n      add\n      mload\n        /* \"erc3k/contracts/ERC3000Data.sol\":1618:1625  payload */\n      dup4\n        /* \"erc3k/contracts/ERC3000Data.sol\":1618:1635  payload.submitter */\n      0x40\n      add\n      mload\n        /* \"erc3k/contracts/ERC3000Data.sol\":1653:1660  payload */\n      dup5\n        /* \"erc3k/contracts/ERC3000Data.sol\":1653:1669  payload.executor */\n      0x60\n      add\n      mload\n        /* \"erc3k/contracts/ERC3000Data.sol\":1708:1715  payload */\n      dup6\n        /* \"erc3k/contracts/ERC3000Data.sol\":1708:1723  payload.actions */\n      0x80\n      add\n      mload\n        /* \"erc3k/contracts/ERC3000Data.sol\":1697:1724  abi.encode(payload.actions) */\n      add(0x20, mload(0x40))\n      tag_474\n      swap2\n      swap1\n      jump(tag_475)\n    tag_474:\n      mload(0x40)\n        /* \"--CODEGEN--\":49:53   */\n      0x20\n        /* \"--CODEGEN--\":39:46   */\n      dup2\n        /* \"--CODEGEN--\":30:37   */\n      dup4\n        /* \"--CODEGEN--\":26:47   */\n      sub\n        /* \"--CODEGEN--\":22:54   */\n      sub\n        /* \"--CODEGEN--\":13:20   */\n      dup2\n        /* \"--CODEGEN--\":6:55   */\n      mstore\n        /* \"erc3k/contracts/ERC3000Data.sol\":1697:1724  abi.encode(payload.actions) */\n      swap1\n      0x40\n      mstore\n        /* \"erc3k/contracts/ERC3000Data.sol\":1687:1725  keccak256(abi.encode(payload.actions)) */\n      dup1\n      mload\n      swap1\n      0x20\n      add\n      keccak256\n        /* \"erc3k/contracts/ERC3000Data.sol\":1743:1750  payload */\n      dup7\n        /* \"erc3k/contracts/ERC3000Data.sol\":1743:1767  payload.allowFailuresMap */\n      0xa0\n      add\n      mload\n        /* \"erc3k/contracts/ERC3000Data.sol\":1795:1802  payload */\n      dup8\n        /* \"erc3k/contracts/ERC3000Data.sol\":1795:1808  payload.proof */\n      0xc0\n      add\n      mload\n        /* \"erc3k/contracts/ERC3000Data.sol\":1785:1809  keccak256(payload.proof) */\n      dup1\n      mload\n      swap1\n      0x20\n      add\n      keccak256\n        /* \"erc3k/contracts/ERC3000Data.sol\":1514:1823  abi.encodePacked(... */\n      add(0x20, mload(0x40))\n      tag_404\n      swap8\n      swap7\n      swap6\n      swap5\n      swap4\n      swap3\n      swap2\n      swap1\n      jump(tag_477)\n        /* \"erc3k/contracts/ERC3000Data.sol\":939:1232  function containerHash(bytes32 payloadHash, bytes32 configHash) internal view returns (bytes32) {... */\n    tag_362:\n        /* \"erc3k/contracts/ERC3000Data.sol\":1147:1224  abi.encodePacked(\"erc3k-v1\", address(this), chainId, payloadHash, configHash) */\n      mload(0x40)\n        /* \"erc3k/contracts/ERC3000Data.sol\":1026:1033  bytes32 */\n      0x00\n      swap1\n        /* \"erc3k/contracts/ERC3000Data.sol\":1101:1110  chainid() */\n      chainid\n      swap1\n        /* \"erc3k/contracts/ERC3000Data.sol\":1147:1224  abi.encodePacked(\"erc3k-v1\", address(this), chainId, payloadHash, configHash) */\n      tag_479\n      swap1\n        /* \"erc3k/contracts/ERC3000Data.sol\":1184:1188  this */\n      address\n      swap1\n        /* \"erc3k/contracts/ERC3000Data.sol\":1101:1110  chainid() */\n      dup4\n      swap1\n        /* \"erc3k/contracts/ERC3000Data.sol\":1200:1211  payloadHash */\n      dup8\n      swap1\n        /* \"erc3k/contracts/ERC3000Data.sol\":1213:1223  configHash */\n      dup8\n      swap1\n        /* \"erc3k/contracts/ERC3000Data.sol\":1147:1224  abi.encodePacked(\"erc3k-v1\", address(this), chainId, payloadHash, configHash) */\n      0x20\n      add\n      jump(tag_480)\n    tag_479:\n      mload(0x40)\n        /* \"--CODEGEN--\":49:53   */\n      0x20\n        /* \"--CODEGEN--\":39:46   */\n      dup2\n        /* \"--CODEGEN--\":30:37   */\n      dup4\n        /* \"--CODEGEN--\":26:47   */\n      sub\n        /* \"--CODEGEN--\":22:54   */\n      sub\n        /* \"--CODEGEN--\":13:20   */\n      dup2\n        /* \"--CODEGEN--\":6:55   */\n      mstore\n        /* \"erc3k/contracts/ERC3000Data.sol\":1147:1224  abi.encodePacked(\"erc3k-v1\", address(this), chainId, payloadHash, configHash) */\n      swap1\n      0x40\n      mstore\n        /* \"erc3k/contracts/ERC3000Data.sol\":1137:1225  keccak256(abi.encodePacked(\"erc3k-v1\", address(this), chainId, payloadHash, configHash)) */\n      dup1\n      mload\n      swap1\n      0x20\n      add\n      keccak256\n        /* \"erc3k/contracts/ERC3000Data.sol\":1130:1225  return keccak256(abi.encodePacked(\"erc3k-v1\", address(this), chainId, payloadHash, configHash)) */\n      swap2\n      pop\n      pop\n        /* \"erc3k/contracts/ERC3000Data.sol\":939:1232  function containerHash(bytes32 payloadHash, bytes32 configHash) internal view returns (bytes32) {... */\n      swap3\n      swap2\n      pop\n      pop\n      jump\t// out\n        /* \"@aragon/govern-contract-utils/contracts/acl/ACL.sol\":3271:3580  function _grantWithOracle(bytes4 _role, address _who, IACLOracle _oracle) internal {... */\n    tag_380:\n        /* \"@aragon/govern-contract-utils/contracts/acl/ACL.sol\":3373:3388  isFrozen(_role) */\n      tag_482\n        /* \"@aragon/govern-contract-utils/contracts/acl/ACL.sol\":3382:3387  _role */\n      dup4\n        /* \"@aragon/govern-contract-utils/contracts/acl/ACL.sol\":3373:3381  isFrozen */\n      tag_75\n        /* \"@aragon/govern-contract-utils/contracts/acl/ACL.sol\":3373:3388  isFrozen(_role) */\n      jump\t// in\n    tag_482:\n        /* \"@aragon/govern-contract-utils/contracts/acl/ACL.sol\":3372:3388  !isFrozen(_role) */\n      iszero\n        /* \"@aragon/govern-contract-utils/contracts/acl/ACL.sol\":3364:3404  require(!isFrozen(_role), \"acl: frozen\") */\n      tag_483\n      jumpi\n      mload(0x40)\n      shl(0xe5, 0x461bcd)\n      dup2\n      mstore\n      0x04\n      add\n      tag_182\n      swap1\n      jump(tag_414)\n    tag_483:\n        /* \"@aragon/govern-contract-utils/contracts/acl/ACL.sol\":3422:3441  _who != FREEZE_FLAG */\n      0xffffffffffffffffffffffffffffffffffffffff\n      dup3\n      and\n        /* \"@aragon/govern-contract-utils/contracts/acl/ACL.sol\":581:582  1 */\n      0x01\n        /* \"@aragon/govern-contract-utils/contracts/acl/ACL.sol\":3422:3441  _who != FREEZE_FLAG */\n      eq\n      iszero\n        /* \"@aragon/govern-contract-utils/contracts/acl/ACL.sol\":3414:3461  require(_who != FREEZE_FLAG, \"acl: bad freeze\") */\n      tag_485\n      jumpi\n      mload(0x40)\n      shl(0xe5, 0x461bcd)\n      dup2\n      mstore\n      0x04\n      add\n      tag_182\n      swap1\n      jump(tag_487)\n    tag_485:\n        /* \"@aragon/govern-contract-utils/contracts/acl/ACL.sol\":3480:3492  roles[_role] */\n      0xffffffff00000000000000000000000000000000000000000000000000000000\n      dup4\n      and\n      0x00\n      dup2\n      dup2\n      mstore\n        /* \"@aragon/govern-contract-utils/contracts/acl/ACL.sol\":3480:3485  roles */\n      0x03\n        /* \"@aragon/govern-contract-utils/contracts/acl/ACL.sol\":3480:3492  roles[_role] */\n      0x20\n      swap1\n      dup2\n      mstore\n      0x40\n      dup1\n      dup4\n      keccak256\n        /* \"@aragon/govern-contract-utils/contracts/acl/ACL.sol\":3480:3498  roles[_role][_who] */\n      0xffffffffffffffffffffffffffffffffffffffff\n      dup8\n      dup2\n      and\n      dup1\n      dup7\n      mstore\n      swap2\n      swap1\n      swap4\n      mstore\n      swap3\n      dup2\n      swap1\n      keccak256\n        /* \"@aragon/govern-contract-utils/contracts/acl/ACL.sol\":3480:3517  roles[_role][_who] = address(_oracle) */\n      dup1\n      sload\n      0xffffffffffffffffffffffff0000000000000000000000000000000000000000\n      and\n      swap3\n      dup7\n      and\n      swap3\n      swap1\n      swap3\n      or\n      swap1\n      swap2\n      sstore\n        /* \"@aragon/govern-contract-utils/contracts/acl/ACL.sol\":3532:3573  Granted(_role, msg.sender, _who, _oracle) */\n      mload\n        /* \"@aragon/govern-contract-utils/contracts/acl/ACL.sol\":3480:3498  roles[_role][_who] */\n      swap1\n      swap2\n        /* \"@aragon/govern-contract-utils/contracts/acl/ACL.sol\":3547:3557  msg.sender */\n      caller\n      swap2\n        /* \"@aragon/govern-contract-utils/contracts/acl/ACL.sol\":3532:3573  Granted(_role, msg.sender, _who, _oracle) */\n      0xc62063b81f7036fd97a0dc546516e99f11004d2d76ca0fddd3866346c86e7091\n      swap1\n      tag_488\n      swap1\n        /* \"@aragon/govern-contract-utils/contracts/acl/ACL.sol\":3480:3517  roles[_role][_who] = address(_oracle) */\n      dup7\n      swap1\n        /* \"@aragon/govern-contract-utils/contracts/acl/ACL.sol\":3532:3573  Granted(_role, msg.sender, _who, _oracle) */\n      jump(tag_114)\n    tag_488:\n      mload(0x40)\n      dup1\n      swap2\n      sub\n      swap1\n      log4\n        /* \"@aragon/govern-contract-utils/contracts/acl/ACL.sol\":3271:3580  function _grantWithOracle(bytes4 _role, address _who, IACLOracle _oracle) internal {... */\n      pop\n      pop\n      pop\n      jump\t// out\n        /* \".deps/npm/@aragon/govern-core/contracts/pipelines/GovernQueue.sol\":882:1033  function checkState(Item storage _item, State _requiredState) internal view {... */\n    tag_425:\n        /* \".deps/npm/@aragon/govern-core/contracts/pipelines/GovernQueue.sol\":991:1005  _requiredState */\n      dup1\n        /* \".deps/npm/@aragon/govern-core/contracts/pipelines/GovernQueue.sol\":976:1005  _item.state == _requiredState */\n      0x06\n      dup2\n      gt\n      iszero\n      tag_491\n      jumpi\n      invalid\n    tag_491:\n        /* \".deps/npm/@aragon/govern-core/contracts/pipelines/GovernQueue.sol\":976:987  _item.state */\n      dup3\n      sload\n      0xff\n      and\n        /* \".deps/npm/@aragon/govern-core/contracts/pipelines/GovernQueue.sol\":976:1005  _item.state == _requiredState */\n      0x06\n      dup2\n      gt\n      iszero\n      tag_492\n      jumpi\n      invalid\n    tag_492:\n      eq\n        /* \".deps/npm/@aragon/govern-core/contracts/pipelines/GovernQueue.sol\":968:1026  require(_item.state == _requiredState, \"queue: bad state\") */\n      tag_394\n      jumpi\n      mload(0x40)\n      shl(0xe5, 0x461bcd)\n      dup2\n      mstore\n      0x04\n      add\n      tag_182\n      swap1\n      jump(tag_495)\n        /* \".deps/npm/@aragon/govern-core/contracts/pipelines/GovernQueue.sol\":1039:1137  function setState(Item storage _item, State _state) internal {... */\n    tag_427:\n        /* \".deps/npm/@aragon/govern-core/contracts/pipelines/GovernQueue.sol\":1110:1130  _item.state = _state */\n      dup2\n      sload\n        /* \".deps/npm/@aragon/govern-core/contracts/pipelines/GovernQueue.sol\":1124:1130  _state */\n      dup2\n      swap1\n        /* \".deps/npm/@aragon/govern-core/contracts/pipelines/GovernQueue.sol\":1110:1115  _item */\n      dup4\n      swap1\n        /* \".deps/npm/@aragon/govern-core/contracts/pipelines/GovernQueue.sol\":1110:1130  _item.state = _state */\n      0xffffffffffffffffffffffffffffffffffffffffffffffffffffffffffffff00\n      and\n      0x01\n        /* \".deps/npm/@aragon/govern-core/contracts/pipelines/GovernQueue.sol\":1124:1130  _state */\n      dup4\n        /* \".deps/npm/@aragon/govern-core/contracts/pipelines/GovernQueue.sol\":1110:1130  _item.state = _state */\n      0x06\n      dup2\n      gt\n      iszero\n      tag_497\n      jumpi\n      invalid\n    tag_497:\n      mul\n      or\n      swap1\n      sstore\n      pop\n        /* \".deps/npm/@aragon/govern-core/contracts/pipelines/GovernQueue.sol\":1039:1137  function setState(Item storage _item, State _state) internal {... */\n      pop\n      pop\n      jump\t// out\n        /* \"@aragon/govern-contract-utils/contracts/erc20/SafeERC20.sol\":3194:3514  function safeTransfer(ERC20 _token, address _to, uint256 _amount) internal returns (bool) {... */\n    tag_431:\n        /* \"@aragon/govern-contract-utils/contracts/erc20/SafeERC20.sol\":3278:3282  bool */\n      0x00\n        /* \"@aragon/govern-contract-utils/contracts/erc20/SafeERC20.sol\":3294:3323  bytes memory transferCallData */\n      0x60\n        /* \"@aragon/govern-contract-utils/contracts/erc20/SafeERC20.sol\":3362:3386  _token.transfer.selector */\n      shl(0xe0, 0xa9059cbb)\n        /* \"@aragon/govern-contract-utils/contracts/erc20/SafeERC20.sol\":3400:3403  _to */\n      dup5\n        /* \"@aragon/govern-contract-utils/contracts/erc20/SafeERC20.sol\":3417:3424  _amount */\n      dup5\n        /* \"@aragon/govern-contract-utils/contracts/erc20/SafeERC20.sol\":3326:3434  abi.encodeWithSelector(... */\n      add(0x24, mload(0x40))\n      tag_470\n      swap3\n      swap2\n      swap1\n      jump(tag_471)\n        /* \"@aragon/govern-contract-utils/contracts/erc20/SafeERC20.sol\":1637:3016  function invokeAndCheckSuccess(address _addr, bytes memory _calldata)... */\n    tag_468:\n        /* \"@aragon/govern-contract-utils/contracts/erc20/SafeERC20.sol\":1740:1748  bool ret */\n      0x00\n        /* \"@aragon/govern-contract-utils/contracts/erc20/SafeERC20.sol\":1769:1787  _addr.isContract() */\n      tag_502\n        /* \"@aragon/govern-contract-utils/contracts/erc20/SafeERC20.sol\":1769:1774  _addr */\n      dup4\n        /* \"@aragon/govern-contract-utils/contracts/erc20/SafeERC20.sol\":1769:1785  _addr.isContract */\n      0xffffffffffffffffffffffffffffffffffffffff\n      and\n      tag_503\n        /* \"@aragon/govern-contract-utils/contracts/erc20/SafeERC20.sol\":1769:1787  _addr.isContract() */\n      jump\t// in\n    tag_502:\n        /* \"@aragon/govern-contract-utils/contracts/erc20/SafeERC20.sol\":1764:1826  if (!_addr.isContract()) {... */\n      tag_504\n      jumpi\n      pop\n        /* \"@aragon/govern-contract-utils/contracts/erc20/SafeERC20.sol\":1810:1815  false */\n      0x00\n        /* \"@aragon/govern-contract-utils/contracts/erc20/SafeERC20.sol\":1803:1815  return false */\n      jump(tag_158)\n        /* \"@aragon/govern-contract-utils/contracts/erc20/SafeERC20.sol\":1764:1826  if (!_addr.isContract()) {... */\n    tag_504:\n        /* \"@aragon/govern-contract-utils/contracts/erc20/SafeERC20.sol\":1876:1880  0x40 */\n      0x40\n        /* \"@aragon/govern-contract-utils/contracts/erc20/SafeERC20.sol\":1870:1881  mload(0x40) */\n      mload\n        /* \"@aragon/govern-contract-utils/contracts/erc20/SafeERC20.sol\":2295:2299  0x20 */\n      0x20\n        /* \"@aragon/govern-contract-utils/contracts/erc20/SafeERC20.sol\":2224:2227  ptr */\n      dup2\n        /* \"@aragon/govern-contract-utils/contracts/erc20/SafeERC20.sol\":2173:2182  _calldata */\n      dup5\n        /* \"@aragon/govern-contract-utils/contracts/erc20/SafeERC20.sol\":2167:2183  mload(_calldata) */\n      mload\n        /* \"@aragon/govern-contract-utils/contracts/erc20/SafeERC20.sol\":2126:2130  0x20 */\n      0x20\n        /* \"@aragon/govern-contract-utils/contracts/erc20/SafeERC20.sol\":2115:2124  _calldata */\n      dup7\n        /* \"@aragon/govern-contract-utils/contracts/erc20/SafeERC20.sol\":2111:2131  add(_calldata, 0x20) */\n      add\n        /* \"@aragon/govern-contract-utils/contracts/erc20/SafeERC20.sol\":2061:2062  0 */\n      0x00\n        /* \"@aragon/govern-contract-utils/contracts/erc20/SafeERC20.sol\":2012:2017  _addr */\n      dup9\n        /* \"@aragon/govern-contract-utils/contracts/erc20/SafeERC20.sol\":1958:1963  gas() */\n      gas\n        /* \"@aragon/govern-contract-utils/contracts/erc20/SafeERC20.sol\":1936:2348  call(... */\n      call\n        /* \"@aragon/govern-contract-utils/contracts/erc20/SafeERC20.sol\":2365:2379  gt(success, 0) */\n      dup1\n      iszero\n        /* \"@aragon/govern-contract-utils/contracts/erc20/SafeERC20.sol\":2362:2364  if */\n      tag_505\n      jumpi\n        /* \"@aragon/govern-contract-utils/contracts/erc20/SafeERC20.sol\":2479:2495  returndatasize() */\n      returndatasize\n        /* \"@aragon/govern-contract-utils/contracts/erc20/SafeERC20.sol\":2566:2621  case 0 {... */\n      dup1\n      iszero\n      tag_507\n      jumpi\n        /* \"@aragon/govern-contract-utils/contracts/erc20/SafeERC20.sol\":2700:2704  0x20 */\n      0x20\n        /* \"@aragon/govern-contract-utils/contracts/erc20/SafeERC20.sol\":2695:2888  case 0x20 {... */\n      dup2\n      eq\n      tag_508\n      jumpi\n        /* \"@aragon/govern-contract-utils/contracts/erc20/SafeERC20.sol\":2472:2986  switch returndatasize()... */\n      jump(tag_506)\n        /* \"@aragon/govern-contract-utils/contracts/erc20/SafeERC20.sol\":2566:2621  case 0 {... */\n    tag_507:\n        /* \"@aragon/govern-contract-utils/contracts/erc20/SafeERC20.sol\":2602:2603  1 */\n      0x01\n        /* \"@aragon/govern-contract-utils/contracts/erc20/SafeERC20.sol\":2595:2603  ret := 1 */\n      swap4\n      pop\n        /* \"@aragon/govern-contract-utils/contracts/erc20/SafeERC20.sol\":2566:2621  case 0 {... */\n      jump(tag_506)\n        /* \"@aragon/govern-contract-utils/contracts/erc20/SafeERC20.sol\":2695:2888  case 0x20 {... */\n    tag_508:\n        /* \"@aragon/govern-contract-utils/contracts/erc20/SafeERC20.sol\":2868:2869  1 */\n      0x01\n        /* \"@aragon/govern-contract-utils/contracts/erc20/SafeERC20.sol\":2862:2865  ptr */\n      dup4\n        /* \"@aragon/govern-contract-utils/contracts/erc20/SafeERC20.sol\":2856:2866  mload(ptr) */\n      mload\n        /* \"@aragon/govern-contract-utils/contracts/erc20/SafeERC20.sol\":2853:2870  eq(mload(ptr), 1) */\n      eq\n        /* \"@aragon/govern-contract-utils/contracts/erc20/SafeERC20.sol\":2846:2870  ret := eq(mload(ptr), 1) */\n      swap4\n      pop\n        /* \"@aragon/govern-contract-utils/contracts/erc20/SafeERC20.sol\":2472:2986  switch returndatasize()... */\n    tag_506:\n      pop\n        /* \"@aragon/govern-contract-utils/contracts/erc20/SafeERC20.sol\":2362:2364  if */\n    tag_505:\n      pop\n      pop\n        /* \"@aragon/govern-contract-utils/contracts/erc20/SafeERC20.sol\":1845:3010  {... */\n      swap3\n      swap2\n      pop\n      pop\n      jump\t// out\n        /* \"@aragon/govern-contract-utils/contracts/address-utils/AddressUtils.sol\":345:504  function isContract(address addr) internal view returns (bool result) {... */\n    tag_503:\n        /* \"@aragon/govern-contract-utils/contracts/address-utils/AddressUtils.sol\":469:486  extcodesize(addr) */\n      extcodesize\n        /* \"@aragon/govern-contract-utils/contracts/address-utils/AddressUtils.sol\":462:487  iszero(extcodesize(addr)) */\n      iszero\n        /* \"@aragon/govern-contract-utils/contracts/address-utils/AddressUtils.sol\":458:488  not(iszero(extcodesize(addr))) */\n      not\n      swap1\n        /* \"@aragon/govern-contract-utils/contracts/address-utils/AddressUtils.sol\":434:498  {... */\n      jump\t// out\n    tag_189:\n      0x40\n      dup1\n      mload\n      0x60\n      dup2\n      add\n      swap1\n      swap2\n      mstore\n      dup1\n      0x00\n      dup2\n      mstore\n      0x00\n      0x20\n      dup3\n      add\n      dup2\n      swap1\n      mstore\n      0x40\n      swap1\n      swap2\n      add\n      mstore\n      swap1\n      jump\t// out\n    tag_295:\n      0x40\n      dup1\n      mload\n      dup1\n      dup3\n      add\n      swap1\n      swap2\n      mstore\n      0x00\n      dup1\n      dup3\n      mstore\n      0x20\n      dup3\n      add\n      mstore\n      swap1\n      jump\t// out\n        /* \"--CODEGEN--\":5:135   */\n    tag_512:\n        /* \"--CODEGEN--\":72:92   */\n      dup1\n      calldataload\n        /* \"--CODEGEN--\":97:130   */\n      tag_158\n        /* \"--CODEGEN--\":72:92   */\n      dup2\n        /* \"--CODEGEN--\":97:130   */\n      jump(tag_515)\n        /* \"--CODEGEN--\":1056:1806   */\n    tag_516:\n      0x00\n        /* \"--CODEGEN--\":1197:1200   */\n      dup3\n        /* \"--CODEGEN--\":1190:1194   */\n      0x1f\n        /* \"--CODEGEN--\":1182:1188   */\n      dup4\n        /* \"--CODEGEN--\":1178:1195   */\n      add\n        /* \"--CODEGEN--\":1174:1201   */\n      slt\n        /* \"--CODEGEN--\":1164:1166   */\n      tag_518\n      jumpi\n      dup1\n      dup2\n        /* \"--CODEGEN--\":1205:1217   */\n      revert\n        /* \"--CODEGEN--\":1164:1166   */\n    tag_518:\n        /* \"--CODEGEN--\":1252:1258   */\n      dup2\n        /* \"--CODEGEN--\":1239:1259   */\n      calldataload\n        /* \"--CODEGEN--\":1274:1378   */\n      tag_519\n        /* \"--CODEGEN--\":1289:1377   */\n      tag_520\n        /* \"--CODEGEN--\":1370:1376   */\n      dup3\n        /* \"--CODEGEN--\":1289:1377   */\n      jump(tag_521)\n    tag_520:\n        /* \"--CODEGEN--\":1274:1378   */\n      jump(tag_522)\n    tag_519:\n        /* \"--CODEGEN--\":1406:1427   */\n      dup2\n      dup2\n      mstore\n        /* \"--CODEGEN--\":1265:1378   */\n      swap2\n      pop\n        /* \"--CODEGEN--\":1450:1454   */\n      0x20\n        /* \"--CODEGEN--\":1463:1477   */\n      dup1\n      dup4\n      add\n      swap1\n        /* \"--CODEGEN--\":1438:1455   */\n      dup5\n      dup2\n      add\n        /* \"--CODEGEN--\":1558:1559   */\n      0x00\n        /* \"--CODEGEN--\":1543:1800   */\n    tag_523:\n        /* \"--CODEGEN--\":1568:1574   */\n      dup5\n        /* \"--CODEGEN--\":1565:1566   */\n      dup2\n        /* \"--CODEGEN--\":1562:1575   */\n      lt\n        /* \"--CODEGEN--\":1543:1800   */\n      iszero\n      tag_525\n      jumpi\n        /* \"--CODEGEN--\":1651:1654   */\n      dup2\n        /* \"--CODEGEN--\":1638:1655   */\n      calldataload\n        /* \"--CODEGEN--\":1442:1448   */\n      dup8\n        /* \"--CODEGEN--\":1626:1656   */\n      add\n        /* \"--CODEGEN--\":6036:6040   */\n      0x60\n      dup1\n        /* \"--CODEGEN--\":6015:6034   */\n      0xffffffffffffffffffffffffffffffffffffffffffffffffffffffffffffffe0\n        /* \"--CODEGEN--\":1626:1656   */\n      dup4\n        /* \"--CODEGEN--\":6019:6022   */\n      dup13\n        /* \"--CODEGEN--\":6015:6034   */\n      sub\n      add\n        /* \"--CODEGEN--\":6011:6041   */\n      slt\n        /* \"--CODEGEN--\":6008:6010   */\n      iszero\n      tag_526\n      jumpi\n        /* \"--CODEGEN--\":1558:1559   */\n      0x00\n      dup1\n        /* \"--CODEGEN--\":6044:6056   */\n      revert\n        /* \"--CODEGEN--\":6008:6010   */\n    tag_526:\n        /* \"--CODEGEN--\":6072:6092   */\n      tag_527\n        /* \"--CODEGEN--\":6036:6040   */\n      dup2\n        /* \"--CODEGEN--\":6072:6092   */\n      jump(tag_522)\n    tag_527:\n        /* \"--CODEGEN--\":6172:6221   */\n      tag_528\n        /* \"--CODEGEN--\":6217:6220   */\n      dup12\n        /* \"--CODEGEN--\":1450:1454   */\n      dup8\n        /* \"--CODEGEN--\":1626:1656   */\n      dup6\n      add\n        /* \"--CODEGEN--\":6172:6221   */\n      jump(tag_512)\n    tag_528:\n        /* \"--CODEGEN--\":6154:6170   */\n      dup2\n        /* \"--CODEGEN--\":6147:6222   */\n      mstore\n        /* \"--CODEGEN--\":6338:6360   */\n      0x40\n      dup1\n        /* \"--CODEGEN--\":1626:1656   */\n      dup5\n        /* \"--CODEGEN--\":6338:6360   */\n      add\n        /* \"--CODEGEN--\":11256:11276   */\n      calldataload\n        /* \"--CODEGEN--\":1450:1454   */\n      dup8\n        /* \"--CODEGEN--\":6303:6308   */\n      dup4\n        /* \"--CODEGEN--\":6299:6315   */\n      add\n        /* \"--CODEGEN--\":6292:6367   */\n      mstore\n        /* \"--CODEGEN--\":6036:6040   */\n      dup3\n        /* \"--CODEGEN--\":1626:1656   */\n      dup5\n        /* \"--CODEGEN--\":6441:6459   */\n      add\n        /* \"--CODEGEN--\":6428:6460   */\n      calldataload\n        /* \"--CODEGEN--\":6480:6498   */\n      0xffffffffffffffff\n        /* \"--CODEGEN--\":6472:6478   */\n      dup2\n        /* \"--CODEGEN--\":6469:6499   */\n      gt\n        /* \"--CODEGEN--\":6466:6468   */\n      iszero\n      tag_529\n      jumpi\n        /* \"--CODEGEN--\":1558:1559   */\n      0x00\n      dup1\n        /* \"--CODEGEN--\":6502:6514   */\n      revert\n        /* \"--CODEGEN--\":6466:6468   */\n    tag_529:\n        /* \"--CODEGEN--\":6547:6605   */\n      tag_530\n        /* \"--CODEGEN--\":6601:6604   */\n      dup14\n        /* \"--CODEGEN--\":1450:1454   */\n      dup10\n        /* \"--CODEGEN--\":6592:6598   */\n      dup4\n        /* \"--CODEGEN--\":1626:1656   */\n      dup9\n        /* \"--CODEGEN--\":6577:6599   */\n      add\n      add\n        /* \"--CODEGEN--\":6547:6605   */\n      jump(tag_531)\n    tag_530:\n        /* \"--CODEGEN--\":6529:6545   */\n      swap2\n      dup4\n      add\n        /* \"--CODEGEN--\":6522:6606   */\n      swap2\n      swap1\n      swap2\n      mstore\n      pop\n        /* \"--CODEGEN--\":1663:1737   */\n      dup7\n      mstore\n      pop\n      pop\n        /* \"--CODEGEN--\":1751:1765   */\n      swap3\n      dup3\n      add\n      swap3\n        /* \"--CODEGEN--\":1779:1793   */\n      swap1\n      dup3\n      add\n      swap1\n        /* \"--CODEGEN--\":1590:1591   */\n      0x01\n        /* \"--CODEGEN--\":1583:1592   */\n      add\n        /* \"--CODEGEN--\":1543:1800   */\n      jump(tag_523)\n    tag_525:\n        /* \"--CODEGEN--\":1547:1561   */\n      pop\n      pop\n      pop\n      pop\n      pop\n        /* \"--CODEGEN--\":1157:1806   */\n      swap3\n      swap2\n      pop\n      pop\n      jump\n        /* \"--CODEGEN--\":3676:4116   */\n    tag_531:\n      0x00\n        /* \"--CODEGEN--\":3777:3780   */\n      dup3\n        /* \"--CODEGEN--\":3770:3774   */\n      0x1f\n        /* \"--CODEGEN--\":3762:3768   */\n      dup4\n        /* \"--CODEGEN--\":3758:3775   */\n      add\n        /* \"--CODEGEN--\":3754:3781   */\n      slt\n        /* \"--CODEGEN--\":3744:3746   */\n      tag_533\n      jumpi\n      dup1\n      dup2\n        /* \"--CODEGEN--\":3785:3797   */\n      revert\n        /* \"--CODEGEN--\":3744:3746   */\n    tag_533:\n        /* \"--CODEGEN--\":3832:3838   */\n      dup2\n        /* \"--CODEGEN--\":3819:3839   */\n      calldataload\n        /* \"--CODEGEN--\":3854:3918   */\n      tag_534\n        /* \"--CODEGEN--\":3869:3917   */\n      tag_520\n        /* \"--CODEGEN--\":3910:3916   */\n      dup3\n        /* \"--CODEGEN--\":3869:3917   */\n      jump(tag_536)\n        /* \"--CODEGEN--\":3854:3918   */\n    tag_534:\n        /* \"--CODEGEN--\":3845:3918   */\n      swap2\n      pop\n        /* \"--CODEGEN--\":3938:3944   */\n      dup1\n        /* \"--CODEGEN--\":3931:3936   */\n      dup3\n        /* \"--CODEGEN--\":3924:3945   */\n      mstore\n        /* \"--CODEGEN--\":4042:4045   */\n      dup4\n        /* \"--CODEGEN--\":3974:3978   */\n      0x20\n        /* \"--CODEGEN--\":4033:4039   */\n      dup3\n        /* \"--CODEGEN--\":3966:3972   */\n      dup6\n        /* \"--CODEGEN--\":4024:4040   */\n      add\n      add\n        /* \"--CODEGEN--\":4021:4046   */\n      gt\n        /* \"--CODEGEN--\":4018:4020   */\n      iszero\n      tag_537\n      jumpi\n        /* \"--CODEGEN--\":4059:4060   */\n      0x00\n      dup1\n        /* \"--CODEGEN--\":4049:4061   */\n      revert\n        /* \"--CODEGEN--\":4018:4020   */\n    tag_537:\n        /* \"--CODEGEN--\":65893:65899   */\n      dup1\n        /* \"--CODEGEN--\":3974:3978   */\n      0x20\n        /* \"--CODEGEN--\":3966:3972   */\n      dup5\n        /* \"--CODEGEN--\":3962:3979   */\n      add\n        /* \"--CODEGEN--\":3974:3978   */\n      0x20\n        /* \"--CODEGEN--\":4000:4005   */\n      dup5\n        /* \"--CODEGEN--\":3996:4012   */\n      add\n        /* \"--CODEGEN--\":65870:65900   */\n      calldatacopy\n        /* \"--CODEGEN--\":65949:65950   */\n      0x00\n        /* \"--CODEGEN--\":65931:65947   */\n      swap1\n      dup3\n      add\n        /* \"--CODEGEN--\":3974:3978   */\n      0x20\n        /* \"--CODEGEN--\":65931:65947   */\n      add\n        /* \"--CODEGEN--\":65924:65951   */\n      mstore\n        /* \"--CODEGEN--\":4000:4005   */\n      swap3\n        /* \"--CODEGEN--\":3737:4116   */\n      swap2\n      pop\n      pop\n      jump\n        /* \"--CODEGEN--\":4125:4567   */\n    tag_538:\n      0x00\n        /* \"--CODEGEN--\":4237:4240   */\n      dup3\n        /* \"--CODEGEN--\":4230:4234   */\n      0x1f\n        /* \"--CODEGEN--\":4222:4228   */\n      dup4\n        /* \"--CODEGEN--\":4218:4235   */\n      add\n        /* \"--CODEGEN--\":4214:4241   */\n      slt\n        /* \"--CODEGEN--\":4204:4206   */\n      tag_540\n      jumpi\n      dup1\n      dup2\n        /* \"--CODEGEN--\":4245:4257   */\n      revert\n        /* \"--CODEGEN--\":4204:4206   */\n    tag_540:\n        /* \"--CODEGEN--\":4285:4291   */\n      dup2\n        /* \"--CODEGEN--\":4279:4292   */\n      mload\n        /* \"--CODEGEN--\":4307:4371   */\n      tag_541\n        /* \"--CODEGEN--\":4322:4370   */\n      tag_520\n        /* \"--CODEGEN--\":4363:4369   */\n      dup3\n        /* \"--CODEGEN--\":4322:4370   */\n      jump(tag_536)\n        /* \"--CODEGEN--\":4307:4371   */\n    tag_541:\n        /* \"--CODEGEN--\":4298:4371   */\n      swap2\n      pop\n        /* \"--CODEGEN--\":4391:4397   */\n      dup1\n        /* \"--CODEGEN--\":4384:4389   */\n      dup3\n        /* \"--CODEGEN--\":4377:4398   */\n      mstore\n        /* \"--CODEGEN--\":4495:4498   */\n      dup4\n        /* \"--CODEGEN--\":4427:4431   */\n      0x20\n        /* \"--CODEGEN--\":4486:4492   */\n      dup3\n        /* \"--CODEGEN--\":4419:4425   */\n      dup6\n        /* \"--CODEGEN--\":4477:4493   */\n      add\n      add\n        /* \"--CODEGEN--\":4474:4499   */\n      gt\n        /* \"--CODEGEN--\":4471:4473   */\n      iszero\n      tag_543\n      jumpi\n        /* \"--CODEGEN--\":4512:4513   */\n      0x00\n      dup1\n        /* \"--CODEGEN--\":4502:4514   */\n      revert\n        /* \"--CODEGEN--\":4471:4473   */\n    tag_543:\n        /* \"--CODEGEN--\":4522:4561   */\n      tag_544\n        /* \"--CODEGEN--\":4554:4560   */\n      dup2\n        /* \"--CODEGEN--\":4427:4431   */\n      0x20\n        /* \"--CODEGEN--\":4453:4458   */\n      dup5\n        /* \"--CODEGEN--\":4449:4465   */\n      add\n        /* \"--CODEGEN--\":4427:4431   */\n      0x20\n        /* \"--CODEGEN--\":4419:4425   */\n      dup7\n        /* \"--CODEGEN--\":4415:4432   */\n      add\n        /* \"--CODEGEN--\":4522:4561   */\n      jump(tag_545)\n    tag_544:\n      pop\n        /* \"--CODEGEN--\":4197:4567   */\n      swap3\n      swap2\n      pop\n      pop\n      jump\n        /* \"--CODEGEN--\":6664:7281   */\n    tag_546:\n      0x00\n        /* \"--CODEGEN--\":6778:6782   */\n      0x60\n        /* \"--CODEGEN--\":6766:6775   */\n      dup3\n        /* \"--CODEGEN--\":6761:6764   */\n      dup5\n        /* \"--CODEGEN--\":6757:6776   */\n      sub\n        /* \"--CODEGEN--\":6753:6783   */\n      slt\n        /* \"--CODEGEN--\":6750:6752   */\n      iszero\n      tag_548\n      jumpi\n      dup1\n      dup2\n        /* \"--CODEGEN--\":6786:6798   */\n      revert\n        /* \"--CODEGEN--\":6750:6752   */\n    tag_548:\n        /* \"--CODEGEN--\":6814:6834   */\n      tag_549\n        /* \"--CODEGEN--\":6778:6782   */\n      0x60\n        /* \"--CODEGEN--\":6814:6834   */\n      jump(tag_522)\n    tag_549:\n        /* \"--CODEGEN--\":6805:6834   */\n      swap1\n      pop\n        /* \"--CODEGEN--\":5373:5379   */\n      dup2\n        /* \"--CODEGEN--\":5360:5380   */\n      calldataload\n        /* \"--CODEGEN--\":68134:68135   */\n      0x03\n        /* \"--CODEGEN--\":68127:68132   */\n      dup2\n        /* \"--CODEGEN--\":68124:68136   */\n      lt\n        /* \"--CODEGEN--\":68114:68116   */\n      tag_550\n      jumpi\n      0x00\n      dup1\n        /* \"--CODEGEN--\":68140:68152   */\n      revert\n        /* \"--CODEGEN--\":68114:68116   */\n    tag_550:\n        /* \"--CODEGEN--\":6889:6974   */\n      dup2\n      mstore\n        /* \"--CODEGEN--\":7035:7037   */\n      0x20\n        /* \"--CODEGEN--\":7088:7110   */\n      dup3\n      add\n        /* \"--CODEGEN--\":3248:3268   */\n      calldataload\n        /* \"--CODEGEN--\":64056:64122   */\n      0xffffffff00000000000000000000000000000000000000000000000000000000\n        /* \"--CODEGEN--\":64045:64123   */\n      dup2\n      and\n        /* \"--CODEGEN--\":67339:67373   */\n      dup2\n      eq\n        /* \"--CODEGEN--\":67329:67331   */\n      tag_551\n      jumpi\n      0x00\n      dup1\n        /* \"--CODEGEN--\":67377:67389   */\n      revert\n        /* \"--CODEGEN--\":67329:67331   */\n    tag_551:\n        /* \"--CODEGEN--\":7035:7037   */\n      0x20\n        /* \"--CODEGEN--\":7050:7066   */\n      dup3\n      add\n        /* \"--CODEGEN--\":7043:7117   */\n      mstore\n        /* \"--CODEGEN--\":7177:7179   */\n      0x40\n        /* \"--CODEGEN--\":7231:7253   */\n      dup3\n      add\n        /* \"--CODEGEN--\":72:92   */\n      calldataload\n        /* \"--CODEGEN--\":97:130   */\n      tag_552\n        /* \"--CODEGEN--\":72:92   */\n      dup2\n        /* \"--CODEGEN--\":97:130   */\n      jump(tag_515)\n    tag_552:\n        /* \"--CODEGEN--\":7177:7179   */\n      0x40\n        /* \"--CODEGEN--\":7192:7208   */\n      dup3\n      add\n        /* \"--CODEGEN--\":7185:7260   */\n      mstore\n        /* \"--CODEGEN--\":7196:7201   */\n      swap3\n        /* \"--CODEGEN--\":6744:7281   */\n      swap2\n      pop\n      pop\n      jump\n        /* \"--CODEGEN--\":7324:7797   */\n    tag_553:\n      0x00\n        /* \"--CODEGEN--\":7441:7445   */\n      0x40\n        /* \"--CODEGEN--\":7429:7438   */\n      dup3\n        /* \"--CODEGEN--\":7424:7427   */\n      dup5\n        /* \"--CODEGEN--\":7420:7439   */\n      sub\n        /* \"--CODEGEN--\":7416:7446   */\n      slt\n        /* \"--CODEGEN--\":7413:7415   */\n      iszero\n      tag_555\n      jumpi\n      dup1\n      dup2\n        /* \"--CODEGEN--\":7449:7461   */\n      revert\n        /* \"--CODEGEN--\":7413:7415   */\n    tag_555:\n        /* \"--CODEGEN--\":7477:7497   */\n      tag_556\n        /* \"--CODEGEN--\":7441:7445   */\n      0x40\n        /* \"--CODEGEN--\":7477:7497   */\n      jump(tag_522)\n    tag_556:\n        /* \"--CODEGEN--\":7468:7497   */\n      swap1\n      pop\n        /* \"--CODEGEN--\":85:91   */\n      dup2\n        /* \"--CODEGEN--\":72:92   */\n      calldataload\n        /* \"--CODEGEN--\":97:130   */\n      tag_557\n        /* \"--CODEGEN--\":124:129   */\n      dup2\n        /* \"--CODEGEN--\":97:130   */\n      jump(tag_515)\n    tag_557:\n        /* \"--CODEGEN--\":7580:7629   */\n      dup1\n        /* \"--CODEGEN--\":7562:7578   */\n      dup3\n        /* \"--CODEGEN--\":7555:7630   */\n      mstore\n      pop\n        /* \"--CODEGEN--\":7693:7695   */\n      0x20\n        /* \"--CODEGEN--\":7751:7760   */\n      dup3\n        /* \"--CODEGEN--\":7747:7769   */\n      add\n        /* \"--CODEGEN--\":11256:11276   */\n      calldataload\n        /* \"--CODEGEN--\":7693:7695   */\n      0x20\n        /* \"--CODEGEN--\":7712:7717   */\n      dup3\n        /* \"--CODEGEN--\":7708:7724   */\n      add\n        /* \"--CODEGEN--\":7701:7776   */\n      mstore\n        /* \"--CODEGEN--\":7407:7797   */\n      swap3\n      swap2\n      pop\n      pop\n      jump\n        /* \"--CODEGEN--\":7836:8925   */\n    tag_558:\n      0x00\n        /* \"--CODEGEN--\":7949:7953   */\n      0xe0\n        /* \"--CODEGEN--\":7937:7946   */\n      dup3\n        /* \"--CODEGEN--\":7932:7935   */\n      dup5\n        /* \"--CODEGEN--\":7928:7947   */\n      sub\n        /* \"--CODEGEN--\":7924:7954   */\n      slt\n        /* \"--CODEGEN--\":7921:7923   */\n      iszero\n      tag_560\n      jumpi\n      dup1\n      dup2\n        /* \"--CODEGEN--\":7957:7969   */\n      revert\n        /* \"--CODEGEN--\":7921:7923   */\n    tag_560:\n        /* \"--CODEGEN--\":7985:8005   */\n      tag_561\n        /* \"--CODEGEN--\":8000:8004   */\n      0xa0\n        /* \"--CODEGEN--\":7985:8005   */\n      jump(tag_522)\n    tag_561:\n        /* \"--CODEGEN--\":7976:8005   */\n      swap1\n      pop\n        /* \"--CODEGEN--\":11269:11275   */\n      dup2\n        /* \"--CODEGEN--\":11256:11276   */\n      calldataload\n        /* \"--CODEGEN--\":8079:8095   */\n      dup2\n        /* \"--CODEGEN--\":8072:8147   */\n      mstore\n        /* \"--CODEGEN--\":8252:8329   */\n      tag_562\n        /* \"--CODEGEN--\":8325:8328   */\n      dup4\n        /* \"--CODEGEN--\":8219:8221   */\n      0x20\n        /* \"--CODEGEN--\":8305:8314   */\n      dup5\n        /* \"--CODEGEN--\":8301:8323   */\n      add\n        /* \"--CODEGEN--\":8252:8329   */\n      jump(tag_553)\n    tag_562:\n        /* \"--CODEGEN--\":8219:8221   */\n      0x20\n        /* \"--CODEGEN--\":8238:8243   */\n      dup3\n        /* \"--CODEGEN--\":8234:8250   */\n      add\n        /* \"--CODEGEN--\":8227:8330   */\n      mstore\n        /* \"--CODEGEN--\":8436:8513   */\n      tag_563\n        /* \"--CODEGEN--\":8509:8512   */\n      dup4\n        /* \"--CODEGEN--\":8403:8405   */\n      0x60\n        /* \"--CODEGEN--\":8489:8498   */\n      dup5\n        /* \"--CODEGEN--\":8485:8507   */\n      add\n        /* \"--CODEGEN--\":8436:8513   */\n      jump(tag_553)\n    tag_563:\n        /* \"--CODEGEN--\":8429:8433   */\n      0x40\n        /* \"--CODEGEN--\":8422:8427   */\n      dup3\n        /* \"--CODEGEN--\":8418:8434   */\n      add\n        /* \"--CODEGEN--\":8411:8514   */\n      mstore\n        /* \"--CODEGEN--\":8000:8004   */\n      0xa0\n        /* \"--CODEGEN--\":8638:8647   */\n      dup3\n        /* \"--CODEGEN--\":8634:8656   */\n      add\n        /* \"--CODEGEN--\":72:92   */\n      calldataload\n        /* \"--CODEGEN--\":97:130   */\n      tag_564\n        /* \"--CODEGEN--\":124:129   */\n      dup2\n        /* \"--CODEGEN--\":97:130   */\n      jump(tag_515)\n    tag_564:\n        /* \"--CODEGEN--\":8403:8405   */\n      0x60\n        /* \"--CODEGEN--\":8595:8611   */\n      dup3\n      add\n        /* \"--CODEGEN--\":8588:8663   */\n      mstore\n        /* \"--CODEGEN--\":8753:8756   */\n      0xc0\n        /* \"--CODEGEN--\":8738:8757   */\n      dup3\n      add\n        /* \"--CODEGEN--\":8725:8758   */\n      calldataload\n        /* \"--CODEGEN--\":8778:8796   */\n      0xffffffffffffffff\n        /* \"--CODEGEN--\":8767:8797   */\n      dup2\n      gt\n        /* \"--CODEGEN--\":8764:8766   */\n      iszero\n      tag_565\n      jumpi\n      0x00\n      dup1\n        /* \"--CODEGEN--\":8800:8812   */\n      revert\n        /* \"--CODEGEN--\":8764:8766   */\n    tag_565:\n        /* \"--CODEGEN--\":8845:8903   */\n      tag_566\n        /* \"--CODEGEN--\":8899:8902   */\n      dup5\n        /* \"--CODEGEN--\":8890:8896   */\n      dup3\n        /* \"--CODEGEN--\":8879:8888   */\n      dup6\n        /* \"--CODEGEN--\":8875:8897   */\n      add\n        /* \"--CODEGEN--\":8845:8903   */\n      jump(tag_531)\n    tag_566:\n        /* \"--CODEGEN--\":8838:8842   */\n      0x80\n        /* \"--CODEGEN--\":8831:8836   */\n      dup4\n        /* \"--CODEGEN--\":8827:8843   */\n      add\n        /* \"--CODEGEN--\":8820:8904   */\n      mstore\n      pop\n        /* \"--CODEGEN--\":7915:8925   */\n      swap3\n      swap2\n      pop\n      pop\n      jump\n        /* \"--CODEGEN--\":8967:9662   */\n    tag_567:\n      0x00\n        /* \"--CODEGEN--\":9083:9087   */\n      0x40\n        /* \"--CODEGEN--\":9071:9080   */\n      dup3\n        /* \"--CODEGEN--\":9066:9069   */\n      dup5\n        /* \"--CODEGEN--\":9062:9081   */\n      sub\n        /* \"--CODEGEN--\":9058:9088   */\n      slt\n        /* \"--CODEGEN--\":9055:9057   */\n      iszero\n      tag_569\n      jumpi\n      dup1\n      dup2\n        /* \"--CODEGEN--\":9091:9103   */\n      revert\n        /* \"--CODEGEN--\":9055:9057   */\n    tag_569:\n        /* \"--CODEGEN--\":9119:9139   */\n      tag_570\n        /* \"--CODEGEN--\":9083:9087   */\n      0x40\n        /* \"--CODEGEN--\":9119:9139   */\n      jump(tag_522)\n    tag_570:\n        /* \"--CODEGEN--\":9110:9139   */\n      swap1\n      pop\n        /* \"--CODEGEN--\":9205:9222   */\n      dup2\n        /* \"--CODEGEN--\":9192:9223   */\n      calldataload\n        /* \"--CODEGEN--\":9243:9261   */\n      0xffffffffffffffff\n      dup1\n        /* \"--CODEGEN--\":9235:9241   */\n      dup3\n        /* \"--CODEGEN--\":9232:9262   */\n      gt\n        /* \"--CODEGEN--\":9229:9231   */\n      iszero\n      tag_571\n      jumpi\n        /* \"--CODEGEN--\":9220:9221   */\n      0x00\n      dup1\n        /* \"--CODEGEN--\":9265:9277   */\n      revert\n        /* \"--CODEGEN--\":9229:9231   */\n    tag_571:\n        /* \"--CODEGEN--\":9371:9377   */\n      dup2\n        /* \"--CODEGEN--\":9360:9369   */\n      dup5\n        /* \"--CODEGEN--\":9356:9378   */\n      add\n        /* \"--CODEGEN--\":9816:9820   */\n      0xe0\n        /* \"--CODEGEN--\":9804:9813   */\n      dup2\n        /* \"--CODEGEN--\":9799:9802   */\n      dup8\n        /* \"--CODEGEN--\":9795:9814   */\n      sub\n        /* \"--CODEGEN--\":9791:9821   */\n      slt\n        /* \"--CODEGEN--\":9788:9790   */\n      iszero\n      tag_572\n      jumpi\n      0x00\n      dup1\n        /* \"--CODEGEN--\":9824:9836   */\n      revert\n        /* \"--CODEGEN--\":9788:9790   */\n    tag_572:\n        /* \"--CODEGEN--\":9852:9872   */\n      tag_573\n        /* \"--CODEGEN--\":9816:9820   */\n      0xe0\n        /* \"--CODEGEN--\":9852:9872   */\n      jump(tag_522)\n    tag_573:\n        /* \"--CODEGEN--\":9843:9872   */\n      swap3\n      pop\n        /* \"--CODEGEN--\":9976:9998   */\n      dup1\n        /* \"--CODEGEN--\":11256:11276   */\n      calldataload\n        /* \"--CODEGEN--\":9937:9953   */\n      dup4\n        /* \"--CODEGEN--\":9930:10005   */\n      mstore\n        /* \"--CODEGEN--\":10075:10077   */\n      0x20\n        /* \"--CODEGEN--\":10133:10142   */\n      dup2\n        /* \"--CODEGEN--\":10129:10151   */\n      add\n        /* \"--CODEGEN--\":11256:11276   */\n      calldataload\n        /* \"--CODEGEN--\":10075:10077   */\n      0x20\n        /* \"--CODEGEN--\":10094:10099   */\n      dup5\n        /* \"--CODEGEN--\":10090:10106   */\n      add\n        /* \"--CODEGEN--\":10083:10158   */\n      mstore\n        /* \"--CODEGEN--\":10257:10306   */\n      tag_574\n        /* \"--CODEGEN--\":10302:10305   */\n      dup7\n        /* \"--CODEGEN--\":9083:9087   */\n      0x40\n        /* \"--CODEGEN--\":10282:10291   */\n      dup4\n        /* \"--CODEGEN--\":10278:10300   */\n      add\n        /* \"--CODEGEN--\":10257:10306   */\n      jump(tag_512)\n    tag_574:\n        /* \"--CODEGEN--\":9083:9087   */\n      0x40\n        /* \"--CODEGEN--\":10243:10248   */\n      dup5\n        /* \"--CODEGEN--\":10239:10255   */\n      add\n        /* \"--CODEGEN--\":10232:10307   */\n      mstore\n        /* \"--CODEGEN--\":10405:10479   */\n      tag_575\n        /* \"--CODEGEN--\":10475:10478   */\n      dup7\n        /* \"--CODEGEN--\":10372:10374   */\n      0x60\n        /* \"--CODEGEN--\":10455:10464   */\n      dup4\n        /* \"--CODEGEN--\":10451:10473   */\n      add\n        /* \"--CODEGEN--\":10405:10479   */\n      jump(tag_512)\n    tag_575:\n        /* \"--CODEGEN--\":10372:10374   */\n      0x60\n        /* \"--CODEGEN--\":10391:10396   */\n      dup5\n        /* \"--CODEGEN--\":10387:10403   */\n      add\n        /* \"--CODEGEN--\":10380:10480   */\n      mstore\n        /* \"--CODEGEN--\":10572:10575   */\n      0x80\n        /* \"--CODEGEN--\":10561:10570   */\n      dup2\n        /* \"--CODEGEN--\":10557:10576   */\n      add\n        /* \"--CODEGEN--\":10544:10577   */\n      calldataload\n        /* \"--CODEGEN--\":9243:9261   */\n      dup3\n        /* \"--CODEGEN--\":10589:10595   */\n      dup2\n        /* \"--CODEGEN--\":10586:10616   */\n      gt\n        /* \"--CODEGEN--\":10583:10585   */\n      iszero\n      tag_576\n      jumpi\n      0x00\n      dup1\n        /* \"--CODEGEN--\":10619:10631   */\n      revert\n        /* \"--CODEGEN--\":10583:10585   */\n    tag_576:\n        /* \"--CODEGEN--\":10664:10762   */\n      tag_577\n        /* \"--CODEGEN--\":10758:10761   */\n      dup8\n        /* \"--CODEGEN--\":10749:10755   */\n      dup3\n        /* \"--CODEGEN--\":10738:10747   */\n      dup5\n        /* \"--CODEGEN--\":10734:10756   */\n      add\n        /* \"--CODEGEN--\":10664:10762   */\n      jump(tag_516)\n    tag_577:\n        /* \"--CODEGEN--\":10572:10575   */\n      0x80\n        /* \"--CODEGEN--\":10650:10655   */\n      dup6\n        /* \"--CODEGEN--\":10646:10662   */\n      add\n        /* \"--CODEGEN--\":10639:10763   */\n      mstore\n      pop\n        /* \"--CODEGEN--\":10836:10839   */\n      0xa0\n        /* \"--CODEGEN--\":10895:10904   */\n      dup2\n        /* \"--CODEGEN--\":10891:10913   */\n      add\n        /* \"--CODEGEN--\":2971:2991   */\n      calldataload\n        /* \"--CODEGEN--\":10836:10839   */\n      0xa0\n        /* \"--CODEGEN--\":10856:10861   */\n      dup5\n        /* \"--CODEGEN--\":10852:10868   */\n      add\n        /* \"--CODEGEN--\":10845:10920   */\n      mstore\n        /* \"--CODEGEN--\":11010:11013   */\n      0xc0\n        /* \"--CODEGEN--\":10999:11008   */\n      dup2\n        /* \"--CODEGEN--\":10995:11014   */\n      add\n        /* \"--CODEGEN--\":10982:11015   */\n      calldataload\n        /* \"--CODEGEN--\":9243:9261   */\n      dup3\n        /* \"--CODEGEN--\":11027:11033   */\n      dup2\n        /* \"--CODEGEN--\":11024:11054   */\n      gt\n        /* \"--CODEGEN--\":11021:11023   */\n      iszero\n      tag_578\n      jumpi\n      0x00\n      dup1\n        /* \"--CODEGEN--\":11057:11069   */\n      revert\n        /* \"--CODEGEN--\":11021:11023   */\n    tag_578:\n        /* \"--CODEGEN--\":11102:11160   */\n      tag_579\n        /* \"--CODEGEN--\":11156:11159   */\n      dup8\n        /* \"--CODEGEN--\":11147:11153   */\n      dup3\n        /* \"--CODEGEN--\":11136:11145   */\n      dup5\n        /* \"--CODEGEN--\":11132:11154   */\n      add\n        /* \"--CODEGEN--\":11102:11160   */\n      jump(tag_531)\n    tag_579:\n        /* \"--CODEGEN--\":11010:11013   */\n      0xc0\n        /* \"--CODEGEN--\":11084:11100   */\n      dup6\n      add\n        /* \"--CODEGEN--\":11077:11161   */\n      mstore\n      pop\n      pop\n        /* \"--CODEGEN--\":9285:9385   */\n      swap1\n      dup3\n      mstore\n        /* \"--CODEGEN--\":10075:10077   */\n      0x20\n        /* \"--CODEGEN--\":9461:9479   */\n      dup4\n      add\n        /* \"--CODEGEN--\":9448:9480   */\n      calldataload\n      swap1\n        /* \"--CODEGEN--\":9489:9519   */\n      dup1\n      dup3\n      gt\n        /* \"--CODEGEN--\":9486:9488   */\n      iszero\n      tag_580\n      jumpi\n      0x00\n      dup1\n        /* \"--CODEGEN--\":9522:9534   */\n      revert\n        /* \"--CODEGEN--\":9486:9488   */\n    tag_580:\n      pop\n        /* \"--CODEGEN--\":9567:9640   */\n      tag_581\n        /* \"--CODEGEN--\":9636:9639   */\n      dup5\n        /* \"--CODEGEN--\":9627:9633   */\n      dup3\n        /* \"--CODEGEN--\":9616:9625   */\n      dup6\n        /* \"--CODEGEN--\":9612:9634   */\n      add\n        /* \"--CODEGEN--\":9567:9640   */\n      jump(tag_558)\n    tag_581:\n        /* \"--CODEGEN--\":10075:10077   */\n      0x20\n        /* \"--CODEGEN--\":9553:9558   */\n      dup4\n        /* \"--CODEGEN--\":9549:9565   */\n      add\n        /* \"--CODEGEN--\":9542:9641   */\n      mstore\n      pop\n        /* \"--CODEGEN--\":9049:9662   */\n      swap3\n      swap2\n      pop\n      pop\n      jump\n        /* \"--CODEGEN--\":11467:12030   */\n    tag_302:\n      0x00\n      dup1\n      0x00\n        /* \"--CODEGEN--\":11630:11632   */\n      0x60\n        /* \"--CODEGEN--\":11618:11627   */\n      dup5\n        /* \"--CODEGEN--\":11609:11616   */\n      dup7\n        /* \"--CODEGEN--\":11605:11628   */\n      sub\n        /* \"--CODEGEN--\":11601:11633   */\n      slt\n        /* \"--CODEGEN--\":11598:11600   */\n      iszero\n      tag_583\n      jumpi\n      dup3\n      dup4\n        /* \"--CODEGEN--\":11636:11648   */\n      revert\n        /* \"--CODEGEN--\":11598:11600   */\n    tag_583:\n        /* \"--CODEGEN--\":226:232   */\n      dup4\n        /* \"--CODEGEN--\":220:233   */\n      mload\n        /* \"--CODEGEN--\":238:271   */\n      tag_584\n        /* \"--CODEGEN--\":265:270   */\n      dup2\n        /* \"--CODEGEN--\":238:271   */\n      jump(tag_515)\n    tag_584:\n        /* \"--CODEGEN--\":11799:11801   */\n      0x20\n        /* \"--CODEGEN--\":11863:11885   */\n      dup6\n      add\n        /* \"--CODEGEN--\":4667:4680   */\n      mload\n        /* \"--CODEGEN--\":11688:11762   */\n      swap1\n      swap4\n      pop\n        /* \"--CODEGEN--\":4685:4732   */\n      tag_585\n        /* \"--CODEGEN--\":4667:4680   */\n      dup2\n        /* \"--CODEGEN--\":4685:4732   */\n      jump(tag_515)\n    tag_585:\n        /* \"--CODEGEN--\":11807:11895   */\n      dup1\n      swap3\n      pop\n      pop\n        /* \"--CODEGEN--\":11932:11934   */\n      0x40\n        /* \"--CODEGEN--\":11986:11995   */\n      dup5\n        /* \"--CODEGEN--\":11982:12004   */\n      add\n        /* \"--CODEGEN--\":11404:11417   */\n      mload\n        /* \"--CODEGEN--\":11940:12014   */\n      swap1\n      pop\n        /* \"--CODEGEN--\":11592:12030   */\n      swap3\n      pop\n      swap3\n      pop\n      swap3\n      jump\n        /* \"--CODEGEN--\":12037:12537   */\n    tag_87:\n      0x00\n      dup1\n        /* \"--CODEGEN--\":12182:12184   */\n      0x40\n        /* \"--CODEGEN--\":12170:12179   */\n      dup4\n        /* \"--CODEGEN--\":12161:12168   */\n      dup6\n        /* \"--CODEGEN--\":12157:12180   */\n      sub\n        /* \"--CODEGEN--\":12153:12185   */\n      slt\n        /* \"--CODEGEN--\":12150:12152   */\n      iszero\n      tag_587\n      jumpi\n      dup2\n      dup3\n        /* \"--CODEGEN--\":12188:12200   */\n      revert\n        /* \"--CODEGEN--\":12150:12152   */\n    tag_587:\n        /* \"--CODEGEN--\":85:91   */\n      dup3\n        /* \"--CODEGEN--\":72:92   */\n      calldataload\n        /* \"--CODEGEN--\":97:130   */\n      tag_588\n        /* \"--CODEGEN--\":124:129   */\n      dup2\n        /* \"--CODEGEN--\":97:130   */\n      jump(tag_515)\n    tag_588:\n        /* \"--CODEGEN--\":12240:12303   */\n      swap2\n      pop\n        /* \"--CODEGEN--\":12368:12370   */\n      0x20\n        /* \"--CODEGEN--\":12353:12371   */\n      dup4\n      add\n        /* \"--CODEGEN--\":12340:12372   */\n      calldataload\n        /* \"--CODEGEN--\":12392:12410   */\n      0xffffffffffffffff\n        /* \"--CODEGEN--\":12381:12411   */\n      dup2\n      gt\n        /* \"--CODEGEN--\":12378:12380   */\n      iszero\n      tag_589\n      jumpi\n      dup2\n      dup3\n        /* \"--CODEGEN--\":12414:12426   */\n      revert\n        /* \"--CODEGEN--\":12378:12380   */\n    tag_589:\n        /* \"--CODEGEN--\":12444:12521   */\n      tag_590\n        /* \"--CODEGEN--\":12513:12520   */\n      dup6\n        /* \"--CODEGEN--\":12504:12510   */\n      dup3\n        /* \"--CODEGEN--\":12493:12502   */\n      dup7\n        /* \"--CODEGEN--\":12489:12511   */\n      add\n        /* \"--CODEGEN--\":12444:12521   */\n      jump(tag_558)\n    tag_590:\n        /* \"--CODEGEN--\":12434:12521   */\n      swap2\n      pop\n      pop\n        /* \"--CODEGEN--\":12144:12537   */\n      swap3\n      pop\n      swap3\n      swap1\n      pop\n      jump\n        /* \"--CODEGEN--\":12544:12971   */\n    tag_50:\n      0x00\n        /* \"--CODEGEN--\":12698:12700   */\n      0x20\n      dup1\n        /* \"--CODEGEN--\":12686:12695   */\n      dup4\n        /* \"--CODEGEN--\":12677:12684   */\n      dup6\n        /* \"--CODEGEN--\":12673:12696   */\n      sub\n        /* \"--CODEGEN--\":12669:12701   */\n      slt\n        /* \"--CODEGEN--\":12666:12668   */\n      iszero\n      tag_592\n      jumpi\n      dup2\n      dup3\n        /* \"--CODEGEN--\":12704:12716   */\n      revert\n        /* \"--CODEGEN--\":12666:12668   */\n    tag_592:\n        /* \"--CODEGEN--\":12762:12779   */\n      dup3\n        /* \"--CODEGEN--\":12749:12780   */\n      calldataload\n        /* \"--CODEGEN--\":12800:12818   */\n      0xffffffffffffffff\n        /* \"--CODEGEN--\":12792:12798   */\n      dup2\n        /* \"--CODEGEN--\":12789:12819   */\n      gt\n        /* \"--CODEGEN--\":12786:12788   */\n      iszero\n      tag_593\n      jumpi\n      dup3\n      dup4\n        /* \"--CODEGEN--\":12822:12834   */\n      revert\n        /* \"--CODEGEN--\":12786:12788   */\n    tag_593:\n        /* \"--CODEGEN--\":12938:12944   */\n      dup1\n        /* \"--CODEGEN--\":12927:12936   */\n      dup5\n        /* \"--CODEGEN--\":12923:12945   */\n      add\n        /* \"--CODEGEN--\":1990:1993   */\n      dup6\n        /* \"--CODEGEN--\":1983:1987   */\n      0x1f\n        /* \"--CODEGEN--\":1975:1981   */\n      dup3\n        /* \"--CODEGEN--\":1971:1988   */\n      add\n        /* \"--CODEGEN--\":1967:1994   */\n      slt\n        /* \"--CODEGEN--\":1957:1959   */\n      tag_594\n      jumpi\n      dup4\n      dup5\n        /* \"--CODEGEN--\":1998:2010   */\n      revert\n        /* \"--CODEGEN--\":1957:1959   */\n    tag_594:\n        /* \"--CODEGEN--\":2045:2051   */\n      dup1\n        /* \"--CODEGEN--\":2032:2052   */\n      calldataload\n        /* \"--CODEGEN--\":2018:2052   */\n      swap2\n      pop\n        /* \"--CODEGEN--\":2067:2172   */\n      tag_595\n        /* \"--CODEGEN--\":2082:2171   */\n      tag_520\n        /* \"--CODEGEN--\":2164:2170   */\n      dup4\n        /* \"--CODEGEN--\":2082:2171   */\n      jump(tag_521)\n        /* \"--CODEGEN--\":2067:2172   */\n    tag_595:\n        /* \"--CODEGEN--\":2200:2221   */\n      dup3\n      dup2\n      mstore\n        /* \"--CODEGEN--\":2257:2271   */\n      dup4\n      dup2\n      add\n      swap1\n        /* \"--CODEGEN--\":2232:2249   */\n      dup3\n      dup6\n      add\n        /* \"--CODEGEN--\":2358:2362   */\n      0x60\n        /* \"--CODEGEN--\":2346:2363   */\n      dup1\n      dup7\n      mul\n        /* \"--CODEGEN--\":2337:2364   */\n      dup6\n      add\n      dup8\n      add\n        /* \"--CODEGEN--\":2334:2370   */\n      dup11\n      lt\n        /* \"--CODEGEN--\":2331:2333   */\n      iszero\n      tag_597\n      jumpi\n      dup8\n      dup9\n        /* \"--CODEGEN--\":2373:2385   */\n      revert\n        /* \"--CODEGEN--\":2331:2333   */\n    tag_597:\n      dup8\n        /* \"--CODEGEN--\":2399:2409   */\n      swap5\n      pop\n        /* \"--CODEGEN--\":2393:2624   */\n    tag_598:\n        /* \"--CODEGEN--\":2418:2424   */\n      dup6\n        /* \"--CODEGEN--\":2415:2416   */\n      dup6\n        /* \"--CODEGEN--\":2412:2425   */\n      lt\n        /* \"--CODEGEN--\":2393:2624   */\n      iszero\n      tag_600\n      jumpi\n        /* \"--CODEGEN--\":2498:2560   */\n      tag_601\n        /* \"--CODEGEN--\":2556:2559   */\n      dup11\n        /* \"--CODEGEN--\":2544:2554   */\n      dup4\n        /* \"--CODEGEN--\":2498:2560   */\n      jump(tag_546)\n    tag_601:\n        /* \"--CODEGEN--\":2486:2561   */\n      dup5\n      mstore\n        /* \"--CODEGEN--\":2440:2441   */\n      0x01\n        /* \"--CODEGEN--\":2433:2442   */\n      swap5\n      swap1\n      swap5\n      add\n      swap4\n        /* \"--CODEGEN--\":2575:2589   */\n      swap3\n      dup7\n      add\n      swap3\n        /* \"--CODEGEN--\":2603:2617   */\n      swap1\n      dup2\n      add\n      swap1\n        /* \"--CODEGEN--\":2393:2624   */\n      jump(tag_598)\n    tag_600:\n      pop\n        /* \"--CODEGEN--\":12842:12955   */\n      swap1\n      swap9\n        /* \"--CODEGEN--\":12660:12971   */\n      swap8\n      pop\n      pop\n      pop\n      pop\n      pop\n      pop\n      pop\n      pop\n      jump\n        /* \"--CODEGEN--\":12978:13235   */\n    tag_169:\n      0x00\n        /* \"--CODEGEN--\":13090:13092   */\n      0x20\n        /* \"--CODEGEN--\":13078:13087   */\n      dup3\n        /* \"--CODEGEN--\":13069:13076   */\n      dup5\n        /* \"--CODEGEN--\":13065:13088   */\n      sub\n        /* \"--CODEGEN--\":13061:13093   */\n      slt\n        /* \"--CODEGEN--\":13058:13060   */\n      iszero\n      tag_603\n      jumpi\n      dup1\n      dup2\n        /* \"--CODEGEN--\":13096:13108   */\n      revert\n        /* \"--CODEGEN--\":13058:13060   */\n    tag_603:\n        /* \"--CODEGEN--\":2850:2856   */\n      dup2\n        /* \"--CODEGEN--\":2844:2857   */\n      mload\n        /* \"--CODEGEN--\":2862:2892   */\n      tag_160\n        /* \"--CODEGEN--\":2886:2891   */\n      dup2\n        /* \"--CODEGEN--\":2862:2892   */\n      jump(tag_605)\n        /* \"--CODEGEN--\":13242:13483   */\n    tag_102:\n      0x00\n        /* \"--CODEGEN--\":13346:13348   */\n      0x20\n        /* \"--CODEGEN--\":13334:13343   */\n      dup3\n        /* \"--CODEGEN--\":13325:13332   */\n      dup5\n        /* \"--CODEGEN--\":13321:13344   */\n      sub\n        /* \"--CODEGEN--\":13317:13349   */\n      slt\n        /* \"--CODEGEN--\":13314:13316   */\n      iszero\n      tag_607\n      jumpi\n      dup1\n      dup2\n        /* \"--CODEGEN--\":13352:13364   */\n      revert\n        /* \"--CODEGEN--\":13314:13316   */\n    tag_607:\n      pop\n        /* \"--CODEGEN--\":2971:2991   */\n      calldataload\n      swap2\n        /* \"--CODEGEN--\":13308:13483   */\n      swap1\n      pop\n      jump\n        /* \"--CODEGEN--\":13490:14036   */\n    tag_443:\n      0x00\n      dup1\n        /* \"--CODEGEN--\":13656:13658   */\n      0x40\n        /* \"--CODEGEN--\":13644:13653   */\n      dup4\n        /* \"--CODEGEN--\":13635:13642   */\n      dup6\n        /* \"--CODEGEN--\":13631:13654   */\n      sub\n        /* \"--CODEGEN--\":13627:13659   */\n      slt\n        /* \"--CODEGEN--\":13624:13626   */\n      iszero\n      tag_609\n      jumpi\n      dup2\n      dup3\n        /* \"--CODEGEN--\":13662:13674   */\n      revert\n        /* \"--CODEGEN--\":13624:13626   */\n    tag_609:\n        /* \"--CODEGEN--\":3125:3131   */\n      dup3\n        /* \"--CODEGEN--\":3119:3132   */\n      mload\n        /* \"--CODEGEN--\":13714:13788   */\n      swap2\n      pop\n        /* \"--CODEGEN--\":13846:13848   */\n      0x20\n      dup1\n        /* \"--CODEGEN--\":13835:13844   */\n      dup5\n        /* \"--CODEGEN--\":13831:13849   */\n      add\n        /* \"--CODEGEN--\":13825:13850   */\n      mload\n        /* \"--CODEGEN--\":13870:13888   */\n      0xffffffffffffffff\n        /* \"--CODEGEN--\":13862:13868   */\n      dup2\n        /* \"--CODEGEN--\":13859:13889   */\n      gt\n        /* \"--CODEGEN--\":13856:13858   */\n      iszero\n      tag_610\n      jumpi\n      dup3\n      dup4\n        /* \"--CODEGEN--\":13892:13904   */\n      revert\n        /* \"--CODEGEN--\":13856:13858   */\n    tag_610:\n        /* \"--CODEGEN--\":14003:14009   */\n      dup1\n        /* \"--CODEGEN--\":13992:14001   */\n      dup6\n        /* \"--CODEGEN--\":13988:14010   */\n      add\n        /* \"--CODEGEN--\":436:439   */\n      dup7\n        /* \"--CODEGEN--\":429:433   */\n      0x1f\n        /* \"--CODEGEN--\":421:427   */\n      dup3\n        /* \"--CODEGEN--\":417:434   */\n      add\n        /* \"--CODEGEN--\":413:440   */\n      slt\n        /* \"--CODEGEN--\":403:405   */\n      tag_611\n      jumpi\n      dup4\n      dup5\n        /* \"--CODEGEN--\":444:456   */\n      revert\n        /* \"--CODEGEN--\":403:405   */\n    tag_611:\n        /* \"--CODEGEN--\":484:490   */\n      dup1\n        /* \"--CODEGEN--\":478:491   */\n      mload\n        /* \"--CODEGEN--\":464:491   */\n      swap2\n      pop\n        /* \"--CODEGEN--\":506:595   */\n      tag_612\n        /* \"--CODEGEN--\":521:594   */\n      tag_520\n        /* \"--CODEGEN--\":587:593   */\n      dup4\n        /* \"--CODEGEN--\":521:594   */\n      jump(tag_521)\n        /* \"--CODEGEN--\":506:595   */\n    tag_612:\n        /* \"--CODEGEN--\":623:644   */\n      dup3\n      dup2\n      mstore\n        /* \"--CODEGEN--\":680:694   */\n      dup4\n      dup2\n      add\n      swap1\n        /* \"--CODEGEN--\":655:672   */\n      dup3\n      dup6\n      add\n      dup7\n        /* \"--CODEGEN--\":760:1006   */\n    tag_614:\n        /* \"--CODEGEN--\":785:791   */\n      dup6\n        /* \"--CODEGEN--\":782:783   */\n      dup2\n        /* \"--CODEGEN--\":779:792   */\n      lt\n        /* \"--CODEGEN--\":760:1006   */\n      iszero\n      tag_616\n      jumpi\n        /* \"--CODEGEN--\":885:942   */\n      tag_617\n        /* \"--CODEGEN--\":938:941   */\n      dup12\n        /* \"--CODEGEN--\":13846:13848   */\n      dup9\n        /* \"--CODEGEN--\":861:864   */\n      dup5\n        /* \"--CODEGEN--\":855:865   */\n      mload\n        /* \"--CODEGEN--\":659:665   */\n      dup9\n        /* \"--CODEGEN--\":843:866   */\n      add\n      add\n        /* \"--CODEGEN--\":885:942   */\n      jump(tag_538)\n    tag_617:\n        /* \"--CODEGEN--\":873:943   */\n      dup5\n      mstore\n        /* \"--CODEGEN--\":957:971   */\n      swap3\n      dup7\n      add\n      swap3\n        /* \"--CODEGEN--\":985:999   */\n      swap1\n      dup7\n      add\n      swap1\n        /* \"--CODEGEN--\":807:808   */\n      0x01\n        /* \"--CODEGEN--\":800:809   */\n      add\n        /* \"--CODEGEN--\":760:1006   */\n      jump(tag_614)\n    tag_616:\n      pop\n        /* \"--CODEGEN--\":13618:14036   */\n      swap7\n      swap10\n        /* \"--CODEGEN--\":13912:14020   */\n      swap1\n      swap9\n      pop\n        /* \"--CODEGEN--\":13618:14036   */\n      swap7\n      pop\n      pop\n      pop\n      pop\n      pop\n      pop\n      pop\n      jump\n        /* \"--CODEGEN--\":14043:14513   */\n    tag_141:\n      0x00\n      dup1\n        /* \"--CODEGEN--\":14173:14175   */\n      0x40\n        /* \"--CODEGEN--\":14161:14170   */\n      dup4\n        /* \"--CODEGEN--\":14152:14159   */\n      dup6\n        /* \"--CODEGEN--\":14148:14171   */\n      sub\n        /* \"--CODEGEN--\":14144:14176   */\n      slt\n        /* \"--CODEGEN--\":14141:14143   */\n      iszero\n      tag_619\n      jumpi\n      dup2\n      dup3\n        /* \"--CODEGEN--\":14179:14191   */\n      revert\n        /* \"--CODEGEN--\":14141:14143   */\n    tag_619:\n        /* \"--CODEGEN--\":2984:2990   */\n      dup3\n        /* \"--CODEGEN--\":2971:2991   */\n      calldataload\n        /* \"--CODEGEN--\":14231:14294   */\n      swap2\n      pop\n        /* \"--CODEGEN--\":14359:14361   */\n      0x20\n        /* \"--CODEGEN--\":14348:14357   */\n      dup4\n        /* \"--CODEGEN--\":14344:14362   */\n      add\n        /* \"--CODEGEN--\":14331:14363   */\n      calldataload\n        /* \"--CODEGEN--\":14383:14401   */\n      0xffffffffffffffff\n        /* \"--CODEGEN--\":14375:14381   */\n      dup2\n        /* \"--CODEGEN--\":14372:14402   */\n      gt\n        /* \"--CODEGEN--\":14369:14371   */\n      iszero\n      tag_620\n      jumpi\n      dup2\n      dup3\n        /* \"--CODEGEN--\":14405:14417   */\n      revert\n        /* \"--CODEGEN--\":14369:14371   */\n    tag_620:\n        /* \"--CODEGEN--\":14435:14497   */\n      tag_590\n        /* \"--CODEGEN--\":14489:14496   */\n      dup6\n        /* \"--CODEGEN--\":14480:14486   */\n      dup3\n        /* \"--CODEGEN--\":14469:14478   */\n      dup7\n        /* \"--CODEGEN--\":14465:14487   */\n      add\n        /* \"--CODEGEN--\":14435:14497   */\n      jump(tag_531)\n        /* \"--CODEGEN--\":14520:14759   */\n    tag_39:\n      0x00\n        /* \"--CODEGEN--\":14623:14625   */\n      0x20\n        /* \"--CODEGEN--\":14611:14620   */\n      dup3\n        /* \"--CODEGEN--\":14602:14609   */\n      dup5\n        /* \"--CODEGEN--\":14598:14621   */\n      sub\n        /* \"--CODEGEN--\":14594:14626   */\n      slt\n        /* \"--CODEGEN--\":14591:14593   */\n      iszero\n      tag_623\n      jumpi\n      dup1\n      dup2\n        /* \"--CODEGEN--\":14629:14641   */\n      revert\n        /* \"--CODEGEN--\":14591:14593   */\n    tag_623:\n        /* \"--CODEGEN--\":3261:3267   */\n      dup2\n        /* \"--CODEGEN--\":3248:3268   */\n      calldataload\n        /* \"--CODEGEN--\":3273:3305   */\n      tag_160\n        /* \"--CODEGEN--\":3299:3304   */\n      dup2\n        /* \"--CODEGEN--\":3273:3305   */\n      jump(tag_625)\n        /* \"--CODEGEN--\":14766:15130   */\n    tag_83:\n      0x00\n      dup1\n        /* \"--CODEGEN--\":14886:14888   */\n      0x40\n        /* \"--CODEGEN--\":14874:14883   */\n      dup4\n        /* \"--CODEGEN--\":14865:14872   */\n      dup6\n        /* \"--CODEGEN--\":14861:14884   */\n      sub\n        /* \"--CODEGEN--\":14857:14889   */\n      slt\n        /* \"--CODEGEN--\":14854:14856   */\n      iszero\n      tag_627\n      jumpi\n      dup2\n      dup3\n        /* \"--CODEGEN--\":14892:14904   */\n      revert\n        /* \"--CODEGEN--\":14854:14856   */\n    tag_627:\n        /* \"--CODEGEN--\":3261:3267   */\n      dup3\n        /* \"--CODEGEN--\":3248:3268   */\n      calldataload\n        /* \"--CODEGEN--\":3273:3305   */\n      tag_628\n        /* \"--CODEGEN--\":3299:3304   */\n      dup2\n        /* \"--CODEGEN--\":3273:3305   */\n      jump(tag_625)\n    tag_628:\n        /* \"--CODEGEN--\":14944:15006   */\n      swap2\n      pop\n        /* \"--CODEGEN--\":15043:15045   */\n      0x20\n        /* \"--CODEGEN--\":15082:15104   */\n      dup4\n      add\n        /* \"--CODEGEN--\":72:92   */\n      calldataload\n        /* \"--CODEGEN--\":97:130   */\n      tag_629\n        /* \"--CODEGEN--\":72:92   */\n      dup2\n        /* \"--CODEGEN--\":97:130   */\n      jump(tag_515)\n    tag_629:\n        /* \"--CODEGEN--\":15051:15114   */\n      dup1\n      swap2\n      pop\n      pop\n        /* \"--CODEGEN--\":14848:15130   */\n      swap3\n      pop\n      swap3\n      swap1\n      pop\n      jump\n        /* \"--CODEGEN--\":15137:15730   */\n    tag_45:\n      0x00\n      dup1\n      0x00\n        /* \"--CODEGEN--\":15283:15285   */\n      0x60\n        /* \"--CODEGEN--\":15271:15280   */\n      dup5\n        /* \"--CODEGEN--\":15262:15269   */\n      dup7\n        /* \"--CODEGEN--\":15258:15281   */\n      sub\n        /* \"--CODEGEN--\":15254:15286   */\n      slt\n        /* \"--CODEGEN--\":15251:15253   */\n      iszero\n      tag_631\n      jumpi\n      dup1\n      dup2\n        /* \"--CODEGEN--\":15289:15301   */\n      revert\n        /* \"--CODEGEN--\":15251:15253   */\n    tag_631:\n        /* \"--CODEGEN--\":3261:3267   */\n      dup4\n        /* \"--CODEGEN--\":3248:3268   */\n      calldataload\n        /* \"--CODEGEN--\":3273:3305   */\n      tag_632\n        /* \"--CODEGEN--\":3299:3304   */\n      dup2\n        /* \"--CODEGEN--\":3273:3305   */\n      jump(tag_625)\n    tag_632:\n        /* \"--CODEGEN--\":15341:15403   */\n      swap3\n      pop\n        /* \"--CODEGEN--\":15440:15442   */\n      0x20\n        /* \"--CODEGEN--\":15479:15501   */\n      dup5\n      add\n        /* \"--CODEGEN--\":72:92   */\n      calldataload\n        /* \"--CODEGEN--\":97:130   */\n      tag_633\n        /* \"--CODEGEN--\":72:92   */\n      dup2\n        /* \"--CODEGEN--\":97:130   */\n      jump(tag_515)\n    tag_633:\n        /* \"--CODEGEN--\":15448:15511   */\n      swap2\n      pop\n        /* \"--CODEGEN--\":15576:15578   */\n      0x40\n        /* \"--CODEGEN--\":15561:15579   */\n      dup5\n      add\n        /* \"--CODEGEN--\":15548:15580   */\n      calldataload\n        /* \"--CODEGEN--\":15600:15618   */\n      0xffffffffffffffff\n        /* \"--CODEGEN--\":15589:15619   */\n      dup2\n      gt\n        /* \"--CODEGEN--\":15586:15588   */\n      iszero\n      tag_634\n      jumpi\n      dup2\n      dup3\n        /* \"--CODEGEN--\":15622:15634   */\n      revert\n        /* \"--CODEGEN--\":15586:15588   */\n    tag_634:\n        /* \"--CODEGEN--\":15652:15714   */\n      tag_635\n        /* \"--CODEGEN--\":15706:15713   */\n      dup7\n        /* \"--CODEGEN--\":15697:15703   */\n      dup3\n        /* \"--CODEGEN--\":15686:15695   */\n      dup8\n        /* \"--CODEGEN--\":15682:15704   */\n      add\n        /* \"--CODEGEN--\":15652:15714   */\n      jump(tag_531)\n    tag_635:\n        /* \"--CODEGEN--\":15642:15714   */\n      swap2\n      pop\n      pop\n        /* \"--CODEGEN--\":15245:15730   */\n      swap3\n      pop\n      swap3\n      pop\n      swap3\n      jump\n        /* \"--CODEGEN--\":15737:16264   */\n    tag_124:\n      0x00\n      dup1\n      0x00\n        /* \"--CODEGEN--\":15893:15895   */\n      0x60\n        /* \"--CODEGEN--\":15881:15890   */\n      dup5\n        /* \"--CODEGEN--\":15872:15879   */\n      dup7\n        /* \"--CODEGEN--\":15868:15891   */\n      sub\n        /* \"--CODEGEN--\":15864:15896   */\n      slt\n        /* \"--CODEGEN--\":15861:15863   */\n      iszero\n      tag_637\n      jumpi\n      dup1\n      dup2\n        /* \"--CODEGEN--\":15899:15911   */\n      revert\n        /* \"--CODEGEN--\":15861:15863   */\n    tag_637:\n        /* \"--CODEGEN--\":3261:3267   */\n      dup4\n        /* \"--CODEGEN--\":3248:3268   */\n      calldataload\n        /* \"--CODEGEN--\":3273:3305   */\n      tag_638\n        /* \"--CODEGEN--\":3299:3304   */\n      dup2\n        /* \"--CODEGEN--\":3273:3305   */\n      jump(tag_625)\n    tag_638:\n        /* \"--CODEGEN--\":15951:16013   */\n      swap3\n      pop\n        /* \"--CODEGEN--\":16050:16052   */\n      0x20\n        /* \"--CODEGEN--\":16089:16111   */\n      dup5\n      add\n        /* \"--CODEGEN--\":72:92   */\n      calldataload\n        /* \"--CODEGEN--\":97:130   */\n      tag_639\n        /* \"--CODEGEN--\":72:92   */\n      dup2\n        /* \"--CODEGEN--\":97:130   */\n      jump(tag_515)\n    tag_639:\n        /* \"--CODEGEN--\":16058:16121   */\n      swap2\n      pop\n        /* \"--CODEGEN--\":16158:16160   */\n      0x40\n        /* \"--CODEGEN--\":16216:16238   */\n      dup5\n      add\n        /* \"--CODEGEN--\":4830:4850   */\n      calldataload\n        /* \"--CODEGEN--\":4855:4907   */\n      tag_640\n        /* \"--CODEGEN--\":4830:4850   */\n      dup2\n        /* \"--CODEGEN--\":4855:4907   */\n      jump(tag_515)\n    tag_640:\n        /* \"--CODEGEN--\":16166:16248   */\n      dup1\n      swap2\n      pop\n      pop\n        /* \"--CODEGEN--\":15855:16264   */\n      swap3\n      pop\n      swap3\n      pop\n      swap3\n      jump\n        /* \"--CODEGEN--\":16271:16677   */\n    tag_69:\n      0x00\n      dup1\n        /* \"--CODEGEN--\":16412:16414   */\n      0x40\n        /* \"--CODEGEN--\":16400:16409   */\n      dup4\n        /* \"--CODEGEN--\":16391:16398   */\n      dup6\n        /* \"--CODEGEN--\":16387:16410   */\n      sub\n        /* \"--CODEGEN--\":16383:16415   */\n      slt\n        /* \"--CODEGEN--\":16380:16382   */\n      iszero\n      tag_642\n      jumpi\n      dup2\n      dup3\n        /* \"--CODEGEN--\":16418:16430   */\n      revert\n        /* \"--CODEGEN--\":16380:16382   */\n    tag_642:\n        /* \"--CODEGEN--\":5019:5025   */\n      dup3\n        /* \"--CODEGEN--\":5006:5026   */\n      calldataload\n        /* \"--CODEGEN--\":5031:5084   */\n      tag_643\n        /* \"--CODEGEN--\":5078:5083   */\n      dup2\n        /* \"--CODEGEN--\":5031:5084   */\n      jump(tag_515)\n    tag_643:\n        /* \"--CODEGEN--\":16470:16553   */\n      swap5\n        /* \"--CODEGEN--\":16590:16592   */\n      0x20\n        /* \"--CODEGEN--\":16629:16651   */\n      swap4\n      swap1\n      swap4\n      add\n        /* \"--CODEGEN--\":11256:11276   */\n      calldataload\n      swap4\n      pop\n      pop\n      pop\n        /* \"--CODEGEN--\":16374:16677   */\n      jump\n        /* \"--CODEGEN--\":16684:17031   */\n    tag_149:\n      0x00\n        /* \"--CODEGEN--\":16798:16800   */\n      0x20\n        /* \"--CODEGEN--\":16786:16795   */\n      dup3\n        /* \"--CODEGEN--\":16777:16784   */\n      dup5\n        /* \"--CODEGEN--\":16773:16796   */\n      sub\n        /* \"--CODEGEN--\":16769:16801   */\n      slt\n        /* \"--CODEGEN--\":16766:16768   */\n      iszero\n      tag_645\n      jumpi\n      dup1\n      dup2\n        /* \"--CODEGEN--\":16804:16816   */\n      revert\n        /* \"--CODEGEN--\":16766:16768   */\n    tag_645:\n        /* \"--CODEGEN--\":16862:16879   */\n      dup2\n        /* \"--CODEGEN--\":16849:16880   */\n      calldataload\n        /* \"--CODEGEN--\":16900:16918   */\n      0xffffffffffffffff\n        /* \"--CODEGEN--\":16892:16898   */\n      dup2\n        /* \"--CODEGEN--\":16889:16919   */\n      gt\n        /* \"--CODEGEN--\":16886:16888   */\n      iszero\n      tag_646\n      jumpi\n      dup2\n      dup3\n        /* \"--CODEGEN--\":16922:16934   */\n      revert\n        /* \"--CODEGEN--\":16886:16888   */\n    tag_646:\n        /* \"--CODEGEN--\":16952:17015   */\n      tag_464\n        /* \"--CODEGEN--\":17007:17014   */\n      dup5\n        /* \"--CODEGEN--\":16998:17004   */\n      dup3\n        /* \"--CODEGEN--\":16987:16996   */\n      dup6\n        /* \"--CODEGEN--\":16983:17005   */\n      add\n        /* \"--CODEGEN--\":16952:17015   */\n      jump(tag_531)\n        /* \"--CODEGEN--\":17038:17413   */\n    tag_97:\n      0x00\n        /* \"--CODEGEN--\":17166:17168   */\n      0x20\n        /* \"--CODEGEN--\":17154:17163   */\n      dup3\n        /* \"--CODEGEN--\":17145:17152   */\n      dup5\n        /* \"--CODEGEN--\":17141:17164   */\n      sub\n        /* \"--CODEGEN--\":17137:17169   */\n      slt\n        /* \"--CODEGEN--\":17134:17136   */\n      iszero\n      tag_649\n      jumpi\n      dup1\n      dup2\n        /* \"--CODEGEN--\":17172:17184   */\n      revert\n        /* \"--CODEGEN--\":17134:17136   */\n    tag_649:\n        /* \"--CODEGEN--\":17230:17247   */\n      dup2\n        /* \"--CODEGEN--\":17217:17248   */\n      calldataload\n        /* \"--CODEGEN--\":17268:17286   */\n      0xffffffffffffffff\n        /* \"--CODEGEN--\":17260:17266   */\n      dup2\n        /* \"--CODEGEN--\":17257:17287   */\n      gt\n        /* \"--CODEGEN--\":17254:17256   */\n      iszero\n      tag_650\n      jumpi\n      dup2\n      dup3\n        /* \"--CODEGEN--\":17290:17302   */\n      revert\n        /* \"--CODEGEN--\":17254:17256   */\n    tag_650:\n        /* \"--CODEGEN--\":17320:17397   */\n      tag_464\n        /* \"--CODEGEN--\":17389:17396   */\n      dup5\n        /* \"--CODEGEN--\":17380:17386   */\n      dup3\n        /* \"--CODEGEN--\":17369:17378   */\n      dup6\n        /* \"--CODEGEN--\":17365:17387   */\n      add\n        /* \"--CODEGEN--\":17320:17397   */\n      jump(tag_558)\n        /* \"--CODEGEN--\":17420:17801   */\n    tag_64:\n      0x00\n        /* \"--CODEGEN--\":17551:17553   */\n      0x20\n        /* \"--CODEGEN--\":17539:17548   */\n      dup3\n        /* \"--CODEGEN--\":17530:17537   */\n      dup5\n        /* \"--CODEGEN--\":17526:17549   */\n      sub\n        /* \"--CODEGEN--\":17522:17554   */\n      slt\n        /* \"--CODEGEN--\":17519:17521   */\n      iszero\n      tag_653\n      jumpi\n      dup1\n      dup2\n        /* \"--CODEGEN--\":17557:17569   */\n      revert\n        /* \"--CODEGEN--\":17519:17521   */\n    tag_653:\n        /* \"--CODEGEN--\":17615:17632   */\n      dup2\n        /* \"--CODEGEN--\":17602:17633   */\n      calldataload\n        /* \"--CODEGEN--\":17653:17671   */\n      0xffffffffffffffff\n        /* \"--CODEGEN--\":17645:17651   */\n      dup2\n        /* \"--CODEGEN--\":17642:17672   */\n      gt\n        /* \"--CODEGEN--\":17639:17641   */\n      iszero\n      tag_654\n      jumpi\n      dup2\n      dup3\n        /* \"--CODEGEN--\":17675:17687   */\n      revert\n        /* \"--CODEGEN--\":17639:17641   */\n    tag_654:\n        /* \"--CODEGEN--\":17705:17785   */\n      tag_464\n        /* \"--CODEGEN--\":17777:17784   */\n      dup5\n        /* \"--CODEGEN--\":17768:17774   */\n      dup3\n        /* \"--CODEGEN--\":17757:17766   */\n      dup6\n        /* \"--CODEGEN--\":17753:17775   */\n      add\n        /* \"--CODEGEN--\":17705:17785   */\n      jump(tag_567)\n        /* \"--CODEGEN--\":17808:18418   */\n    tag_91:\n      0x00\n      dup1\n        /* \"--CODEGEN--\":17965:17967   */\n      0x40\n        /* \"--CODEGEN--\":17953:17962   */\n      dup4\n        /* \"--CODEGEN--\":17944:17951   */\n      dup6\n        /* \"--CODEGEN--\":17940:17963   */\n      sub\n        /* \"--CODEGEN--\":17936:17968   */\n      slt\n        /* \"--CODEGEN--\":17933:17935   */\n      iszero\n      tag_657\n      jumpi\n      dup2\n      dup3\n        /* \"--CODEGEN--\":17971:17983   */\n      revert\n        /* \"--CODEGEN--\":17933:17935   */\n    tag_657:\n        /* \"--CODEGEN--\":18029:18046   */\n      dup3\n        /* \"--CODEGEN--\":18016:18047   */\n      calldataload\n        /* \"--CODEGEN--\":18067:18085   */\n      0xffffffffffffffff\n      dup1\n        /* \"--CODEGEN--\":18059:18065   */\n      dup3\n        /* \"--CODEGEN--\":18056:18086   */\n      gt\n        /* \"--CODEGEN--\":18053:18055   */\n      iszero\n      tag_658\n      jumpi\n      dup4\n      dup5\n        /* \"--CODEGEN--\":18089:18101   */\n      revert\n        /* \"--CODEGEN--\":18053:18055   */\n    tag_658:\n        /* \"--CODEGEN--\":18119:18199   */\n      tag_659\n        /* \"--CODEGEN--\":18191:18198   */\n      dup7\n        /* \"--CODEGEN--\":18182:18188   */\n      dup4\n        /* \"--CODEGEN--\":18171:18180   */\n      dup8\n        /* \"--CODEGEN--\":18167:18189   */\n      add\n        /* \"--CODEGEN--\":18119:18199   */\n      jump(tag_567)\n    tag_659:\n        /* \"--CODEGEN--\":18109:18199   */\n      swap4\n      pop\n        /* \"--CODEGEN--\":18264:18266   */\n      0x20\n        /* \"--CODEGEN--\":18253:18262   */\n      dup6\n        /* \"--CODEGEN--\":18249:18267   */\n      add\n        /* \"--CODEGEN--\":18236:18268   */\n      calldataload\n        /* \"--CODEGEN--\":18222:18268   */\n      swap2\n      pop\n        /* \"--CODEGEN--\":18067:18085   */\n      dup1\n        /* \"--CODEGEN--\":18280:18286   */\n      dup3\n        /* \"--CODEGEN--\":18277:18307   */\n      gt\n        /* \"--CODEGEN--\":18274:18276   */\n      iszero\n      tag_660\n      jumpi\n      dup3\n      dup4\n        /* \"--CODEGEN--\":18310:18322   */\n      revert\n        /* \"--CODEGEN--\":18274:18276   */\n    tag_660:\n      pop\n        /* \"--CODEGEN--\":18340:18402   */\n      tag_590\n        /* \"--CODEGEN--\":18394:18401   */\n      dup6\n        /* \"--CODEGEN--\":18385:18391   */\n      dup3\n        /* \"--CODEGEN--\":18374:18383   */\n      dup7\n        /* \"--CODEGEN--\":18370:18392   */\n      add\n        /* \"--CODEGEN--\":18340:18402   */\n      jump(tag_531)\n        /* \"--CODEGEN--\":18425:18931   */\n    tag_54:\n      0x00\n      dup1\n        /* \"--CODEGEN--\":18573:18575   */\n      0x40\n        /* \"--CODEGEN--\":18561:18570   */\n      dup4\n        /* \"--CODEGEN--\":18552:18559   */\n      dup6\n        /* \"--CODEGEN--\":18548:18571   */\n      sub\n        /* \"--CODEGEN--\":18544:18576   */\n      slt\n        /* \"--CODEGEN--\":18541:18543   */\n      iszero\n      tag_663\n      jumpi\n      dup2\n      dup3\n        /* \"--CODEGEN--\":18579:18591   */\n      revert\n        /* \"--CODEGEN--\":18541:18543   */\n    tag_663:\n        /* \"--CODEGEN--\":18637:18654   */\n      dup3\n        /* \"--CODEGEN--\":18624:18655   */\n      calldataload\n        /* \"--CODEGEN--\":18675:18693   */\n      0xffffffffffffffff\n        /* \"--CODEGEN--\":18667:18673   */\n      dup2\n        /* \"--CODEGEN--\":18664:18694   */\n      gt\n        /* \"--CODEGEN--\":18661:18663   */\n      iszero\n      tag_664\n      jumpi\n      dup3\n      dup4\n        /* \"--CODEGEN--\":18697:18709   */\n      revert\n        /* \"--CODEGEN--\":18661:18663   */\n    tag_664:\n        /* \"--CODEGEN--\":18727:18807   */\n      tag_665\n        /* \"--CODEGEN--\":18799:18806   */\n      dup6\n        /* \"--CODEGEN--\":18790:18796   */\n      dup3\n        /* \"--CODEGEN--\":18779:18788   */\n      dup7\n        /* \"--CODEGEN--\":18775:18797   */\n      add\n        /* \"--CODEGEN--\":18727:18807   */\n      jump(tag_567)\n    tag_665:\n        /* \"--CODEGEN--\":18717:18807   */\n      swap6\n        /* \"--CODEGEN--\":18844:18846   */\n      0x20\n        /* \"--CODEGEN--\":18883:18905   */\n      swap5\n      swap1\n      swap5\n      add\n        /* \"--CODEGEN--\":11256:11276   */\n      calldataload\n      swap5\n      pop\n      pop\n      pop\n      pop\n        /* \"--CODEGEN--\":18535:18931   */\n      jump\n        /* \"--CODEGEN--\":18938:19201   */\n    tag_321:\n      0x00\n        /* \"--CODEGEN--\":19053:19055   */\n      0x20\n        /* \"--CODEGEN--\":19041:19050   */\n      dup3\n        /* \"--CODEGEN--\":19032:19039   */\n      dup5\n        /* \"--CODEGEN--\":19028:19051   */\n      sub\n        /* \"--CODEGEN--\":19024:19056   */\n      slt\n        /* \"--CODEGEN--\":19021:19023   */\n      iszero\n      tag_667\n      jumpi\n      dup1\n      dup2\n        /* \"--CODEGEN--\":19059:19071   */\n      revert\n        /* \"--CODEGEN--\":19021:19023   */\n    tag_667:\n      pop\n        /* \"--CODEGEN--\":11404:11417   */\n      mload\n      swap2\n        /* \"--CODEGEN--\":19015:19201   */\n      swap1\n      pop\n      jump\n        /* \"--CODEGEN--\":19208:19817   */\n    tag_134:\n      0x00\n      dup1\n      0x00\n      dup1\n        /* \"--CODEGEN--\":19362:19364   */\n      0x60\n        /* \"--CODEGEN--\":19350:19359   */\n      dup6\n        /* \"--CODEGEN--\":19341:19348   */\n      dup8\n        /* \"--CODEGEN--\":19337:19360   */\n      sub\n        /* \"--CODEGEN--\":19333:19365   */\n      slt\n        /* \"--CODEGEN--\":19330:19332   */\n      iszero\n      tag_669\n      jumpi\n      dup2\n      dup3\n        /* \"--CODEGEN--\":19368:19380   */\n      revert\n        /* \"--CODEGEN--\":19330:19332   */\n    tag_669:\n        /* \"--CODEGEN--\":11269:11275   */\n      dup5\n        /* \"--CODEGEN--\":11256:11276   */\n      calldataload\n        /* \"--CODEGEN--\":19420:19483   */\n      swap4\n      pop\n        /* \"--CODEGEN--\":19548:19550   */\n      0x20\n        /* \"--CODEGEN--\":19537:19546   */\n      dup6\n        /* \"--CODEGEN--\":19533:19551   */\n      add\n        /* \"--CODEGEN--\":19520:19552   */\n      calldataload\n        /* \"--CODEGEN--\":19572:19590   */\n      0xffffffffffffffff\n      dup1\n        /* \"--CODEGEN--\":19564:19570   */\n      dup3\n        /* \"--CODEGEN--\":19561:19591   */\n      gt\n        /* \"--CODEGEN--\":19558:19560   */\n      iszero\n      tag_670\n      jumpi\n      dup4\n      dup5\n        /* \"--CODEGEN--\":19594:19606   */\n      revert\n        /* \"--CODEGEN--\":19558:19560   */\n    tag_670:\n        /* \"--CODEGEN--\":19679:19685   */\n      dup2\n        /* \"--CODEGEN--\":19668:19677   */\n      dup8\n        /* \"--CODEGEN--\":19664:19686   */\n      add\n        /* \"--CODEGEN--\":3445:3448   */\n      dup9\n        /* \"--CODEGEN--\":3438:3442   */\n      0x1f\n        /* \"--CODEGEN--\":3430:3436   */\n      dup3\n        /* \"--CODEGEN--\":3426:3443   */\n      add\n        /* \"--CODEGEN--\":3422:3449   */\n      slt\n        /* \"--CODEGEN--\":3412:3414   */\n      tag_671\n      jumpi\n      dup5\n      dup6\n        /* \"--CODEGEN--\":3453:3465   */\n      revert\n        /* \"--CODEGEN--\":3412:3414   */\n    tag_671:\n        /* \"--CODEGEN--\":3496:3502   */\n      dup1\n        /* \"--CODEGEN--\":3483:3503   */\n      calldataload\n        /* \"--CODEGEN--\":3473:3503   */\n      swap3\n      pop\n        /* \"--CODEGEN--\":19572:19590   */\n      dup2\n        /* \"--CODEGEN--\":3515:3521   */\n      dup4\n        /* \"--CODEGEN--\":3512:3542   */\n      gt\n        /* \"--CODEGEN--\":3509:3511   */\n      iszero\n      tag_672\n      jumpi\n      dup5\n      dup6\n        /* \"--CODEGEN--\":3545:3557   */\n      revert\n        /* \"--CODEGEN--\":3509:3511   */\n    tag_672:\n        /* \"--CODEGEN--\":3640:3643   */\n      dup9\n        /* \"--CODEGEN--\":19548:19550   */\n      0x20\n        /* \"--CODEGEN--\":3620:3637   */\n      dup5\n        /* \"--CODEGEN--\":3581:3587   */\n      dup4\n        /* \"--CODEGEN--\":3606:3638   */\n      add\n      add\n        /* \"--CODEGEN--\":3603:3644   */\n      gt\n        /* \"--CODEGEN--\":3600:3602   */\n      iszero\n      tag_673\n      jumpi\n      dup5\n      dup6\n        /* \"--CODEGEN--\":3647:3659   */\n      revert\n        /* \"--CODEGEN--\":3600:3602   */\n    tag_673:\n        /* \"--CODEGEN--\":19548:19550   */\n      0x20\n        /* \"--CODEGEN--\":3577:3594   */\n      add\n      swap5\n      pop\n        /* \"--CODEGEN--\":19622:19696   */\n      swap1\n      swap3\n      pop\n      pop\n        /* \"--CODEGEN--\":19733:19735   */\n      0x40\n        /* \"--CODEGEN--\":19769:19791   */\n      dup6\n      add\n        /* \"--CODEGEN--\":2702:2722   */\n      calldataload\n        /* \"--CODEGEN--\":2727:2757   */\n      tag_674\n        /* \"--CODEGEN--\":2702:2722   */\n      dup2\n        /* \"--CODEGEN--\":2727:2757   */\n      jump(tag_605)\n    tag_674:\n        /* \"--CODEGEN--\":19324:19817   */\n      swap4\n      swap7\n      swap3\n      swap6\n      pop\n      swap1\n      swap4\n      pop\n      pop\n      jump\n        /* \"--CODEGEN--\":19824:20190   */\n    tag_60:\n      0x00\n      dup1\n        /* \"--CODEGEN--\":19945:19947   */\n      0x40\n        /* \"--CODEGEN--\":19933:19942   */\n      dup4\n        /* \"--CODEGEN--\":19924:19931   */\n      dup6\n        /* \"--CODEGEN--\":19920:19943   */\n      sub\n        /* \"--CODEGEN--\":19916:19948   */\n      slt\n        /* \"--CODEGEN--\":19913:19915   */\n      iszero\n      tag_676\n      jumpi\n      dup2\n      dup3\n        /* \"--CODEGEN--\":19951:19963   */\n      revert\n        /* \"--CODEGEN--\":19913:19915   */\n    tag_676:\n      pop\n      pop\n        /* \"--CODEGEN--\":11256:11276   */\n      dup1\n      calldataload\n      swap3\n        /* \"--CODEGEN--\":20103:20105   */\n      0x20\n        /* \"--CODEGEN--\":20142:20164   */\n      swap1\n      swap2\n      add\n        /* \"--CODEGEN--\":11256:11276   */\n      calldataload\n      swap2\n      pop\n        /* \"--CODEGEN--\":19907:20190   */\n      jump\n        /* \"--CODEGEN--\":22064:23084   */\n    tag_677:\n      0x00\n        /* \"--CODEGEN--\":22319:22324   */\n      dup2\n        /* \"--CODEGEN--\":61720:61732   */\n      mload\n        /* \"--CODEGEN--\":62589:62595   */\n      dup1\n        /* \"--CODEGEN--\":62584:62587   */\n      dup5\n        /* \"--CODEGEN--\":62577:62596   */\n      mstore\n        /* \"--CODEGEN--\":62626:62630   */\n      0x20\n      dup1\n        /* \"--CODEGEN--\":62621:62624   */\n      dup6\n        /* \"--CODEGEN--\":62617:62631   */\n      add\n        /* \"--CODEGEN--\":22331:22438   */\n      dup1\n      dup2\n      swap7\n      pop\n        /* \"--CODEGEN--\":62626:62630   */\n      dup3\n        /* \"--CODEGEN--\":22495:22501   */\n      dup5\n        /* \"--CODEGEN--\":22491:22508   */\n      mul\n        /* \"--CODEGEN--\":22486:22489   */\n      dup2\n        /* \"--CODEGEN--\":22482:22509   */\n      add\n        /* \"--CODEGEN--\":22470:22509   */\n      swap2\n      pop\n        /* \"--CODEGEN--\":62626:62630   */\n      dup3\n        /* \"--CODEGEN--\":22604:22609   */\n      dup7\n        /* \"--CODEGEN--\":61383:61397   */\n      add\n      dup6\n        /* \"--CODEGEN--\":22643:23045   */\n    tag_679:\n        /* \"--CODEGEN--\":22668:22674   */\n      dup6\n        /* \"--CODEGEN--\":22665:22666   */\n      dup2\n        /* \"--CODEGEN--\":22662:22675   */\n      lt\n        /* \"--CODEGEN--\":22643:23045   */\n      iszero\n      tag_681\n      jumpi\n        /* \"--CODEGEN--\":22730:22739   */\n      dup3\n        /* \"--CODEGEN--\":22724:22728   */\n      dup5\n        /* \"--CODEGEN--\":22720:22740   */\n      sub\n        /* \"--CODEGEN--\":22715:22718   */\n      dup10\n        /* \"--CODEGEN--\":22708:22741   */\n      mstore\n        /* \"--CODEGEN--\":22775:22781   */\n      dup2\n        /* \"--CODEGEN--\":22769:22782   */\n      mload\n        /* \"--CODEGEN--\":33213:33217   */\n      0x60\n        /* \"--CODEGEN--\":64807:64849   */\n      0xffffffffffffffffffffffffffffffffffffffff\n        /* \"--CODEGEN--\":33283:33299   */\n      dup3\n        /* \"--CODEGEN--\":33277:33300   */\n      mload\n        /* \"--CODEGEN--\":64796:64850   */\n      and\n        /* \"--CODEGEN--\":20721:20724   */\n      dup7\n        /* \"--CODEGEN--\":20714:20751   */\n      mstore\n        /* \"--CODEGEN--\":62626:62630   */\n      dup7\n        /* \"--CODEGEN--\":33442:33447   */\n      dup3\n        /* \"--CODEGEN--\":33438:33454   */\n      add\n        /* \"--CODEGEN--\":33432:33455   */\n      mload\n        /* \"--CODEGEN--\":62626:62630   */\n      dup8\n        /* \"--CODEGEN--\":33513:33516   */\n      dup8\n        /* \"--CODEGEN--\":33509:33523   */\n      add\n        /* \"--CODEGEN--\":24379:24416   */\n      mstore\n        /* \"--CODEGEN--\":33603:33607   */\n      0x40\n      dup1\n        /* \"--CODEGEN--\":33596:33601   */\n      dup4\n        /* \"--CODEGEN--\":33592:33608   */\n      add\n        /* \"--CODEGEN--\":33586:33609   */\n      mload\n        /* \"--CODEGEN--\":33213:33217   */\n      dup3\n        /* \"--CODEGEN--\":33603:33607   */\n      dup3\n        /* \"--CODEGEN--\":33633:33636   */\n      dup10\n        /* \"--CODEGEN--\":33629:33643   */\n      add\n        /* \"--CODEGEN--\":33622:33660   */\n      mstore\n        /* \"--CODEGEN--\":33675:33746   */\n      tag_682\n        /* \"--CODEGEN--\":33213:33217   */\n      dup4\n        /* \"--CODEGEN--\":33208:33211   */\n      dup10\n        /* \"--CODEGEN--\":33204:33218   */\n      add\n        /* \"--CODEGEN--\":33727:33739   */\n      dup3\n        /* \"--CODEGEN--\":33675:33746   */\n      jump(tag_683)\n    tag_682:\n        /* \"--CODEGEN--\":23024:23038   */\n      swap13\n      dup10\n      add\n      swap13\n        /* \"--CODEGEN--\":22789:22909   */\n      swap8\n      pop\n      pop\n      pop\n        /* \"--CODEGEN--\":62284:62298   */\n      swap3\n      dup7\n      add\n      swap3\n      pop\n      pop\n        /* \"--CODEGEN--\":22690:22691   */\n      0x01\n        /* \"--CODEGEN--\":22683:22692   */\n      add\n        /* \"--CODEGEN--\":22643:23045   */\n      jump(tag_679)\n    tag_681:\n      pop\n        /* \"--CODEGEN--\":23068:23078   */\n      swap2\n      swap8\n        /* \"--CODEGEN--\":22226:23084   */\n      swap7\n      pop\n      pop\n      pop\n      pop\n      pop\n      pop\n      pop\n      jump\n        /* \"--CODEGEN--\":24824:25147   */\n    tag_683:\n      0x00\n        /* \"--CODEGEN--\":24956:24961   */\n      dup2\n        /* \"--CODEGEN--\":61720:61732   */\n      mload\n        /* \"--CODEGEN--\":62589:62595   */\n      dup1\n        /* \"--CODEGEN--\":62584:62587   */\n      dup5\n        /* \"--CODEGEN--\":62577:62596   */\n      mstore\n        /* \"--CODEGEN--\":25039:25091   */\n      tag_685\n        /* \"--CODEGEN--\":25084:25090   */\n      dup2\n        /* \"--CODEGEN--\":62626:62630   */\n      0x20\n        /* \"--CODEGEN--\":62621:62624   */\n      dup7\n        /* \"--CODEGEN--\":62617:62631   */\n      add\n        /* \"--CODEGEN--\":62626:62630   */\n      0x20\n        /* \"--CODEGEN--\":25065:25070   */\n      dup7\n        /* \"--CODEGEN--\":25061:25077   */\n      add\n        /* \"--CODEGEN--\":25039:25091   */\n      jump(tag_545)\n    tag_685:\n        /* \"--CODEGEN--\":66690:66692   */\n      0x1f\n        /* \"--CODEGEN--\":66670:66684   */\n      add\n        /* \"--CODEGEN--\":66686:66693   */\n      0xffffffffffffffffffffffffffffffffffffffffffffffffffffffffffffffe0\n        /* \"--CODEGEN--\":66666:66694   */\n      and\n        /* \"--CODEGEN--\":25103:25142   */\n      swap3\n      swap1\n      swap3\n      add\n        /* \"--CODEGEN--\":62626:62630   */\n      0x20\n        /* \"--CODEGEN--\":25103:25142   */\n      add\n      swap3\n        /* \"--CODEGEN--\":24904:25147   */\n      swap2\n      pop\n      pop\n      jump\n        /* \"--CODEGEN--\":33860:34335   */\n    tag_686:\n        /* \"--CODEGEN--\":34066:34089   */\n      dup1\n      mload\n        /* \"--CODEGEN--\":64807:64849   */\n      0xffffffffffffffffffffffffffffffffffffffff\n        /* \"--CODEGEN--\":64796:64850   */\n      and\n        /* \"--CODEGEN--\":20714:20751   */\n      dup3\n      mstore\n        /* \"--CODEGEN--\":34239:34243   */\n      0x20\n        /* \"--CODEGEN--\":34228:34244   */\n      swap1\n      dup2\n      add\n        /* \"--CODEGEN--\":34222:34245   */\n      mload\n        /* \"--CODEGEN--\":34299:34313   */\n      swap2\n      add\n        /* \"--CODEGEN--\":24379:24416   */\n      mstore\n        /* \"--CODEGEN--\":33972:34335   */\n      jump\n        /* \"--CODEGEN--\":34964:36133   */\n    tag_688:\n      0x00\n        /* \"--CODEGEN--\":35185:35201   */\n      dup2\n        /* \"--CODEGEN--\":35179:35202   */\n      mload\n        /* \"--CODEGEN--\":24386:24389   */\n      dup4\n        /* \"--CODEGEN--\":24379:24416   */\n      mstore\n        /* \"--CODEGEN--\":35361:35365   */\n      0x20\n        /* \"--CODEGEN--\":35354:35359   */\n      dup3\n        /* \"--CODEGEN--\":35350:35366   */\n      add\n        /* \"--CODEGEN--\":35344:35367   */\n      mload\n        /* \"--CODEGEN--\":35373:35492   */\n      tag_690\n        /* \"--CODEGEN--\":35361:35365   */\n      0x20\n        /* \"--CODEGEN--\":35481:35484   */\n      dup6\n        /* \"--CODEGEN--\":35477:35491   */\n      add\n        /* \"--CODEGEN--\":35463:35475   */\n      dup3\n        /* \"--CODEGEN--\":35373:35492   */\n      jump(tag_686)\n    tag_690:\n      pop\n        /* \"--CODEGEN--\":35583:35587   */\n      0x40\n        /* \"--CODEGEN--\":35576:35581   */\n      dup3\n        /* \"--CODEGEN--\":35572:35588   */\n      add\n        /* \"--CODEGEN--\":35566:35589   */\n      mload\n        /* \"--CODEGEN--\":35595:35714   */\n      tag_691\n        /* \"--CODEGEN--\":35708:35712   */\n      0x60\n        /* \"--CODEGEN--\":35703:35706   */\n      dup6\n        /* \"--CODEGEN--\":35699:35713   */\n      add\n        /* \"--CODEGEN--\":35685:35697   */\n      dup3\n        /* \"--CODEGEN--\":35595:35714   */\n      jump(tag_686)\n    tag_691:\n      pop\n        /* \"--CODEGEN--\":64807:64849   */\n      0xffffffffffffffffffffffffffffffffffffffff\n        /* \"--CODEGEN--\":35708:35712   */\n      0x60\n        /* \"--CODEGEN--\":35790:35795   */\n      dup4\n        /* \"--CODEGEN--\":35786:35802   */\n      add\n        /* \"--CODEGEN--\":35780:35803   */\n      mload\n        /* \"--CODEGEN--\":64796:64850   */\n      and\n        /* \"--CODEGEN--\":35866:35870   */\n      0xa0\n        /* \"--CODEGEN--\":35861:35864   */\n      dup5\n        /* \"--CODEGEN--\":35857:35871   */\n      add\n        /* \"--CODEGEN--\":20714:20751   */\n      mstore\n        /* \"--CODEGEN--\":35952:35956   */\n      0x80\n        /* \"--CODEGEN--\":35945:35950   */\n      dup3\n        /* \"--CODEGEN--\":35941:35957   */\n      add\n        /* \"--CODEGEN--\":35935:35958   */\n      mload\n        /* \"--CODEGEN--\":35103:35107   */\n      0xe0\n        /* \"--CODEGEN--\":35987:35991   */\n      0xc0\n        /* \"--CODEGEN--\":35982:35985   */\n      dup6\n        /* \"--CODEGEN--\":35978:35992   */\n      add\n        /* \"--CODEGEN--\":35971:36009   */\n      mstore\n        /* \"--CODEGEN--\":36024:36095   */\n      tag_464\n        /* \"--CODEGEN--\":35103:35107   */\n      0xe0\n        /* \"--CODEGEN--\":35098:35101   */\n      dup6\n        /* \"--CODEGEN--\":35094:35108   */\n      add\n        /* \"--CODEGEN--\":36076:36088   */\n      dup3\n        /* \"--CODEGEN--\":36024:36095   */\n      jump(tag_683)\n        /* \"--CODEGEN--\":38238:39781   */\n    tag_693:\n      0x00\n        /* \"--CODEGEN--\":38452:38468   */\n      dup2\n        /* \"--CODEGEN--\":38446:38469   */\n      mload\n        /* \"--CODEGEN--\":24386:24389   */\n      dup4\n        /* \"--CODEGEN--\":24379:24416   */\n      mstore\n        /* \"--CODEGEN--\":38626:38630   */\n      0x20\n        /* \"--CODEGEN--\":38619:38624   */\n      dup3\n        /* \"--CODEGEN--\":38615:38631   */\n      add\n        /* \"--CODEGEN--\":38609:38632   */\n      mload\n        /* \"--CODEGEN--\":38626:38630   */\n      0x20\n        /* \"--CODEGEN--\":38690:38693   */\n      dup5\n        /* \"--CODEGEN--\":38686:38700   */\n      add\n        /* \"--CODEGEN--\":24379:24416   */\n      mstore\n        /* \"--CODEGEN--\":38785:38789   */\n      0x40\n        /* \"--CODEGEN--\":38778:38783   */\n      dup3\n        /* \"--CODEGEN--\":38774:38790   */\n      add\n        /* \"--CODEGEN--\":38768:38791   */\n      mload\n        /* \"--CODEGEN--\":64807:64849   */\n      0xffffffffffffffffffffffffffffffffffffffff\n      dup1\n        /* \"--CODEGEN--\":63795:63800   */\n      dup3\n        /* \"--CODEGEN--\":64796:64850   */\n      and\n        /* \"--CODEGEN--\":38785:38789   */\n      0x40\n        /* \"--CODEGEN--\":38849:38852   */\n      dup7\n        /* \"--CODEGEN--\":38845:38859   */\n      add\n        /* \"--CODEGEN--\":20714:20751   */\n      mstore\n        /* \"--CODEGEN--\":64807:64849   */\n      dup1\n        /* \"--CODEGEN--\":38943:38947   */\n      0x60\n        /* \"--CODEGEN--\":38936:38941   */\n      dup6\n        /* \"--CODEGEN--\":38932:38948   */\n      add\n        /* \"--CODEGEN--\":38926:38949   */\n      mload\n        /* \"--CODEGEN--\":64796:64850   */\n      and\n        /* \"--CODEGEN--\":38943:38947   */\n      0x60\n        /* \"--CODEGEN--\":39032:39035   */\n      dup7\n        /* \"--CODEGEN--\":39028:39042   */\n      add\n        /* \"--CODEGEN--\":25594:25663   */\n      mstore\n      pop\n      pop\n        /* \"--CODEGEN--\":39125:39129   */\n      0x80\n        /* \"--CODEGEN--\":39118:39123   */\n      dup3\n        /* \"--CODEGEN--\":39114:39130   */\n      add\n        /* \"--CODEGEN--\":39108:39131   */\n      mload\n        /* \"--CODEGEN--\":38379:38383   */\n      0xe0\n        /* \"--CODEGEN--\":39125:39129   */\n      0x80\n        /* \"--CODEGEN--\":39155:39158   */\n      dup6\n        /* \"--CODEGEN--\":39151:39165   */\n      add\n        /* \"--CODEGEN--\":39144:39182   */\n      mstore\n        /* \"--CODEGEN--\":39197:39348   */\n      tag_695\n        /* \"--CODEGEN--\":38379:38383   */\n      0xe0\n        /* \"--CODEGEN--\":38374:38377   */\n      dup6\n        /* \"--CODEGEN--\":38370:38384   */\n      add\n        /* \"--CODEGEN--\":39329:39341   */\n      dup3\n        /* \"--CODEGEN--\":39197:39348   */\n      jump(tag_677)\n    tag_695:\n        /* \"--CODEGEN--\":39445:39449   */\n      0xa0\n        /* \"--CODEGEN--\":39438:39443   */\n      dup5\n        /* \"--CODEGEN--\":39434:39450   */\n      add\n        /* \"--CODEGEN--\":39428:39451   */\n      mload\n        /* \"--CODEGEN--\":39445:39449   */\n      0xa0\n        /* \"--CODEGEN--\":39509:39512   */\n      dup7\n        /* \"--CODEGEN--\":39505:39519   */\n      add\n        /* \"--CODEGEN--\":24379:24416   */\n      mstore\n        /* \"--CODEGEN--\":39600:39604   */\n      0xc0\n        /* \"--CODEGEN--\":39593:39598   */\n      dup5\n        /* \"--CODEGEN--\":39589:39605   */\n      add\n        /* \"--CODEGEN--\":39583:39606   */\n      mload\n        /* \"--CODEGEN--\":39563:39606   */\n      swap2\n      pop\n        /* \"--CODEGEN--\":39652:39655   */\n      dup5\n        /* \"--CODEGEN--\":39646:39650   */\n      dup2\n        /* \"--CODEGEN--\":39642:39656   */\n      sub\n        /* \"--CODEGEN--\":39600:39604   */\n      0xc0\n        /* \"--CODEGEN--\":39630:39633   */\n      dup7\n        /* \"--CODEGEN--\":39626:39640   */\n      add\n        /* \"--CODEGEN--\":39619:39657   */\n      mstore\n        /* \"--CODEGEN--\":39672:39743   */\n      tag_472\n        /* \"--CODEGEN--\":39738:39742   */\n      dup2\n        /* \"--CODEGEN--\":39724:39736   */\n      dup4\n        /* \"--CODEGEN--\":39672:39743   */\n      jump(tag_683)\n        /* \"--CODEGEN--\":41800:42075   */\n    tag_275:\n      0x00\n        /* \"--CODEGEN--\":26527:26532   */\n      dup3\n        /* \"--CODEGEN--\":61720:61732   */\n      mload\n        /* \"--CODEGEN--\":26639:26691   */\n      tag_698\n        /* \"--CODEGEN--\":26684:26690   */\n      dup2\n        /* \"--CODEGEN--\":26679:26682   */\n      dup5\n        /* \"--CODEGEN--\":26672:26676   */\n      0x20\n        /* \"--CODEGEN--\":26665:26670   */\n      dup8\n        /* \"--CODEGEN--\":26661:26677   */\n      add\n        /* \"--CODEGEN--\":26639:26691   */\n      jump(tag_545)\n    tag_698:\n        /* \"--CODEGEN--\":26703:26719   */\n      swap2\n      swap1\n      swap2\n      add\n      swap3\n        /* \"--CODEGEN--\":41936:42075   */\n      swap2\n      pop\n      pop\n      jump\n        /* \"--CODEGEN--\":42082:42463   */\n    tag_269:\n        /* \"--CODEGEN--\":31633:31638   */\n      0x61636c0000000000000000000000000000000000000000000000000000000000\n        /* \"--CODEGEN--\":31613:31639   */\n      dup2\n      mstore\n        /* \"--CODEGEN--\":31598:31599   */\n      0x03\n        /* \"--CODEGEN--\":31658:31669   */\n      add\n      swap1\n        /* \"--CODEGEN--\":42271:42463   */\n      jump\n        /* \"--CODEGEN--\":42470:43407   */\n    tag_480:\n        /* \"--CODEGEN--\":32958:32968   */\n      0x657263336b2d7631000000000000000000000000000000000000000000000000\n        /* \"--CODEGEN--\":32938:32969   */\n      dup2\n      mstore\n        /* \"--CODEGEN--\":66781:66783   */\n      0x60\n        /* \"--CODEGEN--\":66777:66791   */\n      swap5\n      swap1\n      swap5\n      shl\n      0xffffffffffffffffffffffffffffffffffffffff000000000000000000000000\n      and\n        /* \"--CODEGEN--\":32923:32924   */\n      0x08\n        /* \"--CODEGEN--\":32988:32999   */\n      dup6\n      add\n        /* \"--CODEGEN--\":20972:21030   */\n      mstore\n        /* \"--CODEGEN--\":43037:43049   */\n      0x1c\n      dup5\n      add\n        /* \"--CODEGEN--\":24379:24416   */\n      swap3\n      swap1\n      swap3\n      mstore\n        /* \"--CODEGEN--\":43148:43160   */\n      0x3c\n      dup4\n      add\n        /* \"--CODEGEN--\":24379:24416   */\n      mstore\n        /* \"--CODEGEN--\":43259:43271   */\n      0x5c\n      dup3\n      add\n        /* \"--CODEGEN--\":24379:24416   */\n      mstore\n        /* \"--CODEGEN--\":43370:43382   */\n      0x7c\n      add\n      swap1\n        /* \"--CODEGEN--\":42771:43407   */\n      jump\n        /* \"--CODEGEN--\":43414:44551   */\n    tag_477:\n        /* \"--CODEGEN--\":24379:24416   */\n      swap7\n      dup8\n      mstore\n        /* \"--CODEGEN--\":43832:43834   */\n      0x20\n        /* \"--CODEGEN--\":43823:43835   */\n      dup8\n      add\n        /* \"--CODEGEN--\":24379:24416   */\n      swap6\n      swap1\n      swap6\n      mstore\n        /* \"--CODEGEN--\":66777:66791   */\n      0xffffffffffffffffffffffffffffffffffffffff000000000000000000000000\n        /* \"--CODEGEN--\":66781:66783   */\n      0x60\n        /* \"--CODEGEN--\":66777:66791   */\n      swap5\n      dup6\n      shl\n      dup2\n      and\n        /* \"--CODEGEN--\":43934:43946   */\n      0x40\n      dup9\n      add\n        /* \"--CODEGEN--\":20972:21030   */\n      mstore\n        /* \"--CODEGEN--\":66777:66791   */\n      swap3\n      swap1\n      swap4\n      shl\n      swap1\n      swap2\n      and\n        /* \"--CODEGEN--\":44045:44057   */\n      0x54\n      dup6\n      add\n        /* \"--CODEGEN--\":25962:26058   */\n      mstore\n        /* \"--CODEGEN--\":44181:44193   */\n      0x68\n      dup5\n      add\n        /* \"--CODEGEN--\":24379:24416   */\n      mstore\n        /* \"--CODEGEN--\":44292:44304   */\n      0x88\n      dup4\n      add\n        /* \"--CODEGEN--\":24379:24416   */\n      mstore\n        /* \"--CODEGEN--\":44403:44415   */\n      0xa8\n      dup3\n      add\n        /* \"--CODEGEN--\":24379:24416   */\n      mstore\n        /* \"--CODEGEN--\":44514:44526   */\n      0xc8\n      add\n      swap1\n        /* \"--CODEGEN--\":43723:44551   */\n      jump\n        /* \"--CODEGEN--\":44558:44780   */\n    tag_114:\n        /* \"--CODEGEN--\":64807:64849   */\n      0xffffffffffffffffffffffffffffffffffffffff\n        /* \"--CODEGEN--\":64796:64850   */\n      swap2\n      swap1\n      swap2\n      and\n        /* \"--CODEGEN--\":20714:20751   */\n      dup2\n      mstore\n        /* \"--CODEGEN--\":44685:44687   */\n      0x20\n        /* \"--CODEGEN--\":44670:44688   */\n      add\n      swap1\n        /* \"--CODEGEN--\":44656:44780   */\n      jump\n        /* \"--CODEGEN--\":44787:45231   */\n    tag_466:\n        /* \"--CODEGEN--\":64807:64849   */\n      0xffffffffffffffffffffffffffffffffffffffff\n        /* \"--CODEGEN--\":64796:64850   */\n      swap4\n      dup5\n      and\n        /* \"--CODEGEN--\":20714:20751   */\n      dup2\n      mstore\n        /* \"--CODEGEN--\":64796:64850   */\n      swap2\n      swap1\n      swap3\n      and\n        /* \"--CODEGEN--\":45134:45136   */\n      0x20\n        /* \"--CODEGEN--\":45119:45137   */\n      dup3\n      add\n        /* \"--CODEGEN--\":20714:20751   */\n      mstore\n        /* \"--CODEGEN--\":45217:45219   */\n      0x40\n        /* \"--CODEGEN--\":45202:45220   */\n      dup2\n      add\n        /* \"--CODEGEN--\":24379:24416   */\n      swap2\n      swap1\n      swap2\n      mstore\n        /* \"--CODEGEN--\":44970:44972   */\n      0x60\n        /* \"--CODEGEN--\":44955:44973   */\n      add\n      swap1\n        /* \"--CODEGEN--\":44941:45231   */\n      jump\n        /* \"--CODEGEN--\":45238:45571   */\n    tag_471:\n        /* \"--CODEGEN--\":64807:64849   */\n      0xffffffffffffffffffffffffffffffffffffffff\n        /* \"--CODEGEN--\":64796:64850   */\n      swap3\n      swap1\n      swap3\n      and\n        /* \"--CODEGEN--\":20714:20751   */\n      dup3\n      mstore\n        /* \"--CODEGEN--\":45557:45559   */\n      0x20\n        /* \"--CODEGEN--\":45542:45560   */\n      dup3\n      add\n        /* \"--CODEGEN--\":24379:24416   */\n      mstore\n        /* \"--CODEGEN--\":45393:45395   */\n      0x40\n        /* \"--CODEGEN--\":45378:45396   */\n      add\n      swap1\n        /* \"--CODEGEN--\":45364:45571   */\n      jump\n        /* \"--CODEGEN--\":45578:46044   */\n    tag_475:\n      0x00\n        /* \"--CODEGEN--\":45803:45805   */\n      0x20\n        /* \"--CODEGEN--\":45824:45841   */\n      dup3\n        /* \"--CODEGEN--\":45817:45864   */\n      mstore\n        /* \"--CODEGEN--\":45878:46034   */\n      tag_160\n        /* \"--CODEGEN--\":45803:45805   */\n      0x20\n        /* \"--CODEGEN--\":45792:45801   */\n      dup4\n        /* \"--CODEGEN--\":45788:45806   */\n      add\n        /* \"--CODEGEN--\":46020:46026   */\n      dup5\n        /* \"--CODEGEN--\":45878:46034   */\n      jump(tag_677)\n        /* \"--CODEGEN--\":46051:46739   */\n    tag_438:\n      0x00\n        /* \"--CODEGEN--\":46332:46334   */\n      0x60\n        /* \"--CODEGEN--\":46353:46370   */\n      dup3\n        /* \"--CODEGEN--\":46346:46393   */\n      mstore\n        /* \"--CODEGEN--\":46407:46563   */\n      tag_708\n        /* \"--CODEGEN--\":46332:46334   */\n      0x60\n        /* \"--CODEGEN--\":46321:46330   */\n      dup4\n        /* \"--CODEGEN--\":46317:46335   */\n      add\n        /* \"--CODEGEN--\":46549:46555   */\n      dup7\n        /* \"--CODEGEN--\":46407:46563   */\n      jump(tag_677)\n    tag_708:\n        /* \"--CODEGEN--\":46642:46644   */\n      0x20\n        /* \"--CODEGEN--\":46627:46645   */\n      dup4\n      add\n        /* \"--CODEGEN--\":24379:24416   */\n      swap5\n      swap1\n      swap5\n      mstore\n      pop\n        /* \"--CODEGEN--\":46725:46727   */\n      0x40\n        /* \"--CODEGEN--\":46710:46728   */\n      add\n        /* \"--CODEGEN--\":24379:24416   */\n      mstore\n        /* \"--CODEGEN--\":46399:46563   */\n      swap2\n        /* \"--CODEGEN--\":46303:46739   */\n      swap1\n      pop\n      jump\n        /* \"--CODEGEN--\":46746:46956   */\n    tag_42:\n        /* \"--CODEGEN--\":63879:63892   */\n      swap1\n      iszero\n        /* \"--CODEGEN--\":63872:63893   */\n      iszero\n        /* \"--CODEGEN--\":24272:24306   */\n      dup2\n      mstore\n        /* \"--CODEGEN--\":46867:46869   */\n      0x20\n        /* \"--CODEGEN--\":46852:46870   */\n      add\n      swap1\n        /* \"--CODEGEN--\":46838:46956   */\n      jump\n        /* \"--CODEGEN--\":46963:47185   */\n    tag_72:\n        /* \"--CODEGEN--\":24379:24416   */\n      swap1\n      dup2\n      mstore\n        /* \"--CODEGEN--\":47090:47092   */\n      0x20\n        /* \"--CODEGEN--\":47075:47093   */\n      add\n      swap1\n        /* \"--CODEGEN--\":47061:47185   */\n      jump\n        /* \"--CODEGEN--\":47192:47709   */\n    tag_57:\n      0x00\n        /* \"--CODEGEN--\":47415:47417   */\n      0x40\n        /* \"--CODEGEN--\":47404:47413   */\n      dup3\n        /* \"--CODEGEN--\":47400:47418   */\n      add\n        /* \"--CODEGEN--\":24409:24414   */\n      dup5\n        /* \"--CODEGEN--\":24386:24389   */\n      dup4\n        /* \"--CODEGEN--\":24379:24416   */\n      mstore\n        /* \"--CODEGEN--\":47533:47535   */\n      0x20\n        /* \"--CODEGEN--\":47415:47417   */\n      0x40\n        /* \"--CODEGEN--\":47533:47535   */\n      dup2\n        /* \"--CODEGEN--\":47522:47531   */\n      dup6\n        /* \"--CODEGEN--\":47518:47536   */\n      add\n        /* \"--CODEGEN--\":47511:47559   */\n      mstore\n        /* \"--CODEGEN--\":47573:47699   */\n      dup2\n        /* \"--CODEGEN--\":21289:21294   */\n      dup6\n        /* \"--CODEGEN--\":61720:61732   */\n      mload\n        /* \"--CODEGEN--\":62589:62595   */\n      dup1\n        /* \"--CODEGEN--\":62584:62587   */\n      dup5\n        /* \"--CODEGEN--\":62577:62596   */\n      mstore\n        /* \"--CODEGEN--\":62617:62631   */\n      0x60\n        /* \"--CODEGEN--\":47404:47413   */\n      dup7\n        /* \"--CODEGEN--\":62617:62631   */\n      add\n        /* \"--CODEGEN--\":21301:21403   */\n      swap2\n      pop\n        /* \"--CODEGEN--\":62617:62631   */\n      0x60\n        /* \"--CODEGEN--\":47533:47535   */\n      dup4\n        /* \"--CODEGEN--\":21460:21466   */\n      dup3\n        /* \"--CODEGEN--\":21456:21473   */\n      mul\n        /* \"--CODEGEN--\":47404:47413   */\n      dup8\n        /* \"--CODEGEN--\":21447:21474   */\n      add\n      add\n        /* \"--CODEGEN--\":21435:21474   */\n      swap4\n      pop\n        /* \"--CODEGEN--\":47533:47535   */\n      dup3\n        /* \"--CODEGEN--\":21554:21559   */\n      dup8\n        /* \"--CODEGEN--\":61383:61397   */\n      add\n      dup6\n        /* \"--CODEGEN--\":21593:21950   */\n    tag_712:\n        /* \"--CODEGEN--\":21618:21624   */\n      dup3\n        /* \"--CODEGEN--\":21615:21616   */\n      dup2\n        /* \"--CODEGEN--\":21612:21625   */\n      lt\n        /* \"--CODEGEN--\":21593:21950   */\n      iszero\n      tag_714\n      jumpi\n        /* \"--CODEGEN--\":21670:21690   */\n      0xffffffffffffffffffffffffffffffffffffffffffffffffffffffffffffffa0\n        /* \"--CODEGEN--\":47404:47413   */\n      dup9\n        /* \"--CODEGEN--\":21674:21678   */\n      dup8\n        /* \"--CODEGEN--\":21670:21690   */\n      sub\n      add\n        /* \"--CODEGEN--\":21665:21668   */\n      dup5\n        /* \"--CODEGEN--\":21658:21691   */\n      mstore\n        /* \"--CODEGEN--\":20317:20381   */\n      tag_715\n        /* \"--CODEGEN--\":20377:20380   */\n      dup7\n        /* \"--CODEGEN--\":21725:21731   */\n      dup4\n        /* \"--CODEGEN--\":21719:21732   */\n      mload\n        /* \"--CODEGEN--\":20317:20381   */\n      jump(tag_683)\n    tag_715:\n        /* \"--CODEGEN--\":21739:21829   */\n      swap6\n      pop\n        /* \"--CODEGEN--\":21929:21943   */\n      swap3\n      dup5\n      add\n      swap3\n        /* \"--CODEGEN--\":62284:62298   */\n      swap1\n      dup5\n      add\n      swap1\n        /* \"--CODEGEN--\":21640:21641   */\n      0x01\n        /* \"--CODEGEN--\":21633:21642   */\n      add\n        /* \"--CODEGEN--\":21593:21950   */\n      jump(tag_712)\n    tag_714:\n      pop\n        /* \"--CODEGEN--\":47565:47699   */\n      swap4\n      swap9\n        /* \"--CODEGEN--\":47386:47709   */\n      swap8\n      pop\n      pop\n      pop\n      pop\n      pop\n      pop\n      pop\n      pop\n      jump\n        /* \"--CODEGEN--\":47716:47934   */\n    tag_109:\n        /* \"--CODEGEN--\":64056:64122   */\n      0xffffffff00000000000000000000000000000000000000000000000000000000\n        /* \"--CODEGEN--\":64045:64123   */\n      swap2\n      swap1\n      swap2\n      and\n        /* \"--CODEGEN--\":24776:24812   */\n      dup2\n      mstore\n        /* \"--CODEGEN--\":47841:47843   */\n      0x20\n        /* \"--CODEGEN--\":47826:47844   */\n      add\n      swap1\n        /* \"--CODEGEN--\":47812:47934   */\n      jump\n        /* \"--CODEGEN--\":47941:48465   */\n    tag_164:\n      0x00\n        /* \"--CODEGEN--\":64056:64122   */\n      0xffffffff00000000000000000000000000000000000000000000000000000000\n        /* \"--CODEGEN--\":24805:24810   */\n      dup6\n        /* \"--CODEGEN--\":64045:64123   */\n      and\n        /* \"--CODEGEN--\":24783:24786   */\n      dup3\n        /* \"--CODEGEN--\":24776:24812   */\n      mstore\n        /* \"--CODEGEN--\":64807:64849   */\n      0xffffffffffffffffffffffffffffffffffffffff\n        /* \"--CODEGEN--\":20744:20749   */\n      dup5\n        /* \"--CODEGEN--\":64796:64850   */\n      and\n        /* \"--CODEGEN--\":48302:48304   */\n      0x20\n        /* \"--CODEGEN--\":48291:48300   */\n      dup4\n        /* \"--CODEGEN--\":48287:48305   */\n      add\n        /* \"--CODEGEN--\":20714:20751   */\n      mstore\n        /* \"--CODEGEN--\":48140:48142   */\n      0x60\n        /* \"--CODEGEN--\":48339:48341   */\n      0x40\n        /* \"--CODEGEN--\":48328:48337   */\n      dup4\n        /* \"--CODEGEN--\":48324:48342   */\n      add\n        /* \"--CODEGEN--\":48317:48365   */\n      mstore\n        /* \"--CODEGEN--\":48379:48455   */\n      tag_472\n        /* \"--CODEGEN--\":48140:48142   */\n      0x60\n        /* \"--CODEGEN--\":48129:48138   */\n      dup4\n        /* \"--CODEGEN--\":48125:48143   */\n      add\n        /* \"--CODEGEN--\":48441:48447   */\n      dup5\n        /* \"--CODEGEN--\":48379:48455   */\n      jump(tag_683)\n        /* \"--CODEGEN--\":48472:48778   */\n    tag_402:\n      0x00\n        /* \"--CODEGEN--\":48617:48619   */\n      0x20\n        /* \"--CODEGEN--\":48638:48655   */\n      dup3\n        /* \"--CODEGEN--\":48631:48678   */\n      mstore\n        /* \"--CODEGEN--\":48692:48768   */\n      tag_160\n        /* \"--CODEGEN--\":48617:48619   */\n      0x20\n        /* \"--CODEGEN--\":48606:48615   */\n      dup4\n        /* \"--CODEGEN--\":48602:48620   */\n      add\n        /* \"--CODEGEN--\":48754:48760   */\n      dup5\n        /* \"--CODEGEN--\":48692:48768   */\n      jump(tag_683)\n        /* \"--CODEGEN--\":48785:49190   */\n    tag_327:\n      0x00\n        /* \"--CODEGEN--\":48952:48954   */\n      0x40\n        /* \"--CODEGEN--\":48973:48990   */\n      dup3\n        /* \"--CODEGEN--\":48966:49013   */\n      mstore\n        /* \"--CODEGEN--\":49027:49103   */\n      tag_722\n        /* \"--CODEGEN--\":48952:48954   */\n      0x40\n        /* \"--CODEGEN--\":48941:48950   */\n      dup4\n        /* \"--CODEGEN--\":48937:48955   */\n      add\n        /* \"--CODEGEN--\":49089:49095   */\n      dup6\n        /* \"--CODEGEN--\":49027:49103   */\n      jump(tag_683)\n    tag_722:\n        /* \"--CODEGEN--\":49019:49103   */\n      swap1\n      pop\n        /* \"--CODEGEN--\":24299:24304   */\n      dup3\n        /* \"--CODEGEN--\":63879:63892   */\n      iszero\n        /* \"--CODEGEN--\":63872:63893   */\n      iszero\n        /* \"--CODEGEN--\":49176:49178   */\n      0x20\n        /* \"--CODEGEN--\":49165:49174   */\n      dup4\n        /* \"--CODEGEN--\":49161:49179   */\n      add\n        /* \"--CODEGEN--\":24272:24306   */\n      mstore\n        /* \"--CODEGEN--\":48923:49190   */\n      swap4\n      swap3\n      pop\n      pop\n      pop\n      jump\n        /* \"--CODEGEN--\":49197:49838   */\n    tag_334:\n      0x00\n        /* \"--CODEGEN--\":49454:49457   */\n      0x80\n        /* \"--CODEGEN--\":49476:49493   */\n      dup3\n        /* \"--CODEGEN--\":49469:49516   */\n      mstore\n        /* \"--CODEGEN--\":49530:49606   */\n      tag_724\n        /* \"--CODEGEN--\":49454:49457   */\n      0x80\n        /* \"--CODEGEN--\":49443:49452   */\n      dup4\n        /* \"--CODEGEN--\":49439:49458   */\n      add\n        /* \"--CODEGEN--\":49592:49598   */\n      dup7\n        /* \"--CODEGEN--\":49530:49606   */\n      jump(tag_683)\n    tag_724:\n        /* \"--CODEGEN--\":49522:49606   */\n      swap1\n      pop\n        /* \"--CODEGEN--\":24409:24414   */\n      dup4\n        /* \"--CODEGEN--\":49685:49687   */\n      0x20\n        /* \"--CODEGEN--\":49674:49683   */\n      dup4\n        /* \"--CODEGEN--\":49670:49688   */\n      add\n        /* \"--CODEGEN--\":24379:24416   */\n      mstore\n        /* \"--CODEGEN--\":49700:49828   */\n      tag_464\n        /* \"--CODEGEN--\":49824:49826   */\n      0x40\n        /* \"--CODEGEN--\":49813:49822   */\n      dup4\n        /* \"--CODEGEN--\":49809:49827   */\n      add\n        /* \"--CODEGEN--\":49800:49806   */\n      dup5\n        /* \"--CODEGEN--\":49700:49828   */\n      jump(tag_686)\n        /* \"--CODEGEN--\":50112:50346   */\n    tag_105:\n        /* \"--CODEGEN--\":50245:50247   */\n      0x20\n        /* \"--CODEGEN--\":50230:50248   */\n      dup2\n      add\n        /* \"--CODEGEN--\":66886:66887   */\n      0x07\n        /* \"--CODEGEN--\":66876:66888   */\n      dup4\n      lt\n        /* \"--CODEGEN--\":66866:66868   */\n      tag_728\n      jumpi\n        /* \"--CODEGEN--\":66892:66901   */\n      invalid\n        /* \"--CODEGEN--\":66866:66868   */\n    tag_728:\n        /* \"--CODEGEN--\":26147:26203   */\n      swap2\n      swap1\n      mstore\n        /* \"--CODEGEN--\":50216:50346   */\n      swap1\n      jump\n        /* \"--CODEGEN--\":50353:50786   */\n    tag_316:\n      0x00\n        /* \"--CODEGEN--\":26345:26350   */\n      dup4\n        /* \"--CODEGEN--\":26301:26304   */\n      dup3\n        /* \"--CODEGEN--\":26294:26352   */\n      mstore\n        /* \"--CODEGEN--\":50534:50536   */\n      0x40\n        /* \"--CODEGEN--\":50660:50662   */\n      0x20\n        /* \"--CODEGEN--\":50649:50658   */\n      dup4\n        /* \"--CODEGEN--\":50645:50663   */\n      add\n        /* \"--CODEGEN--\":50638:50686   */\n      mstore\n        /* \"--CODEGEN--\":50700:50776   */\n      tag_464\n        /* \"--CODEGEN--\":50534:50536   */\n      0x40\n        /* \"--CODEGEN--\":50523:50532   */\n      dup4\n        /* \"--CODEGEN--\":50519:50537   */\n      add\n        /* \"--CODEGEN--\":50762:50768   */\n      dup5\n        /* \"--CODEGEN--\":50700:50776   */\n      jump(tag_683)\n        /* \"--CODEGEN--\":50793:51209   */\n    tag_495:\n        /* \"--CODEGEN--\":50993:50995   */\n      0x20\n        /* \"--CODEGEN--\":51007:51054   */\n      dup1\n      dup3\n      mstore\n        /* \"--CODEGEN--\":26956:26958   */\n      0x10\n        /* \"--CODEGEN--\":50978:50996   */\n      swap1\n      dup3\n      add\n        /* \"--CODEGEN--\":62577:62596   */\n      mstore\n        /* \"--CODEGEN--\":26992:27010   */\n      0x71756575653a2062616420737461746500000000000000000000000000000000\n        /* \"--CODEGEN--\":62617:62631   */\n      0x40\n      dup3\n      add\n        /* \"--CODEGEN--\":26972:27011   */\n      mstore\n        /* \"--CODEGEN--\":27030:27042   */\n      0x60\n      add\n      swap1\n        /* \"--CODEGEN--\":50964:51209   */\n      jump\n        /* \"--CODEGEN--\":51216:51632   */\n    tag_352:\n        /* \"--CODEGEN--\":51416:51418   */\n      0x20\n        /* \"--CODEGEN--\":51430:51477   */\n      dup1\n      dup3\n      mstore\n        /* \"--CODEGEN--\":27281:27283   */\n      0x11\n        /* \"--CODEGEN--\":51401:51419   */\n      swap1\n      dup3\n      add\n        /* \"--CODEGEN--\":62577:62596   */\n      mstore\n        /* \"--CODEGEN--\":27317:27336   */\n      0x71756575653a2062616420636f6e666967000000000000000000000000000000\n        /* \"--CODEGEN--\":62617:62631   */\n      0x40\n      dup3\n      add\n        /* \"--CODEGEN--\":27297:27337   */\n      mstore\n        /* \"--CODEGEN--\":27356:27368   */\n      0x60\n      add\n      swap1\n        /* \"--CODEGEN--\":51387:51632   */\n      jump\n        /* \"--CODEGEN--\":51639:52055   */\n    tag_183:\n        /* \"--CODEGEN--\":51839:51841   */\n      0x20\n        /* \"--CODEGEN--\":51853:51900   */\n      dup1\n      dup3\n      mstore\n        /* \"--CODEGEN--\":27607:27608   */\n      0x09\n        /* \"--CODEGEN--\":51824:51842   */\n      swap1\n      dup3\n      add\n        /* \"--CODEGEN--\":62577:62596   */\n      mstore\n        /* \"--CODEGEN--\":27642:27653   */\n      0x61636c3a20617574680000000000000000000000000000000000000000000000\n        /* \"--CODEGEN--\":62617:62631   */\n      0x40\n      dup3\n      add\n        /* \"--CODEGEN--\":27622:27654   */\n      mstore\n        /* \"--CODEGEN--\":27673:27685   */\n      0x60\n      add\n      swap1\n        /* \"--CODEGEN--\":51810:52055   */\n      jump\n        /* \"--CODEGEN--\":52062:52478   */\n    tag_348:\n        /* \"--CODEGEN--\":52262:52264   */\n      0x20\n        /* \"--CODEGEN--\":52276:52323   */\n      dup1\n      dup3\n      mstore\n        /* \"--CODEGEN--\":27924:27926   */\n      0x10\n        /* \"--CODEGEN--\":52247:52265   */\n      swap1\n      dup3\n      add\n        /* \"--CODEGEN--\":62577:62596   */\n      mstore\n        /* \"--CODEGEN--\":27960:27978   */\n      0x71756575653a20626164206e6f6e636500000000000000000000000000000000\n        /* \"--CODEGEN--\":62617:62631   */\n      0x40\n      dup3\n      add\n        /* \"--CODEGEN--\":27940:27979   */\n      mstore\n        /* \"--CODEGEN--\":27998:28010   */\n      0x60\n      add\n      swap1\n        /* \"--CODEGEN--\":52233:52478   */\n      jump\n        /* \"--CODEGEN--\":52485:52901   */\n    tag_355:\n        /* \"--CODEGEN--\":52685:52687   */\n      0x20\n        /* \"--CODEGEN--\":52699:52746   */\n      dup1\n      dup3\n      mstore\n        /* \"--CODEGEN--\":28249:28251   */\n      0x10\n        /* \"--CODEGEN--\":52670:52688   */\n      swap1\n      dup3\n      add\n        /* \"--CODEGEN--\":62577:62596   */\n      mstore\n        /* \"--CODEGEN--\":28285:28303   */\n      0x71756575653a206261642064656c617900000000000000000000000000000000\n        /* \"--CODEGEN--\":62617:62631   */\n      0x40\n      dup3\n      add\n        /* \"--CODEGEN--\":28265:28304   */\n      mstore\n        /* \"--CODEGEN--\":28323:28335   */\n      0x60\n      add\n      swap1\n        /* \"--CODEGEN--\":52656:52901   */\n      jump\n        /* \"--CODEGEN--\":52908:53324   */\n    tag_325:\n        /* \"--CODEGEN--\":53108:53110   */\n      0x20\n        /* \"--CODEGEN--\":53122:53169   */\n      dup1\n      dup3\n      mstore\n        /* \"--CODEGEN--\":28574:28576   */\n      0x10\n        /* \"--CODEGEN--\":53093:53111   */\n      swap1\n      dup3\n      add\n        /* \"--CODEGEN--\":62577:62596   */\n      mstore\n        /* \"--CODEGEN--\":28610:28628   */\n      0x71756575653a2062616420726573657400000000000000000000000000000000\n        /* \"--CODEGEN--\":62617:62631   */\n      0x40\n      dup3\n      add\n        /* \"--CODEGEN--\":28590:28629   */\n      mstore\n        /* \"--CODEGEN--\":28648:28660   */\n      0x60\n      add\n      swap1\n        /* \"--CODEGEN--\":53079:53324   */\n      jump\n        /* \"--CODEGEN--\":53331:53747   */\n    tag_307:\n        /* \"--CODEGEN--\":53531:53533   */\n      0x20\n        /* \"--CODEGEN--\":53545:53592   */\n      dup1\n      dup3\n      mstore\n        /* \"--CODEGEN--\":28899:28901   */\n      0x13\n        /* \"--CODEGEN--\":53516:53534   */\n      swap1\n      dup3\n      add\n        /* \"--CODEGEN--\":62577:62596   */\n      mstore\n        /* \"--CODEGEN--\":28935:28956   */\n      0x71756575653a20626164206665652070756c6c00000000000000000000000000\n        /* \"--CODEGEN--\":62617:62631   */\n      0x40\n      dup3\n      add\n        /* \"--CODEGEN--\":28915:28957   */\n      mstore\n        /* \"--CODEGEN--\":28976:28988   */\n      0x60\n      add\n      swap1\n        /* \"--CODEGEN--\":53502:53747   */\n      jump\n        /* \"--CODEGEN--\":53754:54170   */\n    tag_358:\n        /* \"--CODEGEN--\":53954:53956   */\n      0x20\n        /* \"--CODEGEN--\":53968:54015   */\n      dup1\n      dup3\n      mstore\n        /* \"--CODEGEN--\":29227:29229   */\n      0x14\n        /* \"--CODEGEN--\":53939:53957   */\n      swap1\n      dup3\n      add\n        /* \"--CODEGEN--\":62577:62596   */\n      mstore\n        /* \"--CODEGEN--\":29263:29285   */\n      0x71756575653a20626164207375626d6974746572000000000000000000000000\n        /* \"--CODEGEN--\":62617:62631   */\n      0x40\n      dup3\n      add\n        /* \"--CODEGEN--\":29243:29286   */\n      mstore\n        /* \"--CODEGEN--\":29305:29317   */\n      0x60\n      add\n      swap1\n        /* \"--CODEGEN--\":53925:54170   */\n      jump\n        /* \"--CODEGEN--\":54177:54593   */\n    tag_388:\n        /* \"--CODEGEN--\":54377:54379   */\n      0x20\n        /* \"--CODEGEN--\":54391:54438   */\n      dup1\n      dup3\n      mstore\n        /* \"--CODEGEN--\":29556:29558   */\n      0x0f\n        /* \"--CODEGEN--\":54362:54380   */\n      swap1\n      dup3\n      add\n        /* \"--CODEGEN--\":62577:62596   */\n      mstore\n        /* \"--CODEGEN--\":29592:29609   */\n      0x71756575653a2065766964656e63650000000000000000000000000000000000\n        /* \"--CODEGEN--\":62617:62631   */\n      0x40\n      dup3\n      add\n        /* \"--CODEGEN--\":29572:29610   */\n      mstore\n        /* \"--CODEGEN--\":29629:29641   */\n      0x60\n      add\n      swap1\n        /* \"--CODEGEN--\":54348:54593   */\n      jump\n        /* \"--CODEGEN--\":54600:55016   */\n    tag_414:\n        /* \"--CODEGEN--\":54800:54802   */\n      0x20\n        /* \"--CODEGEN--\":54814:54861   */\n      dup1\n      dup3\n      mstore\n        /* \"--CODEGEN--\":29880:29882   */\n      0x0b\n        /* \"--CODEGEN--\":54785:54803   */\n      swap1\n      dup3\n      add\n        /* \"--CODEGEN--\":62577:62596   */\n      mstore\n        /* \"--CODEGEN--\":29916:29929   */\n      0x61636c3a2066726f7a656e000000000000000000000000000000000000000000\n        /* \"--CODEGEN--\":62617:62631   */\n      0x40\n      dup3\n      add\n        /* \"--CODEGEN--\":29896:29930   */\n      mstore\n        /* \"--CODEGEN--\":29949:29961   */\n      0x60\n      add\n      swap1\n        /* \"--CODEGEN--\":54771:55016   */\n      jump\n        /* \"--CODEGEN--\":55023:55439   */\n    tag_312:\n        /* \"--CODEGEN--\":55223:55225   */\n      0x20\n        /* \"--CODEGEN--\":55237:55284   */\n      dup1\n      dup3\n      mstore\n        /* \"--CODEGEN--\":30200:30202   */\n      0x12\n        /* \"--CODEGEN--\":55208:55226   */\n      swap1\n      dup3\n      add\n        /* \"--CODEGEN--\":62577:62596   */\n      mstore\n        /* \"--CODEGEN--\":30236:30256   */\n      0x71756575653a2062616420617070726f76650000000000000000000000000000\n        /* \"--CODEGEN--\":62617:62631   */\n      0x40\n      dup3\n      add\n        /* \"--CODEGEN--\":30216:30257   */\n      mstore\n        /* \"--CODEGEN--\":30276:30288   */\n      0x60\n      add\n      swap1\n        /* \"--CODEGEN--\":55194:55439   */\n      jump\n        /* \"--CODEGEN--\":55446:55862   */\n    tag_434:\n        /* \"--CODEGEN--\":55646:55648   */\n      0x20\n        /* \"--CODEGEN--\":55660:55707   */\n      dup1\n      dup3\n      mstore\n        /* \"--CODEGEN--\":30527:30529   */\n      0x15\n        /* \"--CODEGEN--\":55631:55649   */\n      swap1\n      dup3\n      add\n        /* \"--CODEGEN--\":62577:62596   */\n      mstore\n        /* \"--CODEGEN--\":30563:30586   */\n      0x71756575653a206261642073656e6420746f6b656e0000000000000000000000\n        /* \"--CODEGEN--\":62617:62631   */\n      0x40\n      dup3\n      add\n        /* \"--CODEGEN--\":30543:30587   */\n      mstore\n        /* \"--CODEGEN--\":30606:30618   */\n      0x60\n      add\n      swap1\n        /* \"--CODEGEN--\":55617:55862   */\n      jump\n        /* \"--CODEGEN--\":55869:56285   */\n    tag_278:\n        /* \"--CODEGEN--\":56069:56071   */\n      0x20\n        /* \"--CODEGEN--\":56083:56130   */\n      dup1\n      dup3\n      mstore\n        /* \"--CODEGEN--\":30857:30859   */\n      0x22\n        /* \"--CODEGEN--\":56054:56072   */\n      swap1\n      dup3\n      add\n        /* \"--CODEGEN--\":62577:62596   */\n      mstore\n        /* \"--CODEGEN--\":30893:30927   */\n      0x696e697469616c697a61626c653a20616c726561647920696e697469616c697a\n        /* \"--CODEGEN--\":62617:62631   */\n      0x40\n      dup3\n      add\n        /* \"--CODEGEN--\":30873:30928   */\n      mstore\n        /* \"--CODEGEN--\":30962:30966   */\n      0x6564000000000000000000000000000000000000000000000000000000000000\n        /* \"--CODEGEN--\":30948:30960   */\n      0x60\n      dup3\n      add\n        /* \"--CODEGEN--\":30941:30967   */\n      mstore\n        /* \"--CODEGEN--\":30986:30998   */\n      0x80\n      add\n      swap1\n        /* \"--CODEGEN--\":56040:56285   */\n      jump\n        /* \"--CODEGEN--\":56292:56708   */\n    tag_247:\n        /* \"--CODEGEN--\":56492:56494   */\n      0x20\n        /* \"--CODEGEN--\":56506:56553   */\n      dup1\n      dup3\n      mstore\n        /* \"--CODEGEN--\":31237:31239   */\n      0x10\n        /* \"--CODEGEN--\":56477:56495   */\n      swap1\n      dup3\n      add\n        /* \"--CODEGEN--\":62577:62596   */\n      mstore\n        /* \"--CODEGEN--\":31273:31291   */\n      0x71756575653a2077616974206d6f726500000000000000000000000000000000\n        /* \"--CODEGEN--\":62617:62631   */\n      0x40\n      dup3\n      add\n        /* \"--CODEGEN--\":31253:31292   */\n      mstore\n        /* \"--CODEGEN--\":31311:31323   */\n      0x60\n      add\n      swap1\n        /* \"--CODEGEN--\":56463:56708   */\n      jump\n        /* \"--CODEGEN--\":56715:57131   */\n    tag_462:\n        /* \"--CODEGEN--\":56915:56917   */\n      0x20\n        /* \"--CODEGEN--\":56929:56976   */\n      dup1\n      dup3\n      mstore\n        /* \"--CODEGEN--\":31908:31910   */\n      0x14\n        /* \"--CODEGEN--\":56900:56918   */\n      swap1\n      dup3\n      add\n        /* \"--CODEGEN--\":62577:62596   */\n      mstore\n        /* \"--CODEGEN--\":31944:31966   */\n      0x71756575653a206261642067657420746f6b656e000000000000000000000000\n        /* \"--CODEGEN--\":62617:62631   */\n      0x40\n      dup3\n      add\n        /* \"--CODEGEN--\":31924:31967   */\n      mstore\n        /* \"--CODEGEN--\":31986:31998   */\n      0x60\n      add\n      swap1\n        /* \"--CODEGEN--\":56886:57131   */\n      jump\n        /* \"--CODEGEN--\":57138:57554   */\n    tag_487:\n        /* \"--CODEGEN--\":57338:57340   */\n      0x20\n        /* \"--CODEGEN--\":57352:57399   */\n      dup1\n      dup3\n      mstore\n        /* \"--CODEGEN--\":32237:32239   */\n      0x0f\n        /* \"--CODEGEN--\":57323:57341   */\n      swap1\n      dup3\n      add\n        /* \"--CODEGEN--\":62577:62596   */\n      mstore\n        /* \"--CODEGEN--\":32273:32290   */\n      0x61636c3a2062616420667265657a650000000000000000000000000000000000\n        /* \"--CODEGEN--\":62617:62631   */\n      0x40\n      dup3\n      add\n        /* \"--CODEGEN--\":32253:32291   */\n      mstore\n        /* \"--CODEGEN--\":32310:32322   */\n      0x60\n      add\n      swap1\n        /* \"--CODEGEN--\":57309:57554   */\n      jump\n        /* \"--CODEGEN--\":57561:57977   */\n    tag_229:\n        /* \"--CODEGEN--\":57761:57763   */\n      0x20\n        /* \"--CODEGEN--\":57775:57822   */\n      dup1\n      dup3\n      mstore\n        /* \"--CODEGEN--\":32561:32563   */\n      0x11\n        /* \"--CODEGEN--\":57746:57764   */\n      swap1\n      dup3\n      add\n        /* \"--CODEGEN--\":62577:62596   */\n      mstore\n        /* \"--CODEGEN--\":32597:32616   */\n      0x71756575653a20756e7265736f6c766564000000000000000000000000000000\n        /* \"--CODEGEN--\":62617:62631   */\n      0x40\n      dup3\n      add\n        /* \"--CODEGEN--\":32577:32617   */\n      mstore\n        /* \"--CODEGEN--\":32636:32648   */\n      0x60\n      add\n      swap1\n        /* \"--CODEGEN--\":57732:57977   */\n      jump\n        /* \"--CODEGEN--\":57984:58350   */\n    tag_405:\n      0x00\n        /* \"--CODEGEN--\":58159:58161   */\n      0x20\n        /* \"--CODEGEN--\":58180:58197   */\n      dup3\n        /* \"--CODEGEN--\":58173:58220   */\n      mstore\n        /* \"--CODEGEN--\":58234:58340   */\n      tag_160\n        /* \"--CODEGEN--\":58159:58161   */\n      0x20\n        /* \"--CODEGEN--\":58148:58157   */\n      dup4\n        /* \"--CODEGEN--\":58144:58162   */\n      add\n        /* \"--CODEGEN--\":58326:58332   */\n      dup5\n        /* \"--CODEGEN--\":58234:58340   */\n      jump(tag_688)\n        /* \"--CODEGEN--\":58357:58735   */\n    tag_314:\n      0x00\n        /* \"--CODEGEN--\":58538:58540   */\n      0x20\n        /* \"--CODEGEN--\":58559:58576   */\n      dup3\n        /* \"--CODEGEN--\":58552:58599   */\n      mstore\n        /* \"--CODEGEN--\":37684:37700   */\n      dup3\n        /* \"--CODEGEN--\":37678:37701   */\n      mload\n        /* \"--CODEGEN--\":37609:37613   */\n      0x40\n        /* \"--CODEGEN--\":58538:58540   */\n      0x20\n        /* \"--CODEGEN--\":58527:58536   */\n      dup5\n        /* \"--CODEGEN--\":58523:58541   */\n      add\n        /* \"--CODEGEN--\":37714:37752   */\n      mstore\n        /* \"--CODEGEN--\":37767:37870   */\n      tag_751\n        /* \"--CODEGEN--\":37600:37614   */\n      0x60\n        /* \"--CODEGEN--\":58527:58536   */\n      dup5\n        /* \"--CODEGEN--\":37600:37614   */\n      add\n        /* \"--CODEGEN--\":37851:37863   */\n      dup3\n        /* \"--CODEGEN--\":37767:37870   */\n      jump(tag_693)\n    tag_751:\n        /* \"--CODEGEN--\":58538:58540   */\n      0x20\n        /* \"--CODEGEN--\":37950:37955   */\n      dup6\n        /* \"--CODEGEN--\":37946:37962   */\n      add\n        /* \"--CODEGEN--\":37940:37963   */\n      mload\n        /* \"--CODEGEN--\":37920:37963   */\n      swap2\n      pop\n        /* \"--CODEGEN--\":37999:38013   */\n      0xffffffffffffffffffffffffffffffffffffffffffffffffffffffffffffffe0\n        /* \"--CODEGEN--\":58527:58536   */\n      dup5\n        /* \"--CODEGEN--\":38003:38007   */\n      dup3\n        /* \"--CODEGEN--\":37999:38013   */\n      sub\n      add\n        /* \"--CODEGEN--\":37609:37613   */\n      0x40\n        /* \"--CODEGEN--\":58527:58536   */\n      dup6\n        /* \"--CODEGEN--\":37983:37997   */\n      add\n        /* \"--CODEGEN--\":37976:38014   */\n      mstore\n        /* \"--CODEGEN--\":38029:38130   */\n      tag_472\n        /* \"--CODEGEN--\":38125:38129   */\n      dup2\n        /* \"--CODEGEN--\":38111:38123   */\n      dup4\n        /* \"--CODEGEN--\":38029:38130   */\n      jump(tag_688)\n        /* \"--CODEGEN--\":58742:59112   */\n    tag_367:\n      0x00\n        /* \"--CODEGEN--\":58919:58921   */\n      0x20\n        /* \"--CODEGEN--\":58940:58957   */\n      dup3\n        /* \"--CODEGEN--\":58933:58980   */\n      mstore\n        /* \"--CODEGEN--\":58994:59102   */\n      tag_160\n        /* \"--CODEGEN--\":58919:58921   */\n      0x20\n        /* \"--CODEGEN--\":58908:58917   */\n      dup4\n        /* \"--CODEGEN--\":58904:58922   */\n      add\n        /* \"--CODEGEN--\":59088:59094   */\n      dup5\n        /* \"--CODEGEN--\":58994:59102   */\n      jump(tag_693)\n        /* \"--CODEGEN--\":59348:59604   */\n    tag_522:\n        /* \"--CODEGEN--\":59410:59412   */\n      0x40\n        /* \"--CODEGEN--\":59404:59413   */\n      mload\n        /* \"--CODEGEN--\":59436:59453   */\n      dup2\n      dup2\n      add\n        /* \"--CODEGEN--\":59511:59529   */\n      0xffffffffffffffff\n        /* \"--CODEGEN--\":59496:59530   */\n      dup2\n      gt\n        /* \"--CODEGEN--\":59532:59554   */\n      dup3\n      dup3\n      lt\n        /* \"--CODEGEN--\":59493:59555   */\n      or\n        /* \"--CODEGEN--\":59490:59492   */\n      iszero\n      tag_757\n      jumpi\n        /* \"--CODEGEN--\":59568:59569   */\n      0x00\n      dup1\n        /* \"--CODEGEN--\":59558:59570   */\n      revert\n        /* \"--CODEGEN--\":59490:59492   */\n    tag_757:\n        /* \"--CODEGEN--\":59410:59412   */\n      0x40\n        /* \"--CODEGEN--\":59577:59599   */\n      mstore\n        /* \"--CODEGEN--\":59388:59604   */\n      swap2\n      swap1\n      pop\n      jump\n        /* \"--CODEGEN--\":59611:59924   */\n    tag_521:\n      0x00\n        /* \"--CODEGEN--\":59779:59797   */\n      0xffffffffffffffff\n        /* \"--CODEGEN--\":59771:59777   */\n      dup3\n        /* \"--CODEGEN--\":59768:59798   */\n      gt\n        /* \"--CODEGEN--\":59765:59767   */\n      iszero\n      tag_759\n      jumpi\n      dup1\n      dup2\n        /* \"--CODEGEN--\":59801:59813   */\n      revert\n        /* \"--CODEGEN--\":59765:59767   */\n    tag_759:\n      pop\n        /* \"--CODEGEN--\":59846:59850   */\n      0x20\n        /* \"--CODEGEN--\":59834:59851   */\n      swap1\n      dup2\n      mul\n        /* \"--CODEGEN--\":59899:59914   */\n      add\n      swap1\n        /* \"--CODEGEN--\":59702:59924   */\n      jump\n        /* \"--CODEGEN--\":60602:60923   */\n    tag_536:\n      0x00\n        /* \"--CODEGEN--\":60745:60763   */\n      0xffffffffffffffff\n        /* \"--CODEGEN--\":60737:60743   */\n      dup3\n        /* \"--CODEGEN--\":60734:60764   */\n      gt\n        /* \"--CODEGEN--\":60731:60733   */\n      iszero\n      tag_761\n      jumpi\n      dup1\n      dup2\n        /* \"--CODEGEN--\":60767:60779   */\n      revert\n        /* \"--CODEGEN--\":60731:60733   */\n    tag_761:\n      pop\n        /* \"--CODEGEN--\":60844:60848   */\n      0x1f\n        /* \"--CODEGEN--\":60821:60838   */\n      add\n        /* \"--CODEGEN--\":60840:60849   */\n      0xffffffffffffffffffffffffffffffffffffffffffffffffffffffffffffffe0\n        /* \"--CODEGEN--\":60817:60850   */\n      and\n        /* \"--CODEGEN--\":60908:60912   */\n      0x20\n        /* \"--CODEGEN--\":60898:60913   */\n      add\n      swap1\n        /* \"--CODEGEN--\":60668:60923   */\n      jump\n        /* \"--CODEGEN--\":65966:66234   */\n    tag_545:\n        /* \"--CODEGEN--\":66031:66032   */\n      0x00\n        /* \"--CODEGEN--\":66038:66139   */\n    tag_763:\n        /* \"--CODEGEN--\":66052:66058   */\n      dup4\n        /* \"--CODEGEN--\":66049:66050   */\n      dup2\n        /* \"--CODEGEN--\":66046:66059   */\n      lt\n        /* \"--CODEGEN--\":66038:66139   */\n      iszero\n      tag_765\n      jumpi\n        /* \"--CODEGEN--\":66119:66130   */\n      dup2\n      dup2\n      add\n        /* \"--CODEGEN--\":66113:66131   */\n      mload\n        /* \"--CODEGEN--\":66100:66111   */\n      dup4\n      dup3\n      add\n        /* \"--CODEGEN--\":66093:66132   */\n      mstore\n        /* \"--CODEGEN--\":66074:66076   */\n      0x20\n        /* \"--CODEGEN--\":66067:66077   */\n      add\n        /* \"--CODEGEN--\":66038:66139   */\n      jump(tag_763)\n    tag_765:\n        /* \"--CODEGEN--\":66154:66160   */\n      dup4\n        /* \"--CODEGEN--\":66151:66152   */\n      dup2\n        /* \"--CODEGEN--\":66148:66161   */\n      gt\n        /* \"--CODEGEN--\":66145:66147   */\n      iszero\n      tag_379\n      jumpi\n      pop\n      pop\n        /* \"--CODEGEN--\":66031:66032   */\n      0x00\n        /* \"--CODEGEN--\":66201:66217   */\n      swap2\n      add\n        /* \"--CODEGEN--\":66194:66221   */\n      mstore\n        /* \"--CODEGEN--\":66015:66234   */\n      jump\n        /* \"--CODEGEN--\":66915:67032   */\n    tag_515:\n        /* \"--CODEGEN--\":64807:64849   */\n      0xffffffffffffffffffffffffffffffffffffffff\n        /* \"--CODEGEN--\":67002:67007   */\n      dup2\n        /* \"--CODEGEN--\":64796:64850   */\n      and\n        /* \"--CODEGEN--\":66977:66982   */\n      dup2\n        /* \"--CODEGEN--\":66974:67009   */\n      eq\n        /* \"--CODEGEN--\":66964:66966   */\n      tag_768\n      jumpi\n        /* \"--CODEGEN--\":67023:67024   */\n      0x00\n      dup1\n        /* \"--CODEGEN--\":67013:67025   */\n      revert\n        /* \"--CODEGEN--\":66964:66966   */\n    tag_768:\n        /* \"--CODEGEN--\":66958:67032   */\n      pop\n      jump\n        /* \"--CODEGEN--\":67039:67150   */\n    tag_605:\n        /* \"--CODEGEN--\":67120:67125   */\n      dup1\n        /* \"--CODEGEN--\":63879:63892   */\n      iszero\n        /* \"--CODEGEN--\":63872:63893   */\n      iszero\n        /* \"--CODEGEN--\":67098:67103   */\n      dup2\n        /* \"--CODEGEN--\":67095:67127   */\n      eq\n        /* \"--CODEGEN--\":67085:67087   */\n      tag_768\n      jumpi\n        /* \"--CODEGEN--\":67141:67142   */\n      0x00\n      dup1\n        /* \"--CODEGEN--\":67131:67143   */\n      revert\n        /* \"--CODEGEN--\":67281:67396   */\n    tag_625:\n        /* \"--CODEGEN--\":64056:64122   */\n      0xffffffff00000000000000000000000000000000000000000000000000000000\n        /* \"--CODEGEN--\":67366:67371   */\n      dup2\n        /* \"--CODEGEN--\":64045:64123   */\n      and\n        /* \"--CODEGEN--\":67342:67347   */\n      dup2\n        /* \"--CODEGEN--\":67339:67373   */\n      eq\n        /* \"--CODEGEN--\":67329:67331   */\n      tag_768\n      jumpi\n        /* \"--CODEGEN--\":67387:67388   */\n      0x00\n      dup1\n        /* \"--CODEGEN--\":67377:67389   */\n      revert\n\n    auxdata: 0xa264697066735822122097e187a17f4c8613758160880a23c01440579ce7b8548b427685e211b4c65b6264736f6c63430006080033\n}\n",
				"bytecode": {
					"linkReferences": {},
					"object": "60806040523480156200001157600080fd5b506040516200415c3803806200415c8339810160408190526200003491620005a4565b818060026040516200004690620006aa565b90815260200160405180910390205460001415620000725762000072816001600160e01b036200009216565b506200008a905082826001600160e01b036200016c16565b505062000857565b604051806040016040528060038152602001621858db60ea1b815250600281604051620000c091906200068c565b908152602001604051809103902054600014620000fa5760405162461bcd60e51b8152600401620000f19062000707565b60405180910390fd5b436002826040516200010d91906200068c565b908152604051908190036020019020556200013963161b7d8160e21b836001600160e01b03620002ad16565b806040516200014991906200068c565b604051908190038120906000805160206200413c83398151915290600090a25050565b8160026040516200017d90620006aa565b90815260200160405180910390205460001415620001a957620001a9816001600160e01b036200009216565b60405180604001604052806005815260200164717565756560d81b815250600281604051620001d991906200068c565b9081526020016040518091039020546000146200020a5760405162461bcd60e51b8152600401620000f19062000707565b436002826040516200021d91906200068c565b9081526040519081900360200190205562000241836001600160e01b03620002c816565b506200025d6388f3ee6960e01b6001600160e01b036200032a16565b620002786322f8ea5560e11b6001600160e01b036200032a16565b806040516200028891906200068c565b604051908190038120906000805160206200413c83398151915290600090a250505050565b620002c4828260026001600160e01b036200038b16565b5050565b6000620002e0826200047560201b620019bf1760201c565b60048190556040513391907f0a61dcdfcdfc6da74a563de8455cc4ae6d6c9d0b442eb2f7309e6b31e4680d79906200031a90869062000772565b60405180910390a3505060045490565b6001600160e01b0319811660009081526020819052604090819020805460ff19166001179055517fbf5e1f87f5ab65b58074cd29244d7c487a948983cda4b932e0f966b62bd34aca9062000380908390620006b9565b60405180910390a150565b6200039f836001600160e01b03620004a716565b15620003bf5760405162461bcd60e51b8152600401620000f190620006e2565b6001600160a01b03821660011415620003ec5760405162461bcd60e51b8152600401620000f19062000749565b6001600160e01b0319831660008181526003602090815260408083206001600160a01b03878116808652919093529281902080546001600160a01b0319169286169290921790915551909133917fc62063b81f7036fd97a0dc546516e99f11004d2d76ca0fddd3866346c86e70919062000468908690620006ce565b60405180910390a4505050565b6000816040516020016200048a919062000772565b604051602081830303815290604052805190602001209050919050565b6001600160e01b031916600090815260036020908152604080832060018085529252909120546001600160a01b03161490565b80516001600160a01b0381168114620004f257600080fd5b92915050565b600082601f83011262000509578081fd5b81516001600160401b038111156200051f578182fd5b62000534601f8201601f1916602001620007fd565b91508082528360208285010111156200054c57600080fd5b6200055f81602084016020860162000824565b5092915050565b60006040828403121562000578578081fd5b620005846040620007fd565b9050620005928383620004da565b81526020820151602082015292915050565b60008060408385031215620005b7578182fd5b620005c38484620004da565b60208401519092506001600160401b0380821115620005e0578283fd5b81850160e08188031215620005f3578384fd5b620005ff60a0620007fd565b92508051835262000614876020830162000566565b602084015262000628876060830162000566565b60408401526200063c8760a08301620004da565b606084015260c08101518281111562000653578485fd5b6200066188828401620004f8565b6080850152505050809150509250929050565b80516001600160a01b03168252602090810151910152565b60008251620006a081846020870162000824565b9190910192915050565b621858db60ea1b815260030190565b6001600160e01b031991909116815260200190565b6001600160a01b0391909116815260200190565b6020808252600b908201526a30b1b61d10333937bd32b760a91b604082015260600190565b60208082526022908201527f696e697469616c697a61626c653a20616c726561647920696e697469616c697a604082015261195960f21b606082015260800190565b6020808252600f908201526e61636c3a2062616420667265657a6560881b604082015260600190565b60006020825282516020830152602083015162000793604084018262000674565b506040830151620007a8608084018262000674565b5060608301516001600160a01b031660c0830152608083015160e08084015280516101008401819052610120620007e6828287016020860162000824565b80601f19601f840116860101935050505092915050565b6040518181016001600160401b03811182821017156200081c57600080fd5b604052919050565b60005b838110156200084157818101518382015260200162000827565b8381111562000851576000848401525b50505050565b6138d580620008676000396000f3fe608060405234801561001057600080fd5b50600436106101b95760003560e01c80637c10dea6116100f9578063b8ebe05e11610097578063c04c87b811610071578063c04c87b8146103b7578063c8182af0146103ca578063cc1d4cab146103dd578063e1f1176d146103f0576101b9565b8063b8ebe05e1461037e578063b9e9823f14610391578063bdf9a726146103a4576101b9565b8063977d8964116100d3578063977d89641461033d578063a157a10d14610350578063a215722714610363578063affed0e014610376576101b9565b80637c10dea6146102e85780637e8c7f081461030857806396fc8abd1461031d576101b9565b80633b1c5fc6116101665780635884973411610140578063588497341461029c57806359b6907a146102af57806370576158146102c257806372896761146102d5576101b9565b80633b1c5fc614610256578063495a98251461027657806355a3315914610289576101b9565b80632a0d403e116101975780632a0d403e1461020f578063311a6c56146102305780633a139c7114610243576101b9565b806301ffc9a7146101be578063097c8108146101e75780631c47671b146101fa575b600080fd5b6101d16101cc366004612aea565b6103f8565b6040516101de9190613195565b60405180910390f35b6101d16101f5366004612b3e565b610442565b61020d610208366004612944565b6106c4565b005b61022261021d366004612d03565b610804565b6040516101de9291906131a9565b61020d61023e366004612de5565b61099f565b610222610251366004612c79565b610a60565b610269610264366004612be8565b610b5f565b6040516101de91906131a0565b6101d1610284366004612aea565b610b7c565b610222610297366004612c79565b610bd4565b61020d6102aa366004612b06565b610c91565b61020d6102bd3660046128f6565b610d1a565b6102696102d0366004612cac565b610e7e565b6102696102e3366004612c46565b611360565b6102fb6102f6366004612a01565b6113d1565b6040516101de9190613312565b6103106113e6565b6040516101de919061322f565b61033061032b366004612b06565b61140a565b6040516101de91906130e5565b61026961034b366004612c79565b61143d565b61020d61035e366004612b06565b611613565b61020d610371366004612b9e565b61169c565b61026961172c565b61020d61038c366004612c79565b611732565b61020d61039f366004612d5e565b6117f5565b61020d6103b2366004612aea565b61180d565b61020d6103c5366004612aaf565b611899565b6103306103d8366004612a01565b611974565b6102696103eb366004612c13565b61199c565b6102696119b9565b7fffffffff00000000000000000000000000000000000000000000000000000000811660009081526020819052604081205460ff168061043c575061043c826119ef565b92915050565b7fffffffff000000000000000000000000000000000000000000000000000000008316600090815260036020908152604080832033845290915281205473ffffffffffffffffffffffffffffffffffffffff16801561057b5773ffffffffffffffffffffffffffffffffffffffff8116600214156104c45760019150506106bd565b6040517f097c810800000000000000000000000000000000000000000000000000000000815273ffffffffffffffffffffffffffffffffffffffff82169063097c81089061051a9088908890889060040161325c565b602060405180830381600087803b15801561053457600080fd5b505af1158015610548573d6000803e3d6000fd5b505050506040513d601f19601f8201168201806040525081019061056c91906129e5565b1561057b5760019150506106bd565b7fffffffff000000000000000000000000000000000000000000000000000000008516600090815260036020908152604080832073ffffffffffffffffffffffffffffffffffffffff8085529252909120541680156106b65773ffffffffffffffffffffffffffffffffffffffff8116600214156105fe576001925050506106bd565b6040517f097c810800000000000000000000000000000000000000000000000000000000815273ffffffffffffffffffffffffffffffffffffffff82169063097c8108906106549089908990899060040161325c565b602060405180830381600087803b15801561066e57600080fd5b505af1158015610682573d6000803e3d6000fd5b505050506040513d601f19601f820116820180604052508101906106a691906129e5565b156106b6576001925050506106bd565b6000925050505b9392505050565b60408051602036601f81018290048202830182019093528282527f586df604000000000000000000000000000000000000000000000000000000009261072792849233926000918190840183828082843760009201919091525061044292505050565b61074c5760405162461bcd60e51b8152600401610743906133ad565b60405180910390fd5b60005b82518110156107ff576107606124a6565b83828151811061076c57fe5b602002602001015190506000600281111561078357fe5b8151600281111561079057fe5b14156107ad576107a881602001518260400151611a46565b6107f6565b6001815160028111156107bc57fe5b14156107d4576107a881602001518260400151611a52565b6002815160028111156107e357fe5b14156107f6576107f68160200151611b20565b5060010161074f565b505050565b60006060600061081385611bd8565b9050600260008281526006602081905260409091205460ff169081111561083657fe5b14156108b05784602001516060015173ffffffffffffffffffffffffffffffffffffffff16638bb04875856040518263ffffffff1660e01b815260040161087d91906131a0565b600060405180830381600087803b15801561089757600080fd5b505af11580156108ab573d6000803e3d6000fd5b505050505b60008181526006602052604090205460ff1633827f027d8a5d945eb361475964ed2c71b8332b27af2d630ab5daf829d67afd2584e660038460068111156108f357fe5b146040516109019190613195565b60405180910390a3600381600681111561091757fe5b14156109315761092686610bd4565b935093505050610998565b600481600681111561093f57fe5b1461095c5760405162461bcd60e51b8152600401610743906136d5565b61096586611732565b6040805160008082526020820190925281610990565b606081526020019060019003908161097b5790505b509350935050505b9250929050565b3360008181526008602090815260408083208684529091529020546109ec6002600485146109ce5760046109d1565b60035b6000848152600660205260409020919063ffffffff611bfc16565b73ffffffffffffffffffffffffffffffffffffffff8216600081815260086020908152604080832088845290915280822091909155518591907f56c8631a8915c0d362dbe57a61215fdde954f73f81c8a3a1f55572fb015207b190610a529087906131a0565b60405180910390a350505050565b60006060633a139c7160e01b610aae81336000368080601f01602080910402602001604051908101604052809392919081815260200183838082843760009201919091525061044292505050565b610aca5760405162461bcd60e51b8152600401610743906133ad565b83516020015167ffffffffffffffff42161015610af95760405162461bcd60e51b815260040161074390613630565b6000610b0485611bd8565b6000818152600660208190526040909120919250610b2b919060019063ffffffff611bfc16565b8451604001516020808701510151610b489163ffffffff611c1016565b8451610b549082611ccb565b935093505050915091565b600860209081526000928352604080842090915290825290205481565b7fffffffff00000000000000000000000000000000000000000000000000000000166000908152600360209081526040808320600180855292529091205473ffffffffffffffffffffffffffffffffffffffff161490565b600060606000610be384611bd8565b6000818152600660208190526040909120919250610c0a919060039063ffffffff611bfc16565b8351604001516020808601510151610c279163ffffffff611c1016565b8351604090810151602086015190910151610c479163ffffffff611c1016565b600081815260076020526040902080547fffffffffffffffffffffffff00000000000000000000000000000000000000001690558351610c879082611ccb565b9250925050915091565b60408051602036601f81018290048202830182019093528282527f586df6040000000000000000000000000000000000000000000000000000000092610cf492849233926000918190840183828082843760009201919091525061044292505050565b610d105760405162461bcd60e51b8152600401610743906133ad565b6107ff8383611a52565b816002604051610d2990612ffb565b90815260200160405180910390205460001415610d4957610d4981611dc5565b6040518060400160405280600581526020017f7175657565000000000000000000000000000000000000000000000000000000815250600281604051610d8f9190612fdf565b908152602001604051809103902054600014610dbd5760405162461bcd60e51b8152600401610743906135d3565b43600282604051610dce9190612fdf565b90815260405190819003602001902055610de783611ec6565b50610e117f88f3ee6900000000000000000000000000000000000000000000000000000000611f19565b610e3a7f45f1d4aa00000000000000000000000000000000000000000000000000000000611f19565b80604051610e489190612fdf565b604051908190038120907f7bc2a48a4a566e237a12186f19d985b0f76afc9d5290601edac19876253670c290600090a250505050565b6000637057615860e01b610eca81336000368080601f01602080910402602001604051908101604052809392919081815260200183838082843760009201919091525061044292505050565b610ee65760405162461bcd60e51b8152600401610743906133ad565b6000610ef185611bd8565b600081815260076020908152604080832080547fffffffffffffffffffffffff0000000000000000000000000000000000000000163317905560069091529020909150610f47906001600263ffffffff611bfc16565b610f4f6124c8565b50602085015160400151610f69813363ffffffff611fae16565b6000866020015160600151905060008060008373ffffffffffffffffffffffffffffffffffffffff16637b751b9e6040518163ffffffff1660e01b815260040160606040518083038186803b158015610fc157600080fd5b505afa158015610fd5573d6000803e3d6000fd5b505050506040513d601f19601f82011682018060405250810190610ff991906128b4565b9194509250905061102873ffffffffffffffffffffffffffffffffffffffff831633308463ffffffff61206b16565b6110445760405162461bcd60e51b815260040161074390613489565b61106b73ffffffffffffffffffffffffffffffffffffffff8316848363ffffffff61212116565b6110875760405162461bcd60e51b815260040161074390613565565b8373ffffffffffffffffffffffffffffffffffffffff1663c13517e160028c6040516020016110b6919061371f565b6040516020818303038152906040526040518363ffffffff1660e01b81526004016110e2929190613326565b602060405180830381600087803b1580156110fc57600080fd5b505af1158015611110573d6000803e3d6000fd5b505050506040513d601f19601f820116820180604052508101906111349190612d46565b975061115e73ffffffffffffffffffffffffffffffffffffffff831684600063ffffffff61212116565b61117a5760405162461bcd60e51b815260040161074390613452565b89600001516040015173ffffffffffffffffffffffffffffffffffffffff16888573ffffffffffffffffffffffffffffffffffffffff167f1988e4d59f596ba1a2d81e06874704a62502463ae6d99154f923e5edeb98392b8d6000015160c0015160016040516111eb9291906132c6565b60405180910390a43373ffffffffffffffffffffffffffffffffffffffff16888573ffffffffffffffffffffffffffffffffffffffff167f1988e4d59f596ba1a2d81e06874704a62502463ae6d99154f923e5edeb98392b8c60016040516112549291906132c6565b60405180910390a46040517f7e9adccf00000000000000000000000000000000000000000000000000000000815273ffffffffffffffffffffffffffffffffffffffff851690637e9adccf906112ae908b906004016131a0565b600060405180830381600087803b1580156112c857600080fd5b505af11580156112dc573d6000803e3d6000fd5b50505073ffffffffffffffffffffffffffffffffffffffff851660009081526008602090815260408083208c8452909152908190208890555133915087907f429df837eb45b6713f725a0d3e57db939fd7dd7d58bb3cd967fa37091572db9f9061134b908d908d908b906132ea565b60405180910390a35050505050505092915050565b6000637289676160e01b6113ac81336000368080601f01602080910402602001604051908101604052809392919081815260200183838082843760009201919091525061044292505050565b6113c85760405162461bcd60e51b8152600401610743906133ad565b6106bd83611ec6565b60066020526000908152604090205460ff1681565b7f586df6040000000000000000000000000000000000000000000000000000000081565b600360209081526000928352604080842090915290825290205473ffffffffffffffffffffffffffffffffffffffff1681565b600063977d896460e01b61148981336000368080601f01602080910402602001604051908101604052809392919081815260200183838082843760009201919091525061044292505050565b6114a55760405162461bcd60e51b8152600401610743906133ad565b6005805460010190819055835151146114d05760405162461bcd60e51b8152600401610743906133e4565b60006114df84602001516119bf565b905060045481146115025760405162461bcd60e51b815260040161074390613376565b836020015160000151420184600001516020015110156115345760405162461bcd60e51b81526004016107439061341b565b83516040015173ffffffffffffffffffffffffffffffffffffffff16331461156e5760405162461bcd60e51b8152600401610743906134c0565b61158461157e85600001516121d2565b8261223a565b60008181526006602052604081209194506115a79190600163ffffffff611bfc16565b6115af6124c8565b5060208085015101518451604001516115cf90829063ffffffff611fae16565b837f67f87ff46443c95843c7bd72a026dd23ba0015528ce9f8f15c5c6917645034ef86600001516040516116039190613776565b60405180910390a2505050919050565b60408051602036601f81018290048202830182019093528282527f586df604000000000000000000000000000000000000000000000000000000009261167692849233926000918190840183828082843760009201919091525061044292505050565b6116925760405162461bcd60e51b8152600401610743906133ad565b6107ff8383611a46565b60408051602036601f81018290048202830182019093528282527f586df60400000000000000000000000000000000000000000000000000000000926116ff92849233926000918190840183828082843760009201919091525061044292505050565b61171b5760405162461bcd60e51b8152600401610743906133ad565b611726848484612275565b50505050565b60055481565b600061173d82611bd8565b6000818152600660205260409020909150611761906004600563ffffffff611bfc16565b600081815260076020908152604090912054838201519091015173ffffffffffffffffffffffffffffffffffffffff909116906117a4908263ffffffff611c1016565b6020830151604001516117bd908263ffffffff611c1016565b50600090815260076020526040902080547fffffffffffffffffffffffff000000000000000000000000000000000000000016905550565b60405162461bcd60e51b8152600401610743906134f7565b60408051602036601f81018290048202830182019093528282527f586df604000000000000000000000000000000000000000000000000000000009261187092849233926000918190840183828082843760009201919091525061044292505050565b61188c5760405162461bcd60e51b8152600401610743906133ad565b61189582611b20565b5050565b63c04c87b860e01b6118e381336000368080601f01602080910402602001604051908101604052809392919081815260200183838082843760009201919091525061044292505050565b6118ff5760405162461bcd60e51b8152600401610743906133ad565b6000838152600660205260409020611920906001600563ffffffff611bfc16565b3373ffffffffffffffffffffffffffffffffffffffff16837fe2530b9681f9726904f9ca7fe725c0c53ea1b72370981ac6a5beaa9758c8c3568460405161196791906132b3565b60405180910390a3505050565b60076020526000908152604090205473ffffffffffffffffffffffffffffffffffffffff1681565b805160208183018101805160028252928201919093012091525481565b60045481565b6000816040516020016119d2919061370c565b604051602081830303815290604052805190602001209050919050565b60007fffffffff0000000000000000000000000000000000000000000000000000000082167f01ffc9a700000000000000000000000000000000000000000000000000000000148061043c57505060014214919050565b61189582826002612275565b611a5b82610b7c565b15611a785760405162461bcd60e51b81526004016107439061352e565b7fffffffff000000000000000000000000000000000000000000000000000000008216600081815260036020908152604080832073ffffffffffffffffffffffffffffffffffffffff8616808552925280832080547fffffffffffffffffffffffff0000000000000000000000000000000000000000169055519092339290917f682f2c466c1e9f6883eb72cbced01373e1cb18b05ae5c8bc04dc73d73e29f8cd9190a45050565b611b2981610b7c565b15611b465760405162461bcd60e51b81526004016107439061352e565b7fffffffff00000000000000000000000000000000000000000000000000000000811660008181526003602090815260408083206001808552925280832080547fffffffffffffffffffffffff000000000000000000000000000000000000000016909217909155513392917f049c6b8b07a879425742523fa80f8ffb25e39ad518c93a5896a0df19518397e591a350565b600061043c611bea83600001516121d2565b611bf784602001516119bf565b61223a565b611c068383612396565b6107ff83826123cf565b6020820151156118955781516020830151611c4a9073ffffffffffffffffffffffffffffffffffffffff831690849063ffffffff61240e16565b611c665760405162461bcd60e51b81526004016107439061359c565b8173ffffffffffffffffffffffffffffffffffffffff16836000015173ffffffffffffffffffffffffffffffffffffffff167fc1c90b8e0705b212262c0dbd7580efe1862c2f185bf96899226f7596beb2db09856020015160405161196791906131a0565b604051600090606090339084907f59c3746e635078efc737fb3f37dd8188203b8df10bbad35878a7d156f4f51c41908590a3836060015173ffffffffffffffffffffffffffffffffffffffff1663c2d85afc85608001518660a00151866040518463ffffffff1660e01b8152600401611d4693929190613170565b600060405180830381600087803b158015611d6057600080fd5b505af1158015611d74573d6000803e3d6000fd5b505050506040513d6000823e601f3d9081017fffffffffffffffffffffffffffffffffffffffffffffffffffffffffffffffe0168201604052611dba9190810190612a19565b915091509250929050565b6040518060400160405280600381526020017f61636c0000000000000000000000000000000000000000000000000000000000815250600281604051611e0b9190612fdf565b908152602001604051809103902054600014611e395760405162461bcd60e51b8152600401610743906135d3565b43600282604051611e4a9190612fdf565b90815260405190819003602001902055611e847f586df6040000000000000000000000000000000000000000000000000000000083611a46565b80604051611e929190612fdf565b604051908190038120907f7bc2a48a4a566e237a12186f19d985b0f76afc9d5290601edac19876253670c290600090a25050565b6000611ed1826119bf565b60048190556040513391907f0a61dcdfcdfc6da74a563de8455cc4ae6d6c9d0b442eb2f7309e6b31e4680d7990611f0990869061370c565b60405180910390a3505060045490565b7fffffffff0000000000000000000000000000000000000000000000000000000081166000908152602081905260409081902080547fffffffffffffffffffffffffffffffffffffffffffffffffffffffffffffff00166001179055517fbf5e1f87f5ab65b58074cd29244d7c487a948983cda4b932e0f966b62bd34aca90611fa390839061322f565b60405180910390a150565b6020820151156118955781516020830151611fea9073ffffffffffffffffffffffffffffffffffffffff8316908490309063ffffffff61206b16565b6120065760405162461bcd60e51b815260040161074390613667565b8173ffffffffffffffffffffffffffffffffffffffff16836000015173ffffffffffffffffffffffffffffffffffffffff167fec36c0364d931187a76cf66d7eee08fad0ec2e8b7458a8d8b26b36769d4d13f3856020015160405161196791906131a0565b600060606323b872dd60e01b85858560405160240161208c93929190613106565b604080517fffffffffffffffffffffffffffffffffffffffffffffffffffffffffffffffe08184030181529190526020810180517bffffffffffffffffffffffffffffffffffffffffffffffffffffffff167fffffffff00000000000000000000000000000000000000000000000000000000909316929092179091529050612115868261242d565b9150505b949350505050565b6000606063095ea7b360e01b8484604051602401612140929190613137565b604080517fffffffffffffffffffffffffffffffffffffffffffffffffffffffffffffffe08184030181529190526020810180517bffffffffffffffffffffffffffffffffffffffffffffffffffffffff167fffffffff000000000000000000000000000000000000000000000000000000009093169290921790915290506121c9858261242d565b95945050505050565b6000816000015182602001518360400151846060015185608001516040516020016121fd919061315d565b604051602081830303815290604052805190602001208660a001518760c00151805190602001206040516020016119d2979695949392919061308c565b6040516000904690612256903090839087908790602001613024565b6040516020818303038152906040528051906020012091505092915050565b61227e83610b7c565b1561229b5760405162461bcd60e51b81526004016107439061352e565b73ffffffffffffffffffffffffffffffffffffffff8216600114156122d25760405162461bcd60e51b81526004016107439061369e565b7fffffffff000000000000000000000000000000000000000000000000000000008316600081815260036020908152604080832073ffffffffffffffffffffffffffffffffffffffff878116808652919093529281902080547fffffffffffffffffffffffff0000000000000000000000000000000000000000169286169290921790915551909133917fc62063b81f7036fd97a0dc546516e99f11004d2d76ca0fddd3866346c86e7091906123899086906130e5565b60405180910390a4505050565b8060068111156123a257fe5b825460ff1660068111156123b257fe5b146118955760405162461bcd60e51b81526004016107439061333f565b8154819083907fffffffffffffffffffffffffffffffffffffffffffffffffffffffffffffff0016600183600681111561240557fe5b02179055505050565b6000606063a9059cbb60e01b8484604051602401612140929190613137565b600061244e8373ffffffffffffffffffffffffffffffffffffffff166124a0565b61245a5750600061043c565b6040516020818451602086016000885af18015612498573d8015612485576020811461248e57612496565b60019350612496565b600183511493505b505b505092915050565b3b151990565b6040805160608101909152806000815260006020820181905260409091015290565b604080518082019091526000808252602082015290565b803561043c8161383e565b600082601f8301126124fa578081fd5b813561250d612508826137b0565b613789565b818152915060208083019084810160005b848110156125c157813587016060807fffffffffffffffffffffffffffffffffffffffffffffffffffffffffffffffe0838c0301121561255d57600080fd5b61256681613789565b6125728b8785016124df565b8152604080840135878301528284013567ffffffffffffffff81111561259757600080fd5b6125a58d89838801016125cc565b918301919091525086525050928201929082019060010161251e565b505050505092915050565b600082601f8301126125dc578081fd5b81356125ea612508826137d0565b915080825283602082850101111561260157600080fd5b8060208401602084013760009082016020015292915050565b600082601f83011261262a578081fd5b8151612638612508826137d0565b915080825283602082850101111561264f57600080fd5b612660816020840160208601613812565b5092915050565b600060608284031215612678578081fd5b6126826060613789565b905081356003811061269357600080fd5b815260208201357fffffffff00000000000000000000000000000000000000000000000000000000811681146126c857600080fd5b602082015260408201356126db8161383e565b604082015292915050565b6000604082840312156126f7578081fd5b6127016040613789565b9050813561270e8161383e565b808252506020820135602082015292915050565b600060e08284031215612733578081fd5b61273d60a0613789565b90508135815261275083602084016126e6565b602082015261276283606084016126e6565b604082015260a08201356127758161383e565b606082015260c082013567ffffffffffffffff81111561279457600080fd5b6127a0848285016125cc565b60808301525092915050565b6000604082840312156127bd578081fd5b6127c76040613789565b9050813567ffffffffffffffff808211156127e157600080fd5b81840160e081870312156127f457600080fd5b6127fe60e0613789565b9250803583526020810135602084015261281b86604083016124df565b604084015261282d86606083016124df565b606084015260808101358281111561284457600080fd5b612850878284016124ea565b60808501525060a081013560a084015260c08101358281111561287257600080fd5b61287e878284016125cc565b60c085015250509082526020830135908082111561289b57600080fd5b506128a884828501612722565b60208301525092915050565b6000806000606084860312156128c8578283fd5b83516128d38161383e565b60208501519093506128e48161383e565b80925050604084015190509250925092565b60008060408385031215612908578182fd5b82356129138161383e565b9150602083013567ffffffffffffffff81111561292e578182fd5b61293a85828601612722565b9150509250929050565b60006020808385031215612956578182fd5b823567ffffffffffffffff81111561296c578283fd5b80840185601f82011261297d578384fd5b8035915061298d612508836137b0565b828152838101908285016060808602850187018a10156129ab578788fd5b8794505b858510156129d7576129c18a83612667565b84526001949094019392860192908101906129af565b509098975050505050505050565b6000602082840312156129f6578081fd5b81516106bd81613863565b600060208284031215612a12578081fd5b5035919050565b60008060408385031215612a2b578182fd5b8251915060208084015167ffffffffffffffff811115612a49578283fd5b80850186601f820112612a5a578384fd5b80519150612a6a612508836137b0565b82815283810190828501865b85811015612a9f57612a8d8b88845188010161261a565b84529286019290860190600101612a76565b5096999098509650505050505050565b60008060408385031215612ac1578182fd5b82359150602083013567ffffffffffffffff811115612ade578182fd5b61293a858286016125cc565b600060208284031215612afb578081fd5b81356106bd81613871565b60008060408385031215612b18578182fd5b8235612b2381613871565b91506020830135612b338161383e565b809150509250929050565b600080600060608486031215612b52578081fd5b8335612b5d81613871565b92506020840135612b6d8161383e565b9150604084013567ffffffffffffffff811115612b88578182fd5b612b94868287016125cc565b9150509250925092565b600080600060608486031215612bb2578081fd5b8335612bbd81613871565b92506020840135612bcd8161383e565b91506040840135612bdd8161383e565b809150509250925092565b60008060408385031215612bfa578182fd5b8235612c058161383e565b946020939093013593505050565b600060208284031215612c24578081fd5b813567ffffffffffffffff811115612c3a578182fd5b612119848285016125cc565b600060208284031215612c57578081fd5b813567ffffffffffffffff811115612c6d578182fd5b61211984828501612722565b600060208284031215612c8a578081fd5b813567ffffffffffffffff811115612ca0578182fd5b612119848285016127ac565b60008060408385031215612cbe578182fd5b823567ffffffffffffffff80821115612cd5578384fd5b612ce1868387016127ac565b93506020850135915080821115612cf6578283fd5b5061293a858286016125cc565b60008060408385031215612d15578182fd5b823567ffffffffffffffff811115612d2b578283fd5b612d37858286016127ac565b95602094909401359450505050565b600060208284031215612d57578081fd5b5051919050565b60008060008060608587031215612d73578182fd5b84359350602085013567ffffffffffffffff80821115612d91578384fd5b81870188601f820112612da2578485fd5b8035925081831115612db2578485fd5b886020848301011115612dc3578485fd5b6020019450909250506040850135612dda81613863565b939692955090935050565b60008060408385031215612df7578182fd5b50508035926020909101359150565b6000815180845260208085018081965082840281019150828601855b85811015612e825782840389528151606073ffffffffffffffffffffffffffffffffffffffff825116865286820151878701526040808301518282890152612e6c83890182612e8f565b9c89019c97505050928601925050600101612e22565b5091979650505050505050565b60008151808452612ea7816020860160208601613812565b601f017fffffffffffffffffffffffffffffffffffffffffffffffffffffffffffffffe0169290920160200192915050565b805173ffffffffffffffffffffffffffffffffffffffff168252602090810151910152565b6000815183526020820151612f166020850182612ed9565b506040820151612f296060850182612ed9565b5073ffffffffffffffffffffffffffffffffffffffff60608301511660a0840152608082015160e060c085015261211960e0850182612e8f565b60008151835260208201516020840152604082015173ffffffffffffffffffffffffffffffffffffffff80821660408601528060608501511660608601525050608082015160e06080850152612fbc60e0850182612e06565b60a084015160a086015260c0840151915084810360c08601526121c98183612e8f565b60008251612ff1818460208701613812565b9190910192915050565b7f61636c0000000000000000000000000000000000000000000000000000000000815260030190565b7f657263336b2d7631000000000000000000000000000000000000000000000000815260609490941b7fffffffffffffffffffffffffffffffffffffffff000000000000000000000000166008850152601c840192909252603c830152605c820152607c0190565b96875260208701959095527fffffffffffffffffffffffffffffffffffffffff000000000000000000000000606094851b811660408801529290931b90911660548501526068840152608883015260a882015260c80190565b73ffffffffffffffffffffffffffffffffffffffff91909116815260200190565b73ffffffffffffffffffffffffffffffffffffffff9384168152919092166020820152604081019190915260600190565b73ffffffffffffffffffffffffffffffffffffffff929092168252602082015260400190565b6000602082526106bd6020830184612e06565b6000606082526131836060830186612e06565b60208301949094525060400152919050565b901515815260200190565b90815260200190565b600060408201848352602060408185015281855180845260608601915060608382028701019350828701855b82811015613221577fffffffffffffffffffffffffffffffffffffffffffffffffffffffffffffffa088870301845261320f868351612e8f565b955092840192908401906001016131d5565b509398975050505050505050565b7fffffffff0000000000000000000000000000000000000000000000000000000091909116815260200190565b60007fffffffff000000000000000000000000000000000000000000000000000000008516825273ffffffffffffffffffffffffffffffffffffffff84166020830152606060408301526121c96060830184612e8f565b6000602082526106bd6020830184612e8f565b6000604082526132d96040830185612e8f565b905082151560208301529392505050565b6000608082526132fd6080830186612e8f565b90508360208301526121196040830184612ed9565b602081016007831061332057fe5b91905290565b6000838252604060208301526121196040830184612e8f565b60208082526010908201527f71756575653a2062616420737461746500000000000000000000000000000000604082015260600190565b60208082526011908201527f71756575653a2062616420636f6e666967000000000000000000000000000000604082015260600190565b60208082526009908201527f61636c3a20617574680000000000000000000000000000000000000000000000604082015260600190565b60208082526010908201527f71756575653a20626164206e6f6e636500000000000000000000000000000000604082015260600190565b60208082526010908201527f71756575653a206261642064656c617900000000000000000000000000000000604082015260600190565b60208082526010908201527f71756575653a2062616420726573657400000000000000000000000000000000604082015260600190565b60208082526013908201527f71756575653a20626164206665652070756c6c00000000000000000000000000604082015260600190565b60208082526014908201527f71756575653a20626164207375626d6974746572000000000000000000000000604082015260600190565b6020808252600f908201527f71756575653a2065766964656e63650000000000000000000000000000000000604082015260600190565b6020808252600b908201527f61636c3a2066726f7a656e000000000000000000000000000000000000000000604082015260600190565b60208082526012908201527f71756575653a2062616420617070726f76650000000000000000000000000000604082015260600190565b60208082526015908201527f71756575653a206261642073656e6420746f6b656e0000000000000000000000604082015260600190565b60208082526022908201527f696e697469616c697a61626c653a20616c726561647920696e697469616c697a60408201527f6564000000000000000000000000000000000000000000000000000000000000606082015260800190565b60208082526010908201527f71756575653a2077616974206d6f726500000000000000000000000000000000604082015260600190565b60208082526014908201527f71756575653a206261642067657420746f6b656e000000000000000000000000604082015260600190565b6020808252600f908201527f61636c3a2062616420667265657a650000000000000000000000000000000000604082015260600190565b60208082526011908201527f71756575653a20756e7265736f6c766564000000000000000000000000000000604082015260600190565b6000602082526106bd6020830184612efe565b60006020825282516040602084015261373b6060840182612f63565b602085015191507fffffffffffffffffffffffffffffffffffffffffffffffffffffffffffffffe08482030160408501526121c98183612efe565b6000602082526106bd6020830184612f63565b60405181810167ffffffffffffffff811182821017156137a857600080fd5b604052919050565b600067ffffffffffffffff8211156137c6578081fd5b5060209081020190565b600067ffffffffffffffff8211156137e6578081fd5b50601f017fffffffffffffffffffffffffffffffffffffffffffffffffffffffffffffffe01660200190565b60005b8381101561382d578181015183820152602001613815565b838111156117265750506000910152565b73ffffffffffffffffffffffffffffffffffffffff8116811461386057600080fd5b50565b801515811461386057600080fd5b7fffffffff000000000000000000000000000000000000000000000000000000008116811461386057600080fdfea264697066735822122097e187a17f4c8613758160880a23c01440579ce7b8548b427685e211b4c65b6264736f6c634300060800337bc2a48a4a566e237a12186f19d985b0f76afc9d5290601edac19876253670c2",
					"opcodes": "PUSH1 0x80 PUSH1 0x40 MSTORE CALLVALUE DUP1 ISZERO PUSH3 0x11 JUMPI PUSH1 0x0 DUP1 REVERT JUMPDEST POP PUSH1 0x40 MLOAD PUSH3 0x415C CODESIZE SUB DUP1 PUSH3 0x415C DUP4 CODECOPY DUP2 ADD PUSH1 0x40 DUP2 SWAP1 MSTORE PUSH3 0x34 SWAP2 PUSH3 0x5A4 JUMP JUMPDEST DUP2 DUP1 PUSH1 0x2 PUSH1 0x40 MLOAD PUSH3 0x46 SWAP1 PUSH3 0x6AA JUMP JUMPDEST SWAP1 DUP2 MSTORE PUSH1 0x20 ADD PUSH1 0x40 MLOAD DUP1 SWAP2 SUB SWAP1 KECCAK256 SLOAD PUSH1 0x0 EQ ISZERO PUSH3 0x72 JUMPI PUSH3 0x72 DUP2 PUSH1 0x1 PUSH1 0x1 PUSH1 0xE0 SHL SUB PUSH3 0x92 AND JUMP JUMPDEST POP PUSH3 0x8A SWAP1 POP DUP3 DUP3 PUSH1 0x1 PUSH1 0x1 PUSH1 0xE0 SHL SUB PUSH3 0x16C AND JUMP JUMPDEST POP POP PUSH3 0x857 JUMP JUMPDEST PUSH1 0x40 MLOAD DUP1 PUSH1 0x40 ADD PUSH1 0x40 MSTORE DUP1 PUSH1 0x3 DUP2 MSTORE PUSH1 0x20 ADD PUSH3 0x1858DB PUSH1 0xEA SHL DUP2 MSTORE POP PUSH1 0x2 DUP2 PUSH1 0x40 MLOAD PUSH3 0xC0 SWAP2 SWAP1 PUSH3 0x68C JUMP JUMPDEST SWAP1 DUP2 MSTORE PUSH1 0x20 ADD PUSH1 0x40 MLOAD DUP1 SWAP2 SUB SWAP1 KECCAK256 SLOAD PUSH1 0x0 EQ PUSH3 0xFA JUMPI PUSH1 0x40 MLOAD PUSH3 0x461BCD PUSH1 0xE5 SHL DUP2 MSTORE PUSH1 0x4 ADD PUSH3 0xF1 SWAP1 PUSH3 0x707 JUMP JUMPDEST PUSH1 0x40 MLOAD DUP1 SWAP2 SUB SWAP1 REVERT JUMPDEST NUMBER PUSH1 0x2 DUP3 PUSH1 0x40 MLOAD PUSH3 0x10D SWAP2 SWAP1 PUSH3 0x68C JUMP JUMPDEST SWAP1 DUP2 MSTORE PUSH1 0x40 MLOAD SWAP1 DUP2 SWAP1 SUB PUSH1 0x20 ADD SWAP1 KECCAK256 SSTORE PUSH3 0x139 PUSH4 0x161B7D81 PUSH1 0xE2 SHL DUP4 PUSH1 0x1 PUSH1 0x1 PUSH1 0xE0 SHL SUB PUSH3 0x2AD AND JUMP JUMPDEST DUP1 PUSH1 0x40 MLOAD PUSH3 0x149 SWAP2 SWAP1 PUSH3 0x68C JUMP JUMPDEST PUSH1 0x40 MLOAD SWAP1 DUP2 SWAP1 SUB DUP2 KECCAK256 SWAP1 PUSH1 0x0 DUP1 MLOAD PUSH1 0x20 PUSH3 0x413C DUP4 CODECOPY DUP2 MLOAD SWAP2 MSTORE SWAP1 PUSH1 0x0 SWAP1 LOG2 POP POP JUMP JUMPDEST DUP2 PUSH1 0x2 PUSH1 0x40 MLOAD PUSH3 0x17D SWAP1 PUSH3 0x6AA JUMP JUMPDEST SWAP1 DUP2 MSTORE PUSH1 0x20 ADD PUSH1 0x40 MLOAD DUP1 SWAP2 SUB SWAP1 KECCAK256 SLOAD PUSH1 0x0 EQ ISZERO PUSH3 0x1A9 JUMPI PUSH3 0x1A9 DUP2 PUSH1 0x1 PUSH1 0x1 PUSH1 0xE0 SHL SUB PUSH3 0x92 AND JUMP JUMPDEST PUSH1 0x40 MLOAD DUP1 PUSH1 0x40 ADD PUSH1 0x40 MSTORE DUP1 PUSH1 0x5 DUP2 MSTORE PUSH1 0x20 ADD PUSH5 0x7175657565 PUSH1 0xD8 SHL DUP2 MSTORE POP PUSH1 0x2 DUP2 PUSH1 0x40 MLOAD PUSH3 0x1D9 SWAP2 SWAP1 PUSH3 0x68C JUMP JUMPDEST SWAP1 DUP2 MSTORE PUSH1 0x20 ADD PUSH1 0x40 MLOAD DUP1 SWAP2 SUB SWAP1 KECCAK256 SLOAD PUSH1 0x0 EQ PUSH3 0x20A JUMPI PUSH1 0x40 MLOAD PUSH3 0x461BCD PUSH1 0xE5 SHL DUP2 MSTORE PUSH1 0x4 ADD PUSH3 0xF1 SWAP1 PUSH3 0x707 JUMP JUMPDEST NUMBER PUSH1 0x2 DUP3 PUSH1 0x40 MLOAD PUSH3 0x21D SWAP2 SWAP1 PUSH3 0x68C JUMP JUMPDEST SWAP1 DUP2 MSTORE PUSH1 0x40 MLOAD SWAP1 DUP2 SWAP1 SUB PUSH1 0x20 ADD SWAP1 KECCAK256 SSTORE PUSH3 0x241 DUP4 PUSH1 0x1 PUSH1 0x1 PUSH1 0xE0 SHL SUB PUSH3 0x2C8 AND JUMP JUMPDEST POP PUSH3 0x25D PUSH4 0x88F3EE69 PUSH1 0xE0 SHL PUSH1 0x1 PUSH1 0x1 PUSH1 0xE0 SHL SUB PUSH3 0x32A AND JUMP JUMPDEST PUSH3 0x278 PUSH4 0x22F8EA55 PUSH1 0xE1 SHL PUSH1 0x1 PUSH1 0x1 PUSH1 0xE0 SHL SUB PUSH3 0x32A AND JUMP JUMPDEST DUP1 PUSH1 0x40 MLOAD PUSH3 0x288 SWAP2 SWAP1 PUSH3 0x68C JUMP JUMPDEST PUSH1 0x40 MLOAD SWAP1 DUP2 SWAP1 SUB DUP2 KECCAK256 SWAP1 PUSH1 0x0 DUP1 MLOAD PUSH1 0x20 PUSH3 0x413C DUP4 CODECOPY DUP2 MLOAD SWAP2 MSTORE SWAP1 PUSH1 0x0 SWAP1 LOG2 POP POP POP POP JUMP JUMPDEST PUSH3 0x2C4 DUP3 DUP3 PUSH1 0x2 PUSH1 0x1 PUSH1 0x1 PUSH1 0xE0 SHL SUB PUSH3 0x38B AND JUMP JUMPDEST POP POP JUMP JUMPDEST PUSH1 0x0 PUSH3 0x2E0 DUP3 PUSH3 0x475 PUSH1 0x20 SHL PUSH3 0x19BF OR PUSH1 0x20 SHR JUMP JUMPDEST PUSH1 0x4 DUP2 SWAP1 SSTORE PUSH1 0x40 MLOAD CALLER SWAP2 SWAP1 PUSH32 0xA61DCDFCDFC6DA74A563DE8455CC4AE6D6C9D0B442EB2F7309E6B31E4680D79 SWAP1 PUSH3 0x31A SWAP1 DUP7 SWAP1 PUSH3 0x772 JUMP JUMPDEST PUSH1 0x40 MLOAD DUP1 SWAP2 SUB SWAP1 LOG3 POP POP PUSH1 0x4 SLOAD SWAP1 JUMP JUMPDEST PUSH1 0x1 PUSH1 0x1 PUSH1 0xE0 SHL SUB NOT DUP2 AND PUSH1 0x0 SWAP1 DUP2 MSTORE PUSH1 0x20 DUP2 SWAP1 MSTORE PUSH1 0x40 SWAP1 DUP2 SWAP1 KECCAK256 DUP1 SLOAD PUSH1 0xFF NOT AND PUSH1 0x1 OR SWAP1 SSTORE MLOAD PUSH32 0xBF5E1F87F5AB65B58074CD29244D7C487A948983CDA4B932E0F966B62BD34ACA SWAP1 PUSH3 0x380 SWAP1 DUP4 SWAP1 PUSH3 0x6B9 JUMP JUMPDEST PUSH1 0x40 MLOAD DUP1 SWAP2 SUB SWAP1 LOG1 POP JUMP JUMPDEST PUSH3 0x39F DUP4 PUSH1 0x1 PUSH1 0x1 PUSH1 0xE0 SHL SUB PUSH3 0x4A7 AND JUMP JUMPDEST ISZERO PUSH3 0x3BF JUMPI PUSH1 0x40 MLOAD PUSH3 0x461BCD PUSH1 0xE5 SHL DUP2 MSTORE PUSH1 0x4 ADD PUSH3 0xF1 SWAP1 PUSH3 0x6E2 JUMP JUMPDEST PUSH1 0x1 PUSH1 0x1 PUSH1 0xA0 SHL SUB DUP3 AND PUSH1 0x1 EQ ISZERO PUSH3 0x3EC JUMPI PUSH1 0x40 MLOAD PUSH3 0x461BCD PUSH1 0xE5 SHL DUP2 MSTORE PUSH1 0x4 ADD PUSH3 0xF1 SWAP1 PUSH3 0x749 JUMP JUMPDEST PUSH1 0x1 PUSH1 0x1 PUSH1 0xE0 SHL SUB NOT DUP4 AND PUSH1 0x0 DUP2 DUP2 MSTORE PUSH1 0x3 PUSH1 0x20 SWAP1 DUP2 MSTORE PUSH1 0x40 DUP1 DUP4 KECCAK256 PUSH1 0x1 PUSH1 0x1 PUSH1 0xA0 SHL SUB DUP8 DUP2 AND DUP1 DUP7 MSTORE SWAP2 SWAP1 SWAP4 MSTORE SWAP3 DUP2 SWAP1 KECCAK256 DUP1 SLOAD PUSH1 0x1 PUSH1 0x1 PUSH1 0xA0 SHL SUB NOT AND SWAP3 DUP7 AND SWAP3 SWAP1 SWAP3 OR SWAP1 SWAP2 SSTORE MLOAD SWAP1 SWAP2 CALLER SWAP2 PUSH32 0xC62063B81F7036FD97A0DC546516E99F11004D2D76CA0FDDD3866346C86E7091 SWAP1 PUSH3 0x468 SWAP1 DUP7 SWAP1 PUSH3 0x6CE JUMP JUMPDEST PUSH1 0x40 MLOAD DUP1 SWAP2 SUB SWAP1 LOG4 POP POP POP JUMP JUMPDEST PUSH1 0x0 DUP2 PUSH1 0x40 MLOAD PUSH1 0x20 ADD PUSH3 0x48A SWAP2 SWAP1 PUSH3 0x772 JUMP JUMPDEST PUSH1 0x40 MLOAD PUSH1 0x20 DUP2 DUP4 SUB SUB DUP2 MSTORE SWAP1 PUSH1 0x40 MSTORE DUP1 MLOAD SWAP1 PUSH1 0x20 ADD KECCAK256 SWAP1 POP SWAP2 SWAP1 POP JUMP JUMPDEST PUSH1 0x1 PUSH1 0x1 PUSH1 0xE0 SHL SUB NOT AND PUSH1 0x0 SWAP1 DUP2 MSTORE PUSH1 0x3 PUSH1 0x20 SWAP1 DUP2 MSTORE PUSH1 0x40 DUP1 DUP4 KECCAK256 PUSH1 0x1 DUP1 DUP6 MSTORE SWAP3 MSTORE SWAP1 SWAP2 KECCAK256 SLOAD PUSH1 0x1 PUSH1 0x1 PUSH1 0xA0 SHL SUB AND EQ SWAP1 JUMP JUMPDEST DUP1 MLOAD PUSH1 0x1 PUSH1 0x1 PUSH1 0xA0 SHL SUB DUP2 AND DUP2 EQ PUSH3 0x4F2 JUMPI PUSH1 0x0 DUP1 REVERT JUMPDEST SWAP3 SWAP2 POP POP JUMP JUMPDEST PUSH1 0x0 DUP3 PUSH1 0x1F DUP4 ADD SLT PUSH3 0x509 JUMPI DUP1 DUP2 REVERT JUMPDEST DUP2 MLOAD PUSH1 0x1 PUSH1 0x1 PUSH1 0x40 SHL SUB DUP2 GT ISZERO PUSH3 0x51F JUMPI DUP2 DUP3 REVERT JUMPDEST PUSH3 0x534 PUSH1 0x1F DUP3 ADD PUSH1 0x1F NOT AND PUSH1 0x20 ADD PUSH3 0x7FD JUMP JUMPDEST SWAP2 POP DUP1 DUP3 MSTORE DUP4 PUSH1 0x20 DUP3 DUP6 ADD ADD GT ISZERO PUSH3 0x54C JUMPI PUSH1 0x0 DUP1 REVERT JUMPDEST PUSH3 0x55F DUP2 PUSH1 0x20 DUP5 ADD PUSH1 0x20 DUP7 ADD PUSH3 0x824 JUMP JUMPDEST POP SWAP3 SWAP2 POP POP JUMP JUMPDEST PUSH1 0x0 PUSH1 0x40 DUP3 DUP5 SUB SLT ISZERO PUSH3 0x578 JUMPI DUP1 DUP2 REVERT JUMPDEST PUSH3 0x584 PUSH1 0x40 PUSH3 0x7FD JUMP JUMPDEST SWAP1 POP PUSH3 0x592 DUP4 DUP4 PUSH3 0x4DA JUMP JUMPDEST DUP2 MSTORE PUSH1 0x20 DUP3 ADD MLOAD PUSH1 0x20 DUP3 ADD MSTORE SWAP3 SWAP2 POP POP JUMP JUMPDEST PUSH1 0x0 DUP1 PUSH1 0x40 DUP4 DUP6 SUB SLT ISZERO PUSH3 0x5B7 JUMPI DUP2 DUP3 REVERT JUMPDEST PUSH3 0x5C3 DUP5 DUP5 PUSH3 0x4DA JUMP JUMPDEST PUSH1 0x20 DUP5 ADD MLOAD SWAP1 SWAP3 POP PUSH1 0x1 PUSH1 0x1 PUSH1 0x40 SHL SUB DUP1 DUP3 GT ISZERO PUSH3 0x5E0 JUMPI DUP3 DUP4 REVERT JUMPDEST DUP2 DUP6 ADD PUSH1 0xE0 DUP2 DUP9 SUB SLT ISZERO PUSH3 0x5F3 JUMPI DUP4 DUP5 REVERT JUMPDEST PUSH3 0x5FF PUSH1 0xA0 PUSH3 0x7FD JUMP JUMPDEST SWAP3 POP DUP1 MLOAD DUP4 MSTORE PUSH3 0x614 DUP8 PUSH1 0x20 DUP4 ADD PUSH3 0x566 JUMP JUMPDEST PUSH1 0x20 DUP5 ADD MSTORE PUSH3 0x628 DUP8 PUSH1 0x60 DUP4 ADD PUSH3 0x566 JUMP JUMPDEST PUSH1 0x40 DUP5 ADD MSTORE PUSH3 0x63C DUP8 PUSH1 0xA0 DUP4 ADD PUSH3 0x4DA JUMP JUMPDEST PUSH1 0x60 DUP5 ADD MSTORE PUSH1 0xC0 DUP2 ADD MLOAD DUP3 DUP2 GT ISZERO PUSH3 0x653 JUMPI DUP5 DUP6 REVERT JUMPDEST PUSH3 0x661 DUP9 DUP3 DUP5 ADD PUSH3 0x4F8 JUMP JUMPDEST PUSH1 0x80 DUP6 ADD MSTORE POP POP POP DUP1 SWAP2 POP POP SWAP3 POP SWAP3 SWAP1 POP JUMP JUMPDEST DUP1 MLOAD PUSH1 0x1 PUSH1 0x1 PUSH1 0xA0 SHL SUB AND DUP3 MSTORE PUSH1 0x20 SWAP1 DUP2 ADD MLOAD SWAP2 ADD MSTORE JUMP JUMPDEST PUSH1 0x0 DUP3 MLOAD PUSH3 0x6A0 DUP2 DUP5 PUSH1 0x20 DUP8 ADD PUSH3 0x824 JUMP JUMPDEST SWAP2 SWAP1 SWAP2 ADD SWAP3 SWAP2 POP POP JUMP JUMPDEST PUSH3 0x1858DB PUSH1 0xEA SHL DUP2 MSTORE PUSH1 0x3 ADD SWAP1 JUMP JUMPDEST PUSH1 0x1 PUSH1 0x1 PUSH1 0xE0 SHL SUB NOT SWAP2 SWAP1 SWAP2 AND DUP2 MSTORE PUSH1 0x20 ADD SWAP1 JUMP JUMPDEST PUSH1 0x1 PUSH1 0x1 PUSH1 0xA0 SHL SUB SWAP2 SWAP1 SWAP2 AND DUP2 MSTORE PUSH1 0x20 ADD SWAP1 JUMP JUMPDEST PUSH1 0x20 DUP1 DUP3 MSTORE PUSH1 0xB SWAP1 DUP3 ADD MSTORE PUSH11 0x30B1B61D10333937BD32B7 PUSH1 0xA9 SHL PUSH1 0x40 DUP3 ADD MSTORE PUSH1 0x60 ADD SWAP1 JUMP JUMPDEST PUSH1 0x20 DUP1 DUP3 MSTORE PUSH1 0x22 SWAP1 DUP3 ADD MSTORE PUSH32 0x696E697469616C697A61626C653A20616C726561647920696E697469616C697A PUSH1 0x40 DUP3 ADD MSTORE PUSH2 0x1959 PUSH1 0xF2 SHL PUSH1 0x60 DUP3 ADD MSTORE PUSH1 0x80 ADD SWAP1 JUMP JUMPDEST PUSH1 0x20 DUP1 DUP3 MSTORE PUSH1 0xF SWAP1 DUP3 ADD MSTORE PUSH15 0x61636C3A2062616420667265657A65 PUSH1 0x88 SHL PUSH1 0x40 DUP3 ADD MSTORE PUSH1 0x60 ADD SWAP1 JUMP JUMPDEST PUSH1 0x0 PUSH1 0x20 DUP3 MSTORE DUP3 MLOAD PUSH1 0x20 DUP4 ADD MSTORE PUSH1 0x20 DUP4 ADD MLOAD PUSH3 0x793 PUSH1 0x40 DUP5 ADD DUP3 PUSH3 0x674 JUMP JUMPDEST POP PUSH1 0x40 DUP4 ADD MLOAD PUSH3 0x7A8 PUSH1 0x80 DUP5 ADD DUP3 PUSH3 0x674 JUMP JUMPDEST POP PUSH1 0x60 DUP4 ADD MLOAD PUSH1 0x1 PUSH1 0x1 PUSH1 0xA0 SHL SUB AND PUSH1 0xC0 DUP4 ADD MSTORE PUSH1 0x80 DUP4 ADD MLOAD PUSH1 0xE0 DUP1 DUP5 ADD MSTORE DUP1 MLOAD PUSH2 0x100 DUP5 ADD DUP2 SWAP1 MSTORE PUSH2 0x120 PUSH3 0x7E6 DUP3 DUP3 DUP8 ADD PUSH1 0x20 DUP7 ADD PUSH3 0x824 JUMP JUMPDEST DUP1 PUSH1 0x1F NOT PUSH1 0x1F DUP5 ADD AND DUP7 ADD ADD SWAP4 POP POP POP POP SWAP3 SWAP2 POP POP JUMP JUMPDEST PUSH1 0x40 MLOAD DUP2 DUP2 ADD PUSH1 0x1 PUSH1 0x1 PUSH1 0x40 SHL SUB DUP2 GT DUP3 DUP3 LT OR ISZERO PUSH3 0x81C JUMPI PUSH1 0x0 DUP1 REVERT JUMPDEST PUSH1 0x40 MSTORE SWAP2 SWAP1 POP JUMP JUMPDEST PUSH1 0x0 JUMPDEST DUP4 DUP2 LT ISZERO PUSH3 0x841 JUMPI DUP2 DUP2 ADD MLOAD DUP4 DUP3 ADD MSTORE PUSH1 0x20 ADD PUSH3 0x827 JUMP JUMPDEST DUP4 DUP2 GT ISZERO PUSH3 0x851 JUMPI PUSH1 0x0 DUP5 DUP5 ADD MSTORE JUMPDEST POP POP POP POP JUMP JUMPDEST PUSH2 0x38D5 DUP1 PUSH3 0x867 PUSH1 0x0 CODECOPY PUSH1 0x0 RETURN INVALID PUSH1 0x80 PUSH1 0x40 MSTORE CALLVALUE DUP1 ISZERO PUSH2 0x10 JUMPI PUSH1 0x0 DUP1 REVERT JUMPDEST POP PUSH1 0x4 CALLDATASIZE LT PUSH2 0x1B9 JUMPI PUSH1 0x0 CALLDATALOAD PUSH1 0xE0 SHR DUP1 PUSH4 0x7C10DEA6 GT PUSH2 0xF9 JUMPI DUP1 PUSH4 0xB8EBE05E GT PUSH2 0x97 JUMPI DUP1 PUSH4 0xC04C87B8 GT PUSH2 0x71 JUMPI DUP1 PUSH4 0xC04C87B8 EQ PUSH2 0x3B7 JUMPI DUP1 PUSH4 0xC8182AF0 EQ PUSH2 0x3CA JUMPI DUP1 PUSH4 0xCC1D4CAB EQ PUSH2 0x3DD JUMPI DUP1 PUSH4 0xE1F1176D EQ PUSH2 0x3F0 JUMPI PUSH2 0x1B9 JUMP JUMPDEST DUP1 PUSH4 0xB8EBE05E EQ PUSH2 0x37E JUMPI DUP1 PUSH4 0xB9E9823F EQ PUSH2 0x391 JUMPI DUP1 PUSH4 0xBDF9A726 EQ PUSH2 0x3A4 JUMPI PUSH2 0x1B9 JUMP JUMPDEST DUP1 PUSH4 0x977D8964 GT PUSH2 0xD3 JUMPI DUP1 PUSH4 0x977D8964 EQ PUSH2 0x33D JUMPI DUP1 PUSH4 0xA157A10D EQ PUSH2 0x350 JUMPI DUP1 PUSH4 0xA2157227 EQ PUSH2 0x363 JUMPI DUP1 PUSH4 0xAFFED0E0 EQ PUSH2 0x376 JUMPI PUSH2 0x1B9 JUMP JUMPDEST DUP1 PUSH4 0x7C10DEA6 EQ PUSH2 0x2E8 JUMPI DUP1 PUSH4 0x7E8C7F08 EQ PUSH2 0x308 JUMPI DUP1 PUSH4 0x96FC8ABD EQ PUSH2 0x31D JUMPI PUSH2 0x1B9 JUMP JUMPDEST DUP1 PUSH4 0x3B1C5FC6 GT PUSH2 0x166 JUMPI DUP1 PUSH4 0x58849734 GT PUSH2 0x140 JUMPI DUP1 PUSH4 0x58849734 EQ PUSH2 0x29C JUMPI DUP1 PUSH4 0x59B6907A EQ PUSH2 0x2AF JUMPI DUP1 PUSH4 0x70576158 EQ PUSH2 0x2C2 JUMPI DUP1 PUSH4 0x72896761 EQ PUSH2 0x2D5 JUMPI PUSH2 0x1B9 JUMP JUMPDEST DUP1 PUSH4 0x3B1C5FC6 EQ PUSH2 0x256 JUMPI DUP1 PUSH4 0x495A9825 EQ PUSH2 0x276 JUMPI DUP1 PUSH4 0x55A33159 EQ PUSH2 0x289 JUMPI PUSH2 0x1B9 JUMP JUMPDEST DUP1 PUSH4 0x2A0D403E GT PUSH2 0x197 JUMPI DUP1 PUSH4 0x2A0D403E EQ PUSH2 0x20F JUMPI DUP1 PUSH4 0x311A6C56 EQ PUSH2 0x230 JUMPI DUP1 PUSH4 0x3A139C71 EQ PUSH2 0x243 JUMPI PUSH2 0x1B9 JUMP JUMPDEST DUP1 PUSH4 0x1FFC9A7 EQ PUSH2 0x1BE JUMPI DUP1 PUSH4 0x97C8108 EQ PUSH2 0x1E7 JUMPI DUP1 PUSH4 0x1C47671B EQ PUSH2 0x1FA JUMPI JUMPDEST PUSH1 0x0 DUP1 REVERT JUMPDEST PUSH2 0x1D1 PUSH2 0x1CC CALLDATASIZE PUSH1 0x4 PUSH2 0x2AEA JUMP JUMPDEST PUSH2 0x3F8 JUMP JUMPDEST PUSH1 0x40 MLOAD PUSH2 0x1DE SWAP2 SWAP1 PUSH2 0x3195 JUMP JUMPDEST PUSH1 0x40 MLOAD DUP1 SWAP2 SUB SWAP1 RETURN JUMPDEST PUSH2 0x1D1 PUSH2 0x1F5 CALLDATASIZE PUSH1 0x4 PUSH2 0x2B3E JUMP JUMPDEST PUSH2 0x442 JUMP JUMPDEST PUSH2 0x20D PUSH2 0x208 CALLDATASIZE PUSH1 0x4 PUSH2 0x2944 JUMP JUMPDEST PUSH2 0x6C4 JUMP JUMPDEST STOP JUMPDEST PUSH2 0x222 PUSH2 0x21D CALLDATASIZE PUSH1 0x4 PUSH2 0x2D03 JUMP JUMPDEST PUSH2 0x804 JUMP JUMPDEST PUSH1 0x40 MLOAD PUSH2 0x1DE SWAP3 SWAP2 SWAP1 PUSH2 0x31A9 JUMP JUMPDEST PUSH2 0x20D PUSH2 0x23E CALLDATASIZE PUSH1 0x4 PUSH2 0x2DE5 JUMP JUMPDEST PUSH2 0x99F JUMP JUMPDEST PUSH2 0x222 PUSH2 0x251 CALLDATASIZE PUSH1 0x4 PUSH2 0x2C79 JUMP JUMPDEST PUSH2 0xA60 JUMP JUMPDEST PUSH2 0x269 PUSH2 0x264 CALLDATASIZE PUSH1 0x4 PUSH2 0x2BE8 JUMP JUMPDEST PUSH2 0xB5F JUMP JUMPDEST PUSH1 0x40 MLOAD PUSH2 0x1DE SWAP2 SWAP1 PUSH2 0x31A0 JUMP JUMPDEST PUSH2 0x1D1 PUSH2 0x284 CALLDATASIZE PUSH1 0x4 PUSH2 0x2AEA JUMP JUMPDEST PUSH2 0xB7C JUMP JUMPDEST PUSH2 0x222 PUSH2 0x297 CALLDATASIZE PUSH1 0x4 PUSH2 0x2C79 JUMP JUMPDEST PUSH2 0xBD4 JUMP JUMPDEST PUSH2 0x20D PUSH2 0x2AA CALLDATASIZE PUSH1 0x4 PUSH2 0x2B06 JUMP JUMPDEST PUSH2 0xC91 JUMP JUMPDEST PUSH2 0x20D PUSH2 0x2BD CALLDATASIZE PUSH1 0x4 PUSH2 0x28F6 JUMP JUMPDEST PUSH2 0xD1A JUMP JUMPDEST PUSH2 0x269 PUSH2 0x2D0 CALLDATASIZE PUSH1 0x4 PUSH2 0x2CAC JUMP JUMPDEST PUSH2 0xE7E JUMP JUMPDEST PUSH2 0x269 PUSH2 0x2E3 CALLDATASIZE PUSH1 0x4 PUSH2 0x2C46 JUMP JUMPDEST PUSH2 0x1360 JUMP JUMPDEST PUSH2 0x2FB PUSH2 0x2F6 CALLDATASIZE PUSH1 0x4 PUSH2 0x2A01 JUMP JUMPDEST PUSH2 0x13D1 JUMP JUMPDEST PUSH1 0x40 MLOAD PUSH2 0x1DE SWAP2 SWAP1 PUSH2 0x3312 JUMP JUMPDEST PUSH2 0x310 PUSH2 0x13E6 JUMP JUMPDEST PUSH1 0x40 MLOAD PUSH2 0x1DE SWAP2 SWAP1 PUSH2 0x322F JUMP JUMPDEST PUSH2 0x330 PUSH2 0x32B CALLDATASIZE PUSH1 0x4 PUSH2 0x2B06 JUMP JUMPDEST PUSH2 0x140A JUMP JUMPDEST PUSH1 0x40 MLOAD PUSH2 0x1DE SWAP2 SWAP1 PUSH2 0x30E5 JUMP JUMPDEST PUSH2 0x269 PUSH2 0x34B CALLDATASIZE PUSH1 0x4 PUSH2 0x2C79 JUMP JUMPDEST PUSH2 0x143D JUMP JUMPDEST PUSH2 0x20D PUSH2 0x35E CALLDATASIZE PUSH1 0x4 PUSH2 0x2B06 JUMP JUMPDEST PUSH2 0x1613 JUMP JUMPDEST PUSH2 0x20D PUSH2 0x371 CALLDATASIZE PUSH1 0x4 PUSH2 0x2B9E JUMP JUMPDEST PUSH2 0x169C JUMP JUMPDEST PUSH2 0x269 PUSH2 0x172C JUMP JUMPDEST PUSH2 0x20D PUSH2 0x38C CALLDATASIZE PUSH1 0x4 PUSH2 0x2C79 JUMP JUMPDEST PUSH2 0x1732 JUMP JUMPDEST PUSH2 0x20D PUSH2 0x39F CALLDATASIZE PUSH1 0x4 PUSH2 0x2D5E JUMP JUMPDEST PUSH2 0x17F5 JUMP JUMPDEST PUSH2 0x20D PUSH2 0x3B2 CALLDATASIZE PUSH1 0x4 PUSH2 0x2AEA JUMP JUMPDEST PUSH2 0x180D JUMP JUMPDEST PUSH2 0x20D PUSH2 0x3C5 CALLDATASIZE PUSH1 0x4 PUSH2 0x2AAF JUMP JUMPDEST PUSH2 0x1899 JUMP JUMPDEST PUSH2 0x330 PUSH2 0x3D8 CALLDATASIZE PUSH1 0x4 PUSH2 0x2A01 JUMP JUMPDEST PUSH2 0x1974 JUMP JUMPDEST PUSH2 0x269 PUSH2 0x3EB CALLDATASIZE PUSH1 0x4 PUSH2 0x2C13 JUMP JUMPDEST PUSH2 0x199C JUMP JUMPDEST PUSH2 0x269 PUSH2 0x19B9 JUMP JUMPDEST PUSH32 0xFFFFFFFF00000000000000000000000000000000000000000000000000000000 DUP2 AND PUSH1 0x0 SWAP1 DUP2 MSTORE PUSH1 0x20 DUP2 SWAP1 MSTORE PUSH1 0x40 DUP2 KECCAK256 SLOAD PUSH1 0xFF AND DUP1 PUSH2 0x43C JUMPI POP PUSH2 0x43C DUP3 PUSH2 0x19EF JUMP JUMPDEST SWAP3 SWAP2 POP POP JUMP JUMPDEST PUSH32 0xFFFFFFFF00000000000000000000000000000000000000000000000000000000 DUP4 AND PUSH1 0x0 SWAP1 DUP2 MSTORE PUSH1 0x3 PUSH1 0x20 SWAP1 DUP2 MSTORE PUSH1 0x40 DUP1 DUP4 KECCAK256 CALLER DUP5 MSTORE SWAP1 SWAP2 MSTORE DUP2 KECCAK256 SLOAD PUSH20 0xFFFFFFFFFFFFFFFFFFFFFFFFFFFFFFFFFFFFFFFF AND DUP1 ISZERO PUSH2 0x57B JUMPI PUSH20 0xFFFFFFFFFFFFFFFFFFFFFFFFFFFFFFFFFFFFFFFF DUP2 AND PUSH1 0x2 EQ ISZERO PUSH2 0x4C4 JUMPI PUSH1 0x1 SWAP2 POP POP PUSH2 0x6BD JUMP JUMPDEST PUSH1 0x40 MLOAD PUSH32 0x97C810800000000000000000000000000000000000000000000000000000000 DUP2 MSTORE PUSH20 0xFFFFFFFFFFFFFFFFFFFFFFFFFFFFFFFFFFFFFFFF DUP3 AND SWAP1 PUSH4 0x97C8108 SWAP1 PUSH2 0x51A SWAP1 DUP9 SWAP1 DUP9 SWAP1 DUP9 SWAP1 PUSH1 0x4 ADD PUSH2 0x325C JUMP JUMPDEST PUSH1 0x20 PUSH1 0x40 MLOAD DUP1 DUP4 SUB DUP2 PUSH1 0x0 DUP8 DUP1 EXTCODESIZE ISZERO DUP1 ISZERO PUSH2 0x534 JUMPI PUSH1 0x0 DUP1 REVERT JUMPDEST POP GAS CALL ISZERO DUP1 ISZERO PUSH2 0x548 JUMPI RETURNDATASIZE PUSH1 0x0 DUP1 RETURNDATACOPY RETURNDATASIZE PUSH1 0x0 REVERT JUMPDEST POP POP POP POP PUSH1 0x40 MLOAD RETURNDATASIZE PUSH1 0x1F NOT PUSH1 0x1F DUP3 ADD AND DUP3 ADD DUP1 PUSH1 0x40 MSTORE POP DUP2 ADD SWAP1 PUSH2 0x56C SWAP2 SWAP1 PUSH2 0x29E5 JUMP JUMPDEST ISZERO PUSH2 0x57B JUMPI PUSH1 0x1 SWAP2 POP POP PUSH2 0x6BD JUMP JUMPDEST PUSH32 0xFFFFFFFF00000000000000000000000000000000000000000000000000000000 DUP6 AND PUSH1 0x0 SWAP1 DUP2 MSTORE PUSH1 0x3 PUSH1 0x20 SWAP1 DUP2 MSTORE PUSH1 0x40 DUP1 DUP4 KECCAK256 PUSH20 0xFFFFFFFFFFFFFFFFFFFFFFFFFFFFFFFFFFFFFFFF DUP1 DUP6 MSTORE SWAP3 MSTORE SWAP1 SWAP2 KECCAK256 SLOAD AND DUP1 ISZERO PUSH2 0x6B6 JUMPI PUSH20 0xFFFFFFFFFFFFFFFFFFFFFFFFFFFFFFFFFFFFFFFF DUP2 AND PUSH1 0x2 EQ ISZERO PUSH2 0x5FE JUMPI PUSH1 0x1 SWAP3 POP POP POP PUSH2 0x6BD JUMP JUMPDEST PUSH1 0x40 MLOAD PUSH32 0x97C810800000000000000000000000000000000000000000000000000000000 DUP2 MSTORE PUSH20 0xFFFFFFFFFFFFFFFFFFFFFFFFFFFFFFFFFFFFFFFF DUP3 AND SWAP1 PUSH4 0x97C8108 SWAP1 PUSH2 0x654 SWAP1 DUP10 SWAP1 DUP10 SWAP1 DUP10 SWAP1 PUSH1 0x4 ADD PUSH2 0x325C JUMP JUMPDEST PUSH1 0x20 PUSH1 0x40 MLOAD DUP1 DUP4 SUB DUP2 PUSH1 0x0 DUP8 DUP1 EXTCODESIZE ISZERO DUP1 ISZERO PUSH2 0x66E JUMPI PUSH1 0x0 DUP1 REVERT JUMPDEST POP GAS CALL ISZERO DUP1 ISZERO PUSH2 0x682 JUMPI RETURNDATASIZE PUSH1 0x0 DUP1 RETURNDATACOPY RETURNDATASIZE PUSH1 0x0 REVERT JUMPDEST POP POP POP POP PUSH1 0x40 MLOAD RETURNDATASIZE PUSH1 0x1F NOT PUSH1 0x1F DUP3 ADD AND DUP3 ADD DUP1 PUSH1 0x40 MSTORE POP DUP2 ADD SWAP1 PUSH2 0x6A6 SWAP2 SWAP1 PUSH2 0x29E5 JUMP JUMPDEST ISZERO PUSH2 0x6B6 JUMPI PUSH1 0x1 SWAP3 POP POP POP PUSH2 0x6BD JUMP JUMPDEST PUSH1 0x0 SWAP3 POP POP POP JUMPDEST SWAP4 SWAP3 POP POP POP JUMP JUMPDEST PUSH1 0x40 DUP1 MLOAD PUSH1 0x20 CALLDATASIZE PUSH1 0x1F DUP2 ADD DUP3 SWAP1 DIV DUP3 MUL DUP4 ADD DUP3 ADD SWAP1 SWAP4 MSTORE DUP3 DUP3 MSTORE PUSH32 0x586DF60400000000000000000000000000000000000000000000000000000000 SWAP3 PUSH2 0x727 SWAP3 DUP5 SWAP3 CALLER SWAP3 PUSH1 0x0 SWAP2 DUP2 SWAP1 DUP5 ADD DUP4 DUP3 DUP1 DUP3 DUP5 CALLDATACOPY PUSH1 0x0 SWAP3 ADD SWAP2 SWAP1 SWAP2 MSTORE POP PUSH2 0x442 SWAP3 POP POP POP JUMP JUMPDEST PUSH2 0x74C JUMPI PUSH1 0x40 MLOAD PUSH3 0x461BCD PUSH1 0xE5 SHL DUP2 MSTORE PUSH1 0x4 ADD PUSH2 0x743 SWAP1 PUSH2 0x33AD JUMP JUMPDEST PUSH1 0x40 MLOAD DUP1 SWAP2 SUB SWAP1 REVERT JUMPDEST PUSH1 0x0 JUMPDEST DUP3 MLOAD DUP2 LT ISZERO PUSH2 0x7FF JUMPI PUSH2 0x760 PUSH2 0x24A6 JUMP JUMPDEST DUP4 DUP3 DUP2 MLOAD DUP2 LT PUSH2 0x76C JUMPI INVALID JUMPDEST PUSH1 0x20 MUL PUSH1 0x20 ADD ADD MLOAD SWAP1 POP PUSH1 0x0 PUSH1 0x2 DUP2 GT ISZERO PUSH2 0x783 JUMPI INVALID JUMPDEST DUP2 MLOAD PUSH1 0x2 DUP2 GT ISZERO PUSH2 0x790 JUMPI INVALID JUMPDEST EQ ISZERO PUSH2 0x7AD JUMPI PUSH2 0x7A8 DUP2 PUSH1 0x20 ADD MLOAD DUP3 PUSH1 0x40 ADD MLOAD PUSH2 0x1A46 JUMP JUMPDEST PUSH2 0x7F6 JUMP JUMPDEST PUSH1 0x1 DUP2 MLOAD PUSH1 0x2 DUP2 GT ISZERO PUSH2 0x7BC JUMPI INVALID JUMPDEST EQ ISZERO PUSH2 0x7D4 JUMPI PUSH2 0x7A8 DUP2 PUSH1 0x20 ADD MLOAD DUP3 PUSH1 0x40 ADD MLOAD PUSH2 0x1A52 JUMP JUMPDEST PUSH1 0x2 DUP2 MLOAD PUSH1 0x2 DUP2 GT ISZERO PUSH2 0x7E3 JUMPI INVALID JUMPDEST EQ ISZERO PUSH2 0x7F6 JUMPI PUSH2 0x7F6 DUP2 PUSH1 0x20 ADD MLOAD PUSH2 0x1B20 JUMP JUMPDEST POP PUSH1 0x1 ADD PUSH2 0x74F JUMP JUMPDEST POP POP POP JUMP JUMPDEST PUSH1 0x0 PUSH1 0x60 PUSH1 0x0 PUSH2 0x813 DUP6 PUSH2 0x1BD8 JUMP JUMPDEST SWAP1 POP PUSH1 0x2 PUSH1 0x0 DUP3 DUP2 MSTORE PUSH1 0x6 PUSH1 0x20 DUP2 SWAP1 MSTORE PUSH1 0x40 SWAP1 SWAP2 KECCAK256 SLOAD PUSH1 0xFF AND SWAP1 DUP2 GT ISZERO PUSH2 0x836 JUMPI INVALID JUMPDEST EQ ISZERO PUSH2 0x8B0 JUMPI DUP5 PUSH1 0x20 ADD MLOAD PUSH1 0x60 ADD MLOAD PUSH20 0xFFFFFFFFFFFFFFFFFFFFFFFFFFFFFFFFFFFFFFFF AND PUSH4 0x8BB04875 DUP6 PUSH1 0x40 MLOAD DUP3 PUSH4 0xFFFFFFFF AND PUSH1 0xE0 SHL DUP2 MSTORE PUSH1 0x4 ADD PUSH2 0x87D SWAP2 SWAP1 PUSH2 0x31A0 JUMP JUMPDEST PUSH1 0x0 PUSH1 0x40 MLOAD DUP1 DUP4 SUB DUP2 PUSH1 0x0 DUP8 DUP1 EXTCODESIZE ISZERO DUP1 ISZERO PUSH2 0x897 JUMPI PUSH1 0x0 DUP1 REVERT JUMPDEST POP GAS CALL ISZERO DUP1 ISZERO PUSH2 0x8AB JUMPI RETURNDATASIZE PUSH1 0x0 DUP1 RETURNDATACOPY RETURNDATASIZE PUSH1 0x0 REVERT JUMPDEST POP POP POP POP JUMPDEST PUSH1 0x0 DUP2 DUP2 MSTORE PUSH1 0x6 PUSH1 0x20 MSTORE PUSH1 0x40 SWAP1 KECCAK256 SLOAD PUSH1 0xFF AND CALLER DUP3 PUSH32 0x27D8A5D945EB361475964ED2C71B8332B27AF2D630AB5DAF829D67AFD2584E6 PUSH1 0x3 DUP5 PUSH1 0x6 DUP2 GT ISZERO PUSH2 0x8F3 JUMPI INVALID JUMPDEST EQ PUSH1 0x40 MLOAD PUSH2 0x901 SWAP2 SWAP1 PUSH2 0x3195 JUMP JUMPDEST PUSH1 0x40 MLOAD DUP1 SWAP2 SUB SWAP1 LOG3 PUSH1 0x3 DUP2 PUSH1 0x6 DUP2 GT ISZERO PUSH2 0x917 JUMPI INVALID JUMPDEST EQ ISZERO PUSH2 0x931 JUMPI PUSH2 0x926 DUP7 PUSH2 0xBD4 JUMP JUMPDEST SWAP4 POP SWAP4 POP POP POP PUSH2 0x998 JUMP JUMPDEST PUSH1 0x4 DUP2 PUSH1 0x6 DUP2 GT ISZERO PUSH2 0x93F JUMPI INVALID JUMPDEST EQ PUSH2 0x95C JUMPI PUSH1 0x40 MLOAD PUSH3 0x461BCD PUSH1 0xE5 SHL DUP2 MSTORE PUSH1 0x4 ADD PUSH2 0x743 SWAP1 PUSH2 0x36D5 JUMP JUMPDEST PUSH2 0x965 DUP7 PUSH2 0x1732 JUMP JUMPDEST PUSH1 0x40 DUP1 MLOAD PUSH1 0x0 DUP1 DUP3 MSTORE PUSH1 0x20 DUP3 ADD SWAP1 SWAP3 MSTORE DUP2 PUSH2 0x990 JUMP JUMPDEST PUSH1 0x60 DUP2 MSTORE PUSH1 0x20 ADD SWAP1 PUSH1 0x1 SWAP1 SUB SWAP1 DUP2 PUSH2 0x97B JUMPI SWAP1 POP JUMPDEST POP SWAP4 POP SWAP4 POP POP POP JUMPDEST SWAP3 POP SWAP3 SWAP1 POP JUMP JUMPDEST CALLER PUSH1 0x0 DUP2 DUP2 MSTORE PUSH1 0x8 PUSH1 0x20 SWAP1 DUP2 MSTORE PUSH1 0x40 DUP1 DUP4 KECCAK256 DUP7 DUP5 MSTORE SWAP1 SWAP2 MSTORE SWAP1 KECCAK256 SLOAD PUSH2 0x9EC PUSH1 0x2 PUSH1 0x4 DUP6 EQ PUSH2 0x9CE JUMPI PUSH1 0x4 PUSH2 0x9D1 JUMP JUMPDEST PUSH1 0x3 JUMPDEST PUSH1 0x0 DUP5 DUP2 MSTORE PUSH1 0x6 PUSH1 0x20 MSTORE PUSH1 0x40 SWAP1 KECCAK256 SWAP2 SWAP1 PUSH4 0xFFFFFFFF PUSH2 0x1BFC AND JUMP JUMPDEST PUSH20 0xFFFFFFFFFFFFFFFFFFFFFFFFFFFFFFFFFFFFFFFF DUP3 AND PUSH1 0x0 DUP2 DUP2 MSTORE PUSH1 0x8 PUSH1 0x20 SWAP1 DUP2 MSTORE PUSH1 0x40 DUP1 DUP4 KECCAK256 DUP9 DUP5 MSTORE SWAP1 SWAP2 MSTORE DUP1 DUP3 KECCAK256 SWAP2 SWAP1 SWAP2 SSTORE MLOAD DUP6 SWAP2 SWAP1 PUSH32 0x56C8631A8915C0D362DBE57A61215FDDE954F73F81C8A3A1F55572FB015207B1 SWAP1 PUSH2 0xA52 SWAP1 DUP8 SWAP1 PUSH2 0x31A0 JUMP JUMPDEST PUSH1 0x40 MLOAD DUP1 SWAP2 SUB SWAP1 LOG3 POP POP POP POP JUMP JUMPDEST PUSH1 0x0 PUSH1 0x60 PUSH4 0x3A139C71 PUSH1 0xE0 SHL PUSH2 0xAAE DUP2 CALLER PUSH1 0x0 CALLDATASIZE DUP1 DUP1 PUSH1 0x1F ADD PUSH1 0x20 DUP1 SWAP2 DIV MUL PUSH1 0x20 ADD PUSH1 0x40 MLOAD SWAP1 DUP2 ADD PUSH1 0x40 MSTORE DUP1 SWAP4 SWAP3 SWAP2 SWAP1 DUP2 DUP2 MSTORE PUSH1 0x20 ADD DUP4 DUP4 DUP1 DUP3 DUP5 CALLDATACOPY PUSH1 0x0 SWAP3 ADD SWAP2 SWAP1 SWAP2 MSTORE POP PUSH2 0x442 SWAP3 POP POP POP JUMP JUMPDEST PUSH2 0xACA JUMPI PUSH1 0x40 MLOAD PUSH3 0x461BCD PUSH1 0xE5 SHL DUP2 MSTORE PUSH1 0x4 ADD PUSH2 0x743 SWAP1 PUSH2 0x33AD JUMP JUMPDEST DUP4 MLOAD PUSH1 0x20 ADD MLOAD PUSH8 0xFFFFFFFFFFFFFFFF TIMESTAMP AND LT ISZERO PUSH2 0xAF9 JUMPI PUSH1 0x40 MLOAD PUSH3 0x461BCD PUSH1 0xE5 SHL DUP2 MSTORE PUSH1 0x4 ADD PUSH2 0x743 SWAP1 PUSH2 0x3630 JUMP JUMPDEST PUSH1 0x0 PUSH2 0xB04 DUP6 PUSH2 0x1BD8 JUMP JUMPDEST PUSH1 0x0 DUP2 DUP2 MSTORE PUSH1 0x6 PUSH1 0x20 DUP2 SWAP1 MSTORE PUSH1 0x40 SWAP1 SWAP2 KECCAK256 SWAP2 SWAP3 POP PUSH2 0xB2B SWAP2 SWAP1 PUSH1 0x1 SWAP1 PUSH4 0xFFFFFFFF PUSH2 0x1BFC AND JUMP JUMPDEST DUP5 MLOAD PUSH1 0x40 ADD MLOAD PUSH1 0x20 DUP1 DUP8 ADD MLOAD ADD MLOAD PUSH2 0xB48 SWAP2 PUSH4 0xFFFFFFFF PUSH2 0x1C10 AND JUMP JUMPDEST DUP5 MLOAD PUSH2 0xB54 SWAP1 DUP3 PUSH2 0x1CCB JUMP JUMPDEST SWAP4 POP SWAP4 POP POP POP SWAP2 POP SWAP2 JUMP JUMPDEST PUSH1 0x8 PUSH1 0x20 SWAP1 DUP2 MSTORE PUSH1 0x0 SWAP3 DUP4 MSTORE PUSH1 0x40 DUP1 DUP5 KECCAK256 SWAP1 SWAP2 MSTORE SWAP1 DUP3 MSTORE SWAP1 KECCAK256 SLOAD DUP2 JUMP JUMPDEST PUSH32 0xFFFFFFFF00000000000000000000000000000000000000000000000000000000 AND PUSH1 0x0 SWAP1 DUP2 MSTORE PUSH1 0x3 PUSH1 0x20 SWAP1 DUP2 MSTORE PUSH1 0x40 DUP1 DUP4 KECCAK256 PUSH1 0x1 DUP1 DUP6 MSTORE SWAP3 MSTORE SWAP1 SWAP2 KECCAK256 SLOAD PUSH20 0xFFFFFFFFFFFFFFFFFFFFFFFFFFFFFFFFFFFFFFFF AND EQ SWAP1 JUMP JUMPDEST PUSH1 0x0 PUSH1 0x60 PUSH1 0x0 PUSH2 0xBE3 DUP5 PUSH2 0x1BD8 JUMP JUMPDEST PUSH1 0x0 DUP2 DUP2 MSTORE PUSH1 0x6 PUSH1 0x20 DUP2 SWAP1 MSTORE PUSH1 0x40 SWAP1 SWAP2 KECCAK256 SWAP2 SWAP3 POP PUSH2 0xC0A SWAP2 SWAP1 PUSH1 0x3 SWAP1 PUSH4 0xFFFFFFFF PUSH2 0x1BFC AND JUMP JUMPDEST DUP4 MLOAD PUSH1 0x40 ADD MLOAD PUSH1 0x20 DUP1 DUP7 ADD MLOAD ADD MLOAD PUSH2 0xC27 SWAP2 PUSH4 0xFFFFFFFF PUSH2 0x1C10 AND JUMP JUMPDEST DUP4 MLOAD PUSH1 0x40 SWAP1 DUP2 ADD MLOAD PUSH1 0x20 DUP7 ADD MLOAD SWAP1 SWAP2 ADD MLOAD PUSH2 0xC47 SWAP2 PUSH4 0xFFFFFFFF PUSH2 0x1C10 AND JUMP JUMPDEST PUSH1 0x0 DUP2 DUP2 MSTORE PUSH1 0x7 PUSH1 0x20 MSTORE PUSH1 0x40 SWAP1 KECCAK256 DUP1 SLOAD PUSH32 0xFFFFFFFFFFFFFFFFFFFFFFFF0000000000000000000000000000000000000000 AND SWAP1 SSTORE DUP4 MLOAD PUSH2 0xC87 SWAP1 DUP3 PUSH2 0x1CCB JUMP JUMPDEST SWAP3 POP SWAP3 POP POP SWAP2 POP SWAP2 JUMP JUMPDEST PUSH1 0x40 DUP1 MLOAD PUSH1 0x20 CALLDATASIZE PUSH1 0x1F DUP2 ADD DUP3 SWAP1 DIV DUP3 MUL DUP4 ADD DUP3 ADD SWAP1 SWAP4 MSTORE DUP3 DUP3 MSTORE PUSH32 0x586DF60400000000000000000000000000000000000000000000000000000000 SWAP3 PUSH2 0xCF4 SWAP3 DUP5 SWAP3 CALLER SWAP3 PUSH1 0x0 SWAP2 DUP2 SWAP1 DUP5 ADD DUP4 DUP3 DUP1 DUP3 DUP5 CALLDATACOPY PUSH1 0x0 SWAP3 ADD SWAP2 SWAP1 SWAP2 MSTORE POP PUSH2 0x442 SWAP3 POP POP POP JUMP JUMPDEST PUSH2 0xD10 JUMPI PUSH1 0x40 MLOAD PUSH3 0x461BCD PUSH1 0xE5 SHL DUP2 MSTORE PUSH1 0x4 ADD PUSH2 0x743 SWAP1 PUSH2 0x33AD JUMP JUMPDEST PUSH2 0x7FF DUP4 DUP4 PUSH2 0x1A52 JUMP JUMPDEST DUP2 PUSH1 0x2 PUSH1 0x40 MLOAD PUSH2 0xD29 SWAP1 PUSH2 0x2FFB JUMP JUMPDEST SWAP1 DUP2 MSTORE PUSH1 0x20 ADD PUSH1 0x40 MLOAD DUP1 SWAP2 SUB SWAP1 KECCAK256 SLOAD PUSH1 0x0 EQ ISZERO PUSH2 0xD49 JUMPI PUSH2 0xD49 DUP2 PUSH2 0x1DC5 JUMP JUMPDEST PUSH1 0x40 MLOAD DUP1 PUSH1 0x40 ADD PUSH1 0x40 MSTORE DUP1 PUSH1 0x5 DUP2 MSTORE PUSH1 0x20 ADD PUSH32 0x7175657565000000000000000000000000000000000000000000000000000000 DUP2 MSTORE POP PUSH1 0x2 DUP2 PUSH1 0x40 MLOAD PUSH2 0xD8F SWAP2 SWAP1 PUSH2 0x2FDF JUMP JUMPDEST SWAP1 DUP2 MSTORE PUSH1 0x20 ADD PUSH1 0x40 MLOAD DUP1 SWAP2 SUB SWAP1 KECCAK256 SLOAD PUSH1 0x0 EQ PUSH2 0xDBD JUMPI PUSH1 0x40 MLOAD PUSH3 0x461BCD PUSH1 0xE5 SHL DUP2 MSTORE PUSH1 0x4 ADD PUSH2 0x743 SWAP1 PUSH2 0x35D3 JUMP JUMPDEST NUMBER PUSH1 0x2 DUP3 PUSH1 0x40 MLOAD PUSH2 0xDCE SWAP2 SWAP1 PUSH2 0x2FDF JUMP JUMPDEST SWAP1 DUP2 MSTORE PUSH1 0x40 MLOAD SWAP1 DUP2 SWAP1 SUB PUSH1 0x20 ADD SWAP1 KECCAK256 SSTORE PUSH2 0xDE7 DUP4 PUSH2 0x1EC6 JUMP JUMPDEST POP PUSH2 0xE11 PUSH32 0x88F3EE6900000000000000000000000000000000000000000000000000000000 PUSH2 0x1F19 JUMP JUMPDEST PUSH2 0xE3A PUSH32 0x45F1D4AA00000000000000000000000000000000000000000000000000000000 PUSH2 0x1F19 JUMP JUMPDEST DUP1 PUSH1 0x40 MLOAD PUSH2 0xE48 SWAP2 SWAP1 PUSH2 0x2FDF JUMP JUMPDEST PUSH1 0x40 MLOAD SWAP1 DUP2 SWAP1 SUB DUP2 KECCAK256 SWAP1 PUSH32 0x7BC2A48A4A566E237A12186F19D985B0F76AFC9D5290601EDAC19876253670C2 SWAP1 PUSH1 0x0 SWAP1 LOG2 POP POP POP POP JUMP JUMPDEST PUSH1 0x0 PUSH4 0x70576158 PUSH1 0xE0 SHL PUSH2 0xECA DUP2 CALLER PUSH1 0x0 CALLDATASIZE DUP1 DUP1 PUSH1 0x1F ADD PUSH1 0x20 DUP1 SWAP2 DIV MUL PUSH1 0x20 ADD PUSH1 0x40 MLOAD SWAP1 DUP2 ADD PUSH1 0x40 MSTORE DUP1 SWAP4 SWAP3 SWAP2 SWAP1 DUP2 DUP2 MSTORE PUSH1 0x20 ADD DUP4 DUP4 DUP1 DUP3 DUP5 CALLDATACOPY PUSH1 0x0 SWAP3 ADD SWAP2 SWAP1 SWAP2 MSTORE POP PUSH2 0x442 SWAP3 POP POP POP JUMP JUMPDEST PUSH2 0xEE6 JUMPI PUSH1 0x40 MLOAD PUSH3 0x461BCD PUSH1 0xE5 SHL DUP2 MSTORE PUSH1 0x4 ADD PUSH2 0x743 SWAP1 PUSH2 0x33AD JUMP JUMPDEST PUSH1 0x0 PUSH2 0xEF1 DUP6 PUSH2 0x1BD8 JUMP JUMPDEST PUSH1 0x0 DUP2 DUP2 MSTORE PUSH1 0x7 PUSH1 0x20 SWAP1 DUP2 MSTORE PUSH1 0x40 DUP1 DUP4 KECCAK256 DUP1 SLOAD PUSH32 0xFFFFFFFFFFFFFFFFFFFFFFFF0000000000000000000000000000000000000000 AND CALLER OR SWAP1 SSTORE PUSH1 0x6 SWAP1 SWAP2 MSTORE SWAP1 KECCAK256 SWAP1 SWAP2 POP PUSH2 0xF47 SWAP1 PUSH1 0x1 PUSH1 0x2 PUSH4 0xFFFFFFFF PUSH2 0x1BFC AND JUMP JUMPDEST PUSH2 0xF4F PUSH2 0x24C8 JUMP JUMPDEST POP PUSH1 0x20 DUP6 ADD MLOAD PUSH1 0x40 ADD MLOAD PUSH2 0xF69 DUP2 CALLER PUSH4 0xFFFFFFFF PUSH2 0x1FAE AND JUMP JUMPDEST PUSH1 0x0 DUP7 PUSH1 0x20 ADD MLOAD PUSH1 0x60 ADD MLOAD SWAP1 POP PUSH1 0x0 DUP1 PUSH1 0x0 DUP4 PUSH20 0xFFFFFFFFFFFFFFFFFFFFFFFFFFFFFFFFFFFFFFFF AND PUSH4 0x7B751B9E PUSH1 0x40 MLOAD DUP2 PUSH4 0xFFFFFFFF AND PUSH1 0xE0 SHL DUP2 MSTORE PUSH1 0x4 ADD PUSH1 0x60 PUSH1 0x40 MLOAD DUP1 DUP4 SUB DUP2 DUP7 DUP1 EXTCODESIZE ISZERO DUP1 ISZERO PUSH2 0xFC1 JUMPI PUSH1 0x0 DUP1 REVERT JUMPDEST POP GAS STATICCALL ISZERO DUP1 ISZERO PUSH2 0xFD5 JUMPI RETURNDATASIZE PUSH1 0x0 DUP1 RETURNDATACOPY RETURNDATASIZE PUSH1 0x0 REVERT JUMPDEST POP POP POP POP PUSH1 0x40 MLOAD RETURNDATASIZE PUSH1 0x1F NOT PUSH1 0x1F DUP3 ADD AND DUP3 ADD DUP1 PUSH1 0x40 MSTORE POP DUP2 ADD SWAP1 PUSH2 0xFF9 SWAP2 SWAP1 PUSH2 0x28B4 JUMP JUMPDEST SWAP2 SWAP5 POP SWAP3 POP SWAP1 POP PUSH2 0x1028 PUSH20 0xFFFFFFFFFFFFFFFFFFFFFFFFFFFFFFFFFFFFFFFF DUP4 AND CALLER ADDRESS DUP5 PUSH4 0xFFFFFFFF PUSH2 0x206B AND JUMP JUMPDEST PUSH2 0x1044 JUMPI PUSH1 0x40 MLOAD PUSH3 0x461BCD PUSH1 0xE5 SHL DUP2 MSTORE PUSH1 0x4 ADD PUSH2 0x743 SWAP1 PUSH2 0x3489 JUMP JUMPDEST PUSH2 0x106B PUSH20 0xFFFFFFFFFFFFFFFFFFFFFFFFFFFFFFFFFFFFFFFF DUP4 AND DUP5 DUP4 PUSH4 0xFFFFFFFF PUSH2 0x2121 AND JUMP JUMPDEST PUSH2 0x1087 JUMPI PUSH1 0x40 MLOAD PUSH3 0x461BCD PUSH1 0xE5 SHL DUP2 MSTORE PUSH1 0x4 ADD PUSH2 0x743 SWAP1 PUSH2 0x3565 JUMP JUMPDEST DUP4 PUSH20 0xFFFFFFFFFFFFFFFFFFFFFFFFFFFFFFFFFFFFFFFF AND PUSH4 0xC13517E1 PUSH1 0x2 DUP13 PUSH1 0x40 MLOAD PUSH1 0x20 ADD PUSH2 0x10B6 SWAP2 SWAP1 PUSH2 0x371F JUMP JUMPDEST PUSH1 0x40 MLOAD PUSH1 0x20 DUP2 DUP4 SUB SUB DUP2 MSTORE SWAP1 PUSH1 0x40 MSTORE PUSH1 0x40 MLOAD DUP4 PUSH4 0xFFFFFFFF AND PUSH1 0xE0 SHL DUP2 MSTORE PUSH1 0x4 ADD PUSH2 0x10E2 SWAP3 SWAP2 SWAP1 PUSH2 0x3326 JUMP JUMPDEST PUSH1 0x20 PUSH1 0x40 MLOAD DUP1 DUP4 SUB DUP2 PUSH1 0x0 DUP8 DUP1 EXTCODESIZE ISZERO DUP1 ISZERO PUSH2 0x10FC JUMPI PUSH1 0x0 DUP1 REVERT JUMPDEST POP GAS CALL ISZERO DUP1 ISZERO PUSH2 0x1110 JUMPI RETURNDATASIZE PUSH1 0x0 DUP1 RETURNDATACOPY RETURNDATASIZE PUSH1 0x0 REVERT JUMPDEST POP POP POP POP PUSH1 0x40 MLOAD RETURNDATASIZE PUSH1 0x1F NOT PUSH1 0x1F DUP3 ADD AND DUP3 ADD DUP1 PUSH1 0x40 MSTORE POP DUP2 ADD SWAP1 PUSH2 0x1134 SWAP2 SWAP1 PUSH2 0x2D46 JUMP JUMPDEST SWAP8 POP PUSH2 0x115E PUSH20 0xFFFFFFFFFFFFFFFFFFFFFFFFFFFFFFFFFFFFFFFF DUP4 AND DUP5 PUSH1 0x0 PUSH4 0xFFFFFFFF PUSH2 0x2121 AND JUMP JUMPDEST PUSH2 0x117A JUMPI PUSH1 0x40 MLOAD PUSH3 0x461BCD PUSH1 0xE5 SHL DUP2 MSTORE PUSH1 0x4 ADD PUSH2 0x743 SWAP1 PUSH2 0x3452 JUMP JUMPDEST DUP10 PUSH1 0x0 ADD MLOAD PUSH1 0x40 ADD MLOAD PUSH20 0xFFFFFFFFFFFFFFFFFFFFFFFFFFFFFFFFFFFFFFFF AND DUP9 DUP6 PUSH20 0xFFFFFFFFFFFFFFFFFFFFFFFFFFFFFFFFFFFFFFFF AND PUSH32 0x1988E4D59F596BA1A2D81E06874704A62502463AE6D99154F923E5EDEB98392B DUP14 PUSH1 0x0 ADD MLOAD PUSH1 0xC0 ADD MLOAD PUSH1 0x1 PUSH1 0x40 MLOAD PUSH2 0x11EB SWAP3 SWAP2 SWAP1 PUSH2 0x32C6 JUMP JUMPDEST PUSH1 0x40 MLOAD DUP1 SWAP2 SUB SWAP1 LOG4 CALLER PUSH20 0xFFFFFFFFFFFFFFFFFFFFFFFFFFFFFFFFFFFFFFFF AND DUP9 DUP6 PUSH20 0xFFFFFFFFFFFFFFFFFFFFFFFFFFFFFFFFFFFFFFFF AND PUSH32 0x1988E4D59F596BA1A2D81E06874704A62502463AE6D99154F923E5EDEB98392B DUP13 PUSH1 0x1 PUSH1 0x40 MLOAD PUSH2 0x1254 SWAP3 SWAP2 SWAP1 PUSH2 0x32C6 JUMP JUMPDEST PUSH1 0x40 MLOAD DUP1 SWAP2 SUB SWAP1 LOG4 PUSH1 0x40 MLOAD PUSH32 0x7E9ADCCF00000000000000000000000000000000000000000000000000000000 DUP2 MSTORE PUSH20 0xFFFFFFFFFFFFFFFFFFFFFFFFFFFFFFFFFFFFFFFF DUP6 AND SWAP1 PUSH4 0x7E9ADCCF SWAP1 PUSH2 0x12AE SWAP1 DUP12 SWAP1 PUSH1 0x4 ADD PUSH2 0x31A0 JUMP JUMPDEST PUSH1 0x0 PUSH1 0x40 MLOAD DUP1 DUP4 SUB DUP2 PUSH1 0x0 DUP8 DUP1 EXTCODESIZE ISZERO DUP1 ISZERO PUSH2 0x12C8 JUMPI PUSH1 0x0 DUP1 REVERT JUMPDEST POP GAS CALL ISZERO DUP1 ISZERO PUSH2 0x12DC JUMPI RETURNDATASIZE PUSH1 0x0 DUP1 RETURNDATACOPY RETURNDATASIZE PUSH1 0x0 REVERT JUMPDEST POP POP POP PUSH20 0xFFFFFFFFFFFFFFFFFFFFFFFFFFFFFFFFFFFFFFFF DUP6 AND PUSH1 0x0 SWAP1 DUP2 MSTORE PUSH1 0x8 PUSH1 0x20 SWAP1 DUP2 MSTORE PUSH1 0x40 DUP1 DUP4 KECCAK256 DUP13 DUP5 MSTORE SWAP1 SWAP2 MSTORE SWAP1 DUP2 SWAP1 KECCAK256 DUP9 SWAP1 SSTORE MLOAD CALLER SWAP2 POP DUP8 SWAP1 PUSH32 0x429DF837EB45B6713F725A0D3E57DB939FD7DD7D58BB3CD967FA37091572DB9F SWAP1 PUSH2 0x134B SWAP1 DUP14 SWAP1 DUP14 SWAP1 DUP12 SWAP1 PUSH2 0x32EA JUMP JUMPDEST PUSH1 0x40 MLOAD DUP1 SWAP2 SUB SWAP1 LOG3 POP POP POP POP POP POP POP SWAP3 SWAP2 POP POP JUMP JUMPDEST PUSH1 0x0 PUSH4 0x72896761 PUSH1 0xE0 SHL PUSH2 0x13AC DUP2 CALLER PUSH1 0x0 CALLDATASIZE DUP1 DUP1 PUSH1 0x1F ADD PUSH1 0x20 DUP1 SWAP2 DIV MUL PUSH1 0x20 ADD PUSH1 0x40 MLOAD SWAP1 DUP2 ADD PUSH1 0x40 MSTORE DUP1 SWAP4 SWAP3 SWAP2 SWAP1 DUP2 DUP2 MSTORE PUSH1 0x20 ADD DUP4 DUP4 DUP1 DUP3 DUP5 CALLDATACOPY PUSH1 0x0 SWAP3 ADD SWAP2 SWAP1 SWAP2 MSTORE POP PUSH2 0x442 SWAP3 POP POP POP JUMP JUMPDEST PUSH2 0x13C8 JUMPI PUSH1 0x40 MLOAD PUSH3 0x461BCD PUSH1 0xE5 SHL DUP2 MSTORE PUSH1 0x4 ADD PUSH2 0x743 SWAP1 PUSH2 0x33AD JUMP JUMPDEST PUSH2 0x6BD DUP4 PUSH2 0x1EC6 JUMP JUMPDEST PUSH1 0x6 PUSH1 0x20 MSTORE PUSH1 0x0 SWAP1 DUP2 MSTORE PUSH1 0x40 SWAP1 KECCAK256 SLOAD PUSH1 0xFF AND DUP2 JUMP JUMPDEST PUSH32 0x586DF60400000000000000000000000000000000000000000000000000000000 DUP2 JUMP JUMPDEST PUSH1 0x3 PUSH1 0x20 SWAP1 DUP2 MSTORE PUSH1 0x0 SWAP3 DUP4 MSTORE PUSH1 0x40 DUP1 DUP5 KECCAK256 SWAP1 SWAP2 MSTORE SWAP1 DUP3 MSTORE SWAP1 KECCAK256 SLOAD PUSH20 0xFFFFFFFFFFFFFFFFFFFFFFFFFFFFFFFFFFFFFFFF AND DUP2 JUMP JUMPDEST PUSH1 0x0 PUSH4 0x977D8964 PUSH1 0xE0 SHL PUSH2 0x1489 DUP2 CALLER PUSH1 0x0 CALLDATASIZE DUP1 DUP1 PUSH1 0x1F ADD PUSH1 0x20 DUP1 SWAP2 DIV MUL PUSH1 0x20 ADD PUSH1 0x40 MLOAD SWAP1 DUP2 ADD PUSH1 0x40 MSTORE DUP1 SWAP4 SWAP3 SWAP2 SWAP1 DUP2 DUP2 MSTORE PUSH1 0x20 ADD DUP4 DUP4 DUP1 DUP3 DUP5 CALLDATACOPY PUSH1 0x0 SWAP3 ADD SWAP2 SWAP1 SWAP2 MSTORE POP PUSH2 0x442 SWAP3 POP POP POP JUMP JUMPDEST PUSH2 0x14A5 JUMPI PUSH1 0x40 MLOAD PUSH3 0x461BCD PUSH1 0xE5 SHL DUP2 MSTORE PUSH1 0x4 ADD PUSH2 0x743 SWAP1 PUSH2 0x33AD JUMP JUMPDEST PUSH1 0x5 DUP1 SLOAD PUSH1 0x1 ADD SWAP1 DUP2 SWAP1 SSTORE DUP4 MLOAD MLOAD EQ PUSH2 0x14D0 JUMPI PUSH1 0x40 MLOAD PUSH3 0x461BCD PUSH1 0xE5 SHL DUP2 MSTORE PUSH1 0x4 ADD PUSH2 0x743 SWAP1 PUSH2 0x33E4 JUMP JUMPDEST PUSH1 0x0 PUSH2 0x14DF DUP5 PUSH1 0x20 ADD MLOAD PUSH2 0x19BF JUMP JUMPDEST SWAP1 POP PUSH1 0x4 SLOAD DUP2 EQ PUSH2 0x1502 JUMPI PUSH1 0x40 MLOAD PUSH3 0x461BCD PUSH1 0xE5 SHL DUP2 MSTORE PUSH1 0x4 ADD PUSH2 0x743 SWAP1 PUSH2 0x3376 JUMP JUMPDEST DUP4 PUSH1 0x20 ADD MLOAD PUSH1 0x0 ADD MLOAD TIMESTAMP ADD DUP5 PUSH1 0x0 ADD MLOAD PUSH1 0x20 ADD MLOAD LT ISZERO PUSH2 0x1534 JUMPI PUSH1 0x40 MLOAD PUSH3 0x461BCD PUSH1 0xE5 SHL DUP2 MSTORE PUSH1 0x4 ADD PUSH2 0x743 SWAP1 PUSH2 0x341B JUMP JUMPDEST DUP4 MLOAD PUSH1 0x40 ADD MLOAD PUSH20 0xFFFFFFFFFFFFFFFFFFFFFFFFFFFFFFFFFFFFFFFF AND CALLER EQ PUSH2 0x156E JUMPI PUSH1 0x40 MLOAD PUSH3 0x461BCD PUSH1 0xE5 SHL DUP2 MSTORE PUSH1 0x4 ADD PUSH2 0x743 SWAP1 PUSH2 0x34C0 JUMP JUMPDEST PUSH2 0x1584 PUSH2 0x157E DUP6 PUSH1 0x0 ADD MLOAD PUSH2 0x21D2 JUMP JUMPDEST DUP3 PUSH2 0x223A JUMP JUMPDEST PUSH1 0x0 DUP2 DUP2 MSTORE PUSH1 0x6 PUSH1 0x20 MSTORE PUSH1 0x40 DUP2 KECCAK256 SWAP2 SWAP5 POP PUSH2 0x15A7 SWAP2 SWAP1 PUSH1 0x1 PUSH4 0xFFFFFFFF PUSH2 0x1BFC AND JUMP JUMPDEST PUSH2 0x15AF PUSH2 0x24C8 JUMP JUMPDEST POP PUSH1 0x20 DUP1 DUP6 ADD MLOAD ADD MLOAD DUP5 MLOAD PUSH1 0x40 ADD MLOAD PUSH2 0x15CF SWAP1 DUP3 SWAP1 PUSH4 0xFFFFFFFF PUSH2 0x1FAE AND JUMP JUMPDEST DUP4 PUSH32 0x67F87FF46443C95843C7BD72A026DD23BA0015528CE9F8F15C5C6917645034EF DUP7 PUSH1 0x0 ADD MLOAD PUSH1 0x40 MLOAD PUSH2 0x1603 SWAP2 SWAP1 PUSH2 0x3776 JUMP JUMPDEST PUSH1 0x40 MLOAD DUP1 SWAP2 SUB SWAP1 LOG2 POP POP POP SWAP2 SWAP1 POP JUMP JUMPDEST PUSH1 0x40 DUP1 MLOAD PUSH1 0x20 CALLDATASIZE PUSH1 0x1F DUP2 ADD DUP3 SWAP1 DIV DUP3 MUL DUP4 ADD DUP3 ADD SWAP1 SWAP4 MSTORE DUP3 DUP3 MSTORE PUSH32 0x586DF60400000000000000000000000000000000000000000000000000000000 SWAP3 PUSH2 0x1676 SWAP3 DUP5 SWAP3 CALLER SWAP3 PUSH1 0x0 SWAP2 DUP2 SWAP1 DUP5 ADD DUP4 DUP3 DUP1 DUP3 DUP5 CALLDATACOPY PUSH1 0x0 SWAP3 ADD SWAP2 SWAP1 SWAP2 MSTORE POP PUSH2 0x442 SWAP3 POP POP POP JUMP JUMPDEST PUSH2 0x1692 JUMPI PUSH1 0x40 MLOAD PUSH3 0x461BCD PUSH1 0xE5 SHL DUP2 MSTORE PUSH1 0x4 ADD PUSH2 0x743 SWAP1 PUSH2 0x33AD JUMP JUMPDEST PUSH2 0x7FF DUP4 DUP4 PUSH2 0x1A46 JUMP JUMPDEST PUSH1 0x40 DUP1 MLOAD PUSH1 0x20 CALLDATASIZE PUSH1 0x1F DUP2 ADD DUP3 SWAP1 DIV DUP3 MUL DUP4 ADD DUP3 ADD SWAP1 SWAP4 MSTORE DUP3 DUP3 MSTORE PUSH32 0x586DF60400000000000000000000000000000000000000000000000000000000 SWAP3 PUSH2 0x16FF SWAP3 DUP5 SWAP3 CALLER SWAP3 PUSH1 0x0 SWAP2 DUP2 SWAP1 DUP5 ADD DUP4 DUP3 DUP1 DUP3 DUP5 CALLDATACOPY PUSH1 0x0 SWAP3 ADD SWAP2 SWAP1 SWAP2 MSTORE POP PUSH2 0x442 SWAP3 POP POP POP JUMP JUMPDEST PUSH2 0x171B JUMPI PUSH1 0x40 MLOAD PUSH3 0x461BCD PUSH1 0xE5 SHL DUP2 MSTORE PUSH1 0x4 ADD PUSH2 0x743 SWAP1 PUSH2 0x33AD JUMP JUMPDEST PUSH2 0x1726 DUP5 DUP5 DUP5 PUSH2 0x2275 JUMP JUMPDEST POP POP POP POP JUMP JUMPDEST PUSH1 0x5 SLOAD DUP2 JUMP JUMPDEST PUSH1 0x0 PUSH2 0x173D DUP3 PUSH2 0x1BD8 JUMP JUMPDEST PUSH1 0x0 DUP2 DUP2 MSTORE PUSH1 0x6 PUSH1 0x20 MSTORE PUSH1 0x40 SWAP1 KECCAK256 SWAP1 SWAP2 POP PUSH2 0x1761 SWAP1 PUSH1 0x4 PUSH1 0x5 PUSH4 0xFFFFFFFF PUSH2 0x1BFC AND JUMP JUMPDEST PUSH1 0x0 DUP2 DUP2 MSTORE PUSH1 0x7 PUSH1 0x20 SWAP1 DUP2 MSTORE PUSH1 0x40 SWAP1 SWAP2 KECCAK256 SLOAD DUP4 DUP3 ADD MLOAD SWAP1 SWAP2 ADD MLOAD PUSH20 0xFFFFFFFFFFFFFFFFFFFFFFFFFFFFFFFFFFFFFFFF SWAP1 SWAP2 AND SWAP1 PUSH2 0x17A4 SWAP1 DUP3 PUSH4 0xFFFFFFFF PUSH2 0x1C10 AND JUMP JUMPDEST PUSH1 0x20 DUP4 ADD MLOAD PUSH1 0x40 ADD MLOAD PUSH2 0x17BD SWAP1 DUP3 PUSH4 0xFFFFFFFF PUSH2 0x1C10 AND JUMP JUMPDEST POP PUSH1 0x0 SWAP1 DUP2 MSTORE PUSH1 0x7 PUSH1 0x20 MSTORE PUSH1 0x40 SWAP1 KECCAK256 DUP1 SLOAD PUSH32 0xFFFFFFFFFFFFFFFFFFFFFFFF0000000000000000000000000000000000000000 AND SWAP1 SSTORE POP JUMP JUMPDEST PUSH1 0x40 MLOAD PUSH3 0x461BCD PUSH1 0xE5 SHL DUP2 MSTORE PUSH1 0x4 ADD PUSH2 0x743 SWAP1 PUSH2 0x34F7 JUMP JUMPDEST PUSH1 0x40 DUP1 MLOAD PUSH1 0x20 CALLDATASIZE PUSH1 0x1F DUP2 ADD DUP3 SWAP1 DIV DUP3 MUL DUP4 ADD DUP3 ADD SWAP1 SWAP4 MSTORE DUP3 DUP3 MSTORE PUSH32 0x586DF60400000000000000000000000000000000000000000000000000000000 SWAP3 PUSH2 0x1870 SWAP3 DUP5 SWAP3 CALLER SWAP3 PUSH1 0x0 SWAP2 DUP2 SWAP1 DUP5 ADD DUP4 DUP3 DUP1 DUP3 DUP5 CALLDATACOPY PUSH1 0x0 SWAP3 ADD SWAP2 SWAP1 SWAP2 MSTORE POP PUSH2 0x442 SWAP3 POP POP POP JUMP JUMPDEST PUSH2 0x188C JUMPI PUSH1 0x40 MLOAD PUSH3 0x461BCD PUSH1 0xE5 SHL DUP2 MSTORE PUSH1 0x4 ADD PUSH2 0x743 SWAP1 PUSH2 0x33AD JUMP JUMPDEST PUSH2 0x1895 DUP3 PUSH2 0x1B20 JUMP JUMPDEST POP POP JUMP JUMPDEST PUSH4 0xC04C87B8 PUSH1 0xE0 SHL PUSH2 0x18E3 DUP2 CALLER PUSH1 0x0 CALLDATASIZE DUP1 DUP1 PUSH1 0x1F ADD PUSH1 0x20 DUP1 SWAP2 DIV MUL PUSH1 0x20 ADD PUSH1 0x40 MLOAD SWAP1 DUP2 ADD PUSH1 0x40 MSTORE DUP1 SWAP4 SWAP3 SWAP2 SWAP1 DUP2 DUP2 MSTORE PUSH1 0x20 ADD DUP4 DUP4 DUP1 DUP3 DUP5 CALLDATACOPY PUSH1 0x0 SWAP3 ADD SWAP2 SWAP1 SWAP2 MSTORE POP PUSH2 0x442 SWAP3 POP POP POP JUMP JUMPDEST PUSH2 0x18FF JUMPI PUSH1 0x40 MLOAD PUSH3 0x461BCD PUSH1 0xE5 SHL DUP2 MSTORE PUSH1 0x4 ADD PUSH2 0x743 SWAP1 PUSH2 0x33AD JUMP JUMPDEST PUSH1 0x0 DUP4 DUP2 MSTORE PUSH1 0x6 PUSH1 0x20 MSTORE PUSH1 0x40 SWAP1 KECCAK256 PUSH2 0x1920 SWAP1 PUSH1 0x1 PUSH1 0x5 PUSH4 0xFFFFFFFF PUSH2 0x1BFC AND JUMP JUMPDEST CALLER PUSH20 0xFFFFFFFFFFFFFFFFFFFFFFFFFFFFFFFFFFFFFFFF AND DUP4 PUSH32 0xE2530B9681F9726904F9CA7FE725C0C53EA1B72370981AC6A5BEAA9758C8C356 DUP5 PUSH1 0x40 MLOAD PUSH2 0x1967 SWAP2 SWAP1 PUSH2 0x32B3 JUMP JUMPDEST PUSH1 0x40 MLOAD DUP1 SWAP2 SUB SWAP1 LOG3 POP POP POP JUMP JUMPDEST PUSH1 0x7 PUSH1 0x20 MSTORE PUSH1 0x0 SWAP1 DUP2 MSTORE PUSH1 0x40 SWAP1 KECCAK256 SLOAD PUSH20 0xFFFFFFFFFFFFFFFFFFFFFFFFFFFFFFFFFFFFFFFF AND DUP2 JUMP JUMPDEST DUP1 MLOAD PUSH1 0x20 DUP2 DUP4 ADD DUP2 ADD DUP1 MLOAD PUSH1 0x2 DUP3 MSTORE SWAP3 DUP3 ADD SWAP2 SWAP1 SWAP4 ADD KECCAK256 SWAP2 MSTORE SLOAD DUP2 JUMP JUMPDEST PUSH1 0x4 SLOAD DUP2 JUMP JUMPDEST PUSH1 0x0 DUP2 PUSH1 0x40 MLOAD PUSH1 0x20 ADD PUSH2 0x19D2 SWAP2 SWAP1 PUSH2 0x370C JUMP JUMPDEST PUSH1 0x40 MLOAD PUSH1 0x20 DUP2 DUP4 SUB SUB DUP2 MSTORE SWAP1 PUSH1 0x40 MSTORE DUP1 MLOAD SWAP1 PUSH1 0x20 ADD KECCAK256 SWAP1 POP SWAP2 SWAP1 POP JUMP JUMPDEST PUSH1 0x0 PUSH32 0xFFFFFFFF00000000000000000000000000000000000000000000000000000000 DUP3 AND PUSH32 0x1FFC9A700000000000000000000000000000000000000000000000000000000 EQ DUP1 PUSH2 0x43C JUMPI POP POP PUSH1 0x1 TIMESTAMP EQ SWAP2 SWAP1 POP JUMP JUMPDEST PUSH2 0x1895 DUP3 DUP3 PUSH1 0x2 PUSH2 0x2275 JUMP JUMPDEST PUSH2 0x1A5B DUP3 PUSH2 0xB7C JUMP JUMPDEST ISZERO PUSH2 0x1A78 JUMPI PUSH1 0x40 MLOAD PUSH3 0x461BCD PUSH1 0xE5 SHL DUP2 MSTORE PUSH1 0x4 ADD PUSH2 0x743 SWAP1 PUSH2 0x352E JUMP JUMPDEST PUSH32 0xFFFFFFFF00000000000000000000000000000000000000000000000000000000 DUP3 AND PUSH1 0x0 DUP2 DUP2 MSTORE PUSH1 0x3 PUSH1 0x20 SWAP1 DUP2 MSTORE PUSH1 0x40 DUP1 DUP4 KECCAK256 PUSH20 0xFFFFFFFFFFFFFFFFFFFFFFFFFFFFFFFFFFFFFFFF DUP7 AND DUP1 DUP6 MSTORE SWAP3 MSTORE DUP1 DUP4 KECCAK256 DUP1 SLOAD PUSH32 0xFFFFFFFFFFFFFFFFFFFFFFFF0000000000000000000000000000000000000000 AND SWAP1 SSTORE MLOAD SWAP1 SWAP3 CALLER SWAP3 SWAP1 SWAP2 PUSH32 0x682F2C466C1E9F6883EB72CBCED01373E1CB18B05AE5C8BC04DC73D73E29F8CD SWAP2 SWAP1 LOG4 POP POP JUMP JUMPDEST PUSH2 0x1B29 DUP2 PUSH2 0xB7C JUMP JUMPDEST ISZERO PUSH2 0x1B46 JUMPI PUSH1 0x40 MLOAD PUSH3 0x461BCD PUSH1 0xE5 SHL DUP2 MSTORE PUSH1 0x4 ADD PUSH2 0x743 SWAP1 PUSH2 0x352E JUMP JUMPDEST PUSH32 0xFFFFFFFF00000000000000000000000000000000000000000000000000000000 DUP2 AND PUSH1 0x0 DUP2 DUP2 MSTORE PUSH1 0x3 PUSH1 0x20 SWAP1 DUP2 MSTORE PUSH1 0x40 DUP1 DUP4 KECCAK256 PUSH1 0x1 DUP1 DUP6 MSTORE SWAP3 MSTORE DUP1 DUP4 KECCAK256 DUP1 SLOAD PUSH32 0xFFFFFFFFFFFFFFFFFFFFFFFF0000000000000000000000000000000000000000 AND SWAP1 SWAP3 OR SWAP1 SWAP2 SSTORE MLOAD CALLER SWAP3 SWAP2 PUSH32 0x49C6B8B07A879425742523FA80F8FFB25E39AD518C93A5896A0DF19518397E5 SWAP2 LOG3 POP JUMP JUMPDEST PUSH1 0x0 PUSH2 0x43C PUSH2 0x1BEA DUP4 PUSH1 0x0 ADD MLOAD PUSH2 0x21D2 JUMP JUMPDEST PUSH2 0x1BF7 DUP5 PUSH1 0x20 ADD MLOAD PUSH2 0x19BF JUMP JUMPDEST PUSH2 0x223A JUMP JUMPDEST PUSH2 0x1C06 DUP4 DUP4 PUSH2 0x2396 JUMP JUMPDEST PUSH2 0x7FF DUP4 DUP3 PUSH2 0x23CF JUMP JUMPDEST PUSH1 0x20 DUP3 ADD MLOAD ISZERO PUSH2 0x1895 JUMPI DUP2 MLOAD PUSH1 0x20 DUP4 ADD MLOAD PUSH2 0x1C4A SWAP1 PUSH20 0xFFFFFFFFFFFFFFFFFFFFFFFFFFFFFFFFFFFFFFFF DUP4 AND SWAP1 DUP5 SWAP1 PUSH4 0xFFFFFFFF PUSH2 0x240E AND JUMP JUMPDEST PUSH2 0x1C66 JUMPI PUSH1 0x40 MLOAD PUSH3 0x461BCD PUSH1 0xE5 SHL DUP2 MSTORE PUSH1 0x4 ADD PUSH2 0x743 SWAP1 PUSH2 0x359C JUMP JUMPDEST DUP2 PUSH20 0xFFFFFFFFFFFFFFFFFFFFFFFFFFFFFFFFFFFFFFFF AND DUP4 PUSH1 0x0 ADD MLOAD PUSH20 0xFFFFFFFFFFFFFFFFFFFFFFFFFFFFFFFFFFFFFFFF AND PUSH32 0xC1C90B8E0705B212262C0DBD7580EFE1862C2F185BF96899226F7596BEB2DB09 DUP6 PUSH1 0x20 ADD MLOAD PUSH1 0x40 MLOAD PUSH2 0x1967 SWAP2 SWAP1 PUSH2 0x31A0 JUMP JUMPDEST PUSH1 0x40 MLOAD PUSH1 0x0 SWAP1 PUSH1 0x60 SWAP1 CALLER SWAP1 DUP5 SWAP1 PUSH32 0x59C3746E635078EFC737FB3F37DD8188203B8DF10BBAD35878A7D156F4F51C41 SWAP1 DUP6 SWAP1 LOG3 DUP4 PUSH1 0x60 ADD MLOAD PUSH20 0xFFFFFFFFFFFFFFFFFFFFFFFFFFFFFFFFFFFFFFFF AND PUSH4 0xC2D85AFC DUP6 PUSH1 0x80 ADD MLOAD DUP7 PUSH1 0xA0 ADD MLOAD DUP7 PUSH1 0x40 MLOAD DUP5 PUSH4 0xFFFFFFFF AND PUSH1 0xE0 SHL DUP2 MSTORE PUSH1 0x4 ADD PUSH2 0x1D46 SWAP4 SWAP3 SWAP2 SWAP1 PUSH2 0x3170 JUMP JUMPDEST PUSH1 0x0 PUSH1 0x40 MLOAD DUP1 DUP4 SUB DUP2 PUSH1 0x0 DUP8 DUP1 EXTCODESIZE ISZERO DUP1 ISZERO PUSH2 0x1D60 JUMPI PUSH1 0x0 DUP1 REVERT JUMPDEST POP GAS CALL ISZERO DUP1 ISZERO PUSH2 0x1D74 JUMPI RETURNDATASIZE PUSH1 0x0 DUP1 RETURNDATACOPY RETURNDATASIZE PUSH1 0x0 REVERT JUMPDEST POP POP POP POP PUSH1 0x40 MLOAD RETURNDATASIZE PUSH1 0x0 DUP3 RETURNDATACOPY PUSH1 0x1F RETURNDATASIZE SWAP1 DUP2 ADD PUSH32 0xFFFFFFFFFFFFFFFFFFFFFFFFFFFFFFFFFFFFFFFFFFFFFFFFFFFFFFFFFFFFFFE0 AND DUP3 ADD PUSH1 0x40 MSTORE PUSH2 0x1DBA SWAP2 SWAP1 DUP2 ADD SWAP1 PUSH2 0x2A19 JUMP JUMPDEST SWAP2 POP SWAP2 POP SWAP3 POP SWAP3 SWAP1 POP JUMP JUMPDEST PUSH1 0x40 MLOAD DUP1 PUSH1 0x40 ADD PUSH1 0x40 MSTORE DUP1 PUSH1 0x3 DUP2 MSTORE PUSH1 0x20 ADD PUSH32 0x61636C0000000000000000000000000000000000000000000000000000000000 DUP2 MSTORE POP PUSH1 0x2 DUP2 PUSH1 0x40 MLOAD PUSH2 0x1E0B SWAP2 SWAP1 PUSH2 0x2FDF JUMP JUMPDEST SWAP1 DUP2 MSTORE PUSH1 0x20 ADD PUSH1 0x40 MLOAD DUP1 SWAP2 SUB SWAP1 KECCAK256 SLOAD PUSH1 0x0 EQ PUSH2 0x1E39 JUMPI PUSH1 0x40 MLOAD PUSH3 0x461BCD PUSH1 0xE5 SHL DUP2 MSTORE PUSH1 0x4 ADD PUSH2 0x743 SWAP1 PUSH2 0x35D3 JUMP JUMPDEST NUMBER PUSH1 0x2 DUP3 PUSH1 0x40 MLOAD PUSH2 0x1E4A SWAP2 SWAP1 PUSH2 0x2FDF JUMP JUMPDEST SWAP1 DUP2 MSTORE PUSH1 0x40 MLOAD SWAP1 DUP2 SWAP1 SUB PUSH1 0x20 ADD SWAP1 KECCAK256 SSTORE PUSH2 0x1E84 PUSH32 0x586DF60400000000000000000000000000000000000000000000000000000000 DUP4 PUSH2 0x1A46 JUMP JUMPDEST DUP1 PUSH1 0x40 MLOAD PUSH2 0x1E92 SWAP2 SWAP1 PUSH2 0x2FDF JUMP JUMPDEST PUSH1 0x40 MLOAD SWAP1 DUP2 SWAP1 SUB DUP2 KECCAK256 SWAP1 PUSH32 0x7BC2A48A4A566E237A12186F19D985B0F76AFC9D5290601EDAC19876253670C2 SWAP1 PUSH1 0x0 SWAP1 LOG2 POP POP JUMP JUMPDEST PUSH1 0x0 PUSH2 0x1ED1 DUP3 PUSH2 0x19BF JUMP JUMPDEST PUSH1 0x4 DUP2 SWAP1 SSTORE PUSH1 0x40 MLOAD CALLER SWAP2 SWAP1 PUSH32 0xA61DCDFCDFC6DA74A563DE8455CC4AE6D6C9D0B442EB2F7309E6B31E4680D79 SWAP1 PUSH2 0x1F09 SWAP1 DUP7 SWAP1 PUSH2 0x370C JUMP JUMPDEST PUSH1 0x40 MLOAD DUP1 SWAP2 SUB SWAP1 LOG3 POP POP PUSH1 0x4 SLOAD SWAP1 JUMP JUMPDEST PUSH32 0xFFFFFFFF00000000000000000000000000000000000000000000000000000000 DUP2 AND PUSH1 0x0 SWAP1 DUP2 MSTORE PUSH1 0x20 DUP2 SWAP1 MSTORE PUSH1 0x40 SWAP1 DUP2 SWAP1 KECCAK256 DUP1 SLOAD PUSH32 0xFFFFFFFFFFFFFFFFFFFFFFFFFFFFFFFFFFFFFFFFFFFFFFFFFFFFFFFFFFFFFF00 AND PUSH1 0x1 OR SWAP1 SSTORE MLOAD PUSH32 0xBF5E1F87F5AB65B58074CD29244D7C487A948983CDA4B932E0F966B62BD34ACA SWAP1 PUSH2 0x1FA3 SWAP1 DUP4 SWAP1 PUSH2 0x322F JUMP JUMPDEST PUSH1 0x40 MLOAD DUP1 SWAP2 SUB SWAP1 LOG1 POP JUMP JUMPDEST PUSH1 0x20 DUP3 ADD MLOAD ISZERO PUSH2 0x1895 JUMPI DUP2 MLOAD PUSH1 0x20 DUP4 ADD MLOAD PUSH2 0x1FEA SWAP1 PUSH20 0xFFFFFFFFFFFFFFFFFFFFFFFFFFFFFFFFFFFFFFFF DUP4 AND SWAP1 DUP5 SWAP1 ADDRESS SWAP1 PUSH4 0xFFFFFFFF PUSH2 0x206B AND JUMP JUMPDEST PUSH2 0x2006 JUMPI PUSH1 0x40 MLOAD PUSH3 0x461BCD PUSH1 0xE5 SHL DUP2 MSTORE PUSH1 0x4 ADD PUSH2 0x743 SWAP1 PUSH2 0x3667 JUMP JUMPDEST DUP2 PUSH20 0xFFFFFFFFFFFFFFFFFFFFFFFFFFFFFFFFFFFFFFFF AND DUP4 PUSH1 0x0 ADD MLOAD PUSH20 0xFFFFFFFFFFFFFFFFFFFFFFFFFFFFFFFFFFFFFFFF AND PUSH32 0xEC36C0364D931187A76CF66D7EEE08FAD0EC2E8B7458A8D8B26B36769D4D13F3 DUP6 PUSH1 0x20 ADD MLOAD PUSH1 0x40 MLOAD PUSH2 0x1967 SWAP2 SWAP1 PUSH2 0x31A0 JUMP JUMPDEST PUSH1 0x0 PUSH1 0x60 PUSH4 0x23B872DD PUSH1 0xE0 SHL DUP6 DUP6 DUP6 PUSH1 0x40 MLOAD PUSH1 0x24 ADD PUSH2 0x208C SWAP4 SWAP3 SWAP2 SWAP1 PUSH2 0x3106 JUMP JUMPDEST PUSH1 0x40 DUP1 MLOAD PUSH32 0xFFFFFFFFFFFFFFFFFFFFFFFFFFFFFFFFFFFFFFFFFFFFFFFFFFFFFFFFFFFFFFE0 DUP2 DUP5 SUB ADD DUP2 MSTORE SWAP2 SWAP1 MSTORE PUSH1 0x20 DUP2 ADD DUP1 MLOAD PUSH28 0xFFFFFFFFFFFFFFFFFFFFFFFFFFFFFFFFFFFFFFFFFFFFFFFFFFFFFFFF AND PUSH32 0xFFFFFFFF00000000000000000000000000000000000000000000000000000000 SWAP1 SWAP4 AND SWAP3 SWAP1 SWAP3 OR SWAP1 SWAP2 MSTORE SWAP1 POP PUSH2 0x2115 DUP7 DUP3 PUSH2 0x242D JUMP JUMPDEST SWAP2 POP POP JUMPDEST SWAP5 SWAP4 POP POP POP POP JUMP JUMPDEST PUSH1 0x0 PUSH1 0x60 PUSH4 0x95EA7B3 PUSH1 0xE0 SHL DUP5 DUP5 PUSH1 0x40 MLOAD PUSH1 0x24 ADD PUSH2 0x2140 SWAP3 SWAP2 SWAP1 PUSH2 0x3137 JUMP JUMPDEST PUSH1 0x40 DUP1 MLOAD PUSH32 0xFFFFFFFFFFFFFFFFFFFFFFFFFFFFFFFFFFFFFFFFFFFFFFFFFFFFFFFFFFFFFFE0 DUP2 DUP5 SUB ADD DUP2 MSTORE SWAP2 SWAP1 MSTORE PUSH1 0x20 DUP2 ADD DUP1 MLOAD PUSH28 0xFFFFFFFFFFFFFFFFFFFFFFFFFFFFFFFFFFFFFFFFFFFFFFFFFFFFFFFF AND PUSH32 0xFFFFFFFF00000000000000000000000000000000000000000000000000000000 SWAP1 SWAP4 AND SWAP3 SWAP1 SWAP3 OR SWAP1 SWAP2 MSTORE SWAP1 POP PUSH2 0x21C9 DUP6 DUP3 PUSH2 0x242D JUMP JUMPDEST SWAP6 SWAP5 POP POP POP POP POP JUMP JUMPDEST PUSH1 0x0 DUP2 PUSH1 0x0 ADD MLOAD DUP3 PUSH1 0x20 ADD MLOAD DUP4 PUSH1 0x40 ADD MLOAD DUP5 PUSH1 0x60 ADD MLOAD DUP6 PUSH1 0x80 ADD MLOAD PUSH1 0x40 MLOAD PUSH1 0x20 ADD PUSH2 0x21FD SWAP2 SWAP1 PUSH2 0x315D JUMP JUMPDEST PUSH1 0x40 MLOAD PUSH1 0x20 DUP2 DUP4 SUB SUB DUP2 MSTORE SWAP1 PUSH1 0x40 MSTORE DUP1 MLOAD SWAP1 PUSH1 0x20 ADD KECCAK256 DUP7 PUSH1 0xA0 ADD MLOAD DUP8 PUSH1 0xC0 ADD MLOAD DUP1 MLOAD SWAP1 PUSH1 0x20 ADD KECCAK256 PUSH1 0x40 MLOAD PUSH1 0x20 ADD PUSH2 0x19D2 SWAP8 SWAP7 SWAP6 SWAP5 SWAP4 SWAP3 SWAP2 SWAP1 PUSH2 0x308C JUMP JUMPDEST PUSH1 0x40 MLOAD PUSH1 0x0 SWAP1 CHAINID SWAP1 PUSH2 0x2256 SWAP1 ADDRESS SWAP1 DUP4 SWAP1 DUP8 SWAP1 DUP8 SWAP1 PUSH1 0x20 ADD PUSH2 0x3024 JUMP JUMPDEST PUSH1 0x40 MLOAD PUSH1 0x20 DUP2 DUP4 SUB SUB DUP2 MSTORE SWAP1 PUSH1 0x40 MSTORE DUP1 MLOAD SWAP1 PUSH1 0x20 ADD KECCAK256 SWAP2 POP POP SWAP3 SWAP2 POP POP JUMP JUMPDEST PUSH2 0x227E DUP4 PUSH2 0xB7C JUMP JUMPDEST ISZERO PUSH2 0x229B JUMPI PUSH1 0x40 MLOAD PUSH3 0x461BCD PUSH1 0xE5 SHL DUP2 MSTORE PUSH1 0x4 ADD PUSH2 0x743 SWAP1 PUSH2 0x352E JUMP JUMPDEST PUSH20 0xFFFFFFFFFFFFFFFFFFFFFFFFFFFFFFFFFFFFFFFF DUP3 AND PUSH1 0x1 EQ ISZERO PUSH2 0x22D2 JUMPI PUSH1 0x40 MLOAD PUSH3 0x461BCD PUSH1 0xE5 SHL DUP2 MSTORE PUSH1 0x4 ADD PUSH2 0x743 SWAP1 PUSH2 0x369E JUMP JUMPDEST PUSH32 0xFFFFFFFF00000000000000000000000000000000000000000000000000000000 DUP4 AND PUSH1 0x0 DUP2 DUP2 MSTORE PUSH1 0x3 PUSH1 0x20 SWAP1 DUP2 MSTORE PUSH1 0x40 DUP1 DUP4 KECCAK256 PUSH20 0xFFFFFFFFFFFFFFFFFFFFFFFFFFFFFFFFFFFFFFFF DUP8 DUP2 AND DUP1 DUP7 MSTORE SWAP2 SWAP1 SWAP4 MSTORE SWAP3 DUP2 SWAP1 KECCAK256 DUP1 SLOAD PUSH32 0xFFFFFFFFFFFFFFFFFFFFFFFF0000000000000000000000000000000000000000 AND SWAP3 DUP7 AND SWAP3 SWAP1 SWAP3 OR SWAP1 SWAP2 SSTORE MLOAD SWAP1 SWAP2 CALLER SWAP2 PUSH32 0xC62063B81F7036FD97A0DC546516E99F11004D2D76CA0FDDD3866346C86E7091 SWAP1 PUSH2 0x2389 SWAP1 DUP7 SWAP1 PUSH2 0x30E5 JUMP JUMPDEST PUSH1 0x40 MLOAD DUP1 SWAP2 SUB SWAP1 LOG4 POP POP POP JUMP JUMPDEST DUP1 PUSH1 0x6 DUP2 GT ISZERO PUSH2 0x23A2 JUMPI INVALID JUMPDEST DUP3 SLOAD PUSH1 0xFF AND PUSH1 0x6 DUP2 GT ISZERO PUSH2 0x23B2 JUMPI INVALID JUMPDEST EQ PUSH2 0x1895 JUMPI PUSH1 0x40 MLOAD PUSH3 0x461BCD PUSH1 0xE5 SHL DUP2 MSTORE PUSH1 0x4 ADD PUSH2 0x743 SWAP1 PUSH2 0x333F JUMP JUMPDEST DUP2 SLOAD DUP2 SWAP1 DUP4 SWAP1 PUSH32 0xFFFFFFFFFFFFFFFFFFFFFFFFFFFFFFFFFFFFFFFFFFFFFFFFFFFFFFFFFFFFFF00 AND PUSH1 0x1 DUP4 PUSH1 0x6 DUP2 GT ISZERO PUSH2 0x2405 JUMPI INVALID JUMPDEST MUL OR SWAP1 SSTORE POP POP POP JUMP JUMPDEST PUSH1 0x0 PUSH1 0x60 PUSH4 0xA9059CBB PUSH1 0xE0 SHL DUP5 DUP5 PUSH1 0x40 MLOAD PUSH1 0x24 ADD PUSH2 0x2140 SWAP3 SWAP2 SWAP1 PUSH2 0x3137 JUMP JUMPDEST PUSH1 0x0 PUSH2 0x244E DUP4 PUSH20 0xFFFFFFFFFFFFFFFFFFFFFFFFFFFFFFFFFFFFFFFF AND PUSH2 0x24A0 JUMP JUMPDEST PUSH2 0x245A JUMPI POP PUSH1 0x0 PUSH2 0x43C JUMP JUMPDEST PUSH1 0x40 MLOAD PUSH1 0x20 DUP2 DUP5 MLOAD PUSH1 0x20 DUP7 ADD PUSH1 0x0 DUP9 GAS CALL DUP1 ISZERO PUSH2 0x2498 JUMPI RETURNDATASIZE DUP1 ISZERO PUSH2 0x2485 JUMPI PUSH1 0x20 DUP2 EQ PUSH2 0x248E JUMPI PUSH2 0x2496 JUMP JUMPDEST PUSH1 0x1 SWAP4 POP PUSH2 0x2496 JUMP JUMPDEST PUSH1 0x1 DUP4 MLOAD EQ SWAP4 POP JUMPDEST POP JUMPDEST POP POP SWAP3 SWAP2 POP POP JUMP JUMPDEST EXTCODESIZE ISZERO NOT SWAP1 JUMP JUMPDEST PUSH1 0x40 DUP1 MLOAD PUSH1 0x60 DUP2 ADD SWAP1 SWAP2 MSTORE DUP1 PUSH1 0x0 DUP2 MSTORE PUSH1 0x0 PUSH1 0x20 DUP3 ADD DUP2 SWAP1 MSTORE PUSH1 0x40 SWAP1 SWAP2 ADD MSTORE SWAP1 JUMP JUMPDEST PUSH1 0x40 DUP1 MLOAD DUP1 DUP3 ADD SWAP1 SWAP2 MSTORE PUSH1 0x0 DUP1 DUP3 MSTORE PUSH1 0x20 DUP3 ADD MSTORE SWAP1 JUMP JUMPDEST DUP1 CALLDATALOAD PUSH2 0x43C DUP2 PUSH2 0x383E JUMP JUMPDEST PUSH1 0x0 DUP3 PUSH1 0x1F DUP4 ADD SLT PUSH2 0x24FA JUMPI DUP1 DUP2 REVERT JUMPDEST DUP2 CALLDATALOAD PUSH2 0x250D PUSH2 0x2508 DUP3 PUSH2 0x37B0 JUMP JUMPDEST PUSH2 0x3789 JUMP JUMPDEST DUP2 DUP2 MSTORE SWAP2 POP PUSH1 0x20 DUP1 DUP4 ADD SWAP1 DUP5 DUP2 ADD PUSH1 0x0 JUMPDEST DUP5 DUP2 LT ISZERO PUSH2 0x25C1 JUMPI DUP2 CALLDATALOAD DUP8 ADD PUSH1 0x60 DUP1 PUSH32 0xFFFFFFFFFFFFFFFFFFFFFFFFFFFFFFFFFFFFFFFFFFFFFFFFFFFFFFFFFFFFFFE0 DUP4 DUP13 SUB ADD SLT ISZERO PUSH2 0x255D JUMPI PUSH1 0x0 DUP1 REVERT JUMPDEST PUSH2 0x2566 DUP2 PUSH2 0x3789 JUMP JUMPDEST PUSH2 0x2572 DUP12 DUP8 DUP6 ADD PUSH2 0x24DF JUMP JUMPDEST DUP2 MSTORE PUSH1 0x40 DUP1 DUP5 ADD CALLDATALOAD DUP8 DUP4 ADD MSTORE DUP3 DUP5 ADD CALLDATALOAD PUSH8 0xFFFFFFFFFFFFFFFF DUP2 GT ISZERO PUSH2 0x2597 JUMPI PUSH1 0x0 DUP1 REVERT JUMPDEST PUSH2 0x25A5 DUP14 DUP10 DUP4 DUP9 ADD ADD PUSH2 0x25CC JUMP JUMPDEST SWAP2 DUP4 ADD SWAP2 SWAP1 SWAP2 MSTORE POP DUP7 MSTORE POP POP SWAP3 DUP3 ADD SWAP3 SWAP1 DUP3 ADD SWAP1 PUSH1 0x1 ADD PUSH2 0x251E JUMP JUMPDEST POP POP POP POP POP SWAP3 SWAP2 POP POP JUMP JUMPDEST PUSH1 0x0 DUP3 PUSH1 0x1F DUP4 ADD SLT PUSH2 0x25DC JUMPI DUP1 DUP2 REVERT JUMPDEST DUP2 CALLDATALOAD PUSH2 0x25EA PUSH2 0x2508 DUP3 PUSH2 0x37D0 JUMP JUMPDEST SWAP2 POP DUP1 DUP3 MSTORE DUP4 PUSH1 0x20 DUP3 DUP6 ADD ADD GT ISZERO PUSH2 0x2601 JUMPI PUSH1 0x0 DUP1 REVERT JUMPDEST DUP1 PUSH1 0x20 DUP5 ADD PUSH1 0x20 DUP5 ADD CALLDATACOPY PUSH1 0x0 SWAP1 DUP3 ADD PUSH1 0x20 ADD MSTORE SWAP3 SWAP2 POP POP JUMP JUMPDEST PUSH1 0x0 DUP3 PUSH1 0x1F DUP4 ADD SLT PUSH2 0x262A JUMPI DUP1 DUP2 REVERT JUMPDEST DUP2 MLOAD PUSH2 0x2638 PUSH2 0x2508 DUP3 PUSH2 0x37D0 JUMP JUMPDEST SWAP2 POP DUP1 DUP3 MSTORE DUP4 PUSH1 0x20 DUP3 DUP6 ADD ADD GT ISZERO PUSH2 0x264F JUMPI PUSH1 0x0 DUP1 REVERT JUMPDEST PUSH2 0x2660 DUP2 PUSH1 0x20 DUP5 ADD PUSH1 0x20 DUP7 ADD PUSH2 0x3812 JUMP JUMPDEST POP SWAP3 SWAP2 POP POP JUMP JUMPDEST PUSH1 0x0 PUSH1 0x60 DUP3 DUP5 SUB SLT ISZERO PUSH2 0x2678 JUMPI DUP1 DUP2 REVERT JUMPDEST PUSH2 0x2682 PUSH1 0x60 PUSH2 0x3789 JUMP JUMPDEST SWAP1 POP DUP2 CALLDATALOAD PUSH1 0x3 DUP2 LT PUSH2 0x2693 JUMPI PUSH1 0x0 DUP1 REVERT JUMPDEST DUP2 MSTORE PUSH1 0x20 DUP3 ADD CALLDATALOAD PUSH32 0xFFFFFFFF00000000000000000000000000000000000000000000000000000000 DUP2 AND DUP2 EQ PUSH2 0x26C8 JUMPI PUSH1 0x0 DUP1 REVERT JUMPDEST PUSH1 0x20 DUP3 ADD MSTORE PUSH1 0x40 DUP3 ADD CALLDATALOAD PUSH2 0x26DB DUP2 PUSH2 0x383E JUMP JUMPDEST PUSH1 0x40 DUP3 ADD MSTORE SWAP3 SWAP2 POP POP JUMP JUMPDEST PUSH1 0x0 PUSH1 0x40 DUP3 DUP5 SUB SLT ISZERO PUSH2 0x26F7 JUMPI DUP1 DUP2 REVERT JUMPDEST PUSH2 0x2701 PUSH1 0x40 PUSH2 0x3789 JUMP JUMPDEST SWAP1 POP DUP2 CALLDATALOAD PUSH2 0x270E DUP2 PUSH2 0x383E JUMP JUMPDEST DUP1 DUP3 MSTORE POP PUSH1 0x20 DUP3 ADD CALLDATALOAD PUSH1 0x20 DUP3 ADD MSTORE SWAP3 SWAP2 POP POP JUMP JUMPDEST PUSH1 0x0 PUSH1 0xE0 DUP3 DUP5 SUB SLT ISZERO PUSH2 0x2733 JUMPI DUP1 DUP2 REVERT JUMPDEST PUSH2 0x273D PUSH1 0xA0 PUSH2 0x3789 JUMP JUMPDEST SWAP1 POP DUP2 CALLDATALOAD DUP2 MSTORE PUSH2 0x2750 DUP4 PUSH1 0x20 DUP5 ADD PUSH2 0x26E6 JUMP JUMPDEST PUSH1 0x20 DUP3 ADD MSTORE PUSH2 0x2762 DUP4 PUSH1 0x60 DUP5 ADD PUSH2 0x26E6 JUMP JUMPDEST PUSH1 0x40 DUP3 ADD MSTORE PUSH1 0xA0 DUP3 ADD CALLDATALOAD PUSH2 0x2775 DUP2 PUSH2 0x383E JUMP JUMPDEST PUSH1 0x60 DUP3 ADD MSTORE PUSH1 0xC0 DUP3 ADD CALLDATALOAD PUSH8 0xFFFFFFFFFFFFFFFF DUP2 GT ISZERO PUSH2 0x2794 JUMPI PUSH1 0x0 DUP1 REVERT JUMPDEST PUSH2 0x27A0 DUP5 DUP3 DUP6 ADD PUSH2 0x25CC JUMP JUMPDEST PUSH1 0x80 DUP4 ADD MSTORE POP SWAP3 SWAP2 POP POP JUMP JUMPDEST PUSH1 0x0 PUSH1 0x40 DUP3 DUP5 SUB SLT ISZERO PUSH2 0x27BD JUMPI DUP1 DUP2 REVERT JUMPDEST PUSH2 0x27C7 PUSH1 0x40 PUSH2 0x3789 JUMP JUMPDEST SWAP1 POP DUP2 CALLDATALOAD PUSH8 0xFFFFFFFFFFFFFFFF DUP1 DUP3 GT ISZERO PUSH2 0x27E1 JUMPI PUSH1 0x0 DUP1 REVERT JUMPDEST DUP2 DUP5 ADD PUSH1 0xE0 DUP2 DUP8 SUB SLT ISZERO PUSH2 0x27F4 JUMPI PUSH1 0x0 DUP1 REVERT JUMPDEST PUSH2 0x27FE PUSH1 0xE0 PUSH2 0x3789 JUMP JUMPDEST SWAP3 POP DUP1 CALLDATALOAD DUP4 MSTORE PUSH1 0x20 DUP2 ADD CALLDATALOAD PUSH1 0x20 DUP5 ADD MSTORE PUSH2 0x281B DUP7 PUSH1 0x40 DUP4 ADD PUSH2 0x24DF JUMP JUMPDEST PUSH1 0x40 DUP5 ADD MSTORE PUSH2 0x282D DUP7 PUSH1 0x60 DUP4 ADD PUSH2 0x24DF JUMP JUMPDEST PUSH1 0x60 DUP5 ADD MSTORE PUSH1 0x80 DUP2 ADD CALLDATALOAD DUP3 DUP2 GT ISZERO PUSH2 0x2844 JUMPI PUSH1 0x0 DUP1 REVERT JUMPDEST PUSH2 0x2850 DUP8 DUP3 DUP5 ADD PUSH2 0x24EA JUMP JUMPDEST PUSH1 0x80 DUP6 ADD MSTORE POP PUSH1 0xA0 DUP2 ADD CALLDATALOAD PUSH1 0xA0 DUP5 ADD MSTORE PUSH1 0xC0 DUP2 ADD CALLDATALOAD DUP3 DUP2 GT ISZERO PUSH2 0x2872 JUMPI PUSH1 0x0 DUP1 REVERT JUMPDEST PUSH2 0x287E DUP8 DUP3 DUP5 ADD PUSH2 0x25CC JUMP JUMPDEST PUSH1 0xC0 DUP6 ADD MSTORE POP POP SWAP1 DUP3 MSTORE PUSH1 0x20 DUP4 ADD CALLDATALOAD SWAP1 DUP1 DUP3 GT ISZERO PUSH2 0x289B JUMPI PUSH1 0x0 DUP1 REVERT JUMPDEST POP PUSH2 0x28A8 DUP5 DUP3 DUP6 ADD PUSH2 0x2722 JUMP JUMPDEST PUSH1 0x20 DUP4 ADD MSTORE POP SWAP3 SWAP2 POP POP JUMP JUMPDEST PUSH1 0x0 DUP1 PUSH1 0x0 PUSH1 0x60 DUP5 DUP7 SUB SLT ISZERO PUSH2 0x28C8 JUMPI DUP3 DUP4 REVERT JUMPDEST DUP4 MLOAD PUSH2 0x28D3 DUP2 PUSH2 0x383E JUMP JUMPDEST PUSH1 0x20 DUP6 ADD MLOAD SWAP1 SWAP4 POP PUSH2 0x28E4 DUP2 PUSH2 0x383E JUMP JUMPDEST DUP1 SWAP3 POP POP PUSH1 0x40 DUP5 ADD MLOAD SWAP1 POP SWAP3 POP SWAP3 POP SWAP3 JUMP JUMPDEST PUSH1 0x0 DUP1 PUSH1 0x40 DUP4 DUP6 SUB SLT ISZERO PUSH2 0x2908 JUMPI DUP2 DUP3 REVERT JUMPDEST DUP3 CALLDATALOAD PUSH2 0x2913 DUP2 PUSH2 0x383E JUMP JUMPDEST SWAP2 POP PUSH1 0x20 DUP4 ADD CALLDATALOAD PUSH8 0xFFFFFFFFFFFFFFFF DUP2 GT ISZERO PUSH2 0x292E JUMPI DUP2 DUP3 REVERT JUMPDEST PUSH2 0x293A DUP6 DUP3 DUP7 ADD PUSH2 0x2722 JUMP JUMPDEST SWAP2 POP POP SWAP3 POP SWAP3 SWAP1 POP JUMP JUMPDEST PUSH1 0x0 PUSH1 0x20 DUP1 DUP4 DUP6 SUB SLT ISZERO PUSH2 0x2956 JUMPI DUP2 DUP3 REVERT JUMPDEST DUP3 CALLDATALOAD PUSH8 0xFFFFFFFFFFFFFFFF DUP2 GT ISZERO PUSH2 0x296C JUMPI DUP3 DUP4 REVERT JUMPDEST DUP1 DUP5 ADD DUP6 PUSH1 0x1F DUP3 ADD SLT PUSH2 0x297D JUMPI DUP4 DUP5 REVERT JUMPDEST DUP1 CALLDATALOAD SWAP2 POP PUSH2 0x298D PUSH2 0x2508 DUP4 PUSH2 0x37B0 JUMP JUMPDEST DUP3 DUP2 MSTORE DUP4 DUP2 ADD SWAP1 DUP3 DUP6 ADD PUSH1 0x60 DUP1 DUP7 MUL DUP6 ADD DUP8 ADD DUP11 LT ISZERO PUSH2 0x29AB JUMPI DUP8 DUP9 REVERT JUMPDEST DUP8 SWAP5 POP JUMPDEST DUP6 DUP6 LT ISZERO PUSH2 0x29D7 JUMPI PUSH2 0x29C1 DUP11 DUP4 PUSH2 0x2667 JUMP JUMPDEST DUP5 MSTORE PUSH1 0x1 SWAP5 SWAP1 SWAP5 ADD SWAP4 SWAP3 DUP7 ADD SWAP3 SWAP1 DUP2 ADD SWAP1 PUSH2 0x29AF JUMP JUMPDEST POP SWAP1 SWAP9 SWAP8 POP POP POP POP POP POP POP POP JUMP JUMPDEST PUSH1 0x0 PUSH1 0x20 DUP3 DUP5 SUB SLT ISZERO PUSH2 0x29F6 JUMPI DUP1 DUP2 REVERT JUMPDEST DUP2 MLOAD PUSH2 0x6BD DUP2 PUSH2 0x3863 JUMP JUMPDEST PUSH1 0x0 PUSH1 0x20 DUP3 DUP5 SUB SLT ISZERO PUSH2 0x2A12 JUMPI DUP1 DUP2 REVERT JUMPDEST POP CALLDATALOAD SWAP2 SWAP1 POP JUMP JUMPDEST PUSH1 0x0 DUP1 PUSH1 0x40 DUP4 DUP6 SUB SLT ISZERO PUSH2 0x2A2B JUMPI DUP2 DUP3 REVERT JUMPDEST DUP3 MLOAD SWAP2 POP PUSH1 0x20 DUP1 DUP5 ADD MLOAD PUSH8 0xFFFFFFFFFFFFFFFF DUP2 GT ISZERO PUSH2 0x2A49 JUMPI DUP3 DUP4 REVERT JUMPDEST DUP1 DUP6 ADD DUP7 PUSH1 0x1F DUP3 ADD SLT PUSH2 0x2A5A JUMPI DUP4 DUP5 REVERT JUMPDEST DUP1 MLOAD SWAP2 POP PUSH2 0x2A6A PUSH2 0x2508 DUP4 PUSH2 0x37B0 JUMP JUMPDEST DUP3 DUP2 MSTORE DUP4 DUP2 ADD SWAP1 DUP3 DUP6 ADD DUP7 JUMPDEST DUP6 DUP2 LT ISZERO PUSH2 0x2A9F JUMPI PUSH2 0x2A8D DUP12 DUP9 DUP5 MLOAD DUP9 ADD ADD PUSH2 0x261A JUMP JUMPDEST DUP5 MSTORE SWAP3 DUP7 ADD SWAP3 SWAP1 DUP7 ADD SWAP1 PUSH1 0x1 ADD PUSH2 0x2A76 JUMP JUMPDEST POP SWAP7 SWAP10 SWAP1 SWAP9 POP SWAP7 POP POP POP POP POP POP POP JUMP JUMPDEST PUSH1 0x0 DUP1 PUSH1 0x40 DUP4 DUP6 SUB SLT ISZERO PUSH2 0x2AC1 JUMPI DUP2 DUP3 REVERT JUMPDEST DUP3 CALLDATALOAD SWAP2 POP PUSH1 0x20 DUP4 ADD CALLDATALOAD PUSH8 0xFFFFFFFFFFFFFFFF DUP2 GT ISZERO PUSH2 0x2ADE JUMPI DUP2 DUP3 REVERT JUMPDEST PUSH2 0x293A DUP6 DUP3 DUP7 ADD PUSH2 0x25CC JUMP JUMPDEST PUSH1 0x0 PUSH1 0x20 DUP3 DUP5 SUB SLT ISZERO PUSH2 0x2AFB JUMPI DUP1 DUP2 REVERT JUMPDEST DUP2 CALLDATALOAD PUSH2 0x6BD DUP2 PUSH2 0x3871 JUMP JUMPDEST PUSH1 0x0 DUP1 PUSH1 0x40 DUP4 DUP6 SUB SLT ISZERO PUSH2 0x2B18 JUMPI DUP2 DUP3 REVERT JUMPDEST DUP3 CALLDATALOAD PUSH2 0x2B23 DUP2 PUSH2 0x3871 JUMP JUMPDEST SWAP2 POP PUSH1 0x20 DUP4 ADD CALLDATALOAD PUSH2 0x2B33 DUP2 PUSH2 0x383E JUMP JUMPDEST DUP1 SWAP2 POP POP SWAP3 POP SWAP3 SWAP1 POP JUMP JUMPDEST PUSH1 0x0 DUP1 PUSH1 0x0 PUSH1 0x60 DUP5 DUP7 SUB SLT ISZERO PUSH2 0x2B52 JUMPI DUP1 DUP2 REVERT JUMPDEST DUP4 CALLDATALOAD PUSH2 0x2B5D DUP2 PUSH2 0x3871 JUMP JUMPDEST SWAP3 POP PUSH1 0x20 DUP5 ADD CALLDATALOAD PUSH2 0x2B6D DUP2 PUSH2 0x383E JUMP JUMPDEST SWAP2 POP PUSH1 0x40 DUP5 ADD CALLDATALOAD PUSH8 0xFFFFFFFFFFFFFFFF DUP2 GT ISZERO PUSH2 0x2B88 JUMPI DUP2 DUP3 REVERT JUMPDEST PUSH2 0x2B94 DUP7 DUP3 DUP8 ADD PUSH2 0x25CC JUMP JUMPDEST SWAP2 POP POP SWAP3 POP SWAP3 POP SWAP3 JUMP JUMPDEST PUSH1 0x0 DUP1 PUSH1 0x0 PUSH1 0x60 DUP5 DUP7 SUB SLT ISZERO PUSH2 0x2BB2 JUMPI DUP1 DUP2 REVERT JUMPDEST DUP4 CALLDATALOAD PUSH2 0x2BBD DUP2 PUSH2 0x3871 JUMP JUMPDEST SWAP3 POP PUSH1 0x20 DUP5 ADD CALLDATALOAD PUSH2 0x2BCD DUP2 PUSH2 0x383E JUMP JUMPDEST SWAP2 POP PUSH1 0x40 DUP5 ADD CALLDATALOAD PUSH2 0x2BDD DUP2 PUSH2 0x383E JUMP JUMPDEST DUP1 SWAP2 POP POP SWAP3 POP SWAP3 POP SWAP3 JUMP JUMPDEST PUSH1 0x0 DUP1 PUSH1 0x40 DUP4 DUP6 SUB SLT ISZERO PUSH2 0x2BFA JUMPI DUP2 DUP3 REVERT JUMPDEST DUP3 CALLDATALOAD PUSH2 0x2C05 DUP2 PUSH2 0x383E JUMP JUMPDEST SWAP5 PUSH1 0x20 SWAP4 SWAP1 SWAP4 ADD CALLDATALOAD SWAP4 POP POP POP JUMP JUMPDEST PUSH1 0x0 PUSH1 0x20 DUP3 DUP5 SUB SLT ISZERO PUSH2 0x2C24 JUMPI DUP1 DUP2 REVERT JUMPDEST DUP2 CALLDATALOAD PUSH8 0xFFFFFFFFFFFFFFFF DUP2 GT ISZERO PUSH2 0x2C3A JUMPI DUP2 DUP3 REVERT JUMPDEST PUSH2 0x2119 DUP5 DUP3 DUP6 ADD PUSH2 0x25CC JUMP JUMPDEST PUSH1 0x0 PUSH1 0x20 DUP3 DUP5 SUB SLT ISZERO PUSH2 0x2C57 JUMPI DUP1 DUP2 REVERT JUMPDEST DUP2 CALLDATALOAD PUSH8 0xFFFFFFFFFFFFFFFF DUP2 GT ISZERO PUSH2 0x2C6D JUMPI DUP2 DUP3 REVERT JUMPDEST PUSH2 0x2119 DUP5 DUP3 DUP6 ADD PUSH2 0x2722 JUMP JUMPDEST PUSH1 0x0 PUSH1 0x20 DUP3 DUP5 SUB SLT ISZERO PUSH2 0x2C8A JUMPI DUP1 DUP2 REVERT JUMPDEST DUP2 CALLDATALOAD PUSH8 0xFFFFFFFFFFFFFFFF DUP2 GT ISZERO PUSH2 0x2CA0 JUMPI DUP2 DUP3 REVERT JUMPDEST PUSH2 0x2119 DUP5 DUP3 DUP6 ADD PUSH2 0x27AC JUMP JUMPDEST PUSH1 0x0 DUP1 PUSH1 0x40 DUP4 DUP6 SUB SLT ISZERO PUSH2 0x2CBE JUMPI DUP2 DUP3 REVERT JUMPDEST DUP3 CALLDATALOAD PUSH8 0xFFFFFFFFFFFFFFFF DUP1 DUP3 GT ISZERO PUSH2 0x2CD5 JUMPI DUP4 DUP5 REVERT JUMPDEST PUSH2 0x2CE1 DUP7 DUP4 DUP8 ADD PUSH2 0x27AC JUMP JUMPDEST SWAP4 POP PUSH1 0x20 DUP6 ADD CALLDATALOAD SWAP2 POP DUP1 DUP3 GT ISZERO PUSH2 0x2CF6 JUMPI DUP3 DUP4 REVERT JUMPDEST POP PUSH2 0x293A DUP6 DUP3 DUP7 ADD PUSH2 0x25CC JUMP JUMPDEST PUSH1 0x0 DUP1 PUSH1 0x40 DUP4 DUP6 SUB SLT ISZERO PUSH2 0x2D15 JUMPI DUP2 DUP3 REVERT JUMPDEST DUP3 CALLDATALOAD PUSH8 0xFFFFFFFFFFFFFFFF DUP2 GT ISZERO PUSH2 0x2D2B JUMPI DUP3 DUP4 REVERT JUMPDEST PUSH2 0x2D37 DUP6 DUP3 DUP7 ADD PUSH2 0x27AC JUMP JUMPDEST SWAP6 PUSH1 0x20 SWAP5 SWAP1 SWAP5 ADD CALLDATALOAD SWAP5 POP POP POP POP JUMP JUMPDEST PUSH1 0x0 PUSH1 0x20 DUP3 DUP5 SUB SLT ISZERO PUSH2 0x2D57 JUMPI DUP1 DUP2 REVERT JUMPDEST POP MLOAD SWAP2 SWAP1 POP JUMP JUMPDEST PUSH1 0x0 DUP1 PUSH1 0x0 DUP1 PUSH1 0x60 DUP6 DUP8 SUB SLT ISZERO PUSH2 0x2D73 JUMPI DUP2 DUP3 REVERT JUMPDEST DUP5 CALLDATALOAD SWAP4 POP PUSH1 0x20 DUP6 ADD CALLDATALOAD PUSH8 0xFFFFFFFFFFFFFFFF DUP1 DUP3 GT ISZERO PUSH2 0x2D91 JUMPI DUP4 DUP5 REVERT JUMPDEST DUP2 DUP8 ADD DUP9 PUSH1 0x1F DUP3 ADD SLT PUSH2 0x2DA2 JUMPI DUP5 DUP6 REVERT JUMPDEST DUP1 CALLDATALOAD SWAP3 POP DUP2 DUP4 GT ISZERO PUSH2 0x2DB2 JUMPI DUP5 DUP6 REVERT JUMPDEST DUP9 PUSH1 0x20 DUP5 DUP4 ADD ADD GT ISZERO PUSH2 0x2DC3 JUMPI DUP5 DUP6 REVERT JUMPDEST PUSH1 0x20 ADD SWAP5 POP SWAP1 SWAP3 POP POP PUSH1 0x40 DUP6 ADD CALLDATALOAD PUSH2 0x2DDA DUP2 PUSH2 0x3863 JUMP JUMPDEST SWAP4 SWAP7 SWAP3 SWAP6 POP SWAP1 SWAP4 POP POP JUMP JUMPDEST PUSH1 0x0 DUP1 PUSH1 0x40 DUP4 DUP6 SUB SLT ISZERO PUSH2 0x2DF7 JUMPI DUP2 DUP3 REVERT JUMPDEST POP POP DUP1 CALLDATALOAD SWAP3 PUSH1 0x20 SWAP1 SWAP2 ADD CALLDATALOAD SWAP2 POP JUMP JUMPDEST PUSH1 0x0 DUP2 MLOAD DUP1 DUP5 MSTORE PUSH1 0x20 DUP1 DUP6 ADD DUP1 DUP2 SWAP7 POP DUP3 DUP5 MUL DUP2 ADD SWAP2 POP DUP3 DUP7 ADD DUP6 JUMPDEST DUP6 DUP2 LT ISZERO PUSH2 0x2E82 JUMPI DUP3 DUP5 SUB DUP10 MSTORE DUP2 MLOAD PUSH1 0x60 PUSH20 0xFFFFFFFFFFFFFFFFFFFFFFFFFFFFFFFFFFFFFFFF DUP3 MLOAD AND DUP7 MSTORE DUP7 DUP3 ADD MLOAD DUP8 DUP8 ADD MSTORE PUSH1 0x40 DUP1 DUP4 ADD MLOAD DUP3 DUP3 DUP10 ADD MSTORE PUSH2 0x2E6C DUP4 DUP10 ADD DUP3 PUSH2 0x2E8F JUMP JUMPDEST SWAP13 DUP10 ADD SWAP13 SWAP8 POP POP POP SWAP3 DUP7 ADD SWAP3 POP POP PUSH1 0x1 ADD PUSH2 0x2E22 JUMP JUMPDEST POP SWAP2 SWAP8 SWAP7 POP POP POP POP POP POP POP JUMP JUMPDEST PUSH1 0x0 DUP2 MLOAD DUP1 DUP5 MSTORE PUSH2 0x2EA7 DUP2 PUSH1 0x20 DUP7 ADD PUSH1 0x20 DUP7 ADD PUSH2 0x3812 JUMP JUMPDEST PUSH1 0x1F ADD PUSH32 0xFFFFFFFFFFFFFFFFFFFFFFFFFFFFFFFFFFFFFFFFFFFFFFFFFFFFFFFFFFFFFFE0 AND SWAP3 SWAP1 SWAP3 ADD PUSH1 0x20 ADD SWAP3 SWAP2 POP POP JUMP JUMPDEST DUP1 MLOAD PUSH20 0xFFFFFFFFFFFFFFFFFFFFFFFFFFFFFFFFFFFFFFFF AND DUP3 MSTORE PUSH1 0x20 SWAP1 DUP2 ADD MLOAD SWAP2 ADD MSTORE JUMP JUMPDEST PUSH1 0x0 DUP2 MLOAD DUP4 MSTORE PUSH1 0x20 DUP3 ADD MLOAD PUSH2 0x2F16 PUSH1 0x20 DUP6 ADD DUP3 PUSH2 0x2ED9 JUMP JUMPDEST POP PUSH1 0x40 DUP3 ADD MLOAD PUSH2 0x2F29 PUSH1 0x60 DUP6 ADD DUP3 PUSH2 0x2ED9 JUMP JUMPDEST POP PUSH20 0xFFFFFFFFFFFFFFFFFFFFFFFFFFFFFFFFFFFFFFFF PUSH1 0x60 DUP4 ADD MLOAD AND PUSH1 0xA0 DUP5 ADD MSTORE PUSH1 0x80 DUP3 ADD MLOAD PUSH1 0xE0 PUSH1 0xC0 DUP6 ADD MSTORE PUSH2 0x2119 PUSH1 0xE0 DUP6 ADD DUP3 PUSH2 0x2E8F JUMP JUMPDEST PUSH1 0x0 DUP2 MLOAD DUP4 MSTORE PUSH1 0x20 DUP3 ADD MLOAD PUSH1 0x20 DUP5 ADD MSTORE PUSH1 0x40 DUP3 ADD MLOAD PUSH20 0xFFFFFFFFFFFFFFFFFFFFFFFFFFFFFFFFFFFFFFFF DUP1 DUP3 AND PUSH1 0x40 DUP7 ADD MSTORE DUP1 PUSH1 0x60 DUP6 ADD MLOAD AND PUSH1 0x60 DUP7 ADD MSTORE POP POP PUSH1 0x80 DUP3 ADD MLOAD PUSH1 0xE0 PUSH1 0x80 DUP6 ADD MSTORE PUSH2 0x2FBC PUSH1 0xE0 DUP6 ADD DUP3 PUSH2 0x2E06 JUMP JUMPDEST PUSH1 0xA0 DUP5 ADD MLOAD PUSH1 0xA0 DUP7 ADD MSTORE PUSH1 0xC0 DUP5 ADD MLOAD SWAP2 POP DUP5 DUP2 SUB PUSH1 0xC0 DUP7 ADD MSTORE PUSH2 0x21C9 DUP2 DUP4 PUSH2 0x2E8F JUMP JUMPDEST PUSH1 0x0 DUP3 MLOAD PUSH2 0x2FF1 DUP2 DUP5 PUSH1 0x20 DUP8 ADD PUSH2 0x3812 JUMP JUMPDEST SWAP2 SWAP1 SWAP2 ADD SWAP3 SWAP2 POP POP JUMP JUMPDEST PUSH32 0x61636C0000000000000000000000000000000000000000000000000000000000 DUP2 MSTORE PUSH1 0x3 ADD SWAP1 JUMP JUMPDEST PUSH32 0x657263336B2D7631000000000000000000000000000000000000000000000000 DUP2 MSTORE PUSH1 0x60 SWAP5 SWAP1 SWAP5 SHL PUSH32 0xFFFFFFFFFFFFFFFFFFFFFFFFFFFFFFFFFFFFFFFF000000000000000000000000 AND PUSH1 0x8 DUP6 ADD MSTORE PUSH1 0x1C DUP5 ADD SWAP3 SWAP1 SWAP3 MSTORE PUSH1 0x3C DUP4 ADD MSTORE PUSH1 0x5C DUP3 ADD MSTORE PUSH1 0x7C ADD SWAP1 JUMP JUMPDEST SWAP7 DUP8 MSTORE PUSH1 0x20 DUP8 ADD SWAP6 SWAP1 SWAP6 MSTORE PUSH32 0xFFFFFFFFFFFFFFFFFFFFFFFFFFFFFFFFFFFFFFFF000000000000000000000000 PUSH1 0x60 SWAP5 DUP6 SHL DUP2 AND PUSH1 0x40 DUP9 ADD MSTORE SWAP3 SWAP1 SWAP4 SHL SWAP1 SWAP2 AND PUSH1 0x54 DUP6 ADD MSTORE PUSH1 0x68 DUP5 ADD MSTORE PUSH1 0x88 DUP4 ADD MSTORE PUSH1 0xA8 DUP3 ADD MSTORE PUSH1 0xC8 ADD SWAP1 JUMP JUMPDEST PUSH20 0xFFFFFFFFFFFFFFFFFFFFFFFFFFFFFFFFFFFFFFFF SWAP2 SWAP1 SWAP2 AND DUP2 MSTORE PUSH1 0x20 ADD SWAP1 JUMP JUMPDEST PUSH20 0xFFFFFFFFFFFFFFFFFFFFFFFFFFFFFFFFFFFFFFFF SWAP4 DUP5 AND DUP2 MSTORE SWAP2 SWAP1 SWAP3 AND PUSH1 0x20 DUP3 ADD MSTORE PUSH1 0x40 DUP2 ADD SWAP2 SWAP1 SWAP2 MSTORE PUSH1 0x60 ADD SWAP1 JUMP JUMPDEST PUSH20 0xFFFFFFFFFFFFFFFFFFFFFFFFFFFFFFFFFFFFFFFF SWAP3 SWAP1 SWAP3 AND DUP3 MSTORE PUSH1 0x20 DUP3 ADD MSTORE PUSH1 0x40 ADD SWAP1 JUMP JUMPDEST PUSH1 0x0 PUSH1 0x20 DUP3 MSTORE PUSH2 0x6BD PUSH1 0x20 DUP4 ADD DUP5 PUSH2 0x2E06 JUMP JUMPDEST PUSH1 0x0 PUSH1 0x60 DUP3 MSTORE PUSH2 0x3183 PUSH1 0x60 DUP4 ADD DUP7 PUSH2 0x2E06 JUMP JUMPDEST PUSH1 0x20 DUP4 ADD SWAP5 SWAP1 SWAP5 MSTORE POP PUSH1 0x40 ADD MSTORE SWAP2 SWAP1 POP JUMP JUMPDEST SWAP1 ISZERO ISZERO DUP2 MSTORE PUSH1 0x20 ADD SWAP1 JUMP JUMPDEST SWAP1 DUP2 MSTORE PUSH1 0x20 ADD SWAP1 JUMP JUMPDEST PUSH1 0x0 PUSH1 0x40 DUP3 ADD DUP5 DUP4 MSTORE PUSH1 0x20 PUSH1 0x40 DUP2 DUP6 ADD MSTORE DUP2 DUP6 MLOAD DUP1 DUP5 MSTORE PUSH1 0x60 DUP7 ADD SWAP2 POP PUSH1 0x60 DUP4 DUP3 MUL DUP8 ADD ADD SWAP4 POP DUP3 DUP8 ADD DUP6 JUMPDEST DUP3 DUP2 LT ISZERO PUSH2 0x3221 JUMPI PUSH32 0xFFFFFFFFFFFFFFFFFFFFFFFFFFFFFFFFFFFFFFFFFFFFFFFFFFFFFFFFFFFFFFA0 DUP9 DUP8 SUB ADD DUP5 MSTORE PUSH2 0x320F DUP7 DUP4 MLOAD PUSH2 0x2E8F JUMP JUMPDEST SWAP6 POP SWAP3 DUP5 ADD SWAP3 SWAP1 DUP5 ADD SWAP1 PUSH1 0x1 ADD PUSH2 0x31D5 JUMP JUMPDEST POP SWAP4 SWAP9 SWAP8 POP POP POP POP POP POP POP POP JUMP JUMPDEST PUSH32 0xFFFFFFFF00000000000000000000000000000000000000000000000000000000 SWAP2 SWAP1 SWAP2 AND DUP2 MSTORE PUSH1 0x20 ADD SWAP1 JUMP JUMPDEST PUSH1 0x0 PUSH32 0xFFFFFFFF00000000000000000000000000000000000000000000000000000000 DUP6 AND DUP3 MSTORE PUSH20 0xFFFFFFFFFFFFFFFFFFFFFFFFFFFFFFFFFFFFFFFF DUP5 AND PUSH1 0x20 DUP4 ADD MSTORE PUSH1 0x60 PUSH1 0x40 DUP4 ADD MSTORE PUSH2 0x21C9 PUSH1 0x60 DUP4 ADD DUP5 PUSH2 0x2E8F JUMP JUMPDEST PUSH1 0x0 PUSH1 0x20 DUP3 MSTORE PUSH2 0x6BD PUSH1 0x20 DUP4 ADD DUP5 PUSH2 0x2E8F JUMP JUMPDEST PUSH1 0x0 PUSH1 0x40 DUP3 MSTORE PUSH2 0x32D9 PUSH1 0x40 DUP4 ADD DUP6 PUSH2 0x2E8F JUMP JUMPDEST SWAP1 POP DUP3 ISZERO ISZERO PUSH1 0x20 DUP4 ADD MSTORE SWAP4 SWAP3 POP POP POP JUMP JUMPDEST PUSH1 0x0 PUSH1 0x80 DUP3 MSTORE PUSH2 0x32FD PUSH1 0x80 DUP4 ADD DUP7 PUSH2 0x2E8F JUMP JUMPDEST SWAP1 POP DUP4 PUSH1 0x20 DUP4 ADD MSTORE PUSH2 0x2119 PUSH1 0x40 DUP4 ADD DUP5 PUSH2 0x2ED9 JUMP JUMPDEST PUSH1 0x20 DUP2 ADD PUSH1 0x7 DUP4 LT PUSH2 0x3320 JUMPI INVALID JUMPDEST SWAP2 SWAP1 MSTORE SWAP1 JUMP JUMPDEST PUSH1 0x0 DUP4 DUP3 MSTORE PUSH1 0x40 PUSH1 0x20 DUP4 ADD MSTORE PUSH2 0x2119 PUSH1 0x40 DUP4 ADD DUP5 PUSH2 0x2E8F JUMP JUMPDEST PUSH1 0x20 DUP1 DUP3 MSTORE PUSH1 0x10 SWAP1 DUP3 ADD MSTORE PUSH32 0x71756575653A2062616420737461746500000000000000000000000000000000 PUSH1 0x40 DUP3 ADD MSTORE PUSH1 0x60 ADD SWAP1 JUMP JUMPDEST PUSH1 0x20 DUP1 DUP3 MSTORE PUSH1 0x11 SWAP1 DUP3 ADD MSTORE PUSH32 0x71756575653A2062616420636F6E666967000000000000000000000000000000 PUSH1 0x40 DUP3 ADD MSTORE PUSH1 0x60 ADD SWAP1 JUMP JUMPDEST PUSH1 0x20 DUP1 DUP3 MSTORE PUSH1 0x9 SWAP1 DUP3 ADD MSTORE PUSH32 0x61636C3A20617574680000000000000000000000000000000000000000000000 PUSH1 0x40 DUP3 ADD MSTORE PUSH1 0x60 ADD SWAP1 JUMP JUMPDEST PUSH1 0x20 DUP1 DUP3 MSTORE PUSH1 0x10 SWAP1 DUP3 ADD MSTORE PUSH32 0x71756575653A20626164206E6F6E636500000000000000000000000000000000 PUSH1 0x40 DUP3 ADD MSTORE PUSH1 0x60 ADD SWAP1 JUMP JUMPDEST PUSH1 0x20 DUP1 DUP3 MSTORE PUSH1 0x10 SWAP1 DUP3 ADD MSTORE PUSH32 0x71756575653A206261642064656C617900000000000000000000000000000000 PUSH1 0x40 DUP3 ADD MSTORE PUSH1 0x60 ADD SWAP1 JUMP JUMPDEST PUSH1 0x20 DUP1 DUP3 MSTORE PUSH1 0x10 SWAP1 DUP3 ADD MSTORE PUSH32 0x71756575653A2062616420726573657400000000000000000000000000000000 PUSH1 0x40 DUP3 ADD MSTORE PUSH1 0x60 ADD SWAP1 JUMP JUMPDEST PUSH1 0x20 DUP1 DUP3 MSTORE PUSH1 0x13 SWAP1 DUP3 ADD MSTORE PUSH32 0x71756575653A20626164206665652070756C6C00000000000000000000000000 PUSH1 0x40 DUP3 ADD MSTORE PUSH1 0x60 ADD SWAP1 JUMP JUMPDEST PUSH1 0x20 DUP1 DUP3 MSTORE PUSH1 0x14 SWAP1 DUP3 ADD MSTORE PUSH32 0x71756575653A20626164207375626D6974746572000000000000000000000000 PUSH1 0x40 DUP3 ADD MSTORE PUSH1 0x60 ADD SWAP1 JUMP JUMPDEST PUSH1 0x20 DUP1 DUP3 MSTORE PUSH1 0xF SWAP1 DUP3 ADD MSTORE PUSH32 0x71756575653A2065766964656E63650000000000000000000000000000000000 PUSH1 0x40 DUP3 ADD MSTORE PUSH1 0x60 ADD SWAP1 JUMP JUMPDEST PUSH1 0x20 DUP1 DUP3 MSTORE PUSH1 0xB SWAP1 DUP3 ADD MSTORE PUSH32 0x61636C3A2066726F7A656E000000000000000000000000000000000000000000 PUSH1 0x40 DUP3 ADD MSTORE PUSH1 0x60 ADD SWAP1 JUMP JUMPDEST PUSH1 0x20 DUP1 DUP3 MSTORE PUSH1 0x12 SWAP1 DUP3 ADD MSTORE PUSH32 0x71756575653A2062616420617070726F76650000000000000000000000000000 PUSH1 0x40 DUP3 ADD MSTORE PUSH1 0x60 ADD SWAP1 JUMP JUMPDEST PUSH1 0x20 DUP1 DUP3 MSTORE PUSH1 0x15 SWAP1 DUP3 ADD MSTORE PUSH32 0x71756575653A206261642073656E6420746F6B656E0000000000000000000000 PUSH1 0x40 DUP3 ADD MSTORE PUSH1 0x60 ADD SWAP1 JUMP JUMPDEST PUSH1 0x20 DUP1 DUP3 MSTORE PUSH1 0x22 SWAP1 DUP3 ADD MSTORE PUSH32 0x696E697469616C697A61626C653A20616C726561647920696E697469616C697A PUSH1 0x40 DUP3 ADD MSTORE PUSH32 0x6564000000000000000000000000000000000000000000000000000000000000 PUSH1 0x60 DUP3 ADD MSTORE PUSH1 0x80 ADD SWAP1 JUMP JUMPDEST PUSH1 0x20 DUP1 DUP3 MSTORE PUSH1 0x10 SWAP1 DUP3 ADD MSTORE PUSH32 0x71756575653A2077616974206D6F726500000000000000000000000000000000 PUSH1 0x40 DUP3 ADD MSTORE PUSH1 0x60 ADD SWAP1 JUMP JUMPDEST PUSH1 0x20 DUP1 DUP3 MSTORE PUSH1 0x14 SWAP1 DUP3 ADD MSTORE PUSH32 0x71756575653A206261642067657420746F6B656E000000000000000000000000 PUSH1 0x40 DUP3 ADD MSTORE PUSH1 0x60 ADD SWAP1 JUMP JUMPDEST PUSH1 0x20 DUP1 DUP3 MSTORE PUSH1 0xF SWAP1 DUP3 ADD MSTORE PUSH32 0x61636C3A2062616420667265657A650000000000000000000000000000000000 PUSH1 0x40 DUP3 ADD MSTORE PUSH1 0x60 ADD SWAP1 JUMP JUMPDEST PUSH1 0x20 DUP1 DUP3 MSTORE PUSH1 0x11 SWAP1 DUP3 ADD MSTORE PUSH32 0x71756575653A20756E7265736F6C766564000000000000000000000000000000 PUSH1 0x40 DUP3 ADD MSTORE PUSH1 0x60 ADD SWAP1 JUMP JUMPDEST PUSH1 0x0 PUSH1 0x20 DUP3 MSTORE PUSH2 0x6BD PUSH1 0x20 DUP4 ADD DUP5 PUSH2 0x2EFE JUMP JUMPDEST PUSH1 0x0 PUSH1 0x20 DUP3 MSTORE DUP3 MLOAD PUSH1 0x40 PUSH1 0x20 DUP5 ADD MSTORE PUSH2 0x373B PUSH1 0x60 DUP5 ADD DUP3 PUSH2 0x2F63 JUMP JUMPDEST PUSH1 0x20 DUP6 ADD MLOAD SWAP2 POP PUSH32 0xFFFFFFFFFFFFFFFFFFFFFFFFFFFFFFFFFFFFFFFFFFFFFFFFFFFFFFFFFFFFFFE0 DUP5 DUP3 SUB ADD PUSH1 0x40 DUP6 ADD MSTORE PUSH2 0x21C9 DUP2 DUP4 PUSH2 0x2EFE JUMP JUMPDEST PUSH1 0x0 PUSH1 0x20 DUP3 MSTORE PUSH2 0x6BD PUSH1 0x20 DUP4 ADD DUP5 PUSH2 0x2F63 JUMP JUMPDEST PUSH1 0x40 MLOAD DUP2 DUP2 ADD PUSH8 0xFFFFFFFFFFFFFFFF DUP2 GT DUP3 DUP3 LT OR ISZERO PUSH2 0x37A8 JUMPI PUSH1 0x0 DUP1 REVERT JUMPDEST PUSH1 0x40 MSTORE SWAP2 SWAP1 POP JUMP JUMPDEST PUSH1 0x0 PUSH8 0xFFFFFFFFFFFFFFFF DUP3 GT ISZERO PUSH2 0x37C6 JUMPI DUP1 DUP2 REVERT JUMPDEST POP PUSH1 0x20 SWAP1 DUP2 MUL ADD SWAP1 JUMP JUMPDEST PUSH1 0x0 PUSH8 0xFFFFFFFFFFFFFFFF DUP3 GT ISZERO PUSH2 0x37E6 JUMPI DUP1 DUP2 REVERT JUMPDEST POP PUSH1 0x1F ADD PUSH32 0xFFFFFFFFFFFFFFFFFFFFFFFFFFFFFFFFFFFFFFFFFFFFFFFFFFFFFFFFFFFFFFE0 AND PUSH1 0x20 ADD SWAP1 JUMP JUMPDEST PUSH1 0x0 JUMPDEST DUP4 DUP2 LT ISZERO PUSH2 0x382D JUMPI DUP2 DUP2 ADD MLOAD DUP4 DUP3 ADD MSTORE PUSH1 0x20 ADD PUSH2 0x3815 JUMP JUMPDEST DUP4 DUP2 GT ISZERO PUSH2 0x1726 JUMPI POP POP PUSH1 0x0 SWAP2 ADD MSTORE JUMP JUMPDEST PUSH20 0xFFFFFFFFFFFFFFFFFFFFFFFFFFFFFFFFFFFFFFFF DUP2 AND DUP2 EQ PUSH2 0x3860 JUMPI PUSH1 0x0 DUP1 REVERT JUMPDEST POP JUMP JUMPDEST DUP1 ISZERO ISZERO DUP2 EQ PUSH2 0x3860 JUMPI PUSH1 0x0 DUP1 REVERT JUMPDEST PUSH32 0xFFFFFFFF00000000000000000000000000000000000000000000000000000000 DUP2 AND DUP2 EQ PUSH2 0x3860 JUMPI PUSH1 0x0 DUP1 REVERT INVALID LOG2 PUSH5 0x6970667358 0x22 SLT KECCAK256 SWAP8 0xE1 DUP8 LOG1 PUSH32 0x4C8613758160880A23C01440579CE7B8548B427685E211B4C65B6264736F6C63 NUMBER STOP MOD ADDMOD STOP CALLER PUSH28 0xC2A48A4A566E237A12186F19D985B0F76AFC9D5290601EDAC1987625 CALLDATASIZE PUSH17 0xC200000000000000000000000000000000 "
				},
				"gasEstimates": {
					"creation": {
						"codeDepositCost": "2909800",
						"executionCost": "infinite",
						"totalCost": "infinite"
					},
					"external": {
						"ROOT_ROLE()": "308",
						"bulk((uint8,bytes4,address)[])": "infinite",
						"challenge(((uint256,uint256,address,address,(address,uint256,bytes)[],bytes32,bytes),(uint256,(address,uint256),(address,uint256),address,bytes)),bytes)": "infinite",
						"challengerCache(bytes32)": "1255",
						"configHash()": "1138",
						"configure((uint256,(address,uint256),(address,uint256),address,bytes))": "infinite",
						"disputeItemCache(address,uint256)": "1373",
						"execute(((uint256,uint256,address,address,(address,uint256,bytes)[],bytes32,bytes),(uint256,(address,uint256),(address,uint256),address,bytes)))": "infinite",
						"executeApproved(((uint256,uint256,address,address,(address,uint256,bytes)[],bytes32,bytes),(uint256,(address,uint256),(address,uint256),address,bytes)))": "infinite",
						"freeze(bytes4)": "infinite",
						"grant(bytes4,address)": "infinite",
						"grantWithOracle(bytes4,address,address)": "infinite",
						"initBlocks(string)": "infinite",
						"initialize(address,(uint256,(address,uint256),(address,uint256),address,bytes))": "infinite",
						"isFrozen(bytes4)": "1398",
						"nonce()": "1139",
						"queue(bytes32)": "1249",
						"resolve(((uint256,uint256,address,address,(address,uint256,bytes)[],bytes32,bytes),(uint256,(address,uint256),(address,uint256),address,bytes)),uint256)": "infinite",
						"revoke(bytes4,address)": "infinite",
						"roles(bytes4,address)": "infinite",
						"rule(uint256,uint256)": "infinite",
						"schedule(((uint256,uint256,address,address,(address,uint256,bytes)[],bytes32,bytes),(uint256,(address,uint256),(address,uint256),address,bytes)))": "infinite",
						"settleRejection(((uint256,uint256,address,address,(address,uint256,bytes)[],bytes32,bytes),(uint256,(address,uint256),(address,uint256),address,bytes)))": "infinite",
						"submitEvidence(uint256,bytes,bool)": "693",
						"supportsInterface(bytes4)": "1411",
						"veto(bytes32,bytes)": "infinite",
						"willPerform(bytes4,address,bytes)": "infinite"
					},
					"internal": {
						"_execute(struct ERC3000Data.Payload memory,bytes32)": "infinite",
						"_setConfig(struct ERC3000Data.Config memory)": "infinite"
					}
				},
				"methodIdentifiers": {
					"ROOT_ROLE()": "7e8c7f08",
					"bulk((uint8,bytes4,address)[])": "1c47671b",
					"challenge(((uint256,uint256,address,address,(address,uint256,bytes)[],bytes32,bytes),(uint256,(address,uint256),(address,uint256),address,bytes)),bytes)": "70576158",
					"challengerCache(bytes32)": "c8182af0",
					"configHash()": "e1f1176d",
					"configure((uint256,(address,uint256),(address,uint256),address,bytes))": "72896761",
					"disputeItemCache(address,uint256)": "3b1c5fc6",
					"execute(((uint256,uint256,address,address,(address,uint256,bytes)[],bytes32,bytes),(uint256,(address,uint256),(address,uint256),address,bytes)))": "3a139c71",
					"executeApproved(((uint256,uint256,address,address,(address,uint256,bytes)[],bytes32,bytes),(uint256,(address,uint256),(address,uint256),address,bytes)))": "55a33159",
					"freeze(bytes4)": "bdf9a726",
					"grant(bytes4,address)": "a157a10d",
					"grantWithOracle(bytes4,address,address)": "a2157227",
					"initBlocks(string)": "cc1d4cab",
					"initialize(address,(uint256,(address,uint256),(address,uint256),address,bytes))": "59b6907a",
					"isFrozen(bytes4)": "495a9825",
					"nonce()": "affed0e0",
					"queue(bytes32)": "7c10dea6",
					"resolve(((uint256,uint256,address,address,(address,uint256,bytes)[],bytes32,bytes),(uint256,(address,uint256),(address,uint256),address,bytes)),uint256)": "2a0d403e",
					"revoke(bytes4,address)": "58849734",
					"roles(bytes4,address)": "96fc8abd",
					"rule(uint256,uint256)": "311a6c56",
					"schedule(((uint256,uint256,address,address,(address,uint256,bytes)[],bytes32,bytes),(uint256,(address,uint256),(address,uint256),address,bytes)))": "977d8964",
					"settleRejection(((uint256,uint256,address,address,(address,uint256,bytes)[],bytes32,bytes),(uint256,(address,uint256),(address,uint256),address,bytes)))": "b8ebe05e",
					"submitEvidence(uint256,bytes,bool)": "b9e9823f",
					"supportsInterface(bytes4)": "01ffc9a7",
					"veto(bytes32,bytes)": "c04c87b8",
					"willPerform(bytes4,address,bytes)": "097c8108"
				}
			},
			"storageLayout": {
				"storage": [
					{
						"astId": 1406,
						"contract": ".deps/npm/@aragon/govern-core/contracts/pipelines/GovernQueue.sol:GovernQueue",
						"label": "standardSupported",
						"offset": 0,
						"slot": "0",
						"type": "t_mapping(t_bytes4,t_bool)"
					},
					{
						"astId": 1410,
						"contract": ".deps/npm/@aragon/govern-core/contracts/pipelines/GovernQueue.sol:GovernQueue",
						"label": "callbackMagicNumbers",
						"offset": 0,
						"slot": "1",
						"type": "t_mapping(t_bytes4,t_bytes32)"
					},
					{
						"astId": 1914,
						"contract": ".deps/npm/@aragon/govern-core/contracts/pipelines/GovernQueue.sol:GovernQueue",
						"label": "initBlocks",
						"offset": 0,
						"slot": "2",
						"type": "t_mapping(t_string_memory_ptr,t_uint256)"
					},
					{
						"astId": 956,
						"contract": ".deps/npm/@aragon/govern-core/contracts/pipelines/GovernQueue.sol:GovernQueue",
						"label": "roles",
						"offset": 0,
						"slot": "3",
						"type": "t_mapping(t_bytes4,t_mapping(t_address,t_address))"
					},
					{
						"astId": 91,
						"contract": ".deps/npm/@aragon/govern-core/contracts/pipelines/GovernQueue.sol:GovernQueue",
						"label": "configHash",
						"offset": 0,
						"slot": "4",
						"type": "t_bytes32"
					},
					{
						"astId": 93,
						"contract": ".deps/npm/@aragon/govern-core/contracts/pipelines/GovernQueue.sol:GovernQueue",
						"label": "nonce",
						"offset": 0,
						"slot": "5",
						"type": "t_uint256"
					},
					{
						"astId": 97,
						"contract": ".deps/npm/@aragon/govern-core/contracts/pipelines/GovernQueue.sol:GovernQueue",
						"label": "queue",
						"offset": 0,
						"slot": "6",
						"type": "t_mapping(t_bytes32,t_struct(Item)19_storage)"
					},
					{
						"astId": 101,
						"contract": ".deps/npm/@aragon/govern-core/contracts/pipelines/GovernQueue.sol:GovernQueue",
						"label": "challengerCache",
						"offset": 0,
						"slot": "7",
						"type": "t_mapping(t_bytes32,t_address)"
					},
					{
						"astId": 107,
						"contract": ".deps/npm/@aragon/govern-core/contracts/pipelines/GovernQueue.sol:GovernQueue",
						"label": "disputeItemCache",
						"offset": 0,
						"slot": "8",
						"type": "t_mapping(t_contract(IArbitrator)2046,t_mapping(t_uint256,t_bytes32))"
					}
				],
				"types": {
					"t_address": {
						"encoding": "inplace",
						"label": "address",
						"numberOfBytes": "20"
					},
					"t_bool": {
						"encoding": "inplace",
						"label": "bool",
						"numberOfBytes": "1"
					},
					"t_bytes32": {
						"encoding": "inplace",
						"label": "bytes32",
						"numberOfBytes": "32"
					},
					"t_bytes4": {
						"encoding": "inplace",
						"label": "bytes4",
						"numberOfBytes": "4"
					},
					"t_contract(IArbitrator)2046": {
						"encoding": "inplace",
						"label": "contract IArbitrator",
						"numberOfBytes": "20"
					},
					"t_enum(State)16": {
						"encoding": "inplace",
						"label": "enum GovernQueueStateLib.State",
						"numberOfBytes": "1"
					},
					"t_mapping(t_address,t_address)": {
						"encoding": "mapping",
						"key": "t_address",
						"label": "mapping(address => address)",
						"numberOfBytes": "32",
						"value": "t_address"
					},
					"t_mapping(t_bytes32,t_address)": {
						"encoding": "mapping",
						"key": "t_bytes32",
						"label": "mapping(bytes32 => address)",
						"numberOfBytes": "32",
						"value": "t_address"
					},
					"t_mapping(t_bytes32,t_struct(Item)19_storage)": {
						"encoding": "mapping",
						"key": "t_bytes32",
						"label": "mapping(bytes32 => struct GovernQueueStateLib.Item)",
						"numberOfBytes": "32",
						"value": "t_struct(Item)19_storage"
					},
					"t_mapping(t_bytes4,t_bool)": {
						"encoding": "mapping",
						"key": "t_bytes4",
						"label": "mapping(bytes4 => bool)",
						"numberOfBytes": "32",
						"value": "t_bool"
					},
					"t_mapping(t_bytes4,t_bytes32)": {
						"encoding": "mapping",
						"key": "t_bytes4",
						"label": "mapping(bytes4 => bytes32)",
						"numberOfBytes": "32",
						"value": "t_bytes32"
					},
					"t_mapping(t_bytes4,t_mapping(t_address,t_address))": {
						"encoding": "mapping",
						"key": "t_bytes4",
						"label": "mapping(bytes4 => mapping(address => address))",
						"numberOfBytes": "32",
						"value": "t_mapping(t_address,t_address)"
					},
					"t_mapping(t_contract(IArbitrator)2046,t_mapping(t_uint256,t_bytes32))": {
						"encoding": "mapping",
						"key": "t_contract(IArbitrator)2046",
						"label": "mapping(contract IArbitrator => mapping(uint256 => bytes32))",
						"numberOfBytes": "32",
						"value": "t_mapping(t_uint256,t_bytes32)"
					},
					"t_mapping(t_string_memory_ptr,t_uint256)": {
						"encoding": "mapping",
						"key": "t_string_memory_ptr",
						"label": "mapping(string => uint256)",
						"numberOfBytes": "32",
						"value": "t_uint256"
					},
					"t_mapping(t_uint256,t_bytes32)": {
						"encoding": "mapping",
						"key": "t_uint256",
						"label": "mapping(uint256 => bytes32)",
						"numberOfBytes": "32",
						"value": "t_bytes32"
					},
					"t_string_memory_ptr": {
						"encoding": "bytes",
						"label": "string",
						"numberOfBytes": "32"
					},
					"t_struct(Item)19_storage": {
						"encoding": "inplace",
						"label": "struct GovernQueueStateLib.Item",
						"members": [
							{
								"astId": 18,
								"contract": ".deps/npm/@aragon/govern-core/contracts/pipelines/GovernQueue.sol:GovernQueue",
								"label": "state",
								"offset": 0,
								"slot": "0",
								"type": "t_enum(State)16"
							}
						],
						"numberOfBytes": "32"
					},
					"t_uint256": {
						"encoding": "inplace",
						"label": "uint256",
						"numberOfBytes": "32"
					}
				}
			},
			"userdoc": {
				"methods": {
					"challenge(((uint256,uint256,address,address,(address,uint256,bytes)[],bytes32,bytes),(uint256,(address,uint256),(address,uint256),address,bytes)),bytes)": {
						"notice": "Challenge a container in case its scheduling is illegal as per Config.rules. Pulls collateral and dispute fees from sender into contract"
					},
					"configure((uint256,(address,uint256),(address,uint256),address,bytes))": {
						"notice": "Apply a new configuration for all *new* containers to be scheduled"
					},
					"execute(((uint256,uint256,address,address,(address,uint256,bytes)[],bytes32,bytes),(uint256,(address,uint256),(address,uint256),address,bytes)))": {
						"notice": "Executes an action after its execution delayed has passed and its state hasn't been altered by a challenge or veto"
					},
					"resolve(((uint256,uint256,address,address,(address,uint256,bytes)[],bytes32,bytes),(uint256,(address,uint256),(address,uint256),address,bytes)),uint256)": {
						"notice": "Apply arbitrator's ruling over a challenge once it has come to a final ruling"
					},
					"schedule(((uint256,uint256,address,address,(address,uint256,bytes)[],bytes32,bytes),(uint256,(address,uint256),(address,uint256),address,bytes)))": {
						"notice": "Schedules an action for execution, allowing for challenges and vetos on a defined time window. Pulls collateral from submitter into contract."
					}
				}
			}
		}
	}
}