{
	"@aragon/govern-contract-utils/contracts/acl/ACL.sol": {
		"ACL": {
			"abi": [
				{
					"inputs": [
						{
							"internalType": "address",
							"name": "_initialRoot",
							"type": "address"
						}
					],
					"stateMutability": "nonpayable",
					"type": "constructor"
				},
				{
					"anonymous": false,
					"inputs": [
						{
							"indexed": true,
							"internalType": "bytes4",
							"name": "role",
							"type": "bytes4"
						},
						{
							"indexed": true,
							"internalType": "address",
							"name": "actor",
							"type": "address"
						}
					],
					"name": "Frozen",
					"type": "event"
				},
				{
					"anonymous": false,
					"inputs": [
						{
							"indexed": true,
							"internalType": "bytes4",
							"name": "role",
							"type": "bytes4"
						},
						{
							"indexed": true,
							"internalType": "address",
							"name": "actor",
							"type": "address"
						},
						{
							"indexed": true,
							"internalType": "address",
							"name": "who",
							"type": "address"
						},
						{
							"indexed": false,
							"internalType": "contract IACLOracle",
							"name": "oracle",
							"type": "address"
						}
					],
					"name": "Granted",
					"type": "event"
				},
				{
					"anonymous": false,
					"inputs": [
						{
							"indexed": true,
							"internalType": "string",
							"name": "key",
							"type": "string"
						}
					],
					"name": "Initialized",
					"type": "event"
				},
				{
					"anonymous": false,
					"inputs": [
						{
							"indexed": true,
							"internalType": "bytes4",
							"name": "role",
							"type": "bytes4"
						},
						{
							"indexed": true,
							"internalType": "address",
							"name": "actor",
							"type": "address"
						},
						{
							"indexed": true,
							"internalType": "address",
							"name": "who",
							"type": "address"
						}
					],
					"name": "Revoked",
					"type": "event"
				},
				{
					"inputs": [],
					"name": "ROOT_ROLE",
					"outputs": [
						{
							"internalType": "bytes4",
							"name": "",
							"type": "bytes4"
						}
					],
					"stateMutability": "view",
					"type": "function"
				},
				{
					"inputs": [
						{
							"components": [
								{
									"internalType": "enum ACLData.BulkOp",
									"name": "op",
									"type": "uint8"
								},
								{
									"internalType": "bytes4",
									"name": "role",
									"type": "bytes4"
								},
								{
									"internalType": "address",
									"name": "who",
									"type": "address"
								}
							],
							"internalType": "struct ACLData.BulkItem[]",
							"name": "items",
							"type": "tuple[]"
						}
					],
					"name": "bulk",
					"outputs": [],
					"stateMutability": "nonpayable",
					"type": "function"
				},
				{
					"inputs": [
						{
							"internalType": "bytes4",
							"name": "_role",
							"type": "bytes4"
						}
					],
					"name": "freeze",
					"outputs": [],
					"stateMutability": "nonpayable",
					"type": "function"
				},
				{
					"inputs": [
						{
							"internalType": "bytes4",
							"name": "_role",
							"type": "bytes4"
						},
						{
							"internalType": "address",
							"name": "_who",
							"type": "address"
						}
					],
					"name": "grant",
					"outputs": [],
					"stateMutability": "nonpayable",
					"type": "function"
				},
				{
					"inputs": [
						{
							"internalType": "bytes4",
							"name": "_role",
							"type": "bytes4"
						},
						{
							"internalType": "address",
							"name": "_who",
							"type": "address"
						},
						{
							"internalType": "contract IACLOracle",
							"name": "_oracle",
							"type": "address"
						}
					],
					"name": "grantWithOracle",
					"outputs": [],
					"stateMutability": "nonpayable",
					"type": "function"
				},
				{
					"inputs": [
						{
							"internalType": "string",
							"name": "",
							"type": "string"
						}
					],
					"name": "initBlocks",
					"outputs": [
						{
							"internalType": "uint256",
							"name": "",
							"type": "uint256"
						}
					],
					"stateMutability": "view",
					"type": "function"
				},
				{
					"inputs": [
						{
							"internalType": "bytes4",
							"name": "_role",
							"type": "bytes4"
						}
					],
					"name": "isFrozen",
					"outputs": [
						{
							"internalType": "bool",
							"name": "",
							"type": "bool"
						}
					],
					"stateMutability": "view",
					"type": "function"
				},
				{
					"inputs": [
						{
							"internalType": "bytes4",
							"name": "_role",
							"type": "bytes4"
						},
						{
							"internalType": "address",
							"name": "_who",
							"type": "address"
						}
					],
					"name": "revoke",
					"outputs": [],
					"stateMutability": "nonpayable",
					"type": "function"
				},
				{
					"inputs": [
						{
							"internalType": "bytes4",
							"name": "",
							"type": "bytes4"
						},
						{
							"internalType": "address",
							"name": "",
							"type": "address"
						}
					],
					"name": "roles",
					"outputs": [
						{
							"internalType": "address",
							"name": "",
							"type": "address"
						}
					],
					"stateMutability": "view",
					"type": "function"
				},
				{
					"inputs": [
						{
							"internalType": "bytes4",
							"name": "_role",
							"type": "bytes4"
						},
						{
							"internalType": "address",
							"name": "_sender",
							"type": "address"
						},
						{
							"internalType": "bytes",
							"name": "_data",
							"type": "bytes"
						}
					],
					"name": "willPerform",
					"outputs": [
						{
							"internalType": "bool",
							"name": "",
							"type": "bool"
						}
					],
					"stateMutability": "nonpayable",
					"type": "function"
				}
			],
			"devdoc": {
				"methods": {}
			},
			"evm": {
				"assembly": "    /* \"@aragon/govern-contract-utils/contracts/acl/ACL.sol\":332:4111  contract ACL is Initializable {... */\n  mstore(0x40, 0x80)\n    /* \"@aragon/govern-contract-utils/contracts/acl/ACL.sol\":1421:1487  constructor(address _initialRoot) public initACL(_initialRoot) { } */\n  callvalue\n    /* \"--CODEGEN--\":5:14   */\n  dup1\n    /* \"--CODEGEN--\":2:4   */\n  iszero\n  tag_1\n  jumpi\n    /* \"--CODEGEN--\":27:28   */\n  0x00\n    /* \"--CODEGEN--\":24:25   */\n  dup1\n    /* \"--CODEGEN--\":17:29   */\n  revert\n    /* \"--CODEGEN--\":2:4   */\ntag_1:\n    /* \"@aragon/govern-contract-utils/contracts/acl/ACL.sol\":1421:1487  constructor(address _initialRoot) public initACL(_initialRoot) { } */\n  pop\n  mload(0x40)\n  sub(codesize, bytecodeSize)\n  dup1\n  bytecodeSize\n  dup4\n  codecopy\n  dup2\n  add\n  0x40\n  dup2\n  swap1\n  mstore\n  tag_2\n  swap2\n  jump(tag_3)\ntag_2:\n    /* \"@aragon/govern-contract-utils/contracts/acl/ACL.sol\":1470:1482  _initialRoot */\n  dup1\n    /* \"@aragon/govern-contract-utils/contracts/acl/ACL.sol\":1321:1331  initBlocks */\n  0x00\n    /* \"@aragon/govern-contract-utils/contracts/acl/ACL.sol\":1321:1338  initBlocks[\"acl\"] */\n  mload(0x40)\n  tag_6\n  swap1\n  jump(tag_7)\ntag_6:\n  swap1\n  dup2\n  mstore\n  0x20\n  add\n  mload(0x40)\n  dup1\n  swap2\n  sub\n  swap1\n  keccak256\n  sload\n    /* \"@aragon/govern-contract-utils/contracts/acl/ACL.sol\":1342:1343  0 */\n  0x00\n    /* \"@aragon/govern-contract-utils/contracts/acl/ACL.sol\":1321:1343  initBlocks[\"acl\"] == 0 */\n  eq\n    /* \"@aragon/govern-contract-utils/contracts/acl/ACL.sol\":1317:1398  if (initBlocks[\"acl\"] == 0) {... */\n  iszero\n  tag_9\n  jumpi\n    /* \"@aragon/govern-contract-utils/contracts/acl/ACL.sol\":1359:1387  _initializeACL(_initialRoot) */\n  tag_9\n    /* \"@aragon/govern-contract-utils/contracts/acl/ACL.sol\":1374:1386  _initialRoot */\n  dup2\n  sub(shl(0xe0, 0x01), 0x01)\n    /* \"@aragon/govern-contract-utils/contracts/acl/ACL.sol\":1359:1373  _initializeACL */\n  tag_10\n    /* \"@aragon/govern-contract-utils/contracts/acl/ACL.sol\":1359:1387  _initializeACL(_initialRoot) */\n  and\n  jump\t// in\ntag_9:\n    /* \"@aragon/govern-contract-utils/contracts/acl/ACL.sol\":1421:1487  constructor(address _initialRoot) public initACL(_initialRoot) { } */\n  pop\n  pop\n    /* \"@aragon/govern-contract-utils/contracts/acl/ACL.sol\":332:4111  contract ACL is Initializable {... */\n  jump(tag_39)\n    /* \"@aragon/govern-contract-utils/contracts/acl/ACL.sol\":1493:1612  function _initializeACL(address _initialRoot) internal onlyInit(\"acl\") {... */\ntag_10:\n    /* \"@aragon/govern-contract-utils/contracts/initializable/Initializable.sol\":192:395  modifier onlyInit(string memory key) {... */\n  mload(0x40)\n  dup1\n  0x40\n  add\n  0x40\n  mstore\n  dup1\n  0x03\n  dup2\n  mstore\n  0x20\n  add\n  shl(0xea, 0x1858db)\n  dup2\n  mstore\n  pop\n    /* \"@aragon/govern-contract-utils/contracts/initializable/Initializable.sol\":247:257  initBlocks */\n  0x00\n    /* \"@aragon/govern-contract-utils/contracts/initializable/Initializable.sol\":258:261  key */\n  dup2\n    /* \"@aragon/govern-contract-utils/contracts/initializable/Initializable.sol\":247:262  initBlocks[key] */\n  mload(0x40)\n  tag_14\n  swap2\n  swap1\n  jump(tag_15)\ntag_14:\n  swap1\n  dup2\n  mstore\n  0x20\n  add\n  mload(0x40)\n  dup1\n  swap2\n  sub\n  swap1\n  keccak256\n  sload\n    /* \"@aragon/govern-contract-utils/contracts/initializable/Initializable.sol\":266:267  0 */\n  0x00\n    /* \"@aragon/govern-contract-utils/contracts/initializable/Initializable.sol\":247:267  initBlocks[key] == 0 */\n  eq\n    /* \"@aragon/govern-contract-utils/contracts/initializable/Initializable.sol\":239:306  require(initBlocks[key] == 0, \"initializable: already initialized\") */\n  tag_16\n  jumpi\n  mload(0x40)\n  shl(0xe5, 0x461bcd)\n  dup2\n  mstore\n  0x04\n  add\n  tag_17\n  swap1\n  jump(tag_18)\ntag_17:\n  mload(0x40)\n  dup1\n  swap2\n  sub\n  swap1\n  revert\ntag_16:\n    /* \"@aragon/govern-contract-utils/contracts/initializable/Initializable.sol\":334:346  block.number */\n  number\n    /* \"@aragon/govern-contract-utils/contracts/initializable/Initializable.sol\":316:326  initBlocks */\n  0x00\n    /* \"@aragon/govern-contract-utils/contracts/initializable/Initializable.sol\":327:330  key */\n  dup3\n    /* \"@aragon/govern-contract-utils/contracts/initializable/Initializable.sol\":316:331  initBlocks[key] */\n  mload(0x40)\n  tag_19\n  swap2\n  swap1\n  jump(tag_15)\ntag_19:\n  swap1\n  dup2\n  mstore\n  mload(0x40)\n  swap1\n  dup2\n  swap1\n  sub\n  0x20\n  add\n  swap1\n  keccak256\n    /* \"@aragon/govern-contract-utils/contracts/initializable/Initializable.sol\":316:346  initBlocks[key] = block.number */\n  sstore\n    /* \"@aragon/govern-contract-utils/contracts/acl/ACL.sol\":1574:1605  _grant(ROOT_ROLE, _initialRoot) */\n  tag_21\n  shl(0xe2, 0x161b7d81)\n    /* \"@aragon/govern-contract-utils/contracts/acl/ACL.sol\":1592:1604  _initialRoot */\n  dup4\n  sub(shl(0xe0, 0x01), 0x01)\n    /* \"@aragon/govern-contract-utils/contracts/acl/ACL.sol\":1574:1580  _grant */\n  tag_22\n    /* \"@aragon/govern-contract-utils/contracts/acl/ACL.sol\":1574:1605  _grant(ROOT_ROLE, _initialRoot) */\n  and\n  jump\t// in\ntag_21:\n    /* \"@aragon/govern-contract-utils/contracts/initializable/Initializable.sol\":384:387  key */\n  dup1\n    /* \"@aragon/govern-contract-utils/contracts/initializable/Initializable.sol\":372:388  Initialized(key) */\n  mload(0x40)\n  tag_23\n  swap2\n  swap1\n  jump(tag_15)\ntag_23:\n  mload(0x40)\n  swap1\n  dup2\n  swap1\n  sub\n  dup2\n  keccak256\n  swap1\n  0x7bc2a48a4a566e237a12186f19d985b0f76afc9d5290601edac19876253670c2\n  swap1\n  0x00\n  swap1\n  log2\n    /* \"@aragon/govern-contract-utils/contracts/acl/ACL.sol\":1493:1612  function _initializeACL(address _initialRoot) internal onlyInit(\"acl\") {... */\n  pop\n  pop\n  jump\t// out\n    /* \"@aragon/govern-contract-utils/contracts/acl/ACL.sol\":3142:3265  function _grant(bytes4 _role, address _who) internal {... */\ntag_22:\n    /* \"@aragon/govern-contract-utils/contracts/acl/ACL.sol\":3205:3258  _grantWithOracle(_role, _who, IACLOracle(ALLOW_FLAG)) */\n  tag_25\n    /* \"@aragon/govern-contract-utils/contracts/acl/ACL.sol\":3222:3227  _role */\n  dup3\n    /* \"@aragon/govern-contract-utils/contracts/acl/ACL.sol\":3229:3233  _who */\n  dup3\n    /* \"@aragon/govern-contract-utils/contracts/acl/ACL.sol\":746:747  2 */\n  0x02\n  sub(shl(0xe0, 0x01), 0x01)\n    /* \"@aragon/govern-contract-utils/contracts/acl/ACL.sol\":3205:3221  _grantWithOracle */\n  tag_26\n    /* \"@aragon/govern-contract-utils/contracts/acl/ACL.sol\":3205:3258  _grantWithOracle(_role, _who, IACLOracle(ALLOW_FLAG)) */\n  and\n  jump\t// in\ntag_25:\n    /* \"@aragon/govern-contract-utils/contracts/acl/ACL.sol\":3142:3265  function _grant(bytes4 _role, address _who) internal {... */\n  pop\n  pop\n  jump\t// out\n    /* \"@aragon/govern-contract-utils/contracts/acl/ACL.sol\":3271:3580  function _grantWithOracle(bytes4 _role, address _who, IACLOracle _oracle) internal {... */\ntag_26:\n    /* \"@aragon/govern-contract-utils/contracts/acl/ACL.sol\":3373:3388  isFrozen(_role) */\n  tag_28\n    /* \"@aragon/govern-contract-utils/contracts/acl/ACL.sol\":3382:3387  _role */\n  dup4\n  sub(shl(0xe0, 0x01), 0x01)\n    /* \"@aragon/govern-contract-utils/contracts/acl/ACL.sol\":3373:3381  isFrozen */\n  tag_29\n    /* \"@aragon/govern-contract-utils/contracts/acl/ACL.sol\":3373:3388  isFrozen(_role) */\n  and\n  jump\t// in\ntag_28:\n    /* \"@aragon/govern-contract-utils/contracts/acl/ACL.sol\":3372:3388  !isFrozen(_role) */\n  iszero\n    /* \"@aragon/govern-contract-utils/contracts/acl/ACL.sol\":3364:3404  require(!isFrozen(_role), \"acl: frozen\") */\n  tag_30\n  jumpi\n  mload(0x40)\n  shl(0xe5, 0x461bcd)\n  dup2\n  mstore\n  0x04\n  add\n  tag_17\n  swap1\n  jump(tag_32)\ntag_30:\n  sub(shl(0xa0, 0x01), 0x01)\n    /* \"@aragon/govern-contract-utils/contracts/acl/ACL.sol\":3422:3441  _who != FREEZE_FLAG */\n  dup3\n  and\n    /* \"@aragon/govern-contract-utils/contracts/acl/ACL.sol\":581:582  1 */\n  0x01\n    /* \"@aragon/govern-contract-utils/contracts/acl/ACL.sol\":3422:3441  _who != FREEZE_FLAG */\n  eq\n  iszero\n    /* \"@aragon/govern-contract-utils/contracts/acl/ACL.sol\":3414:3461  require(_who != FREEZE_FLAG, \"acl: bad freeze\") */\n  tag_33\n  jumpi\n  mload(0x40)\n  shl(0xe5, 0x461bcd)\n  dup2\n  mstore\n  0x04\n  add\n  tag_17\n  swap1\n  jump(tag_35)\ntag_33:\n  not(sub(shl(0xe0, 0x01), 0x01))\n    /* \"@aragon/govern-contract-utils/contracts/acl/ACL.sol\":3480:3492  roles[_role] */\n  dup4\n  and\n  0x00\n  dup2\n  dup2\n  mstore\n    /* \"@aragon/govern-contract-utils/contracts/acl/ACL.sol\":3480:3485  roles */\n  0x01\n    /* \"@aragon/govern-contract-utils/contracts/acl/ACL.sol\":3480:3492  roles[_role] */\n  0x20\n  swap1\n  dup2\n  mstore\n  0x40\n  dup1\n  dup4\n  keccak256\n  sub(shl(0xa0, 0x01), 0x01)\n    /* \"@aragon/govern-contract-utils/contracts/acl/ACL.sol\":3480:3498  roles[_role][_who] */\n  dup8\n  dup2\n  and\n  dup1\n  dup7\n  mstore\n  swap2\n  swap1\n  swap4\n  mstore\n  swap3\n  dup2\n  swap1\n  keccak256\n    /* \"@aragon/govern-contract-utils/contracts/acl/ACL.sol\":3480:3517  roles[_role][_who] = address(_oracle) */\n  dup1\n  sload\n  not(sub(shl(0xa0, 0x01), 0x01))\n  and\n  swap3\n  dup7\n  and\n  swap3\n  swap1\n  swap3\n  or\n  swap1\n  swap2\n  sstore\n    /* \"@aragon/govern-contract-utils/contracts/acl/ACL.sol\":3532:3573  Granted(_role, msg.sender, _who, _oracle) */\n  mload\n    /* \"@aragon/govern-contract-utils/contracts/acl/ACL.sol\":3480:3498  roles[_role][_who] */\n  swap1\n  swap2\n    /* \"@aragon/govern-contract-utils/contracts/acl/ACL.sol\":3547:3557  msg.sender */\n  caller\n  swap2\n    /* \"@aragon/govern-contract-utils/contracts/acl/ACL.sol\":3532:3573  Granted(_role, msg.sender, _who, _oracle) */\n  0xc62063b81f7036fd97a0dc546516e99f11004d2d76ca0fddd3866346c86e7091\n  swap1\n  tag_36\n  swap1\n    /* \"@aragon/govern-contract-utils/contracts/acl/ACL.sol\":3480:3517  roles[_role][_who] = address(_oracle) */\n  dup7\n  swap1\n    /* \"@aragon/govern-contract-utils/contracts/acl/ACL.sol\":3532:3573  Granted(_role, msg.sender, _who, _oracle) */\n  jump(tag_37)\ntag_36:\n  mload(0x40)\n  dup1\n  swap2\n  sub\n  swap1\n  log4\n    /* \"@aragon/govern-contract-utils/contracts/acl/ACL.sol\":3271:3580  function _grantWithOracle(bytes4 _role, address _who, IACLOracle _oracle) internal {... */\n  pop\n  pop\n  pop\n  jump\t// out\n    /* \"@aragon/govern-contract-utils/contracts/acl/ACL.sol\":3986:4109  function isFrozen(bytes4 _role) public view returns (bool) {... */\ntag_29:\n  not(sub(shl(0xe0, 0x01), 0x01))\n    /* \"@aragon/govern-contract-utils/contracts/acl/ACL.sol\":4062:4074  roles[_role] */\n  and\n    /* \"@aragon/govern-contract-utils/contracts/acl/ACL.sol\":4039:4043  bool */\n  0x00\n    /* \"@aragon/govern-contract-utils/contracts/acl/ACL.sol\":4062:4074  roles[_role] */\n  swap1\n  dup2\n  mstore\n    /* \"@aragon/govern-contract-utils/contracts/acl/ACL.sol\":581:582  1 */\n  0x01\n    /* \"@aragon/govern-contract-utils/contracts/acl/ACL.sol\":4062:4074  roles[_role] */\n  0x20\n  dup2\n  dup2\n  mstore\n  0x40\n  dup1\n  dup5\n  keccak256\n    /* \"@aragon/govern-contract-utils/contracts/acl/ACL.sol\":4062:4087  roles[_role][FREEZE_FLAG] */\n  dup4\n  dup6\n  mstore\n  swap1\n  swap2\n  mstore\n  swap1\n  swap2\n  keccak256\n  sload\n  sub(shl(0xa0, 0x01), 0x01)\n  and\n    /* \"@aragon/govern-contract-utils/contracts/acl/ACL.sol\":4062:4102  roles[_role][FREEZE_FLAG] == FREEZE_FLAG */\n  eq\n  swap1\n    /* \"@aragon/govern-contract-utils/contracts/acl/ACL.sol\":3986:4109  function isFrozen(bytes4 _role) public view returns (bool) {... */\n  jump\t// out\n    /* \"--CODEGEN--\":146:409   */\ntag_3:\n  0x00\n    /* \"--CODEGEN--\":261:263   */\n  0x20\n    /* \"--CODEGEN--\":249:258   */\n  dup3\n    /* \"--CODEGEN--\":240:247   */\n  dup5\n    /* \"--CODEGEN--\":236:259   */\n  sub\n    /* \"--CODEGEN--\":232:264   */\n  slt\n    /* \"--CODEGEN--\":229:231   */\n  iszero\n  tag_41\n  jumpi\n  dup1\n  dup2\n    /* \"--CODEGEN--\":267:279   */\n  revert\n    /* \"--CODEGEN--\":229:231   */\ntag_41:\n    /* \"--CODEGEN--\":83:96   */\n  dup2\n  mload\n  sub(shl(0xa0, 0x01), 0x01)\n    /* \"--CODEGEN--\":5145:5199   */\n  dup2\n  and\n    /* \"--CODEGEN--\":5847:5882   */\n  dup2\n  eq\n    /* \"--CODEGEN--\":5837:5839   */\n  tag_42\n  jumpi\n  dup2\n  dup3\n    /* \"--CODEGEN--\":5886:5898   */\n  revert\n    /* \"--CODEGEN--\":5837:5839   */\ntag_42:\n    /* \"--CODEGEN--\":319:393   */\n  swap4\n    /* \"--CODEGEN--\":223:409   */\n  swap3\n  pop\n  pop\n  pop\n  jump\n    /* \"--CODEGEN--\":2324:2599   */\ntag_15:\n  0x00\n    /* \"--CODEGEN--\":750:755   */\n  dup3\n    /* \"--CODEGEN--\":4618:4630   */\n  mload\n  dup2\n    /* \"--CODEGEN--\":5584:5685   */\ntag_44:\n    /* \"--CODEGEN--\":5598:5604   */\n  dup2\n    /* \"--CODEGEN--\":5595:5596   */\n  dup2\n    /* \"--CODEGEN--\":5592:5605   */\n  lt\n    /* \"--CODEGEN--\":5584:5685   */\n  iszero\n  tag_46\n  jumpi\n    /* \"--CODEGEN--\":895:899   */\n  0x20\n    /* \"--CODEGEN--\":5665:5676   */\n  dup2\n  dup7\n  add\n  dup2\n  add\n    /* \"--CODEGEN--\":5659:5677   */\n  mload\n    /* \"--CODEGEN--\":5646:5657   */\n  dup6\n  dup4\n  add\n    /* \"--CODEGEN--\":5639:5678   */\n  mstore\n    /* \"--CODEGEN--\":5613:5623   */\n  add\n    /* \"--CODEGEN--\":5584:5685   */\n  jump(tag_44)\ntag_46:\n    /* \"--CODEGEN--\":5700:5706   */\n  dup2\n    /* \"--CODEGEN--\":5697:5698   */\n  dup2\n    /* \"--CODEGEN--\":5694:5707   */\n  gt\n    /* \"--CODEGEN--\":5691:5693   */\n  iszero\n  tag_47\n  jumpi\n  dup3\n    /* \"--CODEGEN--\":5756:5762   */\n  dup3\n    /* \"--CODEGEN--\":5751:5754   */\n  dup6\n    /* \"--CODEGEN--\":5747:5763   */\n  add\n    /* \"--CODEGEN--\":5740:5767   */\n  mstore\n    /* \"--CODEGEN--\":5691:5693   */\ntag_47:\n  pop\n    /* \"--CODEGEN--\":926:942   */\n  swap2\n  swap1\n  swap2\n  add\n  swap3\n    /* \"--CODEGEN--\":2460:2599   */\n  swap2\n  pop\n  pop\n  jump\n    /* \"--CODEGEN--\":2606:2987   */\ntag_7:\n  shl(0xea, 0x1858db)\n    /* \"--CODEGEN--\":1930:1956   */\n  dup2\n  mstore\n    /* \"--CODEGEN--\":1915:1916   */\n  0x03\n    /* \"--CODEGEN--\":1975:1986   */\n  add\n  swap1\n    /* \"--CODEGEN--\":2795:2987   */\n  jump\n    /* \"--CODEGEN--\":2994:3254   */\ntag_37:\n  sub(shl(0xa0, 0x01), 0x01)\n    /* \"--CODEGEN--\":5145:5199   */\n  swap2\n  swap1\n  swap2\n  and\n    /* \"--CODEGEN--\":506:575   */\n  dup2\n  mstore\n    /* \"--CODEGEN--\":3140:3142   */\n  0x20\n    /* \"--CODEGEN--\":3125:3143   */\n  add\n  swap1\n    /* \"--CODEGEN--\":3111:3254   */\n  jump\n    /* \"--CODEGEN--\":3261:3677   */\ntag_32:\n    /* \"--CODEGEN--\":3461:3463   */\n  0x20\n    /* \"--CODEGEN--\":3475:3522   */\n  dup1\n  dup3\n  mstore\n    /* \"--CODEGEN--\":1179:1181   */\n  0x0b\n    /* \"--CODEGEN--\":3446:3464   */\n  swap1\n  dup3\n  add\n    /* \"--CODEGEN--\":4763:4782   */\n  mstore\n  shl(0xa9, 0x30b1b61d10333937bd32b7)\n    /* \"--CODEGEN--\":4803:4817   */\n  0x40\n  dup3\n  add\n    /* \"--CODEGEN--\":1195:1229   */\n  mstore\n    /* \"--CODEGEN--\":1248:1260   */\n  0x60\n  add\n  swap1\n    /* \"--CODEGEN--\":3432:3677   */\n  jump\n    /* \"--CODEGEN--\":3684:4100   */\ntag_18:\n    /* \"--CODEGEN--\":3884:3886   */\n  0x20\n    /* \"--CODEGEN--\":3898:3945   */\n  dup1\n  dup3\n  mstore\n    /* \"--CODEGEN--\":1499:1501   */\n  0x22\n    /* \"--CODEGEN--\":3869:3887   */\n  swap1\n  dup3\n  add\n    /* \"--CODEGEN--\":4763:4782   */\n  mstore\n    /* \"--CODEGEN--\":1535:1569   */\n  0x696e697469616c697a61626c653a20616c726561647920696e697469616c697a\n    /* \"--CODEGEN--\":4803:4817   */\n  0x40\n  dup3\n  add\n    /* \"--CODEGEN--\":1515:1570   */\n  mstore\n  shl(0xf2, 0x1959)\n    /* \"--CODEGEN--\":1590:1602   */\n  0x60\n  dup3\n  add\n    /* \"--CODEGEN--\":1583:1609   */\n  mstore\n    /* \"--CODEGEN--\":1628:1640   */\n  0x80\n  add\n  swap1\n    /* \"--CODEGEN--\":3855:4100   */\n  jump\n    /* \"--CODEGEN--\":4107:4523   */\ntag_35:\n    /* \"--CODEGEN--\":4307:4309   */\n  0x20\n    /* \"--CODEGEN--\":4321:4368   */\n  dup1\n  dup3\n  mstore\n    /* \"--CODEGEN--\":2225:2227   */\n  0x0f\n    /* \"--CODEGEN--\":4292:4310   */\n  swap1\n  dup3\n  add\n    /* \"--CODEGEN--\":4763:4782   */\n  mstore\n  shl(0x88, 0x61636c3a2062616420667265657a65)\n    /* \"--CODEGEN--\":4803:4817   */\n  0x40\n  dup3\n  add\n    /* \"--CODEGEN--\":2241:2279   */\n  mstore\n    /* \"--CODEGEN--\":2298:2310   */\n  0x60\n  add\n  swap1\n    /* \"--CODEGEN--\":4278:4523   */\n  jump\ntag_39:\n    /* \"@aragon/govern-contract-utils/contracts/acl/ACL.sol\":332:4111  contract ACL is Initializable {... */\n  dataSize(sub_0)\n  dup1\n  dataOffset(sub_0)\n  0x00\n  codecopy\n  0x00\n  return\nstop\n\nsub_0: assembly {\n        /* \"@aragon/govern-contract-utils/contracts/acl/ACL.sol\":332:4111  contract ACL is Initializable {... */\n      mstore(0x40, 0x80)\n      callvalue\n        /* \"--CODEGEN--\":5:14   */\n      dup1\n        /* \"--CODEGEN--\":2:4   */\n      iszero\n      tag_1\n      jumpi\n        /* \"--CODEGEN--\":27:28   */\n      0x00\n        /* \"--CODEGEN--\":24:25   */\n      dup1\n        /* \"--CODEGEN--\":17:29   */\n      revert\n        /* \"--CODEGEN--\":2:4   */\n    tag_1:\n        /* \"@aragon/govern-contract-utils/contracts/acl/ACL.sol\":332:4111  contract ACL is Initializable {... */\n      pop\n      jumpi(tag_2, lt(calldatasize, 0x04))\n      shr(0xe0, calldataload(0x00))\n      dup1\n      0x96fc8abd\n      gt\n      tag_13\n      jumpi\n      dup1\n      0xa2157227\n      gt\n      tag_14\n      jumpi\n      dup1\n      0xa2157227\n      eq\n      tag_10\n      jumpi\n      dup1\n      0xbdf9a726\n      eq\n      tag_11\n      jumpi\n      dup1\n      0xcc1d4cab\n      eq\n      tag_12\n      jumpi\n      jump(tag_2)\n    tag_14:\n      dup1\n      0x96fc8abd\n      eq\n      tag_8\n      jumpi\n      dup1\n      0xa157a10d\n      eq\n      tag_9\n      jumpi\n      jump(tag_2)\n    tag_13:\n      dup1\n      0x495a9825\n      gt\n      tag_15\n      jumpi\n      dup1\n      0x495a9825\n      eq\n      tag_5\n      jumpi\n      dup1\n      0x58849734\n      eq\n      tag_6\n      jumpi\n      dup1\n      0x7e8c7f08\n      eq\n      tag_7\n      jumpi\n      jump(tag_2)\n    tag_15:\n      dup1\n      0x097c8108\n      eq\n      tag_3\n      jumpi\n      dup1\n      0x1c47671b\n      eq\n      tag_4\n      jumpi\n    tag_2:\n        /* \"--CODEGEN--\":12:13   */\n      0x00\n        /* \"--CODEGEN--\":9:10   */\n      dup1\n        /* \"--CODEGEN--\":2:14   */\n      revert\n        /* \"@aragon/govern-contract-utils/contracts/acl/ACL.sol\":2529:3136  function willPerform(bytes4 _role, address _sender, bytes memory _data) public returns (bool) {... */\n    tag_3:\n      tag_16\n      tag_17\n      calldatasize\n      0x04\n      jump(tag_18)\n    tag_17:\n      tag_19\n      jump\t// in\n    tag_16:\n      mload(0x40)\n      tag_20\n      swap2\n      swap1\n      jump(tag_21)\n    tag_20:\n      mload(0x40)\n      dup1\n      swap2\n      sub\n      swap1\n      return\n        /* \"@aragon/govern-contract-utils/contracts/acl/ACL.sol\":2091:2523  function bulk(ACLData.BulkItem[] memory items) public auth(ROOT_ROLE) {... */\n    tag_4:\n      tag_22\n      tag_23\n      calldatasize\n      0x04\n      jump(tag_24)\n    tag_23:\n      tag_25\n      jump\t// in\n    tag_22:\n      stop\n        /* \"@aragon/govern-contract-utils/contracts/acl/ACL.sol\":3986:4109  function isFrozen(bytes4 _role) public view returns (bool) {... */\n    tag_5:\n      tag_16\n      tag_27\n      calldatasize\n      0x04\n      jump(tag_28)\n    tag_27:\n      tag_29\n      jump\t// in\n        /* \"@aragon/govern-contract-utils/contracts/acl/ACL.sol\":1887:1993  function revoke(bytes4 _role, address _who) external auth(ROOT_ROLE) {... */\n    tag_6:\n      tag_22\n      tag_32\n      calldatasize\n      0x04\n      jump(tag_33)\n    tag_32:\n      tag_34\n      jump\t// in\n        /* \"@aragon/govern-contract-utils/contracts/acl/ACL.sol\":368:521  bytes4 public constant ROOT_ROLE =... */\n    tag_7:\n      tag_35\n      tag_36\n      jump\t// in\n    tag_35:\n      mload(0x40)\n      tag_20\n      swap2\n      swap1\n      jump(tag_38)\n        /* \"@aragon/govern-contract-utils/contracts/acl/ACL.sol\":759:820  mapping (bytes4 => mapping (address => address)) public roles */\n    tag_8:\n      tag_39\n      tag_40\n      calldatasize\n      0x04\n      jump(tag_33)\n    tag_40:\n      tag_41\n      jump\t// in\n    tag_39:\n      mload(0x40)\n      tag_20\n      swap2\n      swap1\n      jump(tag_43)\n        /* \"@aragon/govern-contract-utils/contracts/acl/ACL.sol\":1618:1722  function grant(bytes4 _role, address _who) external auth(ROOT_ROLE) {... */\n    tag_9:\n      tag_22\n      tag_45\n      calldatasize\n      0x04\n      jump(tag_33)\n    tag_45:\n      tag_46\n      jump\t// in\n        /* \"@aragon/govern-contract-utils/contracts/acl/ACL.sol\":1728:1881  function grantWithOracle(bytes4 _role, address _who, IACLOracle _oracle) external auth(ROOT_ROLE) {... */\n    tag_10:\n      tag_22\n      tag_48\n      calldatasize\n      0x04\n      jump(tag_49)\n    tag_48:\n      tag_50\n      jump\t// in\n        /* \"@aragon/govern-contract-utils/contracts/acl/ACL.sol\":1999:2085  function freeze(bytes4 _role) external auth(ROOT_ROLE) {... */\n    tag_11:\n      tag_22\n      tag_52\n      calldatasize\n      0x04\n      jump(tag_28)\n    tag_52:\n      tag_53\n      jump\t// in\n        /* \"@aragon/govern-contract-utils/contracts/initializable/Initializable.sol\":96:141  mapping (string => uint256) public initBlocks */\n    tag_12:\n      tag_54\n      tag_55\n      calldatasize\n      0x04\n      jump(tag_56)\n    tag_55:\n      tag_57\n      jump\t// in\n    tag_54:\n      mload(0x40)\n      tag_20\n      swap2\n      swap1\n      jump(tag_59)\n        /* \"@aragon/govern-contract-utils/contracts/acl/ACL.sol\":2529:3136  function willPerform(bytes4 _role, address _sender, bytes memory _data) public returns (bool) {... */\n    tag_19:\n        /* \"@aragon/govern-contract-utils/contracts/acl/ACL.sol\":2654:2666  roles[_role] */\n      0xffffffff00000000000000000000000000000000000000000000000000000000\n      dup4\n      and\n        /* \"@aragon/govern-contract-utils/contracts/acl/ACL.sol\":2617:2621  bool */\n      0x00\n        /* \"@aragon/govern-contract-utils/contracts/acl/ACL.sol\":2654:2666  roles[_role] */\n      swap1\n      dup2\n      mstore\n        /* \"@aragon/govern-contract-utils/contracts/acl/ACL.sol\":2654:2659  roles */\n      0x01\n        /* \"@aragon/govern-contract-utils/contracts/acl/ACL.sol\":2654:2666  roles[_role] */\n      0x20\n      swap1\n      dup2\n      mstore\n      0x40\n      dup1\n      dup4\n      keccak256\n        /* \"@aragon/govern-contract-utils/contracts/acl/ACL.sol\":2667:2677  msg.sender */\n      caller\n        /* \"@aragon/govern-contract-utils/contracts/acl/ACL.sol\":2654:2678  roles[_role][msg.sender] */\n      dup5\n      mstore\n      swap1\n      swap2\n      mstore\n      dup2\n      keccak256\n      sload\n      0xffffffffffffffffffffffffffffffffffffffff\n      and\n        /* \"@aragon/govern-contract-utils/contracts/acl/ACL.sol\":2692:2716  senderRole != UNSET_ROLE */\n      dup1\n      iszero\n        /* \"@aragon/govern-contract-utils/contracts/acl/ACL.sol\":2688:2872  if (senderRole != UNSET_ROLE) {... */\n      tag_70\n      jumpi\n        /* \"@aragon/govern-contract-utils/contracts/acl/ACL.sol\":2736:2760  senderRole == ALLOW_FLAG */\n      0xffffffffffffffffffffffffffffffffffffffff\n      dup2\n      and\n        /* \"@aragon/govern-contract-utils/contracts/acl/ACL.sol\":746:747  2 */\n      0x02\n        /* \"@aragon/govern-contract-utils/contracts/acl/ACL.sol\":2736:2760  senderRole == ALLOW_FLAG */\n      eq\n        /* \"@aragon/govern-contract-utils/contracts/acl/ACL.sol\":2732:2773  if (senderRole == ALLOW_FLAG) return true */\n      iszero\n      tag_62\n      jumpi\n        /* \"@aragon/govern-contract-utils/contracts/acl/ACL.sol\":2769:2773  true */\n      0x01\n        /* \"@aragon/govern-contract-utils/contracts/acl/ACL.sol\":2762:2773  return true */\n      swap2\n      pop\n      pop\n      jump(tag_60)\n        /* \"@aragon/govern-contract-utils/contracts/acl/ACL.sol\":2732:2773  if (senderRole == ALLOW_FLAG) return true */\n    tag_62:\n        /* \"@aragon/govern-contract-utils/contracts/acl/ACL.sol\":2791:2848  IACLOracle(senderRole).willPerform(_role, _sender, _data) */\n      mload(0x40)\n      0x097c810800000000000000000000000000000000000000000000000000000000\n      dup2\n      mstore\n        /* \"@aragon/govern-contract-utils/contracts/acl/ACL.sol\":2791:2825  IACLOracle(senderRole).willPerform */\n      0xffffffffffffffffffffffffffffffffffffffff\n      dup3\n      and\n      swap1\n      0x097c8108\n      swap1\n        /* \"@aragon/govern-contract-utils/contracts/acl/ACL.sol\":2791:2848  IACLOracle(senderRole).willPerform(_role, _sender, _data) */\n      tag_63\n      swap1\n        /* \"@aragon/govern-contract-utils/contracts/acl/ACL.sol\":2826:2831  _role */\n      dup9\n      swap1\n        /* \"@aragon/govern-contract-utils/contracts/acl/ACL.sol\":2833:2840  _sender */\n      dup9\n      swap1\n        /* \"@aragon/govern-contract-utils/contracts/acl/ACL.sol\":2842:2847  _data */\n      dup9\n      swap1\n        /* \"@aragon/govern-contract-utils/contracts/acl/ACL.sol\":2791:2848  IACLOracle(senderRole).willPerform(_role, _sender, _data) */\n      0x04\n      add\n      jump(tag_64)\n    tag_63:\n      0x20\n      mload(0x40)\n      dup1\n      dup4\n      sub\n      dup2\n      0x00\n      dup8\n      dup1\n      extcodesize\n      iszero\n        /* \"--CODEGEN--\":5:14   */\n      dup1\n        /* \"--CODEGEN--\":2:4   */\n      iszero\n      tag_65\n      jumpi\n        /* \"--CODEGEN--\":27:28   */\n      0x00\n        /* \"--CODEGEN--\":24:25   */\n      dup1\n        /* \"--CODEGEN--\":17:29   */\n      revert\n        /* \"--CODEGEN--\":2:4   */\n    tag_65:\n        /* \"@aragon/govern-contract-utils/contracts/acl/ACL.sol\":2791:2848  IACLOracle(senderRole).willPerform(_role, _sender, _data) */\n      pop\n      gas\n      call\n      iszero\n        /* \"--CODEGEN--\":8:17   */\n      dup1\n        /* \"--CODEGEN--\":5:7   */\n      iszero\n      tag_67\n      jumpi\n        /* \"--CODEGEN--\":45:61   */\n      returndatasize\n        /* \"--CODEGEN--\":42:43   */\n      0x00\n        /* \"--CODEGEN--\":39:40   */\n      dup1\n        /* \"--CODEGEN--\":24:62   */\n      returndatacopy\n        /* \"--CODEGEN--\":77:93   */\n      returndatasize\n        /* \"--CODEGEN--\":74:75   */\n      0x00\n        /* \"--CODEGEN--\":67:94   */\n      revert\n        /* \"--CODEGEN--\":5:7   */\n    tag_67:\n        /* \"@aragon/govern-contract-utils/contracts/acl/ACL.sol\":2791:2848  IACLOracle(senderRole).willPerform(_role, _sender, _data) */\n      pop\n      pop\n      pop\n      pop\n      mload(0x40)\n      returndatasize\n        /* \"--CODEGEN--\":101:105   */\n      0x1f\n        /* \"--CODEGEN--\":97:106   */\n      not\n        /* \"--CODEGEN--\":90:94   */\n      0x1f\n        /* \"--CODEGEN--\":84:88   */\n      dup3\n        /* \"--CODEGEN--\":80:95   */\n      add\n        /* \"--CODEGEN--\":76:107   */\n      and\n        /* \"--CODEGEN--\":69:74   */\n      dup3\n        /* \"--CODEGEN--\":65:108   */\n      add\n        /* \"--CODEGEN--\":126:132   */\n      dup1\n        /* \"--CODEGEN--\":120:124   */\n      0x40\n        /* \"--CODEGEN--\":113:133   */\n      mstore\n        /* \"--CODEGEN--\":0:138   */\n      pop\n        /* \"@aragon/govern-contract-utils/contracts/acl/ACL.sol\":2791:2848  IACLOracle(senderRole).willPerform(_role, _sender, _data) */\n      dup2\n      add\n      swap1\n      tag_68\n      swap2\n      swap1\n      jump(tag_69)\n    tag_68:\n        /* \"@aragon/govern-contract-utils/contracts/acl/ACL.sol\":2787:2861  if (IACLOracle(senderRole).willPerform(_role, _sender, _data)) return true */\n      iszero\n      tag_70\n      jumpi\n        /* \"@aragon/govern-contract-utils/contracts/acl/ACL.sol\":2857:2861  true */\n      0x01\n        /* \"@aragon/govern-contract-utils/contracts/acl/ACL.sol\":2850:2861  return true */\n      swap2\n      pop\n      pop\n      jump(tag_60)\n        /* \"@aragon/govern-contract-utils/contracts/acl/ACL.sol\":2787:2861  if (IACLOracle(senderRole).willPerform(_role, _sender, _data)) return true */\n    tag_70:\n        /* \"@aragon/govern-contract-utils/contracts/acl/ACL.sol\":2900:2912  roles[_role] */\n      0xffffffff00000000000000000000000000000000000000000000000000000000\n      dup6\n      and\n        /* \"@aragon/govern-contract-utils/contracts/acl/ACL.sol\":2882:2897  address anyRole */\n      0x00\n        /* \"@aragon/govern-contract-utils/contracts/acl/ACL.sol\":2900:2912  roles[_role] */\n      swap1\n      dup2\n      mstore\n        /* \"@aragon/govern-contract-utils/contracts/acl/ACL.sol\":2900:2905  roles */\n      0x01\n        /* \"@aragon/govern-contract-utils/contracts/acl/ACL.sol\":2900:2912  roles[_role] */\n      0x20\n      swap1\n      dup2\n      mstore\n      0x40\n      dup1\n      dup4\n      keccak256\n        /* \"@aragon/govern-contract-utils/contracts/acl/ACL.sol\":2900:2922  roles[_role][ANY_ADDR] */\n      0xffffffffffffffffffffffffffffffffffffffff\n      dup1\n      dup6\n      mstore\n      swap3\n      mstore\n      swap1\n      swap2\n      keccak256\n      sload\n      and\n        /* \"@aragon/govern-contract-utils/contracts/acl/ACL.sol\":2936:2957  anyRole != UNSET_ROLE */\n      dup1\n      iszero\n        /* \"@aragon/govern-contract-utils/contracts/acl/ACL.sol\":2932:3107  if (anyRole != UNSET_ROLE) {... */\n      tag_78\n      jumpi\n        /* \"@aragon/govern-contract-utils/contracts/acl/ACL.sol\":2977:2998  anyRole == ALLOW_FLAG */\n      0xffffffffffffffffffffffffffffffffffffffff\n      dup2\n      and\n        /* \"@aragon/govern-contract-utils/contracts/acl/ACL.sol\":746:747  2 */\n      0x02\n        /* \"@aragon/govern-contract-utils/contracts/acl/ACL.sol\":2977:2998  anyRole == ALLOW_FLAG */\n      eq\n        /* \"@aragon/govern-contract-utils/contracts/acl/ACL.sol\":2973:3011  if (anyRole == ALLOW_FLAG) return true */\n      iszero\n      tag_72\n      jumpi\n        /* \"@aragon/govern-contract-utils/contracts/acl/ACL.sol\":3007:3011  true */\n      0x01\n        /* \"@aragon/govern-contract-utils/contracts/acl/ACL.sol\":3000:3011  return true */\n      swap3\n      pop\n      pop\n      pop\n      jump(tag_60)\n        /* \"@aragon/govern-contract-utils/contracts/acl/ACL.sol\":2973:3011  if (anyRole == ALLOW_FLAG) return true */\n    tag_72:\n        /* \"@aragon/govern-contract-utils/contracts/acl/ACL.sol\":3029:3083  IACLOracle(anyRole).willPerform(_role, _sender, _data) */\n      mload(0x40)\n      0x097c810800000000000000000000000000000000000000000000000000000000\n      dup2\n      mstore\n        /* \"@aragon/govern-contract-utils/contracts/acl/ACL.sol\":3029:3060  IACLOracle(anyRole).willPerform */\n      0xffffffffffffffffffffffffffffffffffffffff\n      dup3\n      and\n      swap1\n      0x097c8108\n      swap1\n        /* \"@aragon/govern-contract-utils/contracts/acl/ACL.sol\":3029:3083  IACLOracle(anyRole).willPerform(_role, _sender, _data) */\n      tag_73\n      swap1\n        /* \"@aragon/govern-contract-utils/contracts/acl/ACL.sol\":3061:3066  _role */\n      dup10\n      swap1\n        /* \"@aragon/govern-contract-utils/contracts/acl/ACL.sol\":3068:3075  _sender */\n      dup10\n      swap1\n        /* \"@aragon/govern-contract-utils/contracts/acl/ACL.sol\":3077:3082  _data */\n      dup10\n      swap1\n        /* \"@aragon/govern-contract-utils/contracts/acl/ACL.sol\":3029:3083  IACLOracle(anyRole).willPerform(_role, _sender, _data) */\n      0x04\n      add\n      jump(tag_64)\n    tag_73:\n      0x20\n      mload(0x40)\n      dup1\n      dup4\n      sub\n      dup2\n      0x00\n      dup8\n      dup1\n      extcodesize\n      iszero\n        /* \"--CODEGEN--\":5:14   */\n      dup1\n        /* \"--CODEGEN--\":2:4   */\n      iszero\n      tag_74\n      jumpi\n        /* \"--CODEGEN--\":27:28   */\n      0x00\n        /* \"--CODEGEN--\":24:25   */\n      dup1\n        /* \"--CODEGEN--\":17:29   */\n      revert\n        /* \"--CODEGEN--\":2:4   */\n    tag_74:\n        /* \"@aragon/govern-contract-utils/contracts/acl/ACL.sol\":3029:3083  IACLOracle(anyRole).willPerform(_role, _sender, _data) */\n      pop\n      gas\n      call\n      iszero\n        /* \"--CODEGEN--\":8:17   */\n      dup1\n        /* \"--CODEGEN--\":5:7   */\n      iszero\n      tag_76\n      jumpi\n        /* \"--CODEGEN--\":45:61   */\n      returndatasize\n        /* \"--CODEGEN--\":42:43   */\n      0x00\n        /* \"--CODEGEN--\":39:40   */\n      dup1\n        /* \"--CODEGEN--\":24:62   */\n      returndatacopy\n        /* \"--CODEGEN--\":77:93   */\n      returndatasize\n        /* \"--CODEGEN--\":74:75   */\n      0x00\n        /* \"--CODEGEN--\":67:94   */\n      revert\n        /* \"--CODEGEN--\":5:7   */\n    tag_76:\n        /* \"@aragon/govern-contract-utils/contracts/acl/ACL.sol\":3029:3083  IACLOracle(anyRole).willPerform(_role, _sender, _data) */\n      pop\n      pop\n      pop\n      pop\n      mload(0x40)\n      returndatasize\n        /* \"--CODEGEN--\":101:105   */\n      0x1f\n        /* \"--CODEGEN--\":97:106   */\n      not\n        /* \"--CODEGEN--\":90:94   */\n      0x1f\n        /* \"--CODEGEN--\":84:88   */\n      dup3\n        /* \"--CODEGEN--\":80:95   */\n      add\n        /* \"--CODEGEN--\":76:107   */\n      and\n        /* \"--CODEGEN--\":69:74   */\n      dup3\n        /* \"--CODEGEN--\":65:108   */\n      add\n        /* \"--CODEGEN--\":126:132   */\n      dup1\n        /* \"--CODEGEN--\":120:124   */\n      0x40\n        /* \"--CODEGEN--\":113:133   */\n      mstore\n        /* \"--CODEGEN--\":0:138   */\n      pop\n        /* \"@aragon/govern-contract-utils/contracts/acl/ACL.sol\":3029:3083  IACLOracle(anyRole).willPerform(_role, _sender, _data) */\n      dup2\n      add\n      swap1\n      tag_77\n      swap2\n      swap1\n      jump(tag_69)\n    tag_77:\n        /* \"@aragon/govern-contract-utils/contracts/acl/ACL.sol\":3025:3096  if (IACLOracle(anyRole).willPerform(_role, _sender, _data)) return true */\n      iszero\n      tag_78\n      jumpi\n        /* \"@aragon/govern-contract-utils/contracts/acl/ACL.sol\":3092:3096  true */\n      0x01\n        /* \"@aragon/govern-contract-utils/contracts/acl/ACL.sol\":3085:3096  return true */\n      swap3\n      pop\n      pop\n      pop\n      jump(tag_60)\n        /* \"@aragon/govern-contract-utils/contracts/acl/ACL.sol\":3025:3096  if (IACLOracle(anyRole).willPerform(_role, _sender, _data)) return true */\n    tag_78:\n        /* \"@aragon/govern-contract-utils/contracts/acl/ACL.sol\":3124:3129  false */\n      0x00\n        /* \"@aragon/govern-contract-utils/contracts/acl/ACL.sol\":3117:3129  return false */\n      swap3\n      pop\n      pop\n      pop\n        /* \"@aragon/govern-contract-utils/contracts/acl/ACL.sol\":2529:3136  function willPerform(bytes4 _role, address _sender, bytes memory _data) public returns (bool) {... */\n    tag_60:\n      swap4\n      swap3\n      pop\n      pop\n      pop\n      jump\t// out\n        /* \"@aragon/govern-contract-utils/contracts/acl/ACL.sol\":2091:2523  function bulk(ACLData.BulkItem[] memory items) public auth(ROOT_ROLE) {... */\n    tag_25:\n        /* \"@aragon/govern-contract-utils/contracts/acl/ACL.sol\":1123:1163  willPerform(_role, msg.sender, msg.data) */\n      0x40\n      dup1\n      mload\n      0x20\n        /* \"@aragon/govern-contract-utils/contracts/acl/ACL.sol\":1154:1162  msg.data */\n      calldatasize\n        /* \"@aragon/govern-contract-utils/contracts/acl/ACL.sol\":1123:1163  willPerform(_role, msg.sender, msg.data) */\n      0x1f\n      dup2\n      add\n      dup3\n      swap1\n      div\n      dup3\n      mul\n      dup4\n      add\n      dup3\n      add\n      swap1\n      swap4\n      mstore\n      dup3\n      dup3\n      mstore\n        /* \"@aragon/govern-contract-utils/contracts/acl/ACL.sol\":411:521  this.grant.selector... */\n      0x586df60400000000000000000000000000000000000000000000000000000000\n      swap3\n        /* \"@aragon/govern-contract-utils/contracts/acl/ACL.sol\":1123:1163  willPerform(_role, msg.sender, msg.data) */\n      tag_80\n      swap3\n        /* \"@aragon/govern-contract-utils/contracts/acl/ACL.sol\":411:521  this.grant.selector... */\n      dup5\n      swap3\n        /* \"@aragon/govern-contract-utils/contracts/acl/ACL.sol\":1142:1152  msg.sender */\n      caller\n      swap3\n      0x00\n      swap2\n        /* \"@aragon/govern-contract-utils/contracts/acl/ACL.sol\":1154:1162  msg.data */\n      dup2\n      swap1\n        /* \"@aragon/govern-contract-utils/contracts/acl/ACL.sol\":1123:1163  willPerform(_role, msg.sender, msg.data) */\n      dup5\n      add\n      dup4\n        /* \"@aragon/govern-contract-utils/contracts/acl/ACL.sol\":1154:1162  msg.data */\n      dup3\n      dup1\n      dup3\n        /* \"@aragon/govern-contract-utils/contracts/acl/ACL.sol\":1123:1163  willPerform(_role, msg.sender, msg.data) */\n      dup5\n        /* \"--CODEGEN--\":1:34   */\n      calldatacopy\n        /* \"--CODEGEN--\":99:100   */\n      0x00\n        /* \"--CODEGEN--\":81:97   */\n      swap3\n      add\n        /* \"--CODEGEN--\":74:101   */\n      swap2\n      swap1\n      swap2\n      mstore\n      pop\n        /* \"@aragon/govern-contract-utils/contracts/acl/ACL.sol\":1123:1134  willPerform */\n      tag_19\n      swap3\n      pop\n      pop\n      pop\n        /* \"@aragon/govern-contract-utils/contracts/acl/ACL.sol\":1123:1163  willPerform(_role, msg.sender, msg.data) */\n      jump\t// in\n    tag_80:\n        /* \"@aragon/govern-contract-utils/contracts/acl/ACL.sol\":1115:1177  require(willPerform(_role, msg.sender, msg.data), \"acl: auth\") */\n      tag_81\n      jumpi\n      mload(0x40)\n      0x08c379a000000000000000000000000000000000000000000000000000000000\n      dup2\n      mstore\n      0x04\n      add\n      tag_82\n      swap1\n      jump(tag_83)\n    tag_82:\n      mload(0x40)\n      dup1\n      swap2\n      sub\n      swap1\n      revert\n    tag_81:\n        /* \"@aragon/govern-contract-utils/contracts/acl/ACL.sol\":2176:2185  uint256 i */\n      0x00\n        /* \"@aragon/govern-contract-utils/contracts/acl/ACL.sol\":2171:2517  for (uint256 i = 0; i < items.length; i++) {... */\n    tag_85:\n        /* \"@aragon/govern-contract-utils/contracts/acl/ACL.sol\":2195:2200  items */\n      dup3\n        /* \"@aragon/govern-contract-utils/contracts/acl/ACL.sol\":2195:2207  items.length */\n      mload\n        /* \"@aragon/govern-contract-utils/contracts/acl/ACL.sol\":2191:2192  i */\n      dup2\n        /* \"@aragon/govern-contract-utils/contracts/acl/ACL.sol\":2191:2207  i < items.length */\n      lt\n        /* \"@aragon/govern-contract-utils/contracts/acl/ACL.sol\":2171:2517  for (uint256 i = 0; i < items.length; i++) {... */\n      iszero\n      tag_86\n      jumpi\n        /* \"@aragon/govern-contract-utils/contracts/acl/ACL.sol\":2228:2256  ACLData.BulkItem memory item */\n      tag_88\n      tag_89\n      jump\t// in\n    tag_88:\n        /* \"@aragon/govern-contract-utils/contracts/acl/ACL.sol\":2259:2264  items */\n      dup4\n        /* \"@aragon/govern-contract-utils/contracts/acl/ACL.sol\":2265:2266  i */\n      dup3\n        /* \"@aragon/govern-contract-utils/contracts/acl/ACL.sol\":2259:2267  items[i] */\n      dup2\n      mload\n      dup2\n      lt\n      tag_90\n      jumpi\n      invalid\n    tag_90:\n      0x20\n      mul\n      0x20\n      add\n      add\n      mload\n        /* \"@aragon/govern-contract-utils/contracts/acl/ACL.sol\":2228:2267  ACLData.BulkItem memory item = items[i] */\n      swap1\n      pop\n        /* \"@aragon/govern-contract-utils/contracts/acl/ACL.sol\":2297:2317  ACLData.BulkOp.Grant */\n      0x00\n        /* \"@aragon/govern-contract-utils/contracts/acl/ACL.sol\":2286:2317  item.op == ACLData.BulkOp.Grant */\n      0x02\n      dup2\n      gt\n      iszero\n      tag_91\n      jumpi\n      invalid\n    tag_91:\n        /* \"@aragon/govern-contract-utils/contracts/acl/ACL.sol\":2286:2293  item.op */\n      dup2\n      mload\n        /* \"@aragon/govern-contract-utils/contracts/acl/ACL.sol\":2286:2317  item.op == ACLData.BulkOp.Grant */\n      0x02\n      dup2\n      gt\n      iszero\n      tag_92\n      jumpi\n      invalid\n    tag_92:\n      eq\n        /* \"@aragon/govern-contract-utils/contracts/acl/ACL.sol\":2282:2506  if (item.op == ACLData.BulkOp.Grant) _grant(item.role, item.who);... */\n      iszero\n      tag_93\n      jumpi\n        /* \"@aragon/govern-contract-utils/contracts/acl/ACL.sol\":2319:2346  _grant(item.role, item.who) */\n      tag_94\n        /* \"@aragon/govern-contract-utils/contracts/acl/ACL.sol\":2326:2330  item */\n      dup2\n        /* \"@aragon/govern-contract-utils/contracts/acl/ACL.sol\":2326:2335  item.role */\n      0x20\n      add\n      mload\n        /* \"@aragon/govern-contract-utils/contracts/acl/ACL.sol\":2337:2341  item */\n      dup3\n        /* \"@aragon/govern-contract-utils/contracts/acl/ACL.sol\":2337:2345  item.who */\n      0x40\n      add\n      mload\n        /* \"@aragon/govern-contract-utils/contracts/acl/ACL.sol\":2319:2325  _grant */\n      tag_95\n        /* \"@aragon/govern-contract-utils/contracts/acl/ACL.sol\":2319:2346  _grant(item.role, item.who) */\n      jump\t// in\n    tag_94:\n        /* \"@aragon/govern-contract-utils/contracts/acl/ACL.sol\":2282:2506  if (item.op == ACLData.BulkOp.Grant) _grant(item.role, item.who);... */\n      jump(tag_106)\n    tag_93:\n        /* \"@aragon/govern-contract-utils/contracts/acl/ACL.sol\":2380:2401  ACLData.BulkOp.Revoke */\n      0x01\n        /* \"@aragon/govern-contract-utils/contracts/acl/ACL.sol\":2369:2376  item.op */\n      dup2\n      mload\n        /* \"@aragon/govern-contract-utils/contracts/acl/ACL.sol\":2369:2401  item.op == ACLData.BulkOp.Revoke */\n      0x02\n      dup2\n      gt\n      iszero\n      tag_98\n      jumpi\n      invalid\n    tag_98:\n      eq\n        /* \"@aragon/govern-contract-utils/contracts/acl/ACL.sol\":2365:2506  if (item.op == ACLData.BulkOp.Revoke) _revoke(item.role, item.who);... */\n      iszero\n      tag_99\n      jumpi\n        /* \"@aragon/govern-contract-utils/contracts/acl/ACL.sol\":2403:2431  _revoke(item.role, item.who) */\n      tag_94\n        /* \"@aragon/govern-contract-utils/contracts/acl/ACL.sol\":2411:2415  item */\n      dup2\n        /* \"@aragon/govern-contract-utils/contracts/acl/ACL.sol\":2411:2420  item.role */\n      0x20\n      add\n      mload\n        /* \"@aragon/govern-contract-utils/contracts/acl/ACL.sol\":2422:2426  item */\n      dup3\n        /* \"@aragon/govern-contract-utils/contracts/acl/ACL.sol\":2422:2430  item.who */\n      0x40\n      add\n      mload\n        /* \"@aragon/govern-contract-utils/contracts/acl/ACL.sol\":2403:2410  _revoke */\n      tag_101\n        /* \"@aragon/govern-contract-utils/contracts/acl/ACL.sol\":2403:2431  _revoke(item.role, item.who) */\n      jump\t// in\n        /* \"@aragon/govern-contract-utils/contracts/acl/ACL.sol\":2365:2506  if (item.op == ACLData.BulkOp.Revoke) _revoke(item.role, item.who);... */\n    tag_99:\n        /* \"@aragon/govern-contract-utils/contracts/acl/ACL.sol\":2465:2486  ACLData.BulkOp.Freeze */\n      0x02\n        /* \"@aragon/govern-contract-utils/contracts/acl/ACL.sol\":2454:2461  item.op */\n      dup2\n      mload\n        /* \"@aragon/govern-contract-utils/contracts/acl/ACL.sol\":2454:2486  item.op == ACLData.BulkOp.Freeze */\n      0x02\n      dup2\n      gt\n      iszero\n      tag_104\n      jumpi\n      invalid\n    tag_104:\n      eq\n        /* \"@aragon/govern-contract-utils/contracts/acl/ACL.sol\":2450:2506  if (item.op == ACLData.BulkOp.Freeze) _freeze(item.role) */\n      iszero\n      tag_106\n      jumpi\n        /* \"@aragon/govern-contract-utils/contracts/acl/ACL.sol\":2488:2506  _freeze(item.role) */\n      tag_106\n        /* \"@aragon/govern-contract-utils/contracts/acl/ACL.sol\":2496:2500  item */\n      dup2\n        /* \"@aragon/govern-contract-utils/contracts/acl/ACL.sol\":2496:2505  item.role */\n      0x20\n      add\n      mload\n        /* \"@aragon/govern-contract-utils/contracts/acl/ACL.sol\":2488:2495  _freeze */\n      tag_107\n        /* \"@aragon/govern-contract-utils/contracts/acl/ACL.sol\":2488:2506  _freeze(item.role) */\n      jump\t// in\n    tag_106:\n      pop\n        /* \"@aragon/govern-contract-utils/contracts/acl/ACL.sol\":2209:2212  i++ */\n      0x01\n      add\n        /* \"@aragon/govern-contract-utils/contracts/acl/ACL.sol\":2171:2517  for (uint256 i = 0; i < items.length; i++) {... */\n      jump(tag_85)\n    tag_86:\n      pop\n        /* \"@aragon/govern-contract-utils/contracts/acl/ACL.sol\":2091:2523  function bulk(ACLData.BulkItem[] memory items) public auth(ROOT_ROLE) {... */\n      pop\n      pop\n      jump\t// out\n        /* \"@aragon/govern-contract-utils/contracts/acl/ACL.sol\":3986:4109  function isFrozen(bytes4 _role) public view returns (bool) {... */\n    tag_29:\n        /* \"@aragon/govern-contract-utils/contracts/acl/ACL.sol\":4062:4074  roles[_role] */\n      0xffffffff00000000000000000000000000000000000000000000000000000000\n      and\n        /* \"@aragon/govern-contract-utils/contracts/acl/ACL.sol\":4039:4043  bool */\n      0x00\n        /* \"@aragon/govern-contract-utils/contracts/acl/ACL.sol\":4062:4074  roles[_role] */\n      swap1\n      dup2\n      mstore\n        /* \"@aragon/govern-contract-utils/contracts/acl/ACL.sol\":581:582  1 */\n      0x01\n        /* \"@aragon/govern-contract-utils/contracts/acl/ACL.sol\":4062:4074  roles[_role] */\n      0x20\n      dup2\n      dup2\n      mstore\n      0x40\n      dup1\n      dup5\n      keccak256\n        /* \"@aragon/govern-contract-utils/contracts/acl/ACL.sol\":4062:4087  roles[_role][FREEZE_FLAG] */\n      dup4\n      dup6\n      mstore\n      swap1\n      swap2\n      mstore\n      swap1\n      swap2\n      keccak256\n      sload\n        /* \"@aragon/govern-contract-utils/contracts/acl/ACL.sol\":4062:4102  roles[_role][FREEZE_FLAG] == FREEZE_FLAG */\n      0xffffffffffffffffffffffffffffffffffffffff\n        /* \"@aragon/govern-contract-utils/contracts/acl/ACL.sol\":4062:4087  roles[_role][FREEZE_FLAG] */\n      and\n        /* \"@aragon/govern-contract-utils/contracts/acl/ACL.sol\":4062:4102  roles[_role][FREEZE_FLAG] == FREEZE_FLAG */\n      eq\n      swap1\n        /* \"@aragon/govern-contract-utils/contracts/acl/ACL.sol\":3986:4109  function isFrozen(bytes4 _role) public view returns (bool) {... */\n      jump\t// out\n        /* \"@aragon/govern-contract-utils/contracts/acl/ACL.sol\":1887:1993  function revoke(bytes4 _role, address _who) external auth(ROOT_ROLE) {... */\n    tag_34:\n        /* \"@aragon/govern-contract-utils/contracts/acl/ACL.sol\":1123:1163  willPerform(_role, msg.sender, msg.data) */\n      0x40\n      dup1\n      mload\n      0x20\n        /* \"@aragon/govern-contract-utils/contracts/acl/ACL.sol\":1154:1162  msg.data */\n      calldatasize\n        /* \"@aragon/govern-contract-utils/contracts/acl/ACL.sol\":1123:1163  willPerform(_role, msg.sender, msg.data) */\n      0x1f\n      dup2\n      add\n      dup3\n      swap1\n      div\n      dup3\n      mul\n      dup4\n      add\n      dup3\n      add\n      swap1\n      swap4\n      mstore\n      dup3\n      dup3\n      mstore\n        /* \"@aragon/govern-contract-utils/contracts/acl/ACL.sol\":411:521  this.grant.selector... */\n      0x586df60400000000000000000000000000000000000000000000000000000000\n      swap3\n        /* \"@aragon/govern-contract-utils/contracts/acl/ACL.sol\":1123:1163  willPerform(_role, msg.sender, msg.data) */\n      tag_110\n      swap3\n        /* \"@aragon/govern-contract-utils/contracts/acl/ACL.sol\":411:521  this.grant.selector... */\n      dup5\n      swap3\n        /* \"@aragon/govern-contract-utils/contracts/acl/ACL.sol\":1142:1152  msg.sender */\n      caller\n      swap3\n      0x00\n      swap2\n        /* \"@aragon/govern-contract-utils/contracts/acl/ACL.sol\":1154:1162  msg.data */\n      dup2\n      swap1\n        /* \"@aragon/govern-contract-utils/contracts/acl/ACL.sol\":1123:1163  willPerform(_role, msg.sender, msg.data) */\n      dup5\n      add\n      dup4\n        /* \"@aragon/govern-contract-utils/contracts/acl/ACL.sol\":1154:1162  msg.data */\n      dup3\n      dup1\n      dup3\n        /* \"@aragon/govern-contract-utils/contracts/acl/ACL.sol\":1123:1163  willPerform(_role, msg.sender, msg.data) */\n      dup5\n        /* \"--CODEGEN--\":1:34   */\n      calldatacopy\n        /* \"--CODEGEN--\":99:100   */\n      0x00\n        /* \"--CODEGEN--\":81:97   */\n      swap3\n      add\n        /* \"--CODEGEN--\":74:101   */\n      swap2\n      swap1\n      swap2\n      mstore\n      pop\n        /* \"@aragon/govern-contract-utils/contracts/acl/ACL.sol\":1123:1134  willPerform */\n      tag_19\n      swap3\n      pop\n      pop\n      pop\n        /* \"@aragon/govern-contract-utils/contracts/acl/ACL.sol\":1123:1163  willPerform(_role, msg.sender, msg.data) */\n      jump\t// in\n    tag_110:\n        /* \"@aragon/govern-contract-utils/contracts/acl/ACL.sol\":1115:1177  require(willPerform(_role, msg.sender, msg.data), \"acl: auth\") */\n      tag_111\n      jumpi\n      mload(0x40)\n      0x08c379a000000000000000000000000000000000000000000000000000000000\n      dup2\n      mstore\n      0x04\n      add\n      tag_82\n      swap1\n      jump(tag_83)\n    tag_111:\n        /* \"@aragon/govern-contract-utils/contracts/acl/ACL.sol\":1966:1986  _revoke(_role, _who) */\n      tag_86\n        /* \"@aragon/govern-contract-utils/contracts/acl/ACL.sol\":1974:1979  _role */\n      dup4\n        /* \"@aragon/govern-contract-utils/contracts/acl/ACL.sol\":1981:1985  _who */\n      dup4\n        /* \"@aragon/govern-contract-utils/contracts/acl/ACL.sol\":1966:1973  _revoke */\n      tag_101\n        /* \"@aragon/govern-contract-utils/contracts/acl/ACL.sol\":1966:1986  _revoke(_role, _who) */\n      jump\t// in\n        /* \"@aragon/govern-contract-utils/contracts/acl/ACL.sol\":368:521  bytes4 public constant ROOT_ROLE =... */\n    tag_36:\n        /* \"@aragon/govern-contract-utils/contracts/acl/ACL.sol\":411:521  this.grant.selector... */\n      0x586df60400000000000000000000000000000000000000000000000000000000\n        /* \"@aragon/govern-contract-utils/contracts/acl/ACL.sol\":368:521  bytes4 public constant ROOT_ROLE =... */\n      dup2\n      jump\t// out\n        /* \"@aragon/govern-contract-utils/contracts/acl/ACL.sol\":759:820  mapping (bytes4 => mapping (address => address)) public roles */\n    tag_41:\n      0x01\n      0x20\n      swap1\n      dup2\n      mstore\n      0x00\n      swap3\n      dup4\n      mstore\n      0x40\n      dup1\n      dup5\n      keccak256\n      swap1\n      swap2\n      mstore\n      swap1\n      dup3\n      mstore\n      swap1\n      keccak256\n      sload\n      0xffffffffffffffffffffffffffffffffffffffff\n      and\n      dup2\n      jump\t// out\n        /* \"@aragon/govern-contract-utils/contracts/acl/ACL.sol\":1618:1722  function grant(bytes4 _role, address _who) external auth(ROOT_ROLE) {... */\n    tag_46:\n        /* \"@aragon/govern-contract-utils/contracts/acl/ACL.sol\":1123:1163  willPerform(_role, msg.sender, msg.data) */\n      0x40\n      dup1\n      mload\n      0x20\n        /* \"@aragon/govern-contract-utils/contracts/acl/ACL.sol\":1154:1162  msg.data */\n      calldatasize\n        /* \"@aragon/govern-contract-utils/contracts/acl/ACL.sol\":1123:1163  willPerform(_role, msg.sender, msg.data) */\n      0x1f\n      dup2\n      add\n      dup3\n      swap1\n      div\n      dup3\n      mul\n      dup4\n      add\n      dup3\n      add\n      swap1\n      swap4\n      mstore\n      dup3\n      dup3\n      mstore\n        /* \"@aragon/govern-contract-utils/contracts/acl/ACL.sol\":411:521  this.grant.selector... */\n      0x586df60400000000000000000000000000000000000000000000000000000000\n      swap3\n        /* \"@aragon/govern-contract-utils/contracts/acl/ACL.sol\":1123:1163  willPerform(_role, msg.sender, msg.data) */\n      tag_116\n      swap3\n        /* \"@aragon/govern-contract-utils/contracts/acl/ACL.sol\":411:521  this.grant.selector... */\n      dup5\n      swap3\n        /* \"@aragon/govern-contract-utils/contracts/acl/ACL.sol\":1142:1152  msg.sender */\n      caller\n      swap3\n      0x00\n      swap2\n        /* \"@aragon/govern-contract-utils/contracts/acl/ACL.sol\":1154:1162  msg.data */\n      dup2\n      swap1\n        /* \"@aragon/govern-contract-utils/contracts/acl/ACL.sol\":1123:1163  willPerform(_role, msg.sender, msg.data) */\n      dup5\n      add\n      dup4\n        /* \"@aragon/govern-contract-utils/contracts/acl/ACL.sol\":1154:1162  msg.data */\n      dup3\n      dup1\n      dup3\n        /* \"@aragon/govern-contract-utils/contracts/acl/ACL.sol\":1123:1163  willPerform(_role, msg.sender, msg.data) */\n      dup5\n        /* \"--CODEGEN--\":1:34   */\n      calldatacopy\n        /* \"--CODEGEN--\":99:100   */\n      0x00\n        /* \"--CODEGEN--\":81:97   */\n      swap3\n      add\n        /* \"--CODEGEN--\":74:101   */\n      swap2\n      swap1\n      swap2\n      mstore\n      pop\n        /* \"@aragon/govern-contract-utils/contracts/acl/ACL.sol\":1123:1134  willPerform */\n      tag_19\n      swap3\n      pop\n      pop\n      pop\n        /* \"@aragon/govern-contract-utils/contracts/acl/ACL.sol\":1123:1163  willPerform(_role, msg.sender, msg.data) */\n      jump\t// in\n    tag_116:\n        /* \"@aragon/govern-contract-utils/contracts/acl/ACL.sol\":1115:1177  require(willPerform(_role, msg.sender, msg.data), \"acl: auth\") */\n      tag_117\n      jumpi\n      mload(0x40)\n      0x08c379a000000000000000000000000000000000000000000000000000000000\n      dup2\n      mstore\n      0x04\n      add\n      tag_82\n      swap1\n      jump(tag_83)\n    tag_117:\n        /* \"@aragon/govern-contract-utils/contracts/acl/ACL.sol\":1696:1715  _grant(_role, _who) */\n      tag_86\n        /* \"@aragon/govern-contract-utils/contracts/acl/ACL.sol\":1703:1708  _role */\n      dup4\n        /* \"@aragon/govern-contract-utils/contracts/acl/ACL.sol\":1710:1714  _who */\n      dup4\n        /* \"@aragon/govern-contract-utils/contracts/acl/ACL.sol\":1696:1702  _grant */\n      tag_95\n        /* \"@aragon/govern-contract-utils/contracts/acl/ACL.sol\":1696:1715  _grant(_role, _who) */\n      jump\t// in\n        /* \"@aragon/govern-contract-utils/contracts/acl/ACL.sol\":1728:1881  function grantWithOracle(bytes4 _role, address _who, IACLOracle _oracle) external auth(ROOT_ROLE) {... */\n    tag_50:\n        /* \"@aragon/govern-contract-utils/contracts/acl/ACL.sol\":1123:1163  willPerform(_role, msg.sender, msg.data) */\n      0x40\n      dup1\n      mload\n      0x20\n        /* \"@aragon/govern-contract-utils/contracts/acl/ACL.sol\":1154:1162  msg.data */\n      calldatasize\n        /* \"@aragon/govern-contract-utils/contracts/acl/ACL.sol\":1123:1163  willPerform(_role, msg.sender, msg.data) */\n      0x1f\n      dup2\n      add\n      dup3\n      swap1\n      div\n      dup3\n      mul\n      dup4\n      add\n      dup3\n      add\n      swap1\n      swap4\n      mstore\n      dup3\n      dup3\n      mstore\n        /* \"@aragon/govern-contract-utils/contracts/acl/ACL.sol\":411:521  this.grant.selector... */\n      0x586df60400000000000000000000000000000000000000000000000000000000\n      swap3\n        /* \"@aragon/govern-contract-utils/contracts/acl/ACL.sol\":1123:1163  willPerform(_role, msg.sender, msg.data) */\n      tag_122\n      swap3\n        /* \"@aragon/govern-contract-utils/contracts/acl/ACL.sol\":411:521  this.grant.selector... */\n      dup5\n      swap3\n        /* \"@aragon/govern-contract-utils/contracts/acl/ACL.sol\":1142:1152  msg.sender */\n      caller\n      swap3\n      0x00\n      swap2\n        /* \"@aragon/govern-contract-utils/contracts/acl/ACL.sol\":1154:1162  msg.data */\n      dup2\n      swap1\n        /* \"@aragon/govern-contract-utils/contracts/acl/ACL.sol\":1123:1163  willPerform(_role, msg.sender, msg.data) */\n      dup5\n      add\n      dup4\n        /* \"@aragon/govern-contract-utils/contracts/acl/ACL.sol\":1154:1162  msg.data */\n      dup3\n      dup1\n      dup3\n        /* \"@aragon/govern-contract-utils/contracts/acl/ACL.sol\":1123:1163  willPerform(_role, msg.sender, msg.data) */\n      dup5\n        /* \"--CODEGEN--\":1:34   */\n      calldatacopy\n        /* \"--CODEGEN--\":99:100   */\n      0x00\n        /* \"--CODEGEN--\":81:97   */\n      swap3\n      add\n        /* \"--CODEGEN--\":74:101   */\n      swap2\n      swap1\n      swap2\n      mstore\n      pop\n        /* \"@aragon/govern-contract-utils/contracts/acl/ACL.sol\":1123:1134  willPerform */\n      tag_19\n      swap3\n      pop\n      pop\n      pop\n        /* \"@aragon/govern-contract-utils/contracts/acl/ACL.sol\":1123:1163  willPerform(_role, msg.sender, msg.data) */\n      jump\t// in\n    tag_122:\n        /* \"@aragon/govern-contract-utils/contracts/acl/ACL.sol\":1115:1177  require(willPerform(_role, msg.sender, msg.data), \"acl: auth\") */\n      tag_123\n      jumpi\n      mload(0x40)\n      0x08c379a000000000000000000000000000000000000000000000000000000000\n      dup2\n      mstore\n      0x04\n      add\n      tag_82\n      swap1\n      jump(tag_83)\n    tag_123:\n        /* \"@aragon/govern-contract-utils/contracts/acl/ACL.sol\":1836:1874  _grantWithOracle(_role, _who, _oracle) */\n      tag_126\n        /* \"@aragon/govern-contract-utils/contracts/acl/ACL.sol\":1853:1858  _role */\n      dup5\n        /* \"@aragon/govern-contract-utils/contracts/acl/ACL.sol\":1860:1864  _who */\n      dup5\n        /* \"@aragon/govern-contract-utils/contracts/acl/ACL.sol\":1866:1873  _oracle */\n      dup5\n        /* \"@aragon/govern-contract-utils/contracts/acl/ACL.sol\":1836:1852  _grantWithOracle */\n      tag_127\n        /* \"@aragon/govern-contract-utils/contracts/acl/ACL.sol\":1836:1874  _grantWithOracle(_role, _who, _oracle) */\n      jump\t// in\n    tag_126:\n        /* \"@aragon/govern-contract-utils/contracts/acl/ACL.sol\":1728:1881  function grantWithOracle(bytes4 _role, address _who, IACLOracle _oracle) external auth(ROOT_ROLE) {... */\n      pop\n      pop\n      pop\n      pop\n      jump\t// out\n        /* \"@aragon/govern-contract-utils/contracts/acl/ACL.sol\":1999:2085  function freeze(bytes4 _role) external auth(ROOT_ROLE) {... */\n    tag_53:\n        /* \"@aragon/govern-contract-utils/contracts/acl/ACL.sol\":1123:1163  willPerform(_role, msg.sender, msg.data) */\n      0x40\n      dup1\n      mload\n      0x20\n        /* \"@aragon/govern-contract-utils/contracts/acl/ACL.sol\":1154:1162  msg.data */\n      calldatasize\n        /* \"@aragon/govern-contract-utils/contracts/acl/ACL.sol\":1123:1163  willPerform(_role, msg.sender, msg.data) */\n      0x1f\n      dup2\n      add\n      dup3\n      swap1\n      div\n      dup3\n      mul\n      dup4\n      add\n      dup3\n      add\n      swap1\n      swap4\n      mstore\n      dup3\n      dup3\n      mstore\n        /* \"@aragon/govern-contract-utils/contracts/acl/ACL.sol\":411:521  this.grant.selector... */\n      0x586df60400000000000000000000000000000000000000000000000000000000\n      swap3\n        /* \"@aragon/govern-contract-utils/contracts/acl/ACL.sol\":1123:1163  willPerform(_role, msg.sender, msg.data) */\n      tag_129\n      swap3\n        /* \"@aragon/govern-contract-utils/contracts/acl/ACL.sol\":411:521  this.grant.selector... */\n      dup5\n      swap3\n        /* \"@aragon/govern-contract-utils/contracts/acl/ACL.sol\":1142:1152  msg.sender */\n      caller\n      swap3\n      0x00\n      swap2\n        /* \"@aragon/govern-contract-utils/contracts/acl/ACL.sol\":1154:1162  msg.data */\n      dup2\n      swap1\n        /* \"@aragon/govern-contract-utils/contracts/acl/ACL.sol\":1123:1163  willPerform(_role, msg.sender, msg.data) */\n      dup5\n      add\n      dup4\n        /* \"@aragon/govern-contract-utils/contracts/acl/ACL.sol\":1154:1162  msg.data */\n      dup3\n      dup1\n      dup3\n        /* \"@aragon/govern-contract-utils/contracts/acl/ACL.sol\":1123:1163  willPerform(_role, msg.sender, msg.data) */\n      dup5\n        /* \"--CODEGEN--\":1:34   */\n      calldatacopy\n        /* \"--CODEGEN--\":99:100   */\n      0x00\n        /* \"--CODEGEN--\":81:97   */\n      swap3\n      add\n        /* \"--CODEGEN--\":74:101   */\n      swap2\n      swap1\n      swap2\n      mstore\n      pop\n        /* \"@aragon/govern-contract-utils/contracts/acl/ACL.sol\":1123:1134  willPerform */\n      tag_19\n      swap3\n      pop\n      pop\n      pop\n        /* \"@aragon/govern-contract-utils/contracts/acl/ACL.sol\":1123:1163  willPerform(_role, msg.sender, msg.data) */\n      jump\t// in\n    tag_129:\n        /* \"@aragon/govern-contract-utils/contracts/acl/ACL.sol\":1115:1177  require(willPerform(_role, msg.sender, msg.data), \"acl: auth\") */\n      tag_130\n      jumpi\n      mload(0x40)\n      0x08c379a000000000000000000000000000000000000000000000000000000000\n      dup2\n      mstore\n      0x04\n      add\n      tag_82\n      swap1\n      jump(tag_83)\n    tag_130:\n        /* \"@aragon/govern-contract-utils/contracts/acl/ACL.sol\":2064:2078  _freeze(_role) */\n      tag_133\n        /* \"@aragon/govern-contract-utils/contracts/acl/ACL.sol\":2072:2077  _role */\n      dup3\n        /* \"@aragon/govern-contract-utils/contracts/acl/ACL.sol\":2064:2071  _freeze */\n      tag_107\n        /* \"@aragon/govern-contract-utils/contracts/acl/ACL.sol\":2064:2078  _freeze(_role) */\n      jump\t// in\n    tag_133:\n        /* \"@aragon/govern-contract-utils/contracts/acl/ACL.sol\":1999:2085  function freeze(bytes4 _role) external auth(ROOT_ROLE) {... */\n      pop\n      pop\n      jump\t// out\n        /* \"@aragon/govern-contract-utils/contracts/initializable/Initializable.sol\":96:141  mapping (string => uint256) public initBlocks */\n    tag_57:\n        /* \"--CODEGEN--\":22:36   */\n      dup1\n      mload\n        /* \"--CODEGEN--\":169:173   */\n      0x20\n        /* \"--CODEGEN--\":143:175   */\n      dup2\n      dup4\n      add\n      dup2\n      add\n        /* \"--CODEGEN--\":198:218   */\n      dup1\n      mload\n        /* \"@aragon/govern-contract-utils/contracts/initializable/Initializable.sol\":96:141  mapping (string => uint256) public initBlocks */\n      0x00\n        /* \"--CODEGEN--\":224:255   */\n      dup3\n      mstore\n        /* \"--CODEGEN--\":156:174   */\n      swap3\n      dup3\n      add\n        /* \"--CODEGEN--\":283:301   */\n      swap2\n      swap1\n      swap4\n      add\n        /* \"--CODEGEN--\":273:322   */\n      keccak256\n        /* \"--CODEGEN--\":328:360   */\n      swap2\n      mstore\n        /* \"@aragon/govern-contract-utils/contracts/initializable/Initializable.sol\":96:141  mapping (string => uint256) public initBlocks */\n      sload\n      dup2\n      jump\t// out\n        /* \"@aragon/govern-contract-utils/contracts/acl/ACL.sol\":3142:3265  function _grant(bytes4 _role, address _who) internal {... */\n    tag_95:\n        /* \"@aragon/govern-contract-utils/contracts/acl/ACL.sol\":3205:3258  _grantWithOracle(_role, _who, IACLOracle(ALLOW_FLAG)) */\n      tag_133\n        /* \"@aragon/govern-contract-utils/contracts/acl/ACL.sol\":3222:3227  _role */\n      dup3\n        /* \"@aragon/govern-contract-utils/contracts/acl/ACL.sol\":3229:3233  _who */\n      dup3\n        /* \"@aragon/govern-contract-utils/contracts/acl/ACL.sol\":746:747  2 */\n      0x02\n        /* \"@aragon/govern-contract-utils/contracts/acl/ACL.sol\":3205:3221  _grantWithOracle */\n      tag_127\n        /* \"@aragon/govern-contract-utils/contracts/acl/ACL.sol\":3205:3258  _grantWithOracle(_role, _who, IACLOracle(ALLOW_FLAG)) */\n      jump\t// in\n        /* \"@aragon/govern-contract-utils/contracts/acl/ACL.sol\":3586:3786  function _revoke(bytes4 _role, address _who) internal {... */\n    tag_101:\n        /* \"@aragon/govern-contract-utils/contracts/acl/ACL.sol\":3659:3674  isFrozen(_role) */\n      tag_137\n        /* \"@aragon/govern-contract-utils/contracts/acl/ACL.sol\":3668:3673  _role */\n      dup3\n        /* \"@aragon/govern-contract-utils/contracts/acl/ACL.sol\":3659:3667  isFrozen */\n      tag_29\n        /* \"@aragon/govern-contract-utils/contracts/acl/ACL.sol\":3659:3674  isFrozen(_role) */\n      jump\t// in\n    tag_137:\n        /* \"@aragon/govern-contract-utils/contracts/acl/ACL.sol\":3658:3674  !isFrozen(_role) */\n      iszero\n        /* \"@aragon/govern-contract-utils/contracts/acl/ACL.sol\":3650:3690  require(!isFrozen(_role), \"acl: frozen\") */\n      tag_138\n      jumpi\n      mload(0x40)\n      0x08c379a000000000000000000000000000000000000000000000000000000000\n      dup2\n      mstore\n      0x04\n      add\n      tag_82\n      swap1\n      jump(tag_140)\n    tag_138:\n        /* \"@aragon/govern-contract-utils/contracts/acl/ACL.sol\":3701:3713  roles[_role] */\n      0xffffffff00000000000000000000000000000000000000000000000000000000\n      dup3\n      and\n        /* \"@aragon/govern-contract-utils/contracts/acl/ACL.sol\":691:692  0 */\n      0x00\n        /* \"@aragon/govern-contract-utils/contracts/acl/ACL.sol\":3701:3713  roles[_role] */\n      dup2\n      dup2\n      mstore\n        /* \"@aragon/govern-contract-utils/contracts/acl/ACL.sol\":3701:3706  roles */\n      0x01\n        /* \"@aragon/govern-contract-utils/contracts/acl/ACL.sol\":3701:3713  roles[_role] */\n      0x20\n      swap1\n      dup2\n      mstore\n      0x40\n      dup1\n      dup4\n      keccak256\n        /* \"@aragon/govern-contract-utils/contracts/acl/ACL.sol\":3701:3719  roles[_role][_who] */\n      0xffffffffffffffffffffffffffffffffffffffff\n      dup7\n      and\n      dup1\n      dup6\n      mstore\n      swap3\n      mstore\n      dup1\n      dup4\n      keccak256\n        /* \"@aragon/govern-contract-utils/contracts/acl/ACL.sol\":3701:3732  roles[_role][_who] = UNSET_ROLE */\n      dup1\n      sload\n      0xffffffffffffffffffffffff0000000000000000000000000000000000000000\n      and\n      swap1\n      sstore\n        /* \"@aragon/govern-contract-utils/contracts/acl/ACL.sol\":3747:3779  Revoked(_role, msg.sender, _who) */\n      mload\n        /* \"@aragon/govern-contract-utils/contracts/acl/ACL.sol\":3701:3719  roles[_role][_who] */\n      swap1\n      swap3\n        /* \"@aragon/govern-contract-utils/contracts/acl/ACL.sol\":3762:3772  msg.sender */\n      caller\n      swap3\n        /* \"@aragon/govern-contract-utils/contracts/acl/ACL.sol\":3701:3713  roles[_role] */\n      swap1\n      swap2\n        /* \"@aragon/govern-contract-utils/contracts/acl/ACL.sol\":3747:3779  Revoked(_role, msg.sender, _who) */\n      0x682f2c466c1e9f6883eb72cbced01373e1cb18b05ae5c8bc04dc73d73e29f8cd\n      swap2\n        /* \"@aragon/govern-contract-utils/contracts/acl/ACL.sol\":691:692  0 */\n      swap1\n        /* \"@aragon/govern-contract-utils/contracts/acl/ACL.sol\":3747:3779  Revoked(_role, msg.sender, _who) */\n      log4\n        /* \"@aragon/govern-contract-utils/contracts/acl/ACL.sol\":3586:3786  function _revoke(bytes4 _role, address _who) internal {... */\n      pop\n      pop\n      jump\t// out\n        /* \"@aragon/govern-contract-utils/contracts/acl/ACL.sol\":3792:3980  function _freeze(bytes4 _role) internal {... */\n    tag_107:\n        /* \"@aragon/govern-contract-utils/contracts/acl/ACL.sol\":3851:3866  isFrozen(_role) */\n      tag_142\n        /* \"@aragon/govern-contract-utils/contracts/acl/ACL.sol\":3860:3865  _role */\n      dup2\n        /* \"@aragon/govern-contract-utils/contracts/acl/ACL.sol\":3851:3859  isFrozen */\n      tag_29\n        /* \"@aragon/govern-contract-utils/contracts/acl/ACL.sol\":3851:3866  isFrozen(_role) */\n      jump\t// in\n    tag_142:\n        /* \"@aragon/govern-contract-utils/contracts/acl/ACL.sol\":3850:3866  !isFrozen(_role) */\n      iszero\n        /* \"@aragon/govern-contract-utils/contracts/acl/ACL.sol\":3842:3882  require(!isFrozen(_role), \"acl: frozen\") */\n      tag_143\n      jumpi\n      mload(0x40)\n      0x08c379a000000000000000000000000000000000000000000000000000000000\n      dup2\n      mstore\n      0x04\n      add\n      tag_82\n      swap1\n      jump(tag_140)\n    tag_143:\n        /* \"@aragon/govern-contract-utils/contracts/acl/ACL.sol\":3893:3905  roles[_role] */\n      0xffffffff00000000000000000000000000000000000000000000000000000000\n      dup2\n      and\n      0x00\n      dup2\n      dup2\n      mstore\n        /* \"@aragon/govern-contract-utils/contracts/acl/ACL.sol\":581:582  1 */\n      0x01\n        /* \"@aragon/govern-contract-utils/contracts/acl/ACL.sol\":3893:3905  roles[_role] */\n      0x20\n      dup2\n      dup2\n      mstore\n      0x40\n      dup1\n      dup5\n      keccak256\n        /* \"@aragon/govern-contract-utils/contracts/acl/ACL.sol\":3893:3918  roles[_role][FREEZE_FLAG] */\n      dup4\n      dup6\n      mstore\n      swap1\n      swap2\n      mstore\n      dup1\n      dup4\n      keccak256\n        /* \"@aragon/govern-contract-utils/contracts/acl/ACL.sol\":3893:3932  roles[_role][FREEZE_FLAG] = FREEZE_FLAG */\n      dup1\n      sload\n      0xffffffffffffffffffffffff0000000000000000000000000000000000000000\n      and\n      swap1\n      swap3\n      or\n      swap1\n      swap2\n      sstore\n        /* \"@aragon/govern-contract-utils/contracts/acl/ACL.sol\":3948:3973  Frozen(_role, msg.sender) */\n      mload\n        /* \"@aragon/govern-contract-utils/contracts/acl/ACL.sol\":3962:3972  msg.sender */\n      caller\n      swap3\n        /* \"@aragon/govern-contract-utils/contracts/acl/ACL.sol\":3893:3905  roles[_role] */\n      swap2\n        /* \"@aragon/govern-contract-utils/contracts/acl/ACL.sol\":3948:3973  Frozen(_role, msg.sender) */\n      0x049c6b8b07a879425742523fa80f8ffb25e39ad518c93a5896a0df19518397e5\n      swap2\n      log3\n        /* \"@aragon/govern-contract-utils/contracts/acl/ACL.sol\":3792:3980  function _freeze(bytes4 _role) internal {... */\n      pop\n      jump\t// out\n        /* \"@aragon/govern-contract-utils/contracts/acl/ACL.sol\":3271:3580  function _grantWithOracle(bytes4 _role, address _who, IACLOracle _oracle) internal {... */\n    tag_127:\n        /* \"@aragon/govern-contract-utils/contracts/acl/ACL.sol\":3373:3388  isFrozen(_role) */\n      tag_146\n        /* \"@aragon/govern-contract-utils/contracts/acl/ACL.sol\":3382:3387  _role */\n      dup4\n        /* \"@aragon/govern-contract-utils/contracts/acl/ACL.sol\":3373:3381  isFrozen */\n      tag_29\n        /* \"@aragon/govern-contract-utils/contracts/acl/ACL.sol\":3373:3388  isFrozen(_role) */\n      jump\t// in\n    tag_146:\n        /* \"@aragon/govern-contract-utils/contracts/acl/ACL.sol\":3372:3388  !isFrozen(_role) */\n      iszero\n        /* \"@aragon/govern-contract-utils/contracts/acl/ACL.sol\":3364:3404  require(!isFrozen(_role), \"acl: frozen\") */\n      tag_147\n      jumpi\n      mload(0x40)\n      0x08c379a000000000000000000000000000000000000000000000000000000000\n      dup2\n      mstore\n      0x04\n      add\n      tag_82\n      swap1\n      jump(tag_140)\n    tag_147:\n        /* \"@aragon/govern-contract-utils/contracts/acl/ACL.sol\":3422:3441  _who != FREEZE_FLAG */\n      0xffffffffffffffffffffffffffffffffffffffff\n      dup3\n      and\n        /* \"@aragon/govern-contract-utils/contracts/acl/ACL.sol\":581:582  1 */\n      0x01\n        /* \"@aragon/govern-contract-utils/contracts/acl/ACL.sol\":3422:3441  _who != FREEZE_FLAG */\n      eq\n      iszero\n        /* \"@aragon/govern-contract-utils/contracts/acl/ACL.sol\":3414:3461  require(_who != FREEZE_FLAG, \"acl: bad freeze\") */\n      tag_149\n      jumpi\n      mload(0x40)\n      0x08c379a000000000000000000000000000000000000000000000000000000000\n      dup2\n      mstore\n      0x04\n      add\n      tag_82\n      swap1\n      jump(tag_151)\n    tag_149:\n        /* \"@aragon/govern-contract-utils/contracts/acl/ACL.sol\":3480:3492  roles[_role] */\n      0xffffffff00000000000000000000000000000000000000000000000000000000\n      dup4\n      and\n      0x00\n      dup2\n      dup2\n      mstore\n        /* \"@aragon/govern-contract-utils/contracts/acl/ACL.sol\":3480:3485  roles */\n      0x01\n        /* \"@aragon/govern-contract-utils/contracts/acl/ACL.sol\":3480:3492  roles[_role] */\n      0x20\n      swap1\n      dup2\n      mstore\n      0x40\n      dup1\n      dup4\n      keccak256\n        /* \"@aragon/govern-contract-utils/contracts/acl/ACL.sol\":3480:3498  roles[_role][_who] */\n      0xffffffffffffffffffffffffffffffffffffffff\n      dup8\n      dup2\n      and\n      dup1\n      dup7\n      mstore\n      swap2\n      swap1\n      swap4\n      mstore\n      swap3\n      dup2\n      swap1\n      keccak256\n        /* \"@aragon/govern-contract-utils/contracts/acl/ACL.sol\":3480:3517  roles[_role][_who] = address(_oracle) */\n      dup1\n      sload\n      0xffffffffffffffffffffffff0000000000000000000000000000000000000000\n      and\n      swap3\n      dup7\n      and\n      swap3\n      swap1\n      swap3\n      or\n      swap1\n      swap2\n      sstore\n        /* \"@aragon/govern-contract-utils/contracts/acl/ACL.sol\":3532:3573  Granted(_role, msg.sender, _who, _oracle) */\n      mload\n        /* \"@aragon/govern-contract-utils/contracts/acl/ACL.sol\":3480:3498  roles[_role][_who] */\n      swap1\n      swap2\n        /* \"@aragon/govern-contract-utils/contracts/acl/ACL.sol\":3547:3557  msg.sender */\n      caller\n      swap2\n        /* \"@aragon/govern-contract-utils/contracts/acl/ACL.sol\":3532:3573  Granted(_role, msg.sender, _who, _oracle) */\n      0xc62063b81f7036fd97a0dc546516e99f11004d2d76ca0fddd3866346c86e7091\n      swap1\n      tag_152\n      swap1\n        /* \"@aragon/govern-contract-utils/contracts/acl/ACL.sol\":3480:3517  roles[_role][_who] = address(_oracle) */\n      dup7\n      swap1\n        /* \"@aragon/govern-contract-utils/contracts/acl/ACL.sol\":3532:3573  Granted(_role, msg.sender, _who, _oracle) */\n      jump(tag_43)\n    tag_152:\n      mload(0x40)\n      dup1\n      swap2\n      sub\n      swap1\n      log4\n        /* \"@aragon/govern-contract-utils/contracts/acl/ACL.sol\":3271:3580  function _grantWithOracle(bytes4 _role, address _who, IACLOracle _oracle) internal {... */\n      pop\n      pop\n      pop\n      jump\t// out\n    tag_89:\n      0x40\n      dup1\n      mload\n      0x60\n      dup2\n      add\n      swap1\n      swap2\n      mstore\n      dup1\n      0x00\n      dup2\n      mstore\n      0x00\n      0x20\n      dup3\n      add\n      dup2\n      swap1\n      mstore\n      0x40\n      swap1\n      swap2\n      add\n      mstore\n      swap1\n      jump\t// out\n        /* \"--CODEGEN--\":1237:1677   */\n    tag_156:\n      0x00\n        /* \"--CODEGEN--\":1338:1341   */\n      dup3\n        /* \"--CODEGEN--\":1331:1335   */\n      0x1f\n        /* \"--CODEGEN--\":1323:1329   */\n      dup4\n        /* \"--CODEGEN--\":1319:1336   */\n      add\n        /* \"--CODEGEN--\":1315:1342   */\n      slt\n        /* \"--CODEGEN--\":1305:1307   */\n      tag_158\n      jumpi\n      dup1\n      dup2\n        /* \"--CODEGEN--\":1346:1358   */\n      revert\n        /* \"--CODEGEN--\":1305:1307   */\n    tag_158:\n        /* \"--CODEGEN--\":1393:1399   */\n      dup2\n        /* \"--CODEGEN--\":1380:1400   */\n      calldataload\n        /* \"--CODEGEN--\":11584:11602   */\n      0xffffffffffffffff\n        /* \"--CODEGEN--\":11576:11582   */\n      dup2\n        /* \"--CODEGEN--\":11573:11603   */\n      gt\n        /* \"--CODEGEN--\":11570:11572   */\n      iszero\n      tag_159\n      jumpi\n      dup2\n      dup3\n        /* \"--CODEGEN--\":11606:11618   */\n      revert\n        /* \"--CODEGEN--\":11570:11572   */\n    tag_159:\n        /* \"--CODEGEN--\":1415:1479   */\n      tag_160\n        /* \"--CODEGEN--\":11747:11751   */\n      0x20\n        /* \"--CODEGEN--\":11679:11688   */\n      0xffffffffffffffffffffffffffffffffffffffffffffffffffffffffffffffe0\n        /* \"--CODEGEN--\":1331:1335   */\n      0x1f\n        /* \"--CODEGEN--\":11664:11670   */\n      dup5\n        /* \"--CODEGEN--\":11660:11677   */\n      add\n        /* \"--CODEGEN--\":11656:11689   */\n      and\n        /* \"--CODEGEN--\":11737:11752   */\n      add\n        /* \"--CODEGEN--\":1415:1479   */\n      jump(tag_161)\n    tag_160:\n        /* \"--CODEGEN--\":1406:1479   */\n      swap2\n      pop\n        /* \"--CODEGEN--\":1499:1505   */\n      dup1\n        /* \"--CODEGEN--\":1492:1497   */\n      dup3\n        /* \"--CODEGEN--\":1485:1506   */\n      mstore\n        /* \"--CODEGEN--\":1603:1606   */\n      dup4\n        /* \"--CODEGEN--\":11747:11751   */\n      0x20\n        /* \"--CODEGEN--\":1594:1600   */\n      dup3\n        /* \"--CODEGEN--\":1527:1533   */\n      dup6\n        /* \"--CODEGEN--\":1585:1601   */\n      add\n      add\n        /* \"--CODEGEN--\":1582:1607   */\n      gt\n        /* \"--CODEGEN--\":1579:1581   */\n      iszero\n      tag_162\n      jumpi\n        /* \"--CODEGEN--\":1620:1621   */\n      0x00\n      dup1\n        /* \"--CODEGEN--\":1610:1622   */\n      revert\n        /* \"--CODEGEN--\":1579:1581   */\n    tag_162:\n        /* \"--CODEGEN--\":13616:13622   */\n      dup1\n        /* \"--CODEGEN--\":11747:11751   */\n      0x20\n        /* \"--CODEGEN--\":1527:1533   */\n      dup5\n        /* \"--CODEGEN--\":1523:1540   */\n      add\n        /* \"--CODEGEN--\":11747:11751   */\n      0x20\n        /* \"--CODEGEN--\":1561:1566   */\n      dup5\n        /* \"--CODEGEN--\":1557:1573   */\n      add\n        /* \"--CODEGEN--\":13593:13623   */\n      calldatacopy\n        /* \"--CODEGEN--\":13672:13673   */\n      0x00\n        /* \"--CODEGEN--\":13654:13670   */\n      swap1\n      dup3\n      add\n        /* \"--CODEGEN--\":11747:11751   */\n      0x20\n        /* \"--CODEGEN--\":13654:13670   */\n      add\n        /* \"--CODEGEN--\":13647:13674   */\n      mstore\n        /* \"--CODEGEN--\":1561:1566   */\n      swap3\n        /* \"--CODEGEN--\":1298:1677   */\n      swap2\n      pop\n      pop\n      jump\n        /* \"--CODEGEN--\":2498:3115   */\n    tag_163:\n      0x00\n        /* \"--CODEGEN--\":2612:2616   */\n      0x60\n        /* \"--CODEGEN--\":2600:2609   */\n      dup3\n        /* \"--CODEGEN--\":2595:2598   */\n      dup5\n        /* \"--CODEGEN--\":2591:2610   */\n      sub\n        /* \"--CODEGEN--\":2587:2617   */\n      slt\n        /* \"--CODEGEN--\":2584:2586   */\n      iszero\n      tag_165\n      jumpi\n      dup1\n      dup2\n        /* \"--CODEGEN--\":2620:2632   */\n      revert\n        /* \"--CODEGEN--\":2584:2586   */\n    tag_165:\n        /* \"--CODEGEN--\":2648:2668   */\n      tag_166\n        /* \"--CODEGEN--\":2612:2616   */\n      0x60\n        /* \"--CODEGEN--\":2648:2668   */\n      jump(tag_161)\n    tag_166:\n        /* \"--CODEGEN--\":2639:2668   */\n      swap1\n      pop\n        /* \"--CODEGEN--\":1950:1956   */\n      dup2\n        /* \"--CODEGEN--\":1937:1957   */\n      calldataload\n        /* \"--CODEGEN--\":14675:14676   */\n      0x03\n        /* \"--CODEGEN--\":14668:14673   */\n      dup2\n        /* \"--CODEGEN--\":14665:14677   */\n      lt\n        /* \"--CODEGEN--\":14655:14657   */\n      tag_167\n      jumpi\n      0x00\n      dup1\n        /* \"--CODEGEN--\":14681:14693   */\n      revert\n        /* \"--CODEGEN--\":14655:14657   */\n    tag_167:\n        /* \"--CODEGEN--\":2723:2808   */\n      dup2\n      mstore\n        /* \"--CODEGEN--\":2869:2871   */\n      0x20\n        /* \"--CODEGEN--\":2922:2944   */\n      dup3\n      add\n        /* \"--CODEGEN--\":1167:1187   */\n      calldataload\n        /* \"--CODEGEN--\":12831:12897   */\n      0xffffffff00000000000000000000000000000000000000000000000000000000\n        /* \"--CODEGEN--\":12820:12898   */\n      dup2\n      and\n        /* \"--CODEGEN--\":14370:14404   */\n      dup2\n      eq\n        /* \"--CODEGEN--\":14360:14362   */\n      tag_168\n      jumpi\n      0x00\n      dup1\n        /* \"--CODEGEN--\":14408:14420   */\n      revert\n        /* \"--CODEGEN--\":14360:14362   */\n    tag_168:\n        /* \"--CODEGEN--\":2869:2871   */\n      0x20\n        /* \"--CODEGEN--\":2884:2900   */\n      dup3\n      add\n        /* \"--CODEGEN--\":2877:2951   */\n      mstore\n        /* \"--CODEGEN--\":3011:3013   */\n      0x40\n        /* \"--CODEGEN--\":3065:3087   */\n      dup3\n      add\n        /* \"--CODEGEN--\":72:92   */\n      calldataload\n        /* \"--CODEGEN--\":97:130   */\n      tag_169\n        /* \"--CODEGEN--\":72:92   */\n      dup2\n        /* \"--CODEGEN--\":97:130   */\n      jump(tag_170)\n    tag_169:\n        /* \"--CODEGEN--\":3011:3013   */\n      0x40\n        /* \"--CODEGEN--\":3026:3042   */\n      dup3\n      add\n        /* \"--CODEGEN--\":3019:3094   */\n      mstore\n        /* \"--CODEGEN--\":3030:3035   */\n      swap3\n        /* \"--CODEGEN--\":2578:3115   */\n      swap2\n      pop\n      pop\n      jump\n        /* \"--CODEGEN--\":3122:3549   */\n    tag_24:\n      0x00\n        /* \"--CODEGEN--\":3276:3278   */\n      0x20\n      dup1\n        /* \"--CODEGEN--\":3264:3273   */\n      dup4\n        /* \"--CODEGEN--\":3255:3262   */\n      dup6\n        /* \"--CODEGEN--\":3251:3274   */\n      sub\n        /* \"--CODEGEN--\":3247:3279   */\n      slt\n        /* \"--CODEGEN--\":3244:3246   */\n      iszero\n      tag_172\n      jumpi\n      dup2\n      dup3\n        /* \"--CODEGEN--\":3282:3294   */\n      revert\n        /* \"--CODEGEN--\":3244:3246   */\n    tag_172:\n        /* \"--CODEGEN--\":3340:3357   */\n      dup3\n        /* \"--CODEGEN--\":3327:3358   */\n      calldataload\n        /* \"--CODEGEN--\":3378:3396   */\n      0xffffffffffffffff\n        /* \"--CODEGEN--\":3370:3376   */\n      dup2\n        /* \"--CODEGEN--\":3367:3397   */\n      gt\n        /* \"--CODEGEN--\":3364:3366   */\n      iszero\n      tag_173\n      jumpi\n      dup3\n      dup4\n        /* \"--CODEGEN--\":3400:3412   */\n      revert\n        /* \"--CODEGEN--\":3364:3366   */\n    tag_173:\n        /* \"--CODEGEN--\":3516:3522   */\n      dup1\n        /* \"--CODEGEN--\":3505:3514   */\n      dup5\n        /* \"--CODEGEN--\":3501:3523   */\n      add\n        /* \"--CODEGEN--\":318:321   */\n      dup6\n        /* \"--CODEGEN--\":311:315   */\n      0x1f\n        /* \"--CODEGEN--\":303:309   */\n      dup3\n        /* \"--CODEGEN--\":299:316   */\n      add\n        /* \"--CODEGEN--\":295:322   */\n      slt\n        /* \"--CODEGEN--\":285:287   */\n      tag_174\n      jumpi\n      dup4\n      dup5\n        /* \"--CODEGEN--\":326:338   */\n      revert\n        /* \"--CODEGEN--\":285:287   */\n    tag_174:\n        /* \"--CODEGEN--\":373:379   */\n      dup1\n        /* \"--CODEGEN--\":360:380   */\n      calldataload\n        /* \"--CODEGEN--\":346:380   */\n      swap2\n      pop\n        /* \"--CODEGEN--\":395:500   */\n      tag_175\n        /* \"--CODEGEN--\":410:499   */\n      tag_176\n        /* \"--CODEGEN--\":492:498   */\n      dup4\n        /* \"--CODEGEN--\":410:499   */\n      jump(tag_177)\n    tag_176:\n        /* \"--CODEGEN--\":395:500   */\n      jump(tag_161)\n    tag_175:\n        /* \"--CODEGEN--\":528:549   */\n      dup3\n      dup2\n      mstore\n        /* \"--CODEGEN--\":585:599   */\n      dup4\n      dup2\n      add\n      swap1\n        /* \"--CODEGEN--\":560:577   */\n      dup3\n      dup6\n      add\n        /* \"--CODEGEN--\":686:690   */\n      0x60\n        /* \"--CODEGEN--\":674:691   */\n      dup1\n      dup7\n      mul\n        /* \"--CODEGEN--\":665:692   */\n      dup6\n      add\n      dup8\n      add\n        /* \"--CODEGEN--\":662:698   */\n      dup11\n      lt\n        /* \"--CODEGEN--\":659:661   */\n      iszero\n      tag_178\n      jumpi\n      dup8\n      dup9\n        /* \"--CODEGEN--\":701:713   */\n      revert\n        /* \"--CODEGEN--\":659:661   */\n    tag_178:\n      dup8\n        /* \"--CODEGEN--\":727:737   */\n      swap5\n      pop\n        /* \"--CODEGEN--\":721:952   */\n    tag_179:\n        /* \"--CODEGEN--\":746:752   */\n      dup6\n        /* \"--CODEGEN--\":743:744   */\n      dup6\n        /* \"--CODEGEN--\":740:753   */\n      lt\n        /* \"--CODEGEN--\":721:952   */\n      iszero\n      tag_181\n      jumpi\n        /* \"--CODEGEN--\":826:888   */\n      tag_182\n        /* \"--CODEGEN--\":884:887   */\n      dup11\n        /* \"--CODEGEN--\":872:882   */\n      dup4\n        /* \"--CODEGEN--\":826:888   */\n      jump(tag_163)\n    tag_182:\n        /* \"--CODEGEN--\":814:889   */\n      dup5\n      mstore\n        /* \"--CODEGEN--\":768:769   */\n      0x01\n        /* \"--CODEGEN--\":761:770   */\n      swap5\n      swap1\n      swap5\n      add\n      swap4\n        /* \"--CODEGEN--\":903:917   */\n      swap3\n      dup7\n      add\n      swap3\n        /* \"--CODEGEN--\":931:945   */\n      swap1\n      dup2\n      add\n      swap1\n        /* \"--CODEGEN--\":721:952   */\n      jump(tag_179)\n    tag_181:\n      pop\n        /* \"--CODEGEN--\":3420:3533   */\n      swap1\n      swap9\n        /* \"--CODEGEN--\":3238:3549   */\n      swap8\n      pop\n      pop\n      pop\n      pop\n      pop\n      pop\n      pop\n      pop\n      jump\n        /* \"--CODEGEN--\":3556:3813   */\n    tag_69:\n      0x00\n        /* \"--CODEGEN--\":3668:3670   */\n      0x20\n        /* \"--CODEGEN--\":3656:3665   */\n      dup3\n        /* \"--CODEGEN--\":3647:3654   */\n      dup5\n        /* \"--CODEGEN--\":3643:3666   */\n      sub\n        /* \"--CODEGEN--\":3639:3671   */\n      slt\n        /* \"--CODEGEN--\":3636:3638   */\n      iszero\n      tag_184\n      jumpi\n      dup1\n      dup2\n        /* \"--CODEGEN--\":3674:3686   */\n      revert\n        /* \"--CODEGEN--\":3636:3638   */\n    tag_184:\n        /* \"--CODEGEN--\":1047:1053   */\n      dup2\n        /* \"--CODEGEN--\":1041:1054   */\n      mload\n        /* \"--CODEGEN--\":14275:14280   */\n      dup1\n        /* \"--CODEGEN--\":12733:12746   */\n      iszero\n        /* \"--CODEGEN--\":12726:12747   */\n      iszero\n        /* \"--CODEGEN--\":14253:14258   */\n      dup2\n        /* \"--CODEGEN--\":14250:14282   */\n      eq\n        /* \"--CODEGEN--\":14240:14242   */\n      tag_60\n      jumpi\n      dup2\n      dup3\n        /* \"--CODEGEN--\":14286:14298   */\n      revert\n        /* \"--CODEGEN--\":3820:4059   */\n    tag_28:\n      0x00\n        /* \"--CODEGEN--\":3923:3925   */\n      0x20\n        /* \"--CODEGEN--\":3911:3920   */\n      dup3\n        /* \"--CODEGEN--\":3902:3909   */\n      dup5\n        /* \"--CODEGEN--\":3898:3921   */\n      sub\n        /* \"--CODEGEN--\":3894:3926   */\n      slt\n        /* \"--CODEGEN--\":3891:3893   */\n      iszero\n      tag_187\n      jumpi\n      dup1\n      dup2\n        /* \"--CODEGEN--\":3929:3941   */\n      revert\n        /* \"--CODEGEN--\":3891:3893   */\n    tag_187:\n        /* \"--CODEGEN--\":1180:1186   */\n      dup2\n        /* \"--CODEGEN--\":1167:1187   */\n      calldataload\n        /* \"--CODEGEN--\":1192:1224   */\n      tag_60\n        /* \"--CODEGEN--\":1218:1223   */\n      dup2\n        /* \"--CODEGEN--\":1192:1224   */\n      jump(tag_189)\n        /* \"--CODEGEN--\":4066:4430   */\n    tag_33:\n      0x00\n      dup1\n        /* \"--CODEGEN--\":4186:4188   */\n      0x40\n        /* \"--CODEGEN--\":4174:4183   */\n      dup4\n        /* \"--CODEGEN--\":4165:4172   */\n      dup6\n        /* \"--CODEGEN--\":4161:4184   */\n      sub\n        /* \"--CODEGEN--\":4157:4189   */\n      slt\n        /* \"--CODEGEN--\":4154:4156   */\n      iszero\n      tag_191\n      jumpi\n      dup1\n      dup2\n        /* \"--CODEGEN--\":4192:4204   */\n      revert\n        /* \"--CODEGEN--\":4154:4156   */\n    tag_191:\n        /* \"--CODEGEN--\":1180:1186   */\n      dup3\n        /* \"--CODEGEN--\":1167:1187   */\n      calldataload\n        /* \"--CODEGEN--\":1192:1224   */\n      tag_192\n        /* \"--CODEGEN--\":1218:1223   */\n      dup2\n        /* \"--CODEGEN--\":1192:1224   */\n      jump(tag_189)\n    tag_192:\n        /* \"--CODEGEN--\":4244:4306   */\n      swap2\n      pop\n        /* \"--CODEGEN--\":4343:4345   */\n      0x20\n        /* \"--CODEGEN--\":4382:4404   */\n      dup4\n      add\n        /* \"--CODEGEN--\":72:92   */\n      calldataload\n        /* \"--CODEGEN--\":97:130   */\n      tag_193\n        /* \"--CODEGEN--\":72:92   */\n      dup2\n        /* \"--CODEGEN--\":97:130   */\n      jump(tag_170)\n    tag_193:\n        /* \"--CODEGEN--\":4351:4414   */\n      dup1\n      swap2\n      pop\n      pop\n        /* \"--CODEGEN--\":4148:4430   */\n      swap3\n      pop\n      swap3\n      swap1\n      pop\n      jump\n        /* \"--CODEGEN--\":4437:5030   */\n    tag_18:\n      0x00\n      dup1\n      0x00\n        /* \"--CODEGEN--\":4583:4585   */\n      0x60\n        /* \"--CODEGEN--\":4571:4580   */\n      dup5\n        /* \"--CODEGEN--\":4562:4569   */\n      dup7\n        /* \"--CODEGEN--\":4558:4581   */\n      sub\n        /* \"--CODEGEN--\":4554:4586   */\n      slt\n        /* \"--CODEGEN--\":4551:4553   */\n      iszero\n      tag_195\n      jumpi\n      dup1\n      dup2\n        /* \"--CODEGEN--\":4589:4601   */\n      revert\n        /* \"--CODEGEN--\":4551:4553   */\n    tag_195:\n        /* \"--CODEGEN--\":1180:1186   */\n      dup4\n        /* \"--CODEGEN--\":1167:1187   */\n      calldataload\n        /* \"--CODEGEN--\":1192:1224   */\n      tag_196\n        /* \"--CODEGEN--\":1218:1223   */\n      dup2\n        /* \"--CODEGEN--\":1192:1224   */\n      jump(tag_189)\n    tag_196:\n        /* \"--CODEGEN--\":4641:4703   */\n      swap3\n      pop\n        /* \"--CODEGEN--\":4740:4742   */\n      0x20\n        /* \"--CODEGEN--\":4779:4801   */\n      dup5\n      add\n        /* \"--CODEGEN--\":72:92   */\n      calldataload\n        /* \"--CODEGEN--\":97:130   */\n      tag_197\n        /* \"--CODEGEN--\":72:92   */\n      dup2\n        /* \"--CODEGEN--\":97:130   */\n      jump(tag_170)\n    tag_197:\n        /* \"--CODEGEN--\":4748:4811   */\n      swap2\n      pop\n        /* \"--CODEGEN--\":4876:4878   */\n      0x40\n        /* \"--CODEGEN--\":4861:4879   */\n      dup5\n      add\n        /* \"--CODEGEN--\":4848:4880   */\n      calldataload\n        /* \"--CODEGEN--\":4900:4918   */\n      0xffffffffffffffff\n        /* \"--CODEGEN--\":4889:4919   */\n      dup2\n      gt\n        /* \"--CODEGEN--\":4886:4888   */\n      iszero\n      tag_198\n      jumpi\n      dup2\n      dup3\n        /* \"--CODEGEN--\":4922:4934   */\n      revert\n        /* \"--CODEGEN--\":4886:4888   */\n    tag_198:\n        /* \"--CODEGEN--\":4952:5014   */\n      tag_199\n        /* \"--CODEGEN--\":5006:5013   */\n      dup7\n        /* \"--CODEGEN--\":4997:5003   */\n      dup3\n        /* \"--CODEGEN--\":4986:4995   */\n      dup8\n        /* \"--CODEGEN--\":4982:5004   */\n      add\n        /* \"--CODEGEN--\":4952:5014   */\n      jump(tag_156)\n    tag_199:\n        /* \"--CODEGEN--\":4942:5014   */\n      swap2\n      pop\n      pop\n        /* \"--CODEGEN--\":4545:5030   */\n      swap3\n      pop\n      swap3\n      pop\n      swap3\n      jump\n        /* \"--CODEGEN--\":5037:5564   */\n    tag_49:\n      0x00\n      dup1\n      0x00\n        /* \"--CODEGEN--\":5193:5195   */\n      0x60\n        /* \"--CODEGEN--\":5181:5190   */\n      dup5\n        /* \"--CODEGEN--\":5172:5179   */\n      dup7\n        /* \"--CODEGEN--\":5168:5191   */\n      sub\n        /* \"--CODEGEN--\":5164:5196   */\n      slt\n        /* \"--CODEGEN--\":5161:5163   */\n      iszero\n      tag_201\n      jumpi\n      dup3\n      dup4\n        /* \"--CODEGEN--\":5199:5211   */\n      revert\n        /* \"--CODEGEN--\":5161:5163   */\n    tag_201:\n        /* \"--CODEGEN--\":1180:1186   */\n      dup4\n        /* \"--CODEGEN--\":1167:1187   */\n      calldataload\n        /* \"--CODEGEN--\":1192:1224   */\n      tag_202\n        /* \"--CODEGEN--\":1218:1223   */\n      dup2\n        /* \"--CODEGEN--\":1192:1224   */\n      jump(tag_189)\n    tag_202:\n        /* \"--CODEGEN--\":5251:5313   */\n      swap3\n      pop\n        /* \"--CODEGEN--\":5350:5352   */\n      0x20\n        /* \"--CODEGEN--\":5389:5411   */\n      dup5\n      add\n        /* \"--CODEGEN--\":72:92   */\n      calldataload\n        /* \"--CODEGEN--\":97:130   */\n      tag_203\n        /* \"--CODEGEN--\":72:92   */\n      dup2\n        /* \"--CODEGEN--\":97:130   */\n      jump(tag_170)\n    tag_203:\n        /* \"--CODEGEN--\":5358:5421   */\n      swap2\n      pop\n        /* \"--CODEGEN--\":5458:5460   */\n      0x40\n        /* \"--CODEGEN--\":5516:5538   */\n      dup5\n      add\n        /* \"--CODEGEN--\":1771:1791   */\n      calldataload\n        /* \"--CODEGEN--\":1796:1848   */\n      tag_204\n        /* \"--CODEGEN--\":1771:1791   */\n      dup2\n        /* \"--CODEGEN--\":1796:1848   */\n      jump(tag_170)\n    tag_204:\n        /* \"--CODEGEN--\":5466:5548   */\n      dup1\n      swap2\n      pop\n      pop\n        /* \"--CODEGEN--\":5155:5564   */\n      swap3\n      pop\n      swap3\n      pop\n      swap3\n      jump\n        /* \"--CODEGEN--\":5571:5918   */\n    tag_56:\n      0x00\n        /* \"--CODEGEN--\":5685:5687   */\n      0x20\n        /* \"--CODEGEN--\":5673:5682   */\n      dup3\n        /* \"--CODEGEN--\":5664:5671   */\n      dup5\n        /* \"--CODEGEN--\":5660:5683   */\n      sub\n        /* \"--CODEGEN--\":5656:5688   */\n      slt\n        /* \"--CODEGEN--\":5653:5655   */\n      iszero\n      tag_206\n      jumpi\n      dup1\n      dup2\n        /* \"--CODEGEN--\":5691:5703   */\n      revert\n        /* \"--CODEGEN--\":5653:5655   */\n    tag_206:\n        /* \"--CODEGEN--\":5749:5766   */\n      dup2\n        /* \"--CODEGEN--\":5736:5767   */\n      calldataload\n        /* \"--CODEGEN--\":5787:5805   */\n      0xffffffffffffffff\n        /* \"--CODEGEN--\":5779:5785   */\n      dup2\n        /* \"--CODEGEN--\":5776:5806   */\n      gt\n        /* \"--CODEGEN--\":5773:5775   */\n      iszero\n      tag_207\n      jumpi\n      dup2\n      dup3\n        /* \"--CODEGEN--\":5809:5821   */\n      revert\n        /* \"--CODEGEN--\":5773:5775   */\n    tag_207:\n        /* \"--CODEGEN--\":5839:5902   */\n      tag_208\n        /* \"--CODEGEN--\":5894:5901   */\n      dup5\n        /* \"--CODEGEN--\":5885:5891   */\n      dup3\n        /* \"--CODEGEN--\":5874:5883   */\n      dup6\n        /* \"--CODEGEN--\":5870:5892   */\n      add\n        /* \"--CODEGEN--\":5839:5902   */\n      jump(tag_156)\n    tag_208:\n        /* \"--CODEGEN--\":5829:5902   */\n      swap5\n        /* \"--CODEGEN--\":5647:5918   */\n      swap4\n      pop\n      pop\n      pop\n      pop\n      jump\n        /* \"--CODEGEN--\":7875:8097   */\n    tag_43:\n        /* \"--CODEGEN--\":13100:13142   */\n      0xffffffffffffffffffffffffffffffffffffffff\n        /* \"--CODEGEN--\":13089:13143   */\n      swap2\n      swap1\n      swap2\n      and\n        /* \"--CODEGEN--\":5996:6033   */\n      dup2\n      mstore\n        /* \"--CODEGEN--\":8002:8004   */\n      0x20\n        /* \"--CODEGEN--\":7987:8005   */\n      add\n      swap1\n        /* \"--CODEGEN--\":7973:8097   */\n      jump\n        /* \"--CODEGEN--\":8104:8314   */\n    tag_21:\n        /* \"--CODEGEN--\":12733:12746   */\n      swap1\n      iszero\n        /* \"--CODEGEN--\":12726:12747   */\n      iszero\n        /* \"--CODEGEN--\":6110:6144   */\n      dup2\n      mstore\n        /* \"--CODEGEN--\":8225:8227   */\n      0x20\n        /* \"--CODEGEN--\":8210:8228   */\n      add\n      swap1\n        /* \"--CODEGEN--\":8196:8314   */\n      jump\n        /* \"--CODEGEN--\":8321:8539   */\n    tag_38:\n        /* \"--CODEGEN--\":12831:12897   */\n      0xffffffff00000000000000000000000000000000000000000000000000000000\n        /* \"--CODEGEN--\":12820:12898   */\n      swap2\n      swap1\n      swap2\n      and\n        /* \"--CODEGEN--\":6225:6261   */\n      dup2\n      mstore\n        /* \"--CODEGEN--\":8446:8448   */\n      0x20\n        /* \"--CODEGEN--\":8431:8449   */\n      add\n      swap1\n        /* \"--CODEGEN--\":8417:8539   */\n      jump\n        /* \"--CODEGEN--\":8546:9070   */\n    tag_64:\n      0x00\n        /* \"--CODEGEN--\":12831:12897   */\n      0xffffffff00000000000000000000000000000000000000000000000000000000\n        /* \"--CODEGEN--\":6254:6259   */\n      dup6\n        /* \"--CODEGEN--\":12820:12898   */\n      and\n        /* \"--CODEGEN--\":6232:6235   */\n      dup3\n        /* \"--CODEGEN--\":6225:6261   */\n      mstore\n        /* \"--CODEGEN--\":8907:8909   */\n      0x20\n        /* \"--CODEGEN--\":13100:13142   */\n      0xffffffffffffffffffffffffffffffffffffffff\n        /* \"--CODEGEN--\":12649:12654   */\n      dup6\n        /* \"--CODEGEN--\":13089:13143   */\n      and\n        /* \"--CODEGEN--\":8907:8909   */\n      dup2\n        /* \"--CODEGEN--\":8896:8905   */\n      dup5\n        /* \"--CODEGEN--\":8892:8910   */\n      add\n        /* \"--CODEGEN--\":5996:6033   */\n      mstore\n        /* \"--CODEGEN--\":8745:8747   */\n      0x60\n        /* \"--CODEGEN--\":8944:8946   */\n      0x40\n        /* \"--CODEGEN--\":8933:8942   */\n      dup5\n        /* \"--CODEGEN--\":8929:8947   */\n      add\n        /* \"--CODEGEN--\":8922:8970   */\n      mstore\n        /* \"--CODEGEN--\":6415:6420   */\n      dup4\n        /* \"--CODEGEN--\":12185:12197   */\n      mload\n        /* \"--CODEGEN--\":12341:12347   */\n      dup1\n        /* \"--CODEGEN--\":8745:8747   */\n      0x60\n        /* \"--CODEGEN--\":8734:8743   */\n      dup6\n        /* \"--CODEGEN--\":8730:8748   */\n      add\n        /* \"--CODEGEN--\":12329:12348   */\n      mstore\n      dup3\n        /* \"--CODEGEN--\":13761:13862   */\n    tag_213:\n        /* \"--CODEGEN--\":13775:13781   */\n      dup2\n        /* \"--CODEGEN--\":13772:13773   */\n      dup2\n        /* \"--CODEGEN--\":13769:13782   */\n      lt\n        /* \"--CODEGEN--\":13761:13862   */\n      iszero\n      tag_215\n      jumpi\n        /* \"--CODEGEN--\":13842:13853   */\n      dup6\n      dup2\n      add\n      dup4\n      add\n        /* \"--CODEGEN--\":13836:13854   */\n      mload\n        /* \"--CODEGEN--\":13823:13834   */\n      dup6\n      dup3\n      add\n        /* \"--CODEGEN--\":12369:12383   */\n      0x80\n        /* \"--CODEGEN--\":13823:13834   */\n      add\n        /* \"--CODEGEN--\":13816:13855   */\n      mstore\n        /* \"--CODEGEN--\":13790:13800   */\n      dup3\n      add\n        /* \"--CODEGEN--\":13761:13862   */\n      jump(tag_213)\n    tag_215:\n        /* \"--CODEGEN--\":13877:13883   */\n      dup2\n        /* \"--CODEGEN--\":13874:13875   */\n      dup2\n        /* \"--CODEGEN--\":13871:13884   */\n      gt\n        /* \"--CODEGEN--\":13868:13870   */\n      iszero\n      tag_216\n      jumpi\n      dup4\n        /* \"--CODEGEN--\":12369:12383   */\n      0x80\n        /* \"--CODEGEN--\":13933:13939   */\n      dup4\n        /* \"--CODEGEN--\":8734:8743   */\n      dup8\n        /* \"--CODEGEN--\":13924:13940   */\n      add\n      add\n        /* \"--CODEGEN--\":13917:13944   */\n      mstore\n        /* \"--CODEGEN--\":13868:13870   */\n    tag_216:\n      pop\n        /* \"--CODEGEN--\":14053:14055   */\n      0x1f\n        /* \"--CODEGEN--\":14033:14047   */\n      add\n        /* \"--CODEGEN--\":14049:14056   */\n      0xffffffffffffffffffffffffffffffffffffffffffffffffffffffffffffffe0\n        /* \"--CODEGEN--\":14029:14057   */\n      and\n        /* \"--CODEGEN--\":6572:6611   */\n      swap3\n      swap1\n      swap3\n      add\n        /* \"--CODEGEN--\":12369:12383   */\n      0x80\n        /* \"--CODEGEN--\":6572:6611   */\n      add\n      swap6\n        /* \"--CODEGEN--\":8716:9070   */\n      swap5\n      pop\n      pop\n      pop\n      pop\n      pop\n      jump\n        /* \"--CODEGEN--\":9344:9760   */\n    tag_83:\n        /* \"--CODEGEN--\":9544:9546   */\n      0x20\n        /* \"--CODEGEN--\":9558:9605   */\n      dup1\n      dup3\n      mstore\n        /* \"--CODEGEN--\":7019:7020   */\n      0x09\n        /* \"--CODEGEN--\":9529:9547   */\n      swap1\n      dup3\n      add\n        /* \"--CODEGEN--\":12329:12348   */\n      mstore\n        /* \"--CODEGEN--\":7054:7065   */\n      0x61636c3a20617574680000000000000000000000000000000000000000000000\n        /* \"--CODEGEN--\":12369:12383   */\n      0x40\n      dup3\n      add\n        /* \"--CODEGEN--\":7034:7066   */\n      mstore\n        /* \"--CODEGEN--\":7085:7097   */\n      0x60\n      add\n      swap1\n        /* \"--CODEGEN--\":9515:9760   */\n      jump\n        /* \"--CODEGEN--\":9767:10183   */\n    tag_140:\n        /* \"--CODEGEN--\":9967:9969   */\n      0x20\n        /* \"--CODEGEN--\":9981:10028   */\n      dup1\n      dup3\n      mstore\n        /* \"--CODEGEN--\":7336:7338   */\n      0x0b\n        /* \"--CODEGEN--\":9952:9970   */\n      swap1\n      dup3\n      add\n        /* \"--CODEGEN--\":12329:12348   */\n      mstore\n        /* \"--CODEGEN--\":7372:7385   */\n      0x61636c3a2066726f7a656e000000000000000000000000000000000000000000\n        /* \"--CODEGEN--\":12369:12383   */\n      0x40\n      dup3\n      add\n        /* \"--CODEGEN--\":7352:7386   */\n      mstore\n        /* \"--CODEGEN--\":7405:7417   */\n      0x60\n      add\n      swap1\n        /* \"--CODEGEN--\":9938:10183   */\n      jump\n        /* \"--CODEGEN--\":10190:10606   */\n    tag_151:\n        /* \"--CODEGEN--\":10390:10392   */\n      0x20\n        /* \"--CODEGEN--\":10404:10451   */\n      dup1\n      dup3\n      mstore\n        /* \"--CODEGEN--\":7656:7658   */\n      0x0f\n        /* \"--CODEGEN--\":10375:10393   */\n      swap1\n      dup3\n      add\n        /* \"--CODEGEN--\":12329:12348   */\n      mstore\n        /* \"--CODEGEN--\":7692:7709   */\n      0x61636c3a2062616420667265657a650000000000000000000000000000000000\n        /* \"--CODEGEN--\":12369:12383   */\n      0x40\n      dup3\n      add\n        /* \"--CODEGEN--\":7672:7710   */\n      mstore\n        /* \"--CODEGEN--\":7729:7741   */\n      0x60\n      add\n      swap1\n        /* \"--CODEGEN--\":10361:10606   */\n      jump\n        /* \"--CODEGEN--\":10613:10835   */\n    tag_59:\n        /* \"--CODEGEN--\":7826:7863   */\n      swap1\n      dup2\n      mstore\n        /* \"--CODEGEN--\":10740:10742   */\n      0x20\n        /* \"--CODEGEN--\":10725:10743   */\n      add\n      swap1\n        /* \"--CODEGEN--\":10711:10835   */\n      jump\n        /* \"--CODEGEN--\":10842:11098   */\n    tag_161:\n        /* \"--CODEGEN--\":10904:10906   */\n      0x40\n        /* \"--CODEGEN--\":10898:10907   */\n      mload\n        /* \"--CODEGEN--\":10930:10947   */\n      dup2\n      dup2\n      add\n        /* \"--CODEGEN--\":11005:11023   */\n      0xffffffffffffffff\n        /* \"--CODEGEN--\":10990:11024   */\n      dup2\n      gt\n        /* \"--CODEGEN--\":11026:11048   */\n      dup3\n      dup3\n      lt\n        /* \"--CODEGEN--\":10987:11049   */\n      or\n        /* \"--CODEGEN--\":10984:10986   */\n      iszero\n      tag_223\n      jumpi\n        /* \"--CODEGEN--\":11062:11063   */\n      0x00\n      dup1\n        /* \"--CODEGEN--\":11052:11064   */\n      revert\n        /* \"--CODEGEN--\":10984:10986   */\n    tag_223:\n        /* \"--CODEGEN--\":10904:10906   */\n      0x40\n        /* \"--CODEGEN--\":11071:11093   */\n      mstore\n        /* \"--CODEGEN--\":10882:11098   */\n      swap2\n      swap1\n      pop\n      jump\n        /* \"--CODEGEN--\":11105:11434   */\n    tag_177:\n      0x00\n        /* \"--CODEGEN--\":11289:11307   */\n      0xffffffffffffffff\n        /* \"--CODEGEN--\":11281:11287   */\n      dup3\n        /* \"--CODEGEN--\":11278:11308   */\n      gt\n        /* \"--CODEGEN--\":11275:11277   */\n      iszero\n      tag_225\n      jumpi\n      dup1\n      dup2\n        /* \"--CODEGEN--\":11311:11323   */\n      revert\n        /* \"--CODEGEN--\":11275:11277   */\n    tag_225:\n      pop\n        /* \"--CODEGEN--\":11356:11360   */\n      0x20\n        /* \"--CODEGEN--\":11344:11361   */\n      swap1\n      dup2\n      mul\n        /* \"--CODEGEN--\":11409:11424   */\n      add\n      swap1\n        /* \"--CODEGEN--\":11212:11434   */\n      jump\n        /* \"--CODEGEN--\":14070:14187   */\n    tag_170:\n        /* \"--CODEGEN--\":13100:13142   */\n      0xffffffffffffffffffffffffffffffffffffffff\n        /* \"--CODEGEN--\":14157:14162   */\n      dup2\n        /* \"--CODEGEN--\":13089:13143   */\n      and\n        /* \"--CODEGEN--\":14132:14137   */\n      dup2\n        /* \"--CODEGEN--\":14129:14164   */\n      eq\n        /* \"--CODEGEN--\":14119:14121   */\n      tag_227\n      jumpi\n        /* \"--CODEGEN--\":14178:14179   */\n      0x00\n      dup1\n        /* \"--CODEGEN--\":14168:14180   */\n      revert\n        /* \"--CODEGEN--\":14119:14121   */\n    tag_227:\n        /* \"--CODEGEN--\":14113:14187   */\n      pop\n      jump\n        /* \"--CODEGEN--\":14312:14427   */\n    tag_189:\n        /* \"--CODEGEN--\":12831:12897   */\n      0xffffffff00000000000000000000000000000000000000000000000000000000\n        /* \"--CODEGEN--\":14397:14402   */\n      dup2\n        /* \"--CODEGEN--\":12820:12898   */\n      and\n        /* \"--CODEGEN--\":14373:14378   */\n      dup2\n        /* \"--CODEGEN--\":14370:14404   */\n      eq\n        /* \"--CODEGEN--\":14360:14362   */\n      tag_227\n      jumpi\n        /* \"--CODEGEN--\":14418:14419   */\n      0x00\n      dup1\n        /* \"--CODEGEN--\":14408:14420   */\n      revert\n\n    auxdata: 0xa2646970667358221220e3b031bb98d07eb49a88537cb93fed93f0d731bca76f5c18b78f20ff9f5afd6964736f6c63430006080033\n}\n",
				"bytecode": {
					"linkReferences": {},
					"object": "60806040523480156200001157600080fd5b506040516200158c3803806200158c83398101604081905262000034916200029b565b806000604051620000459062000307565b90815260200160405180910390205460001415620000715762000071816001600160e01b036200007916565b5050620003ba565b604051806040016040528060038152602001621858db60ea1b815250600081604051620000a79190620002cb565b908152602001604051809103902054600014620000e15760405162461bcd60e51b8152600401620000d8906200034f565b60405180910390fd5b43600082604051620000f49190620002cb565b908152604051908190036020019020556200012063161b7d8160e21b836001600160e01b036200016416565b80604051620001309190620002cb565b604051908190038120907f7bc2a48a4a566e237a12186f19d985b0f76afc9d5290601edac19876253670c290600090a25050565b6200017b828260026001600160e01b036200017f16565b5050565b62000193836001600160e01b036200026916565b15620001b35760405162461bcd60e51b8152600401620000d8906200032a565b6001600160a01b03821660011415620001e05760405162461bcd60e51b8152600401620000d89062000391565b6001600160e01b0319831660008181526001602090815260408083206001600160a01b03878116808652919093529281902080546001600160a01b0319169286169290921790915551909133917fc62063b81f7036fd97a0dc546516e99f11004d2d76ca0fddd3866346c86e7091906200025c90869062000316565b60405180910390a4505050565b6001600160e01b0319166000908152600160208181526040808420838552909152909120546001600160a01b03161490565b600060208284031215620002ad578081fd5b81516001600160a01b0381168114620002c4578182fd5b9392505050565b60008251815b81811015620002ed5760208186018101518583015201620002d1565b81811115620002fc5782828501525b509190910192915050565b621858db60ea1b815260030190565b6001600160a01b0391909116815260200190565b6020808252600b908201526a30b1b61d10333937bd32b760a91b604082015260600190565b60208082526022908201527f696e697469616c697a61626c653a20616c726561647920696e697469616c697a604082015261195960f21b606082015260800190565b6020808252600f908201526e61636c3a2062616420667265657a6560881b604082015260600190565b6111c280620003ca6000396000f3fe608060405234801561001057600080fd5b50600436106100be5760003560e01c806396fc8abd11610076578063a21572271161005b578063a21572271461016f578063bdf9a72614610182578063cc1d4cab14610195576100be565b806396fc8abd1461013c578063a157a10d1461015c576100be565b8063495a9825116100a7578063495a98251461010157806358849734146101145780637e8c7f0814610127576100be565b8063097c8108146100c35780631c47671b146100ec575b600080fd5b6100d66100d1366004610e4e565b6101b5565b6040516100e39190610f54565b60405180910390f35b6100ff6100fa366004610d34565b610437565b005b6100d661010f366004610dfa565b610591565b6100ff610122366004610e16565b6105e8565b61012f61068b565b6040516100e39190610f5f565b61014f61014a366004610e16565b6106af565b6040516100e39190610f33565b6100ff61016a366004610e16565b6106e2565b6100ff61017d366004610eae565b610785565b6100ff610190366004610dfa565b61082f565b6101a86101a3366004610ef8565b6108d5565b6040516100e391906110e9565b7fffffffff000000000000000000000000000000000000000000000000000000008316600090815260016020908152604080832033845290915281205473ffffffffffffffffffffffffffffffffffffffff1680156102ee5773ffffffffffffffffffffffffffffffffffffffff811660021415610237576001915050610430565b6040517f097c810800000000000000000000000000000000000000000000000000000000815273ffffffffffffffffffffffffffffffffffffffff82169063097c81089061028d90889088908890600401610f8c565b602060405180830381600087803b1580156102a757600080fd5b505af11580156102bb573d6000803e3d6000fd5b505050506040513d601f19601f820116820180604052508101906102df9190610dda565b156102ee576001915050610430565b7fffffffff000000000000000000000000000000000000000000000000000000008516600090815260016020908152604080832073ffffffffffffffffffffffffffffffffffffffff8085529252909120541680156104295773ffffffffffffffffffffffffffffffffffffffff81166002141561037157600192505050610430565b6040517f097c810800000000000000000000000000000000000000000000000000000000815273ffffffffffffffffffffffffffffffffffffffff82169063097c8108906103c790899089908990600401610f8c565b602060405180830381600087803b1580156103e157600080fd5b505af11580156103f5573d6000803e3d6000fd5b505050506040513d601f19601f820116820180604052508101906104199190610dda565b1561042957600192505050610430565b6000925050505b9392505050565b60408051602036601f81018290048202830182019093528282527f586df604000000000000000000000000000000000000000000000000000000009261049a9284923392600091819084018382808284376000920191909152506101b592505050565b6104d9576040517f08c379a00000000000000000000000000000000000000000000000000000000081526004016104d090611044565b60405180910390fd5b60005b825181101561058c576104ed610c0c565b8382815181106104f957fe5b602002602001015190506000600281111561051057fe5b8151600281111561051d57fe5b141561053a57610535816020015182604001516108f2565b610583565b60018151600281111561054957fe5b141561056157610535816020015182604001516108fe565b60028151600281111561057057fe5b14156105835761058381602001516109e6565b506001016104dc565b505050565b7fffffffff000000000000000000000000000000000000000000000000000000001660009081526001602081815260408084208385529091529091205473ffffffffffffffffffffffffffffffffffffffff161490565b60408051602036601f81018290048202830182019093528282527f586df604000000000000000000000000000000000000000000000000000000009261064b9284923392600091819084018382808284376000920191909152506101b592505050565b610681576040517f08c379a00000000000000000000000000000000000000000000000000000000081526004016104d090611044565b61058c83836108fe565b7f586df6040000000000000000000000000000000000000000000000000000000081565b600160209081526000928352604080842090915290825290205473ffffffffffffffffffffffffffffffffffffffff1681565b60408051602036601f81018290048202830182019093528282527f586df60400000000000000000000000000000000000000000000000000000000926107459284923392600091819084018382808284376000920191909152506101b592505050565b61077b576040517f08c379a00000000000000000000000000000000000000000000000000000000081526004016104d090611044565b61058c83836108f2565b60408051602036601f81018290048202830182019093528282527f586df60400000000000000000000000000000000000000000000000000000000926107e89284923392600091819084018382808284376000920191909152506101b592505050565b61081e576040517f08c379a00000000000000000000000000000000000000000000000000000000081526004016104d090611044565b610829848484610ab7565b50505050565b60408051602036601f81018290048202830182019093528282527f586df60400000000000000000000000000000000000000000000000000000000926108929284923392600091819084018382808284376000920191909152506101b592505050565b6108c8576040517f08c379a00000000000000000000000000000000000000000000000000000000081526004016104d090611044565b6108d1826109e6565b5050565b805160208183018101805160008252928201919093012091525481565b6108d182826002610ab7565b61090782610591565b1561093e576040517f08c379a00000000000000000000000000000000000000000000000000000000081526004016104d09061107b565b7fffffffff000000000000000000000000000000000000000000000000000000008216600081815260016020908152604080832073ffffffffffffffffffffffffffffffffffffffff8616808552925280832080547fffffffffffffffffffffffff0000000000000000000000000000000000000000169055519092339290917f682f2c466c1e9f6883eb72cbced01373e1cb18b05ae5c8bc04dc73d73e29f8cd9190a45050565b6109ef81610591565b15610a26576040517f08c379a00000000000000000000000000000000000000000000000000000000081526004016104d09061107b565b7fffffffff000000000000000000000000000000000000000000000000000000008116600081815260016020818152604080842083855290915280832080547fffffffffffffffffffffffff000000000000000000000000000000000000000016909217909155513392917f049c6b8b07a879425742523fa80f8ffb25e39ad518c93a5896a0df19518397e591a350565b610ac083610591565b15610af7576040517f08c379a00000000000000000000000000000000000000000000000000000000081526004016104d09061107b565b73ffffffffffffffffffffffffffffffffffffffff821660011415610b48576040517f08c379a00000000000000000000000000000000000000000000000000000000081526004016104d0906110b2565b7fffffffff000000000000000000000000000000000000000000000000000000008316600081815260016020908152604080832073ffffffffffffffffffffffffffffffffffffffff878116808652919093529281902080547fffffffffffffffffffffffff0000000000000000000000000000000000000000169286169290921790915551909133917fc62063b81f7036fd97a0dc546516e99f11004d2d76ca0fddd3866346c86e709190610bff908690610f33565b60405180910390a4505050565b6040805160608101909152806000815260006020820181905260409091015290565b600082601f830112610c3e578081fd5b813567ffffffffffffffff811115610c54578182fd5b610c8560207fffffffffffffffffffffffffffffffffffffffffffffffffffffffffffffffe0601f840116016110f2565b9150808252836020828501011115610c9c57600080fd5b8060208401602084013760009082016020015292915050565b600060608284031215610cc6578081fd5b610cd060606110f2565b9050813560038110610ce157600080fd5b815260208201357fffffffff0000000000000000000000000000000000000000000000000000000081168114610d1657600080fd5b60208201526040820135610d2981611139565b604082015292915050565b60006020808385031215610d46578182fd5b823567ffffffffffffffff811115610d5c578283fd5b80840185601f820112610d6d578384fd5b80359150610d82610d7d83611119565b6110f2565b828152838101908285016060808602850187018a1015610da0578788fd5b8794505b85851015610dcc57610db68a83610cb5565b8452600194909401939286019290810190610da4565b509098975050505050505050565b600060208284031215610deb578081fd5b81518015158114610430578182fd5b600060208284031215610e0b578081fd5b81356104308161115e565b60008060408385031215610e28578081fd5b8235610e338161115e565b91506020830135610e4381611139565b809150509250929050565b600080600060608486031215610e62578081fd5b8335610e6d8161115e565b92506020840135610e7d81611139565b9150604084013567ffffffffffffffff811115610e98578182fd5b610ea486828701610c2e565b9150509250925092565b600080600060608486031215610ec2578283fd5b8335610ecd8161115e565b92506020840135610edd81611139565b91506040840135610eed81611139565b809150509250925092565b600060208284031215610f09578081fd5b813567ffffffffffffffff811115610f1f578182fd5b610f2b84828501610c2e565b949350505050565b73ffffffffffffffffffffffffffffffffffffffff91909116815260200190565b901515815260200190565b7fffffffff0000000000000000000000000000000000000000000000000000000091909116815260200190565b60007fffffffff0000000000000000000000000000000000000000000000000000000085168252602073ffffffffffffffffffffffffffffffffffffffff851681840152606060408401528351806060850152825b81811015610ffd57858101830151858201608001528201610fe1565b8181111561100e5783608083870101525b50601f017fffffffffffffffffffffffffffffffffffffffffffffffffffffffffffffffe0169290920160800195945050505050565b60208082526009908201527f61636c3a20617574680000000000000000000000000000000000000000000000604082015260600190565b6020808252600b908201527f61636c3a2066726f7a656e000000000000000000000000000000000000000000604082015260600190565b6020808252600f908201527f61636c3a2062616420667265657a650000000000000000000000000000000000604082015260600190565b90815260200190565b60405181810167ffffffffffffffff8111828210171561111157600080fd5b604052919050565b600067ffffffffffffffff82111561112f578081fd5b5060209081020190565b73ffffffffffffffffffffffffffffffffffffffff8116811461115b57600080fd5b50565b7fffffffff000000000000000000000000000000000000000000000000000000008116811461115b57600080fdfea2646970667358221220e3b031bb98d07eb49a88537cb93fed93f0d731bca76f5c18b78f20ff9f5afd6964736f6c63430006080033",
					"opcodes": "PUSH1 0x80 PUSH1 0x40 MSTORE CALLVALUE DUP1 ISZERO PUSH3 0x11 JUMPI PUSH1 0x0 DUP1 REVERT JUMPDEST POP PUSH1 0x40 MLOAD PUSH3 0x158C CODESIZE SUB DUP1 PUSH3 0x158C DUP4 CODECOPY DUP2 ADD PUSH1 0x40 DUP2 SWAP1 MSTORE PUSH3 0x34 SWAP2 PUSH3 0x29B JUMP JUMPDEST DUP1 PUSH1 0x0 PUSH1 0x40 MLOAD PUSH3 0x45 SWAP1 PUSH3 0x307 JUMP JUMPDEST SWAP1 DUP2 MSTORE PUSH1 0x20 ADD PUSH1 0x40 MLOAD DUP1 SWAP2 SUB SWAP1 KECCAK256 SLOAD PUSH1 0x0 EQ ISZERO PUSH3 0x71 JUMPI PUSH3 0x71 DUP2 PUSH1 0x1 PUSH1 0x1 PUSH1 0xE0 SHL SUB PUSH3 0x79 AND JUMP JUMPDEST POP POP PUSH3 0x3BA JUMP JUMPDEST PUSH1 0x40 MLOAD DUP1 PUSH1 0x40 ADD PUSH1 0x40 MSTORE DUP1 PUSH1 0x3 DUP2 MSTORE PUSH1 0x20 ADD PUSH3 0x1858DB PUSH1 0xEA SHL DUP2 MSTORE POP PUSH1 0x0 DUP2 PUSH1 0x40 MLOAD PUSH3 0xA7 SWAP2 SWAP1 PUSH3 0x2CB JUMP JUMPDEST SWAP1 DUP2 MSTORE PUSH1 0x20 ADD PUSH1 0x40 MLOAD DUP1 SWAP2 SUB SWAP1 KECCAK256 SLOAD PUSH1 0x0 EQ PUSH3 0xE1 JUMPI PUSH1 0x40 MLOAD PUSH3 0x461BCD PUSH1 0xE5 SHL DUP2 MSTORE PUSH1 0x4 ADD PUSH3 0xD8 SWAP1 PUSH3 0x34F JUMP JUMPDEST PUSH1 0x40 MLOAD DUP1 SWAP2 SUB SWAP1 REVERT JUMPDEST NUMBER PUSH1 0x0 DUP3 PUSH1 0x40 MLOAD PUSH3 0xF4 SWAP2 SWAP1 PUSH3 0x2CB JUMP JUMPDEST SWAP1 DUP2 MSTORE PUSH1 0x40 MLOAD SWAP1 DUP2 SWAP1 SUB PUSH1 0x20 ADD SWAP1 KECCAK256 SSTORE PUSH3 0x120 PUSH4 0x161B7D81 PUSH1 0xE2 SHL DUP4 PUSH1 0x1 PUSH1 0x1 PUSH1 0xE0 SHL SUB PUSH3 0x164 AND JUMP JUMPDEST DUP1 PUSH1 0x40 MLOAD PUSH3 0x130 SWAP2 SWAP1 PUSH3 0x2CB JUMP JUMPDEST PUSH1 0x40 MLOAD SWAP1 DUP2 SWAP1 SUB DUP2 KECCAK256 SWAP1 PUSH32 0x7BC2A48A4A566E237A12186F19D985B0F76AFC9D5290601EDAC19876253670C2 SWAP1 PUSH1 0x0 SWAP1 LOG2 POP POP JUMP JUMPDEST PUSH3 0x17B DUP3 DUP3 PUSH1 0x2 PUSH1 0x1 PUSH1 0x1 PUSH1 0xE0 SHL SUB PUSH3 0x17F AND JUMP JUMPDEST POP POP JUMP JUMPDEST PUSH3 0x193 DUP4 PUSH1 0x1 PUSH1 0x1 PUSH1 0xE0 SHL SUB PUSH3 0x269 AND JUMP JUMPDEST ISZERO PUSH3 0x1B3 JUMPI PUSH1 0x40 MLOAD PUSH3 0x461BCD PUSH1 0xE5 SHL DUP2 MSTORE PUSH1 0x4 ADD PUSH3 0xD8 SWAP1 PUSH3 0x32A JUMP JUMPDEST PUSH1 0x1 PUSH1 0x1 PUSH1 0xA0 SHL SUB DUP3 AND PUSH1 0x1 EQ ISZERO PUSH3 0x1E0 JUMPI PUSH1 0x40 MLOAD PUSH3 0x461BCD PUSH1 0xE5 SHL DUP2 MSTORE PUSH1 0x4 ADD PUSH3 0xD8 SWAP1 PUSH3 0x391 JUMP JUMPDEST PUSH1 0x1 PUSH1 0x1 PUSH1 0xE0 SHL SUB NOT DUP4 AND PUSH1 0x0 DUP2 DUP2 MSTORE PUSH1 0x1 PUSH1 0x20 SWAP1 DUP2 MSTORE PUSH1 0x40 DUP1 DUP4 KECCAK256 PUSH1 0x1 PUSH1 0x1 PUSH1 0xA0 SHL SUB DUP8 DUP2 AND DUP1 DUP7 MSTORE SWAP2 SWAP1 SWAP4 MSTORE SWAP3 DUP2 SWAP1 KECCAK256 DUP1 SLOAD PUSH1 0x1 PUSH1 0x1 PUSH1 0xA0 SHL SUB NOT AND SWAP3 DUP7 AND SWAP3 SWAP1 SWAP3 OR SWAP1 SWAP2 SSTORE MLOAD SWAP1 SWAP2 CALLER SWAP2 PUSH32 0xC62063B81F7036FD97A0DC546516E99F11004D2D76CA0FDDD3866346C86E7091 SWAP1 PUSH3 0x25C SWAP1 DUP7 SWAP1 PUSH3 0x316 JUMP JUMPDEST PUSH1 0x40 MLOAD DUP1 SWAP2 SUB SWAP1 LOG4 POP POP POP JUMP JUMPDEST PUSH1 0x1 PUSH1 0x1 PUSH1 0xE0 SHL SUB NOT AND PUSH1 0x0 SWAP1 DUP2 MSTORE PUSH1 0x1 PUSH1 0x20 DUP2 DUP2 MSTORE PUSH1 0x40 DUP1 DUP5 KECCAK256 DUP4 DUP6 MSTORE SWAP1 SWAP2 MSTORE SWAP1 SWAP2 KECCAK256 SLOAD PUSH1 0x1 PUSH1 0x1 PUSH1 0xA0 SHL SUB AND EQ SWAP1 JUMP JUMPDEST PUSH1 0x0 PUSH1 0x20 DUP3 DUP5 SUB SLT ISZERO PUSH3 0x2AD JUMPI DUP1 DUP2 REVERT JUMPDEST DUP2 MLOAD PUSH1 0x1 PUSH1 0x1 PUSH1 0xA0 SHL SUB DUP2 AND DUP2 EQ PUSH3 0x2C4 JUMPI DUP2 DUP3 REVERT JUMPDEST SWAP4 SWAP3 POP POP POP JUMP JUMPDEST PUSH1 0x0 DUP3 MLOAD DUP2 JUMPDEST DUP2 DUP2 LT ISZERO PUSH3 0x2ED JUMPI PUSH1 0x20 DUP2 DUP7 ADD DUP2 ADD MLOAD DUP6 DUP4 ADD MSTORE ADD PUSH3 0x2D1 JUMP JUMPDEST DUP2 DUP2 GT ISZERO PUSH3 0x2FC JUMPI DUP3 DUP3 DUP6 ADD MSTORE JUMPDEST POP SWAP2 SWAP1 SWAP2 ADD SWAP3 SWAP2 POP POP JUMP JUMPDEST PUSH3 0x1858DB PUSH1 0xEA SHL DUP2 MSTORE PUSH1 0x3 ADD SWAP1 JUMP JUMPDEST PUSH1 0x1 PUSH1 0x1 PUSH1 0xA0 SHL SUB SWAP2 SWAP1 SWAP2 AND DUP2 MSTORE PUSH1 0x20 ADD SWAP1 JUMP JUMPDEST PUSH1 0x20 DUP1 DUP3 MSTORE PUSH1 0xB SWAP1 DUP3 ADD MSTORE PUSH11 0x30B1B61D10333937BD32B7 PUSH1 0xA9 SHL PUSH1 0x40 DUP3 ADD MSTORE PUSH1 0x60 ADD SWAP1 JUMP JUMPDEST PUSH1 0x20 DUP1 DUP3 MSTORE PUSH1 0x22 SWAP1 DUP3 ADD MSTORE PUSH32 0x696E697469616C697A61626C653A20616C726561647920696E697469616C697A PUSH1 0x40 DUP3 ADD MSTORE PUSH2 0x1959 PUSH1 0xF2 SHL PUSH1 0x60 DUP3 ADD MSTORE PUSH1 0x80 ADD SWAP1 JUMP JUMPDEST PUSH1 0x20 DUP1 DUP3 MSTORE PUSH1 0xF SWAP1 DUP3 ADD MSTORE PUSH15 0x61636C3A2062616420667265657A65 PUSH1 0x88 SHL PUSH1 0x40 DUP3 ADD MSTORE PUSH1 0x60 ADD SWAP1 JUMP JUMPDEST PUSH2 0x11C2 DUP1 PUSH3 0x3CA PUSH1 0x0 CODECOPY PUSH1 0x0 RETURN INVALID PUSH1 0x80 PUSH1 0x40 MSTORE CALLVALUE DUP1 ISZERO PUSH2 0x10 JUMPI PUSH1 0x0 DUP1 REVERT JUMPDEST POP PUSH1 0x4 CALLDATASIZE LT PUSH2 0xBE JUMPI PUSH1 0x0 CALLDATALOAD PUSH1 0xE0 SHR DUP1 PUSH4 0x96FC8ABD GT PUSH2 0x76 JUMPI DUP1 PUSH4 0xA2157227 GT PUSH2 0x5B JUMPI DUP1 PUSH4 0xA2157227 EQ PUSH2 0x16F JUMPI DUP1 PUSH4 0xBDF9A726 EQ PUSH2 0x182 JUMPI DUP1 PUSH4 0xCC1D4CAB EQ PUSH2 0x195 JUMPI PUSH2 0xBE JUMP JUMPDEST DUP1 PUSH4 0x96FC8ABD EQ PUSH2 0x13C JUMPI DUP1 PUSH4 0xA157A10D EQ PUSH2 0x15C JUMPI PUSH2 0xBE JUMP JUMPDEST DUP1 PUSH4 0x495A9825 GT PUSH2 0xA7 JUMPI DUP1 PUSH4 0x495A9825 EQ PUSH2 0x101 JUMPI DUP1 PUSH4 0x58849734 EQ PUSH2 0x114 JUMPI DUP1 PUSH4 0x7E8C7F08 EQ PUSH2 0x127 JUMPI PUSH2 0xBE JUMP JUMPDEST DUP1 PUSH4 0x97C8108 EQ PUSH2 0xC3 JUMPI DUP1 PUSH4 0x1C47671B EQ PUSH2 0xEC JUMPI JUMPDEST PUSH1 0x0 DUP1 REVERT JUMPDEST PUSH2 0xD6 PUSH2 0xD1 CALLDATASIZE PUSH1 0x4 PUSH2 0xE4E JUMP JUMPDEST PUSH2 0x1B5 JUMP JUMPDEST PUSH1 0x40 MLOAD PUSH2 0xE3 SWAP2 SWAP1 PUSH2 0xF54 JUMP JUMPDEST PUSH1 0x40 MLOAD DUP1 SWAP2 SUB SWAP1 RETURN JUMPDEST PUSH2 0xFF PUSH2 0xFA CALLDATASIZE PUSH1 0x4 PUSH2 0xD34 JUMP JUMPDEST PUSH2 0x437 JUMP JUMPDEST STOP JUMPDEST PUSH2 0xD6 PUSH2 0x10F CALLDATASIZE PUSH1 0x4 PUSH2 0xDFA JUMP JUMPDEST PUSH2 0x591 JUMP JUMPDEST PUSH2 0xFF PUSH2 0x122 CALLDATASIZE PUSH1 0x4 PUSH2 0xE16 JUMP JUMPDEST PUSH2 0x5E8 JUMP JUMPDEST PUSH2 0x12F PUSH2 0x68B JUMP JUMPDEST PUSH1 0x40 MLOAD PUSH2 0xE3 SWAP2 SWAP1 PUSH2 0xF5F JUMP JUMPDEST PUSH2 0x14F PUSH2 0x14A CALLDATASIZE PUSH1 0x4 PUSH2 0xE16 JUMP JUMPDEST PUSH2 0x6AF JUMP JUMPDEST PUSH1 0x40 MLOAD PUSH2 0xE3 SWAP2 SWAP1 PUSH2 0xF33 JUMP JUMPDEST PUSH2 0xFF PUSH2 0x16A CALLDATASIZE PUSH1 0x4 PUSH2 0xE16 JUMP JUMPDEST PUSH2 0x6E2 JUMP JUMPDEST PUSH2 0xFF PUSH2 0x17D CALLDATASIZE PUSH1 0x4 PUSH2 0xEAE JUMP JUMPDEST PUSH2 0x785 JUMP JUMPDEST PUSH2 0xFF PUSH2 0x190 CALLDATASIZE PUSH1 0x4 PUSH2 0xDFA JUMP JUMPDEST PUSH2 0x82F JUMP JUMPDEST PUSH2 0x1A8 PUSH2 0x1A3 CALLDATASIZE PUSH1 0x4 PUSH2 0xEF8 JUMP JUMPDEST PUSH2 0x8D5 JUMP JUMPDEST PUSH1 0x40 MLOAD PUSH2 0xE3 SWAP2 SWAP1 PUSH2 0x10E9 JUMP JUMPDEST PUSH32 0xFFFFFFFF00000000000000000000000000000000000000000000000000000000 DUP4 AND PUSH1 0x0 SWAP1 DUP2 MSTORE PUSH1 0x1 PUSH1 0x20 SWAP1 DUP2 MSTORE PUSH1 0x40 DUP1 DUP4 KECCAK256 CALLER DUP5 MSTORE SWAP1 SWAP2 MSTORE DUP2 KECCAK256 SLOAD PUSH20 0xFFFFFFFFFFFFFFFFFFFFFFFFFFFFFFFFFFFFFFFF AND DUP1 ISZERO PUSH2 0x2EE JUMPI PUSH20 0xFFFFFFFFFFFFFFFFFFFFFFFFFFFFFFFFFFFFFFFF DUP2 AND PUSH1 0x2 EQ ISZERO PUSH2 0x237 JUMPI PUSH1 0x1 SWAP2 POP POP PUSH2 0x430 JUMP JUMPDEST PUSH1 0x40 MLOAD PUSH32 0x97C810800000000000000000000000000000000000000000000000000000000 DUP2 MSTORE PUSH20 0xFFFFFFFFFFFFFFFFFFFFFFFFFFFFFFFFFFFFFFFF DUP3 AND SWAP1 PUSH4 0x97C8108 SWAP1 PUSH2 0x28D SWAP1 DUP9 SWAP1 DUP9 SWAP1 DUP9 SWAP1 PUSH1 0x4 ADD PUSH2 0xF8C JUMP JUMPDEST PUSH1 0x20 PUSH1 0x40 MLOAD DUP1 DUP4 SUB DUP2 PUSH1 0x0 DUP8 DUP1 EXTCODESIZE ISZERO DUP1 ISZERO PUSH2 0x2A7 JUMPI PUSH1 0x0 DUP1 REVERT JUMPDEST POP GAS CALL ISZERO DUP1 ISZERO PUSH2 0x2BB JUMPI RETURNDATASIZE PUSH1 0x0 DUP1 RETURNDATACOPY RETURNDATASIZE PUSH1 0x0 REVERT JUMPDEST POP POP POP POP PUSH1 0x40 MLOAD RETURNDATASIZE PUSH1 0x1F NOT PUSH1 0x1F DUP3 ADD AND DUP3 ADD DUP1 PUSH1 0x40 MSTORE POP DUP2 ADD SWAP1 PUSH2 0x2DF SWAP2 SWAP1 PUSH2 0xDDA JUMP JUMPDEST ISZERO PUSH2 0x2EE JUMPI PUSH1 0x1 SWAP2 POP POP PUSH2 0x430 JUMP JUMPDEST PUSH32 0xFFFFFFFF00000000000000000000000000000000000000000000000000000000 DUP6 AND PUSH1 0x0 SWAP1 DUP2 MSTORE PUSH1 0x1 PUSH1 0x20 SWAP1 DUP2 MSTORE PUSH1 0x40 DUP1 DUP4 KECCAK256 PUSH20 0xFFFFFFFFFFFFFFFFFFFFFFFFFFFFFFFFFFFFFFFF DUP1 DUP6 MSTORE SWAP3 MSTORE SWAP1 SWAP2 KECCAK256 SLOAD AND DUP1 ISZERO PUSH2 0x429 JUMPI PUSH20 0xFFFFFFFFFFFFFFFFFFFFFFFFFFFFFFFFFFFFFFFF DUP2 AND PUSH1 0x2 EQ ISZERO PUSH2 0x371 JUMPI PUSH1 0x1 SWAP3 POP POP POP PUSH2 0x430 JUMP JUMPDEST PUSH1 0x40 MLOAD PUSH32 0x97C810800000000000000000000000000000000000000000000000000000000 DUP2 MSTORE PUSH20 0xFFFFFFFFFFFFFFFFFFFFFFFFFFFFFFFFFFFFFFFF DUP3 AND SWAP1 PUSH4 0x97C8108 SWAP1 PUSH2 0x3C7 SWAP1 DUP10 SWAP1 DUP10 SWAP1 DUP10 SWAP1 PUSH1 0x4 ADD PUSH2 0xF8C JUMP JUMPDEST PUSH1 0x20 PUSH1 0x40 MLOAD DUP1 DUP4 SUB DUP2 PUSH1 0x0 DUP8 DUP1 EXTCODESIZE ISZERO DUP1 ISZERO PUSH2 0x3E1 JUMPI PUSH1 0x0 DUP1 REVERT JUMPDEST POP GAS CALL ISZERO DUP1 ISZERO PUSH2 0x3F5 JUMPI RETURNDATASIZE PUSH1 0x0 DUP1 RETURNDATACOPY RETURNDATASIZE PUSH1 0x0 REVERT JUMPDEST POP POP POP POP PUSH1 0x40 MLOAD RETURNDATASIZE PUSH1 0x1F NOT PUSH1 0x1F DUP3 ADD AND DUP3 ADD DUP1 PUSH1 0x40 MSTORE POP DUP2 ADD SWAP1 PUSH2 0x419 SWAP2 SWAP1 PUSH2 0xDDA JUMP JUMPDEST ISZERO PUSH2 0x429 JUMPI PUSH1 0x1 SWAP3 POP POP POP PUSH2 0x430 JUMP JUMPDEST PUSH1 0x0 SWAP3 POP POP POP JUMPDEST SWAP4 SWAP3 POP POP POP JUMP JUMPDEST PUSH1 0x40 DUP1 MLOAD PUSH1 0x20 CALLDATASIZE PUSH1 0x1F DUP2 ADD DUP3 SWAP1 DIV DUP3 MUL DUP4 ADD DUP3 ADD SWAP1 SWAP4 MSTORE DUP3 DUP3 MSTORE PUSH32 0x586DF60400000000000000000000000000000000000000000000000000000000 SWAP3 PUSH2 0x49A SWAP3 DUP5 SWAP3 CALLER SWAP3 PUSH1 0x0 SWAP2 DUP2 SWAP1 DUP5 ADD DUP4 DUP3 DUP1 DUP3 DUP5 CALLDATACOPY PUSH1 0x0 SWAP3 ADD SWAP2 SWAP1 SWAP2 MSTORE POP PUSH2 0x1B5 SWAP3 POP POP POP JUMP JUMPDEST PUSH2 0x4D9 JUMPI PUSH1 0x40 MLOAD PUSH32 0x8C379A000000000000000000000000000000000000000000000000000000000 DUP2 MSTORE PUSH1 0x4 ADD PUSH2 0x4D0 SWAP1 PUSH2 0x1044 JUMP JUMPDEST PUSH1 0x40 MLOAD DUP1 SWAP2 SUB SWAP1 REVERT JUMPDEST PUSH1 0x0 JUMPDEST DUP3 MLOAD DUP2 LT ISZERO PUSH2 0x58C JUMPI PUSH2 0x4ED PUSH2 0xC0C JUMP JUMPDEST DUP4 DUP3 DUP2 MLOAD DUP2 LT PUSH2 0x4F9 JUMPI INVALID JUMPDEST PUSH1 0x20 MUL PUSH1 0x20 ADD ADD MLOAD SWAP1 POP PUSH1 0x0 PUSH1 0x2 DUP2 GT ISZERO PUSH2 0x510 JUMPI INVALID JUMPDEST DUP2 MLOAD PUSH1 0x2 DUP2 GT ISZERO PUSH2 0x51D JUMPI INVALID JUMPDEST EQ ISZERO PUSH2 0x53A JUMPI PUSH2 0x535 DUP2 PUSH1 0x20 ADD MLOAD DUP3 PUSH1 0x40 ADD MLOAD PUSH2 0x8F2 JUMP JUMPDEST PUSH2 0x583 JUMP JUMPDEST PUSH1 0x1 DUP2 MLOAD PUSH1 0x2 DUP2 GT ISZERO PUSH2 0x549 JUMPI INVALID JUMPDEST EQ ISZERO PUSH2 0x561 JUMPI PUSH2 0x535 DUP2 PUSH1 0x20 ADD MLOAD DUP3 PUSH1 0x40 ADD MLOAD PUSH2 0x8FE JUMP JUMPDEST PUSH1 0x2 DUP2 MLOAD PUSH1 0x2 DUP2 GT ISZERO PUSH2 0x570 JUMPI INVALID JUMPDEST EQ ISZERO PUSH2 0x583 JUMPI PUSH2 0x583 DUP2 PUSH1 0x20 ADD MLOAD PUSH2 0x9E6 JUMP JUMPDEST POP PUSH1 0x1 ADD PUSH2 0x4DC JUMP JUMPDEST POP POP POP JUMP JUMPDEST PUSH32 0xFFFFFFFF00000000000000000000000000000000000000000000000000000000 AND PUSH1 0x0 SWAP1 DUP2 MSTORE PUSH1 0x1 PUSH1 0x20 DUP2 DUP2 MSTORE PUSH1 0x40 DUP1 DUP5 KECCAK256 DUP4 DUP6 MSTORE SWAP1 SWAP2 MSTORE SWAP1 SWAP2 KECCAK256 SLOAD PUSH20 0xFFFFFFFFFFFFFFFFFFFFFFFFFFFFFFFFFFFFFFFF AND EQ SWAP1 JUMP JUMPDEST PUSH1 0x40 DUP1 MLOAD PUSH1 0x20 CALLDATASIZE PUSH1 0x1F DUP2 ADD DUP3 SWAP1 DIV DUP3 MUL DUP4 ADD DUP3 ADD SWAP1 SWAP4 MSTORE DUP3 DUP3 MSTORE PUSH32 0x586DF60400000000000000000000000000000000000000000000000000000000 SWAP3 PUSH2 0x64B SWAP3 DUP5 SWAP3 CALLER SWAP3 PUSH1 0x0 SWAP2 DUP2 SWAP1 DUP5 ADD DUP4 DUP3 DUP1 DUP3 DUP5 CALLDATACOPY PUSH1 0x0 SWAP3 ADD SWAP2 SWAP1 SWAP2 MSTORE POP PUSH2 0x1B5 SWAP3 POP POP POP JUMP JUMPDEST PUSH2 0x681 JUMPI PUSH1 0x40 MLOAD PUSH32 0x8C379A000000000000000000000000000000000000000000000000000000000 DUP2 MSTORE PUSH1 0x4 ADD PUSH2 0x4D0 SWAP1 PUSH2 0x1044 JUMP JUMPDEST PUSH2 0x58C DUP4 DUP4 PUSH2 0x8FE JUMP JUMPDEST PUSH32 0x586DF60400000000000000000000000000000000000000000000000000000000 DUP2 JUMP JUMPDEST PUSH1 0x1 PUSH1 0x20 SWAP1 DUP2 MSTORE PUSH1 0x0 SWAP3 DUP4 MSTORE PUSH1 0x40 DUP1 DUP5 KECCAK256 SWAP1 SWAP2 MSTORE SWAP1 DUP3 MSTORE SWAP1 KECCAK256 SLOAD PUSH20 0xFFFFFFFFFFFFFFFFFFFFFFFFFFFFFFFFFFFFFFFF AND DUP2 JUMP JUMPDEST PUSH1 0x40 DUP1 MLOAD PUSH1 0x20 CALLDATASIZE PUSH1 0x1F DUP2 ADD DUP3 SWAP1 DIV DUP3 MUL DUP4 ADD DUP3 ADD SWAP1 SWAP4 MSTORE DUP3 DUP3 MSTORE PUSH32 0x586DF60400000000000000000000000000000000000000000000000000000000 SWAP3 PUSH2 0x745 SWAP3 DUP5 SWAP3 CALLER SWAP3 PUSH1 0x0 SWAP2 DUP2 SWAP1 DUP5 ADD DUP4 DUP3 DUP1 DUP3 DUP5 CALLDATACOPY PUSH1 0x0 SWAP3 ADD SWAP2 SWAP1 SWAP2 MSTORE POP PUSH2 0x1B5 SWAP3 POP POP POP JUMP JUMPDEST PUSH2 0x77B JUMPI PUSH1 0x40 MLOAD PUSH32 0x8C379A000000000000000000000000000000000000000000000000000000000 DUP2 MSTORE PUSH1 0x4 ADD PUSH2 0x4D0 SWAP1 PUSH2 0x1044 JUMP JUMPDEST PUSH2 0x58C DUP4 DUP4 PUSH2 0x8F2 JUMP JUMPDEST PUSH1 0x40 DUP1 MLOAD PUSH1 0x20 CALLDATASIZE PUSH1 0x1F DUP2 ADD DUP3 SWAP1 DIV DUP3 MUL DUP4 ADD DUP3 ADD SWAP1 SWAP4 MSTORE DUP3 DUP3 MSTORE PUSH32 0x586DF60400000000000000000000000000000000000000000000000000000000 SWAP3 PUSH2 0x7E8 SWAP3 DUP5 SWAP3 CALLER SWAP3 PUSH1 0x0 SWAP2 DUP2 SWAP1 DUP5 ADD DUP4 DUP3 DUP1 DUP3 DUP5 CALLDATACOPY PUSH1 0x0 SWAP3 ADD SWAP2 SWAP1 SWAP2 MSTORE POP PUSH2 0x1B5 SWAP3 POP POP POP JUMP JUMPDEST PUSH2 0x81E JUMPI PUSH1 0x40 MLOAD PUSH32 0x8C379A000000000000000000000000000000000000000000000000000000000 DUP2 MSTORE PUSH1 0x4 ADD PUSH2 0x4D0 SWAP1 PUSH2 0x1044 JUMP JUMPDEST PUSH2 0x829 DUP5 DUP5 DUP5 PUSH2 0xAB7 JUMP JUMPDEST POP POP POP POP JUMP JUMPDEST PUSH1 0x40 DUP1 MLOAD PUSH1 0x20 CALLDATASIZE PUSH1 0x1F DUP2 ADD DUP3 SWAP1 DIV DUP3 MUL DUP4 ADD DUP3 ADD SWAP1 SWAP4 MSTORE DUP3 DUP3 MSTORE PUSH32 0x586DF60400000000000000000000000000000000000000000000000000000000 SWAP3 PUSH2 0x892 SWAP3 DUP5 SWAP3 CALLER SWAP3 PUSH1 0x0 SWAP2 DUP2 SWAP1 DUP5 ADD DUP4 DUP3 DUP1 DUP3 DUP5 CALLDATACOPY PUSH1 0x0 SWAP3 ADD SWAP2 SWAP1 SWAP2 MSTORE POP PUSH2 0x1B5 SWAP3 POP POP POP JUMP JUMPDEST PUSH2 0x8C8 JUMPI PUSH1 0x40 MLOAD PUSH32 0x8C379A000000000000000000000000000000000000000000000000000000000 DUP2 MSTORE PUSH1 0x4 ADD PUSH2 0x4D0 SWAP1 PUSH2 0x1044 JUMP JUMPDEST PUSH2 0x8D1 DUP3 PUSH2 0x9E6 JUMP JUMPDEST POP POP JUMP JUMPDEST DUP1 MLOAD PUSH1 0x20 DUP2 DUP4 ADD DUP2 ADD DUP1 MLOAD PUSH1 0x0 DUP3 MSTORE SWAP3 DUP3 ADD SWAP2 SWAP1 SWAP4 ADD KECCAK256 SWAP2 MSTORE SLOAD DUP2 JUMP JUMPDEST PUSH2 0x8D1 DUP3 DUP3 PUSH1 0x2 PUSH2 0xAB7 JUMP JUMPDEST PUSH2 0x907 DUP3 PUSH2 0x591 JUMP JUMPDEST ISZERO PUSH2 0x93E JUMPI PUSH1 0x40 MLOAD PUSH32 0x8C379A000000000000000000000000000000000000000000000000000000000 DUP2 MSTORE PUSH1 0x4 ADD PUSH2 0x4D0 SWAP1 PUSH2 0x107B JUMP JUMPDEST PUSH32 0xFFFFFFFF00000000000000000000000000000000000000000000000000000000 DUP3 AND PUSH1 0x0 DUP2 DUP2 MSTORE PUSH1 0x1 PUSH1 0x20 SWAP1 DUP2 MSTORE PUSH1 0x40 DUP1 DUP4 KECCAK256 PUSH20 0xFFFFFFFFFFFFFFFFFFFFFFFFFFFFFFFFFFFFFFFF DUP7 AND DUP1 DUP6 MSTORE SWAP3 MSTORE DUP1 DUP4 KECCAK256 DUP1 SLOAD PUSH32 0xFFFFFFFFFFFFFFFFFFFFFFFF0000000000000000000000000000000000000000 AND SWAP1 SSTORE MLOAD SWAP1 SWAP3 CALLER SWAP3 SWAP1 SWAP2 PUSH32 0x682F2C466C1E9F6883EB72CBCED01373E1CB18B05AE5C8BC04DC73D73E29F8CD SWAP2 SWAP1 LOG4 POP POP JUMP JUMPDEST PUSH2 0x9EF DUP2 PUSH2 0x591 JUMP JUMPDEST ISZERO PUSH2 0xA26 JUMPI PUSH1 0x40 MLOAD PUSH32 0x8C379A000000000000000000000000000000000000000000000000000000000 DUP2 MSTORE PUSH1 0x4 ADD PUSH2 0x4D0 SWAP1 PUSH2 0x107B JUMP JUMPDEST PUSH32 0xFFFFFFFF00000000000000000000000000000000000000000000000000000000 DUP2 AND PUSH1 0x0 DUP2 DUP2 MSTORE PUSH1 0x1 PUSH1 0x20 DUP2 DUP2 MSTORE PUSH1 0x40 DUP1 DUP5 KECCAK256 DUP4 DUP6 MSTORE SWAP1 SWAP2 MSTORE DUP1 DUP4 KECCAK256 DUP1 SLOAD PUSH32 0xFFFFFFFFFFFFFFFFFFFFFFFF0000000000000000000000000000000000000000 AND SWAP1 SWAP3 OR SWAP1 SWAP2 SSTORE MLOAD CALLER SWAP3 SWAP2 PUSH32 0x49C6B8B07A879425742523FA80F8FFB25E39AD518C93A5896A0DF19518397E5 SWAP2 LOG3 POP JUMP JUMPDEST PUSH2 0xAC0 DUP4 PUSH2 0x591 JUMP JUMPDEST ISZERO PUSH2 0xAF7 JUMPI PUSH1 0x40 MLOAD PUSH32 0x8C379A000000000000000000000000000000000000000000000000000000000 DUP2 MSTORE PUSH1 0x4 ADD PUSH2 0x4D0 SWAP1 PUSH2 0x107B JUMP JUMPDEST PUSH20 0xFFFFFFFFFFFFFFFFFFFFFFFFFFFFFFFFFFFFFFFF DUP3 AND PUSH1 0x1 EQ ISZERO PUSH2 0xB48 JUMPI PUSH1 0x40 MLOAD PUSH32 0x8C379A000000000000000000000000000000000000000000000000000000000 DUP2 MSTORE PUSH1 0x4 ADD PUSH2 0x4D0 SWAP1 PUSH2 0x10B2 JUMP JUMPDEST PUSH32 0xFFFFFFFF00000000000000000000000000000000000000000000000000000000 DUP4 AND PUSH1 0x0 DUP2 DUP2 MSTORE PUSH1 0x1 PUSH1 0x20 SWAP1 DUP2 MSTORE PUSH1 0x40 DUP1 DUP4 KECCAK256 PUSH20 0xFFFFFFFFFFFFFFFFFFFFFFFFFFFFFFFFFFFFFFFF DUP8 DUP2 AND DUP1 DUP7 MSTORE SWAP2 SWAP1 SWAP4 MSTORE SWAP3 DUP2 SWAP1 KECCAK256 DUP1 SLOAD PUSH32 0xFFFFFFFFFFFFFFFFFFFFFFFF0000000000000000000000000000000000000000 AND SWAP3 DUP7 AND SWAP3 SWAP1 SWAP3 OR SWAP1 SWAP2 SSTORE MLOAD SWAP1 SWAP2 CALLER SWAP2 PUSH32 0xC62063B81F7036FD97A0DC546516E99F11004D2D76CA0FDDD3866346C86E7091 SWAP1 PUSH2 0xBFF SWAP1 DUP7 SWAP1 PUSH2 0xF33 JUMP JUMPDEST PUSH1 0x40 MLOAD DUP1 SWAP2 SUB SWAP1 LOG4 POP POP POP JUMP JUMPDEST PUSH1 0x40 DUP1 MLOAD PUSH1 0x60 DUP2 ADD SWAP1 SWAP2 MSTORE DUP1 PUSH1 0x0 DUP2 MSTORE PUSH1 0x0 PUSH1 0x20 DUP3 ADD DUP2 SWAP1 MSTORE PUSH1 0x40 SWAP1 SWAP2 ADD MSTORE SWAP1 JUMP JUMPDEST PUSH1 0x0 DUP3 PUSH1 0x1F DUP4 ADD SLT PUSH2 0xC3E JUMPI DUP1 DUP2 REVERT JUMPDEST DUP2 CALLDATALOAD PUSH8 0xFFFFFFFFFFFFFFFF DUP2 GT ISZERO PUSH2 0xC54 JUMPI DUP2 DUP3 REVERT JUMPDEST PUSH2 0xC85 PUSH1 0x20 PUSH32 0xFFFFFFFFFFFFFFFFFFFFFFFFFFFFFFFFFFFFFFFFFFFFFFFFFFFFFFFFFFFFFFE0 PUSH1 0x1F DUP5 ADD AND ADD PUSH2 0x10F2 JUMP JUMPDEST SWAP2 POP DUP1 DUP3 MSTORE DUP4 PUSH1 0x20 DUP3 DUP6 ADD ADD GT ISZERO PUSH2 0xC9C JUMPI PUSH1 0x0 DUP1 REVERT JUMPDEST DUP1 PUSH1 0x20 DUP5 ADD PUSH1 0x20 DUP5 ADD CALLDATACOPY PUSH1 0x0 SWAP1 DUP3 ADD PUSH1 0x20 ADD MSTORE SWAP3 SWAP2 POP POP JUMP JUMPDEST PUSH1 0x0 PUSH1 0x60 DUP3 DUP5 SUB SLT ISZERO PUSH2 0xCC6 JUMPI DUP1 DUP2 REVERT JUMPDEST PUSH2 0xCD0 PUSH1 0x60 PUSH2 0x10F2 JUMP JUMPDEST SWAP1 POP DUP2 CALLDATALOAD PUSH1 0x3 DUP2 LT PUSH2 0xCE1 JUMPI PUSH1 0x0 DUP1 REVERT JUMPDEST DUP2 MSTORE PUSH1 0x20 DUP3 ADD CALLDATALOAD PUSH32 0xFFFFFFFF00000000000000000000000000000000000000000000000000000000 DUP2 AND DUP2 EQ PUSH2 0xD16 JUMPI PUSH1 0x0 DUP1 REVERT JUMPDEST PUSH1 0x20 DUP3 ADD MSTORE PUSH1 0x40 DUP3 ADD CALLDATALOAD PUSH2 0xD29 DUP2 PUSH2 0x1139 JUMP JUMPDEST PUSH1 0x40 DUP3 ADD MSTORE SWAP3 SWAP2 POP POP JUMP JUMPDEST PUSH1 0x0 PUSH1 0x20 DUP1 DUP4 DUP6 SUB SLT ISZERO PUSH2 0xD46 JUMPI DUP2 DUP3 REVERT JUMPDEST DUP3 CALLDATALOAD PUSH8 0xFFFFFFFFFFFFFFFF DUP2 GT ISZERO PUSH2 0xD5C JUMPI DUP3 DUP4 REVERT JUMPDEST DUP1 DUP5 ADD DUP6 PUSH1 0x1F DUP3 ADD SLT PUSH2 0xD6D JUMPI DUP4 DUP5 REVERT JUMPDEST DUP1 CALLDATALOAD SWAP2 POP PUSH2 0xD82 PUSH2 0xD7D DUP4 PUSH2 0x1119 JUMP JUMPDEST PUSH2 0x10F2 JUMP JUMPDEST DUP3 DUP2 MSTORE DUP4 DUP2 ADD SWAP1 DUP3 DUP6 ADD PUSH1 0x60 DUP1 DUP7 MUL DUP6 ADD DUP8 ADD DUP11 LT ISZERO PUSH2 0xDA0 JUMPI DUP8 DUP9 REVERT JUMPDEST DUP8 SWAP5 POP JUMPDEST DUP6 DUP6 LT ISZERO PUSH2 0xDCC JUMPI PUSH2 0xDB6 DUP11 DUP4 PUSH2 0xCB5 JUMP JUMPDEST DUP5 MSTORE PUSH1 0x1 SWAP5 SWAP1 SWAP5 ADD SWAP4 SWAP3 DUP7 ADD SWAP3 SWAP1 DUP2 ADD SWAP1 PUSH2 0xDA4 JUMP JUMPDEST POP SWAP1 SWAP9 SWAP8 POP POP POP POP POP POP POP POP JUMP JUMPDEST PUSH1 0x0 PUSH1 0x20 DUP3 DUP5 SUB SLT ISZERO PUSH2 0xDEB JUMPI DUP1 DUP2 REVERT JUMPDEST DUP2 MLOAD DUP1 ISZERO ISZERO DUP2 EQ PUSH2 0x430 JUMPI DUP2 DUP3 REVERT JUMPDEST PUSH1 0x0 PUSH1 0x20 DUP3 DUP5 SUB SLT ISZERO PUSH2 0xE0B JUMPI DUP1 DUP2 REVERT JUMPDEST DUP2 CALLDATALOAD PUSH2 0x430 DUP2 PUSH2 0x115E JUMP JUMPDEST PUSH1 0x0 DUP1 PUSH1 0x40 DUP4 DUP6 SUB SLT ISZERO PUSH2 0xE28 JUMPI DUP1 DUP2 REVERT JUMPDEST DUP3 CALLDATALOAD PUSH2 0xE33 DUP2 PUSH2 0x115E JUMP JUMPDEST SWAP2 POP PUSH1 0x20 DUP4 ADD CALLDATALOAD PUSH2 0xE43 DUP2 PUSH2 0x1139 JUMP JUMPDEST DUP1 SWAP2 POP POP SWAP3 POP SWAP3 SWAP1 POP JUMP JUMPDEST PUSH1 0x0 DUP1 PUSH1 0x0 PUSH1 0x60 DUP5 DUP7 SUB SLT ISZERO PUSH2 0xE62 JUMPI DUP1 DUP2 REVERT JUMPDEST DUP4 CALLDATALOAD PUSH2 0xE6D DUP2 PUSH2 0x115E JUMP JUMPDEST SWAP3 POP PUSH1 0x20 DUP5 ADD CALLDATALOAD PUSH2 0xE7D DUP2 PUSH2 0x1139 JUMP JUMPDEST SWAP2 POP PUSH1 0x40 DUP5 ADD CALLDATALOAD PUSH8 0xFFFFFFFFFFFFFFFF DUP2 GT ISZERO PUSH2 0xE98 JUMPI DUP2 DUP3 REVERT JUMPDEST PUSH2 0xEA4 DUP7 DUP3 DUP8 ADD PUSH2 0xC2E JUMP JUMPDEST SWAP2 POP POP SWAP3 POP SWAP3 POP SWAP3 JUMP JUMPDEST PUSH1 0x0 DUP1 PUSH1 0x0 PUSH1 0x60 DUP5 DUP7 SUB SLT ISZERO PUSH2 0xEC2 JUMPI DUP3 DUP4 REVERT JUMPDEST DUP4 CALLDATALOAD PUSH2 0xECD DUP2 PUSH2 0x115E JUMP JUMPDEST SWAP3 POP PUSH1 0x20 DUP5 ADD CALLDATALOAD PUSH2 0xEDD DUP2 PUSH2 0x1139 JUMP JUMPDEST SWAP2 POP PUSH1 0x40 DUP5 ADD CALLDATALOAD PUSH2 0xEED DUP2 PUSH2 0x1139 JUMP JUMPDEST DUP1 SWAP2 POP POP SWAP3 POP SWAP3 POP SWAP3 JUMP JUMPDEST PUSH1 0x0 PUSH1 0x20 DUP3 DUP5 SUB SLT ISZERO PUSH2 0xF09 JUMPI DUP1 DUP2 REVERT JUMPDEST DUP2 CALLDATALOAD PUSH8 0xFFFFFFFFFFFFFFFF DUP2 GT ISZERO PUSH2 0xF1F JUMPI DUP2 DUP3 REVERT JUMPDEST PUSH2 0xF2B DUP5 DUP3 DUP6 ADD PUSH2 0xC2E JUMP JUMPDEST SWAP5 SWAP4 POP POP POP POP JUMP JUMPDEST PUSH20 0xFFFFFFFFFFFFFFFFFFFFFFFFFFFFFFFFFFFFFFFF SWAP2 SWAP1 SWAP2 AND DUP2 MSTORE PUSH1 0x20 ADD SWAP1 JUMP JUMPDEST SWAP1 ISZERO ISZERO DUP2 MSTORE PUSH1 0x20 ADD SWAP1 JUMP JUMPDEST PUSH32 0xFFFFFFFF00000000000000000000000000000000000000000000000000000000 SWAP2 SWAP1 SWAP2 AND DUP2 MSTORE PUSH1 0x20 ADD SWAP1 JUMP JUMPDEST PUSH1 0x0 PUSH32 0xFFFFFFFF00000000000000000000000000000000000000000000000000000000 DUP6 AND DUP3 MSTORE PUSH1 0x20 PUSH20 0xFFFFFFFFFFFFFFFFFFFFFFFFFFFFFFFFFFFFFFFF DUP6 AND DUP2 DUP5 ADD MSTORE PUSH1 0x60 PUSH1 0x40 DUP5 ADD MSTORE DUP4 MLOAD DUP1 PUSH1 0x60 DUP6 ADD MSTORE DUP3 JUMPDEST DUP2 DUP2 LT ISZERO PUSH2 0xFFD JUMPI DUP6 DUP2 ADD DUP4 ADD MLOAD DUP6 DUP3 ADD PUSH1 0x80 ADD MSTORE DUP3 ADD PUSH2 0xFE1 JUMP JUMPDEST DUP2 DUP2 GT ISZERO PUSH2 0x100E JUMPI DUP4 PUSH1 0x80 DUP4 DUP8 ADD ADD MSTORE JUMPDEST POP PUSH1 0x1F ADD PUSH32 0xFFFFFFFFFFFFFFFFFFFFFFFFFFFFFFFFFFFFFFFFFFFFFFFFFFFFFFFFFFFFFFE0 AND SWAP3 SWAP1 SWAP3 ADD PUSH1 0x80 ADD SWAP6 SWAP5 POP POP POP POP POP JUMP JUMPDEST PUSH1 0x20 DUP1 DUP3 MSTORE PUSH1 0x9 SWAP1 DUP3 ADD MSTORE PUSH32 0x61636C3A20617574680000000000000000000000000000000000000000000000 PUSH1 0x40 DUP3 ADD MSTORE PUSH1 0x60 ADD SWAP1 JUMP JUMPDEST PUSH1 0x20 DUP1 DUP3 MSTORE PUSH1 0xB SWAP1 DUP3 ADD MSTORE PUSH32 0x61636C3A2066726F7A656E000000000000000000000000000000000000000000 PUSH1 0x40 DUP3 ADD MSTORE PUSH1 0x60 ADD SWAP1 JUMP JUMPDEST PUSH1 0x20 DUP1 DUP3 MSTORE PUSH1 0xF SWAP1 DUP3 ADD MSTORE PUSH32 0x61636C3A2062616420667265657A650000000000000000000000000000000000 PUSH1 0x40 DUP3 ADD MSTORE PUSH1 0x60 ADD SWAP1 JUMP JUMPDEST SWAP1 DUP2 MSTORE PUSH1 0x20 ADD SWAP1 JUMP JUMPDEST PUSH1 0x40 MLOAD DUP2 DUP2 ADD PUSH8 0xFFFFFFFFFFFFFFFF DUP2 GT DUP3 DUP3 LT OR ISZERO PUSH2 0x1111 JUMPI PUSH1 0x0 DUP1 REVERT JUMPDEST PUSH1 0x40 MSTORE SWAP2 SWAP1 POP JUMP JUMPDEST PUSH1 0x0 PUSH8 0xFFFFFFFFFFFFFFFF DUP3 GT ISZERO PUSH2 0x112F JUMPI DUP1 DUP2 REVERT JUMPDEST POP PUSH1 0x20 SWAP1 DUP2 MUL ADD SWAP1 JUMP JUMPDEST PUSH20 0xFFFFFFFFFFFFFFFFFFFFFFFFFFFFFFFFFFFFFFFF DUP2 AND DUP2 EQ PUSH2 0x115B JUMPI PUSH1 0x0 DUP1 REVERT JUMPDEST POP JUMP JUMPDEST PUSH32 0xFFFFFFFF00000000000000000000000000000000000000000000000000000000 DUP2 AND DUP2 EQ PUSH2 0x115B JUMPI PUSH1 0x0 DUP1 REVERT INVALID LOG2 PUSH5 0x6970667358 0x22 SLT KECCAK256 0xE3 0xB0 BALANCE 0xBB SWAP9 0xD0 PUSH31 0xB49A88537CB93FED93F0D731BCA76F5C18B78F20FF9F5AFD6964736F6C6343 STOP MOD ADDMOD STOP CALLER "
				},
				"gasEstimates": {
					"creation": {
						"codeDepositCost": "909200",
						"executionCost": "infinite",
						"totalCost": "infinite"
					},
					"external": {
						"ROOT_ROLE()": "307",
						"bulk((uint8,bytes4,address)[])": "infinite",
						"freeze(bytes4)": "infinite",
						"grant(bytes4,address)": "infinite",
						"grantWithOracle(bytes4,address,address)": "infinite",
						"initBlocks(string)": "infinite",
						"isFrozen(bytes4)": "1353",
						"revoke(bytes4,address)": "infinite",
						"roles(bytes4,address)": "infinite",
						"willPerform(bytes4,address,bytes)": "infinite"
					},
					"internal": {
						"_freeze(bytes4)": "infinite",
						"_grant(bytes4,address)": "infinite",
						"_grantWithOracle(bytes4,address,contract IACLOracle)": "infinite",
						"_initializeACL(address)": "infinite",
						"_revoke(bytes4,address)": "infinite"
					}
				},
				"methodIdentifiers": {
					"ROOT_ROLE()": "7e8c7f08",
					"bulk((uint8,bytes4,address)[])": "1c47671b",
					"freeze(bytes4)": "bdf9a726",
					"grant(bytes4,address)": "a157a10d",
					"grantWithOracle(bytes4,address,address)": "a2157227",
					"initBlocks(string)": "cc1d4cab",
					"isFrozen(bytes4)": "495a9825",
					"revoke(bytes4,address)": "58849734",
					"roles(bytes4,address)": "96fc8abd",
					"willPerform(bytes4,address,bytes)": "097c8108"
				}
			},
			"storageLayout": {
				"storage": [
					{
						"astId": 1914,
						"contract": "@aragon/govern-contract-utils/contracts/acl/ACL.sol:ACL",
						"label": "initBlocks",
						"offset": 0,
						"slot": "0",
						"type": "t_mapping(t_string_memory_ptr,t_uint256)"
					},
					{
						"astId": 956,
						"contract": "@aragon/govern-contract-utils/contracts/acl/ACL.sol:ACL",
						"label": "roles",
						"offset": 0,
						"slot": "1",
						"type": "t_mapping(t_bytes4,t_mapping(t_address,t_address))"
					}
				],
				"types": {
					"t_address": {
						"encoding": "inplace",
						"label": "address",
						"numberOfBytes": "20"
					},
					"t_bytes4": {
						"encoding": "inplace",
						"label": "bytes4",
						"numberOfBytes": "4"
					},
					"t_mapping(t_address,t_address)": {
						"encoding": "mapping",
						"key": "t_address",
						"label": "mapping(address => address)",
						"numberOfBytes": "32",
						"value": "t_address"
					},
					"t_mapping(t_bytes4,t_mapping(t_address,t_address))": {
						"encoding": "mapping",
						"key": "t_bytes4",
						"label": "mapping(bytes4 => mapping(address => address))",
						"numberOfBytes": "32",
						"value": "t_mapping(t_address,t_address)"
					},
					"t_mapping(t_string_memory_ptr,t_uint256)": {
						"encoding": "mapping",
						"key": "t_string_memory_ptr",
						"label": "mapping(string => uint256)",
						"numberOfBytes": "32",
						"value": "t_uint256"
					},
					"t_string_memory_ptr": {
						"encoding": "bytes",
						"label": "string",
						"numberOfBytes": "32"
					},
					"t_uint256": {
						"encoding": "inplace",
						"label": "uint256",
						"numberOfBytes": "32"
					}
				}
			},
			"userdoc": {
				"methods": {}
			}
		}
	}
}