{
	"data": {
		"bytecode": {
			"linkReferences": {},
			"object": "60806040523480156200001157600080fd5b506040516200415c3803806200415c8339810160408190526200003491620005a4565b818060026040516200004690620006aa565b90815260200160405180910390205460001415620000725762000072816001600160e01b036200009216565b506200008a905082826001600160e01b036200016c16565b505062000857565b604051806040016040528060038152602001621858db60ea1b815250600281604051620000c091906200068c565b908152602001604051809103902054600014620000fa5760405162461bcd60e51b8152600401620000f19062000707565b60405180910390fd5b436002826040516200010d91906200068c565b908152604051908190036020019020556200013963161b7d8160e21b836001600160e01b03620002ad16565b806040516200014991906200068c565b604051908190038120906000805160206200413c83398151915290600090a25050565b8160026040516200017d90620006aa565b90815260200160405180910390205460001415620001a957620001a9816001600160e01b036200009216565b60405180604001604052806005815260200164717565756560d81b815250600281604051620001d991906200068c565b9081526020016040518091039020546000146200020a5760405162461bcd60e51b8152600401620000f19062000707565b436002826040516200021d91906200068c565b9081526040519081900360200190205562000241836001600160e01b03620002c816565b506200025d6388f3ee6960e01b6001600160e01b036200032a16565b620002786322f8ea5560e11b6001600160e01b036200032a16565b806040516200028891906200068c565b604051908190038120906000805160206200413c83398151915290600090a250505050565b620002c4828260026001600160e01b036200038b16565b5050565b6000620002e0826200047560201b620019bf1760201c565b60048190556040513391907f0a61dcdfcdfc6da74a563de8455cc4ae6d6c9d0b442eb2f7309e6b31e4680d79906200031a90869062000772565b60405180910390a3505060045490565b6001600160e01b0319811660009081526020819052604090819020805460ff19166001179055517fbf5e1f87f5ab65b58074cd29244d7c487a948983cda4b932e0f966b62bd34aca9062000380908390620006b9565b60405180910390a150565b6200039f836001600160e01b03620004a716565b15620003bf5760405162461bcd60e51b8152600401620000f190620006e2565b6001600160a01b03821660011415620003ec5760405162461bcd60e51b8152600401620000f19062000749565b6001600160e01b0319831660008181526003602090815260408083206001600160a01b03878116808652919093529281902080546001600160a01b0319169286169290921790915551909133917fc62063b81f7036fd97a0dc546516e99f11004d2d76ca0fddd3866346c86e70919062000468908690620006ce565b60405180910390a4505050565b6000816040516020016200048a919062000772565b604051602081830303815290604052805190602001209050919050565b6001600160e01b031916600090815260036020908152604080832060018085529252909120546001600160a01b03161490565b80516001600160a01b0381168114620004f257600080fd5b92915050565b600082601f83011262000509578081fd5b81516001600160401b038111156200051f578182fd5b62000534601f8201601f1916602001620007fd565b91508082528360208285010111156200054c57600080fd5b6200055f81602084016020860162000824565b5092915050565b60006040828403121562000578578081fd5b620005846040620007fd565b9050620005928383620004da565b81526020820151602082015292915050565b60008060408385031215620005b7578182fd5b620005c38484620004da565b60208401519092506001600160401b0380821115620005e0578283fd5b81850160e08188031215620005f3578384fd5b620005ff60a0620007fd565b92508051835262000614876020830162000566565b602084015262000628876060830162000566565b60408401526200063c8760a08301620004da565b606084015260c08101518281111562000653578485fd5b6200066188828401620004f8565b6080850152505050809150509250929050565b80516001600160a01b03168252602090810151910152565b60008251620006a081846020870162000824565b9190910192915050565b621858db60ea1b815260030190565b6001600160e01b031991909116815260200190565b6001600160a01b0391909116815260200190565b6020808252600b908201526a30b1b61d10333937bd32b760a91b604082015260600190565b60208082526022908201527f696e697469616c697a61626c653a20616c726561647920696e697469616c697a604082015261195960f21b606082015260800190565b6020808252600f908201526e61636c3a2062616420667265657a6560881b604082015260600190565b60006020825282516020830152602083015162000793604084018262000674565b506040830151620007a8608084018262000674565b5060608301516001600160a01b031660c0830152608083015160e08084015280516101008401819052610120620007e6828287016020860162000824565b80601f19601f840116860101935050505092915050565b6040518181016001600160401b03811182821017156200081c57600080fd5b604052919050565b60005b838110156200084157818101518382015260200162000827565b8381111562000851576000848401525b50505050565b6138d580620008676000396000f3fe608060405234801561001057600080fd5b50600436106101b95760003560e01c80637c10dea6116100f9578063b8ebe05e11610097578063c04c87b811610071578063c04c87b8146103b7578063c8182af0146103ca578063cc1d4cab146103dd578063e1f1176d146103f0576101b9565b8063b8ebe05e1461037e578063b9e9823f14610391578063bdf9a726146103a4576101b9565b8063977d8964116100d3578063977d89641461033d578063a157a10d14610350578063a215722714610363578063affed0e014610376576101b9565b80637c10dea6146102e85780637e8c7f081461030857806396fc8abd1461031d576101b9565b80633b1c5fc6116101665780635884973411610140578063588497341461029c57806359b6907a146102af57806370576158146102c257806372896761146102d5576101b9565b80633b1c5fc614610256578063495a98251461027657806355a3315914610289576101b9565b80632a0d403e116101975780632a0d403e1461020f578063311a6c56146102305780633a139c7114610243576101b9565b806301ffc9a7146101be578063097c8108146101e75780631c47671b146101fa575b600080fd5b6101d16101cc366004612aea565b6103f8565b6040516101de9190613195565b60405180910390f35b6101d16101f5366004612b3e565b610442565b61020d610208366004612944565b6106c4565b005b61022261021d366004612d03565b610804565b6040516101de9291906131a9565b61020d61023e366004612de5565b61099f565b610222610251366004612c79565b610a60565b610269610264366004612be8565b610b5f565b6040516101de91906131a0565b6101d1610284366004612aea565b610b7c565b610222610297366004612c79565b610bd4565b61020d6102aa366004612b06565b610c91565b61020d6102bd3660046128f6565b610d1a565b6102696102d0366004612cac565b610e7e565b6102696102e3366004612c46565b611360565b6102fb6102f6366004612a01565b6113d1565b6040516101de9190613312565b6103106113e6565b6040516101de919061322f565b61033061032b366004612b06565b61140a565b6040516101de91906130e5565b61026961034b366004612c79565b61143d565b61020d61035e366004612b06565b611613565b61020d610371366004612b9e565b61169c565b61026961172c565b61020d61038c366004612c79565b611732565b61020d61039f366004612d5e565b6117f5565b61020d6103b2366004612aea565b61180d565b61020d6103c5366004612aaf565b611899565b6103306103d8366004612a01565b611974565b6102696103eb366004612c13565b61199c565b6102696119b9565b7fffffffff00000000000000000000000000000000000000000000000000000000811660009081526020819052604081205460ff168061043c575061043c826119ef565b92915050565b7fffffffff000000000000000000000000000000000000000000000000000000008316600090815260036020908152604080832033845290915281205473ffffffffffffffffffffffffffffffffffffffff16801561057b5773ffffffffffffffffffffffffffffffffffffffff8116600214156104c45760019150506106bd565b6040517f097c810800000000000000000000000000000000000000000000000000000000815273ffffffffffffffffffffffffffffffffffffffff82169063097c81089061051a9088908890889060040161325c565b602060405180830381600087803b15801561053457600080fd5b505af1158015610548573d6000803e3d6000fd5b505050506040513d601f19601f8201168201806040525081019061056c91906129e5565b1561057b5760019150506106bd565b7fffffffff000000000000000000000000000000000000000000000000000000008516600090815260036020908152604080832073ffffffffffffffffffffffffffffffffffffffff8085529252909120541680156106b65773ffffffffffffffffffffffffffffffffffffffff8116600214156105fe576001925050506106bd565b6040517f097c810800000000000000000000000000000000000000000000000000000000815273ffffffffffffffffffffffffffffffffffffffff82169063097c8108906106549089908990899060040161325c565b602060405180830381600087803b15801561066e57600080fd5b505af1158015610682573d6000803e3d6000fd5b505050506040513d601f19601f820116820180604052508101906106a691906129e5565b156106b6576001925050506106bd565b6000925050505b9392505050565b60408051602036601f81018290048202830182019093528282527f586df604000000000000000000000000000000000000000000000000000000009261072792849233926000918190840183828082843760009201919091525061044292505050565b61074c5760405162461bcd60e51b8152600401610743906133ad565b60405180910390fd5b60005b82518110156107ff576107606124a6565b83828151811061076c57fe5b602002602001015190506000600281111561078357fe5b8151600281111561079057fe5b14156107ad576107a881602001518260400151611a46565b6107f6565b6001815160028111156107bc57fe5b14156107d4576107a881602001518260400151611a52565b6002815160028111156107e357fe5b14156107f6576107f68160200151611b20565b5060010161074f565b505050565b60006060600061081385611bd8565b9050600260008281526006602081905260409091205460ff169081111561083657fe5b14156108b05784602001516060015173ffffffffffffffffffffffffffffffffffffffff16638bb04875856040518263ffffffff1660e01b815260040161087d91906131a0565b600060405180830381600087803b15801561089757600080fd5b505af11580156108ab573d6000803e3d6000fd5b505050505b60008181526006602052604090205460ff1633827f027d8a5d945eb361475964ed2c71b8332b27af2d630ab5daf829d67afd2584e660038460068111156108f357fe5b146040516109019190613195565b60405180910390a3600381600681111561091757fe5b14156109315761092686610bd4565b935093505050610998565b600481600681111561093f57fe5b1461095c5760405162461bcd60e51b8152600401610743906136d5565b61096586611732565b6040805160008082526020820190925281610990565b606081526020019060019003908161097b5790505b509350935050505b9250929050565b3360008181526008602090815260408083208684529091529020546109ec6002600485146109ce5760046109d1565b60035b6000848152600660205260409020919063ffffffff611bfc16565b73ffffffffffffffffffffffffffffffffffffffff8216600081815260086020908152604080832088845290915280822091909155518591907f56c8631a8915c0d362dbe57a61215fdde954f73f81c8a3a1f55572fb015207b190610a529087906131a0565b60405180910390a350505050565b60006060633a139c7160e01b610aae81336000368080601f01602080910402602001604051908101604052809392919081815260200183838082843760009201919091525061044292505050565b610aca5760405162461bcd60e51b8152600401610743906133ad565b83516020015167ffffffffffffffff42161015610af95760405162461bcd60e51b815260040161074390613630565b6000610b0485611bd8565b6000818152600660208190526040909120919250610b2b919060019063ffffffff611bfc16565b8451604001516020808701510151610b489163ffffffff611c1016565b8451610b549082611ccb565b935093505050915091565b600860209081526000928352604080842090915290825290205481565b7fffffffff00000000000000000000000000000000000000000000000000000000166000908152600360209081526040808320600180855292529091205473ffffffffffffffffffffffffffffffffffffffff161490565b600060606000610be384611bd8565b6000818152600660208190526040909120919250610c0a919060039063ffffffff611bfc16565b8351604001516020808601510151610c279163ffffffff611c1016565b8351604090810151602086015190910151610c479163ffffffff611c1016565b600081815260076020526040902080547fffffffffffffffffffffffff00000000000000000000000000000000000000001690558351610c879082611ccb565b9250925050915091565b60408051602036601f81018290048202830182019093528282527f586df6040000000000000000000000000000000000000000000000000000000092610cf492849233926000918190840183828082843760009201919091525061044292505050565b610d105760405162461bcd60e51b8152600401610743906133ad565b6107ff8383611a52565b816002604051610d2990612ffb565b90815260200160405180910390205460001415610d4957610d4981611dc5565b6040518060400160405280600581526020017f7175657565000000000000000000000000000000000000000000000000000000815250600281604051610d8f9190612fdf565b908152602001604051809103902054600014610dbd5760405162461bcd60e51b8152600401610743906135d3565b43600282604051610dce9190612fdf565b90815260405190819003602001902055610de783611ec6565b50610e117f88f3ee6900000000000000000000000000000000000000000000000000000000611f19565b610e3a7f45f1d4aa00000000000000000000000000000000000000000000000000000000611f19565b80604051610e489190612fdf565b604051908190038120907f7bc2a48a4a566e237a12186f19d985b0f76afc9d5290601edac19876253670c290600090a250505050565b6000637057615860e01b610eca81336000368080601f01602080910402602001604051908101604052809392919081815260200183838082843760009201919091525061044292505050565b610ee65760405162461bcd60e51b8152600401610743906133ad565b6000610ef185611bd8565b600081815260076020908152604080832080547fffffffffffffffffffffffff0000000000000000000000000000000000000000163317905560069091529020909150610f47906001600263ffffffff611bfc16565b610f4f6124c8565b50602085015160400151610f69813363ffffffff611fae16565b6000866020015160600151905060008060008373ffffffffffffffffffffffffffffffffffffffff16637b751b9e6040518163ffffffff1660e01b815260040160606040518083038186803b158015610fc157600080fd5b505afa158015610fd5573d6000803e3d6000fd5b505050506040513d601f19601f82011682018060405250810190610ff991906128b4565b9194509250905061102873ffffffffffffffffffffffffffffffffffffffff831633308463ffffffff61206b16565b6110445760405162461bcd60e51b815260040161074390613489565b61106b73ffffffffffffffffffffffffffffffffffffffff8316848363ffffffff61212116565b6110875760405162461bcd60e51b815260040161074390613565565b8373ffffffffffffffffffffffffffffffffffffffff1663c13517e160028c6040516020016110b6919061371f565b6040516020818303038152906040526040518363ffffffff1660e01b81526004016110e2929190613326565b602060405180830381600087803b1580156110fc57600080fd5b505af1158015611110573d6000803e3d6000fd5b505050506040513d601f19601f820116820180604052508101906111349190612d46565b975061115e73ffffffffffffffffffffffffffffffffffffffff831684600063ffffffff61212116565b61117a5760405162461bcd60e51b815260040161074390613452565b89600001516040015173ffffffffffffffffffffffffffffffffffffffff16888573ffffffffffffffffffffffffffffffffffffffff167f1988e4d59f596ba1a2d81e06874704a62502463ae6d99154f923e5edeb98392b8d6000015160c0015160016040516111eb9291906132c6565b60405180910390a43373ffffffffffffffffffffffffffffffffffffffff16888573ffffffffffffffffffffffffffffffffffffffff167f1988e4d59f596ba1a2d81e06874704a62502463ae6d99154f923e5edeb98392b8c60016040516112549291906132c6565b60405180910390a46040517f7e9adccf00000000000000000000000000000000000000000000000000000000815273ffffffffffffffffffffffffffffffffffffffff851690637e9adccf906112ae908b906004016131a0565b600060405180830381600087803b1580156112c857600080fd5b505af11580156112dc573d6000803e3d6000fd5b50505073ffffffffffffffffffffffffffffffffffffffff851660009081526008602090815260408083208c8452909152908190208890555133915087907f429df837eb45b6713f725a0d3e57db939fd7dd7d58bb3cd967fa37091572db9f9061134b908d908d908b906132ea565b60405180910390a35050505050505092915050565b6000637289676160e01b6113ac81336000368080601f01602080910402602001604051908101604052809392919081815260200183838082843760009201919091525061044292505050565b6113c85760405162461bcd60e51b8152600401610743906133ad565b6106bd83611ec6565b60066020526000908152604090205460ff1681565b7f586df6040000000000000000000000000000000000000000000000000000000081565b600360209081526000928352604080842090915290825290205473ffffffffffffffffffffffffffffffffffffffff1681565b600063977d896460e01b61148981336000368080601f01602080910402602001604051908101604052809392919081815260200183838082843760009201919091525061044292505050565b6114a55760405162461bcd60e51b8152600401610743906133ad565b6005805460010190819055835151146114d05760405162461bcd60e51b8152600401610743906133e4565b60006114df84602001516119bf565b905060045481146115025760405162461bcd60e51b815260040161074390613376565b836020015160000151420184600001516020015110156115345760405162461bcd60e51b81526004016107439061341b565b83516040015173ffffffffffffffffffffffffffffffffffffffff16331461156e5760405162461bcd60e51b8152600401610743906134c0565b61158461157e85600001516121d2565b8261223a565b60008181526006602052604081209194506115a79190600163ffffffff611bfc16565b6115af6124c8565b5060208085015101518451604001516115cf90829063ffffffff611fae16565b837f67f87ff46443c95843c7bd72a026dd23ba0015528ce9f8f15c5c6917645034ef86600001516040516116039190613776565b60405180910390a2505050919050565b60408051602036601f81018290048202830182019093528282527f586df604000000000000000000000000000000000000000000000000000000009261167692849233926000918190840183828082843760009201919091525061044292505050565b6116925760405162461bcd60e51b8152600401610743906133ad565b6107ff8383611a46565b60408051602036601f81018290048202830182019093528282527f586df60400000000000000000000000000000000000000000000000000000000926116ff92849233926000918190840183828082843760009201919091525061044292505050565b61171b5760405162461bcd60e51b8152600401610743906133ad565b611726848484612275565b50505050565b60055481565b600061173d82611bd8565b6000818152600660205260409020909150611761906004600563ffffffff611bfc16565b600081815260076020908152604090912054838201519091015173ffffffffffffffffffffffffffffffffffffffff909116906117a4908263ffffffff611c1016565b6020830151604001516117bd908263ffffffff611c1016565b50600090815260076020526040902080547fffffffffffffffffffffffff000000000000000000000000000000000000000016905550565b60405162461bcd60e51b8152600401610743906134f7565b60408051602036601f81018290048202830182019093528282527f586df604000000000000000000000000000000000000000000000000000000009261187092849233926000918190840183828082843760009201919091525061044292505050565b61188c5760405162461bcd60e51b8152600401610743906133ad565b61189582611b20565b5050565b63c04c87b860e01b6118e381336000368080601f01602080910402602001604051908101604052809392919081815260200183838082843760009201919091525061044292505050565b6118ff5760405162461bcd60e51b8152600401610743906133ad565b6000838152600660205260409020611920906001600563ffffffff611bfc16565b3373ffffffffffffffffffffffffffffffffffffffff16837fe2530b9681f9726904f9ca7fe725c0c53ea1b72370981ac6a5beaa9758c8c3568460405161196791906132b3565b60405180910390a3505050565b60076020526000908152604090205473ffffffffffffffffffffffffffffffffffffffff1681565b805160208183018101805160028252928201919093012091525481565b60045481565b6000816040516020016119d2919061370c565b604051602081830303815290604052805190602001209050919050565b60007fffffffff0000000000000000000000000000000000000000000000000000000082167f01ffc9a700000000000000000000000000000000000000000000000000000000148061043c57505060014214919050565b61189582826002612275565b611a5b82610b7c565b15611a785760405162461bcd60e51b81526004016107439061352e565b7fffffffff000000000000000000000000000000000000000000000000000000008216600081815260036020908152604080832073ffffffffffffffffffffffffffffffffffffffff8616808552925280832080547fffffffffffffffffffffffff0000000000000000000000000000000000000000169055519092339290917f682f2c466c1e9f6883eb72cbced01373e1cb18b05ae5c8bc04dc73d73e29f8cd9190a45050565b611b2981610b7c565b15611b465760405162461bcd60e51b81526004016107439061352e565b7fffffffff00000000000000000000000000000000000000000000000000000000811660008181526003602090815260408083206001808552925280832080547fffffffffffffffffffffffff000000000000000000000000000000000000000016909217909155513392917f049c6b8b07a879425742523fa80f8ffb25e39ad518c93a5896a0df19518397e591a350565b600061043c611bea83600001516121d2565b611bf784602001516119bf565b61223a565b611c068383612396565b6107ff83826123cf565b6020820151156118955781516020830151611c4a9073ffffffffffffffffffffffffffffffffffffffff831690849063ffffffff61240e16565b611c665760405162461bcd60e51b81526004016107439061359c565b8173ffffffffffffffffffffffffffffffffffffffff16836000015173ffffffffffffffffffffffffffffffffffffffff167fc1c90b8e0705b212262c0dbd7580efe1862c2f185bf96899226f7596beb2db09856020015160405161196791906131a0565b604051600090606090339084907f59c3746e635078efc737fb3f37dd8188203b8df10bbad35878a7d156f4f51c41908590a3836060015173ffffffffffffffffffffffffffffffffffffffff1663c2d85afc85608001518660a00151866040518463ffffffff1660e01b8152600401611d4693929190613170565b600060405180830381600087803b158015611d6057600080fd5b505af1158015611d74573d6000803e3d6000fd5b505050506040513d6000823e601f3d9081017fffffffffffffffffffffffffffffffffffffffffffffffffffffffffffffffe0168201604052611dba9190810190612a19565b915091509250929050565b6040518060400160405280600381526020017f61636c0000000000000000000000000000000000000000000000000000000000815250600281604051611e0b9190612fdf565b908152602001604051809103902054600014611e395760405162461bcd60e51b8152600401610743906135d3565b43600282604051611e4a9190612fdf565b90815260405190819003602001902055611e847f586df6040000000000000000000000000000000000000000000000000000000083611a46565b80604051611e929190612fdf565b604051908190038120907f7bc2a48a4a566e237a12186f19d985b0f76afc9d5290601edac19876253670c290600090a25050565b6000611ed1826119bf565b60048190556040513391907f0a61dcdfcdfc6da74a563de8455cc4ae6d6c9d0b442eb2f7309e6b31e4680d7990611f0990869061370c565b60405180910390a3505060045490565b7fffffffff0000000000000000000000000000000000000000000000000000000081166000908152602081905260409081902080547fffffffffffffffffffffffffffffffffffffffffffffffffffffffffffffff00166001179055517fbf5e1f87f5ab65b58074cd29244d7c487a948983cda4b932e0f966b62bd34aca90611fa390839061322f565b60405180910390a150565b6020820151156118955781516020830151611fea9073ffffffffffffffffffffffffffffffffffffffff8316908490309063ffffffff61206b16565b6120065760405162461bcd60e51b815260040161074390613667565b8173ffffffffffffffffffffffffffffffffffffffff16836000015173ffffffffffffffffffffffffffffffffffffffff167fec36c0364d931187a76cf66d7eee08fad0ec2e8b7458a8d8b26b36769d4d13f3856020015160405161196791906131a0565b600060606323b872dd60e01b85858560405160240161208c93929190613106565b604080517fffffffffffffffffffffffffffffffffffffffffffffffffffffffffffffffe08184030181529190526020810180517bffffffffffffffffffffffffffffffffffffffffffffffffffffffff167fffffffff00000000000000000000000000000000000000000000000000000000909316929092179091529050612115868261242d565b9150505b949350505050565b6000606063095ea7b360e01b8484604051602401612140929190613137565b604080517fffffffffffffffffffffffffffffffffffffffffffffffffffffffffffffffe08184030181529190526020810180517bffffffffffffffffffffffffffffffffffffffffffffffffffffffff167fffffffff000000000000000000000000000000000000000000000000000000009093169290921790915290506121c9858261242d565b95945050505050565b6000816000015182602001518360400151846060015185608001516040516020016121fd919061315d565b604051602081830303815290604052805190602001208660a001518760c00151805190602001206040516020016119d2979695949392919061308c565b6040516000904690612256903090839087908790602001613024565b6040516020818303038152906040528051906020012091505092915050565b61227e83610b7c565b1561229b5760405162461bcd60e51b81526004016107439061352e565b73ffffffffffffffffffffffffffffffffffffffff8216600114156122d25760405162461bcd60e51b81526004016107439061369e565b7fffffffff000000000000000000000000000000000000000000000000000000008316600081815260036020908152604080832073ffffffffffffffffffffffffffffffffffffffff878116808652919093529281902080547fffffffffffffffffffffffff0000000000000000000000000000000000000000169286169290921790915551909133917fc62063b81f7036fd97a0dc546516e99f11004d2d76ca0fddd3866346c86e7091906123899086906130e5565b60405180910390a4505050565b8060068111156123a257fe5b825460ff1660068111156123b257fe5b146118955760405162461bcd60e51b81526004016107439061333f565b8154819083907fffffffffffffffffffffffffffffffffffffffffffffffffffffffffffffff0016600183600681111561240557fe5b02179055505050565b6000606063a9059cbb60e01b8484604051602401612140929190613137565b600061244e8373ffffffffffffffffffffffffffffffffffffffff166124a0565b61245a5750600061043c565b6040516020818451602086016000885af18015612498573d8015612485576020811461248e57612496565b60019350612496565b600183511493505b505b505092915050565b3b151990565b6040805160608101909152806000815260006020820181905260409091015290565b604080518082019091526000808252602082015290565b803561043c8161383e565b600082601f8301126124fa578081fd5b813561250d612508826137b0565b613789565b818152915060208083019084810160005b848110156125c157813587016060807fffffffffffffffffffffffffffffffffffffffffffffffffffffffffffffffe0838c0301121561255d57600080fd5b61256681613789565b6125728b8785016124df565b8152604080840135878301528284013567ffffffffffffffff81111561259757600080fd5b6125a58d89838801016125cc565b918301919091525086525050928201929082019060010161251e565b505050505092915050565b600082601f8301126125dc578081fd5b81356125ea612508826137d0565b915080825283602082850101111561260157600080fd5b8060208401602084013760009082016020015292915050565b600082601f83011261262a578081fd5b8151612638612508826137d0565b915080825283602082850101111561264f57600080fd5b612660816020840160208601613812565b5092915050565b600060608284031215612678578081fd5b6126826060613789565b905081356003811061269357600080fd5b815260208201357fffffffff00000000000000000000000000000000000000000000000000000000811681146126c857600080fd5b602082015260408201356126db8161383e565b604082015292915050565b6000604082840312156126f7578081fd5b6127016040613789565b9050813561270e8161383e565b808252506020820135602082015292915050565b600060e08284031215612733578081fd5b61273d60a0613789565b90508135815261275083602084016126e6565b602082015261276283606084016126e6565b604082015260a08201356127758161383e565b606082015260c082013567ffffffffffffffff81111561279457600080fd5b6127a0848285016125cc565b60808301525092915050565b6000604082840312156127bd578081fd5b6127c76040613789565b9050813567ffffffffffffffff808211156127e157600080fd5b81840160e081870312156127f457600080fd5b6127fe60e0613789565b9250803583526020810135602084015261281b86604083016124df565b604084015261282d86606083016124df565b606084015260808101358281111561284457600080fd5b612850878284016124ea565b60808501525060a081013560a084015260c08101358281111561287257600080fd5b61287e878284016125cc565b60c085015250509082526020830135908082111561289b57600080fd5b506128a884828501612722565b60208301525092915050565b6000806000606084860312156128c8578283fd5b83516128d38161383e565b60208501519093506128e48161383e565b80925050604084015190509250925092565b60008060408385031215612908578182fd5b82356129138161383e565b9150602083013567ffffffffffffffff81111561292e578182fd5b61293a85828601612722565b9150509250929050565b60006020808385031215612956578182fd5b823567ffffffffffffffff81111561296c578283fd5b80840185601f82011261297d578384fd5b8035915061298d612508836137b0565b828152838101908285016060808602850187018a10156129ab578788fd5b8794505b858510156129d7576129c18a83612667565b84526001949094019392860192908101906129af565b509098975050505050505050565b6000602082840312156129f6578081fd5b81516106bd81613863565b600060208284031215612a12578081fd5b5035919050565b60008060408385031215612a2b578182fd5b8251915060208084015167ffffffffffffffff811115612a49578283fd5b80850186601f820112612a5a578384fd5b80519150612a6a612508836137b0565b82815283810190828501865b85811015612a9f57612a8d8b88845188010161261a565b84529286019290860190600101612a76565b5096999098509650505050505050565b60008060408385031215612ac1578182fd5b82359150602083013567ffffffffffffffff811115612ade578182fd5b61293a858286016125cc565b600060208284031215612afb578081fd5b81356106bd81613871565b60008060408385031215612b18578182fd5b8235612b2381613871565b91506020830135612b338161383e565b809150509250929050565b600080600060608486031215612b52578081fd5b8335612b5d81613871565b92506020840135612b6d8161383e565b9150604084013567ffffffffffffffff811115612b88578182fd5b612b94868287016125cc565b9150509250925092565b600080600060608486031215612bb2578081fd5b8335612bbd81613871565b92506020840135612bcd8161383e565b91506040840135612bdd8161383e565b809150509250925092565b60008060408385031215612bfa578182fd5b8235612c058161383e565b946020939093013593505050565b600060208284031215612c24578081fd5b813567ffffffffffffffff811115612c3a578182fd5b612119848285016125cc565b600060208284031215612c57578081fd5b813567ffffffffffffffff811115612c6d578182fd5b61211984828501612722565b600060208284031215612c8a578081fd5b813567ffffffffffffffff811115612ca0578182fd5b612119848285016127ac565b60008060408385031215612cbe578182fd5b823567ffffffffffffffff80821115612cd5578384fd5b612ce1868387016127ac565b93506020850135915080821115612cf6578283fd5b5061293a858286016125cc565b60008060408385031215612d15578182fd5b823567ffffffffffffffff811115612d2b578283fd5b612d37858286016127ac565b95602094909401359450505050565b600060208284031215612d57578081fd5b5051919050565b60008060008060608587031215612d73578182fd5b84359350602085013567ffffffffffffffff80821115612d91578384fd5b81870188601f820112612da2578485fd5b8035925081831115612db2578485fd5b886020848301011115612dc3578485fd5b6020019450909250506040850135612dda81613863565b939692955090935050565b60008060408385031215612df7578182fd5b50508035926020909101359150565b6000815180845260208085018081965082840281019150828601855b85811015612e825782840389528151606073ffffffffffffffffffffffffffffffffffffffff825116865286820151878701526040808301518282890152612e6c83890182612e8f565b9c89019c97505050928601925050600101612e22565b5091979650505050505050565b60008151808452612ea7816020860160208601613812565b601f017fffffffffffffffffffffffffffffffffffffffffffffffffffffffffffffffe0169290920160200192915050565b805173ffffffffffffffffffffffffffffffffffffffff168252602090810151910152565b6000815183526020820151612f166020850182612ed9565b506040820151612f296060850182612ed9565b5073ffffffffffffffffffffffffffffffffffffffff60608301511660a0840152608082015160e060c085015261211960e0850182612e8f565b60008151835260208201516020840152604082015173ffffffffffffffffffffffffffffffffffffffff80821660408601528060608501511660608601525050608082015160e06080850152612fbc60e0850182612e06565b60a084015160a086015260c0840151915084810360c08601526121c98183612e8f565b60008251612ff1818460208701613812565b9190910192915050565b7f61636c0000000000000000000000000000000000000000000000000000000000815260030190565b7f657263336b2d7631000000000000000000000000000000000000000000000000815260609490941b7fffffffffffffffffffffffffffffffffffffffff000000000000000000000000166008850152601c840192909252603c830152605c820152607c0190565b96875260208701959095527fffffffffffffffffffffffffffffffffffffffff000000000000000000000000606094851b811660408801529290931b90911660548501526068840152608883015260a882015260c80190565b73ffffffffffffffffffffffffffffffffffffffff91909116815260200190565b73ffffffffffffffffffffffffffffffffffffffff9384168152919092166020820152604081019190915260600190565b73ffffffffffffffffffffffffffffffffffffffff929092168252602082015260400190565b6000602082526106bd6020830184612e06565b6000606082526131836060830186612e06565b60208301949094525060400152919050565b901515815260200190565b90815260200190565b600060408201848352602060408185015281855180845260608601915060608382028701019350828701855b82811015613221577fffffffffffffffffffffffffffffffffffffffffffffffffffffffffffffffa088870301845261320f868351612e8f565b955092840192908401906001016131d5565b509398975050505050505050565b7fffffffff0000000000000000000000000000000000000000000000000000000091909116815260200190565b60007fffffffff000000000000000000000000000000000000000000000000000000008516825273ffffffffffffffffffffffffffffffffffffffff84166020830152606060408301526121c96060830184612e8f565b6000602082526106bd6020830184612e8f565b6000604082526132d96040830185612e8f565b905082151560208301529392505050565b6000608082526132fd6080830186612e8f565b90508360208301526121196040830184612ed9565b602081016007831061332057fe5b91905290565b6000838252604060208301526121196040830184612e8f565b60208082526010908201527f71756575653a2062616420737461746500000000000000000000000000000000604082015260600190565b60208082526011908201527f71756575653a2062616420636f6e666967000000000000000000000000000000604082015260600190565b60208082526009908201527f61636c3a20617574680000000000000000000000000000000000000000000000604082015260600190565b60208082526010908201527f71756575653a20626164206e6f6e636500000000000000000000000000000000604082015260600190565b60208082526010908201527f71756575653a206261642064656c617900000000000000000000000000000000604082015260600190565b60208082526010908201527f71756575653a2062616420726573657400000000000000000000000000000000604082015260600190565b60208082526013908201527f71756575653a20626164206665652070756c6c00000000000000000000000000604082015260600190565b60208082526014908201527f71756575653a20626164207375626d6974746572000000000000000000000000604082015260600190565b6020808252600f908201527f71756575653a2065766964656e63650000000000000000000000000000000000604082015260600190565b6020808252600b908201527f61636c3a2066726f7a656e000000000000000000000000000000000000000000604082015260600190565b60208082526012908201527f71756575653a2062616420617070726f76650000000000000000000000000000604082015260600190565b60208082526015908201527f71756575653a206261642073656e6420746f6b656e0000000000000000000000604082015260600190565b60208082526022908201527f696e697469616c697a61626c653a20616c726561647920696e697469616c697a60408201527f6564000000000000000000000000000000000000000000000000000000000000606082015260800190565b60208082526010908201527f71756575653a2077616974206d6f726500000000000000000000000000000000604082015260600190565b60208082526014908201527f71756575653a206261642067657420746f6b656e000000000000000000000000604082015260600190565b6020808252600f908201527f61636c3a2062616420667265657a650000000000000000000000000000000000604082015260600190565b60208082526011908201527f71756575653a20756e7265736f6c766564000000000000000000000000000000604082015260600190565b6000602082526106bd6020830184612efe565b60006020825282516040602084015261373b6060840182612f63565b602085015191507fffffffffffffffffffffffffffffffffffffffffffffffffffffffffffffffe08482030160408501526121c98183612efe565b6000602082526106bd6020830184612f63565b60405181810167ffffffffffffffff811182821017156137a857600080fd5b604052919050565b600067ffffffffffffffff8211156137c6578081fd5b5060209081020190565b600067ffffffffffffffff8211156137e6578081fd5b50601f017fffffffffffffffffffffffffffffffffffffffffffffffffffffffffffffffe01660200190565b60005b8381101561382d578181015183820152602001613815565b838111156117265750506000910152565b73ffffffffffffffffffffffffffffffffffffffff8116811461386057600080fd5b50565b801515811461386057600080fd5b7fffffffff000000000000000000000000000000000000000000000000000000008116811461386057600080fdfea264697066735822122097e187a17f4c8613758160880a23c01440579ce7b8548b427685e211b4c65b6264736f6c634300060800337bc2a48a4a566e237a12186f19d985b0f76afc9d5290601edac19876253670c2",
			"opcodes": "PUSH1 0x80 PUSH1 0x40 MSTORE CALLVALUE DUP1 ISZERO PUSH3 0x11 JUMPI PUSH1 0x0 DUP1 REVERT JUMPDEST POP PUSH1 0x40 MLOAD PUSH3 0x415C CODESIZE SUB DUP1 PUSH3 0x415C DUP4 CODECOPY DUP2 ADD PUSH1 0x40 DUP2 SWAP1 MSTORE PUSH3 0x34 SWAP2 PUSH3 0x5A4 JUMP JUMPDEST DUP2 DUP1 PUSH1 0x2 PUSH1 0x40 MLOAD PUSH3 0x46 SWAP1 PUSH3 0x6AA JUMP JUMPDEST SWAP1 DUP2 MSTORE PUSH1 0x20 ADD PUSH1 0x40 MLOAD DUP1 SWAP2 SUB SWAP1 KECCAK256 SLOAD PUSH1 0x0 EQ ISZERO PUSH3 0x72 JUMPI PUSH3 0x72 DUP2 PUSH1 0x1 PUSH1 0x1 PUSH1 0xE0 SHL SUB PUSH3 0x92 AND JUMP JUMPDEST POP PUSH3 0x8A SWAP1 POP DUP3 DUP3 PUSH1 0x1 PUSH1 0x1 PUSH1 0xE0 SHL SUB PUSH3 0x16C AND JUMP JUMPDEST POP POP PUSH3 0x857 JUMP JUMPDEST PUSH1 0x40 MLOAD DUP1 PUSH1 0x40 ADD PUSH1 0x40 MSTORE DUP1 PUSH1 0x3 DUP2 MSTORE PUSH1 0x20 ADD PUSH3 0x1858DB PUSH1 0xEA SHL DUP2 MSTORE POP PUSH1 0x2 DUP2 PUSH1 0x40 MLOAD PUSH3 0xC0 SWAP2 SWAP1 PUSH3 0x68C JUMP JUMPDEST SWAP1 DUP2 MSTORE PUSH1 0x20 ADD PUSH1 0x40 MLOAD DUP1 SWAP2 SUB SWAP1 KECCAK256 SLOAD PUSH1 0x0 EQ PUSH3 0xFA JUMPI PUSH1 0x40 MLOAD PUSH3 0x461BCD PUSH1 0xE5 SHL DUP2 MSTORE PUSH1 0x4 ADD PUSH3 0xF1 SWAP1 PUSH3 0x707 JUMP JUMPDEST PUSH1 0x40 MLOAD DUP1 SWAP2 SUB SWAP1 REVERT JUMPDEST NUMBER PUSH1 0x2 DUP3 PUSH1 0x40 MLOAD PUSH3 0x10D SWAP2 SWAP1 PUSH3 0x68C JUMP JUMPDEST SWAP1 DUP2 MSTORE PUSH1 0x40 MLOAD SWAP1 DUP2 SWAP1 SUB PUSH1 0x20 ADD SWAP1 KECCAK256 SSTORE PUSH3 0x139 PUSH4 0x161B7D81 PUSH1 0xE2 SHL DUP4 PUSH1 0x1 PUSH1 0x1 PUSH1 0xE0 SHL SUB PUSH3 0x2AD AND JUMP JUMPDEST DUP1 PUSH1 0x40 MLOAD PUSH3 0x149 SWAP2 SWAP1 PUSH3 0x68C JUMP JUMPDEST PUSH1 0x40 MLOAD SWAP1 DUP2 SWAP1 SUB DUP2 KECCAK256 SWAP1 PUSH1 0x0 DUP1 MLOAD PUSH1 0x20 PUSH3 0x413C DUP4 CODECOPY DUP2 MLOAD SWAP2 MSTORE SWAP1 PUSH1 0x0 SWAP1 LOG2 POP POP JUMP JUMPDEST DUP2 PUSH1 0x2 PUSH1 0x40 MLOAD PUSH3 0x17D SWAP1 PUSH3 0x6AA JUMP JUMPDEST SWAP1 DUP2 MSTORE PUSH1 0x20 ADD PUSH1 0x40 MLOAD DUP1 SWAP2 SUB SWAP1 KECCAK256 SLOAD PUSH1 0x0 EQ ISZERO PUSH3 0x1A9 JUMPI PUSH3 0x1A9 DUP2 PUSH1 0x1 PUSH1 0x1 PUSH1 0xE0 SHL SUB PUSH3 0x92 AND JUMP JUMPDEST PUSH1 0x40 MLOAD DUP1 PUSH1 0x40 ADD PUSH1 0x40 MSTORE DUP1 PUSH1 0x5 DUP2 MSTORE PUSH1 0x20 ADD PUSH5 0x7175657565 PUSH1 0xD8 SHL DUP2 MSTORE POP PUSH1 0x2 DUP2 PUSH1 0x40 MLOAD PUSH3 0x1D9 SWAP2 SWAP1 PUSH3 0x68C JUMP JUMPDEST SWAP1 DUP2 MSTORE PUSH1 0x20 ADD PUSH1 0x40 MLOAD DUP1 SWAP2 SUB SWAP1 KECCAK256 SLOAD PUSH1 0x0 EQ PUSH3 0x20A JUMPI PUSH1 0x40 MLOAD PUSH3 0x461BCD PUSH1 0xE5 SHL DUP2 MSTORE PUSH1 0x4 ADD PUSH3 0xF1 SWAP1 PUSH3 0x707 JUMP JUMPDEST NUMBER PUSH1 0x2 DUP3 PUSH1 0x40 MLOAD PUSH3 0x21D SWAP2 SWAP1 PUSH3 0x68C JUMP JUMPDEST SWAP1 DUP2 MSTORE PUSH1 0x40 MLOAD SWAP1 DUP2 SWAP1 SUB PUSH1 0x20 ADD SWAP1 KECCAK256 SSTORE PUSH3 0x241 DUP4 PUSH1 0x1 PUSH1 0x1 PUSH1 0xE0 SHL SUB PUSH3 0x2C8 AND JUMP JUMPDEST POP PUSH3 0x25D PUSH4 0x88F3EE69 PUSH1 0xE0 SHL PUSH1 0x1 PUSH1 0x1 PUSH1 0xE0 SHL SUB PUSH3 0x32A AND JUMP JUMPDEST PUSH3 0x278 PUSH4 0x22F8EA55 PUSH1 0xE1 SHL PUSH1 0x1 PUSH1 0x1 PUSH1 0xE0 SHL SUB PUSH3 0x32A AND JUMP JUMPDEST DUP1 PUSH1 0x40 MLOAD PUSH3 0x288 SWAP2 SWAP1 PUSH3 0x68C JUMP JUMPDEST PUSH1 0x40 MLOAD SWAP1 DUP2 SWAP1 SUB DUP2 KECCAK256 SWAP1 PUSH1 0x0 DUP1 MLOAD PUSH1 0x20 PUSH3 0x413C DUP4 CODECOPY DUP2 MLOAD SWAP2 MSTORE SWAP1 PUSH1 0x0 SWAP1 LOG2 POP POP POP POP JUMP JUMPDEST PUSH3 0x2C4 DUP3 DUP3 PUSH1 0x2 PUSH1 0x1 PUSH1 0x1 PUSH1 0xE0 SHL SUB PUSH3 0x38B AND JUMP JUMPDEST POP POP JUMP JUMPDEST PUSH1 0x0 PUSH3 0x2E0 DUP3 PUSH3 0x475 PUSH1 0x20 SHL PUSH3 0x19BF OR PUSH1 0x20 SHR JUMP JUMPDEST PUSH1 0x4 DUP2 SWAP1 SSTORE PUSH1 0x40 MLOAD CALLER SWAP2 SWAP1 PUSH32 0xA61DCDFCDFC6DA74A563DE8455CC4AE6D6C9D0B442EB2F7309E6B31E4680D79 SWAP1 PUSH3 0x31A SWAP1 DUP7 SWAP1 PUSH3 0x772 JUMP JUMPDEST PUSH1 0x40 MLOAD DUP1 SWAP2 SUB SWAP1 LOG3 POP POP PUSH1 0x4 SLOAD SWAP1 JUMP JUMPDEST PUSH1 0x1 PUSH1 0x1 PUSH1 0xE0 SHL SUB NOT DUP2 AND PUSH1 0x0 SWAP1 DUP2 MSTORE PUSH1 0x20 DUP2 SWAP1 MSTORE PUSH1 0x40 SWAP1 DUP2 SWAP1 KECCAK256 DUP1 SLOAD PUSH1 0xFF NOT AND PUSH1 0x1 OR SWAP1 SSTORE MLOAD PUSH32 0xBF5E1F87F5AB65B58074CD29244D7C487A948983CDA4B932E0F966B62BD34ACA SWAP1 PUSH3 0x380 SWAP1 DUP4 SWAP1 PUSH3 0x6B9 JUMP JUMPDEST PUSH1 0x40 MLOAD DUP1 SWAP2 SUB SWAP1 LOG1 POP JUMP JUMPDEST PUSH3 0x39F DUP4 PUSH1 0x1 PUSH1 0x1 PUSH1 0xE0 SHL SUB PUSH3 0x4A7 AND JUMP JUMPDEST ISZERO PUSH3 0x3BF JUMPI PUSH1 0x40 MLOAD PUSH3 0x461BCD PUSH1 0xE5 SHL DUP2 MSTORE PUSH1 0x4 ADD PUSH3 0xF1 SWAP1 PUSH3 0x6E2 JUMP JUMPDEST PUSH1 0x1 PUSH1 0x1 PUSH1 0xA0 SHL SUB DUP3 AND PUSH1 0x1 EQ ISZERO PUSH3 0x3EC JUMPI PUSH1 0x40 MLOAD PUSH3 0x461BCD PUSH1 0xE5 SHL DUP2 MSTORE PUSH1 0x4 ADD PUSH3 0xF1 SWAP1 PUSH3 0x749 JUMP JUMPDEST PUSH1 0x1 PUSH1 0x1 PUSH1 0xE0 SHL SUB NOT DUP4 AND PUSH1 0x0 DUP2 DUP2 MSTORE PUSH1 0x3 PUSH1 0x20 SWAP1 DUP2 MSTORE PUSH1 0x40 DUP1 DUP4 KECCAK256 PUSH1 0x1 PUSH1 0x1 PUSH1 0xA0 SHL SUB DUP8 DUP2 AND DUP1 DUP7 MSTORE SWAP2 SWAP1 SWAP4 MSTORE SWAP3 DUP2 SWAP1 KECCAK256 DUP1 SLOAD PUSH1 0x1 PUSH1 0x1 PUSH1 0xA0 SHL SUB NOT AND SWAP3 DUP7 AND SWAP3 SWAP1 SWAP3 OR SWAP1 SWAP2 SSTORE MLOAD SWAP1 SWAP2 CALLER SWAP2 PUSH32 0xC62063B81F7036FD97A0DC546516E99F11004D2D76CA0FDDD3866346C86E7091 SWAP1 PUSH3 0x468 SWAP1 DUP7 SWAP1 PUSH3 0x6CE JUMP JUMPDEST PUSH1 0x40 MLOAD DUP1 SWAP2 SUB SWAP1 LOG4 POP POP POP JUMP JUMPDEST PUSH1 0x0 DUP2 PUSH1 0x40 MLOAD PUSH1 0x20 ADD PUSH3 0x48A SWAP2 SWAP1 PUSH3 0x772 JUMP JUMPDEST PUSH1 0x40 MLOAD PUSH1 0x20 DUP2 DUP4 SUB SUB DUP2 MSTORE SWAP1 PUSH1 0x40 MSTORE DUP1 MLOAD SWAP1 PUSH1 0x20 ADD KECCAK256 SWAP1 POP SWAP2 SWAP1 POP JUMP JUMPDEST PUSH1 0x1 PUSH1 0x1 PUSH1 0xE0 SHL SUB NOT AND PUSH1 0x0 SWAP1 DUP2 MSTORE PUSH1 0x3 PUSH1 0x20 SWAP1 DUP2 MSTORE PUSH1 0x40 DUP1 DUP4 KECCAK256 PUSH1 0x1 DUP1 DUP6 MSTORE SWAP3 MSTORE SWAP1 SWAP2 KECCAK256 SLOAD PUSH1 0x1 PUSH1 0x1 PUSH1 0xA0 SHL SUB AND EQ SWAP1 JUMP JUMPDEST DUP1 MLOAD PUSH1 0x1 PUSH1 0x1 PUSH1 0xA0 SHL SUB DUP2 AND DUP2 EQ PUSH3 0x4F2 JUMPI PUSH1 0x0 DUP1 REVERT JUMPDEST SWAP3 SWAP2 POP POP JUMP JUMPDEST PUSH1 0x0 DUP3 PUSH1 0x1F DUP4 ADD SLT PUSH3 0x509 JUMPI DUP1 DUP2 REVERT JUMPDEST DUP2 MLOAD PUSH1 0x1 PUSH1 0x1 PUSH1 0x40 SHL SUB DUP2 GT ISZERO PUSH3 0x51F JUMPI DUP2 DUP3 REVERT JUMPDEST PUSH3 0x534 PUSH1 0x1F DUP3 ADD PUSH1 0x1F NOT AND PUSH1 0x20 ADD PUSH3 0x7FD JUMP JUMPDEST SWAP2 POP DUP1 DUP3 MSTORE DUP4 PUSH1 0x20 DUP3 DUP6 ADD ADD GT ISZERO PUSH3 0x54C JUMPI PUSH1 0x0 DUP1 REVERT JUMPDEST PUSH3 0x55F DUP2 PUSH1 0x20 DUP5 ADD PUSH1 0x20 DUP7 ADD PUSH3 0x824 JUMP JUMPDEST POP SWAP3 SWAP2 POP POP JUMP JUMPDEST PUSH1 0x0 PUSH1 0x40 DUP3 DUP5 SUB SLT ISZERO PUSH3 0x578 JUMPI DUP1 DUP2 REVERT JUMPDEST PUSH3 0x584 PUSH1 0x40 PUSH3 0x7FD JUMP JUMPDEST SWAP1 POP PUSH3 0x592 DUP4 DUP4 PUSH3 0x4DA JUMP JUMPDEST DUP2 MSTORE PUSH1 0x20 DUP3 ADD MLOAD PUSH1 0x20 DUP3 ADD MSTORE SWAP3 SWAP2 POP POP JUMP JUMPDEST PUSH1 0x0 DUP1 PUSH1 0x40 DUP4 DUP6 SUB SLT ISZERO PUSH3 0x5B7 JUMPI DUP2 DUP3 REVERT JUMPDEST PUSH3 0x5C3 DUP5 DUP5 PUSH3 0x4DA JUMP JUMPDEST PUSH1 0x20 DUP5 ADD MLOAD SWAP1 SWAP3 POP PUSH1 0x1 PUSH1 0x1 PUSH1 0x40 SHL SUB DUP1 DUP3 GT ISZERO PUSH3 0x5E0 JUMPI DUP3 DUP4 REVERT JUMPDEST DUP2 DUP6 ADD PUSH1 0xE0 DUP2 DUP9 SUB SLT ISZERO PUSH3 0x5F3 JUMPI DUP4 DUP5 REVERT JUMPDEST PUSH3 0x5FF PUSH1 0xA0 PUSH3 0x7FD JUMP JUMPDEST SWAP3 POP DUP1 MLOAD DUP4 MSTORE PUSH3 0x614 DUP8 PUSH1 0x20 DUP4 ADD PUSH3 0x566 JUMP JUMPDEST PUSH1 0x20 DUP5 ADD MSTORE PUSH3 0x628 DUP8 PUSH1 0x60 DUP4 ADD PUSH3 0x566 JUMP JUMPDEST PUSH1 0x40 DUP5 ADD MSTORE PUSH3 0x63C DUP8 PUSH1 0xA0 DUP4 ADD PUSH3 0x4DA JUMP JUMPDEST PUSH1 0x60 DUP5 ADD MSTORE PUSH1 0xC0 DUP2 ADD MLOAD DUP3 DUP2 GT ISZERO PUSH3 0x653 JUMPI DUP5 DUP6 REVERT JUMPDEST PUSH3 0x661 DUP9 DUP3 DUP5 ADD PUSH3 0x4F8 JUMP JUMPDEST PUSH1 0x80 DUP6 ADD MSTORE POP POP POP DUP1 SWAP2 POP POP SWAP3 POP SWAP3 SWAP1 POP JUMP JUMPDEST DUP1 MLOAD PUSH1 0x1 PUSH1 0x1 PUSH1 0xA0 SHL SUB AND DUP3 MSTORE PUSH1 0x20 SWAP1 DUP2 ADD MLOAD SWAP2 ADD MSTORE JUMP JUMPDEST PUSH1 0x0 DUP3 MLOAD PUSH3 0x6A0 DUP2 DUP5 PUSH1 0x20 DUP8 ADD PUSH3 0x824 JUMP JUMPDEST SWAP2 SWAP1 SWAP2 ADD SWAP3 SWAP2 POP POP JUMP JUMPDEST PUSH3 0x1858DB PUSH1 0xEA SHL DUP2 MSTORE PUSH1 0x3 ADD SWAP1 JUMP JUMPDEST PUSH1 0x1 PUSH1 0x1 PUSH1 0xE0 SHL SUB NOT SWAP2 SWAP1 SWAP2 AND DUP2 MSTORE PUSH1 0x20 ADD SWAP1 JUMP JUMPDEST PUSH1 0x1 PUSH1 0x1 PUSH1 0xA0 SHL SUB SWAP2 SWAP1 SWAP2 AND DUP2 MSTORE PUSH1 0x20 ADD SWAP1 JUMP JUMPDEST PUSH1 0x20 DUP1 DUP3 MSTORE PUSH1 0xB SWAP1 DUP3 ADD MSTORE PUSH11 0x30B1B61D10333937BD32B7 PUSH1 0xA9 SHL PUSH1 0x40 DUP3 ADD MSTORE PUSH1 0x60 ADD SWAP1 JUMP JUMPDEST PUSH1 0x20 DUP1 DUP3 MSTORE PUSH1 0x22 SWAP1 DUP3 ADD MSTORE PUSH32 0x696E697469616C697A61626C653A20616C726561647920696E697469616C697A PUSH1 0x40 DUP3 ADD MSTORE PUSH2 0x1959 PUSH1 0xF2 SHL PUSH1 0x60 DUP3 ADD MSTORE PUSH1 0x80 ADD SWAP1 JUMP JUMPDEST PUSH1 0x20 DUP1 DUP3 MSTORE PUSH1 0xF SWAP1 DUP3 ADD MSTORE PUSH15 0x61636C3A2062616420667265657A65 PUSH1 0x88 SHL PUSH1 0x40 DUP3 ADD MSTORE PUSH1 0x60 ADD SWAP1 JUMP JUMPDEST PUSH1 0x0 PUSH1 0x20 DUP3 MSTORE DUP3 MLOAD PUSH1 0x20 DUP4 ADD MSTORE PUSH1 0x20 DUP4 ADD MLOAD PUSH3 0x793 PUSH1 0x40 DUP5 ADD DUP3 PUSH3 0x674 JUMP JUMPDEST POP PUSH1 0x40 DUP4 ADD MLOAD PUSH3 0x7A8 PUSH1 0x80 DUP5 ADD DUP3 PUSH3 0x674 JUMP JUMPDEST POP PUSH1 0x60 DUP4 ADD MLOAD PUSH1 0x1 PUSH1 0x1 PUSH1 0xA0 SHL SUB AND PUSH1 0xC0 DUP4 ADD MSTORE PUSH1 0x80 DUP4 ADD MLOAD PUSH1 0xE0 DUP1 DUP5 ADD MSTORE DUP1 MLOAD PUSH2 0x100 DUP5 ADD DUP2 SWAP1 MSTORE PUSH2 0x120 PUSH3 0x7E6 DUP3 DUP3 DUP8 ADD PUSH1 0x20 DUP7 ADD PUSH3 0x824 JUMP JUMPDEST DUP1 PUSH1 0x1F NOT PUSH1 0x1F DUP5 ADD AND DUP7 ADD ADD SWAP4 POP POP POP POP SWAP3 SWAP2 POP POP JUMP JUMPDEST PUSH1 0x40 MLOAD DUP2 DUP2 ADD PUSH1 0x1 PUSH1 0x1 PUSH1 0x40 SHL SUB DUP2 GT DUP3 DUP3 LT OR ISZERO PUSH3 0x81C JUMPI PUSH1 0x0 DUP1 REVERT JUMPDEST PUSH1 0x40 MSTORE SWAP2 SWAP1 POP JUMP JUMPDEST PUSH1 0x0 JUMPDEST DUP4 DUP2 LT ISZERO PUSH3 0x841 JUMPI DUP2 DUP2 ADD MLOAD DUP4 DUP3 ADD MSTORE PUSH1 0x20 ADD PUSH3 0x827 JUMP JUMPDEST DUP4 DUP2 GT ISZERO PUSH3 0x851 JUMPI PUSH1 0x0 DUP5 DUP5 ADD MSTORE JUMPDEST POP POP POP POP JUMP JUMPDEST PUSH2 0x38D5 DUP1 PUSH3 0x867 PUSH1 0x0 CODECOPY PUSH1 0x0 RETURN INVALID PUSH1 0x80 PUSH1 0x40 MSTORE CALLVALUE DUP1 ISZERO PUSH2 0x10 JUMPI PUSH1 0x0 DUP1 REVERT JUMPDEST POP PUSH1 0x4 CALLDATASIZE LT PUSH2 0x1B9 JUMPI PUSH1 0x0 CALLDATALOAD PUSH1 0xE0 SHR DUP1 PUSH4 0x7C10DEA6 GT PUSH2 0xF9 JUMPI DUP1 PUSH4 0xB8EBE05E GT PUSH2 0x97 JUMPI DUP1 PUSH4 0xC04C87B8 GT PUSH2 0x71 JUMPI DUP1 PUSH4 0xC04C87B8 EQ PUSH2 0x3B7 JUMPI DUP1 PUSH4 0xC8182AF0 EQ PUSH2 0x3CA JUMPI DUP1 PUSH4 0xCC1D4CAB EQ PUSH2 0x3DD JUMPI DUP1 PUSH4 0xE1F1176D EQ PUSH2 0x3F0 JUMPI PUSH2 0x1B9 JUMP JUMPDEST DUP1 PUSH4 0xB8EBE05E EQ PUSH2 0x37E JUMPI DUP1 PUSH4 0xB9E9823F EQ PUSH2 0x391 JUMPI DUP1 PUSH4 0xBDF9A726 EQ PUSH2 0x3A4 JUMPI PUSH2 0x1B9 JUMP JUMPDEST DUP1 PUSH4 0x977D8964 GT PUSH2 0xD3 JUMPI DUP1 PUSH4 0x977D8964 EQ PUSH2 0x33D JUMPI DUP1 PUSH4 0xA157A10D EQ PUSH2 0x350 JUMPI DUP1 PUSH4 0xA2157227 EQ PUSH2 0x363 JUMPI DUP1 PUSH4 0xAFFED0E0 EQ PUSH2 0x376 JUMPI PUSH2 0x1B9 JUMP JUMPDEST DUP1 PUSH4 0x7C10DEA6 EQ PUSH2 0x2E8 JUMPI DUP1 PUSH4 0x7E8C7F08 EQ PUSH2 0x308 JUMPI DUP1 PUSH4 0x96FC8ABD EQ PUSH2 0x31D JUMPI PUSH2 0x1B9 JUMP JUMPDEST DUP1 PUSH4 0x3B1C5FC6 GT PUSH2 0x166 JUMPI DUP1 PUSH4 0x58849734 GT PUSH2 0x140 JUMPI DUP1 PUSH4 0x58849734 EQ PUSH2 0x29C JUMPI DUP1 PUSH4 0x59B6907A EQ PUSH2 0x2AF JUMPI DUP1 PUSH4 0x70576158 EQ PUSH2 0x2C2 JUMPI DUP1 PUSH4 0x72896761 EQ PUSH2 0x2D5 JUMPI PUSH2 0x1B9 JUMP JUMPDEST DUP1 PUSH4 0x3B1C5FC6 EQ PUSH2 0x256 JUMPI DUP1 PUSH4 0x495A9825 EQ PUSH2 0x276 JUMPI DUP1 PUSH4 0x55A33159 EQ PUSH2 0x289 JUMPI PUSH2 0x1B9 JUMP JUMPDEST DUP1 PUSH4 0x2A0D403E GT PUSH2 0x197 JUMPI DUP1 PUSH4 0x2A0D403E EQ PUSH2 0x20F JUMPI DUP1 PUSH4 0x311A6C56 EQ PUSH2 0x230 JUMPI DUP1 PUSH4 0x3A139C71 EQ PUSH2 0x243 JUMPI PUSH2 0x1B9 JUMP JUMPDEST DUP1 PUSH4 0x1FFC9A7 EQ PUSH2 0x1BE JUMPI DUP1 PUSH4 0x97C8108 EQ PUSH2 0x1E7 JUMPI DUP1 PUSH4 0x1C47671B EQ PUSH2 0x1FA JUMPI JUMPDEST PUSH1 0x0 DUP1 REVERT JUMPDEST PUSH2 0x1D1 PUSH2 0x1CC CALLDATASIZE PUSH1 0x4 PUSH2 0x2AEA JUMP JUMPDEST PUSH2 0x3F8 JUMP JUMPDEST PUSH1 0x40 MLOAD PUSH2 0x1DE SWAP2 SWAP1 PUSH2 0x3195 JUMP JUMPDEST PUSH1 0x40 MLOAD DUP1 SWAP2 SUB SWAP1 RETURN JUMPDEST PUSH2 0x1D1 PUSH2 0x1F5 CALLDATASIZE PUSH1 0x4 PUSH2 0x2B3E JUMP JUMPDEST PUSH2 0x442 JUMP JUMPDEST PUSH2 0x20D PUSH2 0x208 CALLDATASIZE PUSH1 0x4 PUSH2 0x2944 JUMP JUMPDEST PUSH2 0x6C4 JUMP JUMPDEST STOP JUMPDEST PUSH2 0x222 PUSH2 0x21D CALLDATASIZE PUSH1 0x4 PUSH2 0x2D03 JUMP JUMPDEST PUSH2 0x804 JUMP JUMPDEST PUSH1 0x40 MLOAD PUSH2 0x1DE SWAP3 SWAP2 SWAP1 PUSH2 0x31A9 JUMP JUMPDEST PUSH2 0x20D PUSH2 0x23E CALLDATASIZE PUSH1 0x4 PUSH2 0x2DE5 JUMP JUMPDEST PUSH2 0x99F JUMP JUMPDEST PUSH2 0x222 PUSH2 0x251 CALLDATASIZE PUSH1 0x4 PUSH2 0x2C79 JUMP JUMPDEST PUSH2 0xA60 JUMP JUMPDEST PUSH2 0x269 PUSH2 0x264 CALLDATASIZE PUSH1 0x4 PUSH2 0x2BE8 JUMP JUMPDEST PUSH2 0xB5F JUMP JUMPDEST PUSH1 0x40 MLOAD PUSH2 0x1DE SWAP2 SWAP1 PUSH2 0x31A0 JUMP JUMPDEST PUSH2 0x1D1 PUSH2 0x284 CALLDATASIZE PUSH1 0x4 PUSH2 0x2AEA JUMP JUMPDEST PUSH2 0xB7C JUMP JUMPDEST PUSH2 0x222 PUSH2 0x297 CALLDATASIZE PUSH1 0x4 PUSH2 0x2C79 JUMP JUMPDEST PUSH2 0xBD4 JUMP JUMPDEST PUSH2 0x20D PUSH2 0x2AA CALLDATASIZE PUSH1 0x4 PUSH2 0x2B06 JUMP JUMPDEST PUSH2 0xC91 JUMP JUMPDEST PUSH2 0x20D PUSH2 0x2BD CALLDATASIZE PUSH1 0x4 PUSH2 0x28F6 JUMP JUMPDEST PUSH2 0xD1A JUMP JUMPDEST PUSH2 0x269 PUSH2 0x2D0 CALLDATASIZE PUSH1 0x4 PUSH2 0x2CAC JUMP JUMPDEST PUSH2 0xE7E JUMP JUMPDEST PUSH2 0x269 PUSH2 0x2E3 CALLDATASIZE PUSH1 0x4 PUSH2 0x2C46 JUMP JUMPDEST PUSH2 0x1360 JUMP JUMPDEST PUSH2 0x2FB PUSH2 0x2F6 CALLDATASIZE PUSH1 0x4 PUSH2 0x2A01 JUMP JUMPDEST PUSH2 0x13D1 JUMP JUMPDEST PUSH1 0x40 MLOAD PUSH2 0x1DE SWAP2 SWAP1 PUSH2 0x3312 JUMP JUMPDEST PUSH2 0x310 PUSH2 0x13E6 JUMP JUMPDEST PUSH1 0x40 MLOAD PUSH2 0x1DE SWAP2 SWAP1 PUSH2 0x322F JUMP JUMPDEST PUSH2 0x330 PUSH2 0x32B CALLDATASIZE PUSH1 0x4 PUSH2 0x2B06 JUMP JUMPDEST PUSH2 0x140A JUMP JUMPDEST PUSH1 0x40 MLOAD PUSH2 0x1DE SWAP2 SWAP1 PUSH2 0x30E5 JUMP JUMPDEST PUSH2 0x269 PUSH2 0x34B CALLDATASIZE PUSH1 0x4 PUSH2 0x2C79 JUMP JUMPDEST PUSH2 0x143D JUMP JUMPDEST PUSH2 0x20D PUSH2 0x35E CALLDATASIZE PUSH1 0x4 PUSH2 0x2B06 JUMP JUMPDEST PUSH2 0x1613 JUMP JUMPDEST PUSH2 0x20D PUSH2 0x371 CALLDATASIZE PUSH1 0x4 PUSH2 0x2B9E JUMP JUMPDEST PUSH2 0x169C JUMP JUMPDEST PUSH2 0x269 PUSH2 0x172C JUMP JUMPDEST PUSH2 0x20D PUSH2 0x38C CALLDATASIZE PUSH1 0x4 PUSH2 0x2C79 JUMP JUMPDEST PUSH2 0x1732 JUMP JUMPDEST PUSH2 0x20D PUSH2 0x39F CALLDATASIZE PUSH1 0x4 PUSH2 0x2D5E JUMP JUMPDEST PUSH2 0x17F5 JUMP JUMPDEST PUSH2 0x20D PUSH2 0x3B2 CALLDATASIZE PUSH1 0x4 PUSH2 0x2AEA JUMP JUMPDEST PUSH2 0x180D JUMP JUMPDEST PUSH2 0x20D PUSH2 0x3C5 CALLDATASIZE PUSH1 0x4 PUSH2 0x2AAF JUMP JUMPDEST PUSH2 0x1899 JUMP JUMPDEST PUSH2 0x330 PUSH2 0x3D8 CALLDATASIZE PUSH1 0x4 PUSH2 0x2A01 JUMP JUMPDEST PUSH2 0x1974 JUMP JUMPDEST PUSH2 0x269 PUSH2 0x3EB CALLDATASIZE PUSH1 0x4 PUSH2 0x2C13 JUMP JUMPDEST PUSH2 0x199C JUMP JUMPDEST PUSH2 0x269 PUSH2 0x19B9 JUMP JUMPDEST PUSH32 0xFFFFFFFF00000000000000000000000000000000000000000000000000000000 DUP2 AND PUSH1 0x0 SWAP1 DUP2 MSTORE PUSH1 0x20 DUP2 SWAP1 MSTORE PUSH1 0x40 DUP2 KECCAK256 SLOAD PUSH1 0xFF AND DUP1 PUSH2 0x43C JUMPI POP PUSH2 0x43C DUP3 PUSH2 0x19EF JUMP JUMPDEST SWAP3 SWAP2 POP POP JUMP JUMPDEST PUSH32 0xFFFFFFFF00000000000000000000000000000000000000000000000000000000 DUP4 AND PUSH1 0x0 SWAP1 DUP2 MSTORE PUSH1 0x3 PUSH1 0x20 SWAP1 DUP2 MSTORE PUSH1 0x40 DUP1 DUP4 KECCAK256 CALLER DUP5 MSTORE SWAP1 SWAP2 MSTORE DUP2 KECCAK256 SLOAD PUSH20 0xFFFFFFFFFFFFFFFFFFFFFFFFFFFFFFFFFFFFFFFF AND DUP1 ISZERO PUSH2 0x57B JUMPI PUSH20 0xFFFFFFFFFFFFFFFFFFFFFFFFFFFFFFFFFFFFFFFF DUP2 AND PUSH1 0x2 EQ ISZERO PUSH2 0x4C4 JUMPI PUSH1 0x1 SWAP2 POP POP PUSH2 0x6BD JUMP JUMPDEST PUSH1 0x40 MLOAD PUSH32 0x97C810800000000000000000000000000000000000000000000000000000000 DUP2 MSTORE PUSH20 0xFFFFFFFFFFFFFFFFFFFFFFFFFFFFFFFFFFFFFFFF DUP3 AND SWAP1 PUSH4 0x97C8108 SWAP1 PUSH2 0x51A SWAP1 DUP9 SWAP1 DUP9 SWAP1 DUP9 SWAP1 PUSH1 0x4 ADD PUSH2 0x325C JUMP JUMPDEST PUSH1 0x20 PUSH1 0x40 MLOAD DUP1 DUP4 SUB DUP2 PUSH1 0x0 DUP8 DUP1 EXTCODESIZE ISZERO DUP1 ISZERO PUSH2 0x534 JUMPI PUSH1 0x0 DUP1 REVERT JUMPDEST POP GAS CALL ISZERO DUP1 ISZERO PUSH2 0x548 JUMPI RETURNDATASIZE PUSH1 0x0 DUP1 RETURNDATACOPY RETURNDATASIZE PUSH1 0x0 REVERT JUMPDEST POP POP POP POP PUSH1 0x40 MLOAD RETURNDATASIZE PUSH1 0x1F NOT PUSH1 0x1F DUP3 ADD AND DUP3 ADD DUP1 PUSH1 0x40 MSTORE POP DUP2 ADD SWAP1 PUSH2 0x56C SWAP2 SWAP1 PUSH2 0x29E5 JUMP JUMPDEST ISZERO PUSH2 0x57B JUMPI PUSH1 0x1 SWAP2 POP POP PUSH2 0x6BD JUMP JUMPDEST PUSH32 0xFFFFFFFF00000000000000000000000000000000000000000000000000000000 DUP6 AND PUSH1 0x0 SWAP1 DUP2 MSTORE PUSH1 0x3 PUSH1 0x20 SWAP1 DUP2 MSTORE PUSH1 0x40 DUP1 DUP4 KECCAK256 PUSH20 0xFFFFFFFFFFFFFFFFFFFFFFFFFFFFFFFFFFFFFFFF DUP1 DUP6 MSTORE SWAP3 MSTORE SWAP1 SWAP2 KECCAK256 SLOAD AND DUP1 ISZERO PUSH2 0x6B6 JUMPI PUSH20 0xFFFFFFFFFFFFFFFFFFFFFFFFFFFFFFFFFFFFFFFF DUP2 AND PUSH1 0x2 EQ ISZERO PUSH2 0x5FE JUMPI PUSH1 0x1 SWAP3 POP POP POP PUSH2 0x6BD JUMP JUMPDEST PUSH1 0x40 MLOAD PUSH32 0x97C810800000000000000000000000000000000000000000000000000000000 DUP2 MSTORE PUSH20 0xFFFFFFFFFFFFFFFFFFFFFFFFFFFFFFFFFFFFFFFF DUP3 AND SWAP1 PUSH4 0x97C8108 SWAP1 PUSH2 0x654 SWAP1 DUP10 SWAP1 DUP10 SWAP1 DUP10 SWAP1 PUSH1 0x4 ADD PUSH2 0x325C JUMP JUMPDEST PUSH1 0x20 PUSH1 0x40 MLOAD DUP1 DUP4 SUB DUP2 PUSH1 0x0 DUP8 DUP1 EXTCODESIZE ISZERO DUP1 ISZERO PUSH2 0x66E JUMPI PUSH1 0x0 DUP1 REVERT JUMPDEST POP GAS CALL ISZERO DUP1 ISZERO PUSH2 0x682 JUMPI RETURNDATASIZE PUSH1 0x0 DUP1 RETURNDATACOPY RETURNDATASIZE PUSH1 0x0 REVERT JUMPDEST POP POP POP POP PUSH1 0x40 MLOAD RETURNDATASIZE PUSH1 0x1F NOT PUSH1 0x1F DUP3 ADD AND DUP3 ADD DUP1 PUSH1 0x40 MSTORE POP DUP2 ADD SWAP1 PUSH2 0x6A6 SWAP2 SWAP1 PUSH2 0x29E5 JUMP JUMPDEST ISZERO PUSH2 0x6B6 JUMPI PUSH1 0x1 SWAP3 POP POP POP PUSH2 0x6BD JUMP JUMPDEST PUSH1 0x0 SWAP3 POP POP POP JUMPDEST SWAP4 SWAP3 POP POP POP JUMP JUMPDEST PUSH1 0x40 DUP1 MLOAD PUSH1 0x20 CALLDATASIZE PUSH1 0x1F DUP2 ADD DUP3 SWAP1 DIV DUP3 MUL DUP4 ADD DUP3 ADD SWAP1 SWAP4 MSTORE DUP3 DUP3 MSTORE PUSH32 0x586DF60400000000000000000000000000000000000000000000000000000000 SWAP3 PUSH2 0x727 SWAP3 DUP5 SWAP3 CALLER SWAP3 PUSH1 0x0 SWAP2 DUP2 SWAP1 DUP5 ADD DUP4 DUP3 DUP1 DUP3 DUP5 CALLDATACOPY PUSH1 0x0 SWAP3 ADD SWAP2 SWAP1 SWAP2 MSTORE POP PUSH2 0x442 SWAP3 POP POP POP JUMP JUMPDEST PUSH2 0x74C JUMPI PUSH1 0x40 MLOAD PUSH3 0x461BCD PUSH1 0xE5 SHL DUP2 MSTORE PUSH1 0x4 ADD PUSH2 0x743 SWAP1 PUSH2 0x33AD JUMP JUMPDEST PUSH1 0x40 MLOAD DUP1 SWAP2 SUB SWAP1 REVERT JUMPDEST PUSH1 0x0 JUMPDEST DUP3 MLOAD DUP2 LT ISZERO PUSH2 0x7FF JUMPI PUSH2 0x760 PUSH2 0x24A6 JUMP JUMPDEST DUP4 DUP3 DUP2 MLOAD DUP2 LT PUSH2 0x76C JUMPI INVALID JUMPDEST PUSH1 0x20 MUL PUSH1 0x20 ADD ADD MLOAD SWAP1 POP PUSH1 0x0 PUSH1 0x2 DUP2 GT ISZERO PUSH2 0x783 JUMPI INVALID JUMPDEST DUP2 MLOAD PUSH1 0x2 DUP2 GT ISZERO PUSH2 0x790 JUMPI INVALID JUMPDEST EQ ISZERO PUSH2 0x7AD JUMPI PUSH2 0x7A8 DUP2 PUSH1 0x20 ADD MLOAD DUP3 PUSH1 0x40 ADD MLOAD PUSH2 0x1A46 JUMP JUMPDEST PUSH2 0x7F6 JUMP JUMPDEST PUSH1 0x1 DUP2 MLOAD PUSH1 0x2 DUP2 GT ISZERO PUSH2 0x7BC JUMPI INVALID JUMPDEST EQ ISZERO PUSH2 0x7D4 JUMPI PUSH2 0x7A8 DUP2 PUSH1 0x20 ADD MLOAD DUP3 PUSH1 0x40 ADD MLOAD PUSH2 0x1A52 JUMP JUMPDEST PUSH1 0x2 DUP2 MLOAD PUSH1 0x2 DUP2 GT ISZERO PUSH2 0x7E3 JUMPI INVALID JUMPDEST EQ ISZERO PUSH2 0x7F6 JUMPI PUSH2 0x7F6 DUP2 PUSH1 0x20 ADD MLOAD PUSH2 0x1B20 JUMP JUMPDEST POP PUSH1 0x1 ADD PUSH2 0x74F JUMP JUMPDEST POP POP POP JUMP JUMPDEST PUSH1 0x0 PUSH1 0x60 PUSH1 0x0 PUSH2 0x813 DUP6 PUSH2 0x1BD8 JUMP JUMPDEST SWAP1 POP PUSH1 0x2 PUSH1 0x0 DUP3 DUP2 MSTORE PUSH1 0x6 PUSH1 0x20 DUP2 SWAP1 MSTORE PUSH1 0x40 SWAP1 SWAP2 KECCAK256 SLOAD PUSH1 0xFF AND SWAP1 DUP2 GT ISZERO PUSH2 0x836 JUMPI INVALID JUMPDEST EQ ISZERO PUSH2 0x8B0 JUMPI DUP5 PUSH1 0x20 ADD MLOAD PUSH1 0x60 ADD MLOAD PUSH20 0xFFFFFFFFFFFFFFFFFFFFFFFFFFFFFFFFFFFFFFFF AND PUSH4 0x8BB04875 DUP6 PUSH1 0x40 MLOAD DUP3 PUSH4 0xFFFFFFFF AND PUSH1 0xE0 SHL DUP2 MSTORE PUSH1 0x4 ADD PUSH2 0x87D SWAP2 SWAP1 PUSH2 0x31A0 JUMP JUMPDEST PUSH1 0x0 PUSH1 0x40 MLOAD DUP1 DUP4 SUB DUP2 PUSH1 0x0 DUP8 DUP1 EXTCODESIZE ISZERO DUP1 ISZERO PUSH2 0x897 JUMPI PUSH1 0x0 DUP1 REVERT JUMPDEST POP GAS CALL ISZERO DUP1 ISZERO PUSH2 0x8AB JUMPI RETURNDATASIZE PUSH1 0x0 DUP1 RETURNDATACOPY RETURNDATASIZE PUSH1 0x0 REVERT JUMPDEST POP POP POP POP JUMPDEST PUSH1 0x0 DUP2 DUP2 MSTORE PUSH1 0x6 PUSH1 0x20 MSTORE PUSH1 0x40 SWAP1 KECCAK256 SLOAD PUSH1 0xFF AND CALLER DUP3 PUSH32 0x27D8A5D945EB361475964ED2C71B8332B27AF2D630AB5DAF829D67AFD2584E6 PUSH1 0x3 DUP5 PUSH1 0x6 DUP2 GT ISZERO PUSH2 0x8F3 JUMPI INVALID JUMPDEST EQ PUSH1 0x40 MLOAD PUSH2 0x901 SWAP2 SWAP1 PUSH2 0x3195 JUMP JUMPDEST PUSH1 0x40 MLOAD DUP1 SWAP2 SUB SWAP1 LOG3 PUSH1 0x3 DUP2 PUSH1 0x6 DUP2 GT ISZERO PUSH2 0x917 JUMPI INVALID JUMPDEST EQ ISZERO PUSH2 0x931 JUMPI PUSH2 0x926 DUP7 PUSH2 0xBD4 JUMP JUMPDEST SWAP4 POP SWAP4 POP POP POP PUSH2 0x998 JUMP JUMPDEST PUSH1 0x4 DUP2 PUSH1 0x6 DUP2 GT ISZERO PUSH2 0x93F JUMPI INVALID JUMPDEST EQ PUSH2 0x95C JUMPI PUSH1 0x40 MLOAD PUSH3 0x461BCD PUSH1 0xE5 SHL DUP2 MSTORE PUSH1 0x4 ADD PUSH2 0x743 SWAP1 PUSH2 0x36D5 JUMP JUMPDEST PUSH2 0x965 DUP7 PUSH2 0x1732 JUMP JUMPDEST PUSH1 0x40 DUP1 MLOAD PUSH1 0x0 DUP1 DUP3 MSTORE PUSH1 0x20 DUP3 ADD SWAP1 SWAP3 MSTORE DUP2 PUSH2 0x990 JUMP JUMPDEST PUSH1 0x60 DUP2 MSTORE PUSH1 0x20 ADD SWAP1 PUSH1 0x1 SWAP1 SUB SWAP1 DUP2 PUSH2 0x97B JUMPI SWAP1 POP JUMPDEST POP SWAP4 POP SWAP4 POP POP POP JUMPDEST SWAP3 POP SWAP3 SWAP1 POP JUMP JUMPDEST CALLER PUSH1 0x0 DUP2 DUP2 MSTORE PUSH1 0x8 PUSH1 0x20 SWAP1 DUP2 MSTORE PUSH1 0x40 DUP1 DUP4 KECCAK256 DUP7 DUP5 MSTORE SWAP1 SWAP2 MSTORE SWAP1 KECCAK256 SLOAD PUSH2 0x9EC PUSH1 0x2 PUSH1 0x4 DUP6 EQ PUSH2 0x9CE JUMPI PUSH1 0x4 PUSH2 0x9D1 JUMP JUMPDEST PUSH1 0x3 JUMPDEST PUSH1 0x0 DUP5 DUP2 MSTORE PUSH1 0x6 PUSH1 0x20 MSTORE PUSH1 0x40 SWAP1 KECCAK256 SWAP2 SWAP1 PUSH4 0xFFFFFFFF PUSH2 0x1BFC AND JUMP JUMPDEST PUSH20 0xFFFFFFFFFFFFFFFFFFFFFFFFFFFFFFFFFFFFFFFF DUP3 AND PUSH1 0x0 DUP2 DUP2 MSTORE PUSH1 0x8 PUSH1 0x20 SWAP1 DUP2 MSTORE PUSH1 0x40 DUP1 DUP4 KECCAK256 DUP9 DUP5 MSTORE SWAP1 SWAP2 MSTORE DUP1 DUP3 KECCAK256 SWAP2 SWAP1 SWAP2 SSTORE MLOAD DUP6 SWAP2 SWAP1 PUSH32 0x56C8631A8915C0D362DBE57A61215FDDE954F73F81C8A3A1F55572FB015207B1 SWAP1 PUSH2 0xA52 SWAP1 DUP8 SWAP1 PUSH2 0x31A0 JUMP JUMPDEST PUSH1 0x40 MLOAD DUP1 SWAP2 SUB SWAP1 LOG3 POP POP POP POP JUMP JUMPDEST PUSH1 0x0 PUSH1 0x60 PUSH4 0x3A139C71 PUSH1 0xE0 SHL PUSH2 0xAAE DUP2 CALLER PUSH1 0x0 CALLDATASIZE DUP1 DUP1 PUSH1 0x1F ADD PUSH1 0x20 DUP1 SWAP2 DIV MUL PUSH1 0x20 ADD PUSH1 0x40 MLOAD SWAP1 DUP2 ADD PUSH1 0x40 MSTORE DUP1 SWAP4 SWAP3 SWAP2 SWAP1 DUP2 DUP2 MSTORE PUSH1 0x20 ADD DUP4 DUP4 DUP1 DUP3 DUP5 CALLDATACOPY PUSH1 0x0 SWAP3 ADD SWAP2 SWAP1 SWAP2 MSTORE POP PUSH2 0x442 SWAP3 POP POP POP JUMP JUMPDEST PUSH2 0xACA JUMPI PUSH1 0x40 MLOAD PUSH3 0x461BCD PUSH1 0xE5 SHL DUP2 MSTORE PUSH1 0x4 ADD PUSH2 0x743 SWAP1 PUSH2 0x33AD JUMP JUMPDEST DUP4 MLOAD PUSH1 0x20 ADD MLOAD PUSH8 0xFFFFFFFFFFFFFFFF TIMESTAMP AND LT ISZERO PUSH2 0xAF9 JUMPI PUSH1 0x40 MLOAD PUSH3 0x461BCD PUSH1 0xE5 SHL DUP2 MSTORE PUSH1 0x4 ADD PUSH2 0x743 SWAP1 PUSH2 0x3630 JUMP JUMPDEST PUSH1 0x0 PUSH2 0xB04 DUP6 PUSH2 0x1BD8 JUMP JUMPDEST PUSH1 0x0 DUP2 DUP2 MSTORE PUSH1 0x6 PUSH1 0x20 DUP2 SWAP1 MSTORE PUSH1 0x40 SWAP1 SWAP2 KECCAK256 SWAP2 SWAP3 POP PUSH2 0xB2B SWAP2 SWAP1 PUSH1 0x1 SWAP1 PUSH4 0xFFFFFFFF PUSH2 0x1BFC AND JUMP JUMPDEST DUP5 MLOAD PUSH1 0x40 ADD MLOAD PUSH1 0x20 DUP1 DUP8 ADD MLOAD ADD MLOAD PUSH2 0xB48 SWAP2 PUSH4 0xFFFFFFFF PUSH2 0x1C10 AND JUMP JUMPDEST DUP5 MLOAD PUSH2 0xB54 SWAP1 DUP3 PUSH2 0x1CCB JUMP JUMPDEST SWAP4 POP SWAP4 POP POP POP SWAP2 POP SWAP2 JUMP JUMPDEST PUSH1 0x8 PUSH1 0x20 SWAP1 DUP2 MSTORE PUSH1 0x0 SWAP3 DUP4 MSTORE PUSH1 0x40 DUP1 DUP5 KECCAK256 SWAP1 SWAP2 MSTORE SWAP1 DUP3 MSTORE SWAP1 KECCAK256 SLOAD DUP2 JUMP JUMPDEST PUSH32 0xFFFFFFFF00000000000000000000000000000000000000000000000000000000 AND PUSH1 0x0 SWAP1 DUP2 MSTORE PUSH1 0x3 PUSH1 0x20 SWAP1 DUP2 MSTORE PUSH1 0x40 DUP1 DUP4 KECCAK256 PUSH1 0x1 DUP1 DUP6 MSTORE SWAP3 MSTORE SWAP1 SWAP2 KECCAK256 SLOAD PUSH20 0xFFFFFFFFFFFFFFFFFFFFFFFFFFFFFFFFFFFFFFFF AND EQ SWAP1 JUMP JUMPDEST PUSH1 0x0 PUSH1 0x60 PUSH1 0x0 PUSH2 0xBE3 DUP5 PUSH2 0x1BD8 JUMP JUMPDEST PUSH1 0x0 DUP2 DUP2 MSTORE PUSH1 0x6 PUSH1 0x20 DUP2 SWAP1 MSTORE PUSH1 0x40 SWAP1 SWAP2 KECCAK256 SWAP2 SWAP3 POP PUSH2 0xC0A SWAP2 SWAP1 PUSH1 0x3 SWAP1 PUSH4 0xFFFFFFFF PUSH2 0x1BFC AND JUMP JUMPDEST DUP4 MLOAD PUSH1 0x40 ADD MLOAD PUSH1 0x20 DUP1 DUP7 ADD MLOAD ADD MLOAD PUSH2 0xC27 SWAP2 PUSH4 0xFFFFFFFF PUSH2 0x1C10 AND JUMP JUMPDEST DUP4 MLOAD PUSH1 0x40 SWAP1 DUP2 ADD MLOAD PUSH1 0x20 DUP7 ADD MLOAD SWAP1 SWAP2 ADD MLOAD PUSH2 0xC47 SWAP2 PUSH4 0xFFFFFFFF PUSH2 0x1C10 AND JUMP JUMPDEST PUSH1 0x0 DUP2 DUP2 MSTORE PUSH1 0x7 PUSH1 0x20 MSTORE PUSH1 0x40 SWAP1 KECCAK256 DUP1 SLOAD PUSH32 0xFFFFFFFFFFFFFFFFFFFFFFFF0000000000000000000000000000000000000000 AND SWAP1 SSTORE DUP4 MLOAD PUSH2 0xC87 SWAP1 DUP3 PUSH2 0x1CCB JUMP JUMPDEST SWAP3 POP SWAP3 POP POP SWAP2 POP SWAP2 JUMP JUMPDEST PUSH1 0x40 DUP1 MLOAD PUSH1 0x20 CALLDATASIZE PUSH1 0x1F DUP2 ADD DUP3 SWAP1 DIV DUP3 MUL DUP4 ADD DUP3 ADD SWAP1 SWAP4 MSTORE DUP3 DUP3 MSTORE PUSH32 0x586DF60400000000000000000000000000000000000000000000000000000000 SWAP3 PUSH2 0xCF4 SWAP3 DUP5 SWAP3 CALLER SWAP3 PUSH1 0x0 SWAP2 DUP2 SWAP1 DUP5 ADD DUP4 DUP3 DUP1 DUP3 DUP5 CALLDATACOPY PUSH1 0x0 SWAP3 ADD SWAP2 SWAP1 SWAP2 MSTORE POP PUSH2 0x442 SWAP3 POP POP POP JUMP JUMPDEST PUSH2 0xD10 JUMPI PUSH1 0x40 MLOAD PUSH3 0x461BCD PUSH1 0xE5 SHL DUP2 MSTORE PUSH1 0x4 ADD PUSH2 0x743 SWAP1 PUSH2 0x33AD JUMP JUMPDEST PUSH2 0x7FF DUP4 DUP4 PUSH2 0x1A52 JUMP JUMPDEST DUP2 PUSH1 0x2 PUSH1 0x40 MLOAD PUSH2 0xD29 SWAP1 PUSH2 0x2FFB JUMP JUMPDEST SWAP1 DUP2 MSTORE PUSH1 0x20 ADD PUSH1 0x40 MLOAD DUP1 SWAP2 SUB SWAP1 KECCAK256 SLOAD PUSH1 0x0 EQ ISZERO PUSH2 0xD49 JUMPI PUSH2 0xD49 DUP2 PUSH2 0x1DC5 JUMP JUMPDEST PUSH1 0x40 MLOAD DUP1 PUSH1 0x40 ADD PUSH1 0x40 MSTORE DUP1 PUSH1 0x5 DUP2 MSTORE PUSH1 0x20 ADD PUSH32 0x7175657565000000000000000000000000000000000000000000000000000000 DUP2 MSTORE POP PUSH1 0x2 DUP2 PUSH1 0x40 MLOAD PUSH2 0xD8F SWAP2 SWAP1 PUSH2 0x2FDF JUMP JUMPDEST SWAP1 DUP2 MSTORE PUSH1 0x20 ADD PUSH1 0x40 MLOAD DUP1 SWAP2 SUB SWAP1 KECCAK256 SLOAD PUSH1 0x0 EQ PUSH2 0xDBD JUMPI PUSH1 0x40 MLOAD PUSH3 0x461BCD PUSH1 0xE5 SHL DUP2 MSTORE PUSH1 0x4 ADD PUSH2 0x743 SWAP1 PUSH2 0x35D3 JUMP JUMPDEST NUMBER PUSH1 0x2 DUP3 PUSH1 0x40 MLOAD PUSH2 0xDCE SWAP2 SWAP1 PUSH2 0x2FDF JUMP JUMPDEST SWAP1 DUP2 MSTORE PUSH1 0x40 MLOAD SWAP1 DUP2 SWAP1 SUB PUSH1 0x20 ADD SWAP1 KECCAK256 SSTORE PUSH2 0xDE7 DUP4 PUSH2 0x1EC6 JUMP JUMPDEST POP PUSH2 0xE11 PUSH32 0x88F3EE6900000000000000000000000000000000000000000000000000000000 PUSH2 0x1F19 JUMP JUMPDEST PUSH2 0xE3A PUSH32 0x45F1D4AA00000000000000000000000000000000000000000000000000000000 PUSH2 0x1F19 JUMP JUMPDEST DUP1 PUSH1 0x40 MLOAD PUSH2 0xE48 SWAP2 SWAP1 PUSH2 0x2FDF JUMP JUMPDEST PUSH1 0x40 MLOAD SWAP1 DUP2 SWAP1 SUB DUP2 KECCAK256 SWAP1 PUSH32 0x7BC2A48A4A566E237A12186F19D985B0F76AFC9D5290601EDAC19876253670C2 SWAP1 PUSH1 0x0 SWAP1 LOG2 POP POP POP POP JUMP JUMPDEST PUSH1 0x0 PUSH4 0x70576158 PUSH1 0xE0 SHL PUSH2 0xECA DUP2 CALLER PUSH1 0x0 CALLDATASIZE DUP1 DUP1 PUSH1 0x1F ADD PUSH1 0x20 DUP1 SWAP2 DIV MUL PUSH1 0x20 ADD PUSH1 0x40 MLOAD SWAP1 DUP2 ADD PUSH1 0x40 MSTORE DUP1 SWAP4 SWAP3 SWAP2 SWAP1 DUP2 DUP2 MSTORE PUSH1 0x20 ADD DUP4 DUP4 DUP1 DUP3 DUP5 CALLDATACOPY PUSH1 0x0 SWAP3 ADD SWAP2 SWAP1 SWAP2 MSTORE POP PUSH2 0x442 SWAP3 POP POP POP JUMP JUMPDEST PUSH2 0xEE6 JUMPI PUSH1 0x40 MLOAD PUSH3 0x461BCD PUSH1 0xE5 SHL DUP2 MSTORE PUSH1 0x4 ADD PUSH2 0x743 SWAP1 PUSH2 0x33AD JUMP JUMPDEST PUSH1 0x0 PUSH2 0xEF1 DUP6 PUSH2 0x1BD8 JUMP JUMPDEST PUSH1 0x0 DUP2 DUP2 MSTORE PUSH1 0x7 PUSH1 0x20 SWAP1 DUP2 MSTORE PUSH1 0x40 DUP1 DUP4 KECCAK256 DUP1 SLOAD PUSH32 0xFFFFFFFFFFFFFFFFFFFFFFFF0000000000000000000000000000000000000000 AND CALLER OR SWAP1 SSTORE PUSH1 0x6 SWAP1 SWAP2 MSTORE SWAP1 KECCAK256 SWAP1 SWAP2 POP PUSH2 0xF47 SWAP1 PUSH1 0x1 PUSH1 0x2 PUSH4 0xFFFFFFFF PUSH2 0x1BFC AND JUMP JUMPDEST PUSH2 0xF4F PUSH2 0x24C8 JUMP JUMPDEST POP PUSH1 0x20 DUP6 ADD MLOAD PUSH1 0x40 ADD MLOAD PUSH2 0xF69 DUP2 CALLER PUSH4 0xFFFFFFFF PUSH2 0x1FAE AND JUMP JUMPDEST PUSH1 0x0 DUP7 PUSH1 0x20 ADD MLOAD PUSH1 0x60 ADD MLOAD SWAP1 POP PUSH1 0x0 DUP1 PUSH1 0x0 DUP4 PUSH20 0xFFFFFFFFFFFFFFFFFFFFFFFFFFFFFFFFFFFFFFFF AND PUSH4 0x7B751B9E PUSH1 0x40 MLOAD DUP2 PUSH4 0xFFFFFFFF AND PUSH1 0xE0 SHL DUP2 MSTORE PUSH1 0x4 ADD PUSH1 0x60 PUSH1 0x40 MLOAD DUP1 DUP4 SUB DUP2 DUP7 DUP1 EXTCODESIZE ISZERO DUP1 ISZERO PUSH2 0xFC1 JUMPI PUSH1 0x0 DUP1 REVERT JUMPDEST POP GAS STATICCALL ISZERO DUP1 ISZERO PUSH2 0xFD5 JUMPI RETURNDATASIZE PUSH1 0x0 DUP1 RETURNDATACOPY RETURNDATASIZE PUSH1 0x0 REVERT JUMPDEST POP POP POP POP PUSH1 0x40 MLOAD RETURNDATASIZE PUSH1 0x1F NOT PUSH1 0x1F DUP3 ADD AND DUP3 ADD DUP1 PUSH1 0x40 MSTORE POP DUP2 ADD SWAP1 PUSH2 0xFF9 SWAP2 SWAP1 PUSH2 0x28B4 JUMP JUMPDEST SWAP2 SWAP5 POP SWAP3 POP SWAP1 POP PUSH2 0x1028 PUSH20 0xFFFFFFFFFFFFFFFFFFFFFFFFFFFFFFFFFFFFFFFF DUP4 AND CALLER ADDRESS DUP5 PUSH4 0xFFFFFFFF PUSH2 0x206B AND JUMP JUMPDEST PUSH2 0x1044 JUMPI PUSH1 0x40 MLOAD PUSH3 0x461BCD PUSH1 0xE5 SHL DUP2 MSTORE PUSH1 0x4 ADD PUSH2 0x743 SWAP1 PUSH2 0x3489 JUMP JUMPDEST PUSH2 0x106B PUSH20 0xFFFFFFFFFFFFFFFFFFFFFFFFFFFFFFFFFFFFFFFF DUP4 AND DUP5 DUP4 PUSH4 0xFFFFFFFF PUSH2 0x2121 AND JUMP JUMPDEST PUSH2 0x1087 JUMPI PUSH1 0x40 MLOAD PUSH3 0x461BCD PUSH1 0xE5 SHL DUP2 MSTORE PUSH1 0x4 ADD PUSH2 0x743 SWAP1 PUSH2 0x3565 JUMP JUMPDEST DUP4 PUSH20 0xFFFFFFFFFFFFFFFFFFFFFFFFFFFFFFFFFFFFFFFF AND PUSH4 0xC13517E1 PUSH1 0x2 DUP13 PUSH1 0x40 MLOAD PUSH1 0x20 ADD PUSH2 0x10B6 SWAP2 SWAP1 PUSH2 0x371F JUMP JUMPDEST PUSH1 0x40 MLOAD PUSH1 0x20 DUP2 DUP4 SUB SUB DUP2 MSTORE SWAP1 PUSH1 0x40 MSTORE PUSH1 0x40 MLOAD DUP4 PUSH4 0xFFFFFFFF AND PUSH1 0xE0 SHL DUP2 MSTORE PUSH1 0x4 ADD PUSH2 0x10E2 SWAP3 SWAP2 SWAP1 PUSH2 0x3326 JUMP JUMPDEST PUSH1 0x20 PUSH1 0x40 MLOAD DUP1 DUP4 SUB DUP2 PUSH1 0x0 DUP8 DUP1 EXTCODESIZE ISZERO DUP1 ISZERO PUSH2 0x10FC JUMPI PUSH1 0x0 DUP1 REVERT JUMPDEST POP GAS CALL ISZERO DUP1 ISZERO PUSH2 0x1110 JUMPI RETURNDATASIZE PUSH1 0x0 DUP1 RETURNDATACOPY RETURNDATASIZE PUSH1 0x0 REVERT JUMPDEST POP POP POP POP PUSH1 0x40 MLOAD RETURNDATASIZE PUSH1 0x1F NOT PUSH1 0x1F DUP3 ADD AND DUP3 ADD DUP1 PUSH1 0x40 MSTORE POP DUP2 ADD SWAP1 PUSH2 0x1134 SWAP2 SWAP1 PUSH2 0x2D46 JUMP JUMPDEST SWAP8 POP PUSH2 0x115E PUSH20 0xFFFFFFFFFFFFFFFFFFFFFFFFFFFFFFFFFFFFFFFF DUP4 AND DUP5 PUSH1 0x0 PUSH4 0xFFFFFFFF PUSH2 0x2121 AND JUMP JUMPDEST PUSH2 0x117A JUMPI PUSH1 0x40 MLOAD PUSH3 0x461BCD PUSH1 0xE5 SHL DUP2 MSTORE PUSH1 0x4 ADD PUSH2 0x743 SWAP1 PUSH2 0x3452 JUMP JUMPDEST DUP10 PUSH1 0x0 ADD MLOAD PUSH1 0x40 ADD MLOAD PUSH20 0xFFFFFFFFFFFFFFFFFFFFFFFFFFFFFFFFFFFFFFFF AND DUP9 DUP6 PUSH20 0xFFFFFFFFFFFFFFFFFFFFFFFFFFFFFFFFFFFFFFFF AND PUSH32 0x1988E4D59F596BA1A2D81E06874704A62502463AE6D99154F923E5EDEB98392B DUP14 PUSH1 0x0 ADD MLOAD PUSH1 0xC0 ADD MLOAD PUSH1 0x1 PUSH1 0x40 MLOAD PUSH2 0x11EB SWAP3 SWAP2 SWAP1 PUSH2 0x32C6 JUMP JUMPDEST PUSH1 0x40 MLOAD DUP1 SWAP2 SUB SWAP1 LOG4 CALLER PUSH20 0xFFFFFFFFFFFFFFFFFFFFFFFFFFFFFFFFFFFFFFFF AND DUP9 DUP6 PUSH20 0xFFFFFFFFFFFFFFFFFFFFFFFFFFFFFFFFFFFFFFFF AND PUSH32 0x1988E4D59F596BA1A2D81E06874704A62502463AE6D99154F923E5EDEB98392B DUP13 PUSH1 0x1 PUSH1 0x40 MLOAD PUSH2 0x1254 SWAP3 SWAP2 SWAP1 PUSH2 0x32C6 JUMP JUMPDEST PUSH1 0x40 MLOAD DUP1 SWAP2 SUB SWAP1 LOG4 PUSH1 0x40 MLOAD PUSH32 0x7E9ADCCF00000000000000000000000000000000000000000000000000000000 DUP2 MSTORE PUSH20 0xFFFFFFFFFFFFFFFFFFFFFFFFFFFFFFFFFFFFFFFF DUP6 AND SWAP1 PUSH4 0x7E9ADCCF SWAP1 PUSH2 0x12AE SWAP1 DUP12 SWAP1 PUSH1 0x4 ADD PUSH2 0x31A0 JUMP JUMPDEST PUSH1 0x0 PUSH1 0x40 MLOAD DUP1 DUP4 SUB DUP2 PUSH1 0x0 DUP8 DUP1 EXTCODESIZE ISZERO DUP1 ISZERO PUSH2 0x12C8 JUMPI PUSH1 0x0 DUP1 REVERT JUMPDEST POP GAS CALL ISZERO DUP1 ISZERO PUSH2 0x12DC JUMPI RETURNDATASIZE PUSH1 0x0 DUP1 RETURNDATACOPY RETURNDATASIZE PUSH1 0x0 REVERT JUMPDEST POP POP POP PUSH20 0xFFFFFFFFFFFFFFFFFFFFFFFFFFFFFFFFFFFFFFFF DUP6 AND PUSH1 0x0 SWAP1 DUP2 MSTORE PUSH1 0x8 PUSH1 0x20 SWAP1 DUP2 MSTORE PUSH1 0x40 DUP1 DUP4 KECCAK256 DUP13 DUP5 MSTORE SWAP1 SWAP2 MSTORE SWAP1 DUP2 SWAP1 KECCAK256 DUP9 SWAP1 SSTORE MLOAD CALLER SWAP2 POP DUP8 SWAP1 PUSH32 0x429DF837EB45B6713F725A0D3E57DB939FD7DD7D58BB3CD967FA37091572DB9F SWAP1 PUSH2 0x134B SWAP1 DUP14 SWAP1 DUP14 SWAP1 DUP12 SWAP1 PUSH2 0x32EA JUMP JUMPDEST PUSH1 0x40 MLOAD DUP1 SWAP2 SUB SWAP1 LOG3 POP POP POP POP POP POP POP SWAP3 SWAP2 POP POP JUMP JUMPDEST PUSH1 0x0 PUSH4 0x72896761 PUSH1 0xE0 SHL PUSH2 0x13AC DUP2 CALLER PUSH1 0x0 CALLDATASIZE DUP1 DUP1 PUSH1 0x1F ADD PUSH1 0x20 DUP1 SWAP2 DIV MUL PUSH1 0x20 ADD PUSH1 0x40 MLOAD SWAP1 DUP2 ADD PUSH1 0x40 MSTORE DUP1 SWAP4 SWAP3 SWAP2 SWAP1 DUP2 DUP2 MSTORE PUSH1 0x20 ADD DUP4 DUP4 DUP1 DUP3 DUP5 CALLDATACOPY PUSH1 0x0 SWAP3 ADD SWAP2 SWAP1 SWAP2 MSTORE POP PUSH2 0x442 SWAP3 POP POP POP JUMP JUMPDEST PUSH2 0x13C8 JUMPI PUSH1 0x40 MLOAD PUSH3 0x461BCD PUSH1 0xE5 SHL DUP2 MSTORE PUSH1 0x4 ADD PUSH2 0x743 SWAP1 PUSH2 0x33AD JUMP JUMPDEST PUSH2 0x6BD DUP4 PUSH2 0x1EC6 JUMP JUMPDEST PUSH1 0x6 PUSH1 0x20 MSTORE PUSH1 0x0 SWAP1 DUP2 MSTORE PUSH1 0x40 SWAP1 KECCAK256 SLOAD PUSH1 0xFF AND DUP2 JUMP JUMPDEST PUSH32 0x586DF60400000000000000000000000000000000000000000000000000000000 DUP2 JUMP JUMPDEST PUSH1 0x3 PUSH1 0x20 SWAP1 DUP2 MSTORE PUSH1 0x0 SWAP3 DUP4 MSTORE PUSH1 0x40 DUP1 DUP5 KECCAK256 SWAP1 SWAP2 MSTORE SWAP1 DUP3 MSTORE SWAP1 KECCAK256 SLOAD PUSH20 0xFFFFFFFFFFFFFFFFFFFFFFFFFFFFFFFFFFFFFFFF AND DUP2 JUMP JUMPDEST PUSH1 0x0 PUSH4 0x977D8964 PUSH1 0xE0 SHL PUSH2 0x1489 DUP2 CALLER PUSH1 0x0 CALLDATASIZE DUP1 DUP1 PUSH1 0x1F ADD PUSH1 0x20 DUP1 SWAP2 DIV MUL PUSH1 0x20 ADD PUSH1 0x40 MLOAD SWAP1 DUP2 ADD PUSH1 0x40 MSTORE DUP1 SWAP4 SWAP3 SWAP2 SWAP1 DUP2 DUP2 MSTORE PUSH1 0x20 ADD DUP4 DUP4 DUP1 DUP3 DUP5 CALLDATACOPY PUSH1 0x0 SWAP3 ADD SWAP2 SWAP1 SWAP2 MSTORE POP PUSH2 0x442 SWAP3 POP POP POP JUMP JUMPDEST PUSH2 0x14A5 JUMPI PUSH1 0x40 MLOAD PUSH3 0x461BCD PUSH1 0xE5 SHL DUP2 MSTORE PUSH1 0x4 ADD PUSH2 0x743 SWAP1 PUSH2 0x33AD JUMP JUMPDEST PUSH1 0x5 DUP1 SLOAD PUSH1 0x1 ADD SWAP1 DUP2 SWAP1 SSTORE DUP4 MLOAD MLOAD EQ PUSH2 0x14D0 JUMPI PUSH1 0x40 MLOAD PUSH3 0x461BCD PUSH1 0xE5 SHL DUP2 MSTORE PUSH1 0x4 ADD PUSH2 0x743 SWAP1 PUSH2 0x33E4 JUMP JUMPDEST PUSH1 0x0 PUSH2 0x14DF DUP5 PUSH1 0x20 ADD MLOAD PUSH2 0x19BF JUMP JUMPDEST SWAP1 POP PUSH1 0x4 SLOAD DUP2 EQ PUSH2 0x1502 JUMPI PUSH1 0x40 MLOAD PUSH3 0x461BCD PUSH1 0xE5 SHL DUP2 MSTORE PUSH1 0x4 ADD PUSH2 0x743 SWAP1 PUSH2 0x3376 JUMP JUMPDEST DUP4 PUSH1 0x20 ADD MLOAD PUSH1 0x0 ADD MLOAD TIMESTAMP ADD DUP5 PUSH1 0x0 ADD MLOAD PUSH1 0x20 ADD MLOAD LT ISZERO PUSH2 0x1534 JUMPI PUSH1 0x40 MLOAD PUSH3 0x461BCD PUSH1 0xE5 SHL DUP2 MSTORE PUSH1 0x4 ADD PUSH2 0x743 SWAP1 PUSH2 0x341B JUMP JUMPDEST DUP4 MLOAD PUSH1 0x40 ADD MLOAD PUSH20 0xFFFFFFFFFFFFFFFFFFFFFFFFFFFFFFFFFFFFFFFF AND CALLER EQ PUSH2 0x156E JUMPI PUSH1 0x40 MLOAD PUSH3 0x461BCD PUSH1 0xE5 SHL DUP2 MSTORE PUSH1 0x4 ADD PUSH2 0x743 SWAP1 PUSH2 0x34C0 JUMP JUMPDEST PUSH2 0x1584 PUSH2 0x157E DUP6 PUSH1 0x0 ADD MLOAD PUSH2 0x21D2 JUMP JUMPDEST DUP3 PUSH2 0x223A JUMP JUMPDEST PUSH1 0x0 DUP2 DUP2 MSTORE PUSH1 0x6 PUSH1 0x20 MSTORE PUSH1 0x40 DUP2 KECCAK256 SWAP2 SWAP5 POP PUSH2 0x15A7 SWAP2 SWAP1 PUSH1 0x1 PUSH4 0xFFFFFFFF PUSH2 0x1BFC AND JUMP JUMPDEST PUSH2 0x15AF PUSH2 0x24C8 JUMP JUMPDEST POP PUSH1 0x20 DUP1 DUP6 ADD MLOAD ADD MLOAD DUP5 MLOAD PUSH1 0x40 ADD MLOAD PUSH2 0x15CF SWAP1 DUP3 SWAP1 PUSH4 0xFFFFFFFF PUSH2 0x1FAE AND JUMP JUMPDEST DUP4 PUSH32 0x67F87FF46443C95843C7BD72A026DD23BA0015528CE9F8F15C5C6917645034EF DUP7 PUSH1 0x0 ADD MLOAD PUSH1 0x40 MLOAD PUSH2 0x1603 SWAP2 SWAP1 PUSH2 0x3776 JUMP JUMPDEST PUSH1 0x40 MLOAD DUP1 SWAP2 SUB SWAP1 LOG2 POP POP POP SWAP2 SWAP1 POP JUMP JUMPDEST PUSH1 0x40 DUP1 MLOAD PUSH1 0x20 CALLDATASIZE PUSH1 0x1F DUP2 ADD DUP3 SWAP1 DIV DUP3 MUL DUP4 ADD DUP3 ADD SWAP1 SWAP4 MSTORE DUP3 DUP3 MSTORE PUSH32 0x586DF60400000000000000000000000000000000000000000000000000000000 SWAP3 PUSH2 0x1676 SWAP3 DUP5 SWAP3 CALLER SWAP3 PUSH1 0x0 SWAP2 DUP2 SWAP1 DUP5 ADD DUP4 DUP3 DUP1 DUP3 DUP5 CALLDATACOPY PUSH1 0x0 SWAP3 ADD SWAP2 SWAP1 SWAP2 MSTORE POP PUSH2 0x442 SWAP3 POP POP POP JUMP JUMPDEST PUSH2 0x1692 JUMPI PUSH1 0x40 MLOAD PUSH3 0x461BCD PUSH1 0xE5 SHL DUP2 MSTORE PUSH1 0x4 ADD PUSH2 0x743 SWAP1 PUSH2 0x33AD JUMP JUMPDEST PUSH2 0x7FF DUP4 DUP4 PUSH2 0x1A46 JUMP JUMPDEST PUSH1 0x40 DUP1 MLOAD PUSH1 0x20 CALLDATASIZE PUSH1 0x1F DUP2 ADD DUP3 SWAP1 DIV DUP3 MUL DUP4 ADD DUP3 ADD SWAP1 SWAP4 MSTORE DUP3 DUP3 MSTORE PUSH32 0x586DF60400000000000000000000000000000000000000000000000000000000 SWAP3 PUSH2 0x16FF SWAP3 DUP5 SWAP3 CALLER SWAP3 PUSH1 0x0 SWAP2 DUP2 SWAP1 DUP5 ADD DUP4 DUP3 DUP1 DUP3 DUP5 CALLDATACOPY PUSH1 0x0 SWAP3 ADD SWAP2 SWAP1 SWAP2 MSTORE POP PUSH2 0x442 SWAP3 POP POP POP JUMP JUMPDEST PUSH2 0x171B JUMPI PUSH1 0x40 MLOAD PUSH3 0x461BCD PUSH1 0xE5 SHL DUP2 MSTORE PUSH1 0x4 ADD PUSH2 0x743 SWAP1 PUSH2 0x33AD JUMP JUMPDEST PUSH2 0x1726 DUP5 DUP5 DUP5 PUSH2 0x2275 JUMP JUMPDEST POP POP POP POP JUMP JUMPDEST PUSH1 0x5 SLOAD DUP2 JUMP JUMPDEST PUSH1 0x0 PUSH2 0x173D DUP3 PUSH2 0x1BD8 JUMP JUMPDEST PUSH1 0x0 DUP2 DUP2 MSTORE PUSH1 0x6 PUSH1 0x20 MSTORE PUSH1 0x40 SWAP1 KECCAK256 SWAP1 SWAP2 POP PUSH2 0x1761 SWAP1 PUSH1 0x4 PUSH1 0x5 PUSH4 0xFFFFFFFF PUSH2 0x1BFC AND JUMP JUMPDEST PUSH1 0x0 DUP2 DUP2 MSTORE PUSH1 0x7 PUSH1 0x20 SWAP1 DUP2 MSTORE PUSH1 0x40 SWAP1 SWAP2 KECCAK256 SLOAD DUP4 DUP3 ADD MLOAD SWAP1 SWAP2 ADD MLOAD PUSH20 0xFFFFFFFFFFFFFFFFFFFFFFFFFFFFFFFFFFFFFFFF SWAP1 SWAP2 AND SWAP1 PUSH2 0x17A4 SWAP1 DUP3 PUSH4 0xFFFFFFFF PUSH2 0x1C10 AND JUMP JUMPDEST PUSH1 0x20 DUP4 ADD MLOAD PUSH1 0x40 ADD MLOAD PUSH2 0x17BD SWAP1 DUP3 PUSH4 0xFFFFFFFF PUSH2 0x1C10 AND JUMP JUMPDEST POP PUSH1 0x0 SWAP1 DUP2 MSTORE PUSH1 0x7 PUSH1 0x20 MSTORE PUSH1 0x40 SWAP1 KECCAK256 DUP1 SLOAD PUSH32 0xFFFFFFFFFFFFFFFFFFFFFFFF0000000000000000000000000000000000000000 AND SWAP1 SSTORE POP JUMP JUMPDEST PUSH1 0x40 MLOAD PUSH3 0x461BCD PUSH1 0xE5 SHL DUP2 MSTORE PUSH1 0x4 ADD PUSH2 0x743 SWAP1 PUSH2 0x34F7 JUMP JUMPDEST PUSH1 0x40 DUP1 MLOAD PUSH1 0x20 CALLDATASIZE PUSH1 0x1F DUP2 ADD DUP3 SWAP1 DIV DUP3 MUL DUP4 ADD DUP3 ADD SWAP1 SWAP4 MSTORE DUP3 DUP3 MSTORE PUSH32 0x586DF60400000000000000000000000000000000000000000000000000000000 SWAP3 PUSH2 0x1870 SWAP3 DUP5 SWAP3 CALLER SWAP3 PUSH1 0x0 SWAP2 DUP2 SWAP1 DUP5 ADD DUP4 DUP3 DUP1 DUP3 DUP5 CALLDATACOPY PUSH1 0x0 SWAP3 ADD SWAP2 SWAP1 SWAP2 MSTORE POP PUSH2 0x442 SWAP3 POP POP POP JUMP JUMPDEST PUSH2 0x188C JUMPI PUSH1 0x40 MLOAD PUSH3 0x461BCD PUSH1 0xE5 SHL DUP2 MSTORE PUSH1 0x4 ADD PUSH2 0x743 SWAP1 PUSH2 0x33AD JUMP JUMPDEST PUSH2 0x1895 DUP3 PUSH2 0x1B20 JUMP JUMPDEST POP POP JUMP JUMPDEST PUSH4 0xC04C87B8 PUSH1 0xE0 SHL PUSH2 0x18E3 DUP2 CALLER PUSH1 0x0 CALLDATASIZE DUP1 DUP1 PUSH1 0x1F ADD PUSH1 0x20 DUP1 SWAP2 DIV MUL PUSH1 0x20 ADD PUSH1 0x40 MLOAD SWAP1 DUP2 ADD PUSH1 0x40 MSTORE DUP1 SWAP4 SWAP3 SWAP2 SWAP1 DUP2 DUP2 MSTORE PUSH1 0x20 ADD DUP4 DUP4 DUP1 DUP3 DUP5 CALLDATACOPY PUSH1 0x0 SWAP3 ADD SWAP2 SWAP1 SWAP2 MSTORE POP PUSH2 0x442 SWAP3 POP POP POP JUMP JUMPDEST PUSH2 0x18FF JUMPI PUSH1 0x40 MLOAD PUSH3 0x461BCD PUSH1 0xE5 SHL DUP2 MSTORE PUSH1 0x4 ADD PUSH2 0x743 SWAP1 PUSH2 0x33AD JUMP JUMPDEST PUSH1 0x0 DUP4 DUP2 MSTORE PUSH1 0x6 PUSH1 0x20 MSTORE PUSH1 0x40 SWAP1 KECCAK256 PUSH2 0x1920 SWAP1 PUSH1 0x1 PUSH1 0x5 PUSH4 0xFFFFFFFF PUSH2 0x1BFC AND JUMP JUMPDEST CALLER PUSH20 0xFFFFFFFFFFFFFFFFFFFFFFFFFFFFFFFFFFFFFFFF AND DUP4 PUSH32 0xE2530B9681F9726904F9CA7FE725C0C53EA1B72370981AC6A5BEAA9758C8C356 DUP5 PUSH1 0x40 MLOAD PUSH2 0x1967 SWAP2 SWAP1 PUSH2 0x32B3 JUMP JUMPDEST PUSH1 0x40 MLOAD DUP1 SWAP2 SUB SWAP1 LOG3 POP POP POP JUMP JUMPDEST PUSH1 0x7 PUSH1 0x20 MSTORE PUSH1 0x0 SWAP1 DUP2 MSTORE PUSH1 0x40 SWAP1 KECCAK256 SLOAD PUSH20 0xFFFFFFFFFFFFFFFFFFFFFFFFFFFFFFFFFFFFFFFF AND DUP2 JUMP JUMPDEST DUP1 MLOAD PUSH1 0x20 DUP2 DUP4 ADD DUP2 ADD DUP1 MLOAD PUSH1 0x2 DUP3 MSTORE SWAP3 DUP3 ADD SWAP2 SWAP1 SWAP4 ADD KECCAK256 SWAP2 MSTORE SLOAD DUP2 JUMP JUMPDEST PUSH1 0x4 SLOAD DUP2 JUMP JUMPDEST PUSH1 0x0 DUP2 PUSH1 0x40 MLOAD PUSH1 0x20 ADD PUSH2 0x19D2 SWAP2 SWAP1 PUSH2 0x370C JUMP JUMPDEST PUSH1 0x40 MLOAD PUSH1 0x20 DUP2 DUP4 SUB SUB DUP2 MSTORE SWAP1 PUSH1 0x40 MSTORE DUP1 MLOAD SWAP1 PUSH1 0x20 ADD KECCAK256 SWAP1 POP SWAP2 SWAP1 POP JUMP JUMPDEST PUSH1 0x0 PUSH32 0xFFFFFFFF00000000000000000000000000000000000000000000000000000000 DUP3 AND PUSH32 0x1FFC9A700000000000000000000000000000000000000000000000000000000 EQ DUP1 PUSH2 0x43C JUMPI POP POP PUSH1 0x1 TIMESTAMP EQ SWAP2 SWAP1 POP JUMP JUMPDEST PUSH2 0x1895 DUP3 DUP3 PUSH1 0x2 PUSH2 0x2275 JUMP JUMPDEST PUSH2 0x1A5B DUP3 PUSH2 0xB7C JUMP JUMPDEST ISZERO PUSH2 0x1A78 JUMPI PUSH1 0x40 MLOAD PUSH3 0x461BCD PUSH1 0xE5 SHL DUP2 MSTORE PUSH1 0x4 ADD PUSH2 0x743 SWAP1 PUSH2 0x352E JUMP JUMPDEST PUSH32 0xFFFFFFFF00000000000000000000000000000000000000000000000000000000 DUP3 AND PUSH1 0x0 DUP2 DUP2 MSTORE PUSH1 0x3 PUSH1 0x20 SWAP1 DUP2 MSTORE PUSH1 0x40 DUP1 DUP4 KECCAK256 PUSH20 0xFFFFFFFFFFFFFFFFFFFFFFFFFFFFFFFFFFFFFFFF DUP7 AND DUP1 DUP6 MSTORE SWAP3 MSTORE DUP1 DUP4 KECCAK256 DUP1 SLOAD PUSH32 0xFFFFFFFFFFFFFFFFFFFFFFFF0000000000000000000000000000000000000000 AND SWAP1 SSTORE MLOAD SWAP1 SWAP3 CALLER SWAP3 SWAP1 SWAP2 PUSH32 0x682F2C466C1E9F6883EB72CBCED01373E1CB18B05AE5C8BC04DC73D73E29F8CD SWAP2 SWAP1 LOG4 POP POP JUMP JUMPDEST PUSH2 0x1B29 DUP2 PUSH2 0xB7C JUMP JUMPDEST ISZERO PUSH2 0x1B46 JUMPI PUSH1 0x40 MLOAD PUSH3 0x461BCD PUSH1 0xE5 SHL DUP2 MSTORE PUSH1 0x4 ADD PUSH2 0x743 SWAP1 PUSH2 0x352E JUMP JUMPDEST PUSH32 0xFFFFFFFF00000000000000000000000000000000000000000000000000000000 DUP2 AND PUSH1 0x0 DUP2 DUP2 MSTORE PUSH1 0x3 PUSH1 0x20 SWAP1 DUP2 MSTORE PUSH1 0x40 DUP1 DUP4 KECCAK256 PUSH1 0x1 DUP1 DUP6 MSTORE SWAP3 MSTORE DUP1 DUP4 KECCAK256 DUP1 SLOAD PUSH32 0xFFFFFFFFFFFFFFFFFFFFFFFF0000000000000000000000000000000000000000 AND SWAP1 SWAP3 OR SWAP1 SWAP2 SSTORE MLOAD CALLER SWAP3 SWAP2 PUSH32 0x49C6B8B07A879425742523FA80F8FFB25E39AD518C93A5896A0DF19518397E5 SWAP2 LOG3 POP JUMP JUMPDEST PUSH1 0x0 PUSH2 0x43C PUSH2 0x1BEA DUP4 PUSH1 0x0 ADD MLOAD PUSH2 0x21D2 JUMP JUMPDEST PUSH2 0x1BF7 DUP5 PUSH1 0x20 ADD MLOAD PUSH2 0x19BF JUMP JUMPDEST PUSH2 0x223A JUMP JUMPDEST PUSH2 0x1C06 DUP4 DUP4 PUSH2 0x2396 JUMP JUMPDEST PUSH2 0x7FF DUP4 DUP3 PUSH2 0x23CF JUMP JUMPDEST PUSH1 0x20 DUP3 ADD MLOAD ISZERO PUSH2 0x1895 JUMPI DUP2 MLOAD PUSH1 0x20 DUP4 ADD MLOAD PUSH2 0x1C4A SWAP1 PUSH20 0xFFFFFFFFFFFFFFFFFFFFFFFFFFFFFFFFFFFFFFFF DUP4 AND SWAP1 DUP5 SWAP1 PUSH4 0xFFFFFFFF PUSH2 0x240E AND JUMP JUMPDEST PUSH2 0x1C66 JUMPI PUSH1 0x40 MLOAD PUSH3 0x461BCD PUSH1 0xE5 SHL DUP2 MSTORE PUSH1 0x4 ADD PUSH2 0x743 SWAP1 PUSH2 0x359C JUMP JUMPDEST DUP2 PUSH20 0xFFFFFFFFFFFFFFFFFFFFFFFFFFFFFFFFFFFFFFFF AND DUP4 PUSH1 0x0 ADD MLOAD PUSH20 0xFFFFFFFFFFFFFFFFFFFFFFFFFFFFFFFFFFFFFFFF AND PUSH32 0xC1C90B8E0705B212262C0DBD7580EFE1862C2F185BF96899226F7596BEB2DB09 DUP6 PUSH1 0x20 ADD MLOAD PUSH1 0x40 MLOAD PUSH2 0x1967 SWAP2 SWAP1 PUSH2 0x31A0 JUMP JUMPDEST PUSH1 0x40 MLOAD PUSH1 0x0 SWAP1 PUSH1 0x60 SWAP1 CALLER SWAP1 DUP5 SWAP1 PUSH32 0x59C3746E635078EFC737FB3F37DD8188203B8DF10BBAD35878A7D156F4F51C41 SWAP1 DUP6 SWAP1 LOG3 DUP4 PUSH1 0x60 ADD MLOAD PUSH20 0xFFFFFFFFFFFFFFFFFFFFFFFFFFFFFFFFFFFFFFFF AND PUSH4 0xC2D85AFC DUP6 PUSH1 0x80 ADD MLOAD DUP7 PUSH1 0xA0 ADD MLOAD DUP7 PUSH1 0x40 MLOAD DUP5 PUSH4 0xFFFFFFFF AND PUSH1 0xE0 SHL DUP2 MSTORE PUSH1 0x4 ADD PUSH2 0x1D46 SWAP4 SWAP3 SWAP2 SWAP1 PUSH2 0x3170 JUMP JUMPDEST PUSH1 0x0 PUSH1 0x40 MLOAD DUP1 DUP4 SUB DUP2 PUSH1 0x0 DUP8 DUP1 EXTCODESIZE ISZERO DUP1 ISZERO PUSH2 0x1D60 JUMPI PUSH1 0x0 DUP1 REVERT JUMPDEST POP GAS CALL ISZERO DUP1 ISZERO PUSH2 0x1D74 JUMPI RETURNDATASIZE PUSH1 0x0 DUP1 RETURNDATACOPY RETURNDATASIZE PUSH1 0x0 REVERT JUMPDEST POP POP POP POP PUSH1 0x40 MLOAD RETURNDATASIZE PUSH1 0x0 DUP3 RETURNDATACOPY PUSH1 0x1F RETURNDATASIZE SWAP1 DUP2 ADD PUSH32 0xFFFFFFFFFFFFFFFFFFFFFFFFFFFFFFFFFFFFFFFFFFFFFFFFFFFFFFFFFFFFFFE0 AND DUP3 ADD PUSH1 0x40 MSTORE PUSH2 0x1DBA SWAP2 SWAP1 DUP2 ADD SWAP1 PUSH2 0x2A19 JUMP JUMPDEST SWAP2 POP SWAP2 POP SWAP3 POP SWAP3 SWAP1 POP JUMP JUMPDEST PUSH1 0x40 MLOAD DUP1 PUSH1 0x40 ADD PUSH1 0x40 MSTORE DUP1 PUSH1 0x3 DUP2 MSTORE PUSH1 0x20 ADD PUSH32 0x61636C0000000000000000000000000000000000000000000000000000000000 DUP2 MSTORE POP PUSH1 0x2 DUP2 PUSH1 0x40 MLOAD PUSH2 0x1E0B SWAP2 SWAP1 PUSH2 0x2FDF JUMP JUMPDEST SWAP1 DUP2 MSTORE PUSH1 0x20 ADD PUSH1 0x40 MLOAD DUP1 SWAP2 SUB SWAP1 KECCAK256 SLOAD PUSH1 0x0 EQ PUSH2 0x1E39 JUMPI PUSH1 0x40 MLOAD PUSH3 0x461BCD PUSH1 0xE5 SHL DUP2 MSTORE PUSH1 0x4 ADD PUSH2 0x743 SWAP1 PUSH2 0x35D3 JUMP JUMPDEST NUMBER PUSH1 0x2 DUP3 PUSH1 0x40 MLOAD PUSH2 0x1E4A SWAP2 SWAP1 PUSH2 0x2FDF JUMP JUMPDEST SWAP1 DUP2 MSTORE PUSH1 0x40 MLOAD SWAP1 DUP2 SWAP1 SUB PUSH1 0x20 ADD SWAP1 KECCAK256 SSTORE PUSH2 0x1E84 PUSH32 0x586DF60400000000000000000000000000000000000000000000000000000000 DUP4 PUSH2 0x1A46 JUMP JUMPDEST DUP1 PUSH1 0x40 MLOAD PUSH2 0x1E92 SWAP2 SWAP1 PUSH2 0x2FDF JUMP JUMPDEST PUSH1 0x40 MLOAD SWAP1 DUP2 SWAP1 SUB DUP2 KECCAK256 SWAP1 PUSH32 0x7BC2A48A4A566E237A12186F19D985B0F76AFC9D5290601EDAC19876253670C2 SWAP1 PUSH1 0x0 SWAP1 LOG2 POP POP JUMP JUMPDEST PUSH1 0x0 PUSH2 0x1ED1 DUP3 PUSH2 0x19BF JUMP JUMPDEST PUSH1 0x4 DUP2 SWAP1 SSTORE PUSH1 0x40 MLOAD CALLER SWAP2 SWAP1 PUSH32 0xA61DCDFCDFC6DA74A563DE8455CC4AE6D6C9D0B442EB2F7309E6B31E4680D79 SWAP1 PUSH2 0x1F09 SWAP1 DUP7 SWAP1 PUSH2 0x370C JUMP JUMPDEST PUSH1 0x40 MLOAD DUP1 SWAP2 SUB SWAP1 LOG3 POP POP PUSH1 0x4 SLOAD SWAP1 JUMP JUMPDEST PUSH32 0xFFFFFFFF00000000000000000000000000000000000000000000000000000000 DUP2 AND PUSH1 0x0 SWAP1 DUP2 MSTORE PUSH1 0x20 DUP2 SWAP1 MSTORE PUSH1 0x40 SWAP1 DUP2 SWAP1 KECCAK256 DUP1 SLOAD PUSH32 0xFFFFFFFFFFFFFFFFFFFFFFFFFFFFFFFFFFFFFFFFFFFFFFFFFFFFFFFFFFFFFF00 AND PUSH1 0x1 OR SWAP1 SSTORE MLOAD PUSH32 0xBF5E1F87F5AB65B58074CD29244D7C487A948983CDA4B932E0F966B62BD34ACA SWAP1 PUSH2 0x1FA3 SWAP1 DUP4 SWAP1 PUSH2 0x322F JUMP JUMPDEST PUSH1 0x40 MLOAD DUP1 SWAP2 SUB SWAP1 LOG1 POP JUMP JUMPDEST PUSH1 0x20 DUP3 ADD MLOAD ISZERO PUSH2 0x1895 JUMPI DUP2 MLOAD PUSH1 0x20 DUP4 ADD MLOAD PUSH2 0x1FEA SWAP1 PUSH20 0xFFFFFFFFFFFFFFFFFFFFFFFFFFFFFFFFFFFFFFFF DUP4 AND SWAP1 DUP5 SWAP1 ADDRESS SWAP1 PUSH4 0xFFFFFFFF PUSH2 0x206B AND JUMP JUMPDEST PUSH2 0x2006 JUMPI PUSH1 0x40 MLOAD PUSH3 0x461BCD PUSH1 0xE5 SHL DUP2 MSTORE PUSH1 0x4 ADD PUSH2 0x743 SWAP1 PUSH2 0x3667 JUMP JUMPDEST DUP2 PUSH20 0xFFFFFFFFFFFFFFFFFFFFFFFFFFFFFFFFFFFFFFFF AND DUP4 PUSH1 0x0 ADD MLOAD PUSH20 0xFFFFFFFFFFFFFFFFFFFFFFFFFFFFFFFFFFFFFFFF AND PUSH32 0xEC36C0364D931187A76CF66D7EEE08FAD0EC2E8B7458A8D8B26B36769D4D13F3 DUP6 PUSH1 0x20 ADD MLOAD PUSH1 0x40 MLOAD PUSH2 0x1967 SWAP2 SWAP1 PUSH2 0x31A0 JUMP JUMPDEST PUSH1 0x0 PUSH1 0x60 PUSH4 0x23B872DD PUSH1 0xE0 SHL DUP6 DUP6 DUP6 PUSH1 0x40 MLOAD PUSH1 0x24 ADD PUSH2 0x208C SWAP4 SWAP3 SWAP2 SWAP1 PUSH2 0x3106 JUMP JUMPDEST PUSH1 0x40 DUP1 MLOAD PUSH32 0xFFFFFFFFFFFFFFFFFFFFFFFFFFFFFFFFFFFFFFFFFFFFFFFFFFFFFFFFFFFFFFE0 DUP2 DUP5 SUB ADD DUP2 MSTORE SWAP2 SWAP1 MSTORE PUSH1 0x20 DUP2 ADD DUP1 MLOAD PUSH28 0xFFFFFFFFFFFFFFFFFFFFFFFFFFFFFFFFFFFFFFFFFFFFFFFFFFFFFFFF AND PUSH32 0xFFFFFFFF00000000000000000000000000000000000000000000000000000000 SWAP1 SWAP4 AND SWAP3 SWAP1 SWAP3 OR SWAP1 SWAP2 MSTORE SWAP1 POP PUSH2 0x2115 DUP7 DUP3 PUSH2 0x242D JUMP JUMPDEST SWAP2 POP POP JUMPDEST SWAP5 SWAP4 POP POP POP POP JUMP JUMPDEST PUSH1 0x0 PUSH1 0x60 PUSH4 0x95EA7B3 PUSH1 0xE0 SHL DUP5 DUP5 PUSH1 0x40 MLOAD PUSH1 0x24 ADD PUSH2 0x2140 SWAP3 SWAP2 SWAP1 PUSH2 0x3137 JUMP JUMPDEST PUSH1 0x40 DUP1 MLOAD PUSH32 0xFFFFFFFFFFFFFFFFFFFFFFFFFFFFFFFFFFFFFFFFFFFFFFFFFFFFFFFFFFFFFFE0 DUP2 DUP5 SUB ADD DUP2 MSTORE SWAP2 SWAP1 MSTORE PUSH1 0x20 DUP2 ADD DUP1 MLOAD PUSH28 0xFFFFFFFFFFFFFFFFFFFFFFFFFFFFFFFFFFFFFFFFFFFFFFFFFFFFFFFF AND PUSH32 0xFFFFFFFF00000000000000000000000000000000000000000000000000000000 SWAP1 SWAP4 AND SWAP3 SWAP1 SWAP3 OR SWAP1 SWAP2 MSTORE SWAP1 POP PUSH2 0x21C9 DUP6 DUP3 PUSH2 0x242D JUMP JUMPDEST SWAP6 SWAP5 POP POP POP POP POP JUMP JUMPDEST PUSH1 0x0 DUP2 PUSH1 0x0 ADD MLOAD DUP3 PUSH1 0x20 ADD MLOAD DUP4 PUSH1 0x40 ADD MLOAD DUP5 PUSH1 0x60 ADD MLOAD DUP6 PUSH1 0x80 ADD MLOAD PUSH1 0x40 MLOAD PUSH1 0x20 ADD PUSH2 0x21FD SWAP2 SWAP1 PUSH2 0x315D JUMP JUMPDEST PUSH1 0x40 MLOAD PUSH1 0x20 DUP2 DUP4 SUB SUB DUP2 MSTORE SWAP1 PUSH1 0x40 MSTORE DUP1 MLOAD SWAP1 PUSH1 0x20 ADD KECCAK256 DUP7 PUSH1 0xA0 ADD MLOAD DUP8 PUSH1 0xC0 ADD MLOAD DUP1 MLOAD SWAP1 PUSH1 0x20 ADD KECCAK256 PUSH1 0x40 MLOAD PUSH1 0x20 ADD PUSH2 0x19D2 SWAP8 SWAP7 SWAP6 SWAP5 SWAP4 SWAP3 SWAP2 SWAP1 PUSH2 0x308C JUMP JUMPDEST PUSH1 0x40 MLOAD PUSH1 0x0 SWAP1 CHAINID SWAP1 PUSH2 0x2256 SWAP1 ADDRESS SWAP1 DUP4 SWAP1 DUP8 SWAP1 DUP8 SWAP1 PUSH1 0x20 ADD PUSH2 0x3024 JUMP JUMPDEST PUSH1 0x40 MLOAD PUSH1 0x20 DUP2 DUP4 SUB SUB DUP2 MSTORE SWAP1 PUSH1 0x40 MSTORE DUP1 MLOAD SWAP1 PUSH1 0x20 ADD KECCAK256 SWAP2 POP POP SWAP3 SWAP2 POP POP JUMP JUMPDEST PUSH2 0x227E DUP4 PUSH2 0xB7C JUMP JUMPDEST ISZERO PUSH2 0x229B JUMPI PUSH1 0x40 MLOAD PUSH3 0x461BCD PUSH1 0xE5 SHL DUP2 MSTORE PUSH1 0x4 ADD PUSH2 0x743 SWAP1 PUSH2 0x352E JUMP JUMPDEST PUSH20 0xFFFFFFFFFFFFFFFFFFFFFFFFFFFFFFFFFFFFFFFF DUP3 AND PUSH1 0x1 EQ ISZERO PUSH2 0x22D2 JUMPI PUSH1 0x40 MLOAD PUSH3 0x461BCD PUSH1 0xE5 SHL DUP2 MSTORE PUSH1 0x4 ADD PUSH2 0x743 SWAP1 PUSH2 0x369E JUMP JUMPDEST PUSH32 0xFFFFFFFF00000000000000000000000000000000000000000000000000000000 DUP4 AND PUSH1 0x0 DUP2 DUP2 MSTORE PUSH1 0x3 PUSH1 0x20 SWAP1 DUP2 MSTORE PUSH1 0x40 DUP1 DUP4 KECCAK256 PUSH20 0xFFFFFFFFFFFFFFFFFFFFFFFFFFFFFFFFFFFFFFFF DUP8 DUP2 AND DUP1 DUP7 MSTORE SWAP2 SWAP1 SWAP4 MSTORE SWAP3 DUP2 SWAP1 KECCAK256 DUP1 SLOAD PUSH32 0xFFFFFFFFFFFFFFFFFFFFFFFF0000000000000000000000000000000000000000 AND SWAP3 DUP7 AND SWAP3 SWAP1 SWAP3 OR SWAP1 SWAP2 SSTORE MLOAD SWAP1 SWAP2 CALLER SWAP2 PUSH32 0xC62063B81F7036FD97A0DC546516E99F11004D2D76CA0FDDD3866346C86E7091 SWAP1 PUSH2 0x2389 SWAP1 DUP7 SWAP1 PUSH2 0x30E5 JUMP JUMPDEST PUSH1 0x40 MLOAD DUP1 SWAP2 SUB SWAP1 LOG4 POP POP POP JUMP JUMPDEST DUP1 PUSH1 0x6 DUP2 GT ISZERO PUSH2 0x23A2 JUMPI INVALID JUMPDEST DUP3 SLOAD PUSH1 0xFF AND PUSH1 0x6 DUP2 GT ISZERO PUSH2 0x23B2 JUMPI INVALID JUMPDEST EQ PUSH2 0x1895 JUMPI PUSH1 0x40 MLOAD PUSH3 0x461BCD PUSH1 0xE5 SHL DUP2 MSTORE PUSH1 0x4 ADD PUSH2 0x743 SWAP1 PUSH2 0x333F JUMP JUMPDEST DUP2 SLOAD DUP2 SWAP1 DUP4 SWAP1 PUSH32 0xFFFFFFFFFFFFFFFFFFFFFFFFFFFFFFFFFFFFFFFFFFFFFFFFFFFFFFFFFFFFFF00 AND PUSH1 0x1 DUP4 PUSH1 0x6 DUP2 GT ISZERO PUSH2 0x2405 JUMPI INVALID JUMPDEST MUL OR SWAP1 SSTORE POP POP POP JUMP JUMPDEST PUSH1 0x0 PUSH1 0x60 PUSH4 0xA9059CBB PUSH1 0xE0 SHL DUP5 DUP5 PUSH1 0x40 MLOAD PUSH1 0x24 ADD PUSH2 0x2140 SWAP3 SWAP2 SWAP1 PUSH2 0x3137 JUMP JUMPDEST PUSH1 0x0 PUSH2 0x244E DUP4 PUSH20 0xFFFFFFFFFFFFFFFFFFFFFFFFFFFFFFFFFFFFFFFF AND PUSH2 0x24A0 JUMP JUMPDEST PUSH2 0x245A JUMPI POP PUSH1 0x0 PUSH2 0x43C JUMP JUMPDEST PUSH1 0x40 MLOAD PUSH1 0x20 DUP2 DUP5 MLOAD PUSH1 0x20 DUP7 ADD PUSH1 0x0 DUP9 GAS CALL DUP1 ISZERO PUSH2 0x2498 JUMPI RETURNDATASIZE DUP1 ISZERO PUSH2 0x2485 JUMPI PUSH1 0x20 DUP2 EQ PUSH2 0x248E JUMPI PUSH2 0x2496 JUMP JUMPDEST PUSH1 0x1 SWAP4 POP PUSH2 0x2496 JUMP JUMPDEST PUSH1 0x1 DUP4 MLOAD EQ SWAP4 POP JUMPDEST POP JUMPDEST POP POP SWAP3 SWAP2 POP POP JUMP JUMPDEST EXTCODESIZE ISZERO NOT SWAP1 JUMP JUMPDEST PUSH1 0x40 DUP1 MLOAD PUSH1 0x60 DUP2 ADD SWAP1 SWAP2 MSTORE DUP1 PUSH1 0x0 DUP2 MSTORE PUSH1 0x0 PUSH1 0x20 DUP3 ADD DUP2 SWAP1 MSTORE PUSH1 0x40 SWAP1 SWAP2 ADD MSTORE SWAP1 JUMP JUMPDEST PUSH1 0x40 DUP1 MLOAD DUP1 DUP3 ADD SWAP1 SWAP2 MSTORE PUSH1 0x0 DUP1 DUP3 MSTORE PUSH1 0x20 DUP3 ADD MSTORE SWAP1 JUMP JUMPDEST DUP1 CALLDATALOAD PUSH2 0x43C DUP2 PUSH2 0x383E JUMP JUMPDEST PUSH1 0x0 DUP3 PUSH1 0x1F DUP4 ADD SLT PUSH2 0x24FA JUMPI DUP1 DUP2 REVERT JUMPDEST DUP2 CALLDATALOAD PUSH2 0x250D PUSH2 0x2508 DUP3 PUSH2 0x37B0 JUMP JUMPDEST PUSH2 0x3789 JUMP JUMPDEST DUP2 DUP2 MSTORE SWAP2 POP PUSH1 0x20 DUP1 DUP4 ADD SWAP1 DUP5 DUP2 ADD PUSH1 0x0 JUMPDEST DUP5 DUP2 LT ISZERO PUSH2 0x25C1 JUMPI DUP2 CALLDATALOAD DUP8 ADD PUSH1 0x60 DUP1 PUSH32 0xFFFFFFFFFFFFFFFFFFFFFFFFFFFFFFFFFFFFFFFFFFFFFFFFFFFFFFFFFFFFFFE0 DUP4 DUP13 SUB ADD SLT ISZERO PUSH2 0x255D JUMPI PUSH1 0x0 DUP1 REVERT JUMPDEST PUSH2 0x2566 DUP2 PUSH2 0x3789 JUMP JUMPDEST PUSH2 0x2572 DUP12 DUP8 DUP6 ADD PUSH2 0x24DF JUMP JUMPDEST DUP2 MSTORE PUSH1 0x40 DUP1 DUP5 ADD CALLDATALOAD DUP8 DUP4 ADD MSTORE DUP3 DUP5 ADD CALLDATALOAD PUSH8 0xFFFFFFFFFFFFFFFF DUP2 GT ISZERO PUSH2 0x2597 JUMPI PUSH1 0x0 DUP1 REVERT JUMPDEST PUSH2 0x25A5 DUP14 DUP10 DUP4 DUP9 ADD ADD PUSH2 0x25CC JUMP JUMPDEST SWAP2 DUP4 ADD SWAP2 SWAP1 SWAP2 MSTORE POP DUP7 MSTORE POP POP SWAP3 DUP3 ADD SWAP3 SWAP1 DUP3 ADD SWAP1 PUSH1 0x1 ADD PUSH2 0x251E JUMP JUMPDEST POP POP POP POP POP SWAP3 SWAP2 POP POP JUMP JUMPDEST PUSH1 0x0 DUP3 PUSH1 0x1F DUP4 ADD SLT PUSH2 0x25DC JUMPI DUP1 DUP2 REVERT JUMPDEST DUP2 CALLDATALOAD PUSH2 0x25EA PUSH2 0x2508 DUP3 PUSH2 0x37D0 JUMP JUMPDEST SWAP2 POP DUP1 DUP3 MSTORE DUP4 PUSH1 0x20 DUP3 DUP6 ADD ADD GT ISZERO PUSH2 0x2601 JUMPI PUSH1 0x0 DUP1 REVERT JUMPDEST DUP1 PUSH1 0x20 DUP5 ADD PUSH1 0x20 DUP5 ADD CALLDATACOPY PUSH1 0x0 SWAP1 DUP3 ADD PUSH1 0x20 ADD MSTORE SWAP3 SWAP2 POP POP JUMP JUMPDEST PUSH1 0x0 DUP3 PUSH1 0x1F DUP4 ADD SLT PUSH2 0x262A JUMPI DUP1 DUP2 REVERT JUMPDEST DUP2 MLOAD PUSH2 0x2638 PUSH2 0x2508 DUP3 PUSH2 0x37D0 JUMP JUMPDEST SWAP2 POP DUP1 DUP3 MSTORE DUP4 PUSH1 0x20 DUP3 DUP6 ADD ADD GT ISZERO PUSH2 0x264F JUMPI PUSH1 0x0 DUP1 REVERT JUMPDEST PUSH2 0x2660 DUP2 PUSH1 0x20 DUP5 ADD PUSH1 0x20 DUP7 ADD PUSH2 0x3812 JUMP JUMPDEST POP SWAP3 SWAP2 POP POP JUMP JUMPDEST PUSH1 0x0 PUSH1 0x60 DUP3 DUP5 SUB SLT ISZERO PUSH2 0x2678 JUMPI DUP1 DUP2 REVERT JUMPDEST PUSH2 0x2682 PUSH1 0x60 PUSH2 0x3789 JUMP JUMPDEST SWAP1 POP DUP2 CALLDATALOAD PUSH1 0x3 DUP2 LT PUSH2 0x2693 JUMPI PUSH1 0x0 DUP1 REVERT JUMPDEST DUP2 MSTORE PUSH1 0x20 DUP3 ADD CALLDATALOAD PUSH32 0xFFFFFFFF00000000000000000000000000000000000000000000000000000000 DUP2 AND DUP2 EQ PUSH2 0x26C8 JUMPI PUSH1 0x0 DUP1 REVERT JUMPDEST PUSH1 0x20 DUP3 ADD MSTORE PUSH1 0x40 DUP3 ADD CALLDATALOAD PUSH2 0x26DB DUP2 PUSH2 0x383E JUMP JUMPDEST PUSH1 0x40 DUP3 ADD MSTORE SWAP3 SWAP2 POP POP JUMP JUMPDEST PUSH1 0x0 PUSH1 0x40 DUP3 DUP5 SUB SLT ISZERO PUSH2 0x26F7 JUMPI DUP1 DUP2 REVERT JUMPDEST PUSH2 0x2701 PUSH1 0x40 PUSH2 0x3789 JUMP JUMPDEST SWAP1 POP DUP2 CALLDATALOAD PUSH2 0x270E DUP2 PUSH2 0x383E JUMP JUMPDEST DUP1 DUP3 MSTORE POP PUSH1 0x20 DUP3 ADD CALLDATALOAD PUSH1 0x20 DUP3 ADD MSTORE SWAP3 SWAP2 POP POP JUMP JUMPDEST PUSH1 0x0 PUSH1 0xE0 DUP3 DUP5 SUB SLT ISZERO PUSH2 0x2733 JUMPI DUP1 DUP2 REVERT JUMPDEST PUSH2 0x273D PUSH1 0xA0 PUSH2 0x3789 JUMP JUMPDEST SWAP1 POP DUP2 CALLDATALOAD DUP2 MSTORE PUSH2 0x2750 DUP4 PUSH1 0x20 DUP5 ADD PUSH2 0x26E6 JUMP JUMPDEST PUSH1 0x20 DUP3 ADD MSTORE PUSH2 0x2762 DUP4 PUSH1 0x60 DUP5 ADD PUSH2 0x26E6 JUMP JUMPDEST PUSH1 0x40 DUP3 ADD MSTORE PUSH1 0xA0 DUP3 ADD CALLDATALOAD PUSH2 0x2775 DUP2 PUSH2 0x383E JUMP JUMPDEST PUSH1 0x60 DUP3 ADD MSTORE PUSH1 0xC0 DUP3 ADD CALLDATALOAD PUSH8 0xFFFFFFFFFFFFFFFF DUP2 GT ISZERO PUSH2 0x2794 JUMPI PUSH1 0x0 DUP1 REVERT JUMPDEST PUSH2 0x27A0 DUP5 DUP3 DUP6 ADD PUSH2 0x25CC JUMP JUMPDEST PUSH1 0x80 DUP4 ADD MSTORE POP SWAP3 SWAP2 POP POP JUMP JUMPDEST PUSH1 0x0 PUSH1 0x40 DUP3 DUP5 SUB SLT ISZERO PUSH2 0x27BD JUMPI DUP1 DUP2 REVERT JUMPDEST PUSH2 0x27C7 PUSH1 0x40 PUSH2 0x3789 JUMP JUMPDEST SWAP1 POP DUP2 CALLDATALOAD PUSH8 0xFFFFFFFFFFFFFFFF DUP1 DUP3 GT ISZERO PUSH2 0x27E1 JUMPI PUSH1 0x0 DUP1 REVERT JUMPDEST DUP2 DUP5 ADD PUSH1 0xE0 DUP2 DUP8 SUB SLT ISZERO PUSH2 0x27F4 JUMPI PUSH1 0x0 DUP1 REVERT JUMPDEST PUSH2 0x27FE PUSH1 0xE0 PUSH2 0x3789 JUMP JUMPDEST SWAP3 POP DUP1 CALLDATALOAD DUP4 MSTORE PUSH1 0x20 DUP2 ADD CALLDATALOAD PUSH1 0x20 DUP5 ADD MSTORE PUSH2 0x281B DUP7 PUSH1 0x40 DUP4 ADD PUSH2 0x24DF JUMP JUMPDEST PUSH1 0x40 DUP5 ADD MSTORE PUSH2 0x282D DUP7 PUSH1 0x60 DUP4 ADD PUSH2 0x24DF JUMP JUMPDEST PUSH1 0x60 DUP5 ADD MSTORE PUSH1 0x80 DUP2 ADD CALLDATALOAD DUP3 DUP2 GT ISZERO PUSH2 0x2844 JUMPI PUSH1 0x0 DUP1 REVERT JUMPDEST PUSH2 0x2850 DUP8 DUP3 DUP5 ADD PUSH2 0x24EA JUMP JUMPDEST PUSH1 0x80 DUP6 ADD MSTORE POP PUSH1 0xA0 DUP2 ADD CALLDATALOAD PUSH1 0xA0 DUP5 ADD MSTORE PUSH1 0xC0 DUP2 ADD CALLDATALOAD DUP3 DUP2 GT ISZERO PUSH2 0x2872 JUMPI PUSH1 0x0 DUP1 REVERT JUMPDEST PUSH2 0x287E DUP8 DUP3 DUP5 ADD PUSH2 0x25CC JUMP JUMPDEST PUSH1 0xC0 DUP6 ADD MSTORE POP POP SWAP1 DUP3 MSTORE PUSH1 0x20 DUP4 ADD CALLDATALOAD SWAP1 DUP1 DUP3 GT ISZERO PUSH2 0x289B JUMPI PUSH1 0x0 DUP1 REVERT JUMPDEST POP PUSH2 0x28A8 DUP5 DUP3 DUP6 ADD PUSH2 0x2722 JUMP JUMPDEST PUSH1 0x20 DUP4 ADD MSTORE POP SWAP3 SWAP2 POP POP JUMP JUMPDEST PUSH1 0x0 DUP1 PUSH1 0x0 PUSH1 0x60 DUP5 DUP7 SUB SLT ISZERO PUSH2 0x28C8 JUMPI DUP3 DUP4 REVERT JUMPDEST DUP4 MLOAD PUSH2 0x28D3 DUP2 PUSH2 0x383E JUMP JUMPDEST PUSH1 0x20 DUP6 ADD MLOAD SWAP1 SWAP4 POP PUSH2 0x28E4 DUP2 PUSH2 0x383E JUMP JUMPDEST DUP1 SWAP3 POP POP PUSH1 0x40 DUP5 ADD MLOAD SWAP1 POP SWAP3 POP SWAP3 POP SWAP3 JUMP JUMPDEST PUSH1 0x0 DUP1 PUSH1 0x40 DUP4 DUP6 SUB SLT ISZERO PUSH2 0x2908 JUMPI DUP2 DUP3 REVERT JUMPDEST DUP3 CALLDATALOAD PUSH2 0x2913 DUP2 PUSH2 0x383E JUMP JUMPDEST SWAP2 POP PUSH1 0x20 DUP4 ADD CALLDATALOAD PUSH8 0xFFFFFFFFFFFFFFFF DUP2 GT ISZERO PUSH2 0x292E JUMPI DUP2 DUP3 REVERT JUMPDEST PUSH2 0x293A DUP6 DUP3 DUP7 ADD PUSH2 0x2722 JUMP JUMPDEST SWAP2 POP POP SWAP3 POP SWAP3 SWAP1 POP JUMP JUMPDEST PUSH1 0x0 PUSH1 0x20 DUP1 DUP4 DUP6 SUB SLT ISZERO PUSH2 0x2956 JUMPI DUP2 DUP3 REVERT JUMPDEST DUP3 CALLDATALOAD PUSH8 0xFFFFFFFFFFFFFFFF DUP2 GT ISZERO PUSH2 0x296C JUMPI DUP3 DUP4 REVERT JUMPDEST DUP1 DUP5 ADD DUP6 PUSH1 0x1F DUP3 ADD SLT PUSH2 0x297D JUMPI DUP4 DUP5 REVERT JUMPDEST DUP1 CALLDATALOAD SWAP2 POP PUSH2 0x298D PUSH2 0x2508 DUP4 PUSH2 0x37B0 JUMP JUMPDEST DUP3 DUP2 MSTORE DUP4 DUP2 ADD SWAP1 DUP3 DUP6 ADD PUSH1 0x60 DUP1 DUP7 MUL DUP6 ADD DUP8 ADD DUP11 LT ISZERO PUSH2 0x29AB JUMPI DUP8 DUP9 REVERT JUMPDEST DUP8 SWAP5 POP JUMPDEST DUP6 DUP6 LT ISZERO PUSH2 0x29D7 JUMPI PUSH2 0x29C1 DUP11 DUP4 PUSH2 0x2667 JUMP JUMPDEST DUP5 MSTORE PUSH1 0x1 SWAP5 SWAP1 SWAP5 ADD SWAP4 SWAP3 DUP7 ADD SWAP3 SWAP1 DUP2 ADD SWAP1 PUSH2 0x29AF JUMP JUMPDEST POP SWAP1 SWAP9 SWAP8 POP POP POP POP POP POP POP POP JUMP JUMPDEST PUSH1 0x0 PUSH1 0x20 DUP3 DUP5 SUB SLT ISZERO PUSH2 0x29F6 JUMPI DUP1 DUP2 REVERT JUMPDEST DUP2 MLOAD PUSH2 0x6BD DUP2 PUSH2 0x3863 JUMP JUMPDEST PUSH1 0x0 PUSH1 0x20 DUP3 DUP5 SUB SLT ISZERO PUSH2 0x2A12 JUMPI DUP1 DUP2 REVERT JUMPDEST POP CALLDATALOAD SWAP2 SWAP1 POP JUMP JUMPDEST PUSH1 0x0 DUP1 PUSH1 0x40 DUP4 DUP6 SUB SLT ISZERO PUSH2 0x2A2B JUMPI DUP2 DUP3 REVERT JUMPDEST DUP3 MLOAD SWAP2 POP PUSH1 0x20 DUP1 DUP5 ADD MLOAD PUSH8 0xFFFFFFFFFFFFFFFF DUP2 GT ISZERO PUSH2 0x2A49 JUMPI DUP3 DUP4 REVERT JUMPDEST DUP1 DUP6 ADD DUP7 PUSH1 0x1F DUP3 ADD SLT PUSH2 0x2A5A JUMPI DUP4 DUP5 REVERT JUMPDEST DUP1 MLOAD SWAP2 POP PUSH2 0x2A6A PUSH2 0x2508 DUP4 PUSH2 0x37B0 JUMP JUMPDEST DUP3 DUP2 MSTORE DUP4 DUP2 ADD SWAP1 DUP3 DUP6 ADD DUP7 JUMPDEST DUP6 DUP2 LT ISZERO PUSH2 0x2A9F JUMPI PUSH2 0x2A8D DUP12 DUP9 DUP5 MLOAD DUP9 ADD ADD PUSH2 0x261A JUMP JUMPDEST DUP5 MSTORE SWAP3 DUP7 ADD SWAP3 SWAP1 DUP7 ADD SWAP1 PUSH1 0x1 ADD PUSH2 0x2A76 JUMP JUMPDEST POP SWAP7 SWAP10 SWAP1 SWAP9 POP SWAP7 POP POP POP POP POP POP POP JUMP JUMPDEST PUSH1 0x0 DUP1 PUSH1 0x40 DUP4 DUP6 SUB SLT ISZERO PUSH2 0x2AC1 JUMPI DUP2 DUP3 REVERT JUMPDEST DUP3 CALLDATALOAD SWAP2 POP PUSH1 0x20 DUP4 ADD CALLDATALOAD PUSH8 0xFFFFFFFFFFFFFFFF DUP2 GT ISZERO PUSH2 0x2ADE JUMPI DUP2 DUP3 REVERT JUMPDEST PUSH2 0x293A DUP6 DUP3 DUP7 ADD PUSH2 0x25CC JUMP JUMPDEST PUSH1 0x0 PUSH1 0x20 DUP3 DUP5 SUB SLT ISZERO PUSH2 0x2AFB JUMPI DUP1 DUP2 REVERT JUMPDEST DUP2 CALLDATALOAD PUSH2 0x6BD DUP2 PUSH2 0x3871 JUMP JUMPDEST PUSH1 0x0 DUP1 PUSH1 0x40 DUP4 DUP6 SUB SLT ISZERO PUSH2 0x2B18 JUMPI DUP2 DUP3 REVERT JUMPDEST DUP3 CALLDATALOAD PUSH2 0x2B23 DUP2 PUSH2 0x3871 JUMP JUMPDEST SWAP2 POP PUSH1 0x20 DUP4 ADD CALLDATALOAD PUSH2 0x2B33 DUP2 PUSH2 0x383E JUMP JUMPDEST DUP1 SWAP2 POP POP SWAP3 POP SWAP3 SWAP1 POP JUMP JUMPDEST PUSH1 0x0 DUP1 PUSH1 0x0 PUSH1 0x60 DUP5 DUP7 SUB SLT ISZERO PUSH2 0x2B52 JUMPI DUP1 DUP2 REVERT JUMPDEST DUP4 CALLDATALOAD PUSH2 0x2B5D DUP2 PUSH2 0x3871 JUMP JUMPDEST SWAP3 POP PUSH1 0x20 DUP5 ADD CALLDATALOAD PUSH2 0x2B6D DUP2 PUSH2 0x383E JUMP JUMPDEST SWAP2 POP PUSH1 0x40 DUP5 ADD CALLDATALOAD PUSH8 0xFFFFFFFFFFFFFFFF DUP2 GT ISZERO PUSH2 0x2B88 JUMPI DUP2 DUP3 REVERT JUMPDEST PUSH2 0x2B94 DUP7 DUP3 DUP8 ADD PUSH2 0x25CC JUMP JUMPDEST SWAP2 POP POP SWAP3 POP SWAP3 POP SWAP3 JUMP JUMPDEST PUSH1 0x0 DUP1 PUSH1 0x0 PUSH1 0x60 DUP5 DUP7 SUB SLT ISZERO PUSH2 0x2BB2 JUMPI DUP1 DUP2 REVERT JUMPDEST DUP4 CALLDATALOAD PUSH2 0x2BBD DUP2 PUSH2 0x3871 JUMP JUMPDEST SWAP3 POP PUSH1 0x20 DUP5 ADD CALLDATALOAD PUSH2 0x2BCD DUP2 PUSH2 0x383E JUMP JUMPDEST SWAP2 POP PUSH1 0x40 DUP5 ADD CALLDATALOAD PUSH2 0x2BDD DUP2 PUSH2 0x383E JUMP JUMPDEST DUP1 SWAP2 POP POP SWAP3 POP SWAP3 POP SWAP3 JUMP JUMPDEST PUSH1 0x0 DUP1 PUSH1 0x40 DUP4 DUP6 SUB SLT ISZERO PUSH2 0x2BFA JUMPI DUP2 DUP3 REVERT JUMPDEST DUP3 CALLDATALOAD PUSH2 0x2C05 DUP2 PUSH2 0x383E JUMP JUMPDEST SWAP5 PUSH1 0x20 SWAP4 SWAP1 SWAP4 ADD CALLDATALOAD SWAP4 POP POP POP JUMP JUMPDEST PUSH1 0x0 PUSH1 0x20 DUP3 DUP5 SUB SLT ISZERO PUSH2 0x2C24 JUMPI DUP1 DUP2 REVERT JUMPDEST DUP2 CALLDATALOAD PUSH8 0xFFFFFFFFFFFFFFFF DUP2 GT ISZERO PUSH2 0x2C3A JUMPI DUP2 DUP3 REVERT JUMPDEST PUSH2 0x2119 DUP5 DUP3 DUP6 ADD PUSH2 0x25CC JUMP JUMPDEST PUSH1 0x0 PUSH1 0x20 DUP3 DUP5 SUB SLT ISZERO PUSH2 0x2C57 JUMPI DUP1 DUP2 REVERT JUMPDEST DUP2 CALLDATALOAD PUSH8 0xFFFFFFFFFFFFFFFF DUP2 GT ISZERO PUSH2 0x2C6D JUMPI DUP2 DUP3 REVERT JUMPDEST PUSH2 0x2119 DUP5 DUP3 DUP6 ADD PUSH2 0x2722 JUMP JUMPDEST PUSH1 0x0 PUSH1 0x20 DUP3 DUP5 SUB SLT ISZERO PUSH2 0x2C8A JUMPI DUP1 DUP2 REVERT JUMPDEST DUP2 CALLDATALOAD PUSH8 0xFFFFFFFFFFFFFFFF DUP2 GT ISZERO PUSH2 0x2CA0 JUMPI DUP2 DUP3 REVERT JUMPDEST PUSH2 0x2119 DUP5 DUP3 DUP6 ADD PUSH2 0x27AC JUMP JUMPDEST PUSH1 0x0 DUP1 PUSH1 0x40 DUP4 DUP6 SUB SLT ISZERO PUSH2 0x2CBE JUMPI DUP2 DUP3 REVERT JUMPDEST DUP3 CALLDATALOAD PUSH8 0xFFFFFFFFFFFFFFFF DUP1 DUP3 GT ISZERO PUSH2 0x2CD5 JUMPI DUP4 DUP5 REVERT JUMPDEST PUSH2 0x2CE1 DUP7 DUP4 DUP8 ADD PUSH2 0x27AC JUMP JUMPDEST SWAP4 POP PUSH1 0x20 DUP6 ADD CALLDATALOAD SWAP2 POP DUP1 DUP3 GT ISZERO PUSH2 0x2CF6 JUMPI DUP3 DUP4 REVERT JUMPDEST POP PUSH2 0x293A DUP6 DUP3 DUP7 ADD PUSH2 0x25CC JUMP JUMPDEST PUSH1 0x0 DUP1 PUSH1 0x40 DUP4 DUP6 SUB SLT ISZERO PUSH2 0x2D15 JUMPI DUP2 DUP3 REVERT JUMPDEST DUP3 CALLDATALOAD PUSH8 0xFFFFFFFFFFFFFFFF DUP2 GT ISZERO PUSH2 0x2D2B JUMPI DUP3 DUP4 REVERT JUMPDEST PUSH2 0x2D37 DUP6 DUP3 DUP7 ADD PUSH2 0x27AC JUMP JUMPDEST SWAP6 PUSH1 0x20 SWAP5 SWAP1 SWAP5 ADD CALLDATALOAD SWAP5 POP POP POP POP JUMP JUMPDEST PUSH1 0x0 PUSH1 0x20 DUP3 DUP5 SUB SLT ISZERO PUSH2 0x2D57 JUMPI DUP1 DUP2 REVERT JUMPDEST POP MLOAD SWAP2 SWAP1 POP JUMP JUMPDEST PUSH1 0x0 DUP1 PUSH1 0x0 DUP1 PUSH1 0x60 DUP6 DUP8 SUB SLT ISZERO PUSH2 0x2D73 JUMPI DUP2 DUP3 REVERT JUMPDEST DUP5 CALLDATALOAD SWAP4 POP PUSH1 0x20 DUP6 ADD CALLDATALOAD PUSH8 0xFFFFFFFFFFFFFFFF DUP1 DUP3 GT ISZERO PUSH2 0x2D91 JUMPI DUP4 DUP5 REVERT JUMPDEST DUP2 DUP8 ADD DUP9 PUSH1 0x1F DUP3 ADD SLT PUSH2 0x2DA2 JUMPI DUP5 DUP6 REVERT JUMPDEST DUP1 CALLDATALOAD SWAP3 POP DUP2 DUP4 GT ISZERO PUSH2 0x2DB2 JUMPI DUP5 DUP6 REVERT JUMPDEST DUP9 PUSH1 0x20 DUP5 DUP4 ADD ADD GT ISZERO PUSH2 0x2DC3 JUMPI DUP5 DUP6 REVERT JUMPDEST PUSH1 0x20 ADD SWAP5 POP SWAP1 SWAP3 POP POP PUSH1 0x40 DUP6 ADD CALLDATALOAD PUSH2 0x2DDA DUP2 PUSH2 0x3863 JUMP JUMPDEST SWAP4 SWAP7 SWAP3 SWAP6 POP SWAP1 SWAP4 POP POP JUMP JUMPDEST PUSH1 0x0 DUP1 PUSH1 0x40 DUP4 DUP6 SUB SLT ISZERO PUSH2 0x2DF7 JUMPI DUP2 DUP3 REVERT JUMPDEST POP POP DUP1 CALLDATALOAD SWAP3 PUSH1 0x20 SWAP1 SWAP2 ADD CALLDATALOAD SWAP2 POP JUMP JUMPDEST PUSH1 0x0 DUP2 MLOAD DUP1 DUP5 MSTORE PUSH1 0x20 DUP1 DUP6 ADD DUP1 DUP2 SWAP7 POP DUP3 DUP5 MUL DUP2 ADD SWAP2 POP DUP3 DUP7 ADD DUP6 JUMPDEST DUP6 DUP2 LT ISZERO PUSH2 0x2E82 JUMPI DUP3 DUP5 SUB DUP10 MSTORE DUP2 MLOAD PUSH1 0x60 PUSH20 0xFFFFFFFFFFFFFFFFFFFFFFFFFFFFFFFFFFFFFFFF DUP3 MLOAD AND DUP7 MSTORE DUP7 DUP3 ADD MLOAD DUP8 DUP8 ADD MSTORE PUSH1 0x40 DUP1 DUP4 ADD MLOAD DUP3 DUP3 DUP10 ADD MSTORE PUSH2 0x2E6C DUP4 DUP10 ADD DUP3 PUSH2 0x2E8F JUMP JUMPDEST SWAP13 DUP10 ADD SWAP13 SWAP8 POP POP POP SWAP3 DUP7 ADD SWAP3 POP POP PUSH1 0x1 ADD PUSH2 0x2E22 JUMP JUMPDEST POP SWAP2 SWAP8 SWAP7 POP POP POP POP POP POP POP JUMP JUMPDEST PUSH1 0x0 DUP2 MLOAD DUP1 DUP5 MSTORE PUSH2 0x2EA7 DUP2 PUSH1 0x20 DUP7 ADD PUSH1 0x20 DUP7 ADD PUSH2 0x3812 JUMP JUMPDEST PUSH1 0x1F ADD PUSH32 0xFFFFFFFFFFFFFFFFFFFFFFFFFFFFFFFFFFFFFFFFFFFFFFFFFFFFFFFFFFFFFFE0 AND SWAP3 SWAP1 SWAP3 ADD PUSH1 0x20 ADD SWAP3 SWAP2 POP POP JUMP JUMPDEST DUP1 MLOAD PUSH20 0xFFFFFFFFFFFFFFFFFFFFFFFFFFFFFFFFFFFFFFFF AND DUP3 MSTORE PUSH1 0x20 SWAP1 DUP2 ADD MLOAD SWAP2 ADD MSTORE JUMP JUMPDEST PUSH1 0x0 DUP2 MLOAD DUP4 MSTORE PUSH1 0x20 DUP3 ADD MLOAD PUSH2 0x2F16 PUSH1 0x20 DUP6 ADD DUP3 PUSH2 0x2ED9 JUMP JUMPDEST POP PUSH1 0x40 DUP3 ADD MLOAD PUSH2 0x2F29 PUSH1 0x60 DUP6 ADD DUP3 PUSH2 0x2ED9 JUMP JUMPDEST POP PUSH20 0xFFFFFFFFFFFFFFFFFFFFFFFFFFFFFFFFFFFFFFFF PUSH1 0x60 DUP4 ADD MLOAD AND PUSH1 0xA0 DUP5 ADD MSTORE PUSH1 0x80 DUP3 ADD MLOAD PUSH1 0xE0 PUSH1 0xC0 DUP6 ADD MSTORE PUSH2 0x2119 PUSH1 0xE0 DUP6 ADD DUP3 PUSH2 0x2E8F JUMP JUMPDEST PUSH1 0x0 DUP2 MLOAD DUP4 MSTORE PUSH1 0x20 DUP3 ADD MLOAD PUSH1 0x20 DUP5 ADD MSTORE PUSH1 0x40 DUP3 ADD MLOAD PUSH20 0xFFFFFFFFFFFFFFFFFFFFFFFFFFFFFFFFFFFFFFFF DUP1 DUP3 AND PUSH1 0x40 DUP7 ADD MSTORE DUP1 PUSH1 0x60 DUP6 ADD MLOAD AND PUSH1 0x60 DUP7 ADD MSTORE POP POP PUSH1 0x80 DUP3 ADD MLOAD PUSH1 0xE0 PUSH1 0x80 DUP6 ADD MSTORE PUSH2 0x2FBC PUSH1 0xE0 DUP6 ADD DUP3 PUSH2 0x2E06 JUMP JUMPDEST PUSH1 0xA0 DUP5 ADD MLOAD PUSH1 0xA0 DUP7 ADD MSTORE PUSH1 0xC0 DUP5 ADD MLOAD SWAP2 POP DUP5 DUP2 SUB PUSH1 0xC0 DUP7 ADD MSTORE PUSH2 0x21C9 DUP2 DUP4 PUSH2 0x2E8F JUMP JUMPDEST PUSH1 0x0 DUP3 MLOAD PUSH2 0x2FF1 DUP2 DUP5 PUSH1 0x20 DUP8 ADD PUSH2 0x3812 JUMP JUMPDEST SWAP2 SWAP1 SWAP2 ADD SWAP3 SWAP2 POP POP JUMP JUMPDEST PUSH32 0x61636C0000000000000000000000000000000000000000000000000000000000 DUP2 MSTORE PUSH1 0x3 ADD SWAP1 JUMP JUMPDEST PUSH32 0x657263336B2D7631000000000000000000000000000000000000000000000000 DUP2 MSTORE PUSH1 0x60 SWAP5 SWAP1 SWAP5 SHL PUSH32 0xFFFFFFFFFFFFFFFFFFFFFFFFFFFFFFFFFFFFFFFF000000000000000000000000 AND PUSH1 0x8 DUP6 ADD MSTORE PUSH1 0x1C DUP5 ADD SWAP3 SWAP1 SWAP3 MSTORE PUSH1 0x3C DUP4 ADD MSTORE PUSH1 0x5C DUP3 ADD MSTORE PUSH1 0x7C ADD SWAP1 JUMP JUMPDEST SWAP7 DUP8 MSTORE PUSH1 0x20 DUP8 ADD SWAP6 SWAP1 SWAP6 MSTORE PUSH32 0xFFFFFFFFFFFFFFFFFFFFFFFFFFFFFFFFFFFFFFFF000000000000000000000000 PUSH1 0x60 SWAP5 DUP6 SHL DUP2 AND PUSH1 0x40 DUP9 ADD MSTORE SWAP3 SWAP1 SWAP4 SHL SWAP1 SWAP2 AND PUSH1 0x54 DUP6 ADD MSTORE PUSH1 0x68 DUP5 ADD MSTORE PUSH1 0x88 DUP4 ADD MSTORE PUSH1 0xA8 DUP3 ADD MSTORE PUSH1 0xC8 ADD SWAP1 JUMP JUMPDEST PUSH20 0xFFFFFFFFFFFFFFFFFFFFFFFFFFFFFFFFFFFFFFFF SWAP2 SWAP1 SWAP2 AND DUP2 MSTORE PUSH1 0x20 ADD SWAP1 JUMP JUMPDEST PUSH20 0xFFFFFFFFFFFFFFFFFFFFFFFFFFFFFFFFFFFFFFFF SWAP4 DUP5 AND DUP2 MSTORE SWAP2 SWAP1 SWAP3 AND PUSH1 0x20 DUP3 ADD MSTORE PUSH1 0x40 DUP2 ADD SWAP2 SWAP1 SWAP2 MSTORE PUSH1 0x60 ADD SWAP1 JUMP JUMPDEST PUSH20 0xFFFFFFFFFFFFFFFFFFFFFFFFFFFFFFFFFFFFFFFF SWAP3 SWAP1 SWAP3 AND DUP3 MSTORE PUSH1 0x20 DUP3 ADD MSTORE PUSH1 0x40 ADD SWAP1 JUMP JUMPDEST PUSH1 0x0 PUSH1 0x20 DUP3 MSTORE PUSH2 0x6BD PUSH1 0x20 DUP4 ADD DUP5 PUSH2 0x2E06 JUMP JUMPDEST PUSH1 0x0 PUSH1 0x60 DUP3 MSTORE PUSH2 0x3183 PUSH1 0x60 DUP4 ADD DUP7 PUSH2 0x2E06 JUMP JUMPDEST PUSH1 0x20 DUP4 ADD SWAP5 SWAP1 SWAP5 MSTORE POP PUSH1 0x40 ADD MSTORE SWAP2 SWAP1 POP JUMP JUMPDEST SWAP1 ISZERO ISZERO DUP2 MSTORE PUSH1 0x20 ADD SWAP1 JUMP JUMPDEST SWAP1 DUP2 MSTORE PUSH1 0x20 ADD SWAP1 JUMP JUMPDEST PUSH1 0x0 PUSH1 0x40 DUP3 ADD DUP5 DUP4 MSTORE PUSH1 0x20 PUSH1 0x40 DUP2 DUP6 ADD MSTORE DUP2 DUP6 MLOAD DUP1 DUP5 MSTORE PUSH1 0x60 DUP7 ADD SWAP2 POP PUSH1 0x60 DUP4 DUP3 MUL DUP8 ADD ADD SWAP4 POP DUP3 DUP8 ADD DUP6 JUMPDEST DUP3 DUP2 LT ISZERO PUSH2 0x3221 JUMPI PUSH32 0xFFFFFFFFFFFFFFFFFFFFFFFFFFFFFFFFFFFFFFFFFFFFFFFFFFFFFFFFFFFFFFA0 DUP9 DUP8 SUB ADD DUP5 MSTORE PUSH2 0x320F DUP7 DUP4 MLOAD PUSH2 0x2E8F JUMP JUMPDEST SWAP6 POP SWAP3 DUP5 ADD SWAP3 SWAP1 DUP5 ADD SWAP1 PUSH1 0x1 ADD PUSH2 0x31D5 JUMP JUMPDEST POP SWAP4 SWAP9 SWAP8 POP POP POP POP POP POP POP POP JUMP JUMPDEST PUSH32 0xFFFFFFFF00000000000000000000000000000000000000000000000000000000 SWAP2 SWAP1 SWAP2 AND DUP2 MSTORE PUSH1 0x20 ADD SWAP1 JUMP JUMPDEST PUSH1 0x0 PUSH32 0xFFFFFFFF00000000000000000000000000000000000000000000000000000000 DUP6 AND DUP3 MSTORE PUSH20 0xFFFFFFFFFFFFFFFFFFFFFFFFFFFFFFFFFFFFFFFF DUP5 AND PUSH1 0x20 DUP4 ADD MSTORE PUSH1 0x60 PUSH1 0x40 DUP4 ADD MSTORE PUSH2 0x21C9 PUSH1 0x60 DUP4 ADD DUP5 PUSH2 0x2E8F JUMP JUMPDEST PUSH1 0x0 PUSH1 0x20 DUP3 MSTORE PUSH2 0x6BD PUSH1 0x20 DUP4 ADD DUP5 PUSH2 0x2E8F JUMP JUMPDEST PUSH1 0x0 PUSH1 0x40 DUP3 MSTORE PUSH2 0x32D9 PUSH1 0x40 DUP4 ADD DUP6 PUSH2 0x2E8F JUMP JUMPDEST SWAP1 POP DUP3 ISZERO ISZERO PUSH1 0x20 DUP4 ADD MSTORE SWAP4 SWAP3 POP POP POP JUMP JUMPDEST PUSH1 0x0 PUSH1 0x80 DUP3 MSTORE PUSH2 0x32FD PUSH1 0x80 DUP4 ADD DUP7 PUSH2 0x2E8F JUMP JUMPDEST SWAP1 POP DUP4 PUSH1 0x20 DUP4 ADD MSTORE PUSH2 0x2119 PUSH1 0x40 DUP4 ADD DUP5 PUSH2 0x2ED9 JUMP JUMPDEST PUSH1 0x20 DUP2 ADD PUSH1 0x7 DUP4 LT PUSH2 0x3320 JUMPI INVALID JUMPDEST SWAP2 SWAP1 MSTORE SWAP1 JUMP JUMPDEST PUSH1 0x0 DUP4 DUP3 MSTORE PUSH1 0x40 PUSH1 0x20 DUP4 ADD MSTORE PUSH2 0x2119 PUSH1 0x40 DUP4 ADD DUP5 PUSH2 0x2E8F JUMP JUMPDEST PUSH1 0x20 DUP1 DUP3 MSTORE PUSH1 0x10 SWAP1 DUP3 ADD MSTORE PUSH32 0x71756575653A2062616420737461746500000000000000000000000000000000 PUSH1 0x40 DUP3 ADD MSTORE PUSH1 0x60 ADD SWAP1 JUMP JUMPDEST PUSH1 0x20 DUP1 DUP3 MSTORE PUSH1 0x11 SWAP1 DUP3 ADD MSTORE PUSH32 0x71756575653A2062616420636F6E666967000000000000000000000000000000 PUSH1 0x40 DUP3 ADD MSTORE PUSH1 0x60 ADD SWAP1 JUMP JUMPDEST PUSH1 0x20 DUP1 DUP3 MSTORE PUSH1 0x9 SWAP1 DUP3 ADD MSTORE PUSH32 0x61636C3A20617574680000000000000000000000000000000000000000000000 PUSH1 0x40 DUP3 ADD MSTORE PUSH1 0x60 ADD SWAP1 JUMP JUMPDEST PUSH1 0x20 DUP1 DUP3 MSTORE PUSH1 0x10 SWAP1 DUP3 ADD MSTORE PUSH32 0x71756575653A20626164206E6F6E636500000000000000000000000000000000 PUSH1 0x40 DUP3 ADD MSTORE PUSH1 0x60 ADD SWAP1 JUMP JUMPDEST PUSH1 0x20 DUP1 DUP3 MSTORE PUSH1 0x10 SWAP1 DUP3 ADD MSTORE PUSH32 0x71756575653A206261642064656C617900000000000000000000000000000000 PUSH1 0x40 DUP3 ADD MSTORE PUSH1 0x60 ADD SWAP1 JUMP JUMPDEST PUSH1 0x20 DUP1 DUP3 MSTORE PUSH1 0x10 SWAP1 DUP3 ADD MSTORE PUSH32 0x71756575653A2062616420726573657400000000000000000000000000000000 PUSH1 0x40 DUP3 ADD MSTORE PUSH1 0x60 ADD SWAP1 JUMP JUMPDEST PUSH1 0x20 DUP1 DUP3 MSTORE PUSH1 0x13 SWAP1 DUP3 ADD MSTORE PUSH32 0x71756575653A20626164206665652070756C6C00000000000000000000000000 PUSH1 0x40 DUP3 ADD MSTORE PUSH1 0x60 ADD SWAP1 JUMP JUMPDEST PUSH1 0x20 DUP1 DUP3 MSTORE PUSH1 0x14 SWAP1 DUP3 ADD MSTORE PUSH32 0x71756575653A20626164207375626D6974746572000000000000000000000000 PUSH1 0x40 DUP3 ADD MSTORE PUSH1 0x60 ADD SWAP1 JUMP JUMPDEST PUSH1 0x20 DUP1 DUP3 MSTORE PUSH1 0xF SWAP1 DUP3 ADD MSTORE PUSH32 0x71756575653A2065766964656E63650000000000000000000000000000000000 PUSH1 0x40 DUP3 ADD MSTORE PUSH1 0x60 ADD SWAP1 JUMP JUMPDEST PUSH1 0x20 DUP1 DUP3 MSTORE PUSH1 0xB SWAP1 DUP3 ADD MSTORE PUSH32 0x61636C3A2066726F7A656E000000000000000000000000000000000000000000 PUSH1 0x40 DUP3 ADD MSTORE PUSH1 0x60 ADD SWAP1 JUMP JUMPDEST PUSH1 0x20 DUP1 DUP3 MSTORE PUSH1 0x12 SWAP1 DUP3 ADD MSTORE PUSH32 0x71756575653A2062616420617070726F76650000000000000000000000000000 PUSH1 0x40 DUP3 ADD MSTORE PUSH1 0x60 ADD SWAP1 JUMP JUMPDEST PUSH1 0x20 DUP1 DUP3 MSTORE PUSH1 0x15 SWAP1 DUP3 ADD MSTORE PUSH32 0x71756575653A206261642073656E6420746F6B656E0000000000000000000000 PUSH1 0x40 DUP3 ADD MSTORE PUSH1 0x60 ADD SWAP1 JUMP JUMPDEST PUSH1 0x20 DUP1 DUP3 MSTORE PUSH1 0x22 SWAP1 DUP3 ADD MSTORE PUSH32 0x696E697469616C697A61626C653A20616C726561647920696E697469616C697A PUSH1 0x40 DUP3 ADD MSTORE PUSH32 0x6564000000000000000000000000000000000000000000000000000000000000 PUSH1 0x60 DUP3 ADD MSTORE PUSH1 0x80 ADD SWAP1 JUMP JUMPDEST PUSH1 0x20 DUP1 DUP3 MSTORE PUSH1 0x10 SWAP1 DUP3 ADD MSTORE PUSH32 0x71756575653A2077616974206D6F726500000000000000000000000000000000 PUSH1 0x40 DUP3 ADD MSTORE PUSH1 0x60 ADD SWAP1 JUMP JUMPDEST PUSH1 0x20 DUP1 DUP3 MSTORE PUSH1 0x14 SWAP1 DUP3 ADD MSTORE PUSH32 0x71756575653A206261642067657420746F6B656E000000000000000000000000 PUSH1 0x40 DUP3 ADD MSTORE PUSH1 0x60 ADD SWAP1 JUMP JUMPDEST PUSH1 0x20 DUP1 DUP3 MSTORE PUSH1 0xF SWAP1 DUP3 ADD MSTORE PUSH32 0x61636C3A2062616420667265657A650000000000000000000000000000000000 PUSH1 0x40 DUP3 ADD MSTORE PUSH1 0x60 ADD SWAP1 JUMP JUMPDEST PUSH1 0x20 DUP1 DUP3 MSTORE PUSH1 0x11 SWAP1 DUP3 ADD MSTORE PUSH32 0x71756575653A20756E7265736F6C766564000000000000000000000000000000 PUSH1 0x40 DUP3 ADD MSTORE PUSH1 0x60 ADD SWAP1 JUMP JUMPDEST PUSH1 0x0 PUSH1 0x20 DUP3 MSTORE PUSH2 0x6BD PUSH1 0x20 DUP4 ADD DUP5 PUSH2 0x2EFE JUMP JUMPDEST PUSH1 0x0 PUSH1 0x20 DUP3 MSTORE DUP3 MLOAD PUSH1 0x40 PUSH1 0x20 DUP5 ADD MSTORE PUSH2 0x373B PUSH1 0x60 DUP5 ADD DUP3 PUSH2 0x2F63 JUMP JUMPDEST PUSH1 0x20 DUP6 ADD MLOAD SWAP2 POP PUSH32 0xFFFFFFFFFFFFFFFFFFFFFFFFFFFFFFFFFFFFFFFFFFFFFFFFFFFFFFFFFFFFFFE0 DUP5 DUP3 SUB ADD PUSH1 0x40 DUP6 ADD MSTORE PUSH2 0x21C9 DUP2 DUP4 PUSH2 0x2EFE JUMP JUMPDEST PUSH1 0x0 PUSH1 0x20 DUP3 MSTORE PUSH2 0x6BD PUSH1 0x20 DUP4 ADD DUP5 PUSH2 0x2F63 JUMP JUMPDEST PUSH1 0x40 MLOAD DUP2 DUP2 ADD PUSH8 0xFFFFFFFFFFFFFFFF DUP2 GT DUP3 DUP3 LT OR ISZERO PUSH2 0x37A8 JUMPI PUSH1 0x0 DUP1 REVERT JUMPDEST PUSH1 0x40 MSTORE SWAP2 SWAP1 POP JUMP JUMPDEST PUSH1 0x0 PUSH8 0xFFFFFFFFFFFFFFFF DUP3 GT ISZERO PUSH2 0x37C6 JUMPI DUP1 DUP2 REVERT JUMPDEST POP PUSH1 0x20 SWAP1 DUP2 MUL ADD SWAP1 JUMP JUMPDEST PUSH1 0x0 PUSH8 0xFFFFFFFFFFFFFFFF DUP3 GT ISZERO PUSH2 0x37E6 JUMPI DUP1 DUP2 REVERT JUMPDEST POP PUSH1 0x1F ADD PUSH32 0xFFFFFFFFFFFFFFFFFFFFFFFFFFFFFFFFFFFFFFFFFFFFFFFFFFFFFFFFFFFFFFE0 AND PUSH1 0x20 ADD SWAP1 JUMP JUMPDEST PUSH1 0x0 JUMPDEST DUP4 DUP2 LT ISZERO PUSH2 0x382D JUMPI DUP2 DUP2 ADD MLOAD DUP4 DUP3 ADD MSTORE PUSH1 0x20 ADD PUSH2 0x3815 JUMP JUMPDEST DUP4 DUP2 GT ISZERO PUSH2 0x1726 JUMPI POP POP PUSH1 0x0 SWAP2 ADD MSTORE JUMP JUMPDEST PUSH20 0xFFFFFFFFFFFFFFFFFFFFFFFFFFFFFFFFFFFFFFFF DUP2 AND DUP2 EQ PUSH2 0x3860 JUMPI PUSH1 0x0 DUP1 REVERT JUMPDEST POP JUMP JUMPDEST DUP1 ISZERO ISZERO DUP2 EQ PUSH2 0x3860 JUMPI PUSH1 0x0 DUP1 REVERT JUMPDEST PUSH32 0xFFFFFFFF00000000000000000000000000000000000000000000000000000000 DUP2 AND DUP2 EQ PUSH2 0x3860 JUMPI PUSH1 0x0 DUP1 REVERT INVALID LOG2 PUSH5 0x6970667358 0x22 SLT KECCAK256 SWAP8 0xE1 DUP8 LOG1 PUSH32 0x4C8613758160880A23C01440579CE7B8548B427685E211B4C65B6264736F6C63 NUMBER STOP MOD ADDMOD STOP CALLER PUSH28 0xC2A48A4A566E237A12186F19D985B0F76AFC9D5290601EDAC1987625 CALLDATASIZE PUSH17 0xC200000000000000000000000000000000 "
		},
		"gasEstimates": {
			"creation": {
				"codeDepositCost": "2909800",
				"executionCost": "infinite",
				"totalCost": "infinite"
			},
			"external": {
				"ROOT_ROLE()": "308",
				"bulk((uint8,bytes4,address)[])": "infinite",
				"challenge(((uint256,uint256,address,address,(address,uint256,bytes)[],bytes32,bytes),(uint256,(address,uint256),(address,uint256),address,bytes)),bytes)": "infinite",
				"challengerCache(bytes32)": "1255",
				"configHash()": "1138",
				"configure((uint256,(address,uint256),(address,uint256),address,bytes))": "infinite",
				"disputeItemCache(address,uint256)": "1373",
				"execute(((uint256,uint256,address,address,(address,uint256,bytes)[],bytes32,bytes),(uint256,(address,uint256),(address,uint256),address,bytes)))": "infinite",
				"executeApproved(((uint256,uint256,address,address,(address,uint256,bytes)[],bytes32,bytes),(uint256,(address,uint256),(address,uint256),address,bytes)))": "infinite",
				"freeze(bytes4)": "infinite",
				"grant(bytes4,address)": "infinite",
				"grantWithOracle(bytes4,address,address)": "infinite",
				"initBlocks(string)": "infinite",
				"initialize(address,(uint256,(address,uint256),(address,uint256),address,bytes))": "infinite",
				"isFrozen(bytes4)": "1398",
				"nonce()": "1139",
				"queue(bytes32)": "1249",
				"resolve(((uint256,uint256,address,address,(address,uint256,bytes)[],bytes32,bytes),(uint256,(address,uint256),(address,uint256),address,bytes)),uint256)": "infinite",
				"revoke(bytes4,address)": "infinite",
				"roles(bytes4,address)": "infinite",
				"rule(uint256,uint256)": "infinite",
				"schedule(((uint256,uint256,address,address,(address,uint256,bytes)[],bytes32,bytes),(uint256,(address,uint256),(address,uint256),address,bytes)))": "infinite",
				"settleRejection(((uint256,uint256,address,address,(address,uint256,bytes)[],bytes32,bytes),(uint256,(address,uint256),(address,uint256),address,bytes)))": "infinite",
				"submitEvidence(uint256,bytes,bool)": "693",
				"supportsInterface(bytes4)": "1411",
				"veto(bytes32,bytes)": "infinite",
				"willPerform(bytes4,address,bytes)": "infinite"
			},
			"internal": {
				"_execute(struct ERC3000Data.Payload memory,bytes32)": "infinite",
				"_setConfig(struct ERC3000Data.Config memory)": "infinite"
			}
		},
		"methodIdentifiers": {
			"ROOT_ROLE()": "7e8c7f08",
			"bulk((uint8,bytes4,address)[])": "1c47671b",
			"challenge(((uint256,uint256,address,address,(address,uint256,bytes)[],bytes32,bytes),(uint256,(address,uint256),(address,uint256),address,bytes)),bytes)": "70576158",
			"challengerCache(bytes32)": "c8182af0",
			"configHash()": "e1f1176d",
			"configure((uint256,(address,uint256),(address,uint256),address,bytes))": "72896761",
			"disputeItemCache(address,uint256)": "3b1c5fc6",
			"execute(((uint256,uint256,address,address,(address,uint256,bytes)[],bytes32,bytes),(uint256,(address,uint256),(address,uint256),address,bytes)))": "3a139c71",
			"executeApproved(((uint256,uint256,address,address,(address,uint256,bytes)[],bytes32,bytes),(uint256,(address,uint256),(address,uint256),address,bytes)))": "55a33159",
			"freeze(bytes4)": "bdf9a726",
			"grant(bytes4,address)": "a157a10d",
			"grantWithOracle(bytes4,address,address)": "a2157227",
			"initBlocks(string)": "cc1d4cab",
			"initialize(address,(uint256,(address,uint256),(address,uint256),address,bytes))": "59b6907a",
			"isFrozen(bytes4)": "495a9825",
			"nonce()": "affed0e0",
			"queue(bytes32)": "7c10dea6",
			"resolve(((uint256,uint256,address,address,(address,uint256,bytes)[],bytes32,bytes),(uint256,(address,uint256),(address,uint256),address,bytes)),uint256)": "2a0d403e",
			"revoke(bytes4,address)": "58849734",
			"roles(bytes4,address)": "96fc8abd",
			"rule(uint256,uint256)": "311a6c56",
			"schedule(((uint256,uint256,address,address,(address,uint256,bytes)[],bytes32,bytes),(uint256,(address,uint256),(address,uint256),address,bytes)))": "977d8964",
			"settleRejection(((uint256,uint256,address,address,(address,uint256,bytes)[],bytes32,bytes),(uint256,(address,uint256),(address,uint256),address,bytes)))": "b8ebe05e",
			"submitEvidence(uint256,bytes,bool)": "b9e9823f",
			"supportsInterface(bytes4)": "01ffc9a7",
			"veto(bytes32,bytes)": "c04c87b8",
			"willPerform(bytes4,address,bytes)": "097c8108"
		}
	},
	"abi": [
		{
			"inputs": [
				{
					"internalType": "address",
					"name": "_aclRoot",
					"type": "address"
				},
				{
					"components": [
						{
							"internalType": "uint256",
							"name": "executionDelay",
							"type": "uint256"
						},
						{
							"components": [
								{
									"internalType": "address",
									"name": "token",
									"type": "address"
								},
								{
									"internalType": "uint256",
									"name": "amount",
									"type": "uint256"
								}
							],
							"internalType": "struct ERC3000Data.Collateral",
							"name": "scheduleDeposit",
							"type": "tuple"
						},
						{
							"components": [
								{
									"internalType": "address",
									"name": "token",
									"type": "address"
								},
								{
									"internalType": "uint256",
									"name": "amount",
									"type": "uint256"
								}
							],
							"internalType": "struct ERC3000Data.Collateral",
							"name": "challengeDeposit",
							"type": "tuple"
						},
						{
							"internalType": "address",
							"name": "resolver",
							"type": "address"
						},
						{
							"internalType": "bytes",
							"name": "rules",
							"type": "bytes"
						}
					],
					"internalType": "struct ERC3000Data.Config",
					"name": "_initialConfig",
					"type": "tuple"
				}
			],
			"stateMutability": "nonpayable",
			"type": "constructor"
		},
		{
			"anonymous": false,
			"inputs": [
				{
					"indexed": true,
					"internalType": "bytes32",
					"name": "containerHash",
					"type": "bytes32"
				},
				{
					"indexed": true,
					"internalType": "address",
					"name": "actor",
					"type": "address"
				},
				{
					"indexed": false,
					"internalType": "bytes",
					"name": "reason",
					"type": "bytes"
				},
				{
					"indexed": false,
					"internalType": "uint256",
					"name": "resolverId",
					"type": "uint256"
				},
				{
					"components": [
						{
							"internalType": "address",
							"name": "token",
							"type": "address"
						},
						{
							"internalType": "uint256",
							"name": "amount",
							"type": "uint256"
						}
					],
					"indexed": false,
					"internalType": "struct ERC3000Data.Collateral",
					"name": "collateral",
					"type": "tuple"
				}
			],
			"name": "Challenged",
			"type": "event"
		},
		{
			"anonymous": false,
			"inputs": [
				{
					"indexed": true,
					"internalType": "bytes32",
					"name": "containerHash",
					"type": "bytes32"
				},
				{
					"indexed": true,
					"internalType": "address",
					"name": "actor",
					"type": "address"
				},
				{
					"components": [
						{
							"internalType": "uint256",
							"name": "executionDelay",
							"type": "uint256"
						},
						{
							"components": [
								{
									"internalType": "address",
									"name": "token",
									"type": "address"
								},
								{
									"internalType": "uint256",
									"name": "amount",
									"type": "uint256"
								}
							],
							"internalType": "struct ERC3000Data.Collateral",
							"name": "scheduleDeposit",
							"type": "tuple"
						},
						{
							"components": [
								{
									"internalType": "address",
									"name": "token",
									"type": "address"
								},
								{
									"internalType": "uint256",
									"name": "amount",
									"type": "uint256"
								}
							],
							"internalType": "struct ERC3000Data.Collateral",
							"name": "challengeDeposit",
							"type": "tuple"
						},
						{
							"internalType": "address",
							"name": "resolver",
							"type": "address"
						},
						{
							"internalType": "bytes",
							"name": "rules",
							"type": "bytes"
						}
					],
					"indexed": false,
					"internalType": "struct ERC3000Data.Config",
					"name": "config",
					"type": "tuple"
				}
			],
			"name": "Configured",
			"type": "event"
		},
		{
			"anonymous": false,
			"inputs": [
				{
					"indexed": true,
					"internalType": "contract IArbitrator",
					"name": "arbitrator",
					"type": "address"
				},
				{
					"indexed": true,
					"internalType": "uint256",
					"name": "disputeId",
					"type": "uint256"
				},
				{
					"indexed": true,
					"internalType": "address",
					"name": "submitter",
					"type": "address"
				},
				{
					"indexed": false,
					"internalType": "bytes",
					"name": "evidence",
					"type": "bytes"
				},
				{
					"indexed": false,
					"internalType": "bool",
					"name": "finished",
					"type": "bool"
				}
			],
			"name": "EvidenceSubmitted",
			"type": "event"
		},
		{
			"anonymous": false,
			"inputs": [
				{
					"indexed": true,
					"internalType": "bytes32",
					"name": "containerHash",
					"type": "bytes32"
				},
				{
					"indexed": true,
					"internalType": "address",
					"name": "actor",
					"type": "address"
				}
			],
			"name": "Executed",
			"type": "event"
		},
		{
			"anonymous": false,
			"inputs": [
				{
					"indexed": true,
					"internalType": "bytes4",
					"name": "role",
					"type": "bytes4"
				},
				{
					"indexed": true,
					"internalType": "address",
					"name": "actor",
					"type": "address"
				}
			],
			"name": "Frozen",
			"type": "event"
		},
		{
			"anonymous": false,
			"inputs": [
				{
					"indexed": true,
					"internalType": "bytes4",
					"name": "role",
					"type": "bytes4"
				},
				{
					"indexed": true,
					"internalType": "address",
					"name": "actor",
					"type": "address"
				},
				{
					"indexed": true,
					"internalType": "address",
					"name": "who",
					"type": "address"
				},
				{
					"indexed": false,
					"internalType": "contract IACLOracle",
					"name": "oracle",
					"type": "address"
				}
			],
			"name": "Granted",
			"type": "event"
		},
		{
			"anonymous": false,
			"inputs": [
				{
					"indexed": true,
					"internalType": "string",
					"name": "key",
					"type": "string"
				}
			],
			"name": "Initialized",
			"type": "event"
		},
		{
			"anonymous": false,
			"inputs": [
				{
					"indexed": true,
					"internalType": "bytes4",
					"name": "sig",
					"type": "bytes4"
				},
				{
					"indexed": false,
					"internalType": "bytes",
					"name": "data",
					"type": "bytes"
				}
			],
			"name": "ReceivedCallback",
			"type": "event"
		},
		{
			"anonymous": false,
			"inputs": [
				{
					"indexed": false,
					"internalType": "bytes4",
					"name": "sig",
					"type": "bytes4"
				},
				{
					"indexed": false,
					"internalType": "bytes4",
					"name": "magicNumber",
					"type": "bytes4"
				}
			],
			"name": "RegisteredCallback",
			"type": "event"
		},
		{
			"anonymous": false,
			"inputs": [
				{
					"indexed": false,
					"internalType": "bytes4",
					"name": "interfaceId",
					"type": "bytes4"
				}
			],
			"name": "RegisteredStandard",
			"type": "event"
		},
		{
			"anonymous": false,
			"inputs": [
				{
					"indexed": true,
					"internalType": "bytes32",
					"name": "containerHash",
					"type": "bytes32"
				},
				{
					"indexed": true,
					"internalType": "address",
					"name": "actor",
					"type": "address"
				},
				{
					"indexed": false,
					"internalType": "bool",
					"name": "approved",
					"type": "bool"
				}
			],
			"name": "Resolved",
			"type": "event"
		},
		{
			"anonymous": false,
			"inputs": [
				{
					"indexed": true,
					"internalType": "bytes4",
					"name": "role",
					"type": "bytes4"
				},
				{
					"indexed": true,
					"internalType": "address",
					"name": "actor",
					"type": "address"
				},
				{
					"indexed": true,
					"internalType": "address",
					"name": "who",
					"type": "address"
				}
			],
			"name": "Revoked",
			"type": "event"
		},
		{
			"anonymous": false,
			"inputs": [
				{
					"indexed": true,
					"internalType": "contract IArbitrator",
					"name": "arbitrator",
					"type": "address"
				},
				{
					"indexed": true,
					"internalType": "uint256",
					"name": "disputeId",
					"type": "uint256"
				},
				{
					"indexed": false,
					"internalType": "uint256",
					"name": "ruling",
					"type": "uint256"
				}
			],
			"name": "Ruled",
			"type": "event"
		},
		{
			"anonymous": false,
			"inputs": [
				{
					"indexed": true,
					"internalType": "bytes32",
					"name": "containerHash",
					"type": "bytes32"
				},
				{
					"components": [
						{
							"internalType": "uint256",
							"name": "nonce",
							"type": "uint256"
						},
						{
							"internalType": "uint256",
							"name": "executionTime",
							"type": "uint256"
						},
						{
							"internalType": "address",
							"name": "submitter",
							"type": "address"
						},
						{
							"internalType": "contract IERC3000Executor",
							"name": "executor",
							"type": "address"
						},
						{
							"components": [
								{
									"internalType": "address",
									"name": "to",
									"type": "address"
								},
								{
									"internalType": "uint256",
									"name": "value",
									"type": "uint256"
								},
								{
									"internalType": "bytes",
									"name": "data",
									"type": "bytes"
								}
							],
							"internalType": "struct ERC3000Data.Action[]",
							"name": "actions",
							"type": "tuple[]"
						},
						{
							"internalType": "bytes32",
							"name": "allowFailuresMap",
							"type": "bytes32"
						},
						{
							"internalType": "bytes",
							"name": "proof",
							"type": "bytes"
						}
					],
					"indexed": false,
					"internalType": "struct ERC3000Data.Payload",
					"name": "payload",
					"type": "tuple"
				}
			],
			"name": "Scheduled",
			"type": "event"
		},
		{
			"anonymous": false,
			"inputs": [
				{
					"indexed": true,
					"internalType": "bytes32",
					"name": "containerHash",
					"type": "bytes32"
				},
				{
					"indexed": true,
					"internalType": "address",
					"name": "actor",
					"type": "address"
				},
				{
					"indexed": false,
					"internalType": "bytes",
					"name": "reason",
					"type": "bytes"
				}
			],
			"name": "Vetoed",
			"type": "event"
		},
		{
			"inputs": [],
			"name": "ROOT_ROLE",
			"outputs": [
				{
					"internalType": "bytes4",
					"name": "",
					"type": "bytes4"
				}
			],
			"stateMutability": "view",
			"type": "function"
		},
		{
			"inputs": [
				{
					"components": [
						{
							"internalType": "enum ACLData.BulkOp",
							"name": "op",
							"type": "uint8"
						},
						{
							"internalType": "bytes4",
							"name": "role",
							"type": "bytes4"
						},
						{
							"internalType": "address",
							"name": "who",
							"type": "address"
						}
					],
					"internalType": "struct ACLData.BulkItem[]",
					"name": "items",
					"type": "tuple[]"
				}
			],
			"name": "bulk",
			"outputs": [],
			"stateMutability": "nonpayable",
			"type": "function"
		},
		{
			"inputs": [
				{
					"components": [
						{
							"components": [
								{
									"internalType": "uint256",
									"name": "nonce",
									"type": "uint256"
								},
								{
									"internalType": "uint256",
									"name": "executionTime",
									"type": "uint256"
								},
								{
									"internalType": "address",
									"name": "submitter",
									"type": "address"
								},
								{
									"internalType": "contract IERC3000Executor",
									"name": "executor",
									"type": "address"
								},
								{
									"components": [
										{
											"internalType": "address",
											"name": "to",
											"type": "address"
										},
										{
											"internalType": "uint256",
											"name": "value",
											"type": "uint256"
										},
										{
											"internalType": "bytes",
											"name": "data",
											"type": "bytes"
										}
									],
									"internalType": "struct ERC3000Data.Action[]",
									"name": "actions",
									"type": "tuple[]"
								},
								{
									"internalType": "bytes32",
									"name": "allowFailuresMap",
									"type": "bytes32"
								},
								{
									"internalType": "bytes",
									"name": "proof",
									"type": "bytes"
								}
							],
							"internalType": "struct ERC3000Data.Payload",
							"name": "payload",
							"type": "tuple"
						},
						{
							"components": [
								{
									"internalType": "uint256",
									"name": "executionDelay",
									"type": "uint256"
								},
								{
									"components": [
										{
											"internalType": "address",
											"name": "token",
											"type": "address"
										},
										{
											"internalType": "uint256",
											"name": "amount",
											"type": "uint256"
										}
									],
									"internalType": "struct ERC3000Data.Collateral",
									"name": "scheduleDeposit",
									"type": "tuple"
								},
								{
									"components": [
										{
											"internalType": "address",
											"name": "token",
											"type": "address"
										},
										{
											"internalType": "uint256",
											"name": "amount",
											"type": "uint256"
										}
									],
									"internalType": "struct ERC3000Data.Collateral",
									"name": "challengeDeposit",
									"type": "tuple"
								},
								{
									"internalType": "address",
									"name": "resolver",
									"type": "address"
								},
								{
									"internalType": "bytes",
									"name": "rules",
									"type": "bytes"
								}
							],
							"internalType": "struct ERC3000Data.Config",
							"name": "config",
							"type": "tuple"
						}
					],
					"internalType": "struct ERC3000Data.Container",
					"name": "_container",
					"type": "tuple"
				},
				{
					"internalType": "bytes",
					"name": "_reason",
					"type": "bytes"
				}
			],
			"name": "challenge",
			"outputs": [
				{
					"internalType": "uint256",
					"name": "disputeId",
					"type": "uint256"
				}
			],
			"stateMutability": "nonpayable",
			"type": "function"
		},
		{
			"inputs": [
				{
					"internalType": "bytes32",
					"name": "",
					"type": "bytes32"
				}
			],
			"name": "challengerCache",
			"outputs": [
				{
					"internalType": "address",
					"name": "",
					"type": "address"
				}
			],
			"stateMutability": "view",
			"type": "function"
		},
		{
			"inputs": [],
			"name": "configHash",
			"outputs": [
				{
					"internalType": "bytes32",
					"name": "",
					"type": "bytes32"
				}
			],
			"stateMutability": "view",
			"type": "function"
		},
		{
			"inputs": [
				{
					"components": [
						{
							"internalType": "uint256",
							"name": "executionDelay",
							"type": "uint256"
						},
						{
							"components": [
								{
									"internalType": "address",
									"name": "token",
									"type": "address"
								},
								{
									"internalType": "uint256",
									"name": "amount",
									"type": "uint256"
								}
							],
							"internalType": "struct ERC3000Data.Collateral",
							"name": "scheduleDeposit",
							"type": "tuple"
						},
						{
							"components": [
								{
									"internalType": "address",
									"name": "token",
									"type": "address"
								},
								{
									"internalType": "uint256",
									"name": "amount",
									"type": "uint256"
								}
							],
							"internalType": "struct ERC3000Data.Collateral",
							"name": "challengeDeposit",
							"type": "tuple"
						},
						{
							"internalType": "address",
							"name": "resolver",
							"type": "address"
						},
						{
							"internalType": "bytes",
							"name": "rules",
							"type": "bytes"
						}
					],
					"internalType": "struct ERC3000Data.Config",
					"name": "_config",
					"type": "tuple"
				}
			],
			"name": "configure",
			"outputs": [
				{
					"internalType": "bytes32",
					"name": "",
					"type": "bytes32"
				}
			],
			"stateMutability": "nonpayable",
			"type": "function"
		},
		{
			"inputs": [
				{
					"internalType": "contract IArbitrator",
					"name": "",
					"type": "address"
				},
				{
					"internalType": "uint256",
					"name": "",
					"type": "uint256"
				}
			],
			"name": "disputeItemCache",
			"outputs": [
				{
					"internalType": "bytes32",
					"name": "",
					"type": "bytes32"
				}
			],
			"stateMutability": "view",
			"type": "function"
		},
		{
			"inputs": [
				{
					"components": [
						{
							"components": [
								{
									"internalType": "uint256",
									"name": "nonce",
									"type": "uint256"
								},
								{
									"internalType": "uint256",
									"name": "executionTime",
									"type": "uint256"
								},
								{
									"internalType": "address",
									"name": "submitter",
									"type": "address"
								},
								{
									"internalType": "contract IERC3000Executor",
									"name": "executor",
									"type": "address"
								},
								{
									"components": [
										{
											"internalType": "address",
											"name": "to",
											"type": "address"
										},
										{
											"internalType": "uint256",
											"name": "value",
											"type": "uint256"
										},
										{
											"internalType": "bytes",
											"name": "data",
											"type": "bytes"
										}
									],
									"internalType": "struct ERC3000Data.Action[]",
									"name": "actions",
									"type": "tuple[]"
								},
								{
									"internalType": "bytes32",
									"name": "allowFailuresMap",
									"type": "bytes32"
								},
								{
									"internalType": "bytes",
									"name": "proof",
									"type": "bytes"
								}
							],
							"internalType": "struct ERC3000Data.Payload",
							"name": "payload",
							"type": "tuple"
						},
						{
							"components": [
								{
									"internalType": "uint256",
									"name": "executionDelay",
									"type": "uint256"
								},
								{
									"components": [
										{
											"internalType": "address",
											"name": "token",
											"type": "address"
										},
										{
											"internalType": "uint256",
											"name": "amount",
											"type": "uint256"
										}
									],
									"internalType": "struct ERC3000Data.Collateral",
									"name": "scheduleDeposit",
									"type": "tuple"
								},
								{
									"components": [
										{
											"internalType": "address",
											"name": "token",
											"type": "address"
										},
										{
											"internalType": "uint256",
											"name": "amount",
											"type": "uint256"
										}
									],
									"internalType": "struct ERC3000Data.Collateral",
									"name": "challengeDeposit",
									"type": "tuple"
								},
								{
									"internalType": "address",
									"name": "resolver",
									"type": "address"
								},
								{
									"internalType": "bytes",
									"name": "rules",
									"type": "bytes"
								}
							],
							"internalType": "struct ERC3000Data.Config",
							"name": "config",
							"type": "tuple"
						}
					],
					"internalType": "struct ERC3000Data.Container",
					"name": "_container",
					"type": "tuple"
				}
			],
			"name": "execute",
			"outputs": [
				{
					"internalType": "bytes32",
					"name": "failureMap",
					"type": "bytes32"
				},
				{
					"internalType": "bytes[]",
					"name": "execResults",
					"type": "bytes[]"
				}
			],
			"stateMutability": "nonpayable",
			"type": "function"
		},
		{
			"inputs": [
				{
					"components": [
						{
							"components": [
								{
									"internalType": "uint256",
									"name": "nonce",
									"type": "uint256"
								},
								{
									"internalType": "uint256",
									"name": "executionTime",
									"type": "uint256"
								},
								{
									"internalType": "address",
									"name": "submitter",
									"type": "address"
								},
								{
									"internalType": "contract IERC3000Executor",
									"name": "executor",
									"type": "address"
								},
								{
									"components": [
										{
											"internalType": "address",
											"name": "to",
											"type": "address"
										},
										{
											"internalType": "uint256",
											"name": "value",
											"type": "uint256"
										},
										{
											"internalType": "bytes",
											"name": "data",
											"type": "bytes"
										}
									],
									"internalType": "struct ERC3000Data.Action[]",
									"name": "actions",
									"type": "tuple[]"
								},
								{
									"internalType": "bytes32",
									"name": "allowFailuresMap",
									"type": "bytes32"
								},
								{
									"internalType": "bytes",
									"name": "proof",
									"type": "bytes"
								}
							],
							"internalType": "struct ERC3000Data.Payload",
							"name": "payload",
							"type": "tuple"
						},
						{
							"components": [
								{
									"internalType": "uint256",
									"name": "executionDelay",
									"type": "uint256"
								},
								{
									"components": [
										{
											"internalType": "address",
											"name": "token",
											"type": "address"
										},
										{
											"internalType": "uint256",
											"name": "amount",
											"type": "uint256"
										}
									],
									"internalType": "struct ERC3000Data.Collateral",
									"name": "scheduleDeposit",
									"type": "tuple"
								},
								{
									"components": [
										{
											"internalType": "address",
											"name": "token",
											"type": "address"
										},
										{
											"internalType": "uint256",
											"name": "amount",
											"type": "uint256"
										}
									],
									"internalType": "struct ERC3000Data.Collateral",
									"name": "challengeDeposit",
									"type": "tuple"
								},
								{
									"internalType": "address",
									"name": "resolver",
									"type": "address"
								},
								{
									"internalType": "bytes",
									"name": "rules",
									"type": "bytes"
								}
							],
							"internalType": "struct ERC3000Data.Config",
							"name": "config",
							"type": "tuple"
						}
					],
					"internalType": "struct ERC3000Data.Container",
					"name": "_container",
					"type": "tuple"
				}
			],
			"name": "executeApproved",
			"outputs": [
				{
					"internalType": "bytes32",
					"name": "failureMap",
					"type": "bytes32"
				},
				{
					"internalType": "bytes[]",
					"name": "execResults",
					"type": "bytes[]"
				}
			],
			"stateMutability": "nonpayable",
			"type": "function"
		},
		{
			"inputs": [
				{
					"internalType": "bytes4",
					"name": "_role",
					"type": "bytes4"
				}
			],
			"name": "freeze",
			"outputs": [],
			"stateMutability": "nonpayable",
			"type": "function"
		},
		{
			"inputs": [
				{
					"internalType": "bytes4",
					"name": "_role",
					"type": "bytes4"
				},
				{
					"internalType": "address",
					"name": "_who",
					"type": "address"
				}
			],
			"name": "grant",
			"outputs": [],
			"stateMutability": "nonpayable",
			"type": "function"
		},
		{
			"inputs": [
				{
					"internalType": "bytes4",
					"name": "_role",
					"type": "bytes4"
				},
				{
					"internalType": "address",
					"name": "_who",
					"type": "address"
				},
				{
					"internalType": "contract IACLOracle",
					"name": "_oracle",
					"type": "address"
				}
			],
			"name": "grantWithOracle",
			"outputs": [],
			"stateMutability": "nonpayable",
			"type": "function"
		},
		{
			"inputs": [
				{
					"internalType": "string",
					"name": "",
					"type": "string"
				}
			],
			"name": "initBlocks",
			"outputs": [
				{
					"internalType": "uint256",
					"name": "",
					"type": "uint256"
				}
			],
			"stateMutability": "view",
			"type": "function"
		},
		{
			"inputs": [
				{
					"internalType": "address",
					"name": "_aclRoot",
					"type": "address"
				},
				{
					"components": [
						{
							"internalType": "uint256",
							"name": "executionDelay",
							"type": "uint256"
						},
						{
							"components": [
								{
									"internalType": "address",
									"name": "token",
									"type": "address"
								},
								{
									"internalType": "uint256",
									"name": "amount",
									"type": "uint256"
								}
							],
							"internalType": "struct ERC3000Data.Collateral",
							"name": "scheduleDeposit",
							"type": "tuple"
						},
						{
							"components": [
								{
									"internalType": "address",
									"name": "token",
									"type": "address"
								},
								{
									"internalType": "uint256",
									"name": "amount",
									"type": "uint256"
								}
							],
							"internalType": "struct ERC3000Data.Collateral",
							"name": "challengeDeposit",
							"type": "tuple"
						},
						{
							"internalType": "address",
							"name": "resolver",
							"type": "address"
						},
						{
							"internalType": "bytes",
							"name": "rules",
							"type": "bytes"
						}
					],
					"internalType": "struct ERC3000Data.Config",
					"name": "_initialConfig",
					"type": "tuple"
				}
			],
			"name": "initialize",
			"outputs": [],
			"stateMutability": "nonpayable",
			"type": "function"
		},
		{
			"inputs": [
				{
					"internalType": "bytes4",
					"name": "_role",
					"type": "bytes4"
				}
			],
			"name": "isFrozen",
			"outputs": [
				{
					"internalType": "bool",
					"name": "",
					"type": "bool"
				}
			],
			"stateMutability": "view",
			"type": "function"
		},
		{
			"inputs": [],
			"name": "nonce",
			"outputs": [
				{
					"internalType": "uint256",
					"name": "",
					"type": "uint256"
				}
			],
			"stateMutability": "view",
			"type": "function"
		},
		{
			"inputs": [
				{
					"internalType": "bytes32",
					"name": "",
					"type": "bytes32"
				}
			],
			"name": "queue",
			"outputs": [
				{
					"internalType": "enum GovernQueueStateLib.State",
					"name": "state",
					"type": "uint8"
				}
			],
			"stateMutability": "view",
			"type": "function"
		},
		{
			"inputs": [
				{
					"components": [
						{
							"components": [
								{
									"internalType": "uint256",
									"name": "nonce",
									"type": "uint256"
								},
								{
									"internalType": "uint256",
									"name": "executionTime",
									"type": "uint256"
								},
								{
									"internalType": "address",
									"name": "submitter",
									"type": "address"
								},
								{
									"internalType": "contract IERC3000Executor",
									"name": "executor",
									"type": "address"
								},
								{
									"components": [
										{
											"internalType": "address",
											"name": "to",
											"type": "address"
										},
										{
											"internalType": "uint256",
											"name": "value",
											"type": "uint256"
										},
										{
											"internalType": "bytes",
											"name": "data",
											"type": "bytes"
										}
									],
									"internalType": "struct ERC3000Data.Action[]",
									"name": "actions",
									"type": "tuple[]"
								},
								{
									"internalType": "bytes32",
									"name": "allowFailuresMap",
									"type": "bytes32"
								},
								{
									"internalType": "bytes",
									"name": "proof",
									"type": "bytes"
								}
							],
							"internalType": "struct ERC3000Data.Payload",
							"name": "payload",
							"type": "tuple"
						},
						{
							"components": [
								{
									"internalType": "uint256",
									"name": "executionDelay",
									"type": "uint256"
								},
								{
									"components": [
										{
											"internalType": "address",
											"name": "token",
											"type": "address"
										},
										{
											"internalType": "uint256",
											"name": "amount",
											"type": "uint256"
										}
									],
									"internalType": "struct ERC3000Data.Collateral",
									"name": "scheduleDeposit",
									"type": "tuple"
								},
								{
									"components": [
										{
											"internalType": "address",
											"name": "token",
											"type": "address"
										},
										{
											"internalType": "uint256",
											"name": "amount",
											"type": "uint256"
										}
									],
									"internalType": "struct ERC3000Data.Collateral",
									"name": "challengeDeposit",
									"type": "tuple"
								},
								{
									"internalType": "address",
									"name": "resolver",
									"type": "address"
								},
								{
									"internalType": "bytes",
									"name": "rules",
									"type": "bytes"
								}
							],
							"internalType": "struct ERC3000Data.Config",
							"name": "config",
							"type": "tuple"
						}
					],
					"internalType": "struct ERC3000Data.Container",
					"name": "_container",
					"type": "tuple"
				},
				{
					"internalType": "uint256",
					"name": "_disputeId",
					"type": "uint256"
				}
			],
			"name": "resolve",
			"outputs": [
				{
					"internalType": "bytes32",
					"name": "failureMap",
					"type": "bytes32"
				},
				{
					"internalType": "bytes[]",
					"name": "execResults",
					"type": "bytes[]"
				}
			],
			"stateMutability": "nonpayable",
			"type": "function"
		},
		{
			"inputs": [
				{
					"internalType": "bytes4",
					"name": "_role",
					"type": "bytes4"
				},
				{
					"internalType": "address",
					"name": "_who",
					"type": "address"
				}
			],
			"name": "revoke",
			"outputs": [],
			"stateMutability": "nonpayable",
			"type": "function"
		},
		{
			"inputs": [
				{
					"internalType": "bytes4",
					"name": "",
					"type": "bytes4"
				},
				{
					"internalType": "address",
					"name": "",
					"type": "address"
				}
			],
			"name": "roles",
			"outputs": [
				{
					"internalType": "address",
					"name": "",
					"type": "address"
				}
			],
			"stateMutability": "view",
			"type": "function"
		},
		{
			"inputs": [
				{
					"internalType": "uint256",
					"name": "_disputeId",
					"type": "uint256"
				},
				{
					"internalType": "uint256",
					"name": "_ruling",
					"type": "uint256"
				}
			],
			"name": "rule",
			"outputs": [],
			"stateMutability": "nonpayable",
			"type": "function"
		},
		{
			"inputs": [
				{
					"components": [
						{
							"components": [
								{
									"internalType": "uint256",
									"name": "nonce",
									"type": "uint256"
								},
								{
									"internalType": "uint256",
									"name": "executionTime",
									"type": "uint256"
								},
								{
									"internalType": "address",
									"name": "submitter",
									"type": "address"
								},
								{
									"internalType": "contract IERC3000Executor",
									"name": "executor",
									"type": "address"
								},
								{
									"components": [
										{
											"internalType": "address",
											"name": "to",
											"type": "address"
										},
										{
											"internalType": "uint256",
											"name": "value",
											"type": "uint256"
										},
										{
											"internalType": "bytes",
											"name": "data",
											"type": "bytes"
										}
									],
									"internalType": "struct ERC3000Data.Action[]",
									"name": "actions",
									"type": "tuple[]"
								},
								{
									"internalType": "bytes32",
									"name": "allowFailuresMap",
									"type": "bytes32"
								},
								{
									"internalType": "bytes",
									"name": "proof",
									"type": "bytes"
								}
							],
							"internalType": "struct ERC3000Data.Payload",
							"name": "payload",
							"type": "tuple"
						},
						{
							"components": [
								{
									"internalType": "uint256",
									"name": "executionDelay",
									"type": "uint256"
								},
								{
									"components": [
										{
											"internalType": "address",
											"name": "token",
											"type": "address"
										},
										{
											"internalType": "uint256",
											"name": "amount",
											"type": "uint256"
										}
									],
									"internalType": "struct ERC3000Data.Collateral",
									"name": "scheduleDeposit",
									"type": "tuple"
								},
								{
									"components": [
										{
											"internalType": "address",
											"name": "token",
											"type": "address"
										},
										{
											"internalType": "uint256",
											"name": "amount",
											"type": "uint256"
										}
									],
									"internalType": "struct ERC3000Data.Collateral",
									"name": "challengeDeposit",
									"type": "tuple"
								},
								{
									"internalType": "address",
									"name": "resolver",
									"type": "address"
								},
								{
									"internalType": "bytes",
									"name": "rules",
									"type": "bytes"
								}
							],
							"internalType": "struct ERC3000Data.Config",
							"name": "config",
							"type": "tuple"
						}
					],
					"internalType": "struct ERC3000Data.Container",
					"name": "_container",
					"type": "tuple"
				}
			],
			"name": "schedule",
			"outputs": [
				{
					"internalType": "bytes32",
					"name": "containerHash",
					"type": "bytes32"
				}
			],
			"stateMutability": "nonpayable",
			"type": "function"
		},
		{
			"inputs": [
				{
					"components": [
						{
							"components": [
								{
									"internalType": "uint256",
									"name": "nonce",
									"type": "uint256"
								},
								{
									"internalType": "uint256",
									"name": "executionTime",
									"type": "uint256"
								},
								{
									"internalType": "address",
									"name": "submitter",
									"type": "address"
								},
								{
									"internalType": "contract IERC3000Executor",
									"name": "executor",
									"type": "address"
								},
								{
									"components": [
										{
											"internalType": "address",
											"name": "to",
											"type": "address"
										},
										{
											"internalType": "uint256",
											"name": "value",
											"type": "uint256"
										},
										{
											"internalType": "bytes",
											"name": "data",
											"type": "bytes"
										}
									],
									"internalType": "struct ERC3000Data.Action[]",
									"name": "actions",
									"type": "tuple[]"
								},
								{
									"internalType": "bytes32",
									"name": "allowFailuresMap",
									"type": "bytes32"
								},
								{
									"internalType": "bytes",
									"name": "proof",
									"type": "bytes"
								}
							],
							"internalType": "struct ERC3000Data.Payload",
							"name": "payload",
							"type": "tuple"
						},
						{
							"components": [
								{
									"internalType": "uint256",
									"name": "executionDelay",
									"type": "uint256"
								},
								{
									"components": [
										{
											"internalType": "address",
											"name": "token",
											"type": "address"
										},
										{
											"internalType": "uint256",
											"name": "amount",
											"type": "uint256"
										}
									],
									"internalType": "struct ERC3000Data.Collateral",
									"name": "scheduleDeposit",
									"type": "tuple"
								},
								{
									"components": [
										{
											"internalType": "address",
											"name": "token",
											"type": "address"
										},
										{
											"internalType": "uint256",
											"name": "amount",
											"type": "uint256"
										}
									],
									"internalType": "struct ERC3000Data.Collateral",
									"name": "challengeDeposit",
									"type": "tuple"
								},
								{
									"internalType": "address",
									"name": "resolver",
									"type": "address"
								},
								{
									"internalType": "bytes",
									"name": "rules",
									"type": "bytes"
								}
							],
							"internalType": "struct ERC3000Data.Config",
							"name": "config",
							"type": "tuple"
						}
					],
					"internalType": "struct ERC3000Data.Container",
					"name": "_container",
					"type": "tuple"
				}
			],
			"name": "settleRejection",
			"outputs": [],
			"stateMutability": "nonpayable",
			"type": "function"
		},
		{
			"inputs": [
				{
					"internalType": "uint256",
					"name": "",
					"type": "uint256"
				},
				{
					"internalType": "bytes",
					"name": "",
					"type": "bytes"
				},
				{
					"internalType": "bool",
					"name": "",
					"type": "bool"
				}
			],
			"name": "submitEvidence",
			"outputs": [],
			"stateMutability": "nonpayable",
			"type": "function"
		},
		{
			"inputs": [
				{
					"internalType": "bytes4",
					"name": "_interfaceId",
					"type": "bytes4"
				}
			],
			"name": "supportsInterface",
			"outputs": [
				{
					"internalType": "bool",
					"name": "",
					"type": "bool"
				}
			],
			"stateMutability": "view",
			"type": "function"
		},
		{
			"inputs": [
				{
					"internalType": "bytes32",
					"name": "_containerHash",
					"type": "bytes32"
				},
				{
					"internalType": "bytes",
					"name": "_reason",
					"type": "bytes"
				}
			],
			"name": "veto",
			"outputs": [],
			"stateMutability": "nonpayable",
			"type": "function"
		},
		{
			"inputs": [
				{
					"internalType": "bytes4",
					"name": "_role",
					"type": "bytes4"
				},
				{
					"internalType": "address",
					"name": "_sender",
					"type": "address"
				},
				{
					"internalType": "bytes",
					"name": "_data",
					"type": "bytes"
				}
			],
			"name": "willPerform",
			"outputs": [
				{
					"internalType": "bool",
					"name": "",
					"type": "bool"
				}
			],
			"stateMutability": "nonpayable",
			"type": "function"
		}
	]
}